:100000000C94D0020C9417140C94F0130C94F80276
:100010000C94F8020C94F8020C94F8020C94C70BA0
:100020000C94F8020C94F8020C94F8020C94ED0B6A
:100030000C94F8020C94F8020C94F8020C94F80258
:100040000C94481B0C94F8020C9488140C946214C1
:100050000C94F8020C94F8020C94F8020C94F80238
:100060000C94F8020C94F80208000000BE92244997
:10007000123EABAAAA2ABECDCCCC4C3E00000080DA
:10008000BEABAAAAAA3E00000000BF000000803F4D
:100090000000000000084178D3BB4387D1133D190D
:1000A0000E3CC3BD4282AD2B3E68EC8276BED98F3A
:1000B000E1A93E4C80EFFFBE01C4FF7F3F0000007E
:1000C000000007634236B79BD8A71A39685618AEA6
:1000D000BAAB558C1D3CB7CC5763BD6DEDFD753E7D
:1000E000F6177231BF000000803F6E616E00696ECE
:1000F000660000407A10F35A00A0724E18090010F2
:10010000A5D4E80000E87648170000E40B5402008C
:1001100000CA9A3B000000E1F505000080969800B7
:10012000000040420F000000A086010000001027E0
:1001300000000000E8030000000064000000000070
:100140000A00000000000100000000002C76D888A2
:10015000DC674F0823DFC1DFAE59E1B1B796E5E3B5
:10016000E453C63AE651997696E8E6C28426EB89CE
:100170008C9B62ED407C6FFCEFBC9C9F40F2BAA56B
:100180006FA5F490055A2AF75C936B6CF9676DC103
:100190001BFCE0E40D47FEF520E6B500D0ED902E07
:1001A0000300943577050080841E080000204E0A65
:1001B000000000C80C333333330F986E12831141A3
:1001C000EF8D2114893BE65516CFFEE6DB18D1846E
:1001D0004B381BF77C1D901DA4BBE4242032847295
:1001E0005E228100C9F124ECA1E53D2725252E25BD
:1001F00075660025303278002B52454D3D693263DB
:10020000743D2530327825303278002B52454D3DF3
:100210004C43463D252E34660A002B52454D3D4C3D
:1002200043463D252E34660A002B52454D3D6E74E3
:1002300063746D706F66733D25640A002B52454DE3
:100240003D6E7463746D706F66733D25640A002B98
:1002500052454D3D746D706F66733D25640A002BE9
:1002600052454D3D746D706F66733D25640A002BD9
:1002700052454D3D7A6364656C61793D25752C303E
:1002800078253032780A002B52454D3D7A636465FB
:100290006C61793D25752C3078253032780A002B39
:1002A00052454D3D7A6364656C61793D25752C300E
:1002B00078253032780A002B52454D3D7265663103
:1002C000313D252E34660A002B52454D3D72656640
:1002D00031313D252E34660A002B52454D3D4545B2
:1002E00050524F4D572C633D256C752C703D257534
:1002F0002C6E3D256C752C773D25752C6372633D06
:10030000253034780A002B52454D3D0041546D652F
:100310006761333238500041546D6567613332385C
:100320005042004D696E2E6F6E3D25752C41646AFA
:100330002E68773D25752C5A432E64656C61793D96
:1003400025750A004C46433D005643433D252E3358
:10035000662C006D61782E746D703D25752F2575A6
:10036000732C6D6574726963733D25752C002F25A0
:100370002B7500496E742E54656D703D252E3266C6
:10038000002F252B75004E54433D252E326600521A
:100390006573746F72653D25752C41434672713DDE
:1003A000252E33662C72656631313D0076616C75A1
:1003B00065733D002C4C766C733D25752C503D00CB
:1003C0005469636B733D00416464723D253032783B
:1003D0002C5072653D25752F25752C0043453D3108
:1003E0002C0050723D554152542C004143467271CD
:1003F0003D25752C004C43462C00466164652C005D
:100400005643432C0054656D702E43686B2C004995
:100410006E742E54656D702C004E54433D4125750D
:100420002C00454550524F4D3D256C752C006F708A
:1004300074696F6E733D004025754D687A0A002C13
:100440004D43553D2553007369673D253032782D66
:10045000253032782D253032782C66757365733DE2
:100460006C3A253032782C683A253032782C653A4F
:1004700025303278004D4F534645542044696D6D08
:10048000657220322E312E35204F637420203620A5
:10049000323032302030313A33343A313420417501
:1004A00074686F72207361736368615F6C616D6DF6
:1004B00065727340676D782E6465002B4932435234
:1004C0003D002B52454D3D454550524F4D20435226
:1004D00043206572726F72002B52454D3D45455069
:1004E000524F4D522C633D256C752C703D25752C5B
:1004F0006E3D256C752C6372633D253034783D2547
:100500003034780A000000000800020100000304F3
:10051000070000000000000000424F4F54001E95ED
:1005200016006C766C3D006672713D252E33662C8C
:10053000005643433D25752C00696E742E74656D1D
:10054000703D252E33662C004E54433D252E3366D8
:100550002C002B52454D3D000000000025002800D6
:100560002B0000000000240027002A0004040404DB
:10057000040404040202020202020303030303034D
:10058000010204081020408001020408102001022A
:10059000040810202B493243543D0000E61F921BF3
:1005A00011241FBECFEFD8E0DEBFCDBF22E0A8E50B
:1005B000B1E001C01D92A23DB207E1F711E0A0E059
:1005C000B1E0E2E6FBE502C005900D92A835B10767
:1005D000D9F712E0CFECD2E004C02197FE010E94CF
:1005E000B628CE3CD107C9F70E94A01B0C94A42DBD
:1005F0000C94000080E090E0089520919A01420F51
:1006000040939A0102971CF46093CE0108958EEBFB
:100610008093CE010895082E000C990BFC01EE0F7B
:10062000FF1FEB59FE4F0190F081E02D2081DC018E
:10063000A959BE4F8C918095822380830895CF93D2
:10064000DF93C091C102D091C202E881F981008498
:10065000F185E02DCE010995892B69F0E881F981BA
:100660000284F385E02DCE010995682F88E992E098
:100670000E945317EACFDF91CF9108951092850021
:10068000109284001092890010928800809181005D
:1006900082608093810080917B0190917C01009722
:1006A00019F480E00C940B03109279019093890067
:1006B0008093880080919C0190919D01892B19F471
:1006C00080E00E940B0320E0E22F022E000CFF0BC3
:1006D000CF01880F991FE80FF91FE759FE4F828954
:1006E0009389892BA9F08189082E000C990BFC01B4
:1006F000EE0FFF1FEB59FE4F0190F081E02D30818E
:10070000DC01A959BE4F8C91832B80832F5FDCCFF6
:100710000895CF93DF93C091CE01D0E0C05FDE4F4C
:1007200080919A019FEF980F90939A01882361F02E
:10073000FE0181E0CF3CD80738F42196608188E93A
:1007400092E00E940916ECCF10929A01DF91CF91AE
:1007500008952F923F924F925F926F927F928F9265
:100760009F92AF92BF92CF92DF92EF92FF920F9340
:100770001F93CF93DF93CDB7DEB7A8970FB6F8944A
:10078000DEBF0FBECDBF6B017C01142F022F20E016
:1007900030E0A9010E94D12946015701181624F022
:1007A000B7FAB094B7F8B09420E030E040E85FE3E7
:1007B000C501B4010E941C2787FF19C020E030E06A
:1007C00040E251E4C501B4010E9482274B015C0163
:1007D00020E030E040E85FE30E941C2787FF19C05B
:1007E000101708F400C115C0123098F0115020E025
:1007F00030E040E251E4C501B4010E9429294B01D7
:100800005C0120E030E040E85FE30E94D129181647
:100810005CF31F921F938CEE91E09F938F931F9236
:1008200088E08F935E0121E2A20EB11CBF92AF92CD
:100830000E945F26FF92EF92DF92CF92BF92AF921B
:100840001F9280E28F93CE0101965C019F938F935C
:100850000E94742D0FB6F894DEBF0FBECDBF8097F7
:10086000A4F46EE270E0C5010E94692D009769F062
:10087000DC011196FD0101900020E9F731973197D5
:10088000AE17BF0708F4B1C0012FA7019601C70139
:10089000B6010E94762A882319F088E491E027C0E7
:1008A00046015701E894B7F82FEF3FEF4FE75FE7B6
:1008B000C501B4010E94762A81110DC02FEF3FEFD0
:1008C0004FE75FE7C501B4010E941C2718161CF40E
:1008D0008CE491E00CC02FEF3FEF4FE75FE4C701DE
:1008E000B6010E94D12918162CF480E591E00E94EF
:1008F000871882C02FEF3FEF4FE75FECC701B601CB
:100900000E941C2787FDF1CF20E030E0A901C7013C
:10091000B6010E941C2787FF09C08DE20E94821841
:100920005C01F7FAF094F7F8F09402C0A12CB12C16
:1009300010E060E070E080E09FE3011741F020E00C
:1009400030E040E251E40E9429291F5FF6CFA70161
:1009500096010E94BD282B013C010E94A2296B0137
:100960007C014AE00E9499181C012A0C3B1C0023C0
:10097000C1F1C701B6010E9421279B01AC01C3014F
:10098000B2010E94BC284B015C018EE20E948218D9
:100990007101E80EF91E20E030E040E251E4C501AB
:1009A000B4010E9482272B013C010E94A2294B0125
:1009B000A12CB12C4AE0C501B4010E949918E80E9F
:1009C000F91EC501B4010E9421279B01AC01C3019E
:1009D000B2010E94BC284B015C010150E1F6C70145
:1009E0000BC0C10109C01F5FE9CE8081803309F0CF
:1009F0004BCF1082115043CFA8960FB6F894DEBFAC
:100A00000FBECDBFDF91CF911F910F91FF90EF905F
:100A1000DF90CF90BF90AF909F908F907F906F901E
:100A20005F904F903F902F9008952F923F924F925A
:100A30005F926F927F928F929F92AF92BF92CF926E
:100A4000DF92EF92FF920F931F93CF93DF93CDB777
:100A5000DEB72E970FB6F894DEBF0FBECDBFCE0126
:100A600001961C0186E0F10111928A95E9F7C09088
:100A70009C01D0909D01C114F0E2DF0609F49EC0F4
:100A8000C114D10409F49EC00091BE011091BF01B0
:100A9000B80180E090E00E9421276B877C878D87DA
:100AA0009E874090B9015090BA016090BB01709050
:100AB000BC0120E030E040E85FE3C301B2010E94E6
:100AC0001C27E12CF12C882399F0C701B6010E9464
:100AD0002127A30192010E94262A209175013091BD
:100AE000760140917701509178010E94822704C0DD
:100AF000C701B6010E94212720E034E342E056E41A
:100B00000E94822720E030E040E059E30E948227E3
:100B10004B015C016091C0017091C10180E090E0E7
:100B20000E9421276F83788789879A879B01AC0170
:100B3000C501B4010E94BC289B01AC016B857C857A
:100B40008D859E850E94D12918160CF45EC020E088
:100B500030E040E85FE3C301B2010E941C27882314
:100B600099F0C701B6010E942127A30192010E94BA
:100B7000262A20917501309176014091770150919C
:100B800078010E94822704C0C701B6010E94212774
:100B900020E034E342E056E40E94822720E030E087
:100BA00040E059E30E9482272F81388549855A8584
:100BB0000E94BC280E94A2298B0127C08FEF9FEFC3
:100BC0009B838A83F89486E0F101A0E8B1E001906C
:100BD0000D928A95E1F778942E960FB6F894DEBFC1
:100BE0000FBECDBFDF91CF911F910F91FF90EF907E
:100BF000DF90CF90BF90AF909F908F907F906F903D
:100C00005F904F903F902F90089501151105D1F2FC
:100C10008091BD01080F111D1B830A83D3CFCF9292
:100C2000DF92EF92FF920E94FD1A6B017C0180918E
:100C30005F0190916001A0916101B0916201C816BD
:100C4000D906EA06FB06D8F580915F019091600114
:100C5000A0916101B09162018C199D09AE09BF0993
:100C60008F3F9F4FAF4FBF47B8F080915F0190918A
:100C70006001A0916101B0916201B095A09590953D
:100C800081959F4FAF4FBF4F80935F01909360015D
:100C9000A0936101B093620180915F019091600126
:100CA000A0916101B0916201C816D906EA06FB065F
:100CB00030F48091CD018F5F8093CD01D6C09091AB
:100CC000BD01992351F08091B10084608093B100FF
:100CD0001092B2009093B30002C00E943E0383EBD7
:100CE000C80E85E1D81EE11CF11CC0925F01D092B4
:100CF0006001E0926101F092620186E0E0E8F1E0DB
:100D0000AAE7B1E001900D928A95E1F77894E0901E
:100D10007101F0907201E114F10409F44AC02091CC
:100D20006D0130916E0140916F01509170016091A1
:100D3000690170916A0180916B0190916C010E9430
:100D4000BD286093690170936A0180936B01909351
:100D50006C0121E0E21AF108F0927201E092710157
:100D6000EF2889F00E949B29613080E2780714F017
:100D700060E070E277FF02C060E070E070939D0178
:100D800060939C0116C08091730190917401813031
:100D900020E2920714F080E090E297FF02C080E02A
:100DA00090E090939D0180939C01909387018093A4
:100DB00086010E94150580915E018F5F80935E0120
:100DC00080915E018C3309F050C00E943C1BC090A2
:100DD0005A01D0905B01E0905C01F0905D019B01B5
:100DE0002C193D09309359012093580110925E014E
:100DF00060935A0170935B0180935C0190935D0155
:100E0000609158017091590180E090E00E94212783
:100E10002BEA3AEA46E254E40E94D12918165CF41F
:100E20008091CF0180648093CF018091CB018F5F4F
:100E30008093CB011AC0609158017091590180E0F4
:100E400090E00E94212725E535E540ED53E40E941E
:100E50001C2787FF0AC08091CF0180648093CF0157
:100E60008091CC018F5F8093CC01FF90EF90DF9059
:100E7000CF900895CF92DF92EF92FF920F931F933E
:100E8000CF93DF93EB017B012FE1E20EF11C8B018D
:100E90006C01C61AD70AC601800F911F0E94402814
:100EA000F80181938F01EE15FF05A9F7CE01DF91BF
:100EB000CF911F910F91FF90EF90DF90CF90089509
:100EC00066E073E08BEF91E00C943E148F929F925A
:100ED000AF92BF92CF92DF92EF92FF92CF930E9498
:100EE0001D1A6C01990FEE08FF08C4E00E94221B36
:100EF0000E941D1A092E000CAA0BBB0BC80ED91E8E
:100F0000EA1EFB1EC15091F7C701B60125E030E093
:100F100040E050E00E946628B90180E090E00E9425
:100F200021279B01AC0160E070EC8FE794E40E9404
:100F3000292920E030E040E85FE30E94BC2820E05F
:100F400030E44EE455E40E94822720E030E44CE196
:100F500056E40E9429290E94DE2920E030EE46E76F
:100F600055E40E9429292FE03FEC4BE55BE30E940A
:100F7000BD289B01AC0160E070E080E89FE30E9427
:100F800029294B015C016091C701062E000C770BEB
:100F9000880B990B0E94232720E030E040E85EE3B5
:100FA0000E9482276B017C0123E333E948E853E484
:100FB000C501B4010E94BC289B01AC01C701B60168
:100FC0000E94BD28CF91FF90EF90DF90CF90BF900F
:100FD000AF909F908F900895CF92DF92EF92FF9203
:100FE0001F93CF93DF938EE480937C0010E0C0E0EA
:100FF000D0E00E94221B1A3011F4C0E0D0E08091B2
:101000007A00806480937A0080917A0086FDFCCF1C
:101010008091780090917900C80FD91F1F5F14311B
:1010200041F720E030E44CE15BE46091C201709153
:10103000C3018091C4019091C5010E9482276B0178
:101040007C01BE0180E090E00E9421279B01AC0161
:10105000C701B6010E9429290E94A229CB01DF9174
:10106000CF911F91FF90EF90DF90CF9008954F9216
:101070005F926F927F928F929F92AF92BF92CF9228
:10108000DF92EF92FF921F93CF93DF9388EC8093D0
:101090007C0080917A00806880937A0010E0C0E044
:1010A000D0E00E94221B1F3011F4C0E0D0E08091FC
:1010B0007A00806480937A0080917A0086FDFCCF6C
:1010C0008091780090917900C80FD91F1F5F193166
:1010D00041F7BE0180E090E00E94212720E030E04F
:1010E00040E251E40E9429294B015C018091680192
:1010F000811109C09EEAC92E97E2D92E92EAE92E03
:1011000093E4F92E06C0C12CD12C87E7E82E83E4A6
:10111000F82E6091C601062E000C770B880B990BF8
:101120000E94232720E030E040E85EE30E9482270F
:101130002B013C01A7019601C501B4010E94BC2806
:1011400026EF38E24CE95FE30E9429299B01AC01BC
:10115000C301B2010E94BD28DF91CF911F91FF9082
:10116000EF90DF90CF90BF90AF909F908F907F9047
:101170006F905F904F9008958F929F92AF92BF9221
:10118000CF92DF92EF92FF920E943C1B6B017C0199
:101190008091CF0183FD35C08090040190900501BE
:1011A000A0900601B09007010E943C1BC818D90806
:1011B000EA08FB0829E8C21623E1D206E104F1049B
:1011C0003CF438E8C32E33E1D32EE12CF12C06C0D9
:1011D00024EFC22EDD24D394E12CF12CDC01CB01D1
:1011E0008C0D9D1DAE1DBF1D8093040190930501C4
:1011F000A0930601B09307018091CF01886080938E
:10120000CF01FF90EF90DF90CF90BF90AF909F9075
:101210008F900895CF93DF9381E090E0A0E0B0E05D
:101220008093DC019093DD01A093DE01B093DF0198
:101230001092640110926301C0E0D0E060E0CE0142
:101240000E9448282196C11584E0D807B9F70E946A
:10125000C5199093E1018093E00180916301909121
:101260006401DF91CF910C949D19CF93DF93CCED66
:10127000D1E08FE1FE0111928A95E9F7A2EBB1E08E
:1012800087E1FD0111928A95E9F7E0E9F1E085E255
:1012900098E092AF81AF8BE483A38C9181608260F0
:1012A0008C9380E090E0A0EFB0E484A395A3A6A384
:1012B000B7A382E080A782E185A788EC90E097A79A
:1012C00086A791AB80AB8DEC9CECACE8BFE382AB26
:1012D00093ABA4ABB5AB85E080AF80E090E0A0E835
:1012E000BFE381A792A7A3A7B4A78EEF9FEF9D832B
:1012F0008C8387E1E2EBF1E0A2EEB1E001900D9288
:101300008A95E1F7DF91CF9108954F925F926F92A6
:101310007F928F929F92AF92BF92CF92DF92EF9285
:10132000FF920F931F93CF93DF936A0148015901F6
:101330008F3F09F480E0082F880F110BF801EE0FA2
:10134000FF1FE759FE4F8FEF9FEF968F858F6F3FFF
:101350004FEF740741F4F801EE0FFF1FE456FE4F04
:101360009081818102C0962F872FC92FD82FC1303D
:1013700050E2D50714F0C0E0D0E2D7FF02C0C0E0D1
:10138000D0E0B60181E0C81680E2D80614F060E033
:1013900070E277FF02C060E070E06C1B7D0B072EEF
:1013A000000C880B990B0E9423272B013C0120E0A5
:1013B00030E040E059E30E948227A50194010E9499
:1013C00082274B015C0120E030E0A9010E94D12975
:1013D000181624F0B7FAB094B7F8B09420E030E0D3
:1013E00040EF52E4C501B4010E9482270E94A22965
:1013F0005B014CE0409F9001419F300D1124F901A9
:10140000E759FE4F7F017187608780E090E00E947E
:1014100021279B01AC01C301B2010E9429292B01A4
:101420003C01F7016483758386839783BE01DD0FDA
:10143000880B990B0E942327F701608371838283B5
:101440009383D386C286AB2849F020E030E0A9011F
:10145000C301B2010E941C2781110CC08CE0809F47
:10146000F001819FF00D1124E759FE4F81E090E0DB
:1014700091878087DF91CF911F910F91FF90EF901F
:10148000DF90CF90BF90AF909F908F907F906F90A4
:101490005F904F900895DC0191E2E0E0F0E09093DE
:1014A0005700E491EC93E2E0F0E090935700E49170
:1014B0001196EC931197E4E0F0E09093570094912B
:1014C00012969C931297CD0108958F929F92AF929E
:1014D000BF92CF92DF92EF92FF920F931F93CF9321
:1014E000DF93CDB7DEB7C054D1090FB6F894DEBF95
:1014F0000FBECDBFCE01815B9F4FFC0181909190CB
:101500006F019F01A40160E470E08E5491095C01B9
:101510000E948F268C018F33910584F002960E94E1
:10152000602B7C010097E1F09601A401B8010E94B4
:101530008F268C01181619065CF404C018161906BB
:101540006CF47501A801B7018BEF91E00E941212B3
:10155000AE14BF0419F0C7010E94F82BC80102C0E5
:1015600080E090E0C05CDF4F0FB6F894DEBF0FBEA6
:10157000CDBFDF91CF911F910F91FF90EF90DF9042
:10158000CF90BF90AF909F908F900895CF92DF92B1
:10159000EF92FF920F931F93CF93DF93CDB7DEB7F8
:1015A000A6970FB6F894DEBF0FBECDBF182F87E108
:1015B000E2EBF1E0A2EEB1E001900D928A95E1F745
:1015C00080919C0190919D019093FA018093F90183
:1015D0000E94C5199093E1018093E001BE016F5F05
:1015E0007F4F80916301909164010E943A074FE11F
:1015F00050E0BE016F5F7F4F8CED91E00E94532D54
:10160000892B19F4112309F440C080916301909152
:1016100064019C01225C3F4F2115344030F44F9609
:1016200090936401809363011DC010926401109235
:1016300063018091DC019091DD01A091DE01B09108
:10164000DF010196A11DB11D8093DC019093DD01A6
:10165000A093DE01B093DF010E94C5199093E101D0
:101660008093E00180916301909164010E949D1933
:101670000E943C1B60930401709305018093060156
:10168000909307018FE18EA30BC00E943C1B6093D7
:1016900004017093050180930601909307011EA237
:1016A0008091CF01877F8093CF018091DC01909161
:1016B000DD01A091DE01B091DF0188A399A3AAA367
:1016C000BBA380916301909164019DA38CA368E109
:1016D00088E992E00E94191783EF90E00E94981920
:1016E00047E050E0BE01605E7F4F88E992E00E94D3
:1016F00091150E944319E0916301F0916401C8A023
:10170000D9A0EAA0FBA08091E1018F938091E00134
:101710008F938EA11F928F93A701960121503109BB
:1017200041095109A1E2B0E00E9488288B019C0187
:10173000CF016FE170E00E94A228D901C801860F95
:10174000971FA11DB11DBF93AF939F938F93FF93DD
:10175000EF93FF92EF92DF92CF9289ED92E09F9309
:101760008F930E94650A0FB6F894DEBF0FBECDBFFF
:10177000A6960FB6F894DEBF0FBECDBFDF91CF9116
:101780001F910F91FF90EF90DF90CF9008951F92DF
:101790000F920FB60F9211242F933F934F935F93A5
:1017A0006F937F938F939F93AF93BF93EF93FF9329
:1017B0001092B1000E943E03FF91EF91BF91AF9153
:1017C0009F918F917F916F915F914F913F912F9159
:1017D0000F900FBE0F901F9018951F920F920FB68B
:1017E0000F9211240F931F932F933F934F935F9367
:1017F0006F937F938F939F93AF93BF93CF93DF9319
:10180000EF93FF9300917901C1E0C00FC09379017C
:10181000002E000C110BC801880F991F080F191F0B
:1018200006581E4F0C2E000CDD0BCE01880F991FA1
:10183000C80FD91FC658DE4FF80180810E940B03E4
:1018400089819A819C01215031092E3F3F4F18F028
:101850001092810029C0F8012181328128173907AF
:1018600098F42091840030918500285F3F4F8217C3
:10187000930728F4809184009091850008969093B6
:1018800089008093880010C0809179018F5F8093D8
:101890007901082E000C990B9C01220F331F820F37
:1018A000931F8E01EC01C6CFFF91EF91DF91CF9195
:1018B000BF91AF919F918F917F916F915F914F9168
:1018C0003F912F911F910F910F900FBE0F901F907E
:1018D00018959B01AC016093B9017093BA01809394
:1018E000BB019093BC0160E070E080E096E40E9450
:1018F000262A9B01AC0160E070E080E096E40E9443
:1019000029296093750170937601809377019093F4
:10191000780108950F931F93809158019091590178
:10192000892BC1F10E943C1B00915A0110915B016F
:1019300020915C0130915D01601B710B820B930B58
:101940000E9421272BEA3AEA46EA54E40E94D12970
:1019500018167CF410925901109258018091CF0111
:1019600080648093CF018091CB018F5F8093CB0106
:1019700011C0609158017091590180E090E00E947F
:1019800021279B01AC0160E070E68AEE96E40E949C
:10199000292904C060E070E080EC9FE71F910F915F
:1019A0000895FF920F931F93CF93DF93CDB7DEB7C8
:1019B00028970FB6F894DEBF0FBECDBF0E94600718
:1019C00085E794E00E94301A8BEF91E00E94F212BA
:1019D0000E946007CE0101960E944B0A89E0E0E078
:1019E000F0E08093570094919C83E3E0F0E08093D3
:1019F000570024912D83E2E0F0E08093570084911A
:101A00008E833B81363141F447E153E058874F8361
:101A100041E04093680104C04CE053E058874F8395
:101A20001F928F931F922F931F929F931F923F930A
:101A30008A811F928F9389811F928F9387E494E00C
:101A40009F938F930E94650A8F8198850FB6F894B3
:101A5000DEBF0FBECDBF009761F09F938F938FE3E2
:101A600094E09F938F930E94650A0F900F900F90C0
:101A70000F901F9288E0F82EFF9287E394E09F93E7
:101A80008F930E94650A8BEF91E00E94F2120E94F0
:101A900060076EE274E08BEF91E00E943E1480914B
:101AA000DC019091DD01A091DE01B091DF019C018C
:101AB000AD012150310941095109A1E2B0E00E9474
:101AC00088288B019C0180916301909164016FE1F2
:101AD00070E00E94A228D901C801860F971FA11D9E
:101AE000B11DBF93AF939F938F9382E294E09F9336
:101AF0008F930E94650A1F9286E08F9389E194E09C
:101B00009F938F930E94650A6FE074E08BEF91E0E2
:101B10000E943E1465E074E08BEF91E00E943E1459
:101B200060E074E08BEF91E00E943E146AEF73E096
:101B30008BEF91E00E943E1465EF73E08BEF91E034
:101B40000E943E141F928CE38F938BEE93E09F9341
:101B50008F930E94650A62EE73E08BEF91E00E9422
:101B60003E146CED73E08BEF91E00E943E141F92E7
:101B700080E48F931F92FF921F9287E18F9387ECEF
:101B800093E09F938F930E94650A60EC73E08BEF64
:101B900091E00E943E1428E046E060E070E080E8BA
:101BA0009FE30E94A9038FE20E94821828E046E08A
:101BB00060E070E080E09EE30E94A90380E28F93E2
:101BC0001F9284EB93E09F938F930E94650A4AE0F3
:101BD00066E070E080E090E00E94991884E591E072
:101BE0000E9487188BEF91E00E94F2120E9460071A
:101BF0006CEA73E08BEF91E00E943E140E948A0C25
:101C00009F938F937F936F938091B20181701F9206
:101C10008F938FE893E09F938F930E94650A0FB68E
:101C2000F894DEBF0FBECDBF6091C2017091C301B9
:101C30008091C4019091C50124E044E00E94A90371
:101C40008CE20E9482180E9466079F938F937F9375
:101C50006F9386E893E09F938F930E94650A80912B
:101C6000C701282F082E000C330B3F938F9381E878
:101C700093E09F938F930E94650A8CE20E948218E2
:101C80000E9437089F938F937F936F9383E793E02E
:101C90009F938F930E94650A8091C601282F082E7A
:101CA000000C330B3F938F938EE693E09F938F93BB
:101CB0000E94650A8CE20E9482188091C8011F92DE
:101CC0008F938091B8011F928F938091B3011F92DF
:101CD0008F9383E593E09F938F930E94650A0E9400
:101CE000EC07BC0180E090E00E94212720E030E07A
:101CF0004AE754E40E9429299F938F937F936F931F
:101D000089E493E09F938F930E94650A0FB6F8943D
:101D1000DEBF0FBECDBF64E473E08BEF91E00E94A5
:101D20003E146091B9017091BA018091BB0190910C
:101D3000BC0128E046E00E94A9038CE20E948218C0
:101D40008091BD011F928F938091C1018F938091EB
:101D5000C0018F938091BF018F938091BE018F93BB
:101D600083E293E09F938F930E94650A8BEF91E04B
:101D70000E94F2120FB6F894DEBF0FBECDBF2896B8
:101D80000FB6F894DEBF0FBECDBFDF91CF911F918C
:101D90000F91FF9008952F923F924F925F926F9212
:101DA0007F928F929F92AF92BF92CF92DF92EF92EB
:101DB000FF920F931F93CF93DF93EC018EEB8093F1
:101DC000CE0110929B0110929A015AE1252E52E009
:101DD000352E6FE9C62E62E0D62E412C512C612C97
:101DE0007EE3772E812C912CE0ECAE2EEFE7BE2E19
:101DF0007E0121E0E21AF1081C161D060CF0FEC25D
:101E00001091CE0188E992E00E94E719E091CE019D
:101E1000E058EF3308F0EEEBF0E0E057FE4F808340
:101E20008091CE0191E0980F9093CE011E3B19F066
:101E30001A3829F48EEB8093CE01E701D9CF1C3AF2
:101E400059F46091B9017091BA018091BB019091F0
:101E5000BC010E94690CF1CF193879F78091990182
:101E6000853509F4D0C108F046C0823209F44AC170
:101E700078F5823109F4CAC0D0F4803109F4E5C0A4
:101E80008131D9F600919501109196012091970129
:101E9000309198014091930150919401609190018B
:101EA00070919101809192010E948509C6CF803284
:101EB00009F41AC1813209F68092AC019092AD0109
:101EC000A092AE01B092AF018091CF01826017C1A4
:101ED000813509F433C148F4833209F41FC18035D8
:101EE00009F0ABCF0E94BC08A8CF833509F488C1A4
:101EF00008F429C17AC2863809F40CC2E8F58238A0
:101F000009F4C0C140F5803809F49AC1813809F05C
:101F100094CF2FE632E143E85AE36091C201709119
:101F2000C3018091C4019091C5010E94BC289B010E
:101F3000462F532F682F792F4093C2015093C3012E
:101F40006093C4017093C5019F938F933F932F9328
:101F500087EB92E0C0C1843809F4BFC108F0CBC15F
:101F60008091BD0181508093BD011F928F931F927C
:101F70008F938FE692E0AFC1893809F4EFC140F545
:101F8000873809F4D5C1883809F057CF2FE632E1F8
:101F900043E85AE36091B9017091BA018091BB01A5
:101FA0009091BC010E94BD289B01462F532F682FA2
:101FB000792F4093B9015093BA016093BB0170939C
:101FC000BC019F938F933F932F933F922F92E9C130
:101FD000823909F463C1833909F403C2813909F0F4
:101FE0002CCF1F9282EA8F931F9287E18F9388EF05
:101FF00091E09F938F930E94650AC2EBD1E00F900E
:102000000F900F900F900F900F90D4C122971E1435
:102010001F046CF488E992E00E94E719282F2F70C2
:10202000992744E0959587954A95E1F702C020E00D
:1020300088E0880F90919A01890F80939A01220F6E
:1020400024572093CE017E01F8CE50919301409108
:102050009401809192018F3FD9F4852F942F813084
:1020600040E2940714F080E090E297FF02C080E025
:1020700090E090939D0180939C01109272011092C8
:1020800071018FEF9FEF909387018093860129C0A4
:10209000082E000C990BFC01EE0FFF1FE456FE4FBB
:1020A000252F342F2130A0E23A0714F020E030E24F
:1020B00037FF02C020E030E0318320832CE0289FEE
:1020C000F001299FF00D1124E759FE4F118610866B
:1020D000880F991FFC01E759FE4F8FEF9FEF968FF6
:1020E000858F0E941505A9CE8092AC019092AD011A
:1020F000A092AE01B092AF018091CF018460809335
:10210000CF0116C01092B1011092B0018091CF01A1
:1021100081608093CF0142E060EA0CC00E948A0C8B
:102120006093AC017093AD018093AE019093AF01C9
:1021300044E06CE9C7010E94FD027FCE0E94350990
:102140000E940A097ACE22971E141F040CF07BCF3E
:1021500088E992E00E94E719182F992783309105AA
:1021600041F17CF481309105B9F0029709F06BCF11
:102170004092AC015092AD016092AE017092AF01FD
:1021800036C08430910519F1059709F05CCF609154
:10219000C0017091C1011FC080E090E0A0E8BFE3E2
:1021A0008093AC019093AD01A093AE01B093AF01C9
:1021B0001EC06091BD0170E080E090E00E94232786
:1021C00020E030E040E051E40E94822708C06091A6
:1021D000BE017091BF0180E090E00E9421276093D2
:1021E000AC017093AD018093AE019093AF011123C8
:1021F00009F429CF44E06CE9CE010E94FD0223CF0F
:102200000E94D10C1ACE10928C0110928D01109266
:102210008E0110928F0122971E141F044CF488E93E
:1022200092E00E94E71921E0892B19F420E001C017
:1022300021E08091CF0120FB85F98093CF0103CF6E
:102240002FE632E143E85AE36091C2017091C30185
:102250008091C4019091C5010E94BD289B01462F29
:10226000532F682F792F4093C2015093C30160937D
:10227000C4017093C5019F938F933F932F9388EC74
:1022800092E029C08091BD018F5F8093BD011F92B4
:102290008F931F928F93DF92CF9283C022971E1449
:1022A0001F0434F488E992E00E94E7198093BD018D
:1022B0008091BD011F928F931F928F93A7E8B2E088
:1022C000BF93AF930E94650A0F900F900F900F90ED
:1022D0000F900F90B8CE9F9363C02091C6012F5FDF
:1022E0002093C601822F022E000C990B9F932F93EF
:1022F0008FE592E00DC02091C60121502093C601C8
:10230000822F022E000C990B9F932F938FE492E063
:102310009F931CC02091C7012F5F2093C701822F7C
:10232000022E000C990B9F932F938CE392E00DC02B
:102330002091C70121502093C701822F022E000C4B
:10234000990B9F932F9389E292E09F938F930E9422
:10235000650A0F900F900F900F906FCD2FE632E12E
:1023600043E85AE36091B9017091BA018091BB01D1
:102370009091BC010E94BC289B01462F532F682FCF
:10238000792F4093B9015093BA016093BB017093C8
:10239000BC019F938F933F932F938BE092E09F9389
:1023A0008F930E94650A0F900F900F900F900F90DF
:1023B0000F9043CD89911F928F9383EF91E09F936C
:1023C0008F930E94650A0F900F900F900F9089ECE9
:1023D00091E08C179D0771F784E591E00E948718C2
:1023E0002CCD81E00E94C60A28CD1092880110925F
:1023F000890110928A0110928B011FCDDF91CF913C
:102400001F910F91FF90EF90DF90CF90BF90AF9012
:102410009F908F907F906F905F904F903F902F9004
:1024200008950895CF92DF92EF92FF920F931F933A
:10243000CF93DF936C017A018B01C0E0D0E0CE1521
:10244000DF0581F0D8016D918D01D601ED91FC91F0
:102450000190F081E02DC6010995892B11F021969C
:10246000EECF7E01C701DF91CF911F910F91FF90B9
:10247000EF90DF90CF900895FC01538D448D252F70
:1024800030E0842F90E0821B930B541710F0CF960E
:10249000089501970895FC01918D828D981761F040
:1024A000828DDF01A80FB11D5D968C91928D9F5F8B
:1024B0009F73928F90E008958FEF9FEF0895FC0136
:1024C000918D828D981731F0828DE80FF11D858DE9
:1024D00090E008958FEF9FEF0895FC01918D228D7C
:1024E000892F90E0805C9F4F821B91098F73992701
:1024F00008958BEF91E00E946D1221E0892B09F481
:1025000020E0822F0895FC01848DDF01A80FB11D0A
:10251000A35ABF4F2C91848D90E001968F73992719
:10252000848FA689B7892C93A089B1898C918370F7
:1025300080648C93938D848D981306C00288F389F0
:10254000E02D80818F7D80830895EF92FF920F931D
:102550001F93CF93DF93EC0181E0888F9B8D8C8D4F
:10256000981305C0E889F989808185FD26C0F62E7B
:102570000B8D10E00F5F1F4F0F731127E02E8C8D16
:10258000E8120CC00FB607FCFACFE889F989808100
:1025900085FFF5CFCE010E948312F1CF8B8DFE0116
:1025A000E80FF11DE35AFF4FF0829FB7F8940B8FAD
:1025B000EA89FB89808180620AC09FB7F894EE891E
:1025C000FF896083E889F9898081837080648083D2
:1025D0009FBF81E090E0DF91CF911F910F91FF901D
:1025E000EF900895CF93DF93EC01888D8823C9F095
:1025F000EA89FB89808185FD05C0A889B9898C910C
:1026000086FD0FC00FB607FCF5CF808185FFF2CFA6
:10261000A889B9898C9185FFEDCFCE010E948312E4
:10262000E7CFDF91CF9108950E94791281110C9428
:102630001F030895FC01878581FF0AC0818D228DCB
:10264000922F9170892B21F48685807F8160868707
:102650000895FC01428D942F9695838D582F5795A0
:1026600055275795252F292B81FB332730F9818D4D
:10267000942F91702817390744F48789908DFC01B5
:10268000E20FF31F808190E008958FEF9FEF089590
:10269000FC01528D852F8695438D942F9795992710
:1026A0009795292F282B41FB332730F9818D952FC2
:1026B000917028173907C4F4A789B08DC901019614
:1026C0009170682F660F5170562B528F881F882784
:1026D000881F4E7F482B90FB41F9438FFD01E20F8D
:1026E000F31F808190E008958FEF9FEF0895FC0124
:1026F000418D928D592F51709695838D682F6795D6
:1027000066276795262F292B81FB332730F9CA01CD
:10271000821B930B0895FC01868584FF02C07D9681
:1027200001C077964381342F36952481522F5795D7
:1027300055275795852F832B21FB992790F92281C7
:10274000342F31708217930744F420813181F901CD
:10275000E80FF91F808190E008958FEF9FEF0895B3
:10276000FC01868584FF02C07D9601C07796428178
:102770009381592F517096958481682F67956627AC
:102780006795262F292B81FB332730F9CA01821B3D
:10279000930B08950895FC0186858F70823068F050
:1027A0008585833028F08685807F8160868705C097
:1027B000662331F0813021F4F6CF8FEF9FEF08953B
:1027C0008230D9F7128A40E150E060E070E0CF013A
:1027D00040960E941724862F90E008950C94E719E4
:1027E0001F920F920FB60F9211242F933F934F9386
:1027F0005F936F937F938F939F93AF93BF93EF9369
:10280000FF93E0910201F09103010995FF91EF918F
:10281000BF91AF919F918F917F916F915F914F91F8
:102820003F912F910F900FBE0F901F9018951F9200
:102830000F920FB60F9211242F933F934F935F93F4
:102840006F937F938F939F93AF93BF93EF93FF9378
:10285000E0910001F09101010995FF91EF91BF9185
:10286000AF919F918F917F916F915F914F913F9128
:102870002F910F900FBE0F901F901895EF92FF921F
:102880000F931F93CF93DF938C017B01C0E0D0E0C7
:10289000F701EC0FFD1F6491662361F0D801ED9103
:1028A000FC910190F081E02DC8010995892B11F070
:1028B0002196EECFCE01DF91CF911F910F91FF9026
:1028C000EF9008951F920F920FB60F9211242F933D
:1028D0003F934F935F936F937F938F939F93AF93A8
:1028E000BF93EF93FF938BEF91E00E948312FF91D0
:1028F000EF91BF91AF919F918F917F916F915F9178
:102900004F913F912F910F900FBE0F901F901895F0
:102910001F920F920FB60F9211242F938F939F93B4
:10292000EF93FF93E0910B02F0910C028081E09114
:102930001102F091120282FD12C090818091140266
:102940008F5F8F7320911502821751F0E09114026E
:10295000F0E0E550FE4F958F8093140201C0808116
:10296000FF91EF919F918F912F910F900FBE0F903C
:102970001F9018950F931F93CF93DF93EC014D8118
:10298000242F26952695269530E0203131053CF000
:102990002051310984E0220F331F8A95E1F78B0122
:1029A0006217730708F48901095F1F4F087F2C81A4
:1029B00026952695342F3295330F330F307C832F95
:1029C000822B42FB992790F98017910709F45BC08D
:1029D000888199810115110591F0009721F0B801C6
:1029E0000E94812C03C0C8010E94602B99838883B8
:1029F00088819981892B49F400E010E006C0009796
:102A0000D9F30E94F82B198218821170902F990F18
:102A1000990F8C818370892B8C83902F929596953A
:102A2000969593708D818C7F892B10FB82F98D8315
:102A30002A818B81382F31700217130724F40A83FF
:102A400010FB80F98B838A813B81932F9170632FD8
:102A500066952C81722F779577277795472F462B90
:102A600021FB552750F9841795076CF4482F440F24
:102A70003170342B3B83881F8827881F2E7F282B9B
:102A800090FB21F92C8381E0DF91CF911F910F9171
:102A90000895EF92FF920F931F93CF93DF93EC0172
:102AA0007B018A016A818B81782F7170640F751F99
:102AB0002C81269526953D81432F4295440F440F46
:102AC000407C842F822B32FB992790F96817790775
:102AD000C8F48A812B81922F917028813981A801B5
:102AE000B701820F931F0E94602D8A812B81922F44
:102AF0009170800F911F8A83822F90FB80F98B83C6
:102B0000C80108C06F5F7F4FCE010E94BA148111C7
:102B1000E0CF90E0DF91CF911F910F91FF90EF9068
:102B20000895FC01868597859170292F220F220F29
:102B300086FB992790F9922B913021F4CF014D9685
:102B40000C94491580E090E00895CF93DF93EC0159
:102B500088819981009721F00E94F82B19821882B0
:102B60008D818C7F8B7F8D831A821B821C82DF91EB
:102B7000CF9108951F93CF93DF93FC01828143810E
:102B8000942F91702481269526953581532F529547
:102B9000550F550F507CA52FA22B32FBBB27B0F948
:102BA0009C012F5F3F4F8A179B076CF4A081B18176
:102BB00031702283242F30FB20F92383FD01E80F9D
:102BC000F91F608320C0162FEF01B901CF010E94C9
:102BD000BA14811106C0CE010E94A51580E090E0D4
:102BE00014C0688179818A812B81922F9170AC0108
:102BF0004F5F5F4F51704A8350FB20F92B83FB01DD
:102C0000E80FF91F108381E090E0DF91CF911F91D1
:102C10000895FC01868597859170292F220F220F38
:102C200086FB992790F9922B913021F4CF014D9694
:102C30000C94BA1580E090E00895FC0184818E7FA9
:102C40008D7F848312821382658166956695669571
:102C500070E0603171053CF06051710984E0660FED
:102C6000771F8A95E1F7695F7F4F687FCF010C94EA
:102C7000BA140F931F93CF93DF93EC018D858823B4
:102C800019F088898B3231F01D868E85807F8160B6
:102C90008E8716C08E01095E1F4FC8010E941D1647
:102CA000BE01605F7F4F47E050E0C8010E944915B8
:102CB0008E85807F84608E878F8582608F871D865A
:102CC000DF91CF911F910F910895EF92FF920F9393
:102CD0001F93CF93DF93EC01162F6A3009F042C0A7
:102CE00061E00E94CB13BC01CE010E949B1A8E852D
:102CF0008F70823040F18F8581FF25C0CE010E9408
:102D00001A138E85982F9F709230E9F49F8591FF5A
:102D10001AC08F7E8E87498D9A8D592F5170969546
:102D20008B8D682F679566276795262F292B81FB4A
:102D3000332730F9EBA1FCA1CA01821B930B099543
:102D40008E8580618E878E85807F8E871D868F859C
:102D500081FF68C0CE0147960E941D168F858D7F2A
:102D60008F8760C00E85802F8F70813009F45AC024
:102D7000843009F457C06D3009F454C0811109C082
:102D80008D85811103C01B3261F534C0863048F552
:102D900031C0E12EF12CC7010E94472D892BB1F0E3
:102DA0008D8591E0980F9D87FE01E80FF11D108B36
:102DB00060E0CE010E94CB13BC01CE01DF91CF9128
:102DC0001F910F91FF90EF900C949B1A1C3251F1C0
:102DD000C7010E94E425892B29F5007F01600E8739
:102DE00021C0CE01DF91CF911F910F91FF90EF9005
:102DF0000C94391691E0980F9D87FE01E80FF11DA4
:102E0000108BFE01E90FF11D108A64E975E0CE0117
:102E100040960E94FA25892B29F48E85807F826056
:102E20008E871D86DF91CF911F910F91FF90EF90BC
:102E300008951F93CF93DF93FC01162F86858F7320
:102E40008064868787858E7F8787EF016D96CE01A8
:102E50000E941D16612FCE01DF91CF911F910C941E
:102E6000BA15EF92FF920F931F93CF938C01C62F49
:102E700070E084E0759567958A95E1F7F80181A582
:102E800092A50E94E2187C016C2F6F70F80181A559
:102E900092A50E94E2188E0D9F1DCF911F910F9158
:102EA000FF90EF900895EF92FF920F931F93CF93AF
:102EB000DF93EC01162F6A3009F0AFC061E00E9489
:102EC000CB13BC01CE010E94411A8E85982F9F70B2
:102ED000923008F493C02F8521FD0FC0982F929552
:102EE000969596959370822F8170880F880F892B05
:102EF0008A5F8770823008F081C0CE010E941A1369
:102F00009E85892F8F70823009F448C0833009F084
:102F100075C0CE0147960E941D168E85982F9295FA
:102F20009695969593708F858170880F880F892B61
:102F300011F11C8589A59AA5DC01ED91FC91068013
:102F4000F781E02D099564E975E089A59AA50E94AD
:102F50003E14612FCE010E94311789A59AA50E94C7
:102F6000DA1889A59AA5DC01ED91FC910680F7811C
:102F7000E02D099543C06C85CE010E941917EDA183
:102F8000FEA1309739F08E858F7E8E8709958E85CC
:102F900080618E87CE010E94EE1830C08F8581FF40
:102FA0001DC0298D8A8D382F317086956B8D762FB7
:102FB000779577277795472F482B61FB552750F951
:102FC000241B350BEBA1FCA13097C1F09F7E9E879F
:102FD000C90109958E8580618E8710C0282F2170C8
:102FE000220F220F392F3295369536953370232BC9
:102FF000233021F49F739E8781608F878E85807F29
:103000008E871D868F8581FF76C0CE0147960E94F0
:103010001D168F858D7F8F876EC00E85802F8F70D8
:10302000813009F468C0843009F465C06D3009F45A
:1030300062C0811109C08D85811103C01B3269F501
:1030400035C0863050F532C0E12EF12CC7010E9408
:10305000472D892BB1F08D8591E0980F9D87FE015A
:10306000E80FF11D108B60E0CE010E94CB13BC0174
:10307000CE01DF91CF911F910F91FF90EF900C94B3
:10308000411A1C32C1F1C7010E94E425892B99F530
:10309000007F01600E871D862EC0CE01DF91CF918B
:1030A0001F910F91FF90EF900C94391691E0980FBB
:1030B0009D87FE01E80FF11D108BFE01E90FF11D48
:1030C000108A8E01005F1F4F64E975E0C8010E94FD
:1030D000FA25892B21F48E85807F82600AC06BEBF4
:1030E00074E0C8010E94FA25892B29F48E85807F1F
:1030F00083608E87D0CFDF91CF911F910F91FF908A
:10310000EF900895682F8BEF91E00C94A512009733
:1031100069F0FC0101900020E9F73197AF01481BED
:10312000590BBC018BEF91E00C94121280E090E0FF
:1031300008958F929F92AF92BF920F931F93CF9358
:10314000DF93CDB7DEB7A1970FB6F894DEBF0FBE01
:10315000CDBF19A2423008F44AE08E010F5D1F4F27
:10316000842E912CA12CB12CA50194010E946628DB
:10317000E62FB901CA0101501109EA3014F4E05DEB
:1031800001C0E95CD801EC93232B242B252B61F79C
:10319000C8010E948718A1960FB6F894DEBF0FBE33
:1031A000CDBFDF91CF911F910F91BF90AF909F90B6
:1031B0008F900895DC01ED91FC910190F081E02D5C
:1031C0006AE00994DC01ED91FC910190F081E02D21
:1031D0006A3010F4605D01C0695A0994EF92FF9261
:1031E0000F931F93CF93DF93EC01ED8CFE8C28A1FE
:1031F000922F969589A1382F379533273795032F2E
:10320000092B81FB112710F90E0D1F1D8F8D922F99
:103210009170E80EF91E89A59AA5DC01ED91FC914B
:103220000680F781E02D099564E975E089A59AA5E6
:103230000E943E14E016F10639F0F80161918F0109
:10324000CE010E943117F6CF89A59AA50E94DA18FF
:1032500089A59AA5DC01ED91FC910680F781E02D0E
:103260000995CE014D960E941D168E858F738E870F
:103270008F858E7F8F8780E0DF91CF911F910F9197
:10328000FF90EF900895CF934091B802342F369578
:103290002091B902522F579555275795852F832B8B
:1032A00021FB992790F92091B702342F31708217B2
:1032B000930754F42091B5023091B602F901E80F5A
:1032C000F91F808190E002C08FEF9FEF2091A6024E
:1032D000322F32953695369533702091A7022170A2
:1032E000220F220F232B213069F487FD0DC020917E
:1032F000A40230E02817390749F088E992E0CF911D
:103300000C94EE18C8E003C0C6E001C0C7E085EB2E
:1033100092E00E941D168091A6028F738093A602F0
:103320008091A7028E7F8093A7028C2FCF91089562
:10333000682F88E992E00C940916CF92DF92FF92F1
:103340000F931F93CF93DF93EC010CED11E06C0111
:103350008FE1C80ED11CF801F1908F01CE010E94BF
:103360004028F81621F06F2DCE010E9448282196A2
:10337000CC15DD0581F78CED91E0DF91CF911F91A8
:103380000F91FF90DF90CF900895E2EEF1E08FEF84
:103390009FEF21E0E93FF207C9F021918227282F12
:1033A00022952827022E269526952025022E269541
:1033B00020252770082E892F269507942795902D74
:1033C00082270694279590258227E3CF0895FC0154
:1033D000868584FF02C07D9601C077965381252F94
:1033E00026954481342F379533273795832F822BA9
:1033F00041FB992790F92281352F3170821793076D
:10340000CCF4A081B1819C012F5F3F4F3170622FBE
:10341000660F5170562B5383221F2227221F4E7F87
:10342000422B30FB41F94483FD01E80FF91F8081F5
:1034300090E008958FEF9FEF089586E480937C00DD
:1034400080917A00806480937A0080917A0086FD72
:10345000FCCF809178002091790090E0922B089524
:10346000CF93DF93BC018BEF91E00E943E14EC01FF
:1034700084E591E00E9487188C0F9D1FDF91CF910A
:103480000895CF93DF936F3F2FEF720709F450C079
:10349000EC019E85392F32953695369533708F85A0
:1034A000282F2170220F220F232B233079F48F8DA8
:1034B00028A1922F91708F3F910528F08E85807FF3
:1034C00081608E8734C0CE014D9613C081FF14C039
:1034D0009F702A8D933029F4898D922F91700297D5
:1034E00068F7898D922F91708F3F910538F7CE0143
:1034F00047960E94BA151BC04C8550E064177507AB
:1035000011F4826013C04F8D38A1532F5170413098
:103510005105A1F6223091F6ED8DFE8D208130E02F
:103520006217730759F6906C9E878E7F8F871D8672
:10353000DF91CF910895CF93DF936F3F2FEF720705
:10354000E9F0EC018F8581FF11C0898D2A8D922FC2
:1035500091708F3F910528F08E85807F81608E87E6
:103560000CC0CE0147960E94BA1507C02C8530E0EA
:103570006217730789F782608F871D86DF91CF916D
:103580000895CF93DF9390E0FC01E058FA4F249127
:10359000FC01E459FA4F8491882361F190E0880F8F
:1035A000991FFC01EE59FA4FC591D491FC01E85ADC
:1035B000FA4FA591B491611109C09FB7F894888121
:1035C000209582238883EC912E230BC0623061F416
:1035D0009FB7F8948881322F309583238883EC91AC
:1035E0002E2B2C939FBF06C08FB7F894E8812E2B0B
:1035F00028838FBFDF91CF9108953FB7F8948091D2
:10360000C8029091C902A091CA02B091CB0226B51E
:10361000A89B05C02F3F19F00196A11DB11D3FBF0A
:10362000BA2FA92F982F8827820F911DA11DB11D98
:10363000BC01CD0143E0660F771F881F991F4A9593
:10364000D1F70895CF92DF92EF92FF920E94FD1A78
:103650006B017C010E94FD1ADC01CB018C199D09D4
:10366000AE09BF09883E9340A105B10598F3FF90CC
:10367000EF90DF90CF9008952FB7F8946091C40237
:103680007091C5028091C6029091C7022FBF089524
:103690001F920F920FB60F9211242F933F938F9387
:1036A0009F93AF93BF938091C4029091C502A09164
:1036B000C602B091C7023091C30226E0230F2D3716
:1036C00020F40296A11DB11D05C029E8230F039621
:1036D000A11DB11D2093C3028093C4029093C50223
:1036E000A093C602B093C7028091C8029091C9020C
:1036F000A091CA02B091CB020196A11DB11D809389
:10370000C8029093C902A093CA02B093CB02BF91A2
:10371000AF919F918F913F912F910F900FBE0F907E
:103720001F90189584E291E09093990280939802FB
:1037300085EB92E00E94A5158FEA92E00C94A51506
:10374000CF93DF93CDB7DEB766970FB6F894DEBFA1
:103750000FBECDBF789484B5826084BD84B581608E
:1037600084BD85B5826085BD85B5816085BD80914C
:103770006E00816080936E001092810080918100C4
:1037800082608093810080918100816080938100BC
:10379000809180008160809380008091B10084607E
:1037A0008093B1008091B00081608093B0008091DF
:1037B0007A00846080937A0080917A00826080939E
:1037C0007A0080917A008E7F80937A0080917A00CF
:1037D000806880937A001092C100CE0140960E94CA
:1037E0004B0A43E050E06EE175E00E94ED2521E0D8
:1037F000892B09F020E020936801E0910B02F09101
:103800000C0282E08083E0910702F09108021082AE
:10381000E0910902F0910A0280E180831092130284
:10382000E0910F02F091100286E08083E0910D029A
:10383000F0910E02808180618083E0910D02F09111
:103840000E02808188608083E0910D02F0910E026B
:10385000808180688083E0910D02F0910E0280816A
:103860008F7D80830E94600789E195E00E94301A75
:103870008BEF91E00E94F212E0E9F1E08FE3DF01CB
:103880001D928A95E9F78FEF9FEF909391018093B6
:1038900090018091A4028E3FB1F08EEF8093A4023C
:1038A0001092A50280E18093A6028091A7028E7FEC
:1038B0008D7F8093A7028FEA92E00E94A51585EB89
:1038C00092E00E94A51587E18093A4028BEC9EE014
:1038D0009093BC028093BB0289E893E09093BE0270
:1038E0008093BD02109264011092630100E010E029
:1038F000412C512C3201FE0131966F015E01F5E041
:10390000AF0EB11C0F3F23E0120711F17601480101
:103910008C189D08C4018E0D9F1D0E944028D70160
:103920008D937D01AA16BB06A9F789819A81AB8187
:10393000BC8184159505A605B70518F4015E1F4FD7
:10394000E1CF10936401009363012C013D01F6CF98
:10395000B0906301A09064016CED71E08B2D9A2D05
:103960000E943A070E94C5198C011F938F93809182
:10397000E1018F938091E0018F93A3019201215087
:10398000310941095109A1E2B0E00E9488286B0188
:103990007C018B2D9A2D6FE170E00E94A228D70147
:1039A000C601860F971FA11DB11DBF93AF939F93B3
:1039B0008F93AF92BF927F926F925F924F9288EDFA
:1039C00094E09F938F930E94650A0FB6F894DEBF30
:1039D0000FBECDBF8091E0019091E101801791076A
:1039E00041F082EC94E00E94301A0E9435090E9456
:1039F0000A0987E1E2EEF1E0A2EBB1E001900D925D
:103A00008A95E1F785E298E09093CA018093C90115
:103A10006091B9017091BA018091BB019091BC0194
:103A20000E94690C36E8E32E35E0F32EF70184910D
:103A30008093670102E715E0F8018491E82FF0E038
:103A4000EE0FFF1FE85AFA4F85919491909366010B
:103A500080936501E9E6F1E08FE1DF011D928A952F
:103A6000E9F78FEF9FEF909387018093860160E0E5
:103A700070E080E89FE30E94690C60E083E00E94B0
:103A8000C11A8FE096E09093030180930201809128
:103A900069008C6080936900E99AEBE0F5E084911D
:103AA000F701E490F8010491002309F43AC0811170
:103AB00010C0E02FF0E0EE0FFF1FE85AFA4FA5917B
:103AC000B4919FB7F8948C91E094E822EC929FBF58
:103AD00028C0833001F138F48130C9F0823049F7D1
:103AE00084B58F7D16C0873061F0883031F0843026
:103AF00001F7809180008F7D11C08091B0008F7D93
:103B000003C08091B0008F778093B000D2CF84B58E
:103B10008F7784BDCECF809180008F778093800097
:103B2000C8CF61E086E00E94C11A80916F00826078
:103B300080936F001092800010928100809170003D
:103B40008260809370001092B0001092B10060E02B
:103B500084E10E94C11A8091B20180FF11C00091DE
:103B6000B4011091B5012091B6013091B701409197
:103B7000F9015091FA016FEF7FEF80E00E94850913
:103B80000E943C1BDC01CB018A5D9D4FAF4FBF4FB4
:103B90008093D8019093D901A093DA01B093DB010F
:103BA0008091CF0180618093CF0187E2282E85E04C
:103BB000382ECC24CA94DC2C8091CF0184FF10C015
:103BC0000E943C1B0091D8011091D9012091DA018B
:103BD0003091DB01601771078207930708F042C13B
:103BE0008091CF0180FF09C08E7F8093CF010E941A
:103BF000EC079093B1018093B0018091CF0181FFD8
:103C00000DC08D7F8093CF010E9437086093AC0177
:103C10007093AD018093AE019093AF018091CF017D
:103C200082FF0DC08B7F8093CF010E946607609357
:103C3000AC017093AD018093AE019093AF01809180
:103C4000CF0186FF1AC08F7B8093CF0168E188E99E
:103C500092E00E94191784EF90E00E9498198FEF6C
:103C600090E00E94981943E050E06BEC71E088E925
:103C700092E00E9491150E9443198091CF0185FF27
:103C800010C00E943C1B00918C0110918D0120916D
:103C90008E0130918F01601771078207930708F03A
:103CA000EFC00E943C1B0091D4011091D5012091DE
:103CB000D6013091D7016017710782079307B8F1D9
:103CC000F89480918601909187018F3FFFEF9F07C5
:103CD00011F478941CC0D0928701C0928601789428
:103CE00019829B838A8368E188E992E00E94191710
:103CF00082EF90E00E94981943E050E0BE016F5FB0
:103D00007F4F88E992E00E9491150E9443190E941A
:103D10003C1BDC01CB018C599F4FAF4FBF4F8093B1
:103D2000D4019093D501A093D601B093D70180918F
:103D3000CF0183FF10C00E943C1B00910401109131
:103D40000501209106013091070160177107820774
:103D5000930708F0F4C00E943C1B00918801109169
:103D6000890120918A0130918B01601771078207C8
:103D7000930708F474C00E9466074B015C010E941F
:103D80009B292B013C010E9437086B8B7C8B8D8B10
:103D90009E8B0E949B297B01641575050CF47201B2
:103DA0000E943C1B2B013C012091B80130E0A8EEA1
:103DB000B3E00E949328460E571E681E791E40925B
:103DC00088015092890160928A0170928B018091E2
:103DD000B301882381F190E08E159F0564F500E022
:103DE00010E020E231E440E050E06FEF7FEF80E050
:103DF0000E9485098091B20184608093B2010E9483
:103E0000BC088091B20181FF2AC068E188E992E094
:103E10000E94191781EF90E00E9498196E2D88E991
:103E200092E00E9409166091B30188E992E00E9435
:103E300009160E9443198091B20181FF10C00E94AF
:103E40003C1B0091D0011091D1012091D201309101
:103E5000D301601771078207930708F074C00E94AE
:103E60001413AACE8091CF018F7E8093CF010E9440
:103E7000D10C1092CB011092CC011092CD01B0CE9A
:103E80000E943C1BDC01CB0188579C4EAF4FBF4FBB
:103E900080938C0190938D01A0938E01B0938F013C
:103EA00062E575E08BEF91E00E943E140E94660788
:103EB0009F938F937F936F9388E495E09F938F9365
:103EC0000E94650A0E9437089F938F937F936F9398
:103ED000E9E3F5E0FF93EF930E94650A0E94EC0787
:103EE0009F938F9381E395E09F938F930E94650A40
:103EF0000E948A0C9F938F937F936F933F922F9290
:103F00000E94650A62E275E08BEF91E00E943E1428
:103F100060919C0170919D0180E090E04AE00E94D8
:103F2000991884E591E00E9487188BEF91E00E9438
:103F3000F2120FB6F894DEBF0FBECDBFB2CE80E056
:103F40000E94C60A08CF0E943C1B2B013C01209115
:103F5000C80130E0A8EEB3E00E949328460E571E39
:103F6000681E791E4092D0015092D1016092D20118
:103F70007092D301E9820E94EC079B838A830E949E
:103F80008A0C6C837D838E839F838B899C89AD890A
:103F9000BE8988879987AA87BB878C869D86AE86CF
:103FA000BF8668E188E992E00E94191780EF90E0EF
:103FB0000E9498194FE050E0BE016F5F7F4F88E983
:103FC00092E00E9491150E94431949CFCF93DF934D
:103FD000EBEFF1E01382128248EE53E060E070E014
:103FE000448355836683778382E191E09183808364
:103FF00085EC90E09587848784EC90E097878687AE
:1040000080EC90E0918B808B81EC90E0938B828BA5
:1040100082EC90E0958B848B86EC90E0978B868B7E
:10402000118E128E138E148EA8E9B2E013961C9294
:104030001E92129714964D935D936D937C931797F0
:104040008EEF1C968C931C971D961C921D97C6EAAA
:10405000D2E080E1888389818E7F8D7F898387E0AC
:1040600028EA32E0E90119928A95E9F758961C92FC
:104070001E925797C1EBD2E0188219821A821B82D6
:104080005E961C921E925D97C7EBD2E01882198251
:104090001A821B8294961C921E92939796961C925B
:1040A0001E9295978FE193E098969C938E939797A5
:1040B0009A96FC93EE93999788E391E08D939C9365
:1040C000DF91CF910895A0E1B0E0E9E6F0E20C9431
:1040D000E0237C011B016A01FC01178216828381A7
:1040E00081FF44C39E012F5F3F4F3901F701938148
:1040F000F10193FD859193FF81911F01882309F4BC
:1041000031C3853239F493FD859193FF81911F016D
:10411000853239F4B70190E00E94232656016501EB
:10412000E5CF10E0512C912CFFE1F915D8F08B323E
:1041300079F038F4803279F08332A1F4F92DF0610E
:104140002EC08D3261F0803369F4292D21602DC09D
:10415000392D3260932E892D8460982E2AC0E92D46
:10416000E86015C097FC2DC020ED280F2A3088F498
:1041700096FE06C03AE0139F200D1124122F19C09D
:104180008AE0589E200D1124522EE92DE0629E2EC9
:1041900010C08E3231F496FCE5C2F92DF0649F2EEA
:1041A00008C08C3621F4292D2068922E02C0883652
:1041B00041F4F10193FD859193FF81911F018111DC
:1041C000B3CF9BEB980F933020F4992D9061805ED4
:1041D00007C09BE9980F933008F066C1992D9F7E28
:1041E00096FF16E09F73992E853619F49064992EE8
:1041F00008C0863621F4392F3068932E02C0111181
:10420000115097FE07C01C3350F444244394410ED0
:1042100027E00BC0183038F027E017E005C027E092
:104220009CE3492E02C0212F412C560184E0A80EA8
:10423000B11CF6016081718182819381042DA301FB
:104240000E940C256C01F981FC87F0FF02C0F3FF8E
:1042500006C091FC06C092FE06C000E205C00DE259
:1042600003C00BE201C000E08C858C7019F00111D5
:104270005AC29BC297FE10C04C0CFC85F4FF04C0D0
:104280008A81813309F44A94141474F528E02415C2
:1042900078F588E0482E2CC096FC2AC0812F90E04B
:1042A0008C159D059CF03CEFC3163FEFD30674F0D0
:1042B000892D8068982E0AC0E2E0F0E0EC0FFD1F27
:1042C000E10FF11D8081803319F411501111F4CFE9
:1042D00097FE0EC044244394410E812F90E0C816EF
:1042E000D9062CF41C1904C04424439401C010E0E6
:1042F00097FE06C01C141D0434F4C601019605C0C7
:1043000085E090E002C081E090E001110196112368
:1043100031F0212F30E02F5F3F4F820F931F252D6B
:1043200030E08217930714F4581A01C0512C892DDC
:10433000897049F4552039F0B70180E290E00E947D
:1043400023265A94F7CF002329F0B701802F90E05D
:104350000E94232693FC09C0552039F0B70180E361
:1043600090E00E9423265A94F7CF97FE4CC0460156
:10437000D7FE02C0812C912CC60188199909F3013E
:10438000E80FF91FFE87ED87960124193109388B54
:104390002F87012F10E01195019511093FEF83162A
:1043A000930629F4B7018EE290E00E942326C814F8
:1043B000D9044CF08F8598898815990524F4ED85EA
:1043C000FE85818101C080E3F1E08F1A91082D857F
:1043D0003E852F5F3F4F3E872D87801691062CF03C
:1043E000B70190E00E942326D9CFC814D90441F424
:1043F0009A81963320F4953319F43C8534FF81E398
:10440000B70190E04EC08A81813319F09C859F7E70
:104410009C87B70190E00E942326111105C094FCEF
:1044200018C085E690E017C0B7018EE290E00E94C8
:1044300023261E5F82E001E0080FF301E80FF11D63
:104440008081B70190E00E942326802F0113F3CFD3
:10445000E6CF85E490E0B7010E942326D7FC06C092
:10446000C114D10441F4EC85E4FF05C0D194C1949A
:10447000D1088DE201C08BE2B70190E00E942326B3
:1044800080E32AE0C216D1042CF08F5FFAE0CF1A45
:10449000D108F7CFB70190E00E942326B701C601EB
:1044A000C0960E94232654C1833631F0833779F0B9
:1044B000833509F056C020C0560132E0A30EB11C6E
:1044C000F6018081898301E010E0630112C056018A
:1044D000F2E0AF0EB11CF601C080D18096FE03C0A1
:1044E000612F70E002C06FEF7FEFC6010E941826B7
:1044F0008C01F92DFF7714C0560122E0A20EB11CE9
:10450000F601C080D18096FE03C0612F70E002C02A
:104510006FEF7FEFC6010E940D268C01F92DF06828
:104520009F2EF3FD1AC0852D90E008171907A8F4F7
:10453000B70180E290E00E9423265A94F4CFF6015E
:1045400097FC859197FE81916F01B70190E00E94E1
:10455000232651105A94015011090115110579F7BC
:10456000F7C0843611F0893661F5560197FE09C00F
:1045700024E0A20EB11CF6016081718182819381D9
:104580000AC0F2E0AF0EB11CF60160817181072E06
:10459000000C880B990BF92DFF769F2E97FF09C011
:1045A00090958095709561957F4F8F4F9F4FF068E4
:1045B0009F2E2AE030E0A3010E94BB26C82EC61819
:1045C0003FC0092D853721F40F7E2AE030E01DC061
:1045D000097F8F3691F018F4883559F0C3C08037C1
:1045E00019F0883711F0BEC0006104FF09C00460F3
:1045F00007C094FE08C0066006C028E030E005C091
:1046000020E130E002C020E132E0560107FF09C09E
:1046100084E0A80EB11CF6016081718182819381D2
:1046200008C0F2E0AF0EB11CF6016081718180E03C
:1046300090E0A3010E94BB26C82EC6180F77902ECB
:1046400096FE0BC0092D0E7FC11650F494FE0AC0D1
:1046500092FC08C0092D0E7E05C0DC2C092D03C07C
:10466000DC2C01C0D12E04FF0DC0FE01EC0DF11DAC
:104670008081803311F4097E09C002FF06C0D39403
:10468000D39404C0802F867809F0D39403FD11C021
:1046900000FF06C01C2DD51480F4150D1D190DC08A
:1046A000D51458F4B70180E290E00E942326D394F9
:1046B000F7CFD51410F45D1801C0512C04FF10C0C1
:1046C000B70180E390E00E94232602FF17C001FD9E
:1046D00003C088E790E002C088E590E0B7010CC015
:1046E000802F867859F001FF02C08BE201C080E282
:1046F00007FD8DE2B70190E00E942326C11638F431
:10470000B70180E390E00E9423261150F7CFCA94AE
:10471000F301EC0DF11D8081B70190E00E9423268A
:10472000C110F5CF15C0F4E0F51560F584E0581A16
:1047300093FE1FC0011127C02C8523FF2AC00AEE5B
:1047400010E0392D3071932EF8018491811124C02D
:10475000552009F4E4CCB70180E290E00E942326C2
:104760005A94F6CFF7018681978126C08FEF9FEF8D
:1047700023C0B70180E290E00E9423265A94511092
:10478000F8CFD8CF512CB701802F90E00E9423267C
:10479000D3CF0EEE10E0D5CF91108052B70190E04C
:1047A0000E9423260F5F1F4FCFCF23E0251510F463
:1047B00083E0BDCF512CC0CF6096E2E10C94FC2386
:1047C0002F923F924F925F926F927F928F929F9221
:1047D000AF92BF92CF92DF92EF92FF920F931F930F
:1047E000CF93DF93CDB7DEB7CA1BDB0B0FB6F894C0
:1047F000DEBF0FBECDBF09942A88398848885F8400
:104800006E847D848C849B84AA84B984C884DF8070
:10481000EE80FD800C811B81AA81B981CE0FD11D54
:104820000FB6F894DEBF0FBECDBFED010895A0E036
:10483000B0E0EDE1F4E20C94E1235C016B017A015C
:104840006115710519F0FB0191838083E114F10476
:1048500029F0C7010297839708F0C9C0E5012196A6
:10486000F5011081812F90E00E94E425892B11F041
:104870005E01F4CF1D3229F42196F501118101E08A
:1048800007C01B3221F4E5012296F501118100E0F9
:10489000E114F104B1F0F0E1EF16F10429F4B0C035
:1048A00010E3E114F10401F12AE0E216F104B1F1A0
:1048B00080E1E816F10471F0E8E0EE16F104F1F49D
:1048C00013C0103341F588818F7D883549F71981F0
:1048D00022960260F0E1EF2EF12C88248A94982C25
:1048E000A82CAFE0BA2E20C078E0E72EF12C882467
:1048F0008A94982CA82CEFE1BE2E16C06FEF7FEFA4
:10490000CB0197010F2C000C440B550B0E9466281D
:1049100049015A0109C08AE0E82EF12C69E9862E86
:10492000982CA82C69E1B62E40E060E070E0CB0145
:1049300027010F2C000C66087708FE0150ED352E7C
:10494000310E29E0231570F42FEB210F2A3118F4D2
:1049500039EC332E06C02FE9210F2A3130F529EA30
:10496000322E310E232D30E02E153F05F4F44F3F4B
:10497000C9F086169706A806B90688F0A301920129
:104980000E945628232D30E040E050E0620F731F54
:10499000841F951F621773078407950710F44FEF64
:1049A00001C041E021961081C8CFC114D10451F05B
:1049B000442311F0219703C001FF04C02297F601A0
:1049C000D183C08300FF07C0909580957095619555
:1049D0007F4F8F4F9F4F4F3F79F482E290E090934B
:1049E000CD028093CC023FEF2FEF9FEF0DC040E050
:1049F00030E020E090E008C0462F372F282F04C079
:104A0000103309F067CF5FCF642F732F822FCDB79C
:104A1000DEB7E1E10C94FD23283008F027E03327CE
:104A2000DA01990F311D87FD9160009661057105CE
:104A300039F432602E5F3D9330E32A95E1F7089513
:104A40009F3F30F080387105610509F03C5F3C5FA5
:104A50003D93913008F08068911DDF93CF931F93B1
:104A60000F93FF92EF92192F987F9695E92F9695C5
:104A70009695E90FFF27E45BFE4F99273327EE2435
:104A8000FF24A701E70105900894079428F4360F46
:104A9000E71EF81E491F511D660F771F881F991FBB
:104AA0000694A1F70590079428F4E70EF81E491F15
:104AB000561FC11D770F881F991F661F0694A1F707
:104AC0000590079428F4F80E491F561FC71FD11DE3
:104AD000880F991F661F771F0694A1F7059007940A
:104AE00020F4490F561FC71FD81F990F661F771F45
:104AF000881F0694A9F784911095177041F0D695F8
:104B0000C79557954795F794E7941A95C1F7E2EF43
:104B1000F0E0689415901591359165919591059007
:104B20007FE27395E118F10A430B560BC90BD009CC
:104B3000C0F7E10CF11E431F561FC91FD01D7EF4A4
:104B4000703311F48A95E6CFE894015030F0080FE5
:104B50000AF40027021708F4202F2395022F7A3336
:104B600028F079E37D932A95E9F710C07D932A9583
:104B700089F6069497956795379517951794E118D8
:104B8000F10A430B560BC90BD00998F023957E917F
:104B900073957A3308F070E37C932013B8F77E9115
:104BA00070617D9330F0839571E37D9370E32A9576
:104BB000E1F71124EF90FF900F911F91CF91DF91BA
:104BC000992787FD9095089591110C9419278032AB
:104BD00019F089508550C8F70895FB01DC0104C025
:104BE0008D910590801921F441505040C8F7881BE1
:104BF000990B0895FB01DC018D9181341CF08B35FC
:104C00000CF4805E659161341CF06B350CF4605ED1
:104C1000861B611189F3990B0895FC010590615081
:104C200070400110D8F7809590958E0F9F1F0895C2
:104C3000FC016150704001900110D8F7809590956B
:104C40008E0F9F1F08950F931F93CF93DF93FB0148
:104C5000238121FD03C08FEF9FEF2CC022FF16C0E0
:104C600046815781248135814217530744F4A0813E
:104C7000B1819D012F5F3F4F318320838C9326812B
:104C800037812F5F3F4F3783268314C08B01EC01A0
:104C9000FB010084F185E02D0995892BE1F6D8010F
:104CA00016968D919C911797019617969C938E93CB
:104CB0001697CE01DF91CF911F910F910895AEE02D
:104CC000B0E0E5E6F6E20C94EE230D891E898F89AB
:104CD000988D2EE02C831A83098397FF02C080E011
:104CE00090E801979E838D83AE01455E5F4F698D8D
:104CF0007A8DCE0101960E9463204D815E8157FD21
:104D00000AC02F813885421753070CF49A01F80125
:104D1000E20FF31F10822E96E4E00C940A24AEE01A
:104D2000B0E0E5E9F6E20C94EE238C01FA018EE0A6
:104D30008C831A83098377FF02C060E070E8CB019F
:104D400001979E838D83A901BF01CE0101960E9428
:104D500063204D815E8157FD0AC02F81388542173F
:104D600053070CF49A01F801E20FF31F10822E96FC
:104D7000E4E00C940A24FA01AA27283051F12031EA
:104D800081F1E8946F936E7F6E5F7F4F8F4F9F4FDF
:104D9000AF4FB1E03ED0B4E03CD0670F781F891F21
:104DA0009A1FA11D680F791F8A1F911DA11D6A0FEF
:104DB000711D811D911DA11D20D009F468943F91A2
:104DC0002AE0269F11243019305D3193DEF6CF01A1
:104DD0000895462F4770405D4193B3E00FD0C9F767
:104DE000F6CF462F4F70405D4A3318F0495D31FDD4
:104DF0004052419302D0A9F7EACFB4E0A695979527
:104E0000879577956795BA95C9F7009761057105FC
:104E100008959B01AC010A2E069457954795379546
:104E20002795BA95C9F7620F731F841F951FA01DA0
:104E300008959927882708950E945E2708F481E045
:104E40000895E89409C097FB3EF49095809570957D
:104E500061957F4F8F4F9F4F9923A9F0F92F96E9C6
:104E6000BB279395F695879577956795B795F1113B
:104E7000F8CFFAF4BB0F11F460FF1BC06F5F7F4FD8
:104E80008F4F9F4F16C0882311F096E911C07723EA
:104E900021F09EE8872F762F05C0662371F096E8F3
:104EA000862F70E060E02AF09A95660F771F881FC2
:104EB000DAF7880F9695879597F90895990F000866
:104EC000550FAA0BE0E8FEEF16161706E807F907DC
:104ED000C0F012161306E407F50798F0621B730B77
:104EE000840B950B39F40A2661F0232B242B252BF8
:104EF00021F408950A2609F4A140A6958FEF811D9B
:104F0000811D08950E9495270C9406280E94F82779
:104F100038F00E94FF2720F0952311F00C94EF2722
:104F20000C94F52711240C943A280E94172870F34A
:104F3000959FC1F3950F50E0551F629FF001729F3E
:104F4000BB27F00DB11D639FAA27F00DB11DAA1F4D
:104F5000649F6627B00DA11D661F829F2227B00D9A
:104F6000A11D621F739FB00DA11D621F839FA00D25
:104F7000611D221F749F3327A00D611D231F849F75
:104F8000600D211D822F762F6A2F11249F575040CC
:104F90009AF0F1F088234AF0EE0FFF1FBB1F661F47
:104FA000771F881F91505040A9F79E3F510580F010
:104FB0000C94EF270C943A285F3FE4F3983ED4F327
:104FC000869577956795B795F795E7959F5FC1F7B4
:104FD000FE2B880F911D9695879597F9089597F95F
:104FE0009F6780E870E060E008959FEF80EC08958F
:104FF00000240A94161617061806090608950024B8
:105000000A9412161306140605060895092E039431
:10501000000C11F4882352F0BB0F40F4BF2B11F4A5
:1050200060FF04C06F5F7F4F8F4F9F4F089557FD04
:105030009058440F551F59F05F3F71F04795880F06
:1050400097FB991F61F09F3F79F08795089512169D
:1050500013061406551FF2CF4695F1DF08C0161649
:1050600017061806991FF1CF8695710561050894FA
:105070000895E894BB2766277727CB0197F9089511
:10508000F999FECF92BD81BDF89A992780B5089510
:10509000262FF999FECF1FBA92BD81BD20BD0FB654
:1050A000F894FA9AF99A0FBE01960895DB018F934E
:1050B0009F930E948828BF91AF91A29F800D911D60
:1050C000A39F900DB29F900D11240895A1E21A2E76
:1050D000AA1BBB1BFD010DC0AA1FBB1FEE1FFF1F9C
:1050E000A217B307E407F50720F0A21BB30BE40BEC
:1050F000F50B661F771F881F991F1A9469F7609533
:105100007095809590959B01AC01BD01CF010895EC
:105110000E949328A59F900DB49F900DA49F800D91
:10512000911D11240895A29FB001B39FC001A39FB8
:10513000700D811D1124911DB29F700D811D1124D0
:10514000911D0895AA1BBB1B51E107C0AA1FBB1FDD
:10515000A617B70710F0A61BB70B881F991F5A9503
:10516000A9F780959095BC01CD010895EE0FFF1F22
:105170000590F491E02D09945058BB27AA270E946E
:10518000D4280C9406280E94F82738F00E94FF27A4
:1051900020F039F49F3F19F426F40C94F5270EF40F
:1051A000E095E7FB0C94EF27E92F0E94172858F3AE
:1051B000BA17620773078407950720F079F4A6F5FC
:1051C0000C9439280EF4E0950B2EBA2FA02D0B016C
:1051D000B90190010C01CA01A0011124FF27591B3C
:1051E00099F0593F50F4503E68F11A16F040A22F42
:1051F000232F342F4427585FF3CF469537952795B3
:10520000A795F0405395C9F77EF41F16BA0B620BB1
:10521000730B840BBAF09150A1F0FF0FBB1F661FF8
:10522000771F881FC2F70EC0BA0F621F731F841F3B
:1052300048F4879577956795B795F7959E3F08F061
:10524000B0CF9395880F08F09927EE0F9795879523
:1052500008950E943D290C9406280E94FF2758F0CB
:105260000E94F82740F029F45F3F29F00C94EF27C3
:1052700051110C943A280C94F5270E94172868F3D2
:105280009923B1F3552391F3951B550BBB27AA27FF
:1052900062177307840738F09F5F5F4F220F331F39
:1052A000441FAA1FA9F335D00E2E3AF0E0E832D001
:1052B00091505040E695001CCAF72BD0FE2F29D004
:1052C000660F771F881FBB1F261737074807AB07D6
:1052D000B0E809F0BB0B802DBF01FF2793585F4F4B
:1052E0003AF09E3F510578F00C94EF270C943A2841
:1052F0005F3FE4F3983ED4F3869577956795B7952D
:10530000F7959F5FC9F7880F911D9695879597F937
:105310000895E1E0660F771F881FBB1F62177307B0
:105320008407BA0720F0621B730B840BBA0BEE1FC5
:1053300088F7E09508950E94A2296894B1110C9411
:105340003A2808950E941F2888F09F5798F0B92F97
:105350009927B751B0F0E1F0660F771F881F991FAA
:105360001AF0BA95C9F714C0B13091F00E943928EB
:10537000B1E008950C943928672F782F8827B85FFB
:1053800039F0B93FCCF3869577956795B395D9F702
:105390003EF490958095709561957F4F8F4F9F4F0C
:1053A00008950E945E2708F48FEF089516F00C947C
:1053B000B52A0C94F52768940C94EF270E941F28B7
:1053C000A8F39923C1F3AEF3DF93CF931F930F9309
:1053D000FF92C92FDD2788232AF02197660F771FB8
:1053E000881FDAF720E030E040E85FEB9FE3883980
:1053F00020F0803E38F021968F770E94BD28E8E6A5
:10540000F0E004C00E94BD28E5E9F0E00E94C32A54
:105410008B01BE01EC01FB2E6F5771097595771F4B
:10542000880B990B0E94232728E132E741E35FE3D1
:105430000E949527AF2D9801AE01FF900F911F910B
:10544000CF91DF910E94D4280C940628FA01EE0F28
:10545000FF1F309621053105A1F16115710561F439
:105460008038BFE39B0749F168949038810561F06B
:105470008038BFEF9B0741F099234AF5FF3FE105D4
:105480003105210519F1E8940894E795D901AA237B
:1054900029F4AB2FBE2FF85FD0F310C0FF5F70F47C
:1054A000A695E0F7F73950F019F0FF3A38F49F77F6
:1054B0009F930DD00F9007FC9058089546F00C94E0
:1054C000F52760E070E080E89FE308954FE79F775D
:1054D0005F934F933F932F930E94DE292F913F912B
:1054E0004F915F910E9482270C94832A0E945E272D
:1054F000880B990B089529F416F00C94EF270C945F
:1055000039280C94F5270E941F28A8F39638A0F795
:1055100007F80F92E8942BE33AEA48EB5FE70E9422
:1055200098270F920F920F924DB75EB70F920E947D
:105530002C2BE2ECF0E00E94C32A4F915F91EF9197
:10554000FF91E595EE1FFF1F49F0FE57E0684427E5
:10555000EE0F441FFA95E1F74195550B0E94F62A8C
:105560000F9007FE0C94EA2A08959F3F31F0915066
:1055700020F4879577956795B795880F911D969537
:10558000879597F90895DF93CF931F930F93FF9219
:10559000EF92DF927B018C01689406C0DA2EEF0156
:1055A0000E949527FE01E894A5912591359145919A
:1055B0005591A6F3EF010E94D428FE019701A8019E
:1055C000DA9469F7DF90EF90FF900F911F91CF91E0
:1055D000DF9108959B01AC0160E070E080E89FE3FB
:1055E0000C9429290C94EF270C94B52A0E941F28AB
:1055F000D8F39923C9F3940F511DA3F39150504050
:1056000094F059F0882332F0660F771F881F91506D
:105610005040C1F79E3F51052CF7880F911D96957C
:10562000879597F908955F3FACF0983E9CF0BB27B3
:10563000869577956795B79508F4B1609395C1F70E
:10564000BB0F58F711F460FFE8CF6F5F7F4F8F4FAC
:105650009F4FE3CF0C943A28FA01DC01AA0FBB1F3D
:105660009B01AC01BF5728F42227332744275078E9
:1056700020C0B75190F4AB2F00244695379527955D
:10568000011CA395D2F3002071F0220F331F441F99
:10569000B395DAF30ED00C94BC2861307105A0E804
:1056A0008A07B94630F49B01AC0166277727882723
:1056B0009078309621F0208331834283538308957C
:1056C0000F931F93CF93DF938230910510F482E004
:1056D00090E0E091D002F091D10220E030E0A0E033
:1056E000B0E0309719F14081518102811381481750
:1056F0005907C8F08417950769F4109731F012968E
:105700000C93129713961C9327C00093D00210930A
:10571000D10222C02115310519F04217530718F4A0
:105720009A01BD01EF01DF01F801DBCF2115310541
:10573000F9F0281B390B2430310580F48A819B81D4
:105740006115710521F0FB019383828304C090935E
:10575000D1028093D002FE01329644C0FE01E20FD6
:10576000F31F8193919322503109398328833AC0E2
:105770002091CE023091CF02232B41F420910A01D7
:1057800030910B013093CF022093CE02209108017B
:10579000309109012115310541F42DB73EB74091F3
:1057A0000C0150910D01241B350BE091CE02F091BC
:1057B000CF02E217F307A0F42E1B3F0B281739077F
:1057C00078F0AC014E5F5F4F2417350748F04E0F5D
:1057D0005F1F5093CF024093CE028193919302C0FA
:1057E000E0E0F0E0CF01DF91CF911F910F9108959C
:1057F000CF93DF93009709F481C0FC0132971382A5
:105800001282A091D002B091D102109781F4208130
:105810003181820F931F2091CE023091CF02281741
:10582000390751F5F093CF02E093CE0267C0ED0146
:1058300020E030E0CE17DF0740F44A815B819E0113
:1058400041155105F1F0EA01F5CFD383C2834081C0
:105850005181840F951FC817D90759F48881998100
:10586000840F951F0296918380838A819B81938305
:1058700082832115310529F4F093D102E093D002FF
:105880003DC0E901FB83EA8349915991C40FD51FBB
:10589000EC17FD0761F480819181840F951F0296BA
:1058A000E90199838883828193819B838A83E0E0E5
:1058B000F0E012968D919C911397009719F0FD01DD
:1058C000DC01F7CF8D919C9111979D012E5F3F4F89
:1058D000820F931F2091CE023091CF0228173907F3
:1058E00069F4309729F41092D1021092D00202C0CC
:1058F00013821282B093CF02A093CE02DF91CF9198
:105900000895A0E0B0E0E7E8FCE20C94E423EC01A9
:10591000009721F4CB010E94602BB4C0FC01E60F7C
:10592000F71F9C0122503109E217F30708F4A8C0C1
:10593000D9010D911C91119706171707B0F005308A
:10594000110508F49BC0C80104978617970708F44F
:1059500095C002501109061B170B019311936D930B
:105960007C93CF010E94F82B89C05B01A01AB10A79
:105970004C01800E911EA091D002B091D102612CF9
:10598000712CE12CF12C109709F446C08D919C915B
:105990001197A815B905B1F56C0142E0C40ED11CF0
:1059A000CA14DB0478F14C018A189B08640142E0B8
:1059B000C40ED11C1296BC9012971396AC91B5E010
:1059C000CB16D10440F0B282A38391828082D901A8
:1059D0006D937C9309C00E5F1F4F800F911FF901DB
:1059E00091838083EB2DFA2FE114F10431F0D7017C
:1059F0001396FC93EE93129741C0F093D102E0937B
:105A0000D0023CC06816790608F43C017D0112966C
:105A10000D90BC91A02DB7CF8091CE029091CF0276
:105A200088169906E1F466167706C8F48091080195
:105A300090910901009741F48DB79EB740910C01F8
:105A400050910D01841B950BE817F907C8F4F093EA
:105A5000CF02E093CE02F901718360830FC0CB01C6
:105A60000E94602B7C01009759F0A801BE010E94A2
:105A7000602DCE010E94F82BC70104C0CE0102C0E8
:105A800080E090E0CDB7DEB7EEE00C9400249111F9
:105A90000C94192780538A5028F0865C80628156C6
:105AA0008650B0F70895FB01DC0104C08D91019090
:105AB000801921F441505040C8F7881B990B089574
:105AC000FB01DC0102C001900D9241505040D8F71B
:105AD0000895FC018191861721F08823D9F7992731
