:100000000C94DD020C9443140C941C140C94050302
:100010000C9405030C9405030C9405030C94030C39
:100020000C9405030C9405030C9405030C94290C03
:100030000C9405030C9405030C9405030C94050320
:100040000C94741B0C9405030C94B4140C948E142F
:100050000C9405030C9405030C9405030C94050300
:100060000C9405030C94050308000000BE9224497B
:10007000123EABAAAA2ABECDCCCC4C3E00000080DA
:10008000BEABAAAAAA3E00000000BF000000803F4D
:100090000000000000084178D3BB4387D1133D190D
:1000A0000E3CC3BD4282AD2B3E68EC8276BED98F3A
:1000B000E1A93E4C80EFFFBE01C4FF7F3F0000007E
:1000C000000007634236B79BD8A71A39685618AEA6
:1000D000BAAB558C1D3CB7CC5763BD6DEDFD753E7D
:1000E000F6177231BF000000803F6E616E00696ECE
:1000F000660000407A10F35A00A0724E18090010F2
:10010000A5D4E80000E87648170000E40B5402008C
:1001100000CA9A3B000000E1F505000080969800B7
:10012000000040420F000000A086010000001027E0
:1001300000000000E8030000000064000000000070
:100140000A00000000000100000000002C76D888A2
:10015000DC674F0823DFC1DFAE59E1B1B796E5E3B5
:10016000E453C63AE651997696E8E6C28426EB89CE
:100170008C9B62ED407C6FFCEFBC9C9F40F2BAA56B
:100180006FA5F490055A2AF75C936B6CF9676DC103
:100190001BFCE0E40D47FEF520E6B500D0ED902E07
:1001A0000300943577050080841E080000204E0A65
:1001B000000000C80C333333330F986E12831141A3
:1001C000EF8D2114893BE65516CFFEE6DB18D1846E
:1001D0004B381BF77C1D901DA4BBE4242032847295
:1001E0005E228100C9F124ECA1E53D2725252E25BD
:1001F00075660025303278002B52454D3D693263DB
:10020000743D2530327825303278002B52454D3DF3
:100210004C43463D252E34660A002B52454D3D4C3D
:1002200043463D252E34660A002B52454D3D6E74E3
:1002300063746D706F66733D25640A002B52454DE3
:100240003D6E7463746D706F66733D25640A002B98
:1002500052454D3D746D706F66733D25640A002BE9
:1002600052454D3D746D706F66733D25640A002BD9
:1002700052454D3D7A6364656C61793D25752C303E
:1002800078253032780A002B52454D3D7A636465FB
:100290006C61793D25752C3078253032780A002B39
:1002A00052454D3D7A6364656C61793D25752C300E
:1002B00078253032780A002B52454D3D7265663103
:1002C000313D252E34660A002B52454D3D72656640
:1002D00031313D252E34660A002B52454D3D4545B2
:1002E00050524F4D572C633D256C752C703D257534
:1002F0002C6E3D256C752C773D25752C6372633D06
:10030000253034780A002B52454D3D0041546D652F
:100310006761333238500041546D6567613332385C
:1003200050420053772E4F6E3D25752F25750A00DC
:100330004D696E2E6F6E3D25752C41646A2E68776F
:100340003D25752C5A432E64656C61793D25752CCD
:10035000004C46433D005643433D252E33662C005A
:100360006D61782E746D703D25752F2575732C6D1C
:100370006574726963733D25752C002F252B7500FC
:10038000496E742E54656D703D252E3266002F2502
:100390002B75004E54433D252E3266005265737412
:1003A0006F72653D25752C41434672713D252E3394
:1003B000662C72656631313D0076616C7565733D02
:1003C0000052616E67653D25752D25750A002C4C20
:1003D000766C733D25752C503D005469636B733DFD
:1003E00000416464723D253032782C5072653D25A1
:1003F000752F25752C0043453D312C0050723D551D
:100400004152542C0041434672713D25752C004CDD
:1004100043462C00466164652C005643432C00542F
:10042000656D702E43686B2C00496E742E54656D9B
:10043000702C004E54433D4125752C0045455052CB
:100440004F4D3D256C752C006F7074696F6E733D58
:10045000004025754D687A0A002C4D43553D2553C3
:10046000007369673D253032782D253032782D258F
:100470003032782C66757365733D6C3A253032786E
:100480002C683A253032782C653A25303278004D88
:100490004F534645542044696D6D657220322E31AC
:1004A0002E36204F637420313020323032302030ED
:1004B000383A35313A343020417574686F722073A0
:1004C00061736368615F6C616D6D65727340676DC8
:1004D000782E6465002B493243523D002B52454D26
:1004E0003D454550524F4D20435243206572726F37
:1004F00072002B52454D3D454550524F4D522C6395
:100500003D256C752C703D25752C6E3D256C752C2C
:100510006372633D253034783D253034780A00001D
:1005200000000800020100000304070000000000B2
:10053000000000424F4F54001E9516006C766C3D33
:10054000006672713D252E33662C005643433D25CF
:10055000752C00696E742E74656D703D252E3366A2
:100560002C004E54433D252E33662C002B52454D16
:100570003D0000000000250028002B0000000000C6
:10058000240027002A0004040404040404040202D2
:100590000202020203030303030301020408102002
:1005A00040800102040810200102040810202B4999
:1005B0003243543D00001620BE1B11241FBECFEF56
:1005C000D8E0DEBFCDBF22E0A8E5B1E001C01D92BA
:1005D000A33EB207E1F711E0A0E0B1E0E0E0FCE506
:1005E00002C005900D92A835B107D9F712E0CCED05
:1005F000D2E004C02197FE010E940529CB3DD1071E
:10060000C9F70E94CC1B0C94F32D0C94000080E0E1
:1006100090E0089520919B01420F40939B01029727
:100620001CF46093D601089585EC8093D60108955B
:10063000082E000C990BFC01EE0FFF1FEA59FE4F2C
:100640000190F081E02D2081DC01A859BE4F8C91F2
:100650008095822380830895AC018091CC01909194
:10066000CD014817590754F02091CE013091CF01A8
:100670002417350710F4C9010895CA010895E82F19
:100680002091D201222371F08091D0019091D1016B
:10069000009741F00E2E000CFF0BED59FE4F3081FC
:1006A000321720F08091BF019091C0010895CF933F
:1006B000DF93C091D202D091D302E881F981008406
:1006C000F185E02DCE010995892B69F0E881F9814A
:1006D0000284F385E02DCE010995682F89EA92E026
:1006E0000E947F17EACFDF91CF9108951092850085
:1006F00010928400109289001092880080918100ED
:1007000082608093810080917C0190917D010097AF
:1007100019F480E00C94180310927A0190938900E8
:100720008093880080919D0190919E01892B19F4FE
:1007300080E00E94180320E0E22F022E000CFF0B45
:10074000CF01880F991FE80FF91FE659FE4F8289E4
:100750009389892B11F480E020C08189082E000C38
:10076000990BFC01EE0FFF1FEA59FE4F0190F0813B
:10077000E02D3081DC01A859BE4F8C91832B808302
:100780002F5FDACFE189F0E0ED59FE4F90819E3F77
:1007900018F490819F5F90838F5FE82F082E000CE4
:1007A000FF0B9F01220F331FE20FF31FE659FE4F8D
:1007B00022893389232B31F70895CF93DF93C0919A
:1007C000D601D0E0CF5EDE4F80919B019FEF980F66
:1007D00090939B01882361F0FE0181E0C73DD8071B
:1007E00038F42196608189EA92E00E943516ECCFB8
:1007F00010929B01DF91CF9108952F923F924F92DB
:100800005F926F927F928F929F92AF92BF92CF92A0
:10081000DF92EF92FF920F931F93CF93DF93CDB7A9
:10082000DEB7A8970FB6F894DEBF0FBECDBF6B0141
:100830007C01142F022F20E030E0A9010E94202A21
:1008400046015701181624F0B7FAB094B7F8B094DF
:1008500020E030E040E85FE3C501B4010E944C278E
:1008600087FF19C020E030E040E251E4C501B40147
:100870000E94B2274B015C0120E030E040E85FE3DA
:100880000E944C2787FF19C0101708F400C115C03B
:10089000123098F0115020E030E040E251E4C50100
:1008A000B4010E9478294B015C0120E030E040E86F
:1008B0005FE30E94202A18165CF31F921F938CEEB0
:1008C00091E09F938F931F9288E08F935E0121E2C6
:1008D000A20EB11CBF92AF920E948F26FF92EF92A0
:1008E000DF92CF92BF92AF921F9280E28F93CE01A0
:1008F00001965C019F938F930E94C32D0FB6F894CD
:10090000DEBF0FBECDBF8097A4F46EE270E0C501DC
:100910000E94B82D009769F0DC011196FD0101904D
:100920000020E9F731973197AE17BF0708F4B1C03F
:10093000012FA7019601C701B6010E94C52A88238D
:1009400019F088E491E027C046015701E894B7F810
:100950002FEF3FEF4FE75FE7C501B4010E94C52AC3
:1009600081110DC02FEF3FEF4FE75FE7C501B401E5
:100970000E944C2718161CF48CE491E00CC02FEF59
:100980003FEF4FE75FE4C701B6010E94202A181627
:100990002CF480E591E00E94B31882C02FEF3FEF66
:1009A0004FE75FECC701B6010E944C2787FDF1CFEE
:1009B00020E030E0A901C701B6010E944C2787FF63
:1009C00009C08DE20E94AE185C01F7FAF094F7F8C6
:1009D000F09402C0A12CB12C10E060E070E080E047
:1009E0009FE3011741F020E030E040E251E40E9433
:1009F00078291F5FF6CFA70196010E940C292B01D1
:100A00003C010E94F1296B017C014AE00E94C5185B
:100A10001C012A0C3B1C0023C1F1C701B6010E9436
:100A200051279B01AC01C301B2010E940B294B016C
:100A30005C018EE20E94AE187101E80EF91E20E002
:100A400030E040E251E4C501B4010E94B2272B011D
:100A50003C010E94F1294B01A12CB12C4AE0C501B7
:100A6000B4010E94C518E80EF91EC501B4010E9428
:100A700051279B01AC01C301B2010E940B294B011C
:100A80005C010150E1F6C7010BC0C10109C01F5F45
:100A9000E9CE8081803309F04BCF1082115043CFD3
:100AA000A8960FB6F894DEBF0FBECDBFDF91CF91F1
:100AB0001F910F91FF90EF90DF90CF90BF90AF907C
:100AC0009F908F907F906F905F904F903F902F906E
:100AD00008958F929F92AF92BF92CF92DF92EF9242
:100AE000FF920F931F93CF93DF9300D000D000D0DD
:100AF000CDB7DEB7CE0101967C0186E0F7011192F9
:100B00008A95E9F7C0909D01D0909E010091CE0199
:100B10001091CF01C016D10608F06BC0C114D104EA
:100B200009F46BC08090BA019090BB01A090BC0109
:100B3000B090BD0120E030E040E85FE3C501B401C2
:100B40000E944C27882309F452C0B60180E090E04F
:100B50000E945127A50194010E94752A20917601D7
:100B60003091770140917801509179010E94B2272C
:100B70000E94EA29C090CC01D090CD019B012C0DA0
:100B80003D1DADE8B0E20E94C328980140E050E06E
:100B90000E94E6286091C1017091C2018DE890E247
:100BA000A0E0B0E0861B970BA109B109281739070F
:100BB0004A075B07D4F02DE830E28901061B170BCA
:100BC00080E00E943F030817190758F0C8010097FA
:100BD000A1F02091BE01820F911D9B838A8319820F
:100BE0000CC080E00E943F03F2CF8901E9CFB6013B
:100BF000C1CF8FEF9FEF9B838A83F89486E0F70144
:100C0000A1E8B1E001900D928A95E1F778942696DB
:100C10000FB6F894DEBF0FBECDBFDF91CF911F910D
:100C20000F91FF90EF90DF90CF90BF90AF909F908B
:100C30008F9008950F931F93CF93DF93C82F880F42
:100C4000DD0B8E010A5F1F4FF801EE0FFF1FEF56FD
:100C5000FE4F80819181892B21F4FE01ED59FE4FD9
:100C60001082CB010E942C03000F111FF801EF56D8
:100C7000FE4F918380838CE08C9FF0018D9FF00D5F
:100C80001124E659FE4F11861086CC0FDD1FC65980
:100C9000DE4F8FEF9FEF9E8F8D8FDF91CF911F9152
:100CA0000F910C946905CF92DF92EF92FF920E9410
:100CB000291B6B017C0180915F0190916001A091E3
:100CC0006101B0916201C816D906EA06FB06D8F5A3
:100CD00080915F0190916001A0916101B0916201EA
:100CE0008C199D09AE09BF098F3F9F4FAF4FBF477A
:100CF000B8F080915F0190916001A0916101B09185
:100D00006201B095A095909581959F4FAF4FBF4FD1
:100D100080935F0190936001A0936101B0936201A1
:100D200080915F0190916001A0916101B091620199
:100D3000C816D906EA06FB0630F48091D5018F5F0C
:100D40008093D501C6C09091BE01992351F0809146
:100D5000B10084608093B1001092B2009093B30010
:100D600002C00E94760383EBC80E85E1D81EE11C09
:100D7000F11CC0925F01D0926001E0926101F0929B
:100D8000620186E0E1E8F1E0ABE7B1E001900D92AD
:100D90008A95E1F77894E0907201F0907301E11484
:100DA000F104D9F120916E0130916F0140917001F1
:100DB0005091710160916A0170916B0180916C0199
:100DC00090916D010E940C2960936A0170936B01F0
:100DD00080936C0190936D0121E0E21AF108F0928A
:100DE0007301E0927201EF2851F00E94EA29CB01D1
:100DF0000E942C0390939E0180939D010EC08091D0
:100E00007401909175010E942C0390939E01809330
:100E10009D0190938801809387010E9469058091CC
:100E20005E018F5F80935E0180915E018C3309F0DB
:100E300050C00E94681BC0905A01D0905B01E090A6
:100E40005C01F0905D019B012C193D093093590123
:100E50002093580110925E0160935A0170935B01D8
:100E600080935C0190935D016091580170915901EC
:100E700080E090E00E9451272BEA3AEA46E254E4EF
:100E80000E94202A18165CF48091D7018064809318
:100E9000D7018091D3018F5F8093D3011AC06091F5
:100EA00058017091590180E090E00E94512725E59A
:100EB00035E540ED53E40E944C2787FF0AC080913E
:100EC000D70180648093D7018091D4018F5F809394
:100ED000D401FF90EF90DF90CF900895CF92DF92F2
:100EE000EF92FF920F931F93CF93DF93EB017B0160
:100EF00028E2E20EF11C8B016C01C61AD70AC6016A
:100F0000800F911F0E947028F80181938F01EE15C8
:100F1000FF05A9F7CE01DF91CF911F910F91FF90AF
:100F2000EF90DF90CF90089566E073E08CE092E060
:100F30000C946A148F929F92AF92BF92CF92DF92DD
:100F4000EF92FF92CF930E94491A6C01990FEE081D
:100F5000FF08C4E00E944E1B0E94491A092E000C93
:100F6000AA0BBB0BC80ED91EEA1EFB1EC15091F77F
:100F7000C701B60125E030E040E050E00E9496282D
:100F8000B90180E090E00E9451279B01AC0160E034
:100F900070EC8FE794E40E94782920E030E040E88C
:100FA0005FE30E940B2920E030E44EE455E40E9408
:100FB000B22720E030E44CE156E40E9478290E94F8
:100FC0002D2A20E030EE46E755E40E9478292FE0F4
:100FD0003FEC4BE55BE30E940C299B01AC0160E018
:100FE00070E080E89FE30E9478294B015C016091EA
:100FF000C801062E000C770B880B990B0E94532713
:1010000020E030E040E85EE30E94B2276B017C0103
:1010100023E333E948E853E4C501B4010E940B29F6
:101020009B01AC01C701B6010E940C29CF91FF9032
:10103000EF90DF90CF90BF90AF909F908F900895EA
:10104000CF92DF92EF92FF921F93CF93DF938EE4C4
:1010500080937C0010E0C0E0D0E00E944E1B1A306C
:1010600011F4C0E0D0E080917A00806480937A002F
:1010700080917A0086FDFCCF809178009091790074
:10108000C80FD91F1F5F143141F720E030E44CE155
:101090005BE46091C3017091C4018091C50190919E
:1010A000C6010E94B2276B017C01BE0180E090E086
:1010B0000E9451279B01AC01C701B6010E9478290B
:1010C0000E94F129CB01DF91CF911F91FF90EF900A
:1010D000DF90CF9008954F925F926F927F928F92A0
:1010E0009F92AF92BF92CF92DF92EF92FF921F93A7
:1010F000CF93DF9388EC80937C0080917A008068A6
:1011000080937A0010E0C0E0D0E00E944E1B1F30B8
:1011100011F4C0E0D0E080917A00806480937A007E
:1011200080917A0086FDFCCF8091780090917900C3
:10113000C80FD91F1F5F193141F7BE0180E090E051
:101140000E94512720E030E040E251E40E947829DB
:101150004B015C0180916901811109C09EEAC92E91
:1011600097E2D92E92EAE92E93E4F92E06C0C12C1B
:10117000D12C87E7E82E83E4F82E6091C701062E74
:10118000000C770B880B990B0E94532720E030E06E
:1011900040E85EE30E94B2272B013C01A7019601C3
:1011A000C501B4010E940B2926EF38E24CE95FE348
:1011B0000E9478299B01AC01C301B2010E940C2955
:1011C000DF91CF911F91FF90EF90DF90CF90BF9074
:1011D000AF909F908F907F906F905F904F90089509
:1011E0008F929F92AF92BF92CF92DF92EF92FF9237
:1011F0000E94681B6B017C018091D70183FD35C083
:101200008090040190900501A0900601B090070124
:101210000E94681BC818D908EA08FB0829E8C2160A
:1012200023E1D206E104F1043CF438E8C32E33E1B3
:10123000D32EE12CF12C06C024EFC22EDD24D39452
:10124000E12CF12CDC01CB018C0D9D1DAE1DBF1DD1
:101250008093040190930501A0930601B0930701C8
:101260008091D70188608093D701FF90EF90DF9045
:10127000CF90BF90AF909F908F900895CF93DF93C2
:1012800081E090E0A0E0B0E08093E4019093E5017C
:10129000A093E601B093E7011092650110926401FA
:1012A000C0E0D0E060E0CE010E9478282196C11510
:1012B00084E0D807B9F710920202109201020E944E
:1012C000F1199093E9018093E80180916401909174
:1012D0006501DF91CF910C94C919CF93DF93C4EED0
:1012E000D1E088E2FE0111928A95E9F7A3EBB1E023
:1012F00080E2FD0111928A95E9F7E1E9F1E086E4E7
:1013000098E092AF81AF8BE483A38C91816082607F
:101310008C9380E090E0A0EFB0E484A395A3A6A313
:10132000B7A382E080A782E185A788EC90E097A729
:1013300086A791AB80AB8DEC9CECACE8BFE382ABB5
:1013400093ABA4ABB5AB85E080AF80E090E0A0E8C4
:10135000BFE381A792A7A3A7B4A780E090E296AFCE
:1013600085AF8EEF9FEF9D838C8380E2E3EBF1E00E
:10137000AAEEB1E001900D928A95E1F7DF91CF914D
:1013800008954F925F926F927F928F929F92AF9249
:10139000BF92CF92DF92EF92FF920F931F93CF9362
:1013A000DF936A01480159018F3F09F480E0C82F9B
:1013B000880FDD0BFE01EE0FFF1FE659FE4F8FEF8A
:1013C0009FEF968F858FFE01EE0FFF1FE356FE4FB6
:1013D000208131812115310521F4FE01ED59FE4FA7
:1013E00010826F3F8FEF780711F4C90101C0CB0164
:1013F0000E942C037C01C6010E942C038E199F09B8
:10140000BC01990F880B990B0E9453272B013C01BB
:101410006091CE017091CF0180E090E00E94512751
:101420009B01AC01C301B2010E947829A50194017E
:101430000E94B2274B015C0120E030E0A9010E942C
:10144000202A181624F0B7FAB094B7F8B09420E028
:1014500030E040EF52E4C501B4010E94B2270E947F
:10146000F1295B012CE02C9F80012D9F100D112490
:1014700006591E4FF8017187608780E090E00E9456
:1014800051279B01AC01C301B2010E9478292B01B5
:101490003C01F8016483758386839783B701FF0C51
:1014A000880B990B0E945327F80160837183828314
:1014B0009383D386C286AB2849F020E030E0A901AF
:1014C000C301B2010E944C2781110CC08CE08C9F9B
:1014D000F0018D9FF00D1124E659FE4F81E090E060
:1014E00091878087DF91CF911F910F91FF90EF90AF
:1014F000DF90CF90BF90AF909F908F907F906F9034
:101500005F904F900895DC0191E2E0E0F0E090936D
:101510005700E491EC93E2E0F0E090935700E491FF
:101520001196EC931197E4E0F0E0909357009491BA
:1015300012969C931297CD0108958F929F92AF922D
:10154000BF92CF92DF92EF92FF920F931F93CF93B0
:10155000DF93CDB7DEB7C054D1090FB6F894DEBF24
:101560000FBECDBFCE01815B9F4FFC01819091905A
:101570006F019F01A40160E470E08E5491095C0149
:101580000E94BF268C018F33910584F002960E9441
:10159000AF2B7C010097E1F09601A401B8010E94F5
:1015A000BF268C01181619065CF404C0181619061B
:1015B0006CF47501A801B7018CE092E00E943E1224
:1015C000AE14BF0419F0C7010E94472CC80102C025
:1015D00080E090E0C05CDF4F0FB6F894DEBF0FBE36
:1015E000CDBFDF91CF911F910F91FF90EF90DF90D2
:1015F000CF90BF90AF909F908F900895CF92DF9241
:10160000EF92FF920F931F93CF93DF93CDB7DEB787
:10161000AF970FB6F894DEBF0FBECDBF182F80E294
:10162000E3EBF1E0AAEEB1E001900D928A95E1F7CB
:1016300080919D0190919E0190930B0280930A02EC
:1016400010920202109201020E94F1199093E90196
:101650008093E801BE016F5F7F4F8091640190919C
:1016600065010E946E0748E250E0BE016F5F7F4F48
:1016700084EE91E00E94A22D892B19F4112309F424
:1016800040C080916401909165019C01205B3F4FB7
:101690002115344030F4889690936501809364015D
:1016A0001DC010926501109264018091E401909137
:1016B000E501A091E601B091E7010196A11DB11DE0
:1016C0008093E4019093E501A093E601B093E701D4
:1016D0000E94F1199093E9018093E80180916401DF
:1016E000909165010E94C9190E94681B60930401D2
:1016F00070930501809306019093070188E28FA7FC
:101700000BC00E94681B60930401709305018093D5
:101710000601909307011FA68091D701877F8093D0
:10172000D7018091E4019091E501A091E601B0918B
:10173000E70189A79AA7ABA7BCA780916401909104
:1017400065019EA78DA768E189EA92E00E9445178E
:1017500083EF90E00E94C41947E050E0BE01675D4E
:101760007F4F89EA92E00E94BD150E946F19E091B7
:101770006401F0916501C9A4DAA4EBA4FCA48091F2
:10178000E9018F938091E8018F938FA51F928F932A
:10179000A70196012150310941095109A9E1B0E0A1
:1017A0000E94B8288B019C01CF0168E270E00E9482
:1017B000D228D901C801860F971FA11DB11DBF9363
:1017C000AF939F938F93FF93EF93FF92EF92DF92EC
:1017D000CF9289ED92E09F938F930E949D0A0FB65E
:1017E000F894DEBF0FBECDBFAF960FB6F894DEBF44
:1017F0000FBECDBFDF91CF911F910F91FF90EF9062
:10180000DF90CF9008951F920F920FB60F92112480
:101810002F933F934F935F936F937F938F939F93F8
:10182000AF93BF93EF93FF931092B1000E947603A2
:10183000FF91EF91BF91AF919F918F917F916F91A8
:101840005F914F913F912F910F900FBE0F901F907E
:1018500018951F920F920FB60F9211240F931F939A
:101860002F933F934F935F936F937F938F939F93A8
:10187000AF93BF93CF93DF93EF93FF9300917A01E0
:10188000C1E0C00FC0937A01002E000C110BC801FB
:10189000880F991F080F191F05581E4F0C2E000C9A
:1018A000DD0BCE01880F991FC80FD91FC558DE4F19
:1018B000F80180810E94180389819A819C0121503E
:1018C00031092E3F3F4F18F01092810029C0F801D6
:1018D000218132812817390798F4209184003091B2
:1018E0008500285F3F4F8217930728F4809184007A
:1018F000909185000896909389008093880010C08D
:1019000080917A018F5F80937A01082E000C990BE9
:101910009C01220F331F820F931F8E01EC01C6CF53
:10192000FF91EF91DF91CF91BF91AF919F918F91F7
:101930007F916F915F914F913F912F911F910F91E7
:101940000F900FBE0F901F9018958F929F92AF929D
:10195000BF92CF92DF92EF92FF924B015C01E1E9DF
:10196000F1E061A772A783A794A765AD76AD80E08B
:1019700090E00E9451276B017C01A50194010E9417
:10198000752A9B01AC01C701B6010E9478296093BA
:101990007601709377018093780190937901FF909D
:1019A000EF90DF90CF90BF90AF909F908F90089571
:1019B0000F931F938091580190915901892BC1F188
:1019C0000E94681B00915A0110915B0120915C01FB
:1019D00030915D01601B710B820B930B0E945127AC
:1019E0002BEA3AEA46EA54E40E94202A18167CF4CC
:1019F00010925901109258018091D7018064809310
:101A0000D7018091D3018F5F8093D30111C0609182
:101A100058017091590180E090E00E9451279B018C
:101A2000AC0160E070E68AEE96E40E94782904C07A
:101A300060E070E080EC9FE71F910F910895FF92A6
:101A40000F931F93CF93DF93CDB7DEB728970FB6D1
:101A5000F894DEBF0FBECDBF0E9494078FE894E0DC
:101A60000E945C1A8CE092E00E941E130E94940770
:101A7000CE0101960E94830A89E0E0E0F0E08093C5
:101A8000570094919C83E3E0F0E080935700249109
:101A90002D83E2E0F0E08093570084918E833B81B8
:101AA000363141F447E153E058874F8341E040939A
:101AB000690104C04CE053E058874F831F928F9315
:101AC0001F922F931F929F931F923F938A811F9281
:101AD0008F9389811F928F9381E694E09F938F93D8
:101AE0000E949D0A8F8198850FB6F894DEBF0FBEC5
:101AF000CDBF009761F09F938F9389E594E09F930A
:101B00008F930E949D0A0F900F900F900F901F923D
:101B100088E0F82EFF9281E594E09F938F930E94D6
:101B20009D0A8CE092E00E941E130E94940768E4D4
:101B300074E08CE092E00E946A148091E40190913C
:101B4000E501A091E601B091E7019C01AD012150B2
:101B5000310941095109A9E1B0E00E94B8288B017F
:101B60009C01809164019091650168E270E00E949F
:101B7000D228D901C801860F971FA11DB11DBF939F
:101B8000AF939F938F938CE394E09F938F930E94E6
:101B90009D0A1F9286E08F9383E394E09F938F9337
:101BA0000E949D0A69E274E08CE092E00E946A144F
:101BB0006FE174E08CE092E00E946A146AE174E0E4
:101BC0008CE092E00E946A1464E174E08CE092E0A0
:101BD0000E946A146FE074E08CE092E00E946A1444
:101BE0001F928CE38F9385E094E09F938F930E94E4
:101BF0009D0A6CEF73E08CE092E00E946A1466EF3D
:101C000073E08CE092E00E946A141F9280E48F934C
:101C10001F92FF921F9287E18F9381EE93E09F9333
:101C20008F930E949D0A6AED73E08CE092E00E941F
:101C30006A1428E046E060E070E080E89FE30E94DC
:101C4000FD038FE20E94AE1828E046E060E070E0FD
:101C500080E09EE30E94FD0380E28F931F928EEC52
:101C600093E09F938F930E949D0A4AE066E070E0A4
:101C700080E090E00E94C5188CE20E94AE1880912E
:101C8000CF018F938091CE018F938091CD018F935F
:101C90008091CC018F9381EC93E09F938F930E946E
:101CA0009D0A0FB6F894DEBF0FBECDBF8CE092E068
:101CB0000E941E130E94940769EB73E08CE092E08F
:101CC0000E946A140E94D80C9F938F937F936F9306
:101CD0008091B30181701F928F938CE993E09F9361
:101CE0008F930E949D0A6091C3017091C4018091FD
:101CF000C5019091C60124E044E00E94FD038CE2FE
:101D00000E94AE180E949A079F938F937F936F93C0
:101D100083E993E09F938F930E949D0A8091C8016D
:101D2000282F082E000C330B3F938F938EE893E0FF
:101D30009F938F930E949D0A8CE20E94AE180E948E
:101D40006B089F938F937F936F9380E893E09F93AB
:101D50008F930E949D0A8091C701282F082E000CA6
:101D6000330B3F938F938BE793E09F938F930E9466
:101D70009D0A8CE20E94AE188091C9011F928F9338
:101D80008091B9011F928F938091B4011F928F931C
:101D900080E693E09F938F930E949D0A0FB6F8947C
:101DA000DEBF0FBECDBF0E942008BC0180E090E0E6
:101DB0000E94512720E030E04AE754E40E9478294D
:101DC0009F938F937F936F9386E593E09F938F9379
:101DD0000E949D0A61E573E08CE092E00E946A1423
:101DE0006091BA017091BB018091BC019091BD01DD
:101DF00028E046E00E94FD038CE20E94AE1880912C
:101E0000BE011F928F938091C2018F938091C10177
:101E10008F938091C0018F938091BF018F9380E356
:101E200093E09F938F930E949D0A8091D2011F920D
:101E30008F938091D1018F938091D0018F9383E212
:101E400093E09F938F930E949D0A8CE092E00E9402
:101E50001E130FB6F894DEBF0FBECDBF28960FB687
:101E6000F894DEBF0FBECDBFDF91CF911F910F91D0
:101E7000FF9008952F923F924F925F926F927F92C0
:101E80008F929F92AF92BF92CF92DF92EF92FF928A
:101E90000F931F93CF93DF93EC0185EC8093D601D2
:101EA00010929C0110929B014AE1242E42E0342EB4
:101EB0005FE9C52E52E0D52E412C512C612C6EE3EA
:101EC000762E812C912C70ECA72E7FE7B72E7E0109
:101ED00021E0E21AF1081C161D060CF0BBC210919D
:101EE000D60189EA92E00E94131AE091D601E058E7
:101EF000E63408F0E5ECF0E0EF56FE4F8083809189
:101F0000D60191E0980F9093D601153C19F01A383C
:101F100029F485EC8093D601E701D9CF1C3A59F416
:101F20006091BA017091BB018091BC019091BD019B
:101F30000E94A50CF1CF193879F780919A01853567
:101F400009F48DC108F046C0823209F407C178F562
:101F5000823109F4CAC0D0F4803109F4E5C081317E
:101F6000D9F6009196011091970120919801309136
:101F70009901409194015091950160919101709166
:101F80009201809193010E94C109C6CF803209F469
:101F9000D7C0813209F68092AD019092AE01A09235
:101FA000AF01B092B0018091D7018260D4C0813579
:101FB00009F4F0C048F4833209F4DCC0803509F03C
:101FC000ABCF0E94F008A8CF833509F445C108F4CF
:101FD000E6C037C2863809F4C9C1E8F5823809F489
:101FE0007DC140F5803809F457C1813809F094CF9C
:101FF0002FE632E143E85AE36091C3017091C401D6
:102000008091C5019091C6010E940B299B01462F2A
:10201000532F682F792F4093C3015093C4016093CD
:10202000C5017093C6019F938F933F932F9387EBC6
:1020300092E07DC1843809F47CC108F088C18091A8
:10204000BE0181508093BE011F928F931F928F9388
:102050008FE692E06CC1893809F4ACC140F587384D
:1020600009F492C1883809F057CF2FE632E143E8EE
:102070005AE36091BA017091BB018091BC019091CB
:10208000BD010E940C299B01462F532F682F792FE9
:102090004093BA015093BB016093BC017093BD01A2
:1020A0009F938F933F932F933F922F92A6C1823994
:1020B00009F420C1833909F4C0C1813909F02CCF5A
:1020C0001F9282EA8F931F9287E18F9388EF91E0AE
:1020D0009F938F930E949D0AC3EBD1E00F900F90C6
:1020E0000F900F900F900F9091C122971E141F0414
:1020F0006CF489EA92E00E94131A282F2F70992716
:1021000034E0959587953A95E1F702C020E088E0A4
:10211000880F90919B01890F80939B01220F245778
:102120002093D6017E01F8CE6091940170919501C3
:10213000809193018F3F09F480E00E941A06ECCE53
:102140008092AD019092AE01A092AF01B092B00129
:102150008091D70184608093D70116C01092B2019C
:102160001092B1018091D70181608093D70142E044
:1021700060EA0CC00E94D80C6093AD017093AE0170
:102180008093AF019093B00144E06CE9C7010E94D5
:102190000A03C2CE0E946D090E943E09BDCE22975D
:1021A0001E141F040CF0BECF89EA92E00E94131A9D
:1021B000182F99278330910541F17CF481309105E6
:1021C000B9F0029709F0AECF4092AD015092AE0146
:1021D0006092AF017092B00136C08430910519F160
:1021E000059709F09FCF6091C1017091C2011FC096
:1021F00080E090E0A0E8BFE38093AD019093AE0152
:10220000A093AF01B093B0011EC06091BE0170E019
:1022100080E090E00E94532720E030E040E051E46D
:102220000E94B22708C06091BF017091C00180E098
:1022300090E00E9451276093AD017093AE018093AE
:10224000AF019093B001112309F46CCF44E06CE925
:10225000CE010E940A0366CF0E941F0D5DCE109230
:102260008D0110928E0110928F0110929001229791
:102270001E141F044CF489EA92E00E94131A21E014
:10228000892B19F420E001C021E08091D70120FBC7
:1022900085F98093D70146CF2FE632E143E85AE330
:1022A0006091C3017091C4018091C5019091C601F4
:1022B0000E940C299B01462F532F682F792F4093A2
:1022C000C3015093C4016093C5017093C6019F93ED
:1022D0008F933F932F9388EC92E029C08091BE01A9
:1022E0008F5F8093BE011F928F931F928F93DF9217
:1022F000CF9283C022971E141F0434F489EA92E01F
:102300000E94131A8093BE018091BE011F928F9389
:102310001F928F93A7E8B2E0BF93AF930E949D0AEC
:102320000F900F900F900F900F900F90FBCE9F93F8
:1023300063C02091C7012F5F2093C701822F022E17
:10234000000C990B9F932F938FE592E00DC0209185
:10235000C70121502093C701822F022E000C990B38
:102360009F932F938FE492E09F931CC02091C8010C
:102370002F5F2093C801822F022E000C990B9F9390
:102380002F938CE392E00DC02091C801215020933F
:10239000C801822F022E000C990B9F932F9389E284
:1023A00092E09F938F930E949D0A0F900F900F9041
:1023B0000F90B2CD2FE632E143E85AE36091BA01C3
:1023C0007091BB018091BC019091BD010E940B29CD
:1023D0009B01462F532F682F792F4093BA015093BA
:1023E000BB016093BC017093BD019F938F933F939A
:1023F0002F938BE092E09F938F930E949D0A0F9002
:102400000F900F900F900F900F9086CD89911F9293
:102410008F9383EF91E09F938F930E949D0A0F907B
:102420000F900F900F908AEC91E08C179D0771F739
:1024300084E591E00E94B3186FCD81E00E94FE0A0E
:102440006BCD1092890110928A0110928B0110922B
:102450008C0162CDDF91CF911F910F91FF90EF9092
:10246000DF90CF90BF90AF909F908F907F906F90B4
:102470005F904F903F902F9008950895CF92DF92F4
:10248000EF92FF920F931F93CF93DF936C017A012A
:102490008B01C0E0D0E0CE15DF0581F0D8016D9151
:1024A0008D01D601ED91FC910190F081E02DC601E6
:1024B0000995892B11F02196EECF7E01C701DF919E
:1024C000CF911F910F91FF90EF90DF90CF900895E3
:1024D000FC01538D448D252F30E0842F90E0821B2A
:1024E000930B541710F0CF96089501970895FC01AF
:1024F000918D828D981761F0828DDF01A80FB11D3B
:102500005D968C91928D9F5F9F73928F90E008955E
:102510008FEF9FEF0895FC01918D828D981731F018
:10252000828DE80FF11D858D90E008958FEF9FEF6C
:102530000895FC01918D228D892F90E0805C9F4F42
:10254000821B91098F73992708958CE092E00E9475
:10255000991221E0892B09F420E0822F0895FC01D3
:10256000848DDF01A80FB11DA35ABF4F2C91848D1C
:1025700090E001968F739927848FA689B7892C9351
:10258000A089B1898C91837080648C93938D848DA4
:10259000981306C00288F389E02D80818F7D8083A7
:1025A0000895EF92FF920F931F93CF93DF93EC0167
:1025B00081E0888F9B8D8C8D981305C0E889F989FF
:1025C000808185FD26C0F62E0B8D10E00F5F1F4F1A
:1025D0000F731127E02E8C8DE8120CC00FB607FC8C
:1025E000FACFE889F989808185FFF5CFCE010E9475
:1025F000AF12F1CF8B8DFE01E80FF11DE35AFF4FB3
:10260000F0829FB7F8940B8FEA89FB898081806202
:102610000AC09FB7F894EE89FF896083E889F98939
:1026200080818370806480839FBF81E090E0DF9130
:10263000CF911F910F91FF90EF900895CF93DF936B
:10264000EC01888D8823C9F0EA89FB89808185FDAA
:1026500005C0A889B9898C9186FD0FC00FB607FC0B
:10266000F5CF808185FFF2CFA889B9898C9185FF4C
:10267000EDCFCE010E94AF12E7CFDF91CF91089549
:102680000E94A51281110C9457030895FC018785BF
:1026900081FF0AC0818D228D922F9170892B21F4A8
:1026A0008685807F816086870895FC01428D942F06
:1026B0009695838D582F579555275795252F292B5C
:1026C00081FB332730F9818D942F917028173907BA
:1026D00044F48789908DFC01E20FF31F808190E024
:1026E00008958FEF9FEF0895FC01528D852F8695F9
:1026F000438D942F979599279795292F282B41FB48
:10270000332730F9818D952F917028173907C4F43C
:10271000A789B08DC90101969170682F660F51701D
:10272000562B528F881F8827881F4E7F482B90FB7F
:1027300041F9438FFD01E20FF31F808190E008957E
:102740008FEF9FEF0895FC01418D928D592F5170AD
:102750009695838D682F679566276795262F292B79
:1027600081FB332730F9CA01821B930B0895FC01CA
:10277000868584FF02C07D9601C077964381342F01
:1027800036952481522F579555275795852F832BA2
:1027900021FB992790F92281342F317082179307FA
:1027A00044F420813181F901E80FF91F808190E024
:1027B00008958FEF9FEF0895FC01868584FF02C086
:1027C0007D9601C0779642819381592F51709695DD
:1027D0008481682F679566276795262F292B81FBB3
:1027E000332730F9CA01821B930B08950895FC0129
:1027F00086858F70823068F08585833028F08685E5
:10280000807F8160868705C0662331F0813021F4A6
:10281000F6CF8FEF9FEF08958230D9F7128A40E10B
:1028200050E060E070E0CF0140960E944724862F80
:1028300090E008950C94131A1F920F920FB60F9206
:1028400011242F933F934F935F936F937F938F93B5
:102850009F93AF93BF93EF93FF93E0910201F091A9
:1028600003010995FF91EF91BF91AF919F918F91D6
:102870007F916F915F914F913F912F910F900FBE7C
:102880000F901F9018951F920F920FB60F92112460
:102890002F933F934F935F936F937F938F939F9368
:1028A000AF93BF93EF93FF93E0910001F09101018B
:1028B0000995FF91EF91BF91AF919F918F917F917A
:1028C0006F915F914F913F912F910F900FBE0F909D
:1028D0001F901895EF92FF920F931F93CF93DF9362
:1028E0008C017B01C0E0D0E0F701EC0FFD1F64918B
:1028F000662361F0D801ED91FC910190F081E02D0B
:10290000C8010995892B11F02196EECFCE01DF91F8
:10291000CF911F910F91FF90EF9008951F920F920A
:102920000FB60F9211242F933F934F935F936F93A2
:102930007F938F939F93AF93BF93EF93FF938CE01D
:1029400092E00E94AF12FF91EF91BF91AF919F91E2
:102950008F917F916F915F914F913F912F910F9048
:102960000FBE0F901F9018951F920F920FB60F92E7
:1029700011242F938F939F93EF93FF93E0911C0269
:10298000F0911D028081E0912202F091230282FDEC
:1029900012C09081809125028F5F8F732091260253
:1029A000821751F0E0912502F0E0E45FFD4F958F32
:1029B0008093250201C08081FF91EF919F918F91BB
:1029C0002F910F900FBE0F901F9018950F931F938C
:1029D000CF93DF93EC014D81242F269526952695E4
:1029E00030E0203131053CF02051310984E0220FE4
:1029F000331F8A95E1F78B016217730708F4890189
:102A0000095F1F4F087F2C8126952695342F32951C
:102A1000330F330F307C832F822B42FB992790F9A1
:102A20008017910709F45BC0888199810115110510
:102A300091F0009721F0B8010E94D02C03C0C8018A
:102A40000E94AF2B9983888388819981892B49F4CF
:102A500000E010E006C00097D9F30E94472C1982CD
:102A600018821170902F990F990F8C818370892B88
:102A70008C83902F92959695969593708D818C7FEF
:102A8000892B10FB82F98D832A818B81382F31703D
:102A90000217130724F40A8310FB80F98B838A81C1
:102AA0003B81932F9170632F66952C81722F7795C0
:102AB00077277795472F462B21FB552750F9841709
:102AC00095076CF4482F440F3170342B3B83881FDB
:102AD0008827881F2E7F282B90FB21F92C8381E0EB
:102AE000DF91CF911F910F910895EF92FF920F9375
:102AF0001F93CF93DF93EC017B018A016A818B8165
:102B0000782F7170640F751F2C81269526953D8155
:102B1000432F4295440F440F407C842F822B32FB7D
:102B2000992790F968177907C8F48A812B81922F29
:102B3000917028813981A801B701820F931F0E94EB
:102B4000AF2D8A812B81922F9170800F911F8A83E4
:102B5000822F90FB80F98B83C80108C06F5F7F4F85
:102B6000CE010E94E6148111E0CF90E0DF91CF9179
:102B70001F910F91FF90EF900895FC018685978536
:102B80009170292F220F220F86FB992790F9922B03
:102B9000913021F4CF014D960C94751580E090E0B2
:102BA0000895CF93DF93EC0188819981009721F0FC
:102BB0000E94472C198218828D818C7F8B7F8D8398
:102BC0001A821B821C82DF91CF9108951F93CF93AD
:102BD000DF93FC0182814381942F9170248126959B
:102BE00026953581532F5295550F550F507CA52FA3
:102BF000A22B32FBBB27B0F99C012F5F3F4F8A17F6
:102C00009B076CF4A081B18131702283242F30FBAB
:102C100020F92383FD01E80FF91F608320C0162FE0
:102C2000EF01B901CF010E94E614811106C0CE0167
:102C30000E94D11580E090E014C0688179818A817A
:102C40002B81922F9170AC014F5F5F4F51704A837F
:102C500050FB20F92B83FB01E80FF91F108381E063
:102C600090E0DF91CF911F910895FC0186859785B3
:102C70009170292F220F220F86FB992790F9922B12
:102C8000913021F4CF014D960C94E61580E090E050
:102C90000895FC0184818E7F8D7F8483128213824C
:102CA000658166956695669570E0603171053CF0CA
:102CB0006051710984E0660F771F8A95E1F7695FBB
:102CC0007F4F687FCF010C94E6140F931F93CF932F
:102CD000DF93EC018D85882319F088898B3231F0E0
:102CE0001D868E85807F81608E8716C08E01095E6D
:102CF0001F4FC8010E944916BE01605F7F4F47E029
:102D000050E0C8010E9475158E85807F84608E8793
:102D10008F8582608F871D86DF91CF911F910F91E4
:102D20000895EF92FF920F931F93CF93DF93EC01DF
:102D3000162F6A3009F042C061E00E94F713BC010F
:102D4000CE010E94C71A8E858F70823040F18F8528
:102D500081FF25C0CE010E9446138E85982F9F705B
:102D60009230E9F49F8591FF1AC08F7E8E87498D3E
:102D70009A8D592F517096958B8D682F6795662780
:102D80006795262F292B81FB332730F9EBA1FCA176
:102D9000CA01821B930B09958E8580618E878E8573
:102DA000807F8E871D868F8581FF68C0CE01479604
:102DB0000E9449168F858D7F8F8760C00E85802F7A
:102DC0008F70813009F45AC0843009F457C06D30D7
:102DD00009F454C0811109C08D85811103C01B32D3
:102DE00061F534C0863048F531C0E12EF12CC701C1
:102DF0000E94962D892BB1F08D8591E0980F9D87CB
:102E0000FE01E80FF11D108B60E0CE010E94F71368
:102E1000BC01CE01DF91CF911F910F91FF90EF90F8
:102E20000C94C71A1C3251F1C7010E941426892B39
:102E300029F5007F01600E8721C0CE01DF91CF917F
:102E40001F910F91FF90EF900C94651691E0980FF1
:102E50009D87FE01E80FF11D108BFE01E90FF11DAA
:102E6000108A6EEA75E0CE0140960E942A26892BD0
:102E700029F48E85807F82608E871D86DF91CF91B9
:102E80001F910F91FF90EF9008951F93CF93DF93C1
:102E9000FC01162F86858F738064868787858E7FD9
:102EA0008787EF016D96CE010E944916612FCE01F2
:102EB000DF91CF911F910C94E615EF92FF920F9343
:102EC0001F93CF938C01C62F70E084E075956795B2
:102ED0008A95E1F7F80181A592A50E940E197C015F
:102EE0006C2F6F70F80181A592A50E940E198E0DAE
:102EF0009F1DCF911F910F91FF90EF900895EF923A
:102F0000FF920F931F93CF93DF93EC01162F6A303C
:102F100009F0AFC061E00E94F713BC01CE010E942E
:102F20006D1A8E85982F9F70923008F493C02F856C
:102F300021FD0FC0982F9295969596959370822FAC
:102F40008170880F880F892B8A5F8770823008F024
:102F500081C0CE010E9446139E85892F8F708230DA
:102F600009F448C0833009F075C0CE0147960E942D
:102F700049168E85982F92959695969593708F8584
:102F80008170880F880F892B11F11C8589A59AA55E
:102F9000DC01ED91FC910680F781E02D09956EEA48
:102FA00075E089A59AA50E946A14612FCE010E943E
:102FB0005D1789A59AA50E94061989A59AA5DC0125
:102FC000ED91FC910680F781E02D099543C06C8559
:102FD000CE010E944517EDA1FEA1309739F08E85F4
:102FE0008F7E8E8709958E8580618E87CE010E94A7
:102FF0001A1930C08F8581FF1DC0298D8A8D382F09
:10300000317086956B8D762F779577277795472F3B
:10301000482B61FB552750F9241B350BEBA1FCA174
:103020003097C1F09F7E9E87C90109958E8580618A
:103030008E8710C0282F2170220F220F392F329532
:10304000369536953370232B233021F49F739E875A
:1030500081608F878E85807F8E871D868F8581FF1B
:1030600076C0CE0147960E9449168F858D7F8F8747
:103070006EC00E85802F8F70813009F468C0843057
:1030800009F465C06D3009F462C0811109C08D85F5
:10309000811103C01B3269F535C0863050F532C04E
:1030A000E12EF12CC7010E94962D892BB1F08D8560
:1030B00091E0980F9D87FE01E80FF11D108B60E0F5
:1030C000CE010E94F713BC01CE01DF91CF911F9179
:1030D0000F91FF90EF900C946D1A1C32C1F1C70153
:1030E0000E941426892B99F5007F01600E871D86AA
:1030F0002EC0CE01DF91CF911F910F91FF90EF90E5
:103100000C94651691E0980F9D87FE01E80FF11D64
:10311000108BFE01E90FF11D108A8E01005F1F4F19
:103120006EEA75E0C8010E942A26892B21F48E855B
:10313000807F82600AC065ED74E0C8010E942A2683
:10314000892B29F48E85807F83608E87D0CFDF9195
:10315000CF911F910F91FF90EF900895682F8CE011
:1031600092E00C94D112009769F0FC0101900020CC
:10317000E9F73197AF01481B590BBC018CE092E095
:103180000C943E1280E090E008958F929F92AF924F
:10319000BF920F931F93CF93DF93CDB7DEB7A19765
:1031A0000FB6F894DEBF0FBECDBF19A2423008F4AF
:1031B0004AE08E010F5D1F4F842E912CA12CB12C63
:1031C000A50194010E949628E62FB901CA01015079
:1031D0001109EA3014F4E05D01C0E95CD801EC9318
:1031E000232B242B252B61F7C8010E94B318A1962D
:1031F0000FB6F894DEBF0FBECDBFDF91CF911F9108
:103200000F91BF90AF909F908F900895DC01ED914A
:10321000FC910190F081E02D6AE00994DC01ED91D0
:10322000FC910190F081E02D6A3010F4605D01C0E6
:10323000695A0994EF92FF920F931F93CF93DF93F4
:10324000EC01ED8CFE8C28A1922F969589A1382F48
:10325000379533273795032F092B81FB112710F959
:103260000E0D1F1D8F8D922F9170E80EF91E89A5EE
:103270009AA5DC01ED91FC910680F781E02D09957E
:103280006EEA75E089A59AA50E946A14E016F10617
:1032900039F0F80161918F01CE010E945D17F6CFE0
:1032A00089A59AA50E94061989A59AA5DC01ED9128
:1032B000FC910680F781E02D0995CE014D960E9484
:1032C00049168E858F738E878F858E7F8F8780E0DE
:1032D000DF91CF911F910F91FF90EF900895CF93C1
:1032E0004091C902342F36952091CA02522F57952A
:1032F00055275795852F832B21FB992790F92091EE
:10330000C802342F31708217930754F42091C602FB
:103310003091C702F901E80FF91F808190E002C0E7
:103320008FEF9FEF2091B702322F32953695369569
:1033300033702091B8022170220F220F232B2130ED
:1033400069F487FD0DC02091B50230E028173907D8
:1033500049F089EA92E0CF910C941A19C8E003C0B1
:10336000C6E001C0C7E086EC92E00E944916809159
:10337000B7028F738093B7028091B8028E7F8093DB
:10338000B8028C2FCF910895682F89EA92E00C94AF
:103390003516CF92DF92FF920F931F93CF93DF9357
:1033A000EC0104EE11E06C0188E2C80ED11CF801BA
:1033B000F1908F01CE010E947028F81621F06F2D38
:1033C000CE010E9478282196CC15DD0581F784EE88
:1033D00091E0DF91CF911F910F91FF90DF90CF90FF
:1033E0000895EAEEF1E08FEF9FEF22E0EA30F20776
:1033F000C9F021918227282F22952827022E269571
:1034000026952025022E269520252770082E892F07
:10341000269507942795902D822706942795902529
:103420008227E3CF0895FC01868584FF02C07D9644
:1034300001C077965381252F26954481342F3795E7
:1034400033273795832F822B41FB992790F92281CF
:10345000352F317082179307CCF4A081B1819C0184
:103460002F5F3F4F3170622F660F5170562B538381
:10347000221F2227221F4E7F422B30FB41F944831B
:10348000FD01E80FF91F808190E008958FEF9FEF15
:10349000089586E480937C0080917A008064809314
:1034A0007A0080917A0086FDFCCF8091780020918F
:1034B000790090E0922B0895CF93DF93BC018CE0CC
:1034C00092E00E946A14EC0184E591E00E94B31836
:1034D0008C0F9D1FDF91CF910895CF93DF936F3FA6
:1034E0002FEF720709F450C0EC019E85392F3295F9
:1034F0003695369533708F85282F2170220F220F35
:10350000232B233079F48F8D28A1922F91708F3F38
:10351000910528F08E85807F81608E8734C0CE0132
:103520004D9613C081FF14C09F702A8D933029F4EB
:10353000898D922F9170029768F7898D922F9170E3
:103540008F3F910538F7CE0147960E94E6151BC0C4
:103550004C8550E06417750711F4826013C04F8DDD
:1035600038A1532F517041305105A1F6223091F608
:10357000ED8DFE8D208130E06217730759F6906C57
:103580009E878E7F8F871D86DF91CF910895CF9381
:10359000DF936F3F2FEF7207E9F0EC018F8581FF1A
:1035A00011C0898D2A8D922F91708F3F910528F03F
:1035B0008E85807F81608E870CC0CE0147960E94E9
:1035C000E61507C02C8530E06217730789F7826023
:1035D0008F871D86DF91CF910895CF93DF9390E081
:1035E000FC01E656FA4F2491FC01EA57FA4F849108
:1035F000882361F190E0880F991FFC01E458FA4F8D
:10360000C591D491FC01EE58FA4FA591B491611186
:1036100009C09FB7F8948881209582238883EC9114
:103620002E230BC0623061F49FB7F8948881322F4B
:10363000309583238883EC912E2B2C939FBF06C05B
:103640008FB7F894E8812E2B28838FBFDF91CF911D
:1036500008953FB7F8948091D9029091DA02A09131
:10366000DB02B091DC0226B5A89B05C02F3F19F004
:103670000196A11DB11D3FBFBA2FA92F982F8827F2
:10368000820F911DA11DB11DBC01CD0143E0660F4C
:10369000771F881F991F4A95D1F70895CF92DF921F
:1036A000EF92FF920E94291B6B017C010E94291B53
:1036B000DC01CB018C199D09AE09BF09883E9340FE
:1036C000A105B10598F3FF90EF90DF90CF9008959A
:1036D0002FB7F8946091D5027091D6028091D702ED
:1036E0009091D8022FBF08951F920F920FB60F929C
:1036F00011242F933F938F939F93AF93BF93809108
:10370000D5029091D602A091D702B091D802309103
:10371000D40226E0230F2D3720F40296A11DB11DFF
:1037200005C029E8230F0396A11DB11D2093D402E3
:103730008093D5029093D602A093D702B093D8027B
:103740008091D9029091DA02A091DB02B091DC0263
:103750000196A11DB11D8093D9029093DA02A09326
:10376000DB02B093DC02BF91AF919F918F913F91AB
:103770002F910F900FBE0F901F90189584E291E04B
:103780009093AA028093A90286EC92E00E94D11540
:1037900080EC92E00C94D115CF93DF93CDB7DEB7D8
:1037A00066970FB6F894DEBF0FBECDBF789484B590
:1037B000826084BD84B5816084BD85B5826085BD2D
:1037C00085B5816085BD80916E00816080936E00BB
:1037D00010928100809181008260809381008091AD
:1037E000810081608093810080918000816080935E
:1037F00080008091B10084608093B1008091B0001E
:1038000081608093B00080917A00846080937A0018
:1038100080917A00826080937A0080917A008E7F16
:1038200080937A0080917A00806880937A00109269
:10383000C100CE0140960E94830A43E050E068E355
:1038400075E00E941D2621E0892B09F020E02093DD
:103850006901E0911C02F0911D0282E08083E091F9
:103860001802F09119021082E0911A02F0911B02E5
:1038700080E1808310922402E0912002F0912102E5
:1038800086E08083E0911E02F0911F0280818061BA
:103890008083E0911E02F0911F0280818860808306
:1038A000E0911E02F0911F02808180688083E09188
:1038B0001E02F0911F0280818F7D80830E949407F9
:1038C00083E395E00E945C1A8CE092E00E941E1354
:1038D000E1E9F1E086E4DF011D928A95E9F78FEFD7
:1038E0009FEF90939201809391018091B5028E3F5A
:1038F000B1F08EEF8093B5021092B60280E1809312
:10390000B7028091B8028E7F8D7F8093B80280ECE1
:1039100092E00E94D11586EC92E00E94D11587E1D9
:103920008093B5028AE39FE09093CD028093CC020E
:103930008DED93E09093CF028093CE0210926501BB
:103940001092640100E010E0412C512C3201FE0184
:1039500031966F015E01F5E0AF0EB11C083E23E029
:10396000120711F1760148018C189D08C4018E0DD3
:103970009F1D0E947028D7018D937D01AA16BB065A
:10398000A9F789819A81AB81BC8184159505A6052B
:10399000B70518F4085D1F4FE1CF10936501009340
:1039A00064012C013D01F6CFB0906401A090650147
:1039B00064EE71E08B2D9A2D0E946E071092020228
:1039C000109201020E94F1198C011F938F93809134
:1039D000E9018F938091E8018F93A3019201215017
:1039E000310941095109A9E1B0E00E94B8286B01F1
:1039F0007C018B2D9A2D68E270E00E94D228D701BD
:103A0000C601860F971FA11DB11DBF93AF939F9352
:103A10008F93AF92BF927F926F925F924F9282EF9D
:103A200094E09F938F930E949D0A0FB6F894DEBF97
:103A30000FBECDBF8091E8019091E90180179107F9
:103A400041F08CED94E00E945C1A0E946D090E9486
:103A50003E0980E2EAEEF1E0A3EBB1E001900D92C5
:103A60008A95E1F786E498E09093CB018093CA01B0
:103A70006091BA017091BB018091BC019091BD0130
:103A80000E94A50C30EAE32E35E0F32EF701849175
:103A9000809368010CE815E0F8018491E82FF0E0CC
:103AA000EE0FFF1FEE58FA4F8591949190936701A6
:103AB00080936601EAE6F1E08FE1DF011D928A95CD
:103AC000E9F78FEF9FEF909388018093870160E083
:103AD00070E080E89FE30E94A50C60E083E00E9414
:103AE000ED1A83E596E090930301809302018091A3
:103AF00069008C6080936900E99AE5E2F5E08491C1
:103B0000F701E490F8010491002309F43AC081110F
:103B100010C0E02FF0E0EE0FFF1FEE58FA4FA59116
:103B2000B4919FB7F8948C91E094E822EC929FBFF7
:103B300028C0833001F138F48130C9F0823049F770
:103B400084B58F7D16C0873061F0883031F08430C5
:103B500001F7809180008F7D11C08091B0008F7D32
:103B600003C08091B0008F778093B000D2CF84B52E
:103B70008F7784BDCECF809180008F778093800037
:103B8000C8CF61E086E00E94ED1A80916F008260EC
:103B900080936F00109280001092810080917000DD
:103BA0008260809370001092B0001092B10060E0CB
:103BB00084E10E94ED1A8091B30180FF11C0009151
:103BC000B5011091B6012091B7013091B801409133
:103BD0000A0250910B026FEF7FEF80E00E94C10953
:103BE0000E94681BDC01CB018A5D9D4FAF4FBF4F28
:103BF0008093E0019093E101A093E201B093E3018F
:103C00008091D70180618093D70181E4282E85E0DF
:103C1000382ECC24CA94DC2C8091D70184FF10C0AC
:103C20000E94681B0091E0011091E1012091E201E6
:103C30003091E301601771078207930708F042C1D2
:103C40008091D70180FF09C08E7F8093D7010E94A9
:103C500020089093B2018093B1018091D70181FF38
:103C60000DC08D7F8093D7010E946B086093AD01DA
:103C70007093AE018093AF019093B0018091D70112
:103C800082FF0DC08B7F8093D7010E949A076093BB
:103C9000AD017093AE018093AF019093B00180911C
:103CA000D70186FF1AC08F7B8093D70168E189EA2C
:103CB00092E00E94451784EF90E00E94C4198FEFB4
:103CC00090E00E94C41943E050E063ED71E089EA9E
:103CD00092E00E94BD150E946F198091D70185FF67
:103CE00010C00E94681B00918D0110918E012091DF
:103CF0008F0130919001601771078207930708F0D8
:103D0000EFC00E94681B0091DC011091DD01209141
:103D1000DE013091DF016017710782079307B8F168
:103D2000F89480918701909188018F3FFFEF9F0762
:103D300011F478941CC0D0928801C09287017894C5
:103D400019829B838A8368E189EA92E00E94451781
:103D500082EF90E00E94C41943E050E0BE016F5F23
:103D60007F4F89EA92E00E94BD150E946F190E9460
:103D7000681BDC01CB018C599F4FAF4FBF4F809325
:103D8000DC019093DD01A093DE01B093DF0180910F
:103D9000D70183FF10C00E94681B0091040110919D
:103DA0000501209106013091070160177107820714
:103DB000930708F0F4C00E94681B009189011091DC
:103DC0008A0120918B0130918C0160177107820765
:103DD000930708F474C00E949A074B015C010E948B
:103DE000EA292B013C010E946B086B8B7C8B8D8B2D
:103DF0009E8B0E94EA297B01641575050CF4720103
:103E00000E94681B2B013C012091B90130E0A8EE13
:103E1000B3E00E94C328460E571E681E791E4092CA
:103E2000890150928A0160928B0170928C0180917D
:103E3000B401882381F190E08E159F0564F500E0C0
:103E400010E020E231E440E050E06FEF7FEF80E0EF
:103E50000E94C1098091B30184608093B3010E94E4
:103E6000F0088091B30181FF2AC068E189EA92E0FD
:103E70000E94451781EF90E00E94C4196E2D89EAD7
:103E800092E00E9435166091B40189EA92E00E94A6
:103E900035160E946F198091B30181FF10C00E94F6
:103EA000681B0091D8011091D9012091DA0130915D
:103EB000DB01601771078207930708F074C00E9446
:103EC0004013AACE8091D7018F7E8093D7010E94A4
:103ED0001F0D1092D3011092D4011092D501B0CED3
:103EE0000E94681BDC01CB0188579C4EAF4FBF4F2F
:103EF00080938D0190938E01A0938F01B0939001D8
:103F00006CE675E08CE092E00E946A140E949A07C9
:103F10009F938F937F936F9382E695E09F938F9308
:103F20000E949D0A0E946B089F938F937F936F93CB
:103F3000E3E5F5E0FF93EF930E949D0A0E942008BD
:103F40009F938F938BE495E09F938F930E949D0A9C
:103F50000E94D80C9F938F937F936F933F922F92E1
:103F60000E949D0A6CE375E08CE092E00E946A1466
:103F700060919D0170919E0180E090E04AE00E9476
:103F8000C51884E591E00E94B3188CE092E00E948D
:103F90001E130FB6F894DEBF0FBECDBFB2CE80E0C9
:103FA0000E94FE0A08CF0E94681B2B013C01209151
:103FB000C90130E0A8EEB3E00E94C328460E571EA8
:103FC000681E791E4092D8015092D9016092DA01A0
:103FD0007092DB01E9820E9420089B838A830E9401
:103FE000D80C6C837D838E839F838B899C89AD895C
:103FF000BE8988879987AA87BB878C869D86AE866F
:10400000BF8668E189EA92E00E94451780EF90E060
:104010000E94C4194FE050E0BE016F5F7F4F89EAF4
:1040200092E00E94BD150E946F1949CFCF93DF9394
:10403000ECE0F2E01382128248EE53E060E070E0C0
:10404000448355836683778382E191E09183808303
:1040500085EC90E09587848784EC90E0978786874D
:1040600080EC90E0918B808B81EC90E0938B828B45
:1040700082EC90E0958B848B86EC90E0978B868B1E
:10408000118E128E138E148EA9EAB2E013961C9232
:104090001E92129714964D935D936D937C93179790
:1040A0008EEF1C968C931C971D961C921D97C7EB48
:1040B000D2E080E1888389818E7F8D7F898387E04C
:1040C00029EB32E0E90119928A95E9F758961C929A
:1040D0001E925797C2ECD2E0188219821A821B8274
:1040E0005E961C921E925D97C8ECD2E018821982EF
:1040F0001A821B8294961C921E92939796961C92FB
:104100001E92959787E593E098969C938E93979748
:104110009A96FC93EE93999788E391E08D939C9304
:10412000DF91CF910895A0E1B0E0E9E9F0E20C94CD
:1041300010247C011B016A01FC0117821682838115
:1041400081FF44C39E012F5F3F4F3901F7019381E7
:10415000F10193FD859193FF81911F01882309F45B
:1041600031C3853239F493FD859193FF81911F010D
:10417000853239F4B70190E00E945326560165015B
:10418000E5CF10E0512C912CFFE1F915D8F08B32DE
:1041900079F038F4803279F08332A1F4F92DF061AE
:1041A0002EC08D3261F0803369F4292D21602DC03D
:1041B000392D3260932E892D8460982E2AC0E92DE6
:1041C000E86015C097FC2DC020ED280F2A3088F438
:1041D00096FE06C03AE0139F200D1124122F19C03D
:1041E0008AE0589E200D1124522EE92DE0629E2E69
:1041F00010C08E3231F496FCE5C2F92DF0649F2E8A
:1042000008C08C3621F4292D2068922E02C08836F1
:1042100041F4F10193FD859193FF81911F0181117B
:10422000B3CF9BEB980F933020F4992D9061805E73
:1042300007C09BE9980F933008F066C1992D9F7EC7
:1042400096FF16E09F73992E853619F49064992E87
:1042500008C0863621F4392F3068932E02C0111120
:10426000115097FE07C01C3350F444244394410E70
:1042700027E00BC0183038F027E017E005C027E032
:104280009CE3492E02C0212F412C560184E0A80E48
:10429000B11CF6016081718182819381042DA3019B
:1042A0000E943C256C01F981FC87F0FF02C0F3FFFE
:1042B00006C091FC06C092FE06C000E205C00DE2F9
:1042C00003C00BE201C000E08C858C7019F0011175
:1042D0005AC29BC297FE10C04C0CFC85F4FF04C070
:1042E0008A81813309F44A94141474F528E0241562
:1042F00078F588E0482E2CC096FC2AC0812F90E0EB
:104300008C159D059CF03CEFC3163FEFD30674F06F
:10431000892D8068982E0AC0E2E0F0E0EC0FFD1FC6
:10432000E10FF11D8081803319F411501111F4CF88
:1043300097FE0EC044244394410E812F90E0C8168E
:10434000D9062CF41C1904C04424439401C010E085
:1043500097FE06C01C141D0434F4C601019605C066
:1043600085E090E002C081E090E001110196112308
:1043700031F0212F30E02F5F3F4F820F931F252D0B
:1043800030E08217930714F4581A01C0512C892D7C
:10439000897049F4552039F0B70180E290E00E941D
:1043A00053265A94F7CF002329F0B701802F90E0CD
:1043B0000E94532693FC09C0552039F0B70180E3D1
:1043C00090E00E9453265A94F7CF97FE4CC04601C6
:1043D000D7FE02C0812C912CC60188199909F301DE
:1043E000E80FF91FFE87ED87960124193109388BF4
:1043F0002F87012F10E01195019511093FEF8316CA
:10440000930629F4B7018EE290E00E945326C81467
:10441000D9044CF08F8598898815990524F4ED8589
:10442000FE85818101C080E3F1E08F1A91082D851E
:104430003E852F5F3F4F3E872D87801691062CF0DB
:10444000B70190E00E945326D9CFC814D90441F493
:104450009A81963320F4953319F43C8534FF81E337
:10446000B70190E04EC08A81813319F09C859F7E10
:104470009C87B70190E00E945326111105C094FC5F
:1044800018C085E690E017C0B7018EE290E00E9468
:1044900053261E5F82E001E0080FF301E80FF11DD3
:1044A0008081B70190E00E945326802F0113F3CF43
:1044B000E6CF85E490E0B7010E945326D7FC06C002
:1044C000C114D10441F4EC85E4FF05C0D194C1943A
:1044D000D1088DE201C08BE2B70190E00E94532623
:1044E00080E32AE0C216D1042CF08F5FFAE0CF1AE5
:1044F000D108F7CFB70190E00E945326B701C6015B
:10450000C0960E94532654C1833631F0833779F028
:10451000833509F056C020C0560132E0A30EB11C0D
:10452000F6018081898301E010E0630112C0560129
:10453000F2E0AF0EB11CF601C080D18096FE03C040
:10454000612F70E002C06FEF7FEFC6010E94482626
:104550008C01F92DFF7714C0560122E0A20EB11C88
:10456000F601C080D18096FE03C0612F70E002C0CA
:104570006FEF7FEFC6010E943D268C01F92DF06898
:104580009F2EF3FD1AC0852D90E008171907A8F497
:10459000B70180E290E00E9453265A94F4CFF601CE
:1045A00097FC859197FE81916F01B70190E00E9481
:1045B000532651105A94015011090115110579F72C
:1045C000F7C0843611F0893661F5560197FE09C0AF
:1045D00024E0A20EB11CF601608171818281938179
:1045E0000AC0F2E0AF0EB11CF60160817181072EA6
:1045F000000C880B990BF92DFF769F2E97FF09C0B1
:1046000090958095709561957F4F8F4F9F4FF06883
:104610009F2E2AE030E0A3010E94EB26C82EC61888
:104620003FC0092D853721F40F7E2AE030E01DC000
:10463000097F8F3691F018F4883559F0C3C0803760
:1046400019F0883711F0BEC0006104FF09C0046092
:1046500007C094FE08C0066006C028E030E005C030
:1046600020E130E002C020E132E0560107FF09C03E
:1046700084E0A80EB11CF601608171818281938172
:1046800008C0F2E0AF0EB11CF6016081718180E0DC
:1046900090E0A3010E94EB26C82EC6180F77902E3B
:1046A00096FE0BC0092D0E7FC11650F494FE0AC071
:1046B00092FC08C0092D0E7E05C0DC2C092D03C01C
:1046C000DC2C01C0D12E04FF0DC0FE01EC0DF11D4C
:1046D0008081803311F4097E09C002FF06C0D394A3
:1046E000D39404C0802F867809F0D39403FD11C0C1
:1046F00000FF06C01C2DD51480F4150D1D190DC02A
:10470000D51458F4B70180E290E00E945326D39468
:10471000F7CFD51410F45D1801C0512C04FF10C060
:10472000B70180E390E00E94532602FF17C001FD0D
:1047300003C088E790E002C088E590E0B7010CC0B4
:10474000802F867859F001FF02C08BE201C080E221
:1047500007FD8DE2B70190E00E945326C11638F4A0
:10476000B70180E390E00E9453261150F7CFCA941E
:10477000F301EC0DF11D8081B70190E00E945326FA
:10478000C110F5CF15C0F4E0F51560F584E0581AB6
:1047900093FE1FC0011127C02C8523FF2AC00AEEFB
:1047A00010E0392D3071932EF8018491811124C0CD
:1047B000552009F4E4CCB70180E290E00E94532632
:1047C0005A94F6CFF7018681978126C08FEF9FEF2D
:1047D00023C0B70180E290E00E9453265A94511002
:1047E000F8CFD8CF512CB701802F90E00E945326EC
:1047F000D3CF0EEE10E0D5CF91108052B70190E0EC
:104800000E9453260F5F1F4FCFCF23E0251510F4D2
:1048100083E0BDCF512CC0CF6096E2E10C942C24F4
:104820002F923F924F925F926F927F928F929F92C0
:10483000AF92BF92CF92DF92EF92FF920F931F93AE
:10484000CF93DF93CDB7DEB7CA1BDB0B0FB6F8945F
:10485000DEBF0FBECDBF09942A88398848885F849F
:104860006E847D848C849B84AA84B984C884DF8010
:10487000EE80FD800C811B81AA81B981CE0FD11DF4
:104880000FB6F894DEBF0FBECDBFED010895A0E0D6
:10489000B0E0EDE4F4E20C9411245C016B017A01C8
:1048A0006115710519F0FB0191838083E114F10416
:1048B00029F0C7010297839708F0C9C0E501219646
:1048C000F5011081812F90E00E941426892B11F0B0
:1048D0005E01F4CF1D3229F42196F501118101E02A
:1048E00007C01B3221F4E5012296F501118100E099
:1048F000E114F104B1F0F0E1EF16F10429F4B0C0D5
:1049000010E3E114F10401F12AE0E216F104B1F13F
:1049100080E1E816F10471F0E8E0EE16F104F1F43C
:1049200013C0103341F588818F7D883549F719818F
:1049300022960260F0E1EF2EF12C88248A94982CC4
:10494000A82CAFE0BA2E20C078E0E72EF12C882406
:104950008A94982CA82CEFE1BE2E16C06FEF7FEF43
:10496000CB0197010F2C000C440B550B0E9496288D
:1049700049015A0109C08AE0E82EF12C69E9862E26
:10498000982CA82C69E1B62E40E060E070E0CB01E5
:1049900027010F2C000C66087708FE0150ED352E1C
:1049A000310E29E0231570F42FEB210F2A3118F472
:1049B00039EC332E06C02FE9210F2A3130F529EAD0
:1049C000322E310E232D30E02E153F05F4F44F3FEB
:1049D000C9F086169706A806B90688F0A3019201C9
:1049E0000E948628232D30E040E050E0620F731FC4
:1049F000841F951F621773078407950710F44FEF04
:104A000001C041E021961081C8CFC114D10451F0FA
:104A1000442311F0219703C001FF04C02297F6013F
:104A2000D183C08300FF07C09095809570956195F4
:104A30007F4F8F4F9F4F4F3F79F482E290E09093EA
:104A4000DE028093DD023FEF2FEF9FEF0DC040E0CD
:104A500030E020E090E008C0462F372F282F04C018
:104A6000103309F067CF5FCF642F732F822FCDB73C
:104A7000DEB7E1E10C942D24283008F027E033273D
:104A8000DA01990F311D87FD91600096610571056E
:104A900039F432602E5F3D9330E32A95E1F70895B3
:104AA0009F3F30F080387105610509F03C5F3C5F45
:104AB0003D93913008F08068911DDF93CF931F9351
:104AC0000F93FF92EF92192F987F9695E92F969565
:104AD0009695E90FFF27E45BFE4F99273327EE24D5
:104AE000FF24A701E70105900894079428F4360FE6
:104AF000E71EF81E491F511D660F771F881F991F5B
:104B00000694A1F70590079428F4E70EF81E491FB4
:104B1000561FC11D770F881F991F661F0694A1F7A6
:104B20000590079428F4F80E491F561FC71FD11D82
:104B3000880F991F661F771F0694A1F705900794A9
:104B400020F4490F561FC71FD81F990F661F771FE4
:104B5000881F0694A9F784911095177041F0D69597
:104B6000C79557954795F794E7941A95C1F7E2EFE3
:104B7000F0E06894159015913591659195910590A7
:104B80007FE27395E118F10A430B560BC90BD0096C
:104B9000C0F7E10CF11E431F561FC91FD01D7EF444
:104BA000703311F48A95E6CFE894015030F0080F85
:104BB0000AF40027021708F4202F2395022F7A33D6
:104BC00028F079E37D932A95E9F710C07D932A9523
:104BD00089F6069497956795379517951794E11878
:104BE000F10A430B560BC90BD00998F023957E911F
:104BF00073957A3308F070E37C932013B8F77E91B5
:104C000070617D9330F0839571E37D9370E32A9515
:104C1000E1F71124EF90FF900F911F91CF91DF9159
:104C2000992787FD9095089591110C94492780321A
:104C300019F089508550C8F70895FB01DC0104C0C4
:104C40008D910590801921F441505040C8F7881B80
:104C5000990B0895FB01DC018D9181341CF08B359B
:104C60000CF4805E659161341CF06B350CF4605E71
:104C7000861B611189F3990B0895FC010590615021
:104C800070400110D8F7809590958E0F9F1F089562
:104C9000FC016150704001900110D8F7809590950B
:104CA0008E0F9F1F08950F931F93CF93DF93FB01E8
:104CB000238121FD03C08FEF9FEF2CC022FF16C080
:104CC00046815781248135814217530744F4A081DE
:104CD000B1819D012F5F3F4F318320838C932681CB
:104CE00037812F5F3F4F3783268314C08B01EC0140
:104CF000FB010084F185E02D0995892BE1F6D801AF
:104D000016968D919C911797019617969C938E936A
:104D10001697CE01DF91CF911F910F910895AEE0CC
:104D2000B0E0E5E9F6E20C941E240D891E898F8916
:104D3000988D2EE02C831A83098397FF02C080E0B0
:104D400090E801979E838D83AE01455E5F4F698D2C
:104D50007A8DCE0101960E9493204D815E8157FD90
:104D60000AC02F813885421753070CF49A01F801C5
:104D7000E20FF31F10822E96E4E00C943A24AEE08A
:104D8000B0E0E5ECF6E20C941E248C01FA018EE012
:104D90008C831A83098377FF02C060E070E8CB013F
:104DA00001979E838D83A901BF01CE0101960E94C8
:104DB00093204D815E8157FD0AC02F8138854217AF
:104DC00053070CF49A01F801E20FF31F10822E969C
:104DD000E4E00C943A24FA01AA27283051F120315A
:104DE00081F1E8946F936E7F6E5F7F4F8F4F9F4F7F
:104DF000AF4FB1E03ED0B4E03CD0670F781F891FC1
:104E00009A1FA11D680F791F8A1F911DA11D6A0F8E
:104E1000711D811D911DA11D20D009F468943F9141
:104E20002AE0269F11243019305D3193DEF6CF0140
:104E30000895462F4770405D4193B3E00FD0C9F706
:104E4000F6CF462F4F70405D4A3318F0495D31FD73
:104E50004052419302D0A9F7EACFB4E0A6959795C6
:104E6000879577956795BA95C9F70097610571059C
:104E700008959B01AC010A2E0694579547953795E6
:104E80002795BA95C9F7620F731F841F951FA01D40
:104E900008959927882708950E948E2708F481E0B5
:104EA0000895E89409C097FB3EF49095809570951D
:104EB00061957F4F8F4F9F4F9923A9F0F92F96E966
:104EC000BB279395F695879577956795B795F111DB
:104ED000F8CFFAF4BB0F11F460FF1BC06F5F7F4F78
:104EE0008F4F9F4F16C0882311F096E911C077238A
:104EF00021F09EE8872F762F05C0662371F096E893
:104F0000862F70E060E02AF09A95660F771F881F61
:104F1000DAF7880F9695879597F90895990F000805
:104F2000550FAA0BE0E8FEEF16161706E807F9077B
:104F3000C0F012161306E407F50798F0621B730B16
:104F4000840B950B39F40A2661F0232B242B252B97
:104F500021F408950A2609F4A140A6958FEF811D3A
:104F6000811D08950E94C5270C9436280E94282888
:104F700038F00E942F2820F0952311F00C941F2860
:104F80000C94252811240C946A280E94472870F359
:104F9000959FC1F3950F50E0551F629FF001729FDE
:104FA000BB27F00DB11D639FAA27F00DB11DAA1FED
:104FB000649F6627B00DA11D661F829F2227B00D3A
:104FC000A11D621F739FB00DA11D621F839FA00DC5
:104FD000611D221F749F3327A00D611D231F849F15
:104FE000600D211D822F762F6A2F11249F5750406C
:104FF0009AF0F1F088234AF0EE0FFF1FBB1F661FE7
:10500000771F881F91505040A9F79E3F510580F0AF
:105010000C941F280C946A285F3FE4F3983ED4F365
:10502000869577956795B795F795E7959F5FC1F753
:10503000FE2B880F911D9695879597F9089597F9FE
:105040009F6780E870E060E008959FEF80EC08952E
:1050500000240A9416161706180609060895002457
:105060000A9412161306140605060895092E0394D1
:10507000000C11F4882352F0BB0F40F4BF2B11F445
:1050800060FF04C06F5F7F4F8F4F9F4F089557FDA4
:105090009058440F551F59F05F3F71F04795880FA6
:1050A00097FB991F61F09F3F79F08795089512163D
:1050B00013061406551FF2CF4695F1DF08C01616E9
:1050C00017061806991FF1CF86957105610508949A
:1050D0000895E894BB2766277727CB0197F90895B1
:1050E000F999FECF92BD81BDF89A992780B50895B0
:1050F000262FF999FECF1FBA92BD81BD20BD0FB6F4
:10510000F894FA9AF99A0FBE01960895DB018F93ED
:105110009F930E94B828BF91AF91A29F800D911DCF
:10512000A39F900DB29F900D11240895A1E21A2E15
:10513000AA1BBB1BFD010DC0AA1FBB1FEE1FFF1F3B
:10514000A217B307E407F50720F0A21BB30BE40B8B
:10515000F50B661F771F881F991F1A9469F76095D2
:105160007095809590959B01AC01BD01CF0108958C
:105170000E94C328A59F900DB49F900DA49F800D01
:10518000911D11240895A29FB001B39FC001A39F58
:10519000700D811D1124911DB29F700D811D112470
:1051A000911D0895AA1BBB1B51E107C0AA1FBB1F7D
:1051B000A617B70710F0A61BB70B881F991F5A95A3
:1051C000A9F780959095BC01CD010895052E97FB18
:1051D0001EF400940E94FD2857FD07D00E949628D7
:1051E00007FC03D04EF40C94FD2850954095309563
:1051F00021953F4F4F4F5F4F089590958095709543
:1052000061957F4F8F4F9F4F0895EE0FFF1F0590C1
:10521000F491E02D09945058BB27AA270E94232916
:105220000C9436280E94282838F00E942F2820F05D
:1052300039F49F3F19F426F40C9425280EF4E095D8
:10524000E7FB0C941F28E92F0E94472858F3BA1750
:10525000620773078407950720F079F4A6F50C948C
:1052600069280EF4E0950B2EBA2FA02D0B01B90181
:1052700090010C01CA01A0011124FF27591B99F0CC
:10528000593F50F4503E68F11A16F040A22F232FD8
:10529000342F4427585FF3CF469537952795A79528
:1052A000F0405395C9F77EF41F16BA0B620B730BCF
:1052B000840BBAF09150A1F0FF0FBB1F661F771F40
:1052C000881FC2F70EC0BA0F621F731F841F48F4F5
:1052D000879577956795B795F7959E3F08F0B0CF7E
:1052E0009395880F08F09927EE0F97958795089565
:1052F0000E948C290C9436280E942F2858F00E9476
:10530000282840F029F45F3F29F00C941F28511100
:105310000C946A280C9425280E94472868F3992346
:10532000B1F3552391F3951B550BBB27AA276217A1
:105330007307840738F09F5F5F4F220F331F441FAE
:10534000AA1FA9F335D00E2E3AF0E0E832D09150E2
:105350005040E695001CCAF72BD0FE2F29D0660FCF
:10536000771F881FBB1F261737074807AB07B0E812
:1053700009F0BB0B802DBF01FF2793585F4F3AF018
:105380009E3F510578F00C941F280C946A285F3FCB
:10539000E4F3983ED4F3869577956795B795F7959E
:1053A0009F5FC9F7880F911D9695879597F9089586
:1053B000E1E0660F771F881FBB1F62177307840722
:1053C000BA0720F0621B730B840BBA0BEE1F88F731
:1053D000E09508950E94F1296894B1110C946A280F
:1053E00008950E944F2888F09F5798F0B92F992769
:1053F000B751B0F0E1F0660F771F881F991F1AF0C0
:10540000BA95C9F714C0B13091F00E946928B1E093
:1054100008950C946928672F782F8827B85F39F092
:10542000B93FCCF3869577956795B395D9F73EF458
:1054300090958095709561957F4F8F4F9F4F089500
:105440000E948E2708F48FEF089516F00C94042B19
:105450000C94252868940C941F280E944F28A8F3C8
:105460009923C1F3AEF3DF93CF931F930F93FF9272
:10547000C92FDD2788232AF02197660F771F881F01
:10548000DAF720E030E040E85FEB9FE3883920F076
:10549000803E38F021968F770E940C29E8E6F0E0F4
:1054A00004C00E940C29E5E9F0E00E94122B8B0158
:1054B000BE01EC01FB2E6F5771097595771F880BA4
:1054C000990B0E94532728E132E741E35FE30E94F2
:1054D000C527AF2D9801AE01FF900F911F91CF917D
:1054E000DF910E9423290C943628FA01EE0FFF1F4A
:1054F000309621053105A1F16115710561F48038FF
:10550000BFE39B0749F168949038810561F08038CA
:10551000BFEF9B0741F099234AF5FF3FE1053105B5
:10552000210519F1E8940894E795D901AA2329F4F3
:10553000AB2FBE2FF85FD0F310C0FF5F70F4A695BD
:10554000E0F7F73950F019F0FF3A38F49F779F935E
:105550000DD00F9007FC9058089546F00C94252824
:1055600060E070E080E89FE308954FE79F775F93E6
:105570004F933F932F930E942D2A2F913F914F914C
:105580005F910E94B2270C94D22A0E948E27880B2A
:10559000990B089529F416F00C941F280C9469288F
:1055A0000C9425280E944F28A8F39638A0F707F8F6
:1055B0000F92E8942BE33AEA48EB5FE70E94C82792
:1055C0000F920F920F924DB75EB70F920E947B2BF6
:1055D000E2ECF0E00E94122B4F915F91EF91FF916E
:1055E000E595EE1FFF1F49F0FE57E0684427EE0FD8
:1055F000441FFA95E1F74195550B0E94452B0F90FA
:1056000007FE0C94392B08959F3F31F0915020F400
:10561000879577956795B795880F911D969587958E
:1056200097F90895DF93CF931F930F93FF92EF9213
:10563000DF927B018C01689406C0DA2EEF010E9494
:10564000C527FE01E894A591259135914591559185
:10565000A6F3EF010E942329FE019701A801DA9425
:1056600069F7DF90EF90FF900F911F91CF91DF913D
:1056700008959B01AC0160E070E080E89FE30C942A
:1056800078290C941F280C94042B0E944F28D8F3DF
:105690009923C9F3940F511DA3F39150504094F0F6
:1056A00059F0882332F0660F771F881F91505040C1
:1056B000C1F79E3F51052CF7880F911D9695879550
:1056C00097F908955F3FACF0983E9CF0BB27869514
:1056D00077956795B79508F4B1609395C1F7BB0FBF
:1056E00058F711F460FFE8CF6F5F7F4F8F4F9F4FE8
:1056F000E3CF0C946A28FA01DC01AA0FBB1F9B01BF
:10570000AC01BF5728F4222733274427507820C004
:10571000B75190F4AB2F0024469537952795011C7F
:10572000A395D2F3002071F0220F331F441FB395CD
:10573000DAF30ED00C940B2961307105A0E88A07CA
:10574000B94630F49B01AC0166277727882790780B
:10575000309621F0208331834283538308950F9341
:105760001F93CF93DF938230910510F482E090E095
:10577000E091E102F091E20220E030E0A0E0B0E050
:10578000309719F1408151810281138148175907DF
:10579000C8F08417950769F4109731F012960C93AE
:1057A000129713961C9327C00093E1021093E20214
:1057B00022C02115310519F04217530718F49A0138
:1057C000BD01EF01DF01F801DBCF21153105F9F053
:1057D000281B390B2430310580F48A819B816115A7
:1057E000710521F0FB019383828304C09093E20250
:1057F0008093E102FE01329644C0FE01E20FF31FE6
:105800008193919322503109398328833AC02091A2
:10581000DF023091E002232B41F420910A01309104
:105820000B013093E0022093DF02209108013091B8
:1058300009012115310541F42DB73EB740910C0106
:1058400050910D01241B350BE091DF02F091E00235
:10585000E217F307A0F42E1B3F0B2817390778F047
:10586000AC014E5F5F4F2417350748F04E0F5F1FA6
:105870005093E0024093DF028193919302C0E0E0F5
:10588000F0E0CF01DF91CF911F910F910895CF9359
:10589000DF93009709F481C0FC01329713821282D2
:1058A000A091E102B091E202109781F42081318150
:1058B000820F931F2091DF023091E00228173907F1
:1058C00051F5F093E002E093DF0267C0ED0120E0C4
:1058D00030E0CE17DF0740F44A815B819E0141151D
:1058E0005105F1F0EA01F5CFD383C28340815181A4
:1058F000840F951FC817D90759F488819981840F9F
:10590000951F0296918380838A819B8193838283F2
:105910002115310529F4F093E202E093E1023DC044
:10592000E901FB83EA8349915991C40FD51FEC1714
:10593000FD0761F480819181840F951F0296E90132
:1059400099838883828193819B838A83E0E0F0E05E
:1059500012968D919C911397009719F0FD01DC012F
:10596000F7CF8D919C9111979D012E5F3F4F820F34
:10597000931F2091DF023091E0022817390769F464
:10598000309729F41092E2021092E10202C01382D1
:105990001282B093E002A093DF02DF91CF910895CD
:1059A000A0E0B0E0E6EDFCE20C941424EC010097DA
:1059B00021F4CB010E94AF2BB4C0FC01E60FF71F0E
:1059C0009C0122503109E217F30708F4A8C0D9015D
:1059D0000D911C91119706171707B0F005301105AE
:1059E00008F49BC0C80104978617970708F495C070
:1059F00002501109061B170B019311936D937C93B1
:105A0000CF010E94472C89C05B01A01AB10A4C014A
:105A1000800E911EA091E102B091E202612C712CE6
:105A2000E12CF12C109709F446C08D919C911197AF
:105A3000A815B905B1F56C0142E0C40ED11CCA1419
:105A4000DB0478F14C018A189B08640142E0C40E23
:105A5000D11C1296BC9012971396AC91B5E0CB1660
:105A6000D10440F0B282A38391828082D9016D93E8
:105A70007C9309C00E5F1F4F800F911FF901918326
:105A80008083EB2DFA2FE114F10431F0D701139646
:105A9000FC93EE93129741C0F093E202E093E1028F
:105AA0003CC06816790608F43C017D0112960D9001
:105AB000BC91A02DB7CF8091DF029091E0028816B3
:105AC0009906E1F466167706C8F480910801909172
:105AD0000901009741F48DB79EB740910C01509198
