:100000000C94EF020C949B200C9474200C94170316
:100010000C9417030C9417030C9417030C941703F8
:100020000C9417030C9431210C9417030C94832126
:100030000C945F210C941A210C9417030C94170351
:100040000C942A200C9417030C94E8200C94C220E2
:100050000C9417030C949C210C9417030C94170315
:100060000C9417030C94170308000000BE92244957
:10007000123EABAAAA2ABECDCCCC4C3E00000080DA
:10008000BEABAAAAAA3E00000000BF000000803F4D
:100090000000000000084178D3BB4387D1133D190D
:1000A0000E3CC3BD4282AD2B3E68EC8276BED98F3A
:1000B000E1A93E4C80EFFFBE01C4FF7F3F0000007E
:1000C00000006E616E00696E660000407A10F35A9F
:1000D00000A0724E18090010A5D4E80000E8764888
:1000E000170000E40B54020000CA9A3B000000E134
:1000F000F505000080969800000040420F000000C7
:10010000A08601000000102700000000E8030000A6
:1001100000006400000000000A0000000000010070
:10012000000000002C76D888DC674F0823DFC1DF91
:10013000AE59E1B1B796E5E3E453C63AE651997694
:1001400096E8E6C28426EB898C9B62ED407C6FFCCE
:10015000EFBC9C9F40F2BAA56FA5F490055A2AF710
:100160005C936B6CF9676DC11BFCE0E40D47FEF519
:1001700020E6B500D0ED902E030094357705008081
:10018000841E080000204E0A000000C80C333333E0
:10019000330F986E12831141EF8D2114893BE65580
:1001A00016CFFEE6DB18D1844B381BF77C1D901D63
:1001B000A4BBE424203284725E228100C9F124ECC5
:1001C000A1E53D272B52454D3D00253032782530A5
:1001D0003278002B52454D3D63756269635F696EED
:1001E000742C25752C693263743D253032782530A6
:1001F0003278002B52454D3D6368616E6E656C3DF3
:1002000025752C6D617874696D653D256C750A00E6
:100210002B52454D3D6C6576656C3D25642C7265B1
:1002200073756C743D25642C74696D653D25750A84
:10023000000A2B52454D3D0025303278005B2530B9
:1002400032785D002B52454D3D004E6F2063686152
:100250006E6E656C73206163746976650025753D0B
:1002600025752825752920002B52454D3D002B5220
:10027000454D3D7469636B733D25640A002B5245FF
:100280004D3D7469636B733D25640A002B52454DE7
:100290003D66726571002B52454D3D7A633D257573
:1002A0002C3078253034780A002B52454D3D7A6346
:1002B0003D25752C3078253034780A002B52454D79
:1002C0003D7A633D25752C3078253034780A002539
:1002D000303278002B52454D3D76253034782C69EC
:1002E0003263743D25303278253032780041546DC8
:1002F00065676133323850420073772E6F6E2D740C
:10030000696D653D25752F25750A002C6D696E2E6A
:100310006F6E2D74696D653D25752C6D696E2E6F40
:1003200066663D25752C5A433D25752C00252E33D8
:1003300066002C5643433D006D61782E74656D70E8
:100340003D25752C6D6574726963733D2575006973
:100350006E742E74656D703D25642F6F66733D2538
:10036000752F6761696E3D25752C004E54433D2500
:100370002E32662F252B2E32662C0076616C756529
:10038000733D726573746F72653D25752C663D25EE
:100390002E3366487A2C7672656631313D252E33D0
:1003A000662C0072616E67653D25642D25640A0028
:1003B00063756269633D25752C0074696D657231E2
:1003C0003D25752F252E32662C6C766C733D3831A9
:1003D00039322C70696E733D00616464723D253062
:1003E00032782C6D6F64653D25632C0070726F74DC
:1003F0006F3D554152542C00666164696E675F65BC
:1004000076656E74733D312C005643432C00696E43
:10041000742E74656D702C004E54433D4125752C2F
:10042000006F7074696F6E733D454550524F4D3D7E
:10043000256C752C0040384D687A2C6763633D3716
:100440002E332E30002C4D43553D007369673D25FA
:100450003032782D253032782D253032782C667563
:100460007365733D6C3A253032782C683A2530320A
:10047000782C653A25303278004D4F53464554204C
:1004800044696D6D657220322E322E33204E6F76A8
:1004900020323220323032322031393A34303A325E
:1004A0003720417574686F72207361736368615F90
:1004B0006C616D6D65727340676D782E6465004583
:1004C0004550524F4D522C633D256C752C703D2587
:1004D000752C6E3D256C752C6372633D2530347828
:1004E0000A00424F4F54002B52454D3D6C6F7374C0
:1004F0003D25752C73796E633D25752C636E743DB7
:1005000025752C633D256C642C743D252E31667554
:10051000730A0000000000240027002A00000000E9
:1005200000250028002B0004040404040404040231
:100530000202020202030303030303010204081080
:10054000204080010204081020010204081020004D
:100550000000080002010000030407000000000082
:1005600000000064697361626C6564005D2C6C3D21
:100570005B005D2C793D5B00783D5B002B52454D67
:100580003D636825643D002B52454D3D4545505225
:100590004F4D572C633D256C752C703D25752C6E89
:1005A0003D256C752C773D25752C663D25752C6396
:1005B00072633D253034782C6366673D25750A00EB
:1005C0002B49324325633D002B52454D3D45455057
:1005D000524F4D522C696E697400F321DF211124B2
:1005E0001FBECFEFD8E0DEBFCDBF23E0A0E7B1E074
:1005F00001C01D92AA34B207E1F711E0A0E0B1E01A
:10060000ECEAF6E602C005900D92A037B107D9F7E3
:1006100012E0CEEED2E004C02197FE010E945C2FD2
:10062000CD3ED107C9F70E94B7220C9449330C94F0
:10063000000080910703833008F046C02091FF023C
:100640003091000312161306B4F4E82FF0E0EE0F19
:10065000FF1FE750FD4F9091060320910303309157
:1006600004034091050303C04695379527959A9555
:10067000DAF731832083823019F08F5F809307038C
:1006800010920803809107038130F9F018F082304E
:10069000F1F0089586E480937C0080E490E09093EC
:1006A0000203809301031092060388EF9FEF90935B
:1006B00000038093FF021092030310920403109230
:1006C00005038FEE80937A0008958EE4E4CF88ECE2
:1006D00080937C0080E490E0909302038093010378
:1006E0001092060380EE9FEFE2CFBC01615D7F4F69
:1006F0002FEF3FEF86179707D9F0FC014191CF010B
:100700002427422F42954227042E469546954025A0
:10071000042E469540254770022E232F46950794B8
:100720004795302D24270694479530252427E2CF7E
:10073000C901089520E1DC011D922A95E9F7FC0129
:100740006091090370910A0340910B0350910C03CF
:1007500080E090910D03891778F4282F30E0DB01B9
:10076000A20FB31F9C919083240F351FD9019C9138
:10077000918332968F5FEDCF089584EC92E00E94D2
:1007800075039093C3028093C2020895E1E3F2E0FF
:1007900083E5DF011D928A95E9F7EFE2F2E08FEF42
:1007A0009FEF918380838BE4858FABE4B2E08C91E3
:1007B00081608C9380E090E0A0E9B0E4868F978F11
:1007C000A0A3B1A38EE690E093A382A38CE291E074
:1007D00095A384A397A386A380E785A78CE986A722
:1007E00085E080AB80E090E0A0ECBFE784AF95AF00
:1007F000A6AFB7AF20E030E83093700220936F02CD
:1008000080AF91AFA2AFB3AF89E1EBE4F2E0A8EC27
:10081000B2E001900D928A95E1F7E3EEF2E080E11B
:10082000DF011D928A95E9F708952CE73CE740E047
:1008300052E40E94212E20E030E040E05FE30E947D
:10084000632F0E944130CB0177FF02C090E080E02F
:10085000811520E2920714F08FEF9FE108952F9207
:100860003F924F925F926F927F928F929F92AF9240
:10087000BF92CF92DF92EF92FF920F931F93CF938D
:10088000DF93EB011A01FC01A080B1808A010F5FA8
:100890001F4FF501E00FF11F608170E090E080E0F4
:1008A0000E94C02D6B017C01F1E02F1A3108F50187
:1008B000E20DF31D608170E090E080E00E94C02DA9
:1008C0004B015C01AC019B01C701B6010E94BB2D2D
:1008D0008823E9F10990D881C02DFE01E00FF11FB6
:1008E000608170E090E080E00E94C02D2B013C010F
:1008F000C20DD31D688170E090E080E00E94C02DA1
:100900009B01AC01C301B2010E94622F2B013C018B
:10091000A5019401C701B6010E94622F9B01AC01A1
:10092000C301B2010E94CF2FDF91CF911F910F9190
:10093000FF90EF90DF90CF90BF90AF909F908F90FF
:100940007F906F905F904F903F902F90089560E060
:1009500070E0CB01E9CF2F923F924F925F926F925E
:100960007F928F929F92AF92BF92CF92DF92EF923F
:10097000FF920F931F93CF93DF93CDB7DEB7E0972E
:100980000FB6F894DEBF0FBECDBF9AA389A37CA398
:100990006BA35EA34DA368017901FC010190F08176
:1009A000E02DF8ABEFA7608170E090E080E00E945E
:1009B000C02D6D877E878F87988BEBA1FCA120804F
:1009C0003180A70198010E94773087FD28C0F1018E
:1009D000608170E090E080E00E94C02D69837A839E
:1009E0008B839C8369817A818B819C81E0960FB691
:1009F000F894DEBF0FBECDBFDF91CF911F910F9155
:100A0000FF90EF90DF90CF90BF90AF909F908F902E
:100A10007F906F905F904F903F902F9008958DA1A1
:100A20009EA101979A8B898BFC018FA598A9E80F4D
:100A3000F91F608170E090E080E00E94C02D6B8B18
:100A40007C8B8D8B9E8B9B01AC01C701B8010E94F2
:100A5000773087FD05C0E989FA892E0E3F1EB7CF92
:100A60006FA478A8FFEF6F1A7F0A10E000E0C801BA
:100A70000196988F8F8BF30161913F0170E090E0B8
:100A800080E00E94C02D4B015C01AC019B01C701BD
:100A9000B6010E94773087FF44C1EF89F88DE20DDF
:100AA000F31D608170E090E080E00E94C02D6983BA
:100AB0007A838B839C83A5019401C701B6010E94B0
:100AC000BB2D882309F48ECFEFA5F8A9E00FF11F05
:100AD000608170E090E080E00E94C02D698F7A8F85
:100AE0008B8F9C8F9B01AC01C501B4010E94622FCA
:100AF0006D8F7E8F8F8F98A3298D3A8D4B8D5C8D56
:100B0000C701B6010E94622F2D8D3E8D4F8D58A1D9
:100B10000E94CF2F4B015C01AC019B010E94212E52
:100B20002B013C01AC019B01C501B4010E94212EA7
:100B30006B017C01AC019B010E94632F6D837E835E
:100B40008F83988720E030E040E450E4C301B20195
:100B50000E94212E69877A878B879C879B01AC0135
:100B60006D817E818F8198850E94622F20E030E028
:100B700040E85FE30E94632F6FA378A789A79AA735
:100B8000A3019201C301B2010E94632F9B01AC013A
:100B9000C701B6010E94622FA50194010E94632F34
:100BA0006BA77CA78DA79EA72D813E814F8158857D
:100BB00069857A858B859C850E94622F6D837E83F3
:100BC0008F839887A3019201C701B6010E94622F0B
:100BD00069877A878B879C87F101E00FF11F60811D
:100BE00070E090E080E00E94C02D2B013C010115D7
:100BF000110509F099C0F101608170E090E080E09A
:100C00000E94C02D6B017C01F101618170E090E0D8
:100C100080E00E94C02DA70196010E94622F4B0127
:100C20005C01EFA5F8A9618170E090E080E00E948E
:100C3000C02D2D853E854F8558890E94622F9B01CE
:100C4000AC01C501B4010E94CF2F4B015C01F10141
:100C5000628170E090E080E00E94C02DA7019601C3
:100C60000E94622F6B017C01EFA5F8A9628170E000
:100C700090E080E00E94C02D2D853E854F855889EB
:100C80000E94622F9B01AC01C701B6010E94CF2FC9
:100C90006B017C01A30192016FA178A589A59AA59A
:100CA0000E94212E2B013C0129813A814B815C81DC
:100CB0006D817E818F8198850E94212E9B01AC01E0
:100CC000C301B2010E94632F2B013C012BA53CA55F
:100CD0004DA55EA56D8D7E8D8F8D98A10E94212ED4
:100CE000A50194010E94212E9B01AC01C301B20118
:100CF0000E94632F4B015C0129853A854B855C85F9
:100D00006D8D7E8D8F8D98A10E94212EA701960159
:100D10000E94212E9B01AC01C501B4010E94632FEA
:100D20005DCE0F89188DA3CE8DA19EA102970817C5
:100D3000190709F04DC0E989FA89E20DF31D6081B8
:100D400070E090E080E00E94C02D6B017C010DA15D
:100D50001EA103501109F101E00FF11F608170E045
:100D600090E080E00E94C02D9B01AC01C701B6015C
:100D70000E94622F4B015C018FA598A9800F911FE3
:100D8000FC01608170E090E080E00E94C02D9B013A
:100D9000AC016B897C898D899E890E94622F9B01A1
:100DA000AC01C501B4010E94CF2F4B015C01A3012E
:100DB0009201C701B6010E94622F6B017C01298D4F
:100DC0003A8D4B8D5C8D6B897C898D899E8958CF3E
:100DD000A8016BA17CA189A19AA10E942F044B01BB
:100DE0005C014F89588D6BA17CA189A19AA10E94B9
:100DF0002F044ECFCF92DF92EF92FF920F931F936B
:100E0000CF93DF9300D000D0CDB7DEB710910D03A4
:100E1000112309F440C0BC0190E080E00E94C02D85
:100E20002CE73CE740E052E40E94CF2F6B017C01AD
:100E300020E030E04FE753E40E94BB2D87FD06C061
:100E4000C12CD12C8FE7E82E83E4F82E80910B0380
:100E500090910C039A8389838091090390910A03EE
:100E60009C838B83412F50E097018601BE016F5F09
:100E70007F4FCE0103960E94AB040F900F900F900E
:100E80000F90DF91CF911F910F91FF90EF90DF9026
:100E9000CF900C9415040F900F900F900F90DF914E
:100EA000CF911F910F91FF90EF90DF90CF90089519
:100EB0004F925F926F927F928F929F92AF92BF926A
:100EC000CF92DF92EF92FF920F931F93CF93DF9316
:100ED0006A0128013901C82F880FDD0BFE01EE0FD2
:100EE000FF1FEC54FD4F8FEF9FEF91838083CE0166
:100EF000880F991FE091C002F091C102E80FF91F1D
:100F000084859585892B29F4DE01AC57BD4F5E960B
:100F10001C922FEFC216D20609F058C08CE08C9FAD
:100F2000D0018D9FB00D1124AC57BD4F1A968D91F5
:100F30009C911B97892BC9F181E090E01B969C93B3
:100F40008E931A9716961D921D921D921C921997B8
:100F500004851585013030E2130714F000E010E23B
:100F600017FF02C010E000E09CE0D92EDC9EC0011B
:100F7000DD9E900D1124AC014C575D4F7A01B801F4
:100F8000012E000C880B990B0E94C22DF701628381
:100F90007383848395832196DC9EF001DD9EF00DA2
:100FA0001124EC57FD4F11830083DF91CF911F91E6
:100FB0000F91FF90EF90DF90CF90BF90AF909F90F8
:100FC0008F907F906F905F904F9008956F3F76075E
:100FD00011F4648575858B016130704214F000E076
:100FE00010E217FF02C010E000E0B60141E0C416B5
:100FF00040E2D40614F060E070E277FF02C070E0D7
:1010000060E0601B710B072E000C880B990B0E948F
:10101000C22D4B015C0120E030E0A9010E94BB2DF4
:10102000882319F220E030E040E059E3C501B40123
:101030000E94212EA30192010E94212E2B013C012E
:1010400020E030E0A9010E947730181624F077FAEA
:10105000709477F870942091670230916802409103
:10106000690250916A02C301B2010E94212E9B01C4
:10107000AC010E94632F0E9448308CE0782E7C9E49
:1010800090017D9E300D1124F901EC57FD4F7F0139
:10109000738762876115710509F487CF90E080E05E
:1010A0000E94C02D9B01AC01C501B4010E94CF2F4D
:1010B0004B015C01F70186829782A086B186B80158
:1010C000110F880B990B0E94C22DF7016283738365
:1010D0008483958321967C9EF0017D9EF00D1124E2
:1010E000EC57FD4FD182C08220E030E0A901C5015C
:1010F000B4010E94BB2D811158CF81E090E0F7012F
:101100009387828752CFCF92DF92EF92FF920F9315
:101110001F93CF93DF93C091A302D091A4020091BB
:10112000BE021091BF02F801E084F184C284D3842E
:10113000DE01AE19BF09AC19BD09468557854115B9
:101140005105A9F59D01DC010E94552F2DE09695D2
:101150008795779567952A95D1F79B012E0D3F1DB1
:10116000CE018C199D0982179307C0F0F801808D7C
:10117000882379F0468957894115510551F06091CE
:10118000A2026E3F30F48150990B681719060CF4D7
:101190007A01C9012E153F0508F4C701DF91CF91EF
:1011A0001F910F91FF90EF90DF90CF9008952485CD
:1011B0003585280F391F0E94322F9A0150E040E0F8
:1011C0000E94052FCBCFCF93DF93CDB7DEB7289703
:1011D0000FB6F894DEBF0FBECDBFE091C002F09114
:1011E000C1023485258580914B0284FF52C0832F34
:1011F000922F0E94FA06811520E2920708F04CC057
:10120000009709F44CC00E948308E091BE02F0915F
:10121000BF02208121FF08C02091A3023091A402C7
:10122000A901481B590BCA019C838B83198281E059
:10123000E1E00E2E000CFF0BEE0FFF1FEE0FFF1F65
:1012400021E030E02C0F3D1FE20FF31F10821182CE
:1012500012821382F8949091AA02981739F0809321
:10126000AA0280912E02806180932E0288E0FE0106
:101270003196AAE9B2E001900D928A95E1F778944F
:1012800028960FB6F894DEBF0FBECDBFDF91CF9189
:101290000895832F922FAFCF81E0E0E0CACF80E0A6
:1012A000FCCF082E000C990B9C01220F331FE091FC
:1012B000C002F091C102E20FF31F24853585232B74
:1012C00029F4DC01AC57BD4F5E961C929B01613046
:1012D000704214F020E030E237FF02C030E020E03E
:1012E000358724872CE0289FF001299FF00D1124D9
:1012F000EC57FD4F13861286FC01EE0FFF1FEC54D6
:10130000FD4F208131812F3F3F4FE1F02091C002FE
:101310003091C1020696880F991F820F931FDC013E
:101320008D919C91918380839FB7F89480912E0238
:10133000806280932E0225E33CE0309325022093C7
:1013400024029FBF0C94E3082B9A10928500109200
:10135000840010928900109288008091A3029091DD
:10136000A40290938B0080938A0086B3866086BB2C
:10137000E091BE02F091BF0280818695817091E07C
:1013800089278093AB022091AC023091AD022F5F90
:101390003F4F3093AD022093AC02243C99E03907D3
:1013A000A8F080916F00897F80936F005E98809194
:1013B000AE0281608093AE023093B3022093B202FA
:1013C00080912E02806480932E02089520919402D1
:1013D000309195022115310509F44BC090916F00B1
:1013E000997F926090936F003093890020938800DA
:1013F00090E024E09202F0011124EC56FD4F208190
:101400003181232B39F0882319F05E9A9F5FF1CF49
:101410005E98FCCFE091C002F091C1022485358531
:10142000232B09F45E9891E089278093AB0220E09A
:10143000822F022E000C990BFC01EE0FFF1FEE0F06
:10144000FF1FEC56FD4F40815181452B11F1880F54
:10145000991F880F991FFC01EC57FD4FE685F0E0BE
:10146000EC57FD4F868D8E3F10F48F5F868F2F5F78
:10147000DFCF80916F00897F846080936F00E0915F
:10148000C002F091C102848595858115904279F45E
:101490005E9A8091AE02837041F48091AC0290918B
:1014A000AD029093B3028093B2022B9808955E9898
:1014B000F0CFE5E5F5E08491E1E4F5E09491EDE22B
:1014C000F5E0E491EE23B9F0882339F08330F1F0B0
:1014D00098F4813009F1823019F1F0E0EE0FFF1F2E
:1014E000E35EFA4FA591B4918FB7F894EC91909583
:1014F0009E239C938FBF08958730A9F08830C9F050
:10150000843059F7809180008F7D03C080918000E6
:101510008F7780938000E1CF84B58F7784BDDDCF56
:1015200084B58F7DFBCF8091B0008F778093B00022
:10153000D4CF8091B0008F7DF9CF0895CF93DF9302
:1015400090E0FC01E55CFA4F2491895D9A4FFC0123
:1015500084918823D1F090E0880F991FFC01ED5E03
:10156000FA4FA591B491FC01E35EFA4FC591D49175
:1015700061110EC09FB7F8948C91E22FE0958E23F5
:101580008C932881E223E8839FBFDF91CF91089558
:101590008FB7F894EC91E22BEC938FBFF6CFCF92FC
:1015A000DF92EF92FF92CF93DF931F92CDB7DEB71A
:1015B000C0906702D0906802E0906902F0906A02E1
:1015C00020E030E0A901C701B6010E94BB2D8823AD
:1015D00041F1A7019601C701B6010E94CC308111EB
:1015E00020C0198210922E02F894E9988DE99AE0B1
:1015F000909303018093020180916F00887D809316
:101600006F00109281000E94590A60E086E00E94FB
:101610009E0A809170008E7F809370001092B100BE
:1016200078940F90DF91CF91FF90EF90DF90CF9063
:1016300008953FB7F89480917B0190917C01A0912F
:101640007D01B0917E0126B5A89B05C02F3F19F002
:101650000196A11DB11D3FBFBA2FA92F982F882732
:10166000BC01CD01620F711D811D911D43E0660F0C
:10167000771F881F991F4A95D1F708958F929F92DF
:10168000AF92BF92CF92DF92EF92FF924B015C013B
:101690000E94190B6B017C010E94190B6C197D09CA
:1016A0008E099F09683E734081059105A8F321E0EA
:1016B000821A9108A108B10888EEC80E83E0D81EEE
:1016C000E11CF11C81149104A104B10429F7FF90DD
:1016D000EF90DF90CF90BF90AF909F908F90089544
:1016E0002FB7F8946091770170917801809179011A
:1016F00090917A012FBF08958F929F92AF92BF92DF
:10170000CF92DF92EF92FF920E94700B6B017C01EF
:1017100080912E0280FD2FC08090F5029090F602FD
:10172000A090F702B090F8029FB7F89480912E0233
:10173000816080932E029FBF0E94700BC818D90849
:10174000EA08FB0829E8C21623E1D206E104F10405
:10175000DCF438E8C32E33E1D32EE12CF12CC60E95
:10176000D71EE81EF91EC092F502D092F602E09252
:10177000F702F092F802FF90EF90DF90CF90BF90C9
:10178000AF909F908F90089524EFC22EDD24D394C4
:10179000E12CF12CE4CFAF92BF92CF92DF92EF9287
:1017A000FF920F931F93CF93DF936C017B018B010B
:1017B000040F151FEB015E01AE18BF08C017D1075B
:1017C00059F06991D601ED91FC910190F081E02DE5
:1017D000C6010995892B79F7C501DF91CF911F913A
:1017E0000F91FF90EF90DF90CF90BF90AF90089552
:1017F000FC01538D448D252F30E0842F90E0821B17
:10180000930B541710F0CF96089501970895FC019B
:10181000918D828D981761F0A28DAE0FBF2FB11DF3
:101820005D968C91928D9F5F9F73928F90E008954B
:101830008FEF9FEF0895FC01918D828D981731F005
:10184000828DE80FF11D858D90E008958FEF9FEF59
:101850000895FC01918D228D892F90E0805C9F4F2F
:10186000821B91098F739927089587E891E00E9460
:10187000290C21E0892B09F420E0822F0895FC0136
:10188000A48DA80FB92FB11DA35ABF4F2C91848DE1
:1018900090E001968F739927848FA689B7892C933E
:1018A000A089B1898C91837080648C93938D848D91
:1018B000981306C00288F389E02D80818F7D808394
:1018C0000895EF92FF920F931F93CF93DF93EC0154
:1018D00081E0888F9B8D8C8D98131AC0E889F989D7
:1018E000808185FF15C09FB7F894EE89FF896083DA
:1018F000E889F98980818370806480839FBF81E05B
:1019000090E0DF91CF911F910F91FF90EF9008959C
:10191000F62E0B8D10E00F5F1F4F0F731127E02E77
:101920008C8D8E110CC00FB607FCFACFE889F989AF
:10193000808185FFF5CFCE010E943F0CF1CFEB8D6A
:10194000EC0FFD2FF11DE35AFF4FF0829FB7F89483
:101950000B8FEA89FB8980818062CFCF0F931F9321
:10196000CF93DF938C01D0E0C0E0F801EC0FFD1FB6
:101970006491662341F087E891E00E94610C892B15
:1019800011F02196F2CFCE01DF91CF911F910F91EF
:101990000895682F87E891E00C94610CCF93DF9352
:1019A000EC01888D8823B9F0AA89BB89E889F98977
:1019B0008C9185FD03C0808186FD0DC00FB607FCAC
:1019C000F7CF8C9185FFF2CF808185FFEDCFCE01DF
:1019D0000E943F0CE9CFDF91CF910895DC01ED919A
:1019E000FC910190F081E02D6A3010F4605D099463
:1019F000695AFDCFDC01ED91FC910190F081E02D61
:101A00006AE00994DC015E968D919C915F975C96EB
:101A10002D913C915D978217930740F45A96ED9172
:101A2000FC91E80FF91F808190E008958FEF9FEF00
:101A30000895FC01848D958D268D378D821B930B27
:101A40000895EF92FF920F931F93CF938C01C62FAF
:101A500070E084E0759567958A95E1F7F80184A9AF
:101A600095A90E94EE0C7C016C2F6F70F80184A97F
:101A700095A90E94EE0C8E0D9F1DCF911F910F9185
:101A8000FF90EF900895FC0124813581828193813C
:101A90002817390768F480819181A9014F5F5F4F52
:101AA00055834483FC01E20FF31F808190E0089589
:101AB0008FEF9FEF08954A960C94430D089590E0A0
:101AC00080E0089540915B022EEE3CE74203B001B6
:101AD000439F700D1124072E000C880B990B605743
:101AE0007E4F834B9B4F2091FB023091FC0250E0D4
:101AF00040E00E94052F3093720220937102C901C9
:101B000008952091FD023091FE0286E036952795DA
:101B10008A95E1F7EFE2F2E085A5820F932F911D00
:101B200085579F4F9695982F88279795879566A5F7
:101B300070E00E94412FCB01499608952F923F9269
:101B40004F925F926F927F928F929F92AF92BF92CD
:101B5000CF92DF92EF92FF920F931F93CF93DF9379
:101B600000D000D000D0CDB7DEB780918400909136
:101B700085009A83898380917201909173019C837F
:101B80008B8300917401109175018B819C81C980B8
:101B9000DA80D8011696ED91FC9117979F012F5F7F
:101BA0003F4FF7FF1DC017963C932E93169726962E
:101BB0000FB6F894DEBF0FBECDBFDF91CF911F915E
:101BC0000F91FF90EF90DF90CF90BF90AF909F90DC
:101BD0008F907F906F905F904F903F902F900895DF
:101BE00017963C932E931697BF01660F771FE60F4B
:101BF000F71FE00FF11FA0E0A82F99278827E12CFD
:101C00008C299D29AE2982879387A48724363105A4
:101C100071F6E9988DE99AE09093030180930201AF
:101C2000F8011082118212821382868197819E832D
:101C30008D830B970CF4BBCF78019AE0E90EF11C71
:101C4000F70150E040E020E0812C912C54016D80A0
:101C50007E80A1E06A1A710846155705FCF44F5FB3
:101C60005F4F21903190419080819181A2818219B2
:101C70009309A4091C014A2EB4E02B1ABCEF3B0ABD
:101C8000410832E8231639E43306410428F7B0E06E
:101C9000880E991EAA1EBB1E2F5FDECF2B3008F4C4
:101CA00086CF30E050E040E0C501B4010E94052F2E
:101CB00049015A01842FB90190E00E94C02D2FE8FC
:101CC00032EC45EF5BE30E94212E0E944830CB01AD
:101CD000A0E04A2D9401281B390B4A0B34018A2CB1
:101CE000680E791E8A1E61E070E0912C212C312C47
:101CF0002101D701AD90BD90CD907D018D919D9139
:101D0000AC918A199B09AC0982179307A40750F07C
:101D1000681679068A0630F0B0E0280E391E4A1E91
:101D20005B1E93946F5F7F4F8D819E81861797070F
:101D300001F7BAE0B91508F03ACFC201B1010E942B
:101D4000C02D6B017C01692D70E090E080E00E9465
:101D5000C02D9B01AC01C701B6010E94CF2F20E02E
:101D600030E040E652E40E94622F20E030E040E0A4
:101D70005EE30E94212E9B01AC0160E074E284EFDF
:101D800098E40E94CF2FF80160837183828393834C
:101D90000ECFFC01862F20813181A90141505109CC
:101DA000518340831216130624F488E293E00E94C4
:101DB000430D089520913902420F40933902029752
:101DC0000CF064ED60938302089584EC91E00C9430
:101DD000AE0CAF92BF92DF92EF92FF920F931F93E0
:101DE000CF93DF935C0102EC12E0D0E0C0E0F80199
:101DF000D1908F017501EC0EFD1EC7010E94DF2EF0
:101E0000D81621F06D2DC7010E94E72E2196C1330F
:101E1000D10569F782EC92E0DF91CF911F910F918C
:101E2000FF90EF90DF90BF90AF900895CF92DF9238
:101E3000EF92FF920F931F93CF93DF93EB017B0100
:101E400021E3E20EF11C8B016C01C61AD70AC60110
:101E5000800F911F0E94DF2EF80181938F01EE15F4
:101E6000FF05A9F7CE01DF91CF911F910F91FF9050
:101E7000EF90DF90CF9008956F927F928F929F9214
:101E8000AF92BF92CF92DF92EF92FF920F931F9388
:101E9000CF93DF93CDB7DEB7C054D1090FB6F89416
:101EA000DEBF0FBECDBF6C015B014A019A01AB01E1
:101EB00060E470E0CE0101963C01F60109957C01D9
:101EC0008F3391057CF102960E9406318C010097B8
:101ED00059F19401A501B701F60109957C01A7010B
:101EE000B80187E891E00E94CB0B6016710619F0EB
:101EF000C8010E94A231C701C05CDF4F0FB6F89441
:101F0000DEBF0FBECDBFDF91CF911F910F91FF902C
:101F1000EF90DF90CF90BF90AF909F908F907F9089
:101F20006F9008958301DBCFE12CF12CE4CFF8947E
:101F3000E9988DE99AE09093030180930201EFE61E
:101F4000F0E08081887D808310928100809174010F
:101F5000909175010E94A231109275011092740146
:101F600078940895CF92DF92EF92FF92CF93DF9310
:101F7000C0917401D0917501209709F05AC00E9458
:101F8000CF0A10927A001092080364E670E080E0B5
:101F900090E00E943E0B86E391E00E940631EC0146
:101FA00080E090E0A0ECBFE788839983AA83BB839D
:101FB0001D821C828BEF9FEF9F838E830E94700B8C
:101FC00079876887FE013A96CE018A5C9E4F11920E
:101FD00011921192E817F907D1F7D0937501C093C8
:101FE0007401CD2B41F480E0DF91CF91FF90EF9011
:101FF000DF90CF900895F8948EE99DE090930301CF
:1020000080930201809169008C6080936900E99A55
:1020100010928500109284001092800081E08093DD
:10202000810080916F00816080936F00B09A7894F6
:10203000DACFC880D980EA80FB80A7019601C7016A
:10204000B6010E94CC3081111BC020E030E0A90114
:10205000C701B6010E94BB2D811106C0C12CD12C35
:1020600080ECE82E8FE7F82EC0926702D0926802CB
:10207000E0926902F0926A020E94970F81E0B4CF69
:102080000E94700B28853985621B730B6B3176407B
:1020900008F4A9CF80E090E0A0ECBFE7809367024E
:1020A00090936802A0936902B0936A02E5CFCF9340
:1020B000DF93EC0188819981009731F00E94A23171
:1020C000198218821B821A821C82DF91CF91089597
:1020D000CF92DF92EF92FF921F93CF93DF93EC01A9
:1020E000FC013296888111E09081891728F432969C
:1020F0001F5F892F1830C1F789E093E00E945710C5
:102100001130F1F010930D03C12ED12C7601EE0C9D
:10211000FF1CC7010E94063121E0E21AF108FC0110
:10212000119221E0E21AF108F7FEFACF90930A0328
:10213000809309038C0D9D1D90930C0380930B03DA
:102140008091090390910A03892BD1F090E080E0FF
:1021500020910D03821780F429813881A091090311
:10216000B0910A03A80FB91F3C93A0910B03B09143
:102170000C03A80FB91F2C9322960196811740F3E8
:10218000DF91CF911F91FF90EF90DF90CF90089556
:10219000CF93DF93CDB7DEB7AE01475F5F4F6F815F
:1021A00078858EE29DE20E943C0FDF91CF910895E9
:1021B000CF93DF93CDB7DEB7AE01475F5F4F6F813F
:1021C00078858DE193E30E943C0FDF91CF910895D4
:1021D000CF93DF93EC0188819981009721F00E94D1
:1021E000A231198218821F821E821B821A821D82CE
:1021F0001C82DF91CF910895FB0101900020E9F747
:102200003197AF01461B570BDC01ED91FC91028029
:10221000F381E02D099465E371E087E891E00C9487
:10222000FC10CF93DF930E94AE0CEC010E940B11C7
:102230008C0F9D1FDF91CF9108957F928F929F9277
:10224000AF92BF92CF92DF92EF92FF920F931F93C4
:10225000CF93DF9300D000D000D0CDB7DEB78FEFA3
:102260009FEF9A8389831B821C821D821E8281E3D9
:10227000E82EF12C670181E3C80ED11C95E0C91648
:1022800094E0D906D9F0DE0111965D0110E000E07E
:10229000F50171905F014701800E911EC4010E94FB
:1022A000DF2E781621F0672DC4010E94E72E0F5F04
:1022B0001F4F0630110561F77601DCCF1092F40252
:1022C0001092F302E2ECF2E081E3DF011D928A95C5
:1022D000E9F781E090E0A0E0B0E08093C402909341
:1022E000C502A093C602B093C7020E94C6030E9413
:1022F000BD0390E080E00E94E90E9FB7F8948091C2
:102300002E028E7F80932E0280912E028D7F8093ED
:102310002E029FBF88EC95E026960FB6F894DEBF9C
:102320000FBECDBFDF91CF911F910F91FF90EF9026
:10233000DF90CF90BF90AF909F908F907F900C9444
:1023400011118F929F92AF92BF920F931F93CF93D1
:10235000DF93CDB7DEB7A1970FB6F894DEBF0FBEFF
:10236000CDBF19A2423008F44AE08E010F5D1F4F25
:10237000842E912CB12CA12CA50194010E94052F33
:10238000E62FB901CA01EA3004F5E05DD801EE9309
:102390008D01232B242B252B79F790E080E01097DB
:1023A00029F0BD0187E891E00E94FC10A1960FB6CC
:1023B000F894DEBF0FBECDBFDF91CF911F910F917B
:1023C000BF90AF909F908F900895E95CDFCFCF9240
:1023D000DF92EF92FF92CF93DF936C01990FEE089B
:1023E000FF08F7FE17C08DE20E94C90CEC016627BA
:1023F0007727CB016C197D098E099F094AE00E945D
:10240000A1118C0F9D1FDF91CF91FF90EF90DF9076
:10241000CF9008954AE0C701B601DF91CF91FF90B8
:10242000EF90DF90CF900C94A1114F925F926F923A
:102430007F92AF92BF92CF92DF92EF92FF920F9373
:102440001F93CF93DF9300D000D0CDB7DEB7D82E47
:102450001F921F928CE795E09F938F9387E891E0FE
:102460009F938F930E94C810A0900D030F900F9020
:102470000F900F900F900F90AA2009F4AFC088E73B
:1024800095E00E94AE0CF12CE12CEA14B0F4EE20A1
:1024900019F08CE20E94C90CE0910903F0910A0343
:1024A000EE0DFF1D608170E090E080E04AE00E9448
:1024B000A1118FEFE81AF80AE8CF82E795E00E94B1
:1024C000AE0CF12CE12CEA1498F4EE2019F08CE219
:1024D0000E94C90CE0910B03F0910C03EE0DFF1D5F
:1024E000808190E00E94E7118FEFE81AF80AEBCFA5
:1024F0008CE695E00E94AE0C6D2D70E090E080E0DF
:102500000E94C22D20E030E040E85FE30E94632F8C
:102510009B01AC0160E078EF8FEF95E40E94CF2F34
:102520009B01AC0160E070E08FE793E40E94CF2F45
:102530002B013C01C12CD12C7601B12C80910B03D5
:1025400090910C039A8389838091090390910A03E7
:102550009C838B8397018601A501BE016F5F7F4F2E
:10256000CE0103960E94AB040E9415040E94E7115D
:10257000A3019201C701B6010E94632F6B017C0188
:1025800026E636E64FE753E40E94BB2D87FD18C0D0
:102590008DE50E94C90C0E940B110F900F900F90B7
:1025A0000F90DF91CF911F910F91FF90EF90DF90EF
:1025B000CF90BF90AF907F906F905F904F900895B5
:1025C00020E030E0A901C701B6010E94BB2D88239D
:1025D00009F4B4CF8CE20E94C90CB0CF83E695E039
:1025E0000E941111DACF0F931F93CF93DF93EC0169
:1025F000088519850617170708F48B01095F1F4F17
:10260000087F8E819F818017910721F188819981B0
:102610000115110549F1009719F1B8010E942B32FB
:102620009983888388819981892B11F410E000E0D7
:102630001F830E838A819B810817190710F41B835F
:102640000A838A819B812C813D818217930710F434
:102650009D838C8381E0DF91CF911F910F9108952D
:10266000C8010E940631DCCF009701F30E94A2311D
:1026700019821882DDCF1F93CF93DF93EC018A81FB
:102680009B819C012F5F3F4F4E815F81841795078F
:1026900050F4E881F9813B832A83E80FF91F6083B6
:1026A00081E090E00CC0162FB901CE010E94F31218
:1026B000811109C0CE010E94E81090E080E0DF9116
:1026C000CF911F910895E881F9818A819B819C01B6
:1026D0002F5F3F4F3B832A83E80FF91F1083E0CF22
:1026E000CF93DF93EC018A89882381F08C8D9D8DB7
:1026F0008F3F910530F081E08E871D86DF91CF916D
:102700000895CE014A960E943B13F7CF8C85861719
:10271000170689F781E08A8BF0CFFC0197859D7FB2
:10272000913021F4CF0184960C943B1390E080E02B
:102730000895FC01158214821382128260857185CE
:10274000695F7F4F687F0C94F3128F929F92AF92D4
:10275000BF92DF92EF92FF920F931F93CF93DF937D
:10276000EC01D62EECA0FDA008A519A5AEA0BFA037
:102770008CA99DA9DC01ED91FC910680F781E02DEB
:102780000995B2E5DB1631F0E4E5DE1619F0F1E467
:10279000DF121DC08CA89DA8DF9280EC95E09F936E
:1027A0008F931F9288E08F938FE791E09F938F9391
:1027B0000E94FE2C6FE771E0C4010E94FC108DB7EF
:1027C0009EB707960FB6F8949EBF0FBE8DBF0E0D35
:1027D0001F1DEA0CFB1C0E151F0539F0D8016D9169
:1027E0008D01CE010E94210DF6CF8CA99DA90E94DA
:1027F000FA0C8CA99DA9DC01ED91FC910680F78172
:10280000E02D0995CE0184960E9499131F8680E0E1
:10281000DF91CF911F910F91FF90EF90DF90BF90CC
:10282000AF909F908F900895CF93809136039091B1
:102830003703209134033091350382179307D0F486
:10284000E0913203F0913303E80FF91F808190E0AB
:1028500020911D03213089F487FD19C020911A03AE
:10286000C7E02817190651F064E58EE093E0CF9198
:102870000C94A5138FEF9FEFEBCFC8E082E393E0BA
:102880000E94991310921D038C2FCF910895C6E0DA
:10289000F5CF1F93CF93DF93162F21E0FC012787FD
:1028A000EC01A496CE010E949913612FCE01DF9115
:1028B000CF911F910C943B130F931F93CF93DF93F2
:1028C0008C01CB01F80124813581C281D381C21BE7
:1028D000D30B4C175D0708F4EA01F80160817181A0
:1028E000620F731F0E940133F801848195818C0F60
:1028F0009D1F95838483CE01DF91CF911F910F910E
:102900000895EF92FF920F931F93CF93DF93EC0103
:102910008B017A018F858D7F813051F0F12CE12C74
:10292000C701DF91CF911F910F91FF90EF90089514
:102930006EA17FA1640F751F8AA59BA568177907F3
:1029400088F42CA13DA18EA19FA1A701B801820FFF
:10295000931F0E9401338EA19FA18E0D9F1D9FA3E7
:102960008EA3DECF6F5F7F4FCE0184960E94F3125D
:102970008111E7CFD3CFFF920F931F93CF93DF93B4
:10298000CDB7DEB7E9970FB6F894DEBF0FBECDBF67
:10299000F82E8E010E5C1F4F88E0F80111928A9587
:1029A000E9F780912E0281FF10C089AD816089AF67
:1029B00089E1EBE4F2E0A8ECB2E001900D928A9597
:1029C000E1F783EE92E00E949A0380913B0290919E
:1029D0003C029093E2028093E1020E94BD03BE019B
:1029E0006F5F7F4F8091F3029091F4020E94160F67
:1029F000F1100BC041E350E0BE016F5F7F4F82ECEE
:102A000092E00E94F432892BC9F08091F3029091F8
:102A1000F4029C012E593F4F2115344008F0A3C009
:102A2000C1969093F4028093F3028091F302909107
:102A3000F4020E94E90E81E388AF01C018AE0E9443
:102A4000700B6093F5027093F6028093F7029093F7
:102A5000F8029FB7F89480912E028E7F80932E0209
:102A600080912E028D7F80932E029FBF8091C402A1
:102A70009091C502A091C602B091C7028AAB9BABF0
:102A8000ACABBDAB8091F3029091F4029FAB8EABE7
:102A900068E18EE093E00E94491463EF8EE093E0DA
:102AA0000E948D1348E050E0B8018EE093E00E9450
:102AB00081140E941414E091F302F091F40289ADA4
:102AC00081701F928F938091C3028F938091C20275
:102AD0008F9389AD1F928F9388AD1F928F93209112
:102AE000C4023091C5024091C6025091C702A4E1D0
:102AF000B0E00E94272F8B019C010451110921098C
:102B00003109CF0161E370E00E94412F060F171FCA
:102B1000211D311D3F932F931F930F93FF93EF932D
:102B20008DA98F938CA98F938BA98F938AA98F934B
:102B300087E895E09F938F9387E891E09F938F9329
:102B40000E94C8100FB6F894DEBF0FBECDBFE99645
:102B50000FB6F894DEBF0FBECDBFDF91CF911F91AE
:102B60000F91FF9008951092F4021092F302809159
:102B7000C4029091C502A091C602B091C70201960D
:102B8000A11DB11D8093C4029093C502A093C602FB
:102B9000B093C7020E94BD0348CF60918302605882
:102BA000770B615D7D4F8091390287FD12C044E84B
:102BB00052E0461B570B453560F484170CF4482F40
:102BC00010923902042E000C550B8EE093E00C9409
:102BD000811440E0F5CF462F50E0BC018EE093E039
:102BE0000E9481140C9414148F929F92AF92BF9202
:102BF000CF92DF92EF92CF93DF938091B200109249
:102C0000B20087B3B89A80FF09C08091700190919B
:102C10007101019690937101809370018091700110
:102C200090917101109271011092700120915102E6
:102C3000309152022115310509F4EEC090916F00D8
:102C4000946090936F00C0908A00D0908B00809128
:102C5000840090918500C81AD90AE12C80918400E3
:102C600090918500820F931F90938B0080938A0030
:102C7000B29A8091510290915202C81AD90AE10881
:102C80008091AE0281FD39C080FD06C08091B20204
:102C90009091B302029788F12091AE0222606E2DCE
:102CA000A601062E000C770BDB01CA01342F3295EA
:102CB000307F2F70232B2093AE02392F3295307F37
:102CC000242F22952F70232B2093AF02362F32957D
:102CD000307F292F22952F70232B2093B0022B2F8A
:102CE0002295207F862F82958F70822B8093B10250
:102CF00080912E02806480932E021092AD02109279
:102D0000AC0288E0EAE9F2E0A2E9B2E001900D92BB
:102D10008A95E1F77894C091A902CE3F08F091C05E
:102D2000C330F0F04E2D9601042E000C550BCA0155
:102D3000B9010E94C22D2091A5023091A6024091B6
:102D4000A7025091A8020E94632FCD3F09F472C0E0
:102D50006093A5027093A6028093A7029093A802A5
:102D6000CF5FC093A902C0908E02D0908F02C11491
:102D7000D10409F446C020918A0230918B0240911F
:102D80008C0250918D026091860270918702809131
:102D90008802909189020E94632F6093860270934B
:102DA0008702809388029093890231E0C31AD10888
:102DB000D0928F02C0928E02C091C002D091C10207
:102DC000CD2809F06CC080919002909191029D876E
:102DD0008C87E091C002F091C10284859585909323
:102DE000B5028093B4029FB7F89480912E0280625E
:102DF00080932E0225E33CE03093250220932402A9
:102E00009FBFDF91CF91EF90DF90CF90BF90AF90B9
:102E10009F908F900C94E308C0908A00D0908B0014
:102E20008091840090918500C81AD90AE12C0E94F3
:102E3000A4091FCF20E030E04AE753E40E94CF2FDF
:102E400087CF20E030E048EC52E46091A502709119
:102E5000A6028091A7029091A8020E94212E4B0108
:102E60005C014E2D9601042E000C550BCA01B901D0
:102E70000E94C22D9B01AC01C501B4010E94632FC9
:102E800020E030E04AEC52E40E94CF2F6093A5028C
:102E90007093A6028093A7029093A80264CF0E9429
:102EA00041307D876C87ADCFBF92CF92DF92EF929A
:102EB000FF920F931F93CF93DF93EC01162F8E8514
:102EC0006A3009F0A3C0823030F08D85833008F479
:102ED0006DC081E08E878E85823008F453C08A8968
:102EE000882309F44FC08C8D9D8D009711F421E04B
:102EF0002E872E85223009F47EC0233009F042C08F
:102F0000CE014A960E9499138F85882309F462C0E6
:102F10001C858CA99DA9DC01ED91FC910680F781AF
:102F2000E02D0995ECA8FDA881E48F9380EC95E055
:102F30009F938F931F9288E08F938FE791E09F93E9
:102F40008F930E94FE2C6FE771E0C7010E94FC1076
:102F5000612FCE010E94210D8CA99DA90E94FA0C1F
:102F60008CA99DA9DC01ED91FC910680F781E02DF3
:102F700009952DB73EB7295F3F4F0FB6F8943EBF76
:102F80000FBE2DBF1E861D868A89882329F0CE019B
:102F90004A960E9499131A8ADF91CF911F910F913F
:102FA000FF90EF90DF90CF90BF900895813009F4AB
:102FB00090CF823009F08FCF1D8A40E150E070E061
:102FC00060E0CE0143960E94EC2A70E0CE010E94A0
:102FD000701381CF6C85CE010E944914E8A9F9A92C
:102FE000309721F0188A099581E0888B61E4CE0141
:102FF0000E94A513C7CF188A2E8D3F8DEEA5FFA581
:10300000821B930B099581E0888BBCCF813021F224
:103010006D3011F2811179C0ED85E1116DC06B3217
:1030200009F06DC081E08E0F8D87EC0FFD2FF11D33
:10303000138BFE01E80FF11D138A8B898B3209F087
:10304000ABCF6E0133E1C30ED11C82E58F9380ECD0
:10305000E82E85E0F82EFF92EF921F9298E0B92EAD
:10306000BF920FE711E01F930F930E94FE2CB8014F
:10307000C6010E940A33ADB7BEB717960FB6F894D3
:10308000BEBF0FBEADBF892BF1F181E48F93FF92DC
:10309000EF921F92BF921F930F930E94FE2CB801D4
:1030A000C6010E940A332DB73EB7295F3F4F0FB6C6
:1030B000F8943EBF0FBE2DBF892B09F46DCF84E578
:1030C0008F93FF92EF921F92BF921F930F930E94D4
:1030D000FE2CB801C6010E940A33ADB7BEB71796E1
:1030E0000FB6F894BEBF0FBEADBF892B09F054CF09
:1030F00082E08E871D8650CFE63008F493CF1D8680
:1031000081E08E8749CF83E0F4CFE62EF12CC70112
:103110000E94E832892B19F1ED8581E08E0F8D87B1
:10312000EC0FFD2FF11D138B833050F7823009F027
:1031300033CF1D8A40E150E070E060E0CE0143965D
:103140000E94EC2A70E0CE01DF91CF911F910F9188
:10315000FF90EF90DF90CF90BF900C9470131C32D3
:1031600009F41ACFC7010E94AF2C892B49F214CF62
:10317000CF93DF93C0914203D0914303E881F9815B
:103180000084F185E02DCE010995892B69F0E88155
:10319000F9810284F385E02DCE010995682F8EE038
:1031A00093E00E945417EACFDF91CF9108950E94D7
:1031B000350C81110C94B8180895CF92DF92EF92DC
:1031C000FF926091F9027091FA0290E080E00E9413
:1031D000C02D9B01AC0160E070EC8FE797E40E948A
:1031E000CF2F20E030E040E85FE30E94622F23EC25
:1031F00035EF48EA5EE30E94212E0E94843020E0F1
:1032000030EE46E755E40E94CF2F2FE03FEC4BE530
:103210005BE30E94632F9B01AC0160E070E080E8FB
:103220009FE30E94CF2F23E333E948E853E40E9451
:10323000622F6B017C0160915E026F3FB1F0062E40
:10324000000C770B880B990B0E94C22D20E030E018
:1032500040E85EE30E94212EA70196010E94632FA1
:10326000FF90EF90DF90CF90089560E070E080ECE9
:103270009FE7F2CF0F931F93CF93DF930E94E50E4A
:1032800089E794E00E94111187E891E00E94CE0C3A
:103290000E94E50E81E230E020E0F90180935700C2
:1032A000649142E050E0FA01809357007491E4E0A9
:1032B000F0E080935700849199E0F90190935700D2
:1032C0002491E3E0F0E0909357003491FA01909359
:1032D000570094911F929F931F923F931F922F9399
:1032E0001F928F931F927F931F926F938BE494E0B2
:1032F0009F938F93C7E8D1E0DF93CF930E94C810CC
:1033000085E494E00E94AE0C8DEE92E00E94AE0C3B
:1033100085E394E00E941111CE010E94CE0C0E9420
:10332000E50E2091C4023091C5024091C602509131
:10333000C702A4E1B0E00E94272F8B019C01045139
:103340001109210931098091F3029091F40261E39E
:1033500070E00E94412F060F171F211D311D3F9362
:103360002F931F930F9381E294E09F938F93DF93AA
:10337000CF930E94C8101F9286E08F9388E194E05B
:103380009F938F93DF93CF930E94C8108EE094E0B9
:103390000E94AE0C89E094E00E94AE0C88EF93E0AE
:1033A0000E94AE0C8CEE93E00E94AE0C80914B021A
:1033B000EDB7FEB77E960FB6F894FEBF0FBEEDBF19
:1033C00081FD47C184E51F928F931F9287E18F9300
:1033D00089ED93E09F938F93C7E8D1E0DF93CF937C
:1033E0000E94C8108FE38F9380E88F931F921F92E3
:1033F0001F9288E08F938AEB93E09F938F93DF93E4
:10340000CF930E94C8104AE066E070E080E090E050
:103410000E94A1118CE20E94C90C80914B028295FE
:1034200081701F928F9380EB93E09F938F93DF9334
:10343000CF930E94C8102091590230915A02EDB7E3
:10344000FEB778960FB6F894FEBF0FBEEDBF2115FC
:10345000310509F400C18091570290915802281B50
:10346000390B50E040E060E070E080E094E00E94C2
:10347000052F3F932F93809158028F93809157028D
:103480008F9383EA93E09F938F93C7E8D1E0DF9314
:10349000CF930E94C810CE010E94CE0C0E94E50E70
:1034A00080915B02082E000C990B982F882792952B
:1034B000907F092E000CAA0BBB0B83539343A347A9
:1034C000B04CBF93AF939F938F9380916A028F9379
:1034D000809169028F93809168028F938091670237
:1034E0008F9380914B0281701F928F938BE793E0B3
:1034F0009F938F93DF93CF930E94C81060915E02D9
:103500008DB79EB746960FB6F8949EBF0FBE8DBF7F
:103510006F3F09F4A3C0062E000C770B880B990BA4
:103520000E94C22D20E030E040E85EE30E94212EA0
:10353000EB01182F092F0E94DD180F931F93DF93C3
:10354000CF939F938F937F936F938BE693E09F939B
:103550008F93C7E8D1E0DF93CF930E94C8100E94F9
:10356000810D20915D021F922F9320915C021F928A
:103570002F939F938F938FE493E09F938F93DF9389
:10358000CF930E94C81080915F021F928F93809109
:103590004C021F928F9388E393E09F938F93DF9366
:1035A000CF930E94C81082E393E00E94AE0C0E9469
:1035B000620D9C0121503109EDB7FEB77E960FB622
:1035C000F894FEBF0FBEEDBF2E3F3F4F08F44BC037
:1035D0008FE20E94C90C809152028F938091510218
:1035E0008F93809156028F93809155028F93809193
:1035F00054028F93809153028F938BE093E09F93BB
:103600008F93C7E8D1E0DF93CF930E94C8108091D9
:1036100063021F928F93809162028F938091610267
:103620008F9389EF92E09F938F93DF93CF930E94C4
:10363000C8102DB73EB72E5E3F4F0FB6F8943EBF71
:103640000FBE2DBFCE01DF91CF911F910F910C9432
:10365000CE0C8CE4B8CE20E030E20BCFC0E0D0E05E
:1036600010EC0FE768CFBC0190E080E00E94C02D15
:1036700020E030E04AE754E40E94CF2F9F938F93DD
:103680007F936F938DE293E09F938F93DF93CF931C
:103690000E94C8104DB75EB7485F5F4F0FB6F894F1
:1036A0005EBF0FBE4DBF97CF2F923F924F925F925A
:1036B0006F927F928F929F92AF92BF92CF92DF9242
:1036C000EF92FF920F931F93CF93DF93CDB7DEB7A7
:1036D000A1970FB6F894DEBF0FBECDBF9A8F898F2A
:1036E00084ED8093830210923A0210923902E7E847
:1036F0002E2EE1E03E2E898D9A8D9C0121503109BC
:103700003A8F298F181619060CF08BC4109183027A
:1037100088E293E00E94430DE0918302E058E53592
:1037200008F0E4E5F0E0E15DFD4F808380918302E5
:1037300091E0980F90938302143D11F580938302DA
:10374000298D3A8D232BB9F6893BA9F68091390250
:10375000823089F683E498E0909374028093730238
:1037600085E0EAE0F1E0A5E7B2E001900D928A95EC
:10377000E1F787E08093390284EC80938302BBCF2A
:103780001A3811F484EDF9CF193809F0B4CF9091BB
:103790003802933809F44CC208F068C0933209F437
:1037A000C0C190F5923109F486C1F0F4903109F46A
:1037B000A6C1913109F09FCF0091340210913502DA
:1037C00020913602309137024091320250913302FB
:1037D00060912F0270913002809131028F3F09F485
:1037E00080E00E94580787CF298D3A8D913209F4E5
:1037F00092C108F093C144E06CEB903209F07BCFAA
:10380000C9010E94DA0E77CF933509F49EC1D0F436
:10381000913509F4C8C108F089C1903509F06BCF22
:1038200060E0CE0149960E94C90E823941F49FB7EB
:10383000F89480912E02826080932E029FBF0E9496
:103840007C0B59CF963509F483C1923809F4CEC167
:10385000943509F050CF1092270210922602109250
:103860002B0210922C0210922D0245CF953909F4AB
:1038700020C208F0ABC0963809F41EC238F594385F
:1038800009F4ECC1953809F036CF61E0CE014996D4
:103890000E94C90E2091A3023091A402820F932F9F
:1038A000911D9093A4028093A3029F938F938DE721
:1038B00092E09F938F933F922F920E94C8100F9097
:1038C0000F900F900F900F900F9015CF933909F430
:1038D00078C108F0DFC1913909F00DCF1F928CE952
:1038E0008F931F9287E18F9388E08F9383E48F9368
:1038F00084ED92E09F938F933F922F920E94C81085
:103900000FB6F894DEBF0FBECDBF0BE412E06FEC34
:10391000E62E62E0F62ED8018D918D011F928F93D5
:10392000FF92EF923F922F920E94C8100F900F903B
:103930000F900F900F900F90B2E004361B0759F7CD
:103940000E940B111F921F921F9283EA8F931F9266
:1039500087E18F931F921F9283ED91E09F938F9346
:103960003F922F920E94C81087E891E00E94CE0CEF
:103970000FB6F894DEBF0FBECDBFF12C0AEC11E0FC
:1039800080910D03F81608F0FFC08F2D90E0A091F4
:103990000B03B0910C03A80FB91F2C911F922F930A
:1039A000E0910903F0910A03E80FF91F80811F924B
:1039B0008F931F930F933F922F920E94C810F394FE
:1039C0000FB6F894DEBF0FBECDBFDACF933A09F43D
:1039D000E6C2A8F4913A09F40FC208F015C3903A70
:1039E00009F089CE6FEFCE0149960E94C90E6FE7AC
:1039F000CE0149960E94C90E0E9415127CCE9D3EB2
:103A000009F46EC19E3E09F4ACC1943A09F073CE3C
:103A1000E091C002F091C102A484B58470E060E03E
:103A200080E00E945109C12CD12C760110E000E009
:103A30000E94190B2B01C8010E94FA06982E892EAC
:103A40000E94190B641975092B01712C612CC41487
:103A5000D504E604F704A8F47F936F938F929F92A6
:103A60001F930F93E0E1F2E0FF93EF933F922F92C9
:103A70000E94C8100FB6F894DEBF0FBECDBF730111
:103A800062010F5F1F4F011590E2190789F6FF923F
:103A9000EF92DF92CF921F921F9283EF91E09F935C
:103AA0008F933F922F920E94C810B501772780E034
:103AB0000E945109B7C0898D9A8D9C01215031090E
:103AC0003A8F298F18161906BCF488E293E00E94F9
:103AD000430D282F2F7074E0959587957A95E1F71F
:103AE0008F70880F90913902890F809339022A5B79
:103AF000220F20938302FFCD20E088E0F2CF609177
:103B0000320270913302809131028F3F09F480E0DC
:103B10000E945109F0CD42E060EC72CE42E062ECCE
:103B20006FCE44E068EB898D9A8D6BCE80E090E09B
:103B3000A0E8BFE38093730290937402A093750290
:103B4000B093760244E064ECEECF0E943A19D3CDF4
:103B5000898D9A8D9C01215031093A8F298F181631
:103B600019060CF0C8CD88E293E00E94430DE09165
:103B7000BE02F091BF0221E0019709F020E08081B0
:103B800020FB81F98083B7CD3FE13F1528F080E32A
:103B90000E94C90CF394F8CF0E940B1187E891E0C2
:103BA0000E94CE0CA8CD0E94C6039FB7F8948091C6
:103BB0002E02826080932E029FBF81E00E94BB1480
:103BC0009ACD1FB7F89460E0CE0149960E94C90EC5
:103BD000823929F480912E02826080932E02809196
:103BE0002E028E7F80932E021FBFE7CF61E0CE01B1
:103BF00049960E94C90E2091510230915202820FC3
:103C0000932F911D90935202809351029F938F9313
:103C10009F938F938CEB92E09F938F933F922F9281
:103C20000E94C8100FB6F894DEBF0FBECDBF63CDA3
:103C300061E0CE0149960E94C90E20915102309157
:103C40005202281B310930935202209351023F93B4
:103C50002F933F932F9389EA92E0DECF898D9A8D3F
:103C60009C01215031093A8F298F029744F042E09C
:103C700050E061E572E088E293E00E945C1480917C
:103C80005102909152029F938F939F938F9386E955
:103C900092E0C2CF8CE892E00E9411110E94CF0AFC
:103CA00064EF71E080E090E00E943E0B0E94B20F52
:103CB00022CD0E941D111FCD61E0CE0149960E94C8
:103CC000C90E2091A3023091A402281B3109309320
:103CD000A4022093A3023F932F938EE692E0E9CDB6
:103CE00088E692E00E94AE0C809194029091950239
:103CF000892B91F110E024E01202F0011124EC571D
:103D0000FD4F208931892115310509F46BC04685A5
:103D1000E091C002F091C102842F042E000C990B97
:103D20000696880F991FE80FF91F81818F93808174
:103D30008F933F932F931F924F938DE592E09F9324
:103D40008F933F922F920E94C8101F5F0FB6F89476
:103D5000DEBF0FBECDBFCFCF8AE492E00E9411112B
:103D6000CACC84E492E00E94AE0C9FE2E92E92E07D
:103D7000F92E00E810E028E3C22E22E0D22EB02E69
:103D8000F02FF370AF2E81F41F930F932DE332E0E9
:103D90003F932F933F922F920E94C8100F900F9045
:103DA0000F900F900F900F90D7018D917D011F9272
:103DB0008F93DF92CF923F922F920E94C8108B2D4B
:103DC0008F700F900F900F900F900F900F908F307B
:103DD00061F481E392E00E94AE0C0F5F1F4F053D3E
:103DE000110569F60E940B1186CCB3E0AB12F5CF3A
:103DF00080E20E94C90CF1CF898D9A8D05970CF451
:103E00007ACC44E050E0BE016F5E7F4F88E293E0E1
:103E10000E945C14E98CFA8CE81AF90AFA8EE98E91
:103E2000E0FC69CCE6948FEF8E0D883008F063CC0F
:103E3000FE013196FC8FEB8F80E111928A95E9F7B4
:103E4000F12CA701BE016F5F7F4F88E293E00E94D3
:103E50005C14298D3A8D281B390B3A8F298FA701C5
:103E6000BE01675F7F4F88E293E00E945C14298D5A
:103E70003A8D281B390B3A8F298FC988DA888C89AB
:103E8000482E512CFFEF4F1A5F0A2B89249DC00149
:103E9000259D900D11249C012C0D3D1D3E8F2D8FD5
:103EA0005F924F923F932F93DF92CF9288E391E0FE
:103EB0009F938F933F922F920E94D81083E7882E72
:103EC00082E0982E0FB6F894DEBF0FBECDBFB12CA6
:103ED000AD8DBE8DCA16DB060CF05FC0B0E1BB161F
:103EE00009F45BC0B60190E080E00E94C02D2CE791
:103EF0003CE740E052E40E94CF2F69A3672E8C017B
:103F000020E030E04FE753E40E94BB2D87FD04C062
:103F100019A2612C0FE713E4E9E0F0E0EC0FFD1FBC
:103F2000F88FEF8B21E030E02C0F3D1F3E8B2D8B67
:103F3000A9A06F8E08A3712E0A2D162D28A1372D4A
:103F4000A701BE01695E7F4FCE0145960E94AB047A
:103F50000E941504D4018C9311969C93B2E08B0EB1
:103F6000911CB394B3949F938F937F92E8A1EF93A6
:103F7000FF8DFF93AF92DF92CF9226E531E03F9322
:103F80002F933F922F920E94D810C40CD51C0FB6CD
:103F9000F894DEBF0FBECDBF9BCF4B2DD4CD6FEFBE
:103FA000CE0149960E94C90E8111A5CBFFB6F894A7
:103FB000E3E7F2E080E1DF011D928A95E9F7098DE0
:103FC0001A8D1016110674F4013108F000E110E0AA
:103FD000A80163E772E088E293E00E945C1408178E
:103FE000190721F483E792E00E94681080914B0248
:103FF0008F7E80934B0290910D03992319F080617D
:1040000080934B02FFBE77CB6FEFCE0149960E94A3
:10401000C90E811170CB83E792E00E949A0340E1C0
:1040200092CDA1960FB6F894DEBF0FBECDBFDF9143
:10403000CF911F910F91FF90EF90DF90CF90BF90A5
:10404000AF909F908F907F906F905F904F903F9038
:104050002F9008951F920F920FB60F9211242F9355
:104060003F938F939F93AF93BF93809177019091EC
:104070007801A0917901B0917A013091760126E022
:10408000230F2D3758F50296A11DB11D20937601FF
:104090008093770190937801A0937901B0937A018E
:1040A00080917B0190917C01A0917D01B0917E0176
:1040B0000196A11DB11D80937B0190937C01A0937B
:1040C0007D01B0937E01BF91AF919F918F913F9100
:1040D0002F910F900FBE0F901F90189529E8230F76
:1040E0000396A11DB11DD2CF1F920F920FB60F9252
:1040F00011242F933F934F935F936F937F938F93ED
:104100009F93AF93BF93EF93FF93E0910201F091E0
:1041100003010995FF91EF91BF91AF919F918F910D
:104120007F916F915F914F913F912F910F900FBEB3
:104130000F901F9018951F920F920FB60F92112497
:104140002F933F934F935F936F937F938F939F939F
:10415000AF93BF93EF93FF93E0910001F0910101C2
:104160000995FF91EF91BF91AF919F918F917F91B1
:104170006F915F914F913F912F910F900FBE0F90D4
:104180001F9018951F920F920FB60F9211242F9324
:104190003F934F935F936F937F938F939F93AF93CF
:1041A000BF93EF93FF9387E891E00E943F0CFF914C
:1041B000EF91BF91AF919F918F917F916F915F919F
:1041C0004F913F912F910F900FBE0F901F90189518
:1041D0001F920F920FB60F9211242F938F939F93DC
:1041E000EF93FF93E0919701F09198018081E09126
:1041F0009D01F0919E0182FD1BC090818091A001E4
:104200008F5F8F732091A101821741F0E091A0018F
:10421000F0E0E957FE4F958F8093A001FF91EF9159
:104220009F918F912F910F900FBE0F901F90189517
:104230008081F4CF1F920F920FB60F9211248F93AB
:104240009F938091720190917301019690937301F5
:10425000809372019F918F910F900FBE0F901F90CE
:1042600018951F920F920FB60F9211248F939F9360
:1042700080917001909171010196909371018093EA
:1042800070018091240290912502181619062CF4D1
:1042900001979093250280932402809126029091A9
:1042A0002702009729F00197909327028093260216
:1042B0009F918F910F900FBE0F901F9018951F9296
:1042C0000F920FB60F9211242F933F934F935F934A
:1042D0006F937F938F939F93AF93BF93EF93FF93CE
:1042E0000E94A409FF91EF91BF91AF919F918F918F
:1042F0007F916F915F914F913F912F910F900FBEE2
:104300000F901F9018951F920F920FB60F921124C5
:104310008F938091AB02882369F05E9A80916F0041
:10432000897F846080936F008F910F900FBE0F90F4
:104330001F9018955E98F2CF1F920F920FB60F92B2
:1043400011242F933F934F936F937F938F939F935A
:1043500060917800709179008091FF029091000344
:104360000196909300038093FF0218161906DCF45F
:10437000209103033091040340910503260F371F5A
:10438000411D2093030330930403409305032091C0
:104390000103309102038217930728F010927A00EC
:1043A00081E0809308039F918F917F916F914F914E
:1043B0003F912F910F900FBE0F901F901895109264
:1043C0007A0089E093E00E94571085E291E0909393
:1043D0000F0380930E0382E393E00E94E81088E2CB
:1043E00093E00C94E810CF93DF93A7E8B1E0139625
:1043F0001C921E92129748EE53E060E070E0149613
:104400004D935D936D937C93179783E191E01196A3
:104410009C938E9385EC90E01D969C938E931C97B5
:1044200084EC90E01F969C938E931E9780EC90E016
:1044300051969C938E93509781EC90E053969C9369
:104440008E93529782EC90E055969C938E9354975E
:1044500086EC90E057969C938E93569759961C92B3
:1044600059975A961C925A975B961C925B975C964A
:104470001C925C97EEE0F3E0138212824483558332
:104480006683778385E291E0918380838EEF8487D2
:1044900015861686178681E0808B118A128A21E2A2
:1044A00033E087E0E90119928A95E9F7138E128EBD
:1044B000158E148E178E168E11A210A213A212A2A0
:1044C00015A214A217A216A211A610A613A612A630
:1044D00015A614A617A616A611AA10AA88EB98E18D
:1044E00093AB82ABB5ABA4ABE4E2F2E08FEF9FEF0E
:1044F0009183808382E19AE7938382831482158279
:1045000016821782108611861286E4E8F2E08AE3AA
:10451000DF011D928A95E9F78BE492E093AF82AFB9
:104520008FE292E095AF84AFE9E0F3E01182108270
:10453000138212821482E2ECF2E081E3EF0119921D
:104540008A95E9F712AA11AA88E79CEEAFEFBFEFB0
:1045500083AB94ABA5ABB6ABE9EFF2E086E0DF014D
:104560001D928A95E9F71786DF91CF910895CF9331
:10457000DF93CDB7DEB7E1970FB6F894DEBF0FBE7D
:10458000CDBF789484B5826084BD84B5816084BDDC
:1045900085B5826085BD85B5816085BD80916E00E1
:1045A000816080936E001092810080918100826012
:1045B000809381008091810081608093810080914F
:1045C00080008160809380008091B100846080933E
:1045D000B1008091B00081608093B00080917A003A
:1045E000846080937A0080917A00826080937A0060
:1045F00080917A008E7F80937A0080917A00806823
:1046000080937A001092C100E0919701F091980197
:1046100082E08083E0919301F09194011082E09117
:104620009501F091960180E1808310929F01E091C5
:104630009B01F0919C0186E08083E0919901F091CB
:104640009A01808180618083E0919901F0919A01C3
:10465000808188608083E0919901F0919A01808146
:1046600080688083E0919901F0919A0180818F7D2B
:1046700080830E94E50E82EE94E00E94111187E88B
:1046800091E00E94CE0CE1E3F2E083E5DF011D92B0
:104690008A95E9F78FEF9FEF9093300280932F0276
:1046A00080911A038E3FC1F08EEF80931A0310920F
:1046B0001B0310921C0310921D0381E080931E03C4
:1046C00010921F031092200388E293E00E94E810EA
:1046D00082E393E00E94E81087E180931A0384E567
:1046E0009BE190933D0380933C038DEC95E1909387
:1046F0003F0380933E038FEF9FEF9093F4028093EC
:10470000F30210E000E0412C512C3201043DB3E0F3
:104710001B0751F1BE016F5F7F4FC8010E94160F4A
:10472000CE0103960E94750329813A812817390723
:10473000C1F44B815C816D817E8144155505660510
:10474000770578F01093F4020093F30281E3FE0101
:104750003196A2ECB2E001900D928A95E1F72A0120
:104760003B010F5C1F4FD2CF8091F3029091F40276
:10477000019609F03CC10E941D1160E084E10E9495
:104780009E0A60E083E00E949E0A109264021092EA
:104790006502109266020E94B20FDE0111967D0141
:1047A00050E4652E712C8091740190917501892BD4
:1047B00009F475C10E94B20F882309F410C1F8945E
:1047C00010927A0010927B00109207031092080357
:1047D000B6E4B0937C0070920203609201031092E1
:1047E0000603E8EFFFEFF0930003E093FF0210925F
:1047F00003031092040310920503FFEEF0937A0076
:1048000078940E94700B4B015C012AEF820E911C80
:10481000A11CB11C0E94700B681579058A059B05C7
:1048200050F4809108038823A9F30E941903809112
:104830000703823079F78090670290906802A09019
:104840006902B0906A02A5019401C501B4010E94F9
:10485000CC30811174C020E030E0A901C501B40161
:104860000E94BB2D882309F46AC0E091BE02F0913A
:10487000BF026589062E000C770B43E0769567959D
:104880004A95E1F790E080E00E94C02D1B012C01C9
:10489000A501940160E074E284EF98E40E94CF2FB8
:1048A0009B01AC01C201B1010E94632F0E944830FC
:1048B0007093A4026093A3021092A5021092A60224
:1048C0001092A7021092A8021092A90219821092C7
:1048D0002E0286E0AEEAB2E01D928A95E9F71092C8
:1048E000AB028FEF9FEF9093B5028093B4020E94CA
:1048F000590A61E086E00E949E0AF8941092B00086
:1049000081E08093B100809170008160809370009D
:10491000E4EFF5E1F0930301E09302018091690077
:104920008C6080936900E99A1092800082E0809305
:10493000810080916F00887D80936F0078948091D2
:104940004B0280FF20C0A090E102B090E202A114CF
:10495000B104C9F020904D0230904E0240904F02B9
:104960005090500220E030E0A901C201B1010E9444
:10497000BB2D882341F092018101A5016FEF7FEFEC
:1049800080E00E9458070E94810D909370028093EE
:104990006F020E94DD1860936B0270936C0280932B
:1049A0006D0290936E020E94620D9093720280934A
:1049B000710268E18EE093E00E94491467EF8EE097
:1049C00093E00E948D136CE087E692E00E94EB1565
:1049D000F89480912E02846080932E0278940E9435
:1049E000350C882309F4DFCE0E94B818DCCE809104
:1049F000C902873308F487E38E3708F08DE7809388
:104A0000C90289E1E8ECF2E0ABE4B2E001900D927A
:104A10008A95E1F789E093E00E94571083EE92E0D7
:104A20000E9468100E94E50EE091F302F091F402FA
:104A30008091C3028F938091C2028F93CF0161E373
:104A400070E00E94412F4B01B12CA12C24E1821A6D
:104A50009108A108B108A4E1B0E0A30192010E946D
:104A6000272F860E971EA81EB91EBF92AF929F9247
:104A70008F92FF93EF937F926F925F924F928FEBA3
:104A800094E09F938F9387E891E09F938F930E9488
:104A9000C8100FB6F894DEBF0FBECDBF6ECE8091AA
:104AA000080381110E941903F89450902E02789403
:104AB00052FE09C0F89480912E028B7F80932E02C3
:104AC00078940E943A190E94700B4B015C0153FECE
:104AD0001BC0F89480912E02877F80932E027894D9
:104AE00068E18EE093E00E94491464EF8EE093E069
:104AF0000E948D136FEF8EE093E00E948D1363E0B0
:104B000084E692E00E94EB1554FE18C0F894809160
:104B1000AA02898380912E028F7E80932E02789440
:104B200068E18EE093E00E94491465EF8EE093E027
:104B30000E948D1361E0C7010E94EB1555FE39C03C
:104B4000F8948091240290912502892B09F0A4C148
:104B500080912E028F7D80932E028FEF9FEF909396
:104B60002502809324022091B4023091B50287017E
:104B70002F3F320751F019823B832A839093B5026D
:104B80008093B4028E010C5F1F4F7894E016F106FB
:104B900081F068E18EE093E00E94491462EF8EE0BC
:104BA00093E00E948D13B8016E197F09C7010E941E
:104BB000EB1550FE12C00E94700B0091F50210918F
:104BC000F6022091F7023091F80260177107820710
:104BD000930718F080E00E94BB1456FE84C0F8943E
:104BE00086E0EEEAF2E0D70101900D928A95E1F7B6
:104BF000898181FF53C186E0AEEAB2E01D928A95B9
:104C0000E9F780912E028F7B80932E02789468E1E1
:104C10008EE093E00E94491466EF8EE093E00E94DC
:104C20008D1366E0C7010E94EB15998192959F70E4
:104C30008A81282F2295207F422F492B982F9295E9
:104C40009F708B81282F2295207F522F592B829580
:104C50008F709C81292F2295207F622F682B792FBE
:104C600072957F701A012B0194E0220C331C441CB6
:104C7000551C9A95D1F724E055944794379427947E
:104C80002A95D1F7C201B1010E94C22D9F938F9343
:104C90007F936F93D201C10133E0880F991FAA1F40
:104CA000BB1F3A95D1F7BF93AF939F938F938E819C
:104CB0008F938D818F938981869581701F928F93B9
:104CC000898181701F928F93E7EEF4E0FF93EF9359
:104CD00087E891E09F938F930E94C8100FB6F894D5
:104CE000DEBF0FBECDBF8091260290912702892B97
:104CF00009F075CE10927A00F89482E19AE79093C9
:104D000027028093260278940E94620D0E94DD188B
:104D10001B012C0120926B0230926C0240926D02BA
:104D200050926E02AC019B010E94CC30811105C0F3
:104D3000C201B1010E9441306B010E94810D8C01C2
:104D40009093700280936F02BC01990F880B990BAE
:104D50000E94C22D9B01AC010E94CC30811104C085
:104D6000C016D1060CF46801892C9A2CAB2CBB24FC
:104D700014014A2C80914C028823F1F18C151D04FA
:104D8000DCF58091280290912902A0912A02281630
:104D900039064A0688F1AA2DC4018B589F4FAF4FA0
:104DA0008093280290932902A0932A0280914B02BB
:104DB00082FD05C0846080934B020E947C0B00E062
:104DC00010E020E231E450E040E06FEF7FEF80E060
:104DD0000E945807C98280914C028A8368E18EE064
:104DE00093E00E94491461EF8EE093E00E948D13DE
:104DF00062E0C7010E94EB1580915F02882371F188
:104E000020912B0230912C0240912D022216330664
:104E1000440620F1A4E08A9FC0011124092E000C51
:104E2000AA0B880D991DAA1D80932B0290932C022A
:104E3000A0932D0268E18EE093E00E94491460EF98
:104E40008EE093E00E948D136C2D8EE093E00E9423
:104E50008D136CE087E692E00E94EB15F8941092B7
:104E6000070310920803B6E4B0937C00709202032B
:104E70006092010310920603E8EFFFEFF093000346
:104E8000E093FF02109203031092040310920503B3
:104E9000FFEEF0937A00A2CD78948BCE8091AE0293
:104EA0008E7F8093AE02ADCEAFE0B0E0EAE5F7E2F0
:104EB0000C94B52A6C011B015A01FC011782168261
:104EC000838181FF48C39E012F5F3F4F4901F60157
:104ED0009381F10193FD859193FF81911F018823B7
:104EE00009F4E7C2853239F493FD859193FF8191EE
:104EF0001F01853239F4B60190E00E94CE2C3501B5
:104F00005301E5CFF12C512C00E0003238F48B3204
:104F100009F190F48032F9F0833209F107FD34C0D1
:104F200020ED280F2A3020F506FF1BC0FAE0FF9E77
:104F3000200D1124F22E05C08D3279F0803371F7E7
:104F40000160F10193FD859193FF81911F01811112
:104F5000DCCF1AC002600460F4CF0860F2CF0061B9
:104F6000F0CF3AE0539E200D1124522E0062E9CF7B
:104F70008E3221F406FD9DC20064E3CF8C3611F41D
:104F80000068DFCF8836E9F29BEB980F933008F08A
:104F90005FC00061805E06FD02C046E0F42E102F67
:104FA0001F73853609F05BC0106417FF61C08F2D39
:104FB0009BE39F1508F48BE344244394480E27E0B9
:104FC0003501F4E06F0E711CF50160817181828101
:104FD0009381042DA4010E94D72B5C01F981FC87E9
:104FE000F0FF03C00DE2F3FF07C00BE211FD04C0A8
:104FF000012F047012FD00E22C852C70E22E09F4C2
:1050000057C00111ABC2F3E0E12CF515A0F483E029
:10501000E52CE81A13FD08C0B60180E290E00E947A
:10502000CE2CEA94E110F8CF002329F0B601802FAE
:1050300090E00E94CE2C3C8522ECA22E20E0B22EE5
:1050400033FD04C096ECA92E90E0B92E107122C059
:105050009BE9980F933008F033C10F7E9CCF8636C2
:1050600011F41068A2CFFF2009F49FCFFA949DCFCE
:10507000E7E02F2DEF1518F427E037E0F32E412C51
:105080009FCF11118052B60190E00E94CE2C8FEF7D
:10509000A81AB80AF50184918111F3CFEE2009F422
:1050A0002FCFB60180E290E00E94CE2CEA94F6CF9A
:1050B00017FF6FC04A0CFC85F4FF04C08A8181335E
:1050C00009F44A9414140CF086C028E0241510F456
:1050D00088E0482E85E090E017FF06C0C501B7FEC6
:1050E00002C090E080E0019601110196FF2031F0AE
:1050F0002F2D30E02F5F3F4F820F931F5816190658
:1051000019F014F0E52CE81A812F897011F4E110E0
:1051100067C0002329F0B601802F90E00E94CE2CBA
:1051200013FD02C0E11063C017FF7CC08501B7FE0C
:1051300002C010E000E0C501841991092C016F2D17
:1051400070E0EE27FF27E61BF70BFF87EE870F3F88
:10515000100729F4B6018EE290E00E94CE2CA01632
:10516000B1060CF44BC0401651060CF047C0F501D7
:10517000E01BF10BE80DF91D8181015011092E850D
:105180003F8502171307E4F1B60190E00E94CE2C90
:10519000DECF16FD9FCFEF2DF0E0EA15FB0534F0D2
:1051A0003CEFA3163FEFB3060CF010683296E80D03
:1051B000F91D01C0FA94FF2019F082918033D1F3D8
:1051C00017FF88CF442443944F0CFA141B0431F08A
:1051D0002CF0FA187FCF442443947CCFF12C7ACF63
:1051E000B60180E290E00E94CE2CEA9490CFB60106
:1051F00080E390E00E94CE2CEA9494CF80E3BDCF70
:10520000A016B10641F49A81963350F4953319F4FF
:105210003C8534FF05C0B60190E00E94CE2C3ECF05
:1052200081E3F9CF8A81813319F09C859F7E9C8729
:10523000B60190E00E94CE2CFF20A9F0B6018EE2CC
:1052400090E00E94CE2CF394F394E2E001E00E0F84
:10525000E80DF92DF11D8081B60190E00E94CE2C61
:10526000E02F0F11F3CF85E690E014FF02C085E434
:1052700090E0B6010E94CE2CB7FC06C0A114B10488
:10528000C1F4EC85E4FF15C0B194A194B1088DE29E
:10529000B60190E00E94CE2C80E32AE0A216B10471
:1052A00054F4B60190E00E94CE2CB601C501C09620
:1052B000B4CF8BE2EDCF8F5FFAE0AF1AB108EDCF3C
:1052C0008336C9F0833771F1833509F05BC035014E
:1052D000F2E06F0E711CF501A080B1806F2D70E0BF
:1052E00006FD02C06FEF7FEFC5010E94B82C9D87BD
:1052F0008C8700680DC0350132E0630E711CF5012A
:105300008081898321E030E03D872C8754010F772D
:1053100003FD06C02C853D855216130609F0A8F43E
:10532000E52C2BC0350132E0630E711CF501A08025
:10533000B1806F2D70E006FD02C06FEF7FEFC501F9
:105340000E94C32C9D878C87E2CFB60180E290E05B
:105350000E94CE2C5A94DECFF50107FD859107FF00
:1053600081915F01B60190E00E94CE2CE110EA9499
:105370008C859D8501979D878C87EC85FD85EF2B1E
:1053800059F78CCE843619F0893609F074C035018E
:1053900007FF66C0F4E06F0E711CF501608171813A
:1053A00082819381102F1F7697FF08C0909580957A
:1053B000709561957F4F8F4F9F4F10682AE030E0C6
:1053C000A4010E945A2DA82EA818BA2C012F16FF4E
:1053D0000AC00E7FAF1438F414FF04C012FD02C0DF
:1053E000012F0E7EBF2C04FF8EC0FE01EA0DF11DC1
:1053F0008081803309F080C0097EF02FF870EF2E95
:1054000003FD90C000FF8AC0FA2CB51410F4F50C0F
:10541000FB1804FF8DC0B60180E390E00E94CE2C03
:1054200002FF09C088E790E001FF02C088E590E034
:10543000B6010E94CE2CAF1408F486C0AA940A2D9F
:1054400010E00F5F1F4F080D191DF80182918F01A9
:10545000B60190E00E94CE2C80169106B1F71ECEC8
:10546000F2E06F0E711CF50160817181072E000C56
:10547000880B990B97CF102F8537A9F41F7E2AE050
:1054800030E0350117FF2FC0F4E06F0E711CF501FD
:105490006081718182819381A4010E945A2DA82E7E
:1054A000A8181F7792CF197F8F36D1F048F488352E
:1054B00091F0F601868197812F96E2E10C94D12A32
:1054C000803739F08837A9F714FD146020E130E007
:1054D000D8CF1061F9CF04FD166020E132E0D1CFC2
:1054E00028E030E0CECFF2E06F0E711CF501608154
:1054F000718190E080E0D0CF02FD02C0B3947DCFF7
:10550000B394B3947ACF802F867809F476CFF6CF10
:10551000B60180E290E00E94CE2CB394B514C0F3A3
:10552000E12C77CFE52CEB18B51408F472CFF8CF47
:10553000802F867809F47FCF8BE201FF80E207FDA0
:105540008DE2B60190E075CFB60180E390E00E9455
:10555000CE2CFA9470CF8FEF9FEFAECF24E0E12CEA
:10556000251508F063CD84E053CD2F923F924F92E2
:105570005F926F927F928F929F92AF92BF92CF92E3
:10558000DF92EF92FF920F931F93CF93DF93CDB7EC
:10559000DEB7CA1BDB0B0FB6F894DEBF0FBECDBF64
:1055A00009942A88398848885F846E847D848C8435
:1055B0009B84AA84B984C884DF80EE80FD800C813E
:1055C0001B81AA81B981CE0FD11D0FB6F894DEBF21
:1055D0000FBECDBFED010895B0E0A0E0E2EFFAE22A
:1055E0000C94B62A5C016B017A016115710519F002
:1055F000FB0191838083E114F10449F0C701029714
:10560000839728F060E070E0CB019CC05E01E5016B
:105610002196F5011081812F90E00E94AF2C892BFB
:10562000A9F71D3209F056C02196F501118101E05C
:10563000E114F10409F4AEC0F0E1EF16F10409F051
:105640008EC0103341F488818F7D883509F083C086
:10565000198122960260E0E1EE2EF12C88248A94D2
:10566000982CA82CFFE0BF2E20E060E070E0CB017A
:1056700027010F2C000C66087708FE0150ED352E2F
:10568000310E39E0331538F43FEB310F3A31A0F5E4
:1056900049EC342E310E3E141F04BCF52F3FB9F0F7
:1056A00086169706A806B90670F1A30192010E941A
:1056B000F52E232D30E050E040E0620F731F841F71
:1056C000951F6217730784079507E8F021E021967C
:1056D0001081D3CF1B3221F4E5012296F50111810F
:1056E00000E0A6CF78E0E72EF12C88248A94982C4D
:1056F000A82C6FE1B62EB8CF3FE9310F3A3128F42C
:1057000039EA332EC7CF2FEFE2CFC114D10431F0E5
:105710002223E9F02197F601D183C08300FF07C05F
:1057200090958095709561957F4F8F4F9F4F2F3F3C
:1057300049F482E290E090934503809344036FEF35
:105740007FEFCB01CDB7DEB7E1E10C94D22A01FFA8
:10575000E5CF2297E0CF10E3E114F10419F23AE02B
:10576000E316F104E9F080E1E816F10409F473CFDF
:10577000E8E0EE16F10409F4B8CF6FEF7FEFCB014C
:1057800097010F2C000C440B550B0E94052F49016B
:105790005A016ACF103309F456CF9AE0E92EF12C62
:1057A00089E9882E982CA82C89E1B82E5DCF283065
:1057B00008F027E03327DA01990F311D87FD91604A
:1057C00000966105710539F432602E5F3D9330E338
:1057D0002A95E1F708959F3F30F080387105610503
:1057E00009F03C5F3C5F3D93913008F08068911D6B
:1057F000DF93CF931F930F93FF92EF92192F987F10
:105800009695E92F96959695E90FFF27EC5DFE4F4B
:1058100099273327EE24FF24A701E7010590089478
:10582000079428F4360FE71EF81E491F511D660F16
:10583000771F881F991F0694A1F70590079428F4F5
:10584000E70EF81E491F561FC11D770F881F991FAD
:10585000661F0694A1F70590079428F4F80E491FD7
:10586000561FC71FD11D880F991F661F771F0694EB
:10587000A1F70590079420F4490F561FC71FD81FA2
:10588000990F661F771F881F0694A9F784911095BA
:10589000177041F0D695C79557954795F794E794BB
:1058A0001A95C1F7EAECF0E06894159015913591DE
:1058B0006591959105907FE27395E118F10A430B8C
:1058C000560BC90BD009C0F7E10CF11E431F561F40
:1058D000C91FD01D7EF4703311F48A95E6CFE89489
:1058E000015030F0080F0AF40027021708F4202FA7
:1058F0002395022F7A3328F079E37D932A95E9F7EF
:1059000010C07D932A9589F60694979567953795EB
:1059100017951794E118F10A430B560BC90BD009E0
:1059200098F023957E9173957A3308F070E37C9319
:105930002013B8F77E9170617D9330F0839571E309
:105940007D9370E32A95E1F71124EF90FF900F917A
:105950001F91CF91DF91992787FD9095089591111F
:105960000C94B82D803219F089508550C8F70895ED
:10597000FC010590615070400110D8F7809590951A
:105980008E0F9F1F0895FC0161507040019001101F
:10599000D8F7809590958E0F9F1F08950F931F93B2
:1059A000CF93DF93182F092FEB018B8181FD09C065
:1059B0001FEF0FEF812F902FDF91CF911F910F914C
:1059C000089582FF14C02E813F818C819D8128170C
:1059D00039073CF4E881F981CF01019699838883E6
:1059E00010838E819F8101969F838E83E3CFE8850C
:1059F000F985812F0995892BA1F3DACFAEE0B0E0CC
:105A0000E4E0FDE20C94C32A0D891E898F89988DEC
:105A10002EE02C831A83098397FF02C080E090E870
:105A200001979E838D83AE01455E5F4F698D7A8DB0
:105A3000CE0101960E9454274D815E8157FD0AC018
:105A40002F813885421753070CF49A01020F131F58
:105A5000F80110822E96E4E00C94DF2AAEE0B0E06C
:105A6000E4E3FDE20C94C32A8C01FA018EE08C83FE
:105A70001A83098377FF02C060E070E86150710902
:105A80007E836D83A901BF01CE0101960E94542738
:105A90004D815E8157FD0AC02F813885421753071B
:105AA0000CF49A01020F131FF80110822E96E4E005
:105AB0000C94DF2AFA01AA27283051F1203181F114
:105AC000E8946F936E7F6E5F7F4F8F4F9F4FAF4F06
:105AD000B1E03ED0B4E03CD0670F781F891F9A1F19
