:100000000C948E020C9438180C9411180C94B602AF
:100010000C94B6020C94B6020C94B6020C94B60280
:100020000C94B6020C94CE180C94B6020C942019C1
:100030000C94FC180C94B7180C94B6020C94B602ED
:100040000C94C7170C94B6020C9485180C945F1886
:100050000C94B6020C9439190C94B6020C94B602A6
:100060000C94B6020C94B60208000000BE9224491B
:10007000123EABAAAA2ABECDCCCC4C3E00000080DA
:10008000BEABAAAAAA3E00000000BF000000803F4D
:100090000000000000084178D3BB4387D1133D190D
:1000A0000E3CC3BD4282AD2B3E68EC8276BED98F3A
:1000B000E1A93E4C80EFFFBE01C4FF7F3F0000007E
:1000C00000006E616E00696E660000407A10F35A9F
:1000D00000A0724E18090010A5D4E80000E8764888
:1000E000170000E40B54020000CA9A3B000000E134
:1000F000F505000080969800000040420F000000C7
:10010000A08601000000102700000000E8030000A6
:1001100000006400000000000A0000000000010070
:10012000000000002C76D888DC674F0823DFC1DF91
:10013000AE59E1B1B796E5E3E453C63AE651997694
:1001400096E8E6C28426EB898C9B62ED407C6FFCCE
:10015000EFBC9C9F40F2BAA56FA5F490055A2AF710
:100160005C936B6CF9676DC11BFCE0E40D47FEF519
:1001700020E6B500D0ED902E030094357705008081
:10018000841E080000204E0A000000C80C333333E0
:10019000330F986E12831141EF8D2114893BE65580
:1001A00016CFFEE6DB18D1844B381BF77C1D901D63
:1001B000A4BBE424203284725E228100C9F124ECC5
:1001C000A1E53D270A2B52454D3D002530327800F0
:1001D0005B253032785D002B52454D3D004E6F203F
:1001E0006368616E6E656C73206163746976650027
:1001F00025753D25752825752920002B52454D3D37
:10020000002B52454D3D7469636B733D25640A00B4
:100210002B52454D3D7A6364656C61793D25752CA3
:100220003078253034780A002B52454D3D66726592
:10023000710025303278002B52454D3D7625303403
:10024000782C693263743D2530327825303278005D
:100250002B52454D3D0041546D6567613332385036
:10026000420073772E6F6E2D74696D653D25752F75
:1002700025750A006D696E2E6F6E2D74696D653D72
:1002800025752C6D696E2E6F66663D25752C5A435B
:100290002D64656C61793D25752C005643433D25E1
:1002A0002E33662C006D61782E74656D703D25755A
:1002B0002C6D6574726963733D25752C00696E74CD
:1002C0002E74656D703D25642F6F66733D25752F07
:1002D0006761696E3D25752C004E54433D252E32D5
:1002E000662F252B2E32662C0076616C7565733D6A
:1002F000726573746F72653D25752C663D252E33CE
:1003000066487A2C7672656631313D252E33662C2F
:100310000072616E67653D25642D25640A0074696D
:100320006D6572313D25752F252E32662C6C766CED
:10033000733D383139322C70696E733D00616464ED
:10034000723D253032782C6D6F64653D25632C003D
:1003500070726F746F3D554152542C006661646930
:100360006E675F6576656E74733D312C005643434E
:100370002C00696E742E74656D702C004E54433DD4
:100380004125752C006F7074696F6E733D45455043
:10039000524F4D3D256C752C0040384D687A2C67C6
:1003A00063633D372E332E30002C4D43553D007393
:1003B00069673D253032782D253032782D25303251
:1003C000782C66757365733D6C3A253032782C68ED
:1003D0003A253032782C653A25303278004D4F532B
:1003E0004645542044696D6D657220322E322E329E
:1003F0002041756720313220323032312030393A95
:1004000034363A313220417574686F7220736173EB
:100410006368615F6C616D6D65727340676D782EA6
:100420006465002B52454D3D454550524F4D522C71
:10043000633D256C752C703D25752C6E3D256C75C6
:100440002C6372633D253034780A00424F4F5400CC
:100450002B52454D3D6C6F73743D25752C73796E31
:10046000633D25752C636E743D25752C633D256CAD
:10047000642C743D252E316675730A00000000005F
:10048000240027002A0000000000250028002B007F
:10049000040404040404040402020202020203032A
:1004A0000303030301020408102040800102040832
:1004B00010200102040810200000000800020100C2
:1004C0000003040700000000000000002B52454D0F
:1004D0003D454550524F4D572C633D256C752C7052
:1004E0003D25752C6E3D256C752C773D25752C664C
:1004F0003D25752C6372633D253034780A002B4905
:10050000324325633D002B52454D3D454550524FEA
:100510004D522C696E6974008C197C1911241FBE10
:10052000CFEFD8E0DEBFCDBF23E0A8E3B1E001C04C
:100530001D92A230B207E1F711E0A0E0B1E0ECEBD0
:10054000F6E502C005900D92A833B107D9F712E085
:10055000CDE8D2E004C02197FE010E949027CC385C
:10056000D107C9F70E94491A0C94512B0C94000032
:100570008091C402833008F046C02091BC023091C3
:10058000BD0212161306B4F4E82FF0E0EE0FFF1FC1
:10059000EA54FD4F9091C3022091C0023091C102F4
:1005A0004091C20203C04695379527959A95DAF790
:1005B00031832083823019F08F5F8093C4021092C0
:1005C000C5028091C4028130F9F018F08230F1F058
:1005D000089586E480937C0080E490E09093BF02CD
:1005E0008093BE021092C30288EF9FEF9093BD02EA
:1005F0008093BC021092C0021092C1021092C202FB
:100600008FEE80937A0008958EE4E4CF88EC809397
:100610007C0080E490E09093BF028093BE02109231
:10062000C30280EE9FEFE2CFBC01615E7F4F2FEFF0
:100630003FEF86179707D9F0FC014191CF0124279E
:10064000422F42954227042E469546954025042E7A
:10065000469540254770022E232F469507944795CF
:10066000302D24270694479530252427E2CFC90151
:10067000089581E992E00E94140390939002809380
:100680008F020895EEEFF1E083E5DF011D928A9578
:10069000E9F7ECEFF1E08FEF9FEF918380838BE43C
:1006A000858FA8E1B2E08C9181608C9380E090E02E
:1006B000A0E9B0E4868F978FA0A3B1A389E690E06C
:1006C00093A382A38CE291E095A384A397A386A32E
:1006D00087E685A780E886A785E080AB80E090E08C
:1006E000A0ECBFE784AF95AFA6AFB7AF20E030E88E
:1006F00030933D0220933C0280AF91AFA2AFB3AFE5
:1007000089E1E8E1F2E0A5E9B2E001900D928A9575
:10071000E1F708954F925F926F927F928F929F922E
:10072000AF92BF92CF92DF92EF92FF920F931F93FF
:10073000CF93DF936A0128013901C82F880FDD0BA1
:10074000FE01EE0FFF1FEF57FD4F8FEF9FEF9183DD
:100750008083CE01880F991FE0918D02F0918E0267
:10076000E80FF91F84859585892B29F4DE01AF5A9E
:10077000BD4F5E961C922FEFC216D20609F058C0EC
:100780008CE08C9FD0018D9FB00D1124AF5ABD4FCE
:100790001A968D919C911B97892BC9F181E090E06D
:1007A0001B969C938E931A9716961D921D921D92DE
:1007B0001C92199704851585013030E2130714F057
:1007C00000E010E217FF02C010E000E09CE0D92E2C
:1007D000DC9EC001DD9E900D1124AC014F5A5D4F8F
:1007E0007A01B801012E000C880B990B0E94F625A6
:1007F000F70162837383848395832196DC9EF001E5
:10080000DD9EF00D1124EF5AFD4F11830083DF911F
:10081000CF911F910F91FF90EF90DF90CF90BF90FD
:10082000AF909F908F907F906F905F904F900895C2
:100830006F3F760711F4648575858B0161307042D6
:1008400014F000E010E217FF02C010E000E0B60173
:1008500041E0C41640E2D40614F060E070E277FF95
:1008600002C070E060E0601B710B072E000C880B6B
:10087000990B0E94F6254B015C0120E030E0A901B4
:100880000E94EF25882319F220E030E040E059E390
:10089000C501B4010E945526A30192010E9455266C
:1008A0002B013C0120E030E0A9010E94AB28181682
:1008B00024F077FA709477F8709420913402309194
:1008C00035024091360250913702C301B2010E94B5
:1008D00055269B01AC010E9497270E947C288CE042
:1008E000782E7C9E90017D9E300D1124F901EF5AE7
:1008F000FD4F7F01738762876115710509F487CF0A
:1009000090E080E00E94F4259B01AC01C501B40198
:100910000E9403284B015C01F70186829782A08622
:10092000B186B801110F880B990B0E94F625F701CB
:10093000628373838483958321967C9EF0017D9EE0
:10094000F00D1124EF5AFD4FD182C08220E030E03B
:10095000A901C501B4010E94EF25811158CF81E0A2
:1009600090E0F7019387828752CFCF92DF92EF9288
:10097000FF920F931F93CF93DF93C0917002D0919A
:10098000710200918B0210918C02F801E084F184D5
:10099000C284D384DE01AE19BF09AC19BD094685F6
:1009A000578541155105A9F59D01DC010E94892754
:1009B0002DE096958795779567952A95D1F79B01B8
:1009C0002E0D3F1DCE018C199D0982179307C0F093
:1009D000F801808D882379F04689578941155105A2
:1009E00051F060916F026E3F30F48150990B68179F
:1009F00019060CF47A01C9012E153F0508F4C70148
:100A0000DF91CF911F910F91FF90EF90DF90CF90EA
:100A1000089524853585280F391F0E9466279A017D
:100A200050E040E00E943927CBCFCF93DF93CDB782
:100A3000DEB728970FB6F894DEBF0FBECDBFE091AA
:100A40008D02F0918E0284859585811520E29207B2
:100A500008F049C0009709F449C00E94B504E0912C
:100A60008B02F0918C02208121FF08C0209170023E
:100A700030917102A901481B590BCA019C838B83D9
:100A8000198281E0E1E00E2E000CFF0BEE0FFF1F3C
:100A9000EE0FFF1F21E030E02C0F3D1FE20FF31F90
:100AA0001082118212821382F89490917702981723
:100AB00039F0809377028091FB0180618093FB0184
:100AC00088E0FE013196A7E6B2E001900D928A958A
:100AD000E1F7789428960FB6F894DEBF0FBECDBF2D
:100AE000DF91CF91089581E0E0E0CDCF80E0FCCFB1
:100AF000082E000C990B9C01220F331FE0918D02F0
:100B0000F0918E02E20FF31F24853585232B29F403
:100B1000DC01AF5ABD4F5E961C929B016130704262
:100B200014F020E030E237FF02C030E020E03587EB
:100B300024872CE0289FF001299FF00D1124EF5A03
:100B4000FD4F13861286FC01EE0FFF1FEF57FD4F7E
:100B5000208131812F3F3F4FE1F020918D02309174
:100B60008E020696880F991F820F931FDC018D91CC
:100B70009C91918380839FB7F8948091FB01806260
:100B80008093FB0125E33CE03093F2012093F101D7
:100B90009FBF0C9415052B9A10928500109284002B
:100BA00010928900109288008091700290917102D9
:100BB00090938B0080938A0086B3866086BBE09119
:100BC0008B02F0918C0280818695817091E089275B
:100BD000809378022091790230917A022F5F3F4F03
:100BE00030937A0220937902243C99E03907A8F0E7
:100BF00080916F00897F80936F005E9880917B0267
:100C0000816080937B023093800220937F028091E9
:100C1000FB0180648093FB01089520916102309173
:100C200062022115310509F44BC090916F00997F44
:100C3000926090936F00309389002093880090E039
:100C400024E09202F0011124EF59FD4F20813181FF
:100C5000232B39F0882319F05E9A9F5FF1CF5E98BD
:100C6000FCCFE0918D02F0918E0224853585232BF7
:100C700009F45E9891E089278093780220E0822F22
:100C8000022E000C990BFC01EE0FFF1FEE0FFF1F51
:100C9000EF59FD4F40815181452B11F1880F991F6C
:100CA000880F991FFC01EF5AFD4FE685F0E0EF5ADF
:100CB000FD4F868D8E3F10F48F5F868F2F5FDFCFC5
:100CC00080916F00897F846080936F00E0918D0236
:100CD000F0918E02848595858115904279F45E9A13
:100CE00080917B02837041F48091790290917A0225
:100CF0009093800280937F022B9808955E98F0CFA6
:100D0000EEEBF4E08491EAEAF4E09491E6E9F4E0B1
:100D1000E491EE23B9F0882339F08330F1F098F4B0
:100D2000813009F1823019F1F0E0EE0FFF1FEA5730
:100D3000FB4FA591B4918FB7F894EC9190959E23B9
:100D40009C938FBF08958730A9F08830C9F0843014
:100D500059F7809180008F7D03C0809180008F774C
:100D600080938000E1CF84B58F7784BDDDCF84B5DB
:100D70008F7DFBCF8091B0008F778093B000D4CF70
:100D80008091B0008F7DF9CFCF93DF9390E0FC018D
:100D9000EC55FB4F249180579B4FFC018491882395
:100DA000D1F090E0880F991FFC01E458FB4FA5910A
:100DB000B491FC01EA57FB4FC591D49161110EC06B
:100DC0009FB7F8948C91E22FE0958E238C93288125
:100DD000E223E8839FBFDF91CF9108958FB7F89406
:100DE000EC91E22BEC938FBFF6CF3FB7F894809154
:100DF000480190914901A0914A01B0914B0126B55B
:100E0000A89B05C02F3F19F00196A11DB11D3FBF42
:100E1000BA2FA92F982F8827BC01CD01620F711D11
:100E2000811D911D43E0660F771F881F991F4A950A
:100E3000D1F708958F929F92AF92BF92CF92DF9297
:100E4000EF92FF924B015C010E94F5066B017C0161
:100E50000E94F5066C197D098E099F09683E734052
:100E600081059105A8F321E0821A9108A108B10833
:100E700088EEC80E83E0D81EE11CF11C8114910499
:100E8000A104B10429F7FF90EF90DF90CF90BF90BD
:100E9000AF909F908F9008952FB7F8946091440180
:100EA0007091450180914601909147012FBF0895AF
:100EB0008F929F92AF92BF92CF92DF92EF92FF926A
:100EC0000E944C076B017C018091FB0180FD2FC0CB
:100ED0008090B2029090B302A090B402B090B5029C
:100EE0009FB7F8948091FB0181608093FB019FBFC5
:100EF0000E944C07C818D908EA08FB0829E8C2165E
:100F000023E1D206E104F104DCF438E8C32E33E136
:100F1000D32EE12CF12CC60ED71EE81EF91EC0926E
:100F2000B202D092B302E092B402F092B502FF9006
:100F3000EF90DF90CF90BF90AF909F908F900895EB
:100F400024EFC22EDD24D394E12CF12CE4CF0895BC
:100F5000AF92BF92CF92DF92EF92FF920F931F93C7
:100F6000CF93DF936C017B018B01040F151FEB0105
:100F70005E01AE18BF08C017D10759F06991D601BC
:100F8000ED91FC910190F081E02DC6010995892B2E
:100F900079F7C501DF91CF911F910F91FF90EF90ED
:100FA000DF90CF90BF90AF900895FC01538D448D9A
:100FB000252F30E0842F90E0821B930B541710F004
:100FC000CF96089501970895FC01918D828D981711
:100FD00061F0A28DAE0FBF2FB11D5D968C91928DE9
:100FE0009F5F9F73928F90E008958FEF9FEF08951A
:100FF000FC01918D828D981731F0828DE80FF11DE3
:10100000858D90E008958FEF9FEF0895FC01918DFD
:10101000228D892F90E0805C9F4F821B91098F73F6
:101020009927089584E591E00E94060821E0892B24
:1010300009F420E0822F0895FC01A48DA80FB92F98
:10104000B11DA35ABF4F2C91848D90E001968F73F0
:101050009927848FA689B7892C93A089B1898C910F
:10106000837080648C93938D848D981306C002885E
:10107000F389E02D80818F7D80830895EF92FF9228
:101080000F931F93CF93DF93EC0181E0888F9B8DAB
:101090008C8D98131AC0E889F989808185FF15C065
:1010A0009FB7F894EE89FF896083E889F989808188
:1010B0008370806480839FBF81E090E0DF91CF9157
:1010C0001F910F91FF90EF900895F62E0B8D10E079
:1010D0000F5F1F4F0F731127E02E8C8D8E110CC0E8
:1010E0000FB607FCFACFE889F989808185FFF5CF33
:1010F000CE010E941C08F1CFEB8DEC0FFD2FF11DEE
:10110000E35AFF4FF0829FB7F8940B8FEA89FB896F
:1011100080818062CFCF0F931F93CF93DF938C0199
:10112000D0E0C0E0F801EC0FFD1F6491662341F0B0
:1011300084E591E00E943E08892B11F02196F2CFC0
:10114000CE01DF91CF911F910F910895CF93DF933F
:10115000EC01888D8823B9F0AA89BB89E889F989CF
:101160008C9185FD03C0808186FD0DC00FB607FC04
:10117000F7CF8C9185FFF2CF808185FFEDCFCE0137
:101180000E941C08E9CFDF91CF910895DC01ED9119
:10119000FC910190F081E02D6A3010F4605D0994BB
:1011A000695AFDCFDC01ED91FC910190F081E02DB9
:1011B0006AE00994DC015E968D919C915F975C9644
:1011C0002D913C915D978217930740F45A96ED91CB
:1011D000FC91E80FF91F808190E008958FEF9FEF59
:1011E0000895FC01848D958D268D378D821B930B80
:1011F0000895EF92FF920F931F93CF938C01C62F08
:1012000070E084E0759567958A95E1F7F80184A907
:1012100095A90E94C6087C016C2F6F70F80184A903
:1012200095A90E94C6088E0D9F1DCF911F910F9109
:10123000FF90EF900895FC01248135818281938194
:101240002817390768F480819181A9014F5F5F4FAA
:1012500055834483FC01E20FF31F808190E00895E1
:101260008FEF9FEF08954A960C941B09089590E024
:1012700080E00895409128022EEE3CE74203B00141
:10128000439F700D1124072E000C880B990B60579B
:101290007E4F834B9B4F2091B8023091B90250E0B2
:1012A00040E00E94392730933F0220933E02C9015B
:1012B00008952091BA023091BB0286E036952795B9
:1012C0008A95E1F7ECEFF1E085A5820F932F911D50
:1012D00085579F4F9695982F88279795879566A550
:1012E00070E00E947527CB01499608952F923F9296
:1012F0004F925F926F927F928F929F92AF92BF9226
:10130000CF92DF92EF92FF920F931F93CF93DF93D1
:1013100000D000D000D0CDB7DEB78091840090918E
:1013200085009A83898380913A0190913B019C8347
:101330008B8386B3789400913C0110913D018B81A1
:101340009C81C980DA80D8011696ED91FC9117979F
:101350009F012F5F3F4FF7FF1DC017963C932E93C1
:10136000169726960FB6F894DEBF0FBECDBFDF915D
:10137000CF911F910F91FF90EF90DF90CF90BF9092
:10138000AF909F908F907F906F905F904F903F9025
:101390002F90089517963C932E931697BF01660FD2
:1013A000771FE60FF71FE00FF11FA0E0A82F992786
:1013B0008827E12C8C299D29AE2980879187A287D7
:1013C0002436310571F6F894E99887EA97E090930E
:1013D000030180930201789480E090E0A0ECBFE7E5
:1013E000F80180839183A283B383868197819E8352
:1013F0008D830B970CF4B1C0780198E0E90EF11CD5
:10140000F70150E040E020E0812C912C54016D80E8
:101410007E80A1E06A1A710846155705FCF44F5FFB
:101420005F4F21903190419080819181A2818219FA
:101430009309A4091C014A2EB4E02B1ABCEF3B0A05
:10144000410832E8231639E43306410428F7B0E0B6
:10145000880E991EAA1EBB1E2F5FDECF2B3008F40C
:101460007CC030E050E040E0C501B4010E94392763
:1014700049015A01842FB90190E00E94F4252FE818
:1014800032EC45EF5BE30E9455260E947C28CB019D
:10149000A0E04A2D9401281B390B4A0B34018A2CF9
:1014A000680E791E8A1E61E070E0912C212C312C8F
:1014B0002101D701AD90BD90CD907D018D919D9181
:1014C000AC918A199B09AC0982179307A40750F0C5
:1014D000681679068A0630F0B0E0280E391E4A1EDA
:1014E0005B1E93946F5F7F4F8D819E818617970758
:1014F00001F7BAE0B91588F5C201B1010E94F425DF
:101500006B017C01692D70E090E080E00E94F42581
:101510009B01AC01C701B6010E94032820E030E026
:1015200040E652E40E94962720E030E040E05EE38F
:101530000E9455269B01AC0160E074E284E799E4C7
:101540000E94032820E030E040E05FE30E9455263F
:10155000F80160837183828393838FEF9FEFDC01B7
:1015600080933E0190933F01A0934001B0934101CD
:10157000F8CE80E592E00C948B08FC01862F208148
:101580003181A9014150510951834083121613063C
:1015900024F480EE92E00E941B0908952091060237
:1015A000420F4093060202970CF064ED60935002E4
:1015B0000895CF93DF931F92CDB7DEB719821092B3
:1015C000FB01F894E99887EA97E0909303018093F0
:1015D0000201EFE6F0E08081887D80831092810037
:1015E0000E94800660E086E00E94C406E0E7F0E02A
:1015F00080818E7F80831092B10078940F90DF916C
:10160000CF910895AF92BF92DF92EF92FF920F9326
:101610001F93CF93DF935C010FE812E0D0E0C0E0AE
:10162000F801D1908F017501EC0EFD1EC7010E94DB
:101630001327D81621F06D2DC7010E941B27219674
:10164000C132D10569F78FE892E0DF91CF911F9108
:101650000F91FF90EF90DF90BF90AF900895CF92E1
:10166000DF92EF92FF920F931F93CF93DF93EB01E3
:101670007B0121E2E20EF11C8B016C01C61AD70A34
:10168000C601800F911F0E941327F80181938F01DB
:10169000EE15FF05A9F7CE01DF91CF911F910F91B4
:1016A000FF90EF90DF90CF900895CF92DF92EF926E
:1016B000FF920F931F93CF93DF93CDB7DEB7C05444
:1016C000D1090FB6F894DEBF0FBECDBF9E01215BDE
:1016D0003F4F2F964EAD5FAD2F9760E470E0CE0187
:1016E00001966C010E9462257C019FE3E916F104DA
:1016F0007CF1C70102960E943A298C01009751F1B2
:101700009E01215B3F4F2F964EAD5FAD2F97B701E6
:101710000E9462257C01A701B80184E591E00E9446
:10172000A807C016D10619F0C8010E94D629C70122
:10173000C05CDF4F0FB6F894DEBF0FBECDBFDF91A8
:10174000CF911F910F91FF90EF90DF90CF90089570
:101750008601E1CFE12CF12CEACFF894E99887EAF1
:1017600097E09093030180930201EFE6F0E080811F
:10177000887D80831092810078941092420180913C
:101780003C0190913D010C94D629CF93DF93EC015D
:1017900088819981009721F00E94D62919821882A8
:1017A0001F821E821B821A821D821C82DF91CF91B2
:1017B0000895FB0101900020E9F73197AF01461B26
:1017C000570BDC01ED91FC910280F381E02D09942F
:1017D000CF93DF930E948B08EC0165E371E084E511
:1017E00091E00E94D90B8C0F9D1FDF91CF9108953E
:1017F0007F928F929F92AF92BF92CF92DF92EF92A1
:10180000FF920F931F93CF93DF9300D000D000D0AF
:10181000CDB7DEB78FEF9FEF9A8389831B821C823F
:101820001D821E8281E2E82EF12C670181E2C80E42
:10183000D11C90E2C91694E0D906D9F0DE011196C8
:101840005D0110E000E0F50171905F014701800E3D
:10185000911EC4010E941327781621F0672DC40140
:101860000E941B270F5F1F4F0630110561F776019D
:10187000DCCF1092B1021092B002EFE8F2E081E208
:10188000DF011D928A95E9F781E090E0A0E0B0E0E9
:101890008093910290939202A0939302B09394024A
:1018A0000E9442030E94390390E080E00E94020BF4
:1018B0009FB7F8948091FB018E7F8093FB0180910C
:1018C000FB018D7F8093FB019FBF86E095E026960C
:1018D0000FB6F894DEBF0FBECDBFDF91CF911F9141
:1018E0000F91FF90EF90DF90CF90BF90AF909F90BF
:1018F0008F907F900C94E80B0F931F93CF93DF93FF
:10190000EC01088519850617170708F48B01095F94
:101910001F4F087F8E819F818017910721F1888159
:1019200099810115110549F1009719F1B8010E943B
:101930005F2A9983888388819981892B11F410E02B
:1019400000E01F830E838A819B810817190710F41A
:101950001B830A838A819B812C813D818217930797
:1019600010F49D838C8381E0DF91CF911F910F91C3
:101970000895C8010E943A29DCCF009701F30E9424
:10198000D62919821882DDCF1F93CF93DF93EC0104
:101990008A819B819C012F5F3F4F4E815F8184171D
:1019A000950750F4E881F9813B832A83E80FF91FFA
:1019B000608381E090E00CC0162FB901CE010E9437
:1019C0007C0C811109C0CE010E94C50B90E080E023
:1019D000DF91CF911F910895E881F9818A819B81E0
:1019E0009C012F5F3F4F3B832A83E80FF91F108331
:1019F000E0CFCF93DF93EC018A89882381F08C8D2F
:101A00009D8D8F3F910530F081E08E871D86DF919F
:101A1000CF910895CE014A960E94C40CF7CF8C85D1
:101A20008617170689F781E08A8BF0CFFC0197852E
:101A30009D7F913021F4CF0184960C94C40C90E0EA
:101A400080E00895FC011582148213821282608561
:101A50007185695F7F4F687F0C947C0C8F929F9299
:101A6000AF92BF92DF92EF92FF920F931F93CF93AB
:101A7000DF93EC01D62EECA0FDA008A519A5AEA021
:101A8000BFA08CA99DA9DC01ED91FC910680F78196
:101A9000E02D0995B2E5DB1631F0E4E5DE1619F02C
:101AA000F1E4DF121DC08CA89DA8DF928EEF94E0B8
:101AB0009F938F931F9288E08F938CE491E09F9384
:101AC0008F930E9432256CE471E0C4010E94D90B0F
:101AD0008DB79EB707960FB6F8949EBF0FBE8DBF09
:101AE0000E0D1F1DEA0CFB1C0E151F0539F0D80149
:101AF0006D918D01CE010E94F908F6CF8CA99DA9A8
:101B00000E94D2088CA99DA9DC01ED91FC91068070
:101B1000F781E02D0995CE0184960E94220D1F8643
:101B200080E0DF91CF911F910F91FF90EF90DF90B8
:101B3000BF90AF909F908F900895CF938091EE02C9
:101B40009091EF022091EC023091ED028217930701
:101B5000D0F4E091EA02F091EB02E80FF91F8081E6
:101B600090E02091D502213089F487FD19C02091A1
:101B7000D202C7E02817190651F064E586EC92E01E
:101B8000CF910C942E0D8FEF9FEFEBCFC8E08AEE34
:101B900092E00E94220D1092D5028C2FCF910895D1
:101BA000C6E0F5CF1F93CF93DF93162F21E0FC0102
:101BB0002787EC01A496CE010E94220D612FCE0151
:101BC000DF91CF911F910C94C40CBF92CF92DF9202
:101BD000EF92FF920F931F93CF93DF93EC01162F99
:101BE0008E856A3009F0A3C0823030F08D85833055
:101BF00008F46DC081E08E878E85823008F453C072
:101C00008A89882309F44FC08C8D9D8D009711F42B
:101C100021E02E872E85223009F47EC0233009F082
:101C200042C0CE014A960E94220D8F85882309F476
:101C300062C01C858CA99DA9DC01ED91FC910680F8
:101C4000F781E02D0995ECA8FDA881E48F938EEF34
:101C500094E09F938F931F9288E08F938CE491E0A0
:101C60009F938F930E9432256CE471E0C7010E941C
:101C7000D90B612FCE010E94F9088CA99DA90E9461
:101C8000D2088CA99DA9DC01ED91FC910680F78119
:101C9000E02D09952DB73EB7295F3F4F0FB6F89459
:101CA0003EBF0FBE2DBF1E861D868A89882329F060
:101CB000CE014A960E94220D1A8ADF91CF911F9180
:101CC0000F91FF90EF90DF90CF90BF9008958130FB
:101CD00009F490CF823009F08FCF1D8A40E150E0A7
:101CE00070E060E0CE0143960E94202370E0CE01B8
:101CF0000E94F90C81CF6C85CE010E94D20DE8A91B
:101D0000F9A9309721F0188A099581E0888B61E460
:101D1000CE010E942E0DC7CF188A2E8D3F8DEEA5C5
:101D2000FFA5821B930B099581E0888BBCCF813086
:101D300021F26D3011F2811179C0ED85E1116DC094
:101D40006B3209F06DC081E08E0F8D87EC0FFD2F97
:101D5000F11D138BFE01E80FF11D138A8B898B3265
:101D600009F0ABCF6E0133E1C30ED11C82E58F9336
:101D70008EEFE82E84E0F82EFF92EF921F9298E00B
:101D8000B92EBF920CE411E01F930F930E943225ED
:101D9000B801C6010E943E2BADB7BEB717960FB66D
:101DA000F894BEBF0FBEADBF892BF1F181E48F93D4
:101DB000FF92EF921F92BF921F930F930E943225C2
:101DC000B801C6010E943E2B2DB73EB7295F3F4F99
:101DD0000FB6F8943EBF0FBE2DBF892B09F46DCF0F
:101DE00084E58F93FF92EF921F92BF921F930F9300
:101DF0000E943225B801C6010E943E2BADB7BEB786
:101E000017960FB6F894BEBF0FBEADBF892B09F071
:101E100054CF82E08E871D8650CFE63008F493CFF2
:101E20001D8681E08E8749CF83E0F4CFE62EF12C2A
:101E3000C7010E941C2B892B19F1ED8581E08E0FC3
:101E40008D87EC0FFD2FF11D138B833050F78230FF
:101E500009F033CF1D8A40E150E070E060E0CE0130
:101E600043960E94202370E0CE01DF91CF911F9115
:101E70000F91FF90EF90DF90CF90BF900C94F90CF2
:101E80001C3209F41ACFC7010E94E324892B49F2BE
:101E900014CFCF93DF93C091FA02D091FB02E88177
:101EA000F9810084F185E02DCE010995892B69F037
:101EB000E881F9810284F385E02DCE010995682F30
:101EC00086EC92E00E94E50DEACFDF91CF91089574
:101ED0000E94120881110C94490F0895EF92FF920D
:101EE0000F931F93CF93DF93EC018B017A018F85C2
:101EF0008D7F813051F0F12CE12CC701DF91CF9122
:101F00001F910F91FF90EF9008956EA17FA1640F34
:101F1000751F8AA59BA56817790788F42CA13DA198
:101F20008EA19FA1A701B801820F931F0E94352B9C
:101F30008EA19FA18E0D9F1D9FA38EA3DECF6F5FED
:101F40007F4FCE0184960E947C0C8111E7CFD3CFC6
:101F5000FF920F931F93CF93DF93CDB7DEB7A9976F
:101F60000FB6F894DEBF0FBECDBFF82E8E010E5D0A
:101F70001F4F88E0F80111928A95E9F78091FB01E3
:101F800081FF0CC089A5816089A789E1E8E1F2E0C1
:101F9000A5E9B2E001900D928A95E1F780910802DF
:101FA000909109029093AF028093AE020E94390390
:101FB000BE016F5F7F4F8091B0029091B1020E948D
:101FC0002F0BF1100BC041E250E0BE016F5F7F4F5D
:101FD0008FE892E00E94282B892BC9F08091B002F3
:101FE0009091B1029C012E5B3F4F2115344008F0C7
:101FF0009FC081969093B1028093B0028091B0020D
:102000009091B1020E94020B81E288A701C018A63C
:102010000E944C076093B2027093B3028093B402A3
:102020009093B5029FB7F8948091FB018E7F8093C7
:10203000FB018091FB018D7F8093FB019FBF80910D
:10204000910290919202A0919302B09194028AA37E
:102050009BA3ACA3BDA38091B0029091B1029FA3BA
:102060008EA368E186EC92E00E94D20D63EF86ECCD
:1020700092E00E94160D48E050E0B80186EC92E034
:102080000E946E0F0E949D0DE091B002F091B1028E
:10209000809190028F9380918F028F9389A51F92D8
:1020A0008F9388A51F928F93209191023091920275
:1020B0004091930250919402AFE1B0E00E945B27FF
:1020C0008B019C010F51110921093109CF0161E2F6
:1020D00070E00E947527060F171F211D311D3F93C9
:1020E0002F931F930F93FF93EF938DA18F938CA149
:1020F0008F938BA18F938AA18F938CEC94E09F9305
:102100008F9384E591E09F938F930E94550B0FB6B8
:10211000F894DEBF0FBECDBFA9960FB6F894DEBF10
:102120000FBECDBFDF91CF911F910F91FF9008950A
:102130001092B1021092B00280919102909192029D
:10214000A0919302B09194020196A11DB11D8093BC
:10215000910290939202A0939302B09394020E94F2
:1021600039034CCF609150026058770B64507E4F1A
:102170008091060287FD12C041E552E0461B570BD5
:10218000453560F484170CF4482F10920602042E93
:10219000000C550B86EC92E00C946E0F40E0F5CFEE
:1021A000462F50E0BC0186EC92E00E946E0F0C942A
:1021B0009D0D8F929F92AF92BF92CF92DF92EF923E
:1021C000CF93DF938091B2001092B20087B3B89A98
:1021D00080FF09C080913801909139010196909358
:1021E0003901809338018091380190913901109222
:1021F00039011092380120911E0230911F022115E1
:10220000310509F4EEC090916F00946090936F00D7
:10221000C0908A00D0908B008091840090918500BE
:10222000C81AD90AE12C8091840090918500820F10
:10223000931F90938B0080938A00B29A80911E0224
:1022400090911F02C81AD90AE10880917B0281FD92
:1022500039C080FD06C080917F0290918002029774
:1022600088F120917B0222606E2DA601062E000CC3
:10227000770BDB01CA01342F3295307F2F70232B6F
:1022800020937B02392F3295307F242F22952F7097
:10229000232B20937C02362F3295307F292F2295D5
:1022A0002F70232B20937D022B2F2295207F862FAA
:1022B00082958F70822B80937E028091FB018064D7
:1022C0008093FB0110927A021092790288E0E7E68F
:1022D000F2E0AFE5B2E001900D928A95E1F77894D3
:1022E000C0917602CE3F08F091C0C330F0F04E2D81
:1022F0009601042E000C550BCA01B9010E94F62567
:1023000020917202309173024091740250917502D3
:102310000E949727CD3F09F472C0609372027093B8
:1023200073028093740290937502CF5FC09376021C
:10233000C0905B02D0905C02C114D10409F446C085
:1023400020915702309158024091590250915A02FF
:1023500060915302709154028091550290915602FF
:102360000E94972760935302709354028093550202
:102370009093560231E0C31AD108D0925C02C09209
:102380005B02C0918D02D0918E02CD2809F06CC005
:1023900080915D0290915E029D878C87E0918D0215
:1023A000F0918E02848595859093820280938102BC
:1023B0009FB7F8948091FB0180628093FB0125E335
:1023C0003CE03093F2012093F1019FBFDF91CF9168
:1023D000EF90DF90CF90BF90AF909F908F900C9434
:1023E0001505C0908A00D0908B0080918400909158
:1023F0008500C81AD90AE12C0E94CB051FCF20E026
:1024000030E04AE753E40E94032887CF20E030E021
:1024100048EC52E4609172027091730280917402F0
:10242000909175020E9455264B015C014E2D96013C
:10243000042E000C550BCA01B9010E94F6259B0120
:10244000AC01C501B4010E94972720E030E04AECBE
:1024500052E40E9403286093720270937302809387
:1024600074029093750264CF0E9475287D876C87F3
:10247000ADCFCF92DF92EF92FF926091B602709152
:10248000B70290E080E00E94F4259B01AC0160E07F
:1024900070EC8FE797E40E94032820E030E040E8EA
:1024A0005FE30E94962723EC35EF48EA5EE30E9443
:1024B00055260E94B82820E030EE46E755E40E94F9
:1024C00003282FE03FEC4BE55BE30E9497279B013D
:1024D000AC0160E070E080E89FE30E94032823E302
:1024E00033E948E853E40E9496276B017C01609130
:1024F0002B026F3FB1F0062E000C770B880B990B67
:102500000E94F62520E030E040E85EE30E94552678
:10251000A70196010E949727FF90EF90DF90CF9040
:10252000089560E070E080EC9FE7F2CFCF92DF92F9
:10253000EF92FF920F931F93CF93DF93CDB7DEB748
:10254000A1970FB6F894DEBF0FBECDBF0E94B90AA7
:102550008DED93E00E94E80B84E591E00E94A608CF
:102560000E94B90A81E230E020E0F901809357002F
:10257000649142E050E0FA01809357007491E4E0E6
:10258000F0E080935700849199E0F901909357000F
:102590002491E3E0F0E0909357003491FA01909396
:1025A000570094911F929F931F923F931F922F93D6
:1025B0001F928F931F927F931F926F938FEA93E0E6
:1025C0009F938F9304E511E01F930F930E94550B87
:1025D00089EA93E00E948B0886E592E00E948B08CE
:1025E00089E993E00E94E80BC8010E94A6080E94B6
:1025F000B90A209191023091920240919302509138
:102600009402AFE1B0E00E945B276B017C01FFE127
:10261000CF1AD108E108F1088091B0029091B1027F
:1026200061E270E00E947527C60ED71EE11CF11C06
:10263000FF92EF92DF92CF9285E893E09F938F9382
:102640001F930F930E94550B1F9286E08F938CE788
:1026500093E09F938F931F930F930E94550B82E7F4
:1026600093E00E948B088DE693E00E948B088CE536
:1026700093E00E948B0880E593E00E948B08809194
:1026800018020FB6F894DEBF0FBECDBF81FD42C168
:1026900084E51F928F931F9287E18F938DE393E0E0
:1026A0009F938F9304E511E01F930F930E94550BA6
:1026B0008FE38F9380E88F931F921F921F9288E081
:1026C0008F938EE193E09F938F931F930F930E94BC
:1026D000550B19A286E388A3BE01605E7F4FC80137
:1026E0000E94D90B6CE2C8010E943E08209126028C
:1026F000309127020FB6F894DEBF0FBECDBF211573
:10270000310509F409C18091240290912502281B0A
:10271000390B50E040E060E070E080E094E00E941F
:1027200039273F932F93809125028F938091240224
:102730008F9381E193E09F938F9304E511E01F93C2
:102740000F930E94550BC8010E94A6080E94B90A67
:1027500080912802082E000C990B982F88279295BB
:10276000907F092E000CAA0BBB0B83539343A34706
:10277000B04CBF93AF939F938F93809137028F9309
:10278000809136028F93809135028F93809134022D
:102790008F938091180281701F928F9389EE92E03F
:1027A0009F938F931F930F930E94550B60912B0261
:1027B0000FB6F894DEBF0FBECDBF6F3F09F4AFC0B8
:1027C000062E000C770B880B990B0E94F62520E053
:1027D00030E040E85EE30E945526162F072FF82EC2
:1027E000E92E0E943912EF92FF920F931F939F934D
:1027F0008F937F936F9389ED92E09F938F9304E57E
:1028000011E01F930F930E94550B0E9459092091CC
:102810002A021F922F93209129021F922F939F9398
:102820008F938DEB92E09F938F931F930F930E9452
:10283000550B80912C021F928F93809119021F9249
:102840008F9385EA92E09F938F931F930F930E943B
:10285000550B0E943A09BC0190E080E00E94F425EB
:1028600020E030E04AE754E40E9403289F938F93CE
:102870007F936F938BE992E09F938F931F930F93B6
:102880000E94550B0FB6F894DEBF0FBECDBF8091EE
:102890001F028F9380911E028F93809123028F934A
:1028A000809122028F93809121028F938091200248
:1028B0008F9384E792E09F938F931F930F930E94CF
:1028C000550B809130021F928F9380912F028F932E
:1028D00080912E028F9382E692E09F938F931F93B5
:1028E0000F930E94550BC8010E94A6080FB6F894DA
:1028F000DEBF0FBECDBFA1960FB6F894DEBF0FBEF0
:10290000CDBFDF91CF911F910F91FF90EF90DF909E
:10291000CF9008958CE4BDCE20E030E202CF10E0ED
:1029200000E080ECF82E9FE7E92E5BCF2F923F92DC
:102930004F925F926F927F928F929F92AF92BF92CF
:10294000CF92DF92EF92FF920F931F93CF93DF937B
:1029500000D0CDB7DEB79A83898384ED809350028F
:10296000109207021092060241E0242E42E0342E1B
:1029700054E5E52E51E0F52E62E3C62E62E0D62E38
:10298000412C512C70E8672E7FE3772E89819A8144
:102990009C01215031093A832983181619060CF03D
:1029A000E1C21091500280EE92E00E941B09E0917A
:1029B0005002E058E53508F0E4E5F0E0E450FE4F61
:1029C00080838091500291E0980F90935002143DC3
:1029D00011F58093500229813A81232BB9F6893B66
:1029E000A9F680910602823089F682E498E09093FD
:1029F00041028093400285E0EAE0F1E0A2E4B2E027
:102A000001900D928A95E1F787E08093060284ECAD
:102A100080935002BBCF1A3811F484EDF9CF1938E6
:102A200009F0B4CF90910502943509F489C108F0FA
:102A300059C0923209F412C180F5923109F4DBC019
:102A4000F0F4903109F4FBC0913109F09FCF00916F
:102A50000102109102022091030230910402409180
:102A6000FF01509100026091FC017091FD01809185
:102A7000FE018F3F09F480E00E948A0387CF2981FD
:102A80003A81903209F4E7C042E060EC913209F0FB
:102A90007DCFC9010E94CE0A79CF913509F442C198
:102AA000C0F4933209F4DFC0903509F06FCF60E0D5
:102AB000CE0101960E94BD0A823941F49FB7F89475
:102AC0008091FB0182608093FB019FBF0E945807A9
:102AD0005DCF923509F4CAC0933509F057CF0E94F3
:102AE000961254CF963809F4A3C108F059C0933810
:102AF00009F462C160F5963509F4C3C0923809F053
:102B000045CF61E0CE0101960E94BD0A20911E02D0
:102B100030911F02820F932F911D90931F0280937B
:102B20001E0280911E0290911F029F938F939F938C
:102B30008F9380E192E09F938F93FF92EF920E9498
:102B4000550B0FB6F894DEBF0FBECDBF1FCF943824
:102B500009F442C1953809F019CF61E0CE01019620
:102B60000E94BD0A2091700230917102820F932F52
:102B7000911D9093710280937002809171028F93E6
:102B8000809170028F933F922F92FF92EF920E945A
:102B9000550B0F900F900F900F900F900F90F6CE57
:102BA000943909F4D8C0D8F4913909F486C093391E
:102BB00009F0ECCE1FB7F89460E0CE0101960E94B8
:102BC000BD0A823929F48091FB0182608093FB0168
:102BD0008091FB018E7F8093FB011FBFADC09D3EA6
:102BE00009F436C19E3E09F474C1953909F0CECE80
:102BF0000E94F80BCBCE89819A819C01215031092A
:102C00003A83298318161906BCF480EE92E00E94DC
:102C10001B09282F2F7034E0959587953A95E1F799
:102C20008F70880F90910602890F809306022A5BAD
:102C3000220F20935002AACE20E088E0F2CF6091CC
:102C4000FF01709100028091FE018F3F09F480E046
:102C50000E9478059BCE44E06CEB1BCF42E062EC17
:102C600089819A8117CF44E068EBFACF4092400205
:102C700050924102609242027092430244E064EC3E
:102C8000EFCF89819A819C01215031093A832983B0
:102C9000181619060CF07ACE80EE92E00E941B09FD
:102CA000E0918B02F0918C0221E0019709F020E085
:102CB000808120FB81F9808369CE1F928CE98F93FC
:102CC0001F9287E18F9388E08F9382E48F9387E34D
:102CD00092E09F938F93FF92EF920E94550B0FB655
:102CE000F894DEBF0FBECDBF08E112E0F80181917C
:102CF0008F011F928F93DF92CF92FF92EF920E94EB
:102D0000550B0F900F900F900F900F900F90F2E0D7
:102D100001331F0759F765E371E084E591E00E94F4
:102D2000D90B34CE0E9442039FB7F8948091FB01E7
:102D300082608093FB019FBF81E00E94A80F26CE96
:102D40001092F4011092F3011092F8011092F9011F
:102D50001092FA011BCE88E292E00E94E80B80906C
:102D6000340290903502A0903602B090370220E0F5
:102D700030E0A901C501B4010E94EF25882351F07C
:102D8000A5019401C501B4010E940029811102C06E
:102D90000E94D90A64EF71E080E090E00E941A0777
:102DA00081E08093420110923E0110923F01109207
:102DB000400110924101EACD61E0CE0101960E94EE
:102DC000BD0A20911E0230911F02281B3109309349
:102DD0001F0220931E02A5CE89819A819C01215059
:102DE00031093A83298302970CF49BCE8091E40247
:102DF0009091E5022091E2023091E302281B390B09
:102E00002230310510F022E030E0E091E002F09154
:102E1000E102E80FF91F4081518150931F02409356
:102E20001E02820F931F9093E5028093E40279CEF5
:102E300061E0CE0101960E94BD0A2091700230919E
:102E40007102281B3109309371022093700295CED4
:102E50008BEF91E00E948B08809161029091620259
:102E6000892B91F110E094E01902F0011124EF5A3E
:102E7000FD4F408951894115510509F44CCF6685B4
:102E8000E0918D02F0918E02862F062E000C990B98
:102E90000696880F991FE80FF91F81818F93808113
:102EA0008F935F934F931F926F93E0EFF1E0FF9347
:102EB000EF93FF92EF920E94550B1F5F0FB6F894AD
:102EC000DEBF0FBECDBFCFCF8DED91E00E94E80BEE
:102ED0005DCD87ED91E00E948B088CEF882E81E01C
:102EE000982E00E810E0B02E902F9370A92E81F458
:102EF0001F930F93E0EDF1E0FF93EF93FF92EF92BA
:102F00000E94550B0F900F900F900F900F900F9005
:102F1000F40181914F011F928F938BEC91E09F936D
:102F20008F93FF92EF920E94550B8B2D8F700F9015
:102F30000F900F900F900F900F908F3051F484EC02
:102F400091E00E948B080F5F1F4F053D110559F658
:102F5000E2CEF3E0AF12F7CF60E284E591E00E94A9
:102F60003E08F1CF0F900F90DF91CF911F910F91FD
:102F7000FF90EF90DF90CF90BF90AF909F908F9099
:102F80007F906F905F904F903F902F9008951F9289
:102F90000F920FB60F9211242F933F938F939F930D
:102FA000AF93BF938091440190914501A091460158
:102FB000B09147013091430126E0230F2D3758F59A
:102FC0000296A11DB11D209343018093440190936B
:102FD0004501A0934601B09347018091480190912B
:102FE0004901A0914A01B0914B010196A11DB11D6B
:102FF0008093480190934901A0934A01B0934B01FB
:10300000BF91AF919F918F913F912F910F900FBEE4
:103010000F901F90189529E8230F0396A11DB11D4D
:10302000D2CF1F920F920FB60F9211242F933F937E
:103030004F935F936F937F938F939F93AF93BF93C0
:10304000EF93FF93E0910201F09103010995FF9145
:10305000EF91BF91AF919F918F917F916F915F9110
:103060004F913F912F910F900FBE0F901F90189589
:103070001F920F920FB60F9211242F933F934F93ED
:103080005F936F937F938F939F93AF93BF93EF93D0
:10309000FF93E0910001F09101010995FF91EF91FB
:1030A000BF91AF919F918F917F916F915F914F9160
:1030B0003F912F910F900FBE0F901F9018951F9268
:1030C0000F920FB60F9211242F933F934F935F935C
:1030D0006F937F938F939F93AF93BF93EF93FF93E0
:1030E00084E591E00E941C08FF91EF91BF91AF91A0
:1030F0009F918F917F916F915F914F913F912F9110
:103100000F900FBE0F901F9018951F920F920FB641
:103110000F9211242F938F939F93EF93FF93E0913E
:103120006401F09165018081E0916A01F0916B0189
:1031300082FD1BC0908180916D018F5F8F73209104
:103140006E01821741F0E0916D01F0E0EC5AFE4F04
:10315000958F80936D01FF91EF919F918F912F91AA
:103160000F900FBE0F901F9018958081F4CF1F9283
:103170000F920FB60F9211248F939F9380913A0173
:1031800090913B01019690933B0180933A019F916E
:103190008F910F900FBE0F901F9018951F920F9256
:1031A0000FB60F9211248F939F93809138019091C5
:1031B0003901019690933901809338018091F10192
:1031C0009091F201181619062CF401979093F201D0
:1031D0008093F1018091F3019091F401009729F01F
:1031E00001979093F4018093F3019F918F910F9039
:1031F0000FBE0F901F9018951F920F920FB60F924F
:1032000011242F933F934F935F936F937F938F93EB
:103210009F93AF93BF93EF93FF930E94CB05FF91D2
:10322000EF91BF91AF919F918F917F916F915F913E
:103230004F913F912F910F900FBE0F901F901895B7
:103240001F920F920FB60F9211248F9380917802E4
:10325000882369F05E9A80916F00897F84608093F3
:103260006F008F910F900FBE0F901F9018955E9872
:10327000F2CF1F920F920FB60F9211242F933F930C
:103280004F936F937F938F939F936091780070918A
:1032900079008091BC029091BD0201969093BD028D
:1032A0008093BC0218161906DCF42091C0023091FC
:1032B000C1024091C202260F371F411D2093C00258
:1032C0003093C1024093C2022091BE023091BF02EE
:1032D0008217930728F010927A0081E08093C5024C
:1032E0009F918F917F916F914F913F912F910F906F
:1032F0000FBE0F901F90189510927A0085E291E012
:103300009093C7028093C6028AEE92E00E94C50B9A
:1033100080EE92E00C94C50BCF93DF93A4E5B1E06F
:1033200013961C921E92129748EE53E060E070E0F4
:1033300014964D935D936D937C93179783E191E081
:1033400011969C938E9385EC90E01D969C938E93A2
:103350001C9784EC90E01F969C938E931E9780ECB4
:1033600090E051969C938E93509781EC90E0539609
:103370009C938E93529782EC90E055969C938E93FB
:10338000549786EC90E057969C938E935697599657
:103390001C9259975A961C925A975B961C925B976F
:1033A0005C961C925C97E6ECF2E0138212824483F6
:1033B00055836683778385E291E0918380838EEFE6
:1033C000848715861686178681E0808B118A128A7B
:1033D00029ED32E087E0E90119928A95E9F7138E29
:1033E000128E158E148E178E168E11A210A213A295
:1033F00012A215A214A217A216A211A610A613A615
:1034000012A615A614A617A616A611AA10AA89E434
:103410009FE093AB82ABB5ABA4ABE1EFF1E08FEFF4
:103420009FEF9183808382E19AE793838283148262
:10343000158216821782108611861286E1E5F2E067
:103440008AE3DF011D928A95E9F788E192E093AF64
:1034500082AF8CEF91E095AF84AFEFE8F2E081E2CC
:10346000EF0119928A95E9F712A211A288E79CEE62
:10347000AFEFBFEF83A394A3A5A3B6A3E6EBF2E05F
:1034800086E0DF011D928A95E9F71786DF91CF91DB
:103490000895CF93DF93CDB7DEB7A1970FB6F89419
:1034A000DEBF0FBECDBF789484B5826084BD84B585
:1034B000816084BD85B5826085BD85B5816085BD2F
:1034C00080916E00816080936E00109281008091E7
:1034D000810082608093810080918100816080936F
:1034E0008100809180008160809380008091B10094
:1034F00084608093B1008091B00081608093B000BF
:1035000080917A00846080937A0080917A00826052
:1035100080937A0080917A008E7F80937A008091E8
:103520007A00806880937A001092C100E091640173
:10353000F091650182E08083E0916001F09161018A
:103540001082E0916201F091630180E1808310922A
:103550006C01E0916801F091690186E08083E0915F
:103560006601F0916701808180618083E09166014E
:10357000F0916701808188608083E0916601F0911D
:103580006701808180688083E0916601F091670126
:1035900080818F7D80830E94B90A8BE494E00E9431
:1035A000E80B84E591E00E94A608EEEFF1E083E5E8
:1035B000DF011D928A95E9F78FEF9FEF9093FD0150
:1035C0008093FC018091D2028E3FC1F08EEF8093F8
:1035D000D2021092D3021092D4021092D50281E04E
:1035E0008093D6021092D7021092D80280EE92E019
:1035F0000E94C50B8AEE92E00E94C50B87E1809382
:10360000D20286E994E19093F5028093F40282EB72
:1036100090E19093F7028093F6028FEF9FEF9093E3
:10362000B1028093B002F12CE12C412C512C3201DB
:10363000EFEFEE16E3E0FE0659F1BE016F5F7F4F3C
:10364000C7010E942F0BCE0103960E94140329810B
:103650003A8128173907C1F44B815C816D817E81E5
:10366000441555056605770578F0F092B102E092B1
:10367000B00281E2FE013196AFE8B2E001900D9216
:103680008A95E1F72A013B01B1E2EB0EF11CD0CFA4
:10369000E090B002F090B102FFEFEF16FF0609F0E4
:1036A000AEC00E94F80B60E084E10E94C40660E0B6
:1036B00083E00E94C40610923102109232021092EE
:1036C000330281E08093420110923E0110923F014B
:1036D0001092400110924101DE0111965D0160E4FB
:1036E000262E312C80914201882309F40FC2C0900C
:1036F0003E01D0903F01E0904001F0904101C114A3
:10370000D104E104F10409F0CAC0C0903402D090A1
:103710003502E0903602F090370220E030E0A90157
:10372000C701B6010E94EF25882351F0A701960139
:10373000C701B6010E940029811102C00E94D90A66
:1037400010927A001092C50264E670E080E090E08A
:103750000E941A070E944C07605E784A8E4F9F4F66
:1037600060933E0170933F0180934001909341012B
:1037700084E391E00E943A29FC0180E090E0A0EC13
:10378000BFE780839183A283B38315821482ABEF5A
:10379000BFEFB783A683DF011896CF018C5C9E4FE5
:1037A0001D921D921D928A179B07D1F7F0933D0140
:1037B000E0933C01F894E6E7F9E0F0930301E0932D
:1037C0000201809169008C6080936900E99A1092EF
:1037D000800081E08093810080916F008160809300
:1037E0006F001092850010928400B09A78940E9425
:1037F0001208882309F476CF0E94490F73CF809175
:103800009602873308F046C087E38093960289E1E9
:10381000E5E9F2E0A8E1B2E001900D928A95E1F7C6
:10382000809190028F9380918F028F93C70161E204
:1038300070E00E947527B0E0A0E05B016D012FE110
:10384000A21AB108C108D108AFE1B0E0A30192010A
:103850000E945B27DC01CB018A0D9B1DAC1DBD1DA9
:10386000BF93AF939F938F93FF92EF927F926F924C
:103870005F924F9283E294E09F938F9384E591E06F
:103880009F938F930E94550B0FB6F894DEBF0FBE27
:10389000CDBF09CF8E3708F4BACF8DE7B6CFFFEF93
:1038A000CF16DF06EF06FF0609F023C1E0913C01C9
:1038B000F0913D0180819181A281B3818093340296
:1038C00090933502A0933602B09337020E94AD0B5D
:1038D000F89410927A0010927B001092C402109219
:1038E000C50296E490937C003092BF022092BE0203
:1038F0001092C302A8EFBFEFB093BD02A093BC0229
:103900001092C0021092C1021092C2028FEE8093F8
:103910007A0078940E944C076B017C01BAEFCB0EC1
:10392000D11CE11CF11C0E944C076C157D058E0515
:103930009F0550F48091C5028823A9F30E94B80224
:103940008091C402823079F7C0903402D090350261
:10395000E0903602F0903702A7019601C701B60148
:103960000E940029811174C020E030E0A901C70144
:10397000B6010E94EF25882309F46AC0E0918B020A
:10398000F0918C026589062E000C770B53E076953A
:1039900067955A95E1F790E080E00E94F4252B01AD
:1039A0003C01A701960160E074E284EF98E40E9474
:1039B00003289B01AC01C301B2010E9497270E941A
:1039C0007C287093710260937002109272021092C0
:1039D000730210927402109275021092760219828C
:1039E0001092FB0186E0EBE7F2E011928A95E9F78D
:1039F000109278028FEF9FEF909382028093810262
:103A00000E94800661E086E00E94C406F89410924D
:103A1000B00081E08093B10080917000816080935C
:103A2000700089ED90E190930301809302018091F1
:103A300069008C6080936900E99A1092800082E0AE
:103A40008093810080916F00887D80936F007894CF
:103A50008091180280FF20C0E090AE02F090AF028B
:103A6000E114F104C9F040901A0250901B026090DA
:103A70001C0270901D0220E030E0A901C301B201D8
:103A80000E94EF25882341F093018201A7016FEF87
:103A90007FEF80E00E948A030E94590990933D02C3
:103AA00080933C020E94391260933802709339026D
:103AB00080933A0290933B020E943A0990933F020E
:103AC00080933E0268E186EC92E00E94D20D67EF9F
:103AD00086EC92E00E94160D6CE084E392E00E9476
:103AE000D010F8948091FB0184608093FB0178945E
:103AF0007ECE0E944C076C157D058E059F0508F44F
:103B000076CE80E090E0A0ECBFE7D8CE8091C502F1
:103B100081110E94B802F894D090FB017894D2FEF3
:103B200009C0F8948091FB018B7F8093FB0178940E
:103B30000E9496120E944C072B013C01D3FE1BC031
:103B4000F8948091FB01877F8093FB01789468E172
:103B500086EC92E00E94D20D64EF86EC92E00E9427
:103B6000160D6FEF86EC92E00E94160D63E081E384
:103B700092E00E94D010D4FE18C0F8948091770291
:103B800089838091FB018F7E8093FB01789468E1AB
:103B900086EC92E00E94D20D65EF86EC92E00E94E6
:103BA000160D61E0C5010E94D010D5FE39C0F89411
:103BB0008091F1019091F201892B09F0A1C18091CE
:103BC000FB018F7D8093FB018FEF9FEF9093F201BC
:103BD0008093F101209181023091820275012F3F83
:103BE000320751F019823B832A839093820280939B
:103BF0008102FE0134967F017894AE14BF0481F0F7
:103C000068E186EC92E00E94D20D62EF86EC92E0D1
:103C10000E94160DB7016A197B09C5010E94D010D8
:103C2000D0FE12C00E944C070091B2021091B30264
:103C30002091B4023091B502601771078207930793
:103C400018F080E00E94A80FD6FE81C0F89486E0AC
:103C5000EBE7F2E0D50101900D928A95E1F78981B9
:103C600081FF50C186E0ABE7B2E01D928A95E9F78B
:103C70008091FB018F7B8093FB01789468E186EC57
:103C800092E00E94D20D66EF86EC92E00E94160D43
:103C900066E0C5010E94D010998192959F708A813B
:103CA000282F2295207FC22EC92A982F92959F7087
:103CB0008B81282F2295207FD22ED92A82958F7032
:103CC0009C81292F2295207FE22EE82AF92EF2945A
:103CD0009FE0F92224E0CC0CDD1CEE1CFF1C2A9591
:103CE000D1F734E0F594E794D794C7943A95D1F797
:103CF000C701B6010E94F6259F938F937F936F9320
:103D000043E0CC0CDD1CEE1CFF1C4A95D1F7FF9262
:103D1000EF92DF92CF928E818F938D818F938981E5
:103D2000869581701F928F93898181701F928F93E6
:103D3000E0E5F4E0FF93EF9384E591E09F938F93A8
:103D40000E94550B0FB6F894DEBF0FBECDBF809119
:103D5000F3019091F401892B09F049CD10927A007A
:103D6000F89482E19AE79093F4018093F3017894B8
:103D70000E943A090E9439126B017C01C0923802FC
:103D8000D0923902E0923A02F0923B02AC019B01E0
:103D90000E940029811105C0C701B6010E94752843
:103DA0004B010E9459097C0190933D0280933C0293
:103DB000BC01990F880B990B0E94F6259B01AC0161
:103DC0000E940029811104C08E149F040CF4470145
:103DD000FF24E72CD62CC52C26016E2C80911902CD
:103DE0008823F1F188151904DCF58091F501909193
:103DF000F601A091F701481659066A0688F1AE2D22
:103E0000C6018B589F4FAF4F8093F5019093F601F9
:103E1000A093F7018091180282FD05C08460809311
:103E200018020E94580700E010E020E231E450E060
:103E300040E06FEF7FEF80E00E948A0389828091EB
:103E400019028A8368E186EC92E00E94D20D61EF4C
:103E500086EC92E00E94160D62E0C5010E94D0102F
:103E600080912C02882371F12091F8013091F901A1
:103E70004091FA0142165306640620F1A4E08A9F9D
:103E8000C0011124092E000CAA0BC80ED91EEA1E6F
:103E9000C092F801D092F901E092FA0168E186EC53
:103EA00092E00E94D20D60EF86EC92E00E94160D27
:103EB000682D86EC92E00E94160D6CE084E392E09F
:103EC0000E94D010F8941092C4021092C502B6E479
:103ED000B0937C003092BF022092BE021092C302C7
:103EE000E8EFFFEFF093BD02E093BC021092C00236
:103EF0001092C1021092C2028FEE80937A00F7CD29
:103F000078948ECE80917B028E7F80937B02B0CEA0
:103F1000AFE0B0E0EEE8FFE10C94E9226C011B0198
:103F20005A01FC0117821682838181FF48C39E01DA
:103F30002F5F3F4F4901F6019381F10193FD859178
:103F400093FF81911F01882309F4E7C2853239F478
:103F500093FD859193FF81911F01853239F4B6015C
:103F600090E00E94022535015301E5CFF12C512C40
:103F700000E0003238F48B3209F190F48032F9F02D
:103F8000833209F107FD34C020ED280F2A3020F5D7
:103F900006FF1BC0FAE0FF9E200D1124F22E05C083
:103FA0008D3279F0803371F70160F10193FD8591D5
:103FB00093FF81911F018111DCCF1AC00260046060
:103FC000F4CF0860F2CF0061F0CF3AE0539E200DAD
:103FD0001124522E0062E9CF8E3221F406FD9DC2DB
:103FE0000064E3CF8C3611F40068DFCF8836E9F245
:103FF0009BEB980F933008F05FC00061805E06FD78
:1040000002C046E0F42E102F1F73853609F05BC006
:10401000106417FF61C08F2D9BE39F1508F48BE39D
:1040200044244394480E27E03501F4E06F0E711CE0
:10403000F5016081718182819381042DA4010E9428
:104040000B245C01F981FC87F0FF03C00DE2F3FF54
:1040500007C00BE211FD04C0012F047012FD00E245
:104060002C852C70E22E09F457C00111ABC2F3E08D
:10407000E12CF515A0F483E0E52CE81A13FD08C047
:10408000B60180E290E00E940225EA94E110F8CFA8
:10409000002329F0B601802F90E00E9402253C8584
:1040A00022ECA22E20E0B22E33FD04C096ECA92E05
:1040B00090E0B92E107122C09BE9980F933008F060
:1040C00033C10F7E9CCF863611F41068A2CFFF203B
:1040D00009F49FCFFA949DCFE7E02F2DEF1518F448
:1040E00027E037E0F32E412C9FCF11118052B6010B
:1040F00090E00E9402258FEFA81AB80AF50184917A
:104100008111F3CFEE2009F42FCFB60180E290E0C9
:104110000E940225EA94F6CF17FF6FC04A0CFC8577
:10412000F4FF04C08A81813309F44A9414140CF01A
:1041300086C028E0241510F488E0482E85E090E041
:1041400017FF06C0C501B7FE02C090E080E00196EF
:1041500001110196FF2031F02F2D30E02F5F3F4FEE
:10416000820F931F5816190619F014F0E52CE81A5F
:10417000812F897011F4E11067C0002329F0B60186
:10418000802F90E00E94022513FD02C0E11063C061
:1041900017FF7CC08501B7FE02C010E000E0C5013A
:1041A000841991092C016F2D70E0EE27FF27E61B83
:1041B000F70BFF87EE870F3F100729F4B6018EE259
:1041C00090E00E940225A016B1060CF44BC04016E8
:1041D00051060CF047C0F501E01BF10BE80DF91D8D
:1041E0008181015011092E853F8502171307E4F1E3
:1041F000B60190E00E940225DECF16FD9FCFEF2D85
:10420000F0E0EA15FB0534F03CEFA3163FEFB306F0
:104210000CF010683296E80DF91D01C0FA94FF20E9
:1042200019F082918033D1F317FF88CF442443944F
:104230004F0CFA141B0431F02CF0FA187FCF4424F1
:1042400043947CCFF12C7ACFB60180E290E00E94BB
:104250000225EA9490CFB60180E390E00E94022507
:10426000EA9494CF80E3BDCFA016B10641F49A81C1
:10427000963350F4953319F43C8534FF05C0B601EC
:1042800090E00E9402253ECF81E3F9CF8A818133FD
:1042900019F09C859F7E9C87B60190E00E940225C4
:1042A000FF20A9F0B6018EE290E00E940225F3946F
:1042B000F394E2E001E00E0FE80DF92DF11D80818D
:1042C000B60190E00E940225E02F0F11F3CF85E6A2
:1042D00090E014FF02C085E490E0B6010E94022540
:1042E000B7FC06C0A114B104C1F4EC85E4FF15C00D
:1042F000B194A194B1088DE2B60190E00E9402252C
:1043000080E32AE0A216B10454F4B60190E00E94C2
:104310000225B601C501C096B4CF8BE2EDCF8F5F09
:10432000FAE0AF1AB108EDCF8336C9F0833771F1E7
:10433000833509F05BC03501F2E06F0E711CF501A9
:10434000A080B1806F2D70E006FD02C06FEF7FEF9F
:10435000C5010E94EC249D878C8700680DC0350143
:1043600032E0630E711CF5018081898321E030E029
:104370003D872C8754010F7703FD06C02C853D85B2
:104380005216130609F0A8F4E52C2BC0350132E0D3
:10439000630E711CF501A080B1806F2D70E006FDE9
:1043A00002C06FEF7FEFC5010E94F7249D878C87C5
:1043B000E2CFB60180E290E00E9402255A94DECF5F
:1043C000F50107FD859107FF81915F01B60190E03E
:1043D0000E940225E110EA948C859D8501979D87B6
:1043E0008C87EC85FD85EF2B59F78CCE843619F040
:1043F000893609F074C0350107FF66C0F4E06F0E1E
:10440000711CF5016081718182819381102F1F766B
:1044100097FF08C090958095709561957F4F8F4F5D
:104420009F4F10682AE030E0A4010E948E25A82E3C
:10443000A818BA2C012F16FF0AC00E7FAF1438F44B
:1044400014FF04C012FD02C0012F0E7EBF2C04FF1A
:104450008EC0FE01EA0DF11D8081803309F080C01D
:10446000097EF02FF870EF2E03FD90C000FF8AC088
:10447000FA2CB51410F4F50CFB1804FF8DC0B6012E
:1044800080E390E00E94022502FF09C088E790E0E7
:1044900001FF02C088E590E0B6010E940225AF143A
:1044A00008F486C0AA940A2D10E00F5F1F4F080D74
:1044B000191DF80182918F01B60190E00E9402253A
:1044C00080169106B1F71ECEF2E06F0E711CF50159
:1044D00060817181072E000C880B990B97CF102FEC
:1044E0008537A9F41F7E2AE030E0350117FF2FC081
:1044F000F4E06F0E711CF5016081718182819381FE
:10450000A4010E948E25A82EA8181F7792CF197F8C
:104510008F36D1F048F4883591F0F6018681978185
:104520002F96E2E10C940523803739F08837A9F7FC
:1045300014FD146020E130E0D8CF1061F9CF04FD04
:10454000166020E132E0D1CF28E030E0CECFF2E0BB
:104550006F0E711CF5016081718190E080E0D0CF19
:1045600002FD02C0B3947DCFB394B3947ACF802F71
:10457000867809F476CFF6CFB60180E290E00E940B
:104580000225B394B514C0F3E12C77CFE52CEB18DA
:10459000B51408F472CFF8CF802F867809F47FCF56
:1045A0008BE201FF80E207FD8DE2B60190E075CF5E
:1045B000B60180E390E00E940225FA9470CF8FEF5D
:1045C0009FEFAECF24E0E12C251508F063CD84E009
:1045D00053CD2F923F924F925F926F927F928F9224
:1045E0009F92AF92BF92CF92DF92EF92FF920F9382
:1045F0001F93CF93DF93CDB7DEB7CA1BDB0B0FB68C
:10460000F894DEBF0FBECDBF09942A883988488848
:104610005F846E847D848C849B84AA84B984C884DE
:10462000DF80EE80FD800C811B81AA81B981CE0FD5
:10463000D11D0FB6F894DEBF0FBECDBFED010895BA
:10464000B0E0A0E0E6E2F3E20C94EA225C016B0148
:104650007A016115710519F0FB0191838083E114E2
:10466000F10449F0C7010297839728F060E070E0F9
:10467000CB019CC05E01E5012196F5011081812FDF
:1046800090E00E94E324892BA9F71D3209F056C05F
:104690002196F501118101E0E114F10409F4AEC0A5
:1046A000F0E1EF16F10409F08EC0103341F4888177
:1046B0008F7D883509F083C0198122960260E0E180
:1046C000EE2EF12C88248A94982CA82CFFE0BF2E83
:1046D00020E060E070E0CB0127010F2C000C6608A1
:1046E0007708FE0150ED352E310E39E0331538F4E0
:1046F0003FEB310F3A31A0F549EC342E310E3E1428
:104700001F04BCF52F3FB9F086169706A806B90618
:1047100070F1A30192010E942927232D30E050E07F
:1047200040E0620F731F841F951F62177307840791
:104730009507E8F021E021961081D3CF1B3221F4B8
:10474000E5012296F501118100E0A6CF78E0E72E81
:10475000F12C88248A94982CA82C6FE1B62EB8CF1F
:104760003FE9310F3A3128F439EA332EC7CF2FEF22
:10477000E2CFC114D10431F02223E9F02197F601F0
:10478000D183C08300FF07C0909580957095619597
:104790007F4F8F4F9F4F2F3F49F482E290E09093DD
:1047A000FD028093FC026FEF7FEFCB01CDB7DEB748
:1047B000E1E10C94062301FFE5CF2297E0CF10E35F
:1047C000E114F10419F23AE0E316F104E9F080E1B2
:1047D000E816F10409F473CFE8E0EE16F10409F4E9
:1047E000B8CF6FEF7FEFCB0197010F2C000C440B7C
:1047F000550B0E94392749015A016ACF103309F439
:1048000056CF9AE0E92EF12C89E9882E982CA82C15
:1048100089E1B82E5DCF283008F027E03327DA0190
:10482000990F311D87FD916000966105710539F47E
:1048300032602E5F3D9330E32A95E1F708959F3F64
:1048400030F080387105610509F03C5F3C5F3D93B5
:10485000913008F08068911DDF93CF931F930F93E1
:10486000FF92EF92192F987F9695E92F969596953E
:10487000E90FFF27EC5DFE4F99273327EE24FF2435
:10488000A701E70105900894079428F4360FE71E66
:10489000F81E491F511D660F771F881F991F069428
:1048A000A1F70590079428F4E70EF81E491F561F3C
:1048B000C11D770F881F991F661F0694A1F70590E9
:1048C000079428F4F80E491F561FC71FD11D880FE3
:1048D000991F661F771F0694A1F70590079420F48F
:1048E000490F561FC71FD81F990F661F771F881FB4
:1048F0000694A9F784911095177041F0D695C79545
:1049000057954795F794E7941A95C1F7EAECF0E0CC
:1049100068941590159135916591959105907FE278
:104920007395E118F10A430B560BC90BD009C0F778
:10493000E10CF11E431F561FC91FD01D7EF47033BA
:1049400011F48A95E6CFE894015030F0080F0AF48C
:104950000027021708F4202F2395022F7A3328F01E
:1049600079E37D932A95E9F710C07D932A9589F61E
:10497000069497956795379517951794E118F10A5E
:10498000430B560BC90BD00998F023957E91739574
:104990007A3308F070E37C932013B8F77E9170614E
:1049A0007D9330F0839571E37D9370E32A95E1F771
:1049B0001124EF90FF900F911F91CF91DF919927D4
:1049C00087FD9095089591110C94EC25803219F093
:1049D00089508550C8F70895FC01059061507040DA
:1049E0000110D8F7809590958E0F9F1F0895FC01B8
:1049F0006150704001900110D8F7809590958E0F0E
:104A00009F1F08950F931F93CF93DF93182F092FA4
:104A1000EB018B8181FD09C01FEF0FEF812F902FDC
:104A2000DF91CF911F910F91089582FF14C02E81C5
:104A30003F818C819D81281739073CF4E881F981F9
:104A4000CF0101969983888310838E819F8101967F
:104A50009F838E83E3CFE885F985812F0995892B84
:104A6000A1F3DACFAEE0B0E0E8E3F5E20C94F72290
:104A70000D891E898F89988D2EE02C831A830983D6
:104A800097FF02C080E090E801979E838D83AE017E
:104A9000455E5F4F698D7A8DCE0101960E94881F19
:104AA0004D815E8157FD0AC02F813885421753071B
:104AB0000CF49A01020F131FF80110822E96E4E005
:104AC0000C941323AEE0B0E0E8E6F5E20C94F72294
:104AD0008C01FA018EE08C831A83098377FF02C070
:104AE00060E070E8615071097E836D83A901BF01A8
:104AF000CE0101960E94881F4D815E8157FD0AC03C
:104B00002F813885421753070CF49A01020F131FA7
:104B1000F80110822E96E4E00C941323FA01AA27E0
:104B2000283051F1203181F1E8946F936E7F6E5FF0
:104B30007F4F8F4F9F4FAF4FB1E03ED0B4E03CD09E
:104B4000670F781F891F9A1FA11D680F791F8A1F81
:104B5000911DA11D6A0F711D811D911DA11D20D0E8
:104B600009F468943F912AE0269F11243019305DA2
:104B70003193DEF6CF010895462F4770405D419393
:104B8000B3E00FD0C9F7F6CF462F4F70405D4A33E0
:104B900018F0495D31FD4052419302D0A9F7EACFA8
:104BA000B4E0A6959795879577956795BA95C9F7D7
:104BB00000976105710508959B01AC010A2E0694CA
:104BC0005795479537952795BA95C9F7620F731F83
:104BD000841F951FA01D08959927882708950E9476
:104BE000312608F481E00895E89409C097FB3EF46B
:104BF00090958095709561957F4F8F4F9F4F99232A
:104C0000A9F0F92F96E9BB279395F69587957795A7
:104C10006795B795F111F8CFFAF4BB0F11F460FF67
:104C20001BC06F5F7F4F8F4F9F4F16C0882311F0BF
:104C300096E911C0772321F09EE8872F762F05C0D3
:104C4000662371F096E8862F70E060E02AF09A956E
:104C5000660F771F881FDAF7880F9695879597F963
:104C60000895990F0008550FAA0BE0E8FEEF1616FD
:104C70001706E807F907C0F012161306E407F50750
:104C800098F0621B730B840B950B39F40A2661F0C4
:104C9000232B242B252B21F408950A2609F4A14067
:104CA000A6958FEF811D811D08950E9468260C94A2
:104CB000D9260E94CB2638F00E94D22620F09523D8
:104CC00011F00C94C2260C94C82611240C940D27C4
:104CD0000E94EA2670F3959FC1F3950F50E0551F8F
:104CE000629FF001729FBB27F00DB11D639FAA2741
:104CF000F00DB11DAA1F649F6627B00DA11D661F90
:104D0000829F2227B00DA11D621F739FB00DA11DB0
:104D1000621F839FA00D611D221F749F3327A00D6A
:104D2000611D231F849F600D211D822F762F6A2F06
:104D300011249F5750409AF0F1F088234AF0EE0F6B
:104D4000FF1FBB1F661F771F881F91505040A9F798
:104D50009E3F510580F00C94C2260C940D275F3FB6
:104D6000E4F3983ED4F3869577956795B795F795D4
:104D7000E7959F5FC1F7FE2B880F911D969587954C
:104D800097F9089597F99F6780E870E060E00895CB
:104D90009FEF80EC089500240A9416161706180653
:104DA0000906089500240A9412161306140605062F
:104DB0000895092E0394000C11F4882352F0BB0FC0
:104DC00040F4BF2B11F460FF04C06F5F7F4F8F4F23
:104DD0009F4F089557FD9058440F551F59F05F3F5E
:104DE00071F04795880F97FB991F61F09F3F79F00D
:104DF00087950895121613061406551FF2CF46958F
:104E0000F1DF08C0161617061806991FF1CF869510
:104E10007105610508940895E894BB2766277727F4
:104E2000CB0197F90895F999FECF92BD81BDF89A0B
:104E3000992780B50895262FF999FECF1FBA92BD04
:104E400081BD20BD0FB6F894FA9AF99A0FBE01966B
:104E50000895DB018F939F930E945B27BF91AF91D1
:104E6000A29F800D911DA39F900DB29F900D1124C4
:104E70000895A1E21A2EAA1BBB1BFD010DC0AA1F9B
:104E8000BB1FEE1FFF1FA217B307E407F50720F0B3
:104E9000A21BB30BE40BF50B661F771F881F991F2E
:104EA0001A9469F760957095809590959B01AC0177
:104EB000BD01CF0108950E946627A59F900DB49F64
:104EC000900DA49F800D911D11240895A29FB00103
:104ED000B39FC001A39F700D811D1124911DB29F2E
:104EE000700D811D1124911D0895AA1BBB1B51E15A
:104EF00007C0AA1FBB1FA617B70710F0A61BB70B4A
:104F0000881F991F5A95A9F780959095BC01CD01EE
:104F100008950E946627B7FF0895821B930B08959A
:104F2000EE0FFF1F0590F491E02D09945058BB2718
:104F3000AA270E94AE270C94D9260E94CB2638F0CF
:104F40000E94D22620F039F49F3F19F426F40C94E5
:104F5000C8260EF4E095E7FB0C94C226E92F0E94C8
:104F6000EA2658F3BA17620773078407950720F0FB
:104F700079F4A6F50C940C270EF4E0950B2EBA2FBD
:104F8000A02D0B01B90190010C01CA01A00111244F
:104F9000FF27591B99F0593F50F4503E68F11A16FB
:104FA000F040A22F232F342F4427585FF3CF46958C
:104FB00037952795A795F0405395C9F77EF41F16AE
:104FC000BA0B620B730B840BBAF09150A1F0FF0F78
:104FD000BB1F661F771F881FC2F70EC0BA0F621F64
:104FE000731F841F48F4879577956795B795F79554
:104FF0009E3F08F0B0CF9395880F08F09927EE0FE9
:105000009795879508950E9417280C94D9260E9499
:10501000D22658F00E94CB2640F029F45F3F29F0B9
:105020000C94C22651110C940D270C94C8260E9492
:10503000EA2668F39923B1F3552391F3951B550B99
:10504000BB27AA2762177307840738F09F5F5F4F5B
:10505000220F331F441FAA1FA9F335D00E2E3AF09A
:10506000E0E832D091505040E695001CCAF72BD0B2
:10507000FE2F29D0660F771F881FBB1F2617370703
:105080004807AB07B0E809F0BB0B802DBF01FF2735
:1050900093585F4F3AF09E3F510578F00C94C2262A
:1050A0000C940D275F3FE4F3983ED4F386957795F3
:1050B0006795B795F7959F5FC9F7880F911D9695EE
:1050C000879597F90895E1E0660F771F881FBB1F4A
:1050D000621773078407BA0720F0621B730B840BF7
:1050E000BA0BEE1F88F7E09508950E947C2868941B
:1050F000B1110C940D2708950E94F22688F09F5755
:1051000098F0B92F9927B751B0F0E1F0660F771FEB
:10511000881F991F1AF0BA95C9F714C0B13091F0E1
:105120000E940C27B1E008950C940C27672F782F6C
:105130008827B85F39F0B93FCCF3869577956795A6
:10514000B395D9F73EF490958095709561957F4F12
:105150008F4F9F4F08950E94312608F48FEF0895D6
:1051600016F00C9405290C94C82668940C94C22659
:105170000E94F226A8F39923C1F3AEF3DF93CF93F5
:105180001F930F93FF92C92FDD2788232AF02197C1
:10519000660F771F881FDAF720E030E040E85FEB0A
:1051A0009FE3883920F0803E38F021968F770E9467
:1051B0009727E8E6F0E004C00E949727E5E9F0E0D1
:1051C0000E9413298B01BE01EC01FB2E6F57710960
:1051D0007595771F880B990B0E94F62528E132E719
:1051E00041E35FE30E946826AF2D9801AE01FF9076
:1051F0000F911F91CF91DF910E94AE270C94D92679
:105200000E943126880B990B08959F3F31F09150F1
:1052100020F4879577956795B795880F911D96959A
:10522000879597F90895DF93CF931F930F93FF927C
:10523000EF92DF927B018C01689406C0DA2EEF01B9
:105240000E946826FE01E894A5912591359145912B
:105250005591A6F3EF010E94AE27FE019701A80128
:10526000DA9469F7DF90EF90FF900F911F91CF9143
:10527000DF9108950F931F93CF93DF9382309105B1
:1052800010F482E090E0E0910003F091010330E03F
:1052900020E0B0E0A0E0309799F42115310509F441
:1052A0004AC0281B390B24303105D8F58A819B81EF
:1052B0006115710589F1FB0193838283FE0111C0A1
:1052C000408151810281138148175907E0F0481746
:1052D000590799F4109761F012960C931297139650
:1052E0001C933296CF01DF91CF911F910F910895BA
:1052F0000093000310930103F4CF2115310551F001
:105300004217530738F0A901DB019A01BD01DF0103
:10531000F801C1CFEF01F9CF90930103809300030F
:10532000CDCFFE01E20FF31F8193919322503109FB
:1053300039832883D7CF2091FE023091FF02232B9F
:1053400041F420910601309107013093FF02209330
:10535000FE0220910401309105012115310541F42F
:105360002DB73EB74091080150910901241B350B20
:10537000E091FE02F091FF02E217F307A0F42E1B6A
:105380003F0B2817390778F0AC014E5F5F4F2417A9
:10539000350748F04E0F5F1F5093FF024093FE0207
:1053A000819391939FCFF0E0E0E09CCFCF93DF9388
:1053B0000097E9F0FC01329713821282A09100035A
:1053C000B0910103ED0130E020E01097A1F42081BD
:1053D0003181820F931F2091FE023091FF02281726
:1053E000390709F061C0F093FF02E093FE02DF91FC
:1053F000CF910895EA01CE17DF07E8F54A815B8176
:105400009E0141155105B1F7E901FB83EA834991FA
:105410005991C40FD51FEC17FD0761F4808191816C
:105420000296840F951FE901998388838281938175
:105430009B838A83F0E0E0E012968D919C91139714
:105440000097B9F52D913C911197CD010296820FED
:10545000931F2091FE023091FF022817390739F679
:10546000309751F51092010310920003B093FF02A0
:10547000A093FE02BCCFD383C28340815181840FAD
:10548000951FC817D90761F44E5F5F4F88819981D6
:10549000480F591F518340838A819B819383828364
:1054A0002115310509F0B0CFF0930103E09300031B
:1054B0009ECFFD01DC01C0CF13821282D7CFB0E0B6
:1054C000A0E0E5E6FAE20C94EB228C01009751F49F
:1054D000CB010E943A298C01C801CDB7DEB7E0E1CB
:1054E0000C940723FC01E60FF71F9C0122503109A1
:1054F000E217F30708F49DC0D901CD91DC91119713
:10550000C617D70798F0C530D10530F3CE01049700
:105510008617970708F3C61BD70B2297C193D19321
:105520006D937C93CF010E94D629D6CF5B01AC1A34
:10553000BD0A4C018C0E9D1EA0910003B091010389
:10554000512C412CF12CE12C109731F58091FE0269
:105550009091FF028815990509F05CC04616570620
:1055600008F058C08091040190910501009741F422
:105570008DB79EB74091080150910901841B950B8E
:10558000E817F90708F055C0F093FF02E093FE0218
:10559000F90171836083A0CF8D919C911197129630
:1055A0006C90129713967C901397A815B90559F52E
:1055B0006C0142E0C40ED11CCA14DB0420F1AC0122
:1055C0004A195B09DA011296159780F0628273829C
:1055D00051834083D9016D937C93E114F10471F000
:1055E000D7011396FC93EE93129776CF22968C0FE9
:1055F0009D1FF90191838083F301EFCFF0930103A5
:10560000E093000369CF4816590608F42C017D0188
:10561000D3019ACFCB010E943A297C01009749F02F
:10562000AE01B8010E94352BC8010E94D62987011E
:1056300053CF10E000E050CF91110C94EC25805333
:105640008A5028F0865C806281568650B0F70895B3
:10565000FB01DC0104C08D910190801921F44150BF
:105660005040C8F7881B990B0895FB01DC0102C06C
:1056700001900D9241505040D8F70895FB01DC0194
:105680008D9181341CF08B350CF4805E6191613416
:105690001CF06B350CF4605E861B611189F3990B6D
:1056A000089512E0CDE8D2E004C0FE010E949027E8
:0C56B0002196CE38D107C9F7F894FFCF3F
:1056BC00A707A7070000020380000020019C190027
:1056CC000000003E08A807D507A6080608E407F85E
:1056DC000700000000160D6E0F37093609F108336C
:0856EC0009DA08E50D0D0A00C2
:00000001FF
