:100000000C94FC020C943F200C9418200C942403B4
:100010000C9424030C9424030C9424030C942403C4
:100020000C9424030C94D5200C9424030C942721C5
:100030000C9403210C94BE200C9424030C942403F0
:100040000C94CE1F0C9424030C948C200C946620EA
:100050000C9424030C9440210C9424030C9424034A
:100060000C9424030C94240308000000BE9224493D
:10007000123EABAAAA2ABECDCCCC4C3E00000080DA
:10008000BEABAAAAAA3E00000000BF000000803F4D
:100090000000000000084178D3BB4387D1133D190D
:1000A0000E3CC3BD4282AD2B3E68EC8276BED98F3A
:1000B000E1A93E4C80EFFFBE01C4FF7F3F0000007E
:1000C00000006E616E00696E660000407A10F35A9F
:1000D00000A0724E18090010A5D4E80000E8764888
:1000E000170000E40B54020000CA9A3B000000E134
:1000F000F505000080969800000040420F000000C7
:10010000A08601000000102700000000E8030000A6
:1001100000006400000000000A0000000000010070
:10012000000000002C76D888DC674F0823DFC1DF91
:10013000AE59E1B1B796E5E3E453C63AE651997694
:1001400096E8E6C28426EB898C9B62ED407C6FFCCE
:10015000EFBC9C9F40F2BAA56FA5F490055A2AF710
:100160005C936B6CF9676DC11BFCE0E40D47FEF519
:1001700020E6B500D0ED902E030094357705008081
:10018000841E080000204E0A000000C80C333333E0
:10019000330F986E12831141EF8D2114893BE65580
:1001A00016CFFEE6DB18D1844B381BF77C1D901D63
:1001B000A4BBE424203284725E228100C9F124ECC5
:1001C000A1E53D272530327825303278002B524585
:1001D0004D3D63756269635F696E742C25752C698A
:1001E0003263743D2530327825303278002B524509
:1001F0004D3D6368616E6E656C3D25752C6D617853
:1002000074696D653D256C750A002B52454D3D6C3A
:100210006576656C3D25642C726573756C743D253F
:10022000642C74696D653D25750A000A2B52454D95
:100230003D0025303278005B253032785D002B524E
:10024000454D3D004E6F206368616E6E656C732096
:100250006163746976650025753D257528257529C6
:1002600020002B52454D3D002B52454D3D74696396
:100270006B733D25640A002B52454D3D7469636BD9
:10028000733D25640A002B52454D3D7A6364656CCD
:1002900061793D25752C3078253034780A002B5251
:1002A000454D3D7A6364656C61793D25752C3078E8
:1002B000253034780A002B52454D3D7A6364656CD5
:1002C00061793D25752C3078253034780A002B5221
:1002D000454D3D667265710025303278002B5245E0
:1002E0004D3D76253034782C693263743D253032AB
:1002F0007825303278002B52454D3D0041546D65D4
:100300006761333238500073772E6F6E2D74696DCC
:10031000653D25752F25750A002C6D696E2E6F6E53
:100320002D74696D653D25752C6D696E2E6F666641
:100330003D25752C5A432D64656C61793D25752CDE
:1003400000252E3366002C5643433D006D61782E08
:1003500074656D703D25752C6D6574726963733DB0
:10036000257500696E742E74656D703D25642F6F60
:1003700066733D25752F6761696E3D25752C004EAE
:1003800054433D252E32662F252B2E32662C0076C7
:10039000616C7565733D726573746F72653D25752B
:1003A0002C663D252E3366487A2C7672656631318F
:1003B0003D252E33662C0072616E67653D25642DE8
:1003C00025640A0063756269633D25752C007469B4
:1003D0006D6572313D25752F252E32662C6C766C3D
:1003E000733D383139322C70696E733D006164643D
:1003F000723D253032782C6D6F64653D25632C008D
:1004000070726F746F3D554152542C00666164697F
:100410006E675F6576656E74733D312C005643439D
:100420002C00696E742E74656D702C004E54433D23
:100430004125752C006F7074696F6E733D45455092
:10044000524F4D3D256C752C0040384D687A2C6715
:1004500063633D372E332E30002C4D43553D0073E2
:1004600069673D253032782D253032782D253032A0
:10047000782C66757365733D6C3A253032782C683C
:100480003A253032782C653A25303278004D4F537A
:100490004645542044696D6D657220322E322E32ED
:1004A0002041756720313720323032312032333AE3
:1004B00031363A313620417574686F72207361733A
:1004C0006368615F6C616D6D65727340676D782EF6
:1004D0006465002B52454D3D454550524F4D522CC1
:1004E000633D256C752C703D25752C6E3D256C7516
:1004F0002C6372633D253034780A00424F4F54001C
:100500002B52454D3D6C6F73743D25752C73796E80
:10051000633D25752C636E743D25752C633D256CFC
:10052000642C743D252E316675730A0000000000AE
:10053000240027002A0000000000250028002B00CE
:100540000404040404040404020202020202030379
:100550000303030301020408102040800102040881
:100560001020010204081020000000080002010011
:1005700000030407000000000000000064697361CC
:10058000626C6564005D2C6C3D5B005D2C793D5BAD
:1005900000783D5B002B52454D3D636825643D006E
:1005A0002B52454D3D454550524F4D572C633D25EF
:1005B0006C752C703D25752C6E3D256C752C773D2A
:1005C00025752C663D25752C6372633D2530347886
:1005D0002C6366673D25750A002B49324325633D30
:1005E000002B52454D3D454550524F4D522C696EA2
:1005F000697400009721832111241FBECFEFD8E03A
:10060000DEBFCDBF23E0A0E7B1E001C01D92AF3453
:10061000B207E1F711E0A0E0B1E0E0E4F7E602C0E4
:1006200005900D92A037B107D9F712E0CBEFD2E0D9
:1006300004C02197FE010E94A62FCA3FD107C9F727
:100640000E945B220C9493330C94000080910C0365
:10065000833008F046C02091040330910503121640
:100660001306B4F4E82FF0E0EE0FFF1FE250FD4F49
:1006700090910B03209108033091090340910A03E4
:1006800003C04695379527959A95DAF731832083ED
:10069000823019F08F5F80930C0310920D038091CC
:1006A0000C038130F9F018F08230F1F0089586E4FF
:1006B00080937C0080E490E090930703809306038E
:1006C00010920B0388EF9FEF909305038093040330
:1006D000109208031092090310920A038FEE809380
:1006E0007A0008958EE4E4CF88EC80937C0080E467
:1006F00090E0909307038093060310920B0380EE23
:100700009FEFE2CFBC01615D7F4F2FEF3FEF861778
:100710009707D9F0FC014191CF012427422F429540
:100720004227042E469546954025042E46954025A1
:100730004770022E232F469507944795302D242786
:100740000694479530252427E2CFC901089520E17A
:10075000DC011D922A95E9F7FC0160910E0370916E
:100760000F03409110035091110380E09091120308
:10077000891778F4282F30E0DB01A20FB31F9C917A
:100780009083240F351FD9019C91918332968F5FFE
:10079000EDCF089589EC92E00E9482039093C80205
:1007A0008093C7020895E6E3F2E083E5DF011D923E
:1007B0008A95E9F78FEF9FEF90933502809334028B
:1007C0008BE48093510280915002816080935002AB
:1007D00080E090E0A0E9B0E480935202909353024D
:1007E000A0935402B09355028BEB90E09093570284
:1007F000809356028CE291E09093590280935802C4
:1008000090935B0280935A0207B600FCFDCF87B736
:10081000816287BFE5E0F0E0849107B600FCFDCF80
:1008200097B7916297BFE7E0F0E0E491E09361024F
:100830008093620285E08093640280E090E0A0EC07
:10084000BFE78093700290937102A0937202B093FD
:10085000730220E030E83093750220937402809395
:100860006C0290936D02A0936E02B0936F0289E1C7
:10087000E0E5F2E0ADECB2E001900D928A95E1F78F
:10088000E8EEF2E080E1DF011D928A95E9F7089534
:100890002CE73CE740E052E40E946B2E20E030E081
:1008A00040E05FE30E94AD2F0E948B30CB0177FFC9
:1008B00002C090E080E0811520E2920714F08FEFF3
:1008C0009FE108952F923F924F925F926F927F9295
:1008D0008F929F92AF92BF92CF92DF92EF92FF9250
:1008E0000F931F93CF93DF93EB011A01FC01A080BC
:1008F000B1808A010F5F1F4FF501E00FF11F60818A
:1009000070E090E080E00E940A2E6B017C01F1E033
:100910002F1A3108F501E20DF31D608170E090E0BF
:1009200080E00E940A2E4B015C01AC019B01C701D3
:10093000B6010E94052E8823E9F10990D881C02DC7
:10094000FE01E00FF11F608170E090E080E00E9406
:100950000A2E2B013C01C20DD31D688170E090E08E
:1009600080E00E940A2E9B01AC01C301B2010E94EB
:10097000AC2F2B013C01A5019401C701B6010E94D7
:10098000AC2F9B01AC01C301B2010E941930DF9171
:10099000CF911F910F91FF90EF90DF90CF90BF907C
:1009A000AF909F908F907F906F905F904F903F900F
:1009B0002F90089560E070E0CB01E9CF2F923F9235
:1009C0004F925F926F927F928F929F92AF92BF925F
:1009D000CF92DF92EF92FF920F931F93CF93DF930B
:1009E000CDB7DEB7E0970FB6F894DEBF0FBECDBF30
:1009F0009AA389A37CA36BA35EA34DA3680179018D
:100A0000FC010190F081E02DF8ABEFA7608170E070
:100A100090E080E00E940A2E6D877E878F87988BFA
:100A2000EBA1FCA120803180A70198010E94C13078
:100A300087FD28C0F101608170E090E080E00E94B5
:100A40000A2E69837A838B839C8369817A818B8167
:100A50009C81E0960FB6F894DEBF0FBECDBFDF914C
:100A6000CF911F910F91FF90EF90DF90CF90BF90AB
:100A7000AF909F908F907F906F905F904F903F903E
:100A80002F9008958DA19EA101979A8B898BFC01CF
:100A90008FA598A9E80FF91F608170E090E080E0D1
:100AA0000E940A2E6B8B7C8B8D8B9E8B9B01AC01E5
:100AB000C701B8010E94C13087FD05C0E989FA89E4
:100AC0002E0E3F1EB7CF6FA478A8FFEF6F1A7F0AD4
:100AD00010E000E0C8010196988F8F8BF3016191BF
:100AE0003F0170E090E080E00E940A2E4B015C0123
:100AF000AC019B01C701B6010E94C13087FF44C110
:100B0000EF89F88DE20DF31D608170E090E080E0E8
:100B10000E940A2E69837A838B839C83A5019401AA
:100B2000C701B6010E94052E882309F48ECFEFA5D8
:100B3000F8A9E00FF11F608170E090E080E00E9472
:100B40000A2E698F7A8F8B8F9C8F9B01AC01C50118
:100B5000B4010E94AC2F6D8F7E8F8F8F98A3298D4B
:100B60003A8D4B8D5C8DC701B6010E94AC2F2D8D47
:100B70003E8D4F8D58A10E9419304B015C01AC0194
:100B80009B010E946B2E2B013C01AC019B01C50116
:100B9000B4010E946B2E6B017C01AC019B010E9491
:100BA000AD2F6D837E838F83988720E030E040E413
:100BB00050E4C301B2010E946B2E69877A878B874C
:100BC0009C879B01AC016D817E818F8198850E94FD
:100BD000AC2F20E030E040E85FE30E94AD2F6FA330
:100BE00078A789A79AA7A3019201C301B2010E9425
:100BF000AD2F9B01AC01C701B6010E94AC2FA5012E
:100C000094010E94AD2F6BA77CA78DA79EA72D8175
:100C10003E814F81588569857A858B859C850E94A8
:100C2000AC2F6D837E838F839887A3019201C701C8
:100C3000B6010E94AC2F69877A878B879C87F10168
:100C4000E00FF11F608170E090E080E00E940A2ECA
:100C50002B013C010115110509F099C0F1016081DA
:100C600070E090E080E00E940A2E6B017C01F101AF
:100C7000618170E090E080E00E940A2EA701960159
:100C80000E94AC2F4B015C01EFA5F8A9618170E0D7
:100C900090E080E00E940A2E2D853E854F85588980
:100CA0000E94AC2F9B01AC01C501B4010E94193018
:100CB0004B015C01F101628170E090E080E00E94F4
:100CC0000A2EA70196010E94AC2F6B017C01EFA5B3
:100CD000F8A9628170E090E080E00E940A2E2D85E4
:100CE0003E854F8558890E94AC2F9B01AC01C701FE
:100CF000B6010E9419306B017C01A30192016FA122
:100D000078A589A59AA50E946B2E2B013C0129810B
:100D10003A814B815C816D817E818F8198850E94B3
:100D20006B2E9B01AC01C301B2010E94AD2F2B01C0
:100D30003C012BA53CA54DA55EA56D8D7E8D8F8DAF
:100D400098A10E946B2EA50194010E946B2E9B011D
:100D5000AC01C301B2010E94AD2F4B015C0129859A
:100D60003A854B855C856D8D7E8D8F8D98A10E9417
:100D70006B2EA70196010E946B2E9B01AC01C50151
:100D8000B4010E94AD2F5DCE0F89188DA3CE8DA129
:100D90009EA102970817190709F04DC0E989FA8941
:100DA000E20DF31D608170E090E080E00E940A2E69
:100DB0006B017C010DA11EA103501109F101E00F8F
:100DC000F11F608170E090E080E00E940A2E9B019C
:100DD000AC01C701B6010E94AC2F4B015C018FA58D
:100DE00098A9800F911FFC01608170E090E080E085
:100DF0000E940A2E9B01AC016B897C898D899E899A
:100E00000E94AC2F9B01AC01C501B4010E941930B6
:100E10004B015C01A3019201C701B6010E94AC2FF6
:100E20006B017C01298D3A8D4B8D5C8D6B897C89A2
:100E30008D899E8958CFA8016BA17CA189A19AA117
:100E40000E9462044B015C014F89588D6BA17CA10B
:100E500089A19AA10E9462044ECFCF92DF92EF92B5
:100E6000FF920F931F93CF93DF9300D000D0CDB7A5
:100E7000DEB710911203112309F440C0BC0190E0C9
:100E800080E00E940A2E2CE73CE740E052E40E94FA
:100E900019306B017C0120E030E04FE753E40E9401
:100EA000052E87FD06C0C12CD12C8FE7E82E83E4E8
:100EB000F82E80911003909111039A838983809179
:100EC0000E0390910F039C838B83412F50E0970179
:100ED0008601BE016F5F7F4FCE0103960E94DE0444
:100EE0000F900F900F900F90DF91CF911F910F9166
:100EF000FF90EF90DF90CF900C9448040F900F90EC
:100F00000F900F90DF91CF911F910F91FF90EF9075
:100F1000DF90CF9008954F925F926F927F928F9261
:100F20009F92AF92BF92CF92DF92EF92FF920F9378
:100F30001F93CF93DF936A0128013901C82F880FCF
:100F4000DD0BFE01EE0FFF1FE754FD4F8FEF9FEF0C
:100F500091838083CE01880F991FE091C502F091A3
:100F6000C602E80FF91F84859585892B29F4DE01D7
:100F7000A757BD4F5E961C922FEFC216D20609F0FE
:100F800058C08CE08C9FD0018D9FB00D1124A757C5
:100F9000BD4F1A968D919C911B97892BC9F181E0C9
:100FA00090E01B969C938E931A9716961D921D9215
:100FB0001D921C92199704851585013030E21307A4
:100FC00014F000E010E217FF02C010E000E09CE027
:100FD000D92EDC9EC001DD9E900D1124AC01475737
:100FE0005D4F7A01B801012E000C880B990B0E940D
:100FF0000C2EF70162837383848395832196DC9E94
:10100000F001DD9EF00D1124E757FD4F11830083A1
:10101000DF91CF911F910F91FF90EF90DF90CF90D4
:10102000BF90AF909F908F907F906F905F904F9008
:1010300008956F3F760711F4648575858B016130E3
:10104000704214F000E010E217FF02C010E000E070
:10105000B60141E0C41640E2D40614F060E070E24C
:1010600077FF02C070E060E0601B710B072E000C80
:10107000880B990B0E940C2E4B015C0120E030E0A4
:10108000A9010E94052E882319F220E030E040E0FB
:1010900059E3C501B4010E946B2EA30192010E9485
:1010A0006B2E2B013C0120E030E0A9010E94C130F1
:1010B000181624F077FA709477F8709420916C02E7
:1010C00030916D0240916E0250916F02C301B201E6
:1010D0000E946B2E9B01AC010E94AD2F0E949230AA
:1010E0008CE0782E7C9E90017D9E300D1124F901BC
:1010F000E757FD4F7F01738762876115710509F41A
:1011000087CF90E080E00E940A2E9B01AC01C501D0
:10111000B4010E9419304B015C01F701868297826D
:10112000A086B186B801110F880B990B0E940C2E76
:10113000F701628373838483958321967C9EF001FB
:101140007D9EF00D1124E757FD4FD182C08220E033
:1011500030E0A901C501B4010E94052E811158CFCC
:1011600081E090E0F7019387828752CFCF92DF92A0
:10117000EF92FF920F931F93CF93DF93C091A8023A
:10118000D091A9020091C3021091C402F801E08439
:10119000F184C284D384DE01AE19BF09AC19BD0944
:1011A0004685578541155105A9F59D01DC010E9431
:1011B0009F2F2DE096958795779567952A95D1F77E
:1011C0009B012E0D3F1DCE018C199D09821793079F
:1011D000C0F0F801808D882379F046895789411540
:1011E000510551F06091A7026E3F30F48150990B88
:1011F000681719060CF47A01C9012E153F0508F489
:10120000C701DF91CF911F910F91FF90EF90DF9079
:10121000CF90089524853585280F391F0E947C2F93
:101220009A0150E040E00E944F2FCBCFCF93DF9345
:10123000CDB7DEB728970FB6F894DEBF0FBECDBF8F
:10124000E091C502F091C602348525858091500257
:1012500084FF52C0832F922F0E942D07811520E218
:10126000920708F04CC0009709F44CC00E94B608E1
:10127000E091C302F091C402208121FF08C02091B7
:10128000A8023091A902A901481B590BCA019C83ED
:101290008B83198281E0E1E00E2E000CFF0BEE0F34
:1012A000FF1FEE0FFF1F21E030E02C0F3D1FE20F6C
:1012B000F31F1082118212821382F8949091AF0270
:1012C000981739F08093AF02809133028061809348
:1012D000330288E0FE013196AFE9B2E001900D9251
:1012E0008A95E1F7789428960FB6F894DEBF0FBE82
:1012F000CDBFDF91CF910895832F922FAFCF81E0A3
:10130000E0E0CACF80E0FCCF082E000C990B9C01D6
:10131000220F331FE091C502F091C602E20FF31FC6
:1013200024853585232B29F4DC01A757BD4F5E9614
:101330001C929B016130704214F020E030E237FFD4
:1013400002C030E020E0358724872CE0289FF001A0
:10135000299FF00D1124E757FD4F13861286FC01DB
:10136000EE0FFF1FE754FD4F208131812F3F3F4F8C
:10137000E1F02091C5023091C6020696880F991FB0
:10138000820F931FDC018D919C91918380839FB785
:10139000F8948091330280628093330225E33CE02D
:1013A00030932A02209329029FBF0C9416092B9A8E
:1013B000109285001092840010928900109288008B
:1013C0008091A8029091A90290938B0080938A004B
:1013D00086B3866086BBE091C302F091C40280812F
:1013E0008695817091E089278093B0022091B102A7
:1013F0003091B2022F5F3F4F3093B2022093B1027F
:10140000243C99E03907A8F080916F00897F809390
:101410006F005E988091B30281608093B302309335
:10142000B8022093B7028091330280648093330224
:1014300008952091990230919A022115310509F4FD
:101440004BC090916F00997F926090936F003093A2
:1014500089002093880090E024E09202F00111249A
:10146000E756FD4F20813181232B39F0882319F075
:101470005E9A9F5FF1CF5E98FCCFE091C502F0913C
:10148000C60224853585232B09F45E9891E08927CF
:101490008093B00220E0822F022E000C990BFC01F9
:1014A000EE0FFF1FEE0FFF1FE756FD4F40815181EA
:1014B000452B11F1880F991F880F991FFC01E757E1
:1014C000FD4FE685F0E0E757FD4F868D8E3F10F427
:1014D0008F5F868F2F5FDFCF80916F00897F846061
:1014E00080936F00E091C502F091C60284859585D6
:1014F0008115904279F45E9A8091B302837041F431
:101500008091B1029091B2029093B8028093B70299
:101510002B9808955E98F0CFEEE6F5E08491EAE529
:10152000F5E09491E6E4F5E0E491EE23B9F0882348
:1015300039F08330F1F098F4813009F1823019F1FB
:10154000F0E0EE0FFF1FEA5CFA4FA591B4918FB760
:10155000F894EC9190959E239C938FBF08958730CB
:10156000A9F08830C9F0843059F7809180008F7DD0
:1015700003C0809180008F7780938000E1CF84B595
:101580008F7784BDDDCF84B58F7DFBCF8091B00098
:101590008F778093B000D4CF8091B0008F7DF9CF4A
:1015A000CF93DF9390E0FC01EC5AFA4F2491805CDA
:1015B0009A4FFC0184918823D1F090E0880F991F05
:1015C000FC01E45DFA4FA591B491FC01EA5CFA4F8D
:1015D000C591D49161110EC09FB7F8948C91E22F00
:1015E000E0958E238C932881E223E8839FBFDF91CF
:1015F000CF9108958FB7F894EC91E22BEC938FBFC5
:10160000F6CF3FB7F8948091800190918101A0912D
:101610008201B091830126B5A89B05C02F3F19F028
:101620000196A11DB11D3FBFBA2FA92F982F882762
:10163000BC01CD01620F711D811D911D43E0660F3C
:10164000771F881F991F4A95D1F708958F929F920F
:10165000AF92BF92CF92DF92EF92FF924B015C016B
:101660000E94010B6B017C010E94010B6C197D092A
:101670008E099F09683E734081059105A8F321E01A
:10168000821A9108A108B10888EEC80E83E0D81E1E
:10169000E11CF11C81149104A104B10429F7FF900D
:1016A000EF90DF90CF90BF90AF909F908F90089574
:1016B0002FB7F89460917C0170917D0180917E013B
:1016C00090917F012FBF08958F929F92AF92BF920A
:1016D000CF92DF92EF92FF920E94580B6B017C0138
:1016E0008091330280FD2FC08090FA029090FB021F
:1016F000A090FC02B090FD029FB7F8948091330255
:101700008160809333029FBF0E94580BC818D9088C
:10171000EA08FB0829E8C21623E1D206E104F10435
:10172000DCF438E8C32E33E1D32EE12CF12CC60EC5
:10173000D71EE81EF91EC092FA02D092FB02E09278
:10174000FC02F092FD02FF90EF90DF90CF90BF90EF
:10175000AF909F908F90089524EFC22EDD24D394F4
:10176000E12CF12CE4CF0895AF92BF92CF92DF929B
:10177000EF92FF920F931F93CF93DF936C017B0146
:101780008B01040F151FEB015E01AE18BF08C017D7
:10179000D10759F06991D601ED91FC910190F0814A
:1017A000E02DC6010995892B79F7C501DF91CF910D
:1017B0001F910F91FF90EF90DF90CF90BF90AF906F
:1017C0000895FC01538D448D252F30E0842F90E047
:1017D000821B930B541710F0CF960895019708952C
:1017E000FC01918D828D981761F0A28DAE0FBF2FF5
:1017F000B11D5D968C91928D9F5F9F73928F90E04B
:1018000008958FEF9FEF0895FC01918D828D9817B9
:1018100031F0828DE80FF11D858D90E008958FEFF6
:101820009FEF0895FC01918D228D892F90E0805CBF
:101830009F4F821B91098F73992708958CE891E03F
:101840000E94120C21E0892B09F420E0822F0895D8
:10185000FC01A48DA80FB92FB11DA35ABF4F2C9125
:10186000848D90E001968F739927848FA689B7891C
:101870002C93A089B1898C91837080648C93938D13
:10188000848D981306C00288F389E02D80818F7DB6
:1018900080830895EF92FF920F931F93CF93DF936E
:1018A000EC0181E0888F9B8D8C8D98131AC0E8899C
:1018B000F989808185FF15C09FB7F894EE89FF896B
:1018C0006083E889F98980818370806480839FBF09
:1018D00081E090E0DF91CF911F910F91FF90EF9009
:1018E0000895F62E0B8D10E00F5F1F4F0F73112719
:1018F000E02E8C8D8E110CC00FB607FCFACFE88954
:10190000F989808185FFF5CFCE010E94280CF1CFA7
:10191000EB8DEC0FFD2FF11DE35AFF4FF0829FB7C7
:10192000F8940B8FEA89FB8980818062CFCF0F9377
:101930001F93CF93DF938C01D0E0C0E0F801EC0F50
:10194000FD1F6491662341F08CE891E00E944A0CEF
:10195000892B11F02196F2CFCE01DF91CF911F910B
:101960000F910895682F8CE891E00C944A0CCF9366
:10197000DF93EC01888D8823B9F0AA89BB89E889B7
:10198000F9898C9185FD03C0808186FD0DC00FB65D
:1019900007FCF7CF8C9185FFF2CF808185FFEDCFDB
:1019A000CE010E94280CE9CFDF91CF910895DC0190
:1019B000ED91FC910190F081E02D6A3010F4605DB2
:1019C0000994695AFDCFDC01ED91FC910190F08101
:1019D000E02D6AE00994DC015E968D919C915F9701
:1019E0005C962D913C915D978217930740F45A962F
:1019F000ED91FC91E80FF91F808190E008958FEF41
:101A00009FEF0895FC01848D958D268D378D821B67
:101A1000930B0895EF92FF920F931F93CF938C0136
:101A2000C62F70E084E0759567958A95E1F7F80117
:101A300084A995A90E94D70C7C016C2F6F70F801C6
:101A400084A995A90E94D70C8E0D9F1DCF911F913F
:101A50000F91FF90EF900895FC01248135818281E0
:101A600093812817390768F480819181A9014F5F1C
:101A70005F4F55834483FC01E20FF31F808190E0A8
:101A800008958FEF9FEF08954A960C942C0D0895BA
:101A900090E080E00895409160022EEE3CE7420322
:101AA000B001439F700D1124072E000C880B990B79
:101AB00060577E4F834B9B4F209100033091010371
:101AC00050E040E00E944F2F30937702209376023F
:101AD000C9010895209102033091030386E03695F1
:101AE00027958A95E1F7E4E3F2E085A5820F932F2D
:101AF000911D85579F4F9695982F88279795879585
:101B000066A570E00E948B2FCB01499608952F9215
:101B10003F924F925F926F927F928F929F92AF927D
:101B2000BF92CF92DF92EF92FF920F931F93CF93CA
:101B3000DF9300D000D000D0CDB7DEB78091840015
:101B4000909185009A8389838091720190917301AD
:101B50009C838B8386B378940091740110917501F6
:101B60008B819C81C980DA80D8011696ED91FC9119
:101B700017979F012F5F3F4FF7FF1DC017963C93AC
:101B80002E93169726960FB6F894DEBF0FBECDBFE4
:101B9000DF91CF911F910F91FF90EF90DF90CF9049
:101BA000BF90AF909F908F907F906F905F904F907D
:101BB0003F902F90089517963C932E931697BF0150
:101BC000660F771FE60FF71FE00FF11FA0E0A82FA9
:101BD00099278827E12C8C299D29AE298087918718
:101BE000A2872436310571F6F894E99883EB9BE0DF
:101BF0009093030180930201789480E090E0A0EC40
:101C0000BFE7F80180839183A283B38386819781A4
:101C10009E838D830B970CF4B1C0780198E0E90E98
:101C2000F11CF70150E040E020E0812C912C5401A0
:101C30006D807E80A1E06A1A710846155705FCF494
:101C40004F5F5F4F21903190419080819181A281BF
:101C500082199309A4091C014A2EB4E02B1ABCEF87
:101C60003B0A410832E8231639E43306410428F7D9
:101C7000B0E0880E991EAA1EBB1E2F5FDECF2B3050
:101C800008F47CC030E050E040E0C501B4010E949F
:101C90004F2F49015A01842FB90190E00E940A2E6A
:101CA0002FE832EC45EF5BE30E946B2E0E949230EE
:101CB000CB01A0E04A2D9401281B390B4A0B3401BB
:101CC0008A2C680E791E8A1E61E070E0912C212C0E
:101CD000312C2101D701AD90BD90CD907D018D912A
:101CE0009D91AC918A199B09AC0982179307A407AF
:101CF00050F0681679068A0630F0B0E0280E391EDA
:101D00004A1E5B1E93946F5F7F4F8D819E81861765
:101D1000970701F7BAE0B91588F5C201B1010E9431
:101D20000A2E6B017C01692D70E090E080E00E943A
:101D30000A2E9B01AC01C701B6010E94193020E0B8
:101D400030E040E652E40E94AC2F20E030E040E07A
:101D50005EE30E946B2E9B01AC0160E074E284E7BD
:101D600099E40E94193020E030E040E05FE30E94F7
:101D70006B2EF80160837183828393838FEF9FEFD3
:101D8000DC018093760190937701A0937801B09362
:101D90007901F8CE86EF92E00C94970CFC01862F27
:101DA00020813181A901415051095183408312168C
:101DB000130624F48DE293E00E942C0D08952091E7
:101DC0003E02420F40933E0202970CF064ED609396
:101DD00088020895CF93DF931F92CDB7DEB71982A3
:101DE00010923302F894E99883EB9BE090930301FF
:101DF00080930201EFE6F0E08081887D808310927D
:101E000081000E948C0A60E086E00E94D00AE0E730
:101E1000F0E080818E7F80831092B10078940F90E3
:101E2000DF91CF910895AF92BF92DF92EF92FF9230
:101E30000F931F93CF93DF935C0107EC12E0D0E088
:101E4000C0E0F801D1908F017501EC0EFD1EC701B5
:101E50000E94292FD81621F06D2DC7010E94312F25
:101E60002196C133D10569F787EC92E0DF91CF91DC
:101E70001F910F91FF90EF90DF90BF90AF9008956A
:101E8000CF92DF92EF92FF920F931F93CF93DF9346
:101E9000EB017B0121E3E20EF11C8B016C01C61A00
:101EA000D70AC601800F911F0E94292FF801819344
:101EB0008F01EE15FF05A9F7CE01DF91CF911F919C
:101EC0000F91FF90EF90DF90CF9008956F927F92E7
:101ED0008F929F92AF92BF92CF92DF92EF92FF923A
:101EE0000F931F93CF93DF93CDB7DEB7C054D109C3
:101EF0000FB6F894DEBF0FBECDBF6C015B014A0187
:101F00009A01AB0160E470E0CE0101963C01F6015C
:101F100009957C018F3391057CF102960E94503126
:101F20008C01009759F19401A501B701F6010995BB
:101F30007C01A701B8018CE891E00E94B40B601607
:101F4000710619F0C8010E94EC31C701C05CDF4F77
:101F50000FB6F894DEBF0FBECDBFDF91CF911F91BA
:101F60000F91FF90EF90DF90CF90BF90AF909F9038
:101F70008F907F906F9008958301DBCFE12CF12C3F
:101F8000E4CFF894E99883EB9BE09093030180936E
:101F90000201EFE6F0E08081887D8083109281006D
:101FA000789410927A0180917401909175010C944B
:101FB000EC31CF93DF93EC0188819981009731F068
:101FC0000E94EC31198218821B821A821C82DF91D6
:101FD000CF910895CF92DF92EF92FF921F93CF930C
:101FE000DF93EC01FC013296888111E09081891722
:101FF00028F432961F5F892F1830C1F78EE093E0E6
:102000000E94D90F1130F1F010931203C12ED12C80
:102010007601EE0CFF1CC7010E94503121E0E21A4C
:10202000F108FC01119221E0E21AF108F7FEFACF63
:1020300090930F0380930E038C0D9D1D90931103BD
:102040008093100380910E0390910F03892BD1F0A0
:1020500090E080E020911203821780F4298138817A
:10206000A0910E03B0910F03A80FB91F3C93A0914C
:102070001003B0911103A80FB91F2C93229601965B
:10208000811740F3DF91CF911F91FF90EF90DF9088
:10209000CF900895CF93DF93CDB7DEB7AE01475F02
:1020A0005F4F6F81788588E79DE20E94660FDF9120
:1020B000CF910895CF93DF93CDB7DEB7AE01475FE1
:1020C0005F4F6F81788587E693E30E94660FDF910B
:1020D000CF910895CF93DF93EC0188819981009788
:1020E00021F00E94EC31198218821F821E821B820D
:1020F0001A821D821C82DF91CF910895FB0101900D
:102100000020E9F73197AF01461B570BDC01ED9139
:10211000FC910280F381E02D099465E371E08CE885
:1021200091E00C947E10CF93DF930E94970CEC010A
:102130000E948D108C0F9D1FDF91CF9108957F928B
:102140008F929F92AF92BF92CF92DF92EF92FF92C7
:102150000F931F93CF93DF9300D000D000D0CDB763
:10216000DEB78FEF9FEF9A8389831B821C821D82CB
:102170001E8281E3E82EF12C670181E3C80ED11C99
:1021800095E0C91694E0D906D9F0DE0111965D01FB
:1021900010E000E0F50171905F014701800E911E93
:1021A000C4010E94292F781621F0672DC4010E94D6
:1021B000312F0F5F1F4F0630110561F77601DCCF1D
:1021C0001092F9021092F802E7ECF2E081E3DF01ED
:1021D0001D928A95E9F781E090E0A0E0B0E080935D
:1021E000C9029093CA02A093CB02B093CC020E9482
:1021F000D3030E94CA0390E080E00E94130F9FB7B0
:10220000F894809133028E7F809333028091330261
:102210008D7F809333029FBF81EE95E026960FB6A7
:10222000F894DEBF0FBECDBFDF91CF911F910F910C
:10223000FF90EF90DF90CF90BF90AF909F908F90E6
:102240007F900C9493108F929F92AF92BF920F93B6
:102250001F93CF93DF93CDB7DEB7A1970FB6F89456
:10226000DEBF0FBECDBF19A2423008F44AE08E0196
:102270000F5D1F4F842E912CB12CA12CA501940130
:102280000E944F2FE62FB901CA01EA3004F5E05D44
:10229000D801EE938D01232B242B252B79F790E089
:1022A00080E0109729F0BD018CE891E00E947E103B
:1022B000A1960FB6F894DEBF0FBECDBFDF91CF91D0
:1022C0001F910F91BF90AF909F908F900895E95C00
:1022D000DFCFCF92DF92EF92FF92CF93DF936C012B
:1022E000990FEE08FF08F7FE17C08DE20E94B20CAE
:1022F000EC0166277727CB016C197D098E099F09B0
:102300004AE00E9423118C0F9D1FDF91CF91FF9017
:10231000EF90DF90CF9008954AE0C701B601DF91BA
:10232000CF91FF90EF90DF90CF900C9423114F92BC
:102330005F926F927F92AF92BF92CF92DF92EF92B5
:10234000FF920F931F93CF93DF9300D000D0CDB7B0
:10235000DEB7D82E1F921F9285E995E09F938F9349
:102360008CE891E09F938F930E944A10A0901203F3
:102370000F900F900F900F900F900F90AA2009F4DC
:10238000AFC081E995E00E94970CF12CE12CEA1492
:10239000B0F4EE2019F08CE20E94B20CE0910E0332
:1023A000F0910F03EE0DFF1D608170E090E080E082
:1023B0004AE00E9423118FEFE81AF80AE8CF8BE871
:1023C00095E00E94970CF12CE12CEA1498F4EE2091
:1023D00019F08CE20E94B20CE0911003F09111030D
:1023E000EE0DFF1D808190E00E9469118FEFE81AC9
:1023F000F80AEBCF85E895E00E94970C6D2D70E010
:1024000090E080E00E940C2E20E030E040E85FE3A6
:102410000E94AD2F9B01AC0160E078EF8FEF95E457
:102420000E9419309B01AC0160E070E08FE793E4FB
:102430000E9419302B013C01C12CD12C7601B12C0A
:1024400080911003909111039A83898380910E03E8
:1024500090910F039C838B8397018601A501BE0198
:102460006F5F7F4FCE0103960E94DE040E944804F6
:102470000E946911A3019201C701B6010E94AD2F0C
:102480006B017C0126E636E64FE753E40E94052EF9
:1024900087FD18C08DE50E94B20C0E948D100F9030
:1024A0000F900F900F90DF91CF911F910F91FF90A0
:1024B000EF90DF90CF90BF90AF907F906F905F9044
:1024C0004F90089520E030E0A901C701B6010E94B5
:1024D000052E882309F4B4CF8CE20E94B20CB0CF51
:1024E0008CE795E00E949310DACF0F931F93CF9360
:1024F000DF93EC01088519850617170708F48B018F
:10250000095F1F4F087F8E819F818017910721F1FE
:10251000888199810115110549F1009719F1B801D8
:102520000E9475329983888388819981892B11F45F
:1025300010E000E01F830E838A819B810817190732
:1025400010F41B830A838A819B812C813D81821731
:10255000930710F49D838C8381E0DF91CF911F91CD
:102560000F910895C8010E945031DCCF009701F30C
:102570000E94EC3119821882DDCF1F93CF93DF9335
:10258000EC018A819B819C012F5F3F4F4E815F81CF
:102590008417950750F4E881F9813B832A83E80F7B
:1025A000F91F608381E090E00CC0162FB901CE01C5
:1025B0000E947512811109C0CE010E946A1090E03C
:1025C00080E0DF91CF911F910895E881F9818A81A0
:1025D0009B819C012F5F3F4F3B832A83E80FF91FAC
:1025E0001083E0CFCF93DF93EC018A89882381F0B9
:1025F0008C8D9D8D8F3F910530F081E08E871D86FB
:10260000DF91CF910895CE014A960E94BD12F7CF77
:102610008C858617170689F781E08A8BF0CFFC013D
:1026200097859D7F913021F4CF0184960C94BD1243
:1026300090E080E00895FC011582148213821282DA
:1026400060857185695F7F4F687F0C9475128F92EA
:102650009F92AF92BF92DF92EF92FF920F931F93E0
:10266000CF93DF93EC01D62EECA0FDA008A519A511
:10267000AEA0BFA08CA99DA9DC01ED91FC910680C4
:10268000F781E02D0995B2E5DB1631F0E4E5DE16C1
:1026900019F0F1E4DF121DC08CA89DA8DF9289ED2E
:1026A00095E09F938F931F9288E08F9384E891E049
:1026B0009F938F930E94482D64E871E0C4010E94AB
:1026C0007E108DB79EB707960FB6F8949EBF0FBECB
:1026D0008DBF0E0D1F1DEA0CFB1C0E151F0539F0DA
:1026E000D8016D918D01CE010E940A0DF6CF8CA903
:1026F0009DA90E94E30C8CA99DA9DC01ED91FC91A0
:102700000680F781E02D0995CE0184960E941B1367
:102710001F8680E0DF91CF911F910F91FF90EF9086
:10272000DF90BF90AF909F908F900895CF9380914E
:102730003B0390913C032091390330913A03821777
:102740009307D0F4E0913703F0913803E80FF91FB5
:10275000808190E020912203213089F487FD19C007
:1027600020911F03C7E02817190651F064E583E1A3
:1027700093E0CF910C9427138FEF9FEFEBCFC8E03E
:1027800087E393E00E941B13109222038C2FCF91BA
:102790000895C6E0F5CF1F93CF93DF93162F21E066
:1027A000FC012787EC01A496CE010E941B13612F28
:1027B000CE01DF91CF911F910C94BD120F931F9307
:1027C000CF93DF938C01CB01F80124813581C28145
:1027D000D381C21BD30B4C175D0708F4EA01F80143
:1027E00060817181620F731F0E944B33F8018481F5
:1027F00095818C0F9D1F95838483CE01DF91CF91AE
:102800001F910F910895EF92FF920F931F93CF9313
:10281000DF93EC018B017A018F858D7F813051F040
:10282000F12CE12CC701DF91CF911F910F91FF9007
:10283000EF9008956EA17FA1640F751F8AA59BA5D7
:102840006817790788F42CA13DA18EA19FA1A7014B
:10285000B801820F931F0E944B338EA19FA18E0D52
:102860009F1D9FA38EA3DECF6F5F7F4FCE01849607
:102870000E9475128111E7CFD3CFFF920F931F9360
:10288000CF93DF93CDB7DEB7E9970FB6F894DEBFED
:102890000FBECDBFF82E8E010E5C1F4F88E0F801F1
:1028A00011928A95E9F78091330281FF10C089ADBA
:1028B000816089AF89E1E0E5F2E0ADECB2E0019042
:1028C0000D928A95E1F788EE92E00E94A70380912D
:1028D0004002909141029093E7028093E6020E94A9
:1028E000CA03BE016F5F7F4F8091F8029091F90299
:1028F0000E94400FF1100BC041E350E0BE016F5F3A
:102900007F4F87EC92E00E943E33892BC9F0809183
:10291000F8029091F9029C012E593F4F2115344045
:1029200008F0A3C0C1969093F9028093F8028091B9
:10293000F8029091F9020E94130F81E388AF01C061
:1029400018AE0E94580B6093FA027093FB028093BA
:10295000FC029093FD029FB7F894809133028E7F22
:1029600080933302809133028D7F809333029FBF27
:102970008091C9029091CA02A091CB02B091CC0281
:102980008AAB9BABACABBDAB8091F8029091F902E6
:102990009FAB8EAB68E183E193E00E94CB1363EFC2
:1029A00083E193E00E940F1348E050E0B80183E117
:1029B00093E00E9403140E949613E091F802F091B4
:1029C000F90289AD81701F928F938091C8028F9315
:1029D0008091C7028F9389AD1F928F9388AD1F920C
:1029E0008F932091C9023091CA024091CB0250913D
:1029F000CC02A4E1B0E00E94712F8B019C01045134
:102A0000110921093109CF0161E370E00E948B2F88
:102A1000060F171F211D311D3F932F931F930F93F7
:102A2000FF93EF938DA98F938CA98F938BA98F938D
:102A30008AA98F9380EA95E09F938F938CE891E029
:102A40009F938F930E944A100FB6F894DEBF0FBE7B
:102A5000CDBFE9960FB6F894DEBF0FBECDBFDF91B4
:102A6000CF911F910F91FF9008951092F90210924B
:102A7000F8028091C9029091CA02A091CB02B09154
:102A8000CC020196A11DB11D8093C9029093CA0288
:102A9000A093CB02B093CC020E94CA0348CF6091AE
:102AA00088026058770B6C5C7D4F80913E0287FDF9
:102AB00012C049E852E0461B570B453560F48417B5
:102AC0000CF4482F10923E02042E000C550B83E1AB
:102AD00093E00C94031440E0F5CF462F50E0BC0186
:102AE00083E193E00E9403140C9496138F929F92BB
:102AF000AF92BF92CF92DF92EF92CF93DF9380910C
:102B0000B2001092B20087B3B89A80FF09C08091DA
:102B10007001909171010196909371018093700101
:102B20008091700190917101109271011092700169
:102B300020915602309157022115310509F4EEC05B
:102B400090916F00946090936F00C0908A00D09035
:102B50008B008091840090918500C81AD90AE12CDD
:102B60008091840090918500820F931F90938B0039
:102B700080938A00B29A8091560290915702C81AA7
:102B8000D90AE1088091B30281FD39C080FD06C0F9
:102B90008091B7029091B802029788F12091B30218
:102BA00022606E2DA601062E000C770BDB01CA01F8
:102BB000342F3295307F2F70232B2093B302392F7F
:102BC0003295307F242F22952F70232B2093B4022F
:102BD000362F3295307F292F22952F70232B20936B
:102BE000B5022B2F2295207F862F82958F70822B06
:102BF0008093B602809133028064809333021092F6
:102C0000B2021092B10288E0EFE9F2E0A7E9B2E087
:102C100001900D928A95E1F77894C091AE02CE3F73
:102C200008F091C0C330F0F04E2D9601042E000C38
:102C3000550BCA01B9010E940C2E2091AA023091B5
:102C4000AB024091AC025091AD020E94AD2FCD3F3E
:102C500009F472C06093AA027093AB028093AC0235
:102C60009093AD02CF5FC093AE02C0909302D0901C
:102C70009402C114D10409F446C020918F0230910E
:102C80009002409191025091920260918B0270915A
:102C90008C0280918D0290918E020E94AD2F6093E4
:102CA0008B0270938C0280938D0290938E0231E0A0
:102CB000C31AD108D0929402C0929302C091C50267
:102CC000D091C602CD2809F06CC0809195029091F8
:102CD00096029D878C87E091C502F091C60284859B
:102CE00095859093BA028093B9029FB7F89480912A
:102CF000330280628093330225E33CE030932A0262
:102D0000209329029FBFDF91CF91EF90DF90CF906A
:102D1000BF90AF909F908F900C941609C0908A003E
:102D2000D0908B008091840090918500C81AD90AB8
:102D3000E12C0E94D7091FCF20E030E04AE753E49E
:102D40000E94193087CF20E030E048EC52E46091D7
:102D5000AA027091AB028091AC029091AD020E94E8
:102D60006B2E4B015C014E2D9601042E000C550B71
:102D7000CA01B9010E940C2E9B01AC01C501B4012E
:102D80000E94AD2F20E030E04AEC52E40E9419305E
:102D90006093AA027093AB028093AC029093AD0251
:102DA00064CF0E948B307D876C87ADCFBF92CF926E
:102DB000DF92EF92FF920F931F93CF93DF93EC017B
:102DC000162F8E856A3009F0A3C0823030F08D85D1
:102DD000833008F46DC081E08E878E85823008F4E0
:102DE00053C08A89882309F44FC08C8D9D8D00972C
:102DF00011F421E02E872E85223009F47EC0233085
:102E000009F042C0CE014A960E941B138F85882389
:102E100009F462C01C858CA99DA9DC01ED91FC918F
:102E20000680F781E02D0995ECA8FDA881E48F9339
:102E300089ED95E09F938F931F9288E08F9384E8AC
:102E400091E09F938F930E94482D64E871E0C70141
:102E50000E947E10612FCE010E940A0D8CA99DA9AF
:102E60000E94E30C8CA99DA9DC01ED91FC910680E8
:102E7000F781E02D09952DB73EB7295F3F4F0FB67B
:102E8000F8943EBF0FBE2DBF1E861D868A898823FB
:102E900029F0CE014A960E941B131A8ADF91CF9126
:102EA0001F910F91FF90EF90DF90CF90BF9008950A
:102EB000813009F490CF823009F08FCF1D8A40E134
:102EC00050E070E060E0CE0143960E94362B70E047
:102ED000CE010E94F21281CF6C85CE010E94CB13ED
:102EE000E8A9F9A9309721F0188A099581E0888B23
:102EF00061E4CE010E942713C7CF188A2E8D3F8D23
:102F0000EEA5FFA5821B930B099581E0888BBCCFB2
:102F1000813021F26D3011F2811179C0ED85E1111E
:102F20006DC06B3209F06DC081E08E0F8D87EC0FA4
:102F3000FD2FF11D138BFE01E80FF11D138A8B8904
:102F40008B3209F0ABCF6E0133E1C30ED11C82E5A9
:102F50008F9389EDE82E85E0F82EFF92EF921F9275
:102F600098E0B92EBF9204E811E01F930F930E94DE
:102F7000482DB801C6010E945433ADB7BEB71796AD
:102F80000FB6F894BEBF0FBEADBF892BF1F181E43F
:102F90008F93FF92EF921F92BF921F930F930E9405
:102FA000482DB801C6010E9454332DB73EB7295FA2
:102FB0003F4F0FB6F8943EBF0FBE2DBF892B09F4CB
:102FC0006DCF84E58F93FF92EF921F92BF921F9374
:102FD0000F930E94482DB801C6010E945433ADB72B
:102FE000BEB717960FB6F894BEBF0FBEADBF892B04
:102FF00009F054CF82E08E871D8650CFE63008F46A
:1030000093CF1D8681E08E8749CF83E0F4CFE62EF3
:10301000F12CC7010E943233892B19F1ED8581E033
:103020008E0F8D87EC0FFD2FF11D138B833050F722
:10303000823009F033CF1D8A40E150E070E060E05B
:10304000CE0143960E94362B70E0CE01DF91CF91E6
:103050001F910F91FF90EF90DF90CF90BF900C9455
:10306000F2121C3209F41ACFC7010E94F92C892BE5
:1030700049F214CFCF93DF93C0914703D091480317
:10308000E881F9810084F185E02DCE010995892B35
:1030900069F0E881F9810284F385E02DCE0109957C
:1030A000682F83E193E00E94D616EACFDF91CF919B
:1030B00008950E941E0C81110C943A180895CF9225
:1030C000DF92EF92FF926091FE027091FF0290E01A
:1030D00080E00E940A2E9B01AC0160E070EC8FE75B
:1030E00097E40E94193020E030E040E85FE30E945E
:1030F000AC2F23EC35EF48EA5EE30E946B2E0E9472
:10310000CE3020E030EE46E755E40E9419302FE043
:103110003FEC4BE55BE30E94AD2F9B01AC0160E00F
:1031200070E080E89FE30E94193023E333E948E828
:1031300053E40E94AC2F6B017C01609163026F3FEE
:10314000B1F0062E000C770B880B990B0E940C2E09
:1031500020E030E040E85EE30E946B2EA70196017C
:103160000E94AD2FFF90EF90DF90CF90089560E028
:1031700070E080EC9FE7F2CF0F931F93CF93DF9324
:103180000E94CA0E8DE894E00E9493108CE891E0B2
:103190000E94B70C0E94CA0E81E230E020E0F901E3
:1031A00080935700649142E050E0FA018093570009
:1031B0007491E4E0F0E080935700849199E0F90184
:1031C000909357002491E3E0F0E0909357003491FE
:1031D000FA019093570094911F929F931F923F93EF
:1031E0001F922F931F928F931F927F931F926F9323
:1031F0008FE594E09F938F93CCE8D1E0DF93CF935A
:103200000E944A1089E594E00E94970C8CEF92E0AE
:103210000E94970C89E494E00E949310CE010E94D2
:10322000B70C0E94CA0E2091C9023091CA02409187
:10323000CB025091CC02A4E1B0E00E94712F8B012F
:103240009C0104511109210931098091F8029091E2
:10325000F90261E370E00E948B2F060F171F211DFA
:10326000311D3F932F931F930F9385E394E09F931A
:103270008F93DF93CF930E944A101F9286E08F9323
:103280008CE294E09F938F93DF93CF930E944A1038
:1032900082E294E00E94970C8DE194E00E94970CEA
:1032A0008CE094E00E94970C80E094E00E94970CE0
:1032B00080915002EDB7FEB77E960FB6F894FEBF30
:1032C0000FBEEDBF81FD47C184E51F928F931F9212
:1032D00087E18F938DEE93E09F938F93CCE8D1E0BD
:1032E000DF93CF930E944A108FE38F9380E88F93F0
:1032F0001F921F921F9288E08F938EEC93E09F9312
:103300008F93DF93CF930E944A104AE066E070E00B
:1033100080E090E00E9423118CE20E94B20C809128
:103320005002829581701F928F9384EC93E09F935B
:103330008F93DF93CF930E944A1020915E023091C9
:103340005F02EDB7FEB778960FB6F894FEBF0FBEDA
:10335000EDBF2115310509F400C180915C02909107
:103360005D02281B390B50E040E060E070E080E037
:1033700094E00E944F2F3F932F9380915D028F9393
:1033800080915C028F9387EB93E09F938F93CCE8BF
:10339000D1E0DF93CF930E944A10CE010E94B70C78
:1033A0000E94CA0E80916002082E000C990B982F83
:1033B00088279295907F092E000CAA0BBB0B835394
:1033C0009343A347B04CBF93AF939F938F93809148
:1033D0006F028F9380916E028F9380916D028F9315
:1033E00080916C028F938091500281701F928F9315
:1033F0008FE893E09F938F93DF93CF930E944A10BF
:10340000609163028DB79EB746960FB6F8949EBF43
:103410000FBE8DBF6F3F09F4A3C0062E000C770BC3
:10342000880B990B0E940C2E20E030E040E85EE310
:103430000E946B2EEB01182F092F0E945F180F932B
:103440001F93DF93CF939F938F937F936F938FE718
:1034500093E09F938F93CCE8D1E0DF93CF930E94CA
:103460004A100E946A0D209162021F922F932091B0
:1034700061021F922F939F938F9383E693E09F9314
:103480008F93DF93CF930E944A10809164021F9222
:103490008F93809151021F928F938CE493E09F93BE
:1034A0008F93DF93CF930E944A1086E493E00E94AB
:1034B000970C0E944B0D9C0121503109EDB7FEB7CE
:1034C0007E960FB6F894FEBF0FBEEDBF2E3F3F4F66
:1034D00008F44BC08DE20E94B20C809157028F938A
:1034E000809156028F9380915B028F9380915A0254
:1034F0008F93809159028F93809158028F9389E125
:1035000093E09F938F93CCE8D1E0DF93CF930E9419
:103510004A10809168021F928F93809167028F9367
:10352000809166028F9387E093E09F938F93DF9360
:10353000CF930E944A102DB73EB72E5E3F4F0FB675
:10354000F8943EBF0FBE2DBFCE01DF91CF911F91EA
:103550000F910C94B70C8CE4B8CE20E030E20BCF86
:10356000C0E0D0E010EC0FE768CFBC0190E080E055
:103570000E940A2E20E030E04AE754E40E9419300D
:103580009F938F937F936F9381E493E09F938F93A7
:10359000DF93CF930E944A104DB75EB7485F5F4FED
:1035A0000FB6F8945EBF0FBE4DBF97CF2F923F92DC
:1035B0004F925F926F927F928F929F92AF92BF9243
:1035C000CF92DF92EF92FF920F931F93CF93DF93EF
:1035D000CDB7DEB7A1970FB6F894DEBF0FBECDBF53
:1035E0009A8F898F84ED8093880210923F02109207
:1035F0003E02ECE82E2EE1E03E2E898D9A8D9C0154
:10360000215031093A8F298F181619060CF0ADC4D4
:10361000109188028DE293E00E942C0DE0918802C7
:10362000E058E53508F0E4E5F0E0EC5CFD4F808320
:103630008091880291E0980F90938802143D11F5D3
:1036400080938802298D3A8D232BB9F6893BA9F600
:1036500080913E02823089F682E498E0909379026C
:103660008093780285E0EAE0F1E0AAE7B2E0019019
:103670000D928A95E1F787E080933E0284EC809377
:103680008802BBCF1A3811F484EDF9CF193809F04C
:10369000B4CF90913D02933809F480C208F068C01D
:1036A000933209F4C0C190F5923109F486C1F0F467
:1036B000903109F4A6C1913109F09FCF00913902F0
:1036C00010913A0220913B0230913C024091370226
:1036D0005091380260913402709135028091360227
:1036E0008F3F09F480E00E948B0787CF298D3A8DA8
:1036F000913209F492C108F093C144E06CEB90322E
:1037000009F07BCFC9010E94DF0E77CF933509F412
:103710009EC1D0F4913509F4C8C108F089C1903533
:1037200009F06BCF60E0CE0149960E94CE0E82393F
:1037300041F49FB7F8948091330282608093330202
:103740009FBF0E94640B59CF963509F483C192380C
:1037500009F402C2943509F050CF10922C02109255
:103760002B0210923002109231021092320245CF99
:10377000953909F4EEC108F0ABC0963809F440C29F
:1037800038F5943809F420C2953809F036CF61E055
:10379000CE0149960E94CE0E2091A8023091A90236
:1037A000820F932F911D9093A9028093A8029F935B
:1037B0008F9387E792E09F938F933F922F920E947F
:1037C0004A100F900F900F900F900F900F9015CF01
:1037D000933909F478C108F08BC1913909F00DCF04
:1037E0001F928CE98F931F9287E18F9388E08F93CC
:1037F00082E48F938DED92E09F938F933F922F926F
:103800000E944A100FB6F894DEBF0FBECDBF00E590
:1038100012E068EDE62E62E0F62ED8018D918D0162
:103820001F928F93FF92EF923F922F920E944A1025
:103830000F900F900F900F900F900F90B2E00936FD
:103840001B0759F70E948D101F921F921F9283EA47
:103850008F931F9287E18F931F921F928DEC91E0BF
:103860009F938F933F922F920E944A108CE891E091
:103870000E94B70C0FB6F894DEBF0FBECDBFF12C7F
:1038800004EC11E080911203F81608F0FFC08F2DB0
:1038900090E0A0911003B0911103A80FB91F2C91D3
:1038A0001F922F93E0910E03F0910F03E80FF91F81
:1038B00080811F928F931F930F933F922F920E94AC
:1038C0004A10F3940FB6F894DEBF0FBECDBFDACF27
:1038D000933A09F408C3A8F4913A09F431C208F004
:1038E00037C3903A09F089CE6FEFCE0149960E9416
:1038F000CE0E6FE7CE0149960E94CE0E0E94971120
:103900007CCE9D3E09F490C19E3E09F4CEC1943A0E
:1039100009F073CEE091C502F091C602A484B5848B
:1039200070E060E080E00E948409C12CD12C760117
:1039300010E000E00E94010B2B01C8010E942D073E
:10394000982E892E0E94010B641975092B01712C88
:10395000612CC414D504E604F704A8F47F936F9394
:103960008F929F921F930F93EAE0F2E0FF93EF9301
:103970003F922F920E944A100FB6F894DEBF0FBEFE
:10398000CDBF730162010F5F1F4F011590E2190750
:1039900089F6FF92EF92DF92CF921F921F928DEEE7
:1039A00091E09F938F933F922F920E944A10B5010E
:1039B000772780E00E948409EBC0898D9A8D9C0155
:1039C000215031093A8F298F18161906BCF48DE25F
:1039D00093E00E942C0D282F2F7074E09595879509
:1039E0007A95E1F78F70880F90913E02890F80934E
:1039F0003E022A5B220F20938802FFCD20E088E060
:103A0000F2CF6091370270913802809136028F3F79
:103A100009F480E00E948409F0CD42E060EC72CEAF
:103A200042E062EC6FCE44E068EB898D9A8D6BCEFC
:103A300080E090E0A0E8BFE3809378029093790261
:103A4000A0937A02B0937B0244E064ECEECF0E9434
:103A5000BC18D3CD898D9A8D9C01215031093A8FA4
:103A6000298F181619060CF0C8CD8DE293E00E943C
:103A70002C0DE091C302F091C40221E0019709F0FE
:103A800020E0808120FB81F98083B7CD3FE13F15A5
:103A900028F080E30E94B20CF394F8CF0E948D10BE
:103AA0008CE891E00E94B70CA8CD0E94D3039FB789
:103AB000F894809133028260809333029FBF81E04B
:103AC0000E943D149ACD1FB7F89460E0CE0149964C
:103AD0000E94CE0E823929F4809133028260809355
:103AE0003302809133028E7F809333021FBFE7CF72
:103AF0008EEC92E00E949310C0906C02D0906D0208
:103B0000E0906E02F0906F0220E030E0A901C70162
:103B1000B6010E94052E882351F0A7019601C70126
:103B2000B6010E941631811102C00E94EA0E64EFB4
:103B300071E080E090E00E94260B81E080937A01A2
:103B4000109276011092770110927801109279010B
:103B500054CD0E949F1051CD61E0CE0149960E9444
:103B6000CE0E2091560230915702820F932F911D55
:103B700090935702809356029F938F939F938F93B6
:103B800086EB92E09F938F933F922F920E944A1070
:103B90000FB6F894DEBF0FBECDBF2FCD61E0CE01D2
:103BA00049960E94CE0E2091560230915702281B52
:103BB000310930935702209356023F932F933F933E
:103BC0002F938EE992E0DECF898D9A8D9C01215052
:103BD00031093A8F298F029744F042E050E066E5C0
:103BE00072E08DE293E00E94DE1380915602909184
:103BF00057029F938F939F938F9386E892E0C2CF53
:103C000061E0CE0149960E94CE0E2091A80230912B
:103C1000A902281B31093093A9022093A8023F93DF
:103C20002F9388E692E0C7CD82E692E00E94970C3F
:103C30008091990290919A02892B91F110E024E0F1
:103C40001202F0011124E757FD4F20893189211517
:103C5000310509F46BC04685E091C502F091C602BA
:103C6000842F042E000C990B0696880F991FE80FDD
:103C7000F91F81818F9380818F933F932F931F92A0
:103C80004F9387E592E09F938F933F922F920E94EC
:103C90004A101F5F0FB6F894DEBF0FBECDBFCFCF67
:103CA00084E492E00E949310A8CC8EE392E00E94FC
:103CB000970C94E3E92E92E0F92E00E810E022E35D
:103CC000C22E22E0D22EB02EF02FF370AF2E81F450
:103CD0001F930F9327E332E03F932F933F922F924E
:103CE0000E944A100F900F900F900F900F900F901E
:103CF000D7018D917D011F928F93DF92CF923F92DA
:103D00002F920E944A108B2D8F700F900F900F9062
:103D10000F900F900F908F3061F48BE292E00E9431
:103D2000970C0F5F1F4F053D110569F60E948D101E
:103D300064CCB3E0AB12F5CF80E20E94B20CF1CFBD
:103D4000898D9A8D05970CF458CC44E050E0BE0163
:103D50006F5E7F4F8DE293E00E94DE13E98CFA8C58
:103D6000E81AF90AFA8EE98EE0FC47CCE6948FEF68
:103D70008E0D883008F041CCFE013196FC8FEB8F20
:103D800080E111928A95E9F7F12CA701BE016F5FDE
:103D90007F4F8DE293E00E94DE13298D3A8D281B20
:103DA000390B3A8F298FA701BE01675F7F4F8DE2E4
:103DB00093E00E94DE13298D3A8D281B390B3A8F30
:103DC000298FC988DA888C89482E512CFFEF4F1A29
:103DD0005F0A2B89249DC001259D900D11249C0113
:103DE0002C0D3D1D3E8F2D8F5F924F923F932F9351
:103DF000DF92CF9288E391E09F938F933F922F922F
:103E00000E945A1088E7882E82E0982E0FB6F89408
:103E1000DEBF0FBECDBFB12CAD8DBE8DCA16DB0689
:103E20000CF05FC0B0E1BB1609F45BC0B60190E0D6
:103E300080E00E940A2E2CE73CE740E052E40E941A
:103E4000193069A3672E8C0120E030E04FE753E47E
:103E50000E94052E87FD04C019A2612C0FE713E410
:103E6000E9E0F0E0EC0FFD1FF88FEF8B21E030E090
:103E70002C0F3D1F3E8B2D8BA9A06F8E08A3712E9A
:103E80000A2D162D28A1372DA701BE01695E7F4F8F
:103E9000CE0145960E94DE040E944804D4018C9312
:103EA00011969C93B2E08B0E911CB394B3949F93A4
:103EB0008F937F92E8A1EF93FF8DFF93AF92DF92F4
:103EC000CF9226E531E03F932F933F922F920E94AD
:103ED0005A10C40CD51C0FB6F894DEBF0FBECDBF70
:103EE0009BCF4B2DB2CD6FEFCE0149960E94CE0EE7
:103EF000811183CBFFB6F894E8E7F2E080E1DF01BF
:103F00001D928A95E9F7098D1A8D1016110674F421
:103F1000013108F000E110E0A80168E772E08DE2ED
:103F200093E00E94DE130817190721F488E792E056
:103F30000E94EA0F809150028F7E809350029091F0
:103F40001203992319F0806180935002FFBE55CB74
:103F50006FEFCE0149960E94CE0E81114ECB88E7BD
:103F600092E00E94A70340E170CDA1960FB6F894AD
:103F7000DEBF0FBECDBFDF91CF911F910F91FF909C
:103F8000EF90DF90CF90BF90AF909F908F907F90F9
:103F90006F905F904F903F902F9008951F920F92D7
:103FA0000FB60F9211242F933F938F939F93AF934C
:103FB000BF9380917C0190917D01A0917E01B09191
:103FC0007F0130917B0126E0230F2D3758F50296B3
:103FD000A11DB11D20937B0180937C0190937D01F5
:103FE000A0937E01B0937F01809180019091810127
:103FF000A0918201B09183010196A11DB11D809312
:10400000800190938101A0938201B0938301BF91BD
:10401000AF919F918F913F912F910F900FBE0F9075
:104020001F90189529E8230F0396A11DB11DD2CF2B
:104030001F920F920FB60F9211242F933F934F931D
:104040005F936F937F938F939F93AF93BF93EF9300
:10405000FF93E0910201F09103010995FF91EF9127
:10406000BF91AF919F918F917F916F915F914F9190
:104070003F912F910F900FBE0F901F9018951F9298
:104080000F920FB60F9211242F933F934F935F938C
:104090006F937F938F939F93AF93BF93EF93FF9310
:1040A000E0910001F09101010995FF91EF91BF911D
:1040B000AF919F918F917F916F915F914F913F91C0
:1040C0002F910F900FBE0F901F9018951F920F9277
:1040D0000FB60F9211242F933F934F935F936F93DB
:1040E0007F938F939F93AF93BF93EF93FF938CE84E
:1040F00091E00E94280CFF91EF91BF91AF919F91A9
:104100008F917F916F915F914F913F912F910F9080
:104110000FBE0F901F9018951F920F920FB60F921F
:1041200011242F938F939F93EF93FF93E0919C0122
:10413000F0919D018081E091A201F091A30182FDA7
:104140001BC090818091A5018F5F8F732091A60184
:10415000821741F0E091A501F0E0E457FE4F958F02
:104160008093A501FF91EF919F918F912F910F90D7
:104170000FBE0F901F9018958081F4CF1F920F9261
:104180000FB60F9211248F939F938091720190919B
:104190007301019690937301809372019F918F91A7
:1041A0000F900FBE0F901F9018951F920F920FB691
:1041B0000F9211248F939F938091700190917101C0
:1041C00001969093710180937001809129029091E2
:1041D0002A02181619062CF4019790932A0280934C
:1041E000290280912B0290912C02009729F00197CF
:1041F00090932C0280932B029F918F910F900FBE72
:104200000F901F9018951F920F920FB60F921124C6
:104210002F933F934F935F936F937F938F939F93CE
:10422000AF93BF93EF93FF930E94D709FF91EF9154
:10423000BF91AF919F918F917F916F915F914F91BE
:104240003F912F910F900FBE0F901F9018951F92C6
:104250000F920FB60F9211248F938091B002882392
:1042600069F05E9A80916F00897F846080936F000F
:104270008F910F900FBE0F901F9018955E98F2CF00
:104280001F920F920FB60F9211242F933F934F93CB
:104290006F937F938F939F936091780070917900D3
:1042A00080910403909105030196909305038093F8
:1042B000040318161906DCF4209108033091090351
:1042C00040910A03260F371F411D209308033093A6
:1042D000090340930A0320910603309107038217D4
:1042E000930728F010927A0081E080930D039F914C
:1042F0008F917F916F914F913F912F910F900FBEB2
:104300000F901F90189510927A008EE093E00E9413
:10431000D90F85E291E0909314038093130387E310
:1043200093E00E946A108DE293E00C946A10CF93A0
:10433000DF93ACE8B1E013961C921E92129748EE00
:1043400053E060E070E014964D935D936D937C9321
:10435000179783E191E011969C938E9385EC90E002
:104360001D969C938E931C9784EC90E01F969C93D3
:104370008E931E9780EC90E051969C938E9350976D
:1043800081EC90E053969C938E93529782EC90E050
:1043900055969C938E93549786EC90E057969C93F9
:1043A0008E93569759961C9259975A961C925A97E3
:1043B0005B961C925B975C961C925C97E3E1F3E042
:1043C00013821282448355836683778385E291E06A
:1043D000918380838EEF848715861686178681E009
:1043E000808B118A128A26E233E087E0E901199274
:1043F0008A95E9F7138E128E158E148E178E168EEF
:1044000011A210A213A212A215A214A217A216A200
:1044100011A610A613A612A615A614A617A616A6D0
:1044200011AA10AA8AE398E193AB82ABB5ABA4AB17
:10443000E9E2F2E08FEF9FEF9183808382E19AE7D8
:1044400093838283148215821682178210861186C6
:104450001286E9E8F2E08AE3DF011D928A95E9F726
:1044600080E592E093AF82AF84E392E095AF84AFB2
:10447000EEE0F3E011821082138212821482E7ECE4
:10448000F2E081E3EF0119928A95E9F712AA11AAE5
:1044900088E79CEEAFEFBFEF83AB94ABA5ABB6ABB9
:1044A000EEEFF2E086E0DF011D928A95E9F71786CC
:1044B000DF91CF910895CF93DF93CDB7DEB7E1972A
:1044C0000FB6F894DEBF0FBECDBF789484B582607E
:1044D00084BD84B5816084BD85B5826085BD85B5A8
:1044E000816085BD80916E00816080936E00109226
:1044F00081008091810082608093810080918100A1
:104500008160809381008091800081608093800031
:104510008091B10084608093B1008091B00081608F
:104520008093B00080917A00846080937A008091BB
:104530007A00826080937A0080917A008E7F8093E7
:104540007A0080917A00806880937A001092C1008E
:10455000E0919C01F0919D0182E08083E0919801BF
:10456000F09199011082E0919A01F0919B0180E114
:1045700080831092A401E091A001F091A10186E056
:104580008083E0919E01F0919F0180818061808312
:10459000E0919E01F0919F01808188608083E0918D
:1045A0009E01F0919F01808180688083E0919E014F
:1045B000F0919F0180818F7D80830E94CA0E8BEFD6
:1045C00094E00E9493108CE891E00E94B70CE6E31F
:1045D000F2E083E5DF011D928A95E9F78FEF9FEF07
:1045E000909335028093340280911F038E3FC1F077
:1045F0008EEF80931F0310922003109221031092DC
:10460000220381E080932303109224031092250358
:104610008DE293E00E946A1087E393E00E946A10A3
:1046200087E180931F0386ED9AE190934203809384
:1046300041038FE495E190934403809343038FEF0C
:104640009FEF9093F9028093F802F12CE12C412C1A
:10465000512C3201E4EDEE16E3E0FE0659F1BE0105
:104660006F5F7F4FC7010E94400FCE0103960E94EB
:10467000820329813A8128173907C1F44B815C8173
:104680006D817E81441555056605770578F0F092B9
:10469000F902E092F80281E3FE013196A7ECB2E064
:1046A00001900D928A95E1F72A013B01B1E3EB0EEF
:1046B000F11CD0CF8091F8029091F902019609F097
:1046C000AEC00E949F1060E084E10E94D00A60E0CA
:1046D00083E00E94D00A1092690210926A0210923E
:1046E0006B0281E080937A0110927601109277013B
:1046F0001092780110927901DE0111965D0160E45B
:10470000262E312C80917A01882309F415C2C0909D
:104710007601D0907701E0907801F0907901C11492
:10472000D104E104F10409F0D0C0C0906C02D09033
:104730006D02E0906E02F0906F0220E030E0A9017F
:10474000C701B6010E94052E882351F0A7019601EA
:10475000C701B6010E941631811102C00E94EA0E03
:1047600010927A0010920D0364E670E080E090E011
:104770000E94260B0E94580B605E784A8E4F9F4F16
:10478000609376017093770180937801909379011B
:1047900084E391E00E945031FC0180E090E0A0ECC5
:1047A000BFE780839183A283B38315821482ABEF2A
:1047B000BFEFB783A683DF011896CF018C5C9E4FB5
:1047C0001D921D921D928A179B07D1F7F0937501D8
:1047D000E0937401F894E7E8FDE0F0930301E093BF
:1047E0000201809169008C6080936900E99A1092BF
:1047F000800081E08093810080916F0081608093D0
:104800006F001092850010928400B09A78940E94F4
:104810001E0C882309F476CF0E943A1873CF80913A
:10482000CE02873308F487E38E3708F08DE7809354
:10483000CE0289E1EDECF2E0A0E5B2E001900D924C
:104840008A95E1F78EE093E00E94D90F88EE92E01E
:104850000E94EA0FE091F802F091F9028091C802FB
:104860008F938091C7028F93CF0161E370E00E9424
:104870008B2F6B01F12CE12C24E1C21AD108E10845
:10488000F108A4E1B0E0A30192010E94712FC60ECD
:10489000D71EE81EF91EFF92EF92DF92CF92FF9390
:1048A000EF937F926F925F924F9283ED94E09F938C
:1048B0008F938CE891E09F938F930E944A100FB6DC
:1048C000F894DEBF0FBECDBFFECEFFEFCF16DF06E2
:1048D000EF06FF0609F023C1E0917401F091750124
:1048E00080819181A281B38180936C0290936D024B
:1048F000A0936E02B0936F020E94C10FF8941092C1
:104900007A0010927B0010920C0310920D0396E433
:1049100090937C00309207032092060310920B03C1
:10492000A8EFBFEFB0930503A09304031092080310
:104930001092090310920A038FEE80937A00789404
:104940000E94580B6B017C01BAEFCB0ED11CE11C0D
:10495000F11C0E94580B6C157D058E059F0550F4C7
:1049600080910D038823A9F30E94260380910C03F4
:10497000823079F7C0906C02D0906D02E0906E02A8
:10498000F0906F02A7019601C701B6010E9416318F
:10499000811174C020E030E0A901C701B6010E9476
:1049A000052E882309F46AC0E091C302F091C40285
:1049B0006589062E000C770B53E0769567955A951E
:1049C000E1F790E080E00E940A2E2B013C01A70154
:1049D000960160E074E284EF98E40E9419309B0134
:1049E000AC01C301B2010E94AD2F0E9492307093BE
:1049F000A9026093A8021092AA021092AB02109230
:104A0000AC021092AD021092AE02198210923302E3
:104A100086E0E3EBF2E011928A95E9F71092B0029A
:104A20008FEF9FEF9093BA028093B9020E948C0A95
:104A300061E086E00E94D00AF8941092B00081E014
:104A40008093B1008091700081608093700086E750
:104A500095E19093030180930201809169008C603D
:104A600080936900E99A1092800082E0809381002F
:104A700080916F00887D80936F00789480915002C0
:104A800080FF20C0E090E602F090E702E114F1041C
:104A9000C9F04090520250905302609054027090BE
:104AA000550220E030E0A901C301B2010E94052EA9
:104AB000882341F093018201A7016FEF7FEF80E02F
:104AC0000E948B070E946A0D909375028093740276
:104AD0000E945F186093700270937102809372025B
:104AE000909373020E944B0D90937702809376020D
:104AF00068E183E193E00E94CB1367EF83E193E0E9
:104B00000E940F136CE08CE692E00E946D15F89401
:104B100080913302846080933302789478CE0E942F
:104B2000580B6C157D058E059F0508F470CE80E04E
:104B300090E0A0ECBFE7D8CE80910D0381110E94D8
:104B40002603F894D09033027894D2FE09C0F894EA
:104B5000809133028B7F8093330278940E94BC183B
:104B60000E94580B2B013C01D3FE1BC0F89480918E
:104B70003302877F80933302789468E183E193E086
:104B80000E94CB1364EF83E193E00E940F136FEF59
:104B900083E193E00E940F1363E089E692E00E94B4
:104BA0006D15D4FE18C0F8948091AF02898380916E
:104BB00033028F7E80933302789468E183E193E03F
:104BC0000E94CB1365EF83E193E00E940F1361E035
:104BD000C5010E946D15D5FE39C0F8948091290257
:104BE00090912A02892B09F0A1C1809133028F7D17
:104BF000809333028FEF9FEF90932A0280932902D4
:104C00002091B9023091BA0275012F3F320751F05D
:104C100019823B832A839093BA028093B902FE01E2
:104C200034967F017894AE14BF0481F068E183E18B
:104C300093E00E94CB1362EF83E193E00E940F1395
:104C4000B7016A197B09C5010E946D15D0FE12C01B
:104C50000E94580B0091FA021091FB022091FC0275
:104C60003091FD02601771078207930718F080E00A
:104C70000E943D14D6FE81C0F89486E0E3EBF2E09A
:104C8000D50101900D928A95E1F7898181FF50C18C
:104C900086E0A3EBB2E01D928A95E9F7809133029A
:104CA0008F7B80933302789468E183E193E00E94E4
:104CB000CB1366EF83E193E00E940F1366E0C5011A
:104CC0000E946D15998192959F708A81282F229557
:104CD000207FC22EC92A982F92959F708B81282FF2
:104CE0002295207FD22ED92A82958F709C81292FE0
:104CF0002295207FE22EE82AF92EF2949FE0F922F5
:104D000024E0CC0CDD1CEE1CFF1C2A95D1F734E00E
:104D1000F594E794D794C7943A95D1F7C701B601B3
:104D20000E940C2E9F938F937F936F9343E0CC0C44
:104D3000DD1CEE1CFF1C4A95D1F7FF92EF92DF922B
:104D4000CF928E818F938D818F938981869581708B
:104D50001F928F93898181701F928F93E0E0F5E01D
:104D6000FF93EF938CE891E09F938F930E944A10FA
:104D70000FB6F894DEBF0FBECDBF80912B0290918D
:104D80002C02892B09F043CD10927A00F89482E12D
:104D90009AE790932C0280932B0278940E944B0DFB
:104DA0000E945F186B017C01C0927002D092710268
:104DB000E0927202F0927302AC019B010E941631E4
:104DC000811105C0C701B6010E948B304B010E94C2
:104DD0006A0D7C019093750280937402BC01990F57
:104DE000880B990B0E940C2E9B01AC010E9416317E
:104DF000811104C08E149F040CF44701FF24E72C9A
:104E0000D62CC52C26016E2C809151028823F1F1FD
:104E100088151904DCF580912D0290912E02A09145
:104E20002F02481659066A0688F1AE2DC6018B5826
:104E30009F4FAF4F80932D0290932E02A0932F028D
:104E40008091500282FD05C08460809350020E94D0
:104E5000640B00E010E020E231E450E040E06FEF4E
:104E60007FEF80E00E948B078982809151028A83C4
:104E700068E183E193E00E94CB1361EF83E193E06B
:104E80000E940F1362E0C5010E946D1580916402BB
:104E9000882371F120913002309131024091320229
:104EA00042165306640620F1A4E08A9FC001112433
:104EB000092E000CAA0BC80ED91EEA1EC0923002A1
:104EC000D0923102E092320268E183E193E00E94E5
:104ED000CB1360EF83E193E00E940F13682D83E111
:104EE00093E00E940F136CE08CE692E00E946D1537
:104EF000F89410920C0310920D03B6E4B0937C006A
:104F0000309207032092060310920B03E8EFFFEFA5
:104F1000F0930503E0930403109208031092090331
:104F200010920A038FEE80937A00F7CD78948ECE9C
:104F30008091B3028E7F8093B302B0CEAFE0B0E039
:104F4000E4EAF7E20C94FF2A6C011B015A01FC0110
:104F500017821682838181FF48C39E012F5F3F4FD6
:104F60004901F6019381F10193FD859193FF8191B0
:104F70001F01882309F4E7C2853239F493FD859136
:104F800093FF81911F01853239F4B60190E00E94B0
:104F9000182D35015301E5CFF12C512C00E00032E2
:104FA00038F48B3209F190F48032F9F0833209F150
:104FB00007FD34C020ED280F2A3020F506FF1BC066
:104FC000FAE0FF9E200D1124F22E05C08D3279F0FB
:104FD000803371F70160F10193FD859193FF819119
:104FE0001F018111DCCF1AC002600460F4CF086099
:104FF000F2CF0061F0CF3AE0539E200D1124522EE3
:105000000062E9CF8E3221F406FD9DC20064E3CF39
:105010008C3611F40068DFCF8836E9F29BEB980FED
:10502000933008F05FC00061805E06FD02C046E07C
:10503000F42E102F1F73853609F05BC0106417FF24
:1050400061C08F2D9BE39F1508F48BE344244394A8
:10505000480E27E03501F4E06F0E711CF501608108
:10506000718182819381042DA4010E94212C5C0115
:10507000F981FC87F0FF03C00DE2F3FF07C00BE2EC
:1050800011FD04C0012F047012FD00E22C852C706C
:10509000E22E09F457C00111ABC2F3E0E12CF51583
:1050A000A0F483E0E52CE81A13FD08C0B60180E205
:1050B00090E00E94182DEA94E110F8CF002329F027
:1050C000B601802F90E00E94182D3C8522ECA22E84
:1050D00020E0B22E33FD04C096ECA92E90E0B92E4C
:1050E000107122C09BE9980F933008F033C10F7EF6
:1050F0009CCF863611F41068A2CFFF2009F49FCF11
:10510000FA949DCFE7E02F2DEF1518F427E037E054
:10511000F32E412C9FCF11118052B60190E00E94D6
:10512000182D8FEFA81AB80AF50184918111F3CFD9
:10513000EE2009F42FCFB60180E290E00E94182DF6
:10514000EA94F6CF17FF6FC04A0CFC85F4FF04C049
:105150008A81813309F44A9414140CF086C028E043
:10516000241510F488E0482E85E090E017FF06C073
:10517000C501B7FE02C090E080E0019601110196E2
:10518000FF2031F02F2D30E02F5F3F4F820F931F14
:105190005816190619F014F0E52CE81A812F8970B9
:1051A00011F4E11067C0002329F0B601802F90E0D0
:1051B0000E94182D13FD02C0E11063C017FF7CC0D0
:1051C0008501B7FE02C010E000E0C5018419910915
:1051D0002C016F2D70E0EE27FF27E61BF70BFF87F2
:1051E000EE870F3F100729F4B6018EE290E00E948F
:1051F000182DA016B1060CF44BC0401651060CF049
:1052000047C0F501E01BF10BE80DF91D818101504C
:1052100011092E853F8502171307E4F1B60190E0CE
:105220000E94182DDECF16FD9FCFEF2DF0E0EA157E
:10523000FB0534F03CEFA3163FEFB3060CF010680B
:105240003296E80DF91D01C0FA94FF2019F0829101
:105250008033D1F317FF88CF442443944F0CFA14C2
:105260001B0431F02CF0FA187FCF442443947CCFF8
:10527000F12C7ACFB60180E290E00E94182DEA94DA
:1052800090CFB60180E390E00E94182DEA9494CF6D
:1052900080E3BDCFA016B10641F49A81963350F455
:1052A000953319F43C8534FF05C0B60190E00E94A7
:1052B000182D3ECF81E3F9CF8A81813319F09C8587
:1052C0009F7E9C87B60190E00E94182DFF20A9F0D8
:1052D000B6018EE290E00E94182DF394F394E2E080
:1052E00001E00E0FE80DF92DF11D8081B60190E06F
:1052F0000E94182DE02F0F11F3CF85E690E014FFE8
:1053000002C085E490E0B6010E94182DB7FC06C0EB
:10531000A114B104C1F4EC85E4FF15C0B194A194CB
:10532000B1088DE2B60190E00E94182D80E32AE0DA
:10533000A216B10454F4B60190E00E94182DB601F3
:10534000C501C096B4CF8BE2EDCF8F5FFAE0AF1A04
:10535000B108EDCF8336C9F0833771F1833509F099
:105360005BC03501F2E06F0E711CF501A080B180C9
:105370006F2D70E006FD02C06FEF7FEFC5010E9448
:10538000022D9D878C8700680DC0350132E0630EC9
:10539000711CF5018081898321E030E03D872C87F5
:1053A00054010F7703FD06C02C853D855216130668
:1053B00009F0A8F4E52C2BC0350132E0630E711C16
:1053C000F501A080B1806F2D70E006FD02C06FEF87
:1053D0007FEFC5010E940D2D9D878C87E2CFB6011E
:1053E00080E290E00E94182D5A94DECFF50107FD6F
:1053F000859107FF81915F01B60190E00E94182D11
:10540000E110EA948C859D8501979D878C87EC85BA
:10541000FD85EF2B59F78CCE843619F0893609F0CB
:1054200074C0350107FF66C0F4E06F0E711CF50112
:105430006081718182819381102F1F7697FF08C050
:1054400090958095709561957F4F8F4F9F4F106815
:105450002AE030E0A4010E94A42DA82EA818BA2C9E
:10546000012F16FF0AC00E7FAF1438F414FF04C0DA
:1054700012FD02C0012F0E7EBF2C04FF8EC0FE0164
:10548000EA0DF11D8081803309F080C0097EF02F84
:10549000F870EF2E03FD90C000FF8AC0FA2CB514FF
:1054A00010F4F50CFB1804FF8DC0B60180E390E00A
:1054B0000E94182D02FF09C088E790E001FF02C09A
:1054C00088E590E0B6010E94182DAF1408F486C05C
:1054D000AA940A2D10E00F5F1F4F080D191DF80147
:1054E00082918F01B60190E00E94182D80169106DE
:1054F000B1F71ECEF2E06F0E711CF5016081718173
:10550000072E000C880B990B97CF102F8537A9F425
:105510001F7E2AE030E0350117FF2FC0F4E06F0E48
:10552000711CF5016081718182819381A4010E94C7
:10553000A42DA82EA8181F7792CF197F8F36D1F0EF
:1055400048F4883591F0F601868197812F96E2E143
:105550000C941B2B803739F08837A9F714FD1460A1
:1055600020E130E0D8CF1061F9CF04FD166020E1D2
:1055700032E0D1CF28E030E0CECFF2E06F0E711CE8
:10558000F5016081718190E080E0D0CF02FD02C022
:10559000B3947DCFB394B3947ACF802F867809F4F7
:1055A00076CFF6CFB60180E290E00E94182DB3943A
:1055B000B514C0F3E12C77CFE52CEB18B51408F443
:1055C00072CFF8CF802F867809F47FCF8BE201FF6E
:1055D00080E207FD8DE2B60190E075CFB60180E371
:1055E00090E00E94182DFA9470CF8FEF9FEFAECF0E
:1055F00024E0E12C251508F063CD84E053CD2F92F3
:105600003F924F925F926F927F928F929F92AF9252
:10561000BF92CF92DF92EF92FF920F931F93CF939F
:10562000DF93CDB7DEB7CA1BDB0B0FB6F894DEBF36
:105630000FBECDBF09942A88398848885F846E845C
:105640007D848C849B84AA84B984C884DF80EE80A6
:10565000FD800C811B81AA81B981CE0FD11D0FB6AF
:10566000F894DEBF0FBECDBFED010895B0E0A0E01D
:10567000ECE3FBE20C94002B5C016B017A016115F9
:10568000710519F0FB0191838083E114F10449F065
:10569000C7010297839728F060E070E0CB019CC0BF
:1056A0005E01E5012196F5011081812F90E00E94B5
:1056B000F92C892BA9F71D3209F056C02196F50166
:1056C000118101E0E114F10409F4AEC0F0E1EF163C
:1056D000F10409F08EC0103341F488818F7D883544
:1056E00009F083C0198122960260E0E1EE2EF12CD0
:1056F00088248A94982CA82CFFE0BF2E20E060E03C
:1057000070E0CB0127010F2C000C66087708FE0122
:1057100050ED352E310E39E0331538F43FEB310FB3
:105720003A31A0F549EC342E310E3E141F04BCF57D
:105730002F3FB9F086169706A806B90670F1A301A7
:1057400092010E943F2F232D30E050E040E0620F95
:10575000731F841F951F6217730784079507E8F06E
:1057600021E021961081D3CF1B3221F4E50122964E
:10577000F501118100E0A6CF78E0E72EF12C882416
:105780008A94982CA82C6FE1B62EB8CF3FE9310F40
:105790003A3128F439EA332EC7CF2FEFE2CFC114C4
:1057A000D10431F02223E9F02197F601D183C0839F
:1057B00000FF07C090958095709561957F4F8F4F42
:1057C0009F4F2F3F49F482E290E090934A038093E9
:1057D00049036FEF7FEFCB01CDB7DEB7E1E10C946A
:1057E0001C2B01FFE5CF2297E0CF10E3E114F10479
:1057F00019F23AE0E316F104E9F080E1E816F10469
:1058000009F473CFE8E0EE16F10409F4B8CF6FEFB6
:105810007FEFCB0197010F2C000C440B550B0E941E
:105820004F2F49015A016ACF103309F456CF9AE03D
:10583000E92EF12C89E9882E982CA82C89E1B82E24
:105840005DCF283008F027E03327DA01990F311DAA
:1058500087FD916000966105710539F432602E5F15
:105860003D9330E32A95E1F708959F3F30F080386B
:105870007105610509F03C5F3C5F3D93913008F094
:105880008068911DDF93CF931F930F93FF92EF9248
:10589000192F987F9695E92F96959695E90FFF27F2
:1058A000EC5DFE4F99273327EE24FF24A701E70183
:1058B00005900894079428F4360FE71EF81E491F38
:1058C000511D660F771F881F991F0694A1F7059039
:1058D000079428F4E70EF81E491F561FC11D770FC5
:1058E000881F991F661F0694A1F70590079428F456
:1058F000F80E491F561FC71FD11D880F991F661F1D
:10590000771F0694A1F70590079420F4490F561FBE
:10591000C71FD81F990F661F771F881F0694A9F706
:1059200084911095177041F0D695C7955795479576
:10593000F794E7941A95C1F7EAECF0E068941590B3
:10594000159135916591959105907FE27395E118D8
:10595000F10A430B560BC90BD009C0F7E10CF11E3D
:10596000431F561FC91FD01D7EF4703311F48A9552
:10597000E6CFE894015030F0080F0AF40027021730
:1059800008F4202F2395022F7A3328F079E37D93B2
:105990002A95E9F710C07D932A9589F60694979584
:1059A0006795379517951794E118F10A430B560B35
:1059B000C90BD00998F023957E9173957A3308F03E
:1059C00070E37C932013B8F77E9170617D9330F083
:1059D000839571E37D9370E32A95E1F71124EF90AD
:1059E000FF900F911F91CF91DF91992787FD90959F
:1059F000089591110C94022E803219F0895085502F
:105A0000C8F70895FC010590615070400110D8F767
:105A1000809590958E0F9F1F0895FC0161507040F6
:105A200001900110D8F7809590958E0F9F1F0895D3
:105A30000F931F93CF93DF93182F092FEB018B81C7
:105A400081FD09C01FEF0FEF812F902FDF91CF91C4
:105A50001F910F91089582FF14C02E813F818C8188
:105A60009D81281739073CF4E881F981CF0101961F
:105A70009983888310838E819F8101969F838E8373
:105A8000E3CFE885F985812F0995892BA1F3DACF3A
:105A9000AEE0B0E0EEE4FDE20C940D2B0D891E8922
:105AA0008F89988D2EE02C831A83098397FF02C07B
:105AB00080E090E801979E838D83AE01455E5F4F45
:105AC000698D7A8DCE0101960E949E274D815E815F
:105AD00057FD0AC02F813885421753070CF49A01ED
