:100000000C94E4020C94F21E0C94CB1E0C940C0382
:100010000C940C030C940C030C940C030C940C0324
:100020000C940C030C94881F0C940C030C94532018
:100030000C94B61F0C94711F0C940C030C940C03BD
:100040000C94811E0C940C030C943F1F0C94191FEC
:100050000C940C030C940C030C940C030C940C03E4
:100060000C940C030C940C0308000000BE9224496D
:10007000123EABAAAA2ABECDCCCC4C3E00000080DA
:10008000BEABAAAAAA3E00000000BF000000803F4D
:100090000000000000084178D3BB4387D1133D190D
:1000A0000E3CC3BD4282AD2B3E68EC8276BED98F3A
:1000B000E1A93E4C80EFFFBE01C4FF7F3F0000007E
:1000C00000006E616E00696E660000407A10F35A9F
:1000D00000A0724E18090010A5D4E80000E8764888
:1000E000170000E40B54020000CA9A3B000000E134
:1000F000F505000080969800000040420F000000C7
:10010000A08601000000102700000000E8030000A6
:1001100000006400000000000A0000000000010070
:10012000000000002C76D888DC674F0823DFC1DF91
:10013000AE59E1B1B796E5E3E453C63AE651997694
:1001400096E8E6C28426EB898C9B62ED407C6FFCCE
:10015000EFBC9C9F40F2BAA56FA5F490055A2AF710
:100160005C936B6CF9676DC11BFCE0E40D47FEF519
:1001700020E6B500D0ED902E030094357705008081
:10018000841E080000204E0A000000C80C333333E0
:10019000330F986E12831141EF8D2114893BE65580
:1001A00016CFFEE6DB18D1844B381BF77C1D901D63
:1001B000A4BBE424203284725E228100C9F124ECC5
:1001C000A1E53D272B52454D3D00253032782530A5
:1001D0003278002B52454D3D63756269635F696EED
:1001E000742C25752C693263743D253032782530A6
:1001F0003278002B52454D3D6368616E6E656C3DF3
:1002000025752C6D617874696D653D256C750A00E6
:100210002B52454D3D6C6576656C3D25642C7265B1
:1002200073756C743D25642C74696D653D25750A84
:10023000000A2B52454D3D0025303278005B2530B9
:1002400032785D002B52454D3D004E6F2063686152
:100250006E6E656C73206163746976650025753D0B
:1002600025752825752920002B52454D3D002B5220
:10027000454D3D7469636B733D25640A002B5245FF
:100280004D3D7469636B733D25640A002B52454DE7
:100290003D66726571002B52454D3D7A633D257573
:1002A0002C3078253034780A002B52454D3D7A6346
:1002B0003D25752C3078253034780A002B52454D79
:1002C0003D7A633D25752C3078253034780A002539
:1002D000303278002B52454D3D76253034782C69EC
:1002E0003263743D25303278253032780041546DC8
:1002F00065676133323850002C6D696E2E6F6E2D3C
:1003000074696D653D25752C6D696E2E6F66663D51
:1003100025752C5A433D25750A00252E3366002C81
:100320005643433D006D61782E74656D703D2575B3
:100330002C6D6574726963733D257500696E742E4A
:1003400074656D703D25642F6F66733D25752F674D
:1003500061696E3D25752C004E54433D252E326655
:100360002F252B2E32662C0076616C7565733D72DD
:100370006573746F72653D25752C663D252E336659
:10038000487A2C7672656631313D252E33662C0015
:1003900072616E67653D25642D25640A0063756290
:1003A00069633D25752C0074696D6572313D257555
:1003B0002F252E32662C6C766C733D383139322CF9
:1003C00070696E733D00616464723D253032782C33
:1003D0006D6F64653D25632C0070726F746F3D55C1
:1003E0004152542C00666164696E675F6576656E84
:1003F00074733D312C005643432C00696E742E7487
:10040000656D702C004E54433D4125752C006F7076
:1004100074696F6E733D454550524F4D3D256C7567
:100420002C0040384D687A2C6763633D372E332E9D
:1004300030002C4D43553D007369673D25303278BF
:100440002D253032782D253032782C667573657302
:100450003D6C3A253032782C683A253032782C655C
:100460003A25303278004D4F534645542044696D4B
:100470006D657220322E322E33204E6F7620323947
:1004800020323032322030393A33353A3336204157
:100490007574686F72207361736368615F6C616DFE
:1004A0006D65727340676D782E64650045455052E6
:1004B0004F4D522C633D256C752C703D25752C6E6F
:1004C0003D256C752C6372633D253034780A0042FB
:1004D0004F4F54002B52454D3D6C6F73742C696E19
:1004E00076616C69643D25752C74696D653D257573
:1004F0002C72657374617274696E670A0000000083
:1005000000240027002A0000000000250028002BFE
:1005100000040404040404040402020202020203AC
:1005200003030303030102040810204080010204B6
:100530000810200102040810200000000800020139
:10054000000003040700000000000000006469735D
:1005500061626C6564005D2C6C3D5B005D2C793DD7
:100560005B00783D5B002B52454D3D636825643D43
:10057000002B52454D3D454550524F4D572C633D44
:10058000256C752C703D25752C6E3D256C752C7772
:100590003D25752C663D25752C6372633D253034F1
:1005A000782C6366673D25750A002B493243256325
:1005B0003D002B52454D3D454550524F4D522C6903
:1005C0006E6974007E206C2011241FBECFEFD8E02E
:1005D000DEBFCDBF23E0A0E7B1E001C01D92A33292
:1005E000B207E1F711E0A0E0B1E0E4E2F2E602C018
:1005F00005900D92A037B107D9F712E0C3EED2E013
:1006000004C02197FE010E94182DC23ED107C9F7F0
:100610000E943A210C9405310C940000BC01655DE8
:100620007F4F2FEF3FEF86179707D9F0FC014191DD
:10063000CF012427422F42954227042E4695469506
:100640004025042E469540254770022E232F4695BF
:1006500007944795302D2427069447953025242765
:10066000E2CFC901089520E1DC011D922A95E9F746
:10067000FC016091E2027091E3024091E40250912A
:10068000E50280E09091E602891778F4282F30E0A7
:10069000DB01A20FB31F9C919083240F351FD9015A
:1006A0009C91918332968F5FEDCF089581EB92E01C
:1006B0000E940E039093B0028093AF020895E1E38D
:1006C000F2E08FE4DF011D928A95E9F78FEF9FEF4B
:1006D0009093300280932F028BE480934C028091A0
:1006E0004B02816080934B0280E090E0A0E9B0E48F
:1006F00080934D0290934E02A0934F02B09350020C
:100700008EE690E090935202809351028CE291E049
:100710009093540280935302909356028093550213
:1007200007B600FCFDCF87B7816287BFE5E0F0E048
:10073000849107B600FCFDCF97B7916297BFE7E0C1
:10074000F0E0E491E0935C0280935D0285E08093A9
:100750005F0280E090E0A0ECBFE780936702909397
:100760006802A0936902B0936A0220E030E83093F7
:100770006C0220936B028093630290936402A093B7
:100780006502B093660285E1EBE4F2E0A5EBB2E02E
:1007900001900D928A95E1F7ECECF2E080E1DF0147
:1007A0001D928A95E9F708952CE73CE740E052E472
:1007B0000E94DD2B20E030E040E05FE30E941F2D2F
:1007C0000E94FD2DCB0177FF02C090E080E08115F3
:1007D00020E2920714F08FEF9FE108952F923F924D
:1007E0004F925F926F927F928F929F92AF92BF9241
:1007F000CF92DF92EF92FF920F931F93CF93DF93ED
:10080000EB011A01FC01A080B1808A010F5F1F4F2C
:10081000F501E00FF11F608170E090E080E00E9440
:100820007C2B6B017C01F1E02F1A3108F501E20D00
:10083000F31D608170E090E080E00E947C2B4B0112
:100840005C01AC019B01C701B6010E94772B882394
:10085000E9F10990D881C02DFE01E00FF11F608100
:1008600070E090E080E00E947C2B2B013C01C20DE7
:10087000D31D688170E090E080E00E947C2B9B019A
:10088000AC01C301B2010E941E2D2B013C01A50148
:100890009401C701B6010E941E2D9B01AC01C3014A
:1008A000B2010E948B2DDF91CF911F910F91FF908C
:1008B000EF90DF90CF90BF90AF909F908F907F9000
:1008C0006F905F904F903F902F90089560E070E0A0
:1008D000CB01E9CF2F923F924F925F926F927F921E
:1008E0008F929F92AF92BF92CF92DF92EF92FF9240
:1008F0000F931F93CF93DF93CDB7DEB7E0970FB67B
:10090000F894DEBF0FBECDBF9AA389A37CA36BA3CF
:100910005EA34DA368017901FC010190F081E02DF7
:10092000F8ABEFA7608170E090E080E00E947C2B44
:100930006D877E878F87988BEBA1FCA1208031800B
:10094000A70198010E94332E87FD28C0F101608124
:1009500070E090E080E00E947C2B69837A838B8337
:100960009C8369817A818B819C81E0960FB6F89493
:10097000DEBF0FBECDBFDF91CF911F910F91FF90D2
:10098000EF90DF90CF90BF90AF909F908F907F902F
:100990006F905F904F903F902F9008958DA19EA1F2
:1009A00001979A8B898BFC018FA598A9E80FF91FF5
:1009B000608170E090E080E00E947C2B6B8B7C8BF0
:1009C0008D8B9E8B9B01AC01C701B8010E94332E19
:1009D00087FD05C0E989FA892E0E3F1EB7CF6FA4A7
:1009E00078A8FFEF6F1A7F0A10E000E0C8010196B7
:1009F000988F8F8BF30161913F0170E090E080E070
:100A00000E947C2B4B015C01AC019B01C701B6012C
:100A10000E94332E87FF44C1EF89F88DE20DF31D4C
:100A2000608170E090E080E00E947C2B69837A8393
:100A30008B839C83A5019401C701B6010E94772B8B
:100A4000882309F48ECFEFA5F8A9E00FF11F60818C
:100A500070E090E080E00E947C2B698F7A8F8B8F12
:100A60009C8F9B01AC01C501B4010E941E2D6D8FAE
:100A70007E8F8F8F98A3298D3A8D4B8D5C8DC7010A
:100A8000B6010E941E2D2D8D3E8D4F8D58A10E94C6
:100A90008B2D4B015C01AC019B010E94DD2B2B01D6
:100AA0003C01AC019B01C501B4010E94DD2B6B012F
:100AB0007C01AC019B010E941F2D6D837E838F837F
:100AC000988720E030E040E450E4C301B2010E9486
:100AD000DD2B69877A878B879C879B01AC016D81B1
:100AE0007E818F8198850E941E2D20E030E040E8B5
:100AF0005FE30E941F2D6FA378A789A79AA7A30180
:100B00009201C301B2010E941F2D9B01AC01C701DC
:100B1000B6010E941E2DA50194010E941F2D6BA7F6
:100B20007CA78DA79EA72D813E814F815885698521
:100B30007A858B859C850E941E2D6D837E838F8395
:100B40009887A3019201C701B6010E941E2D6987F3
:100B50007A878B879C87F101E00FF11F608170E03D
:100B600090E080E00E947C2B2B013C0101151105D7
:100B700009F099C0F101608170E090E080E00E948E
:100B80007C2B6B017C01F101618170E090E080E0E1
:100B90000E947C2BA70196010E941E2D4B015C0137
:100BA000EFA5F8A9618170E090E080E00E947C2BC5
:100BB0002D853E854F8558890E941E2D9B01AC01D5
:100BC000C501B4010E948B2D4B015C01F1016281D2
:100BD00070E090E080E00E947C2BA70196010E94CB
:100BE0001E2D6B017C01EFA5F8A9628170E090E0F9
:100BF00080E00E947C2B2D853E854F8558890E9480
:100C00001E2D9B01AC01C701B6010E948B2D6B010B
:100C10007C01A30192016FA178A589A59AA50E94E4
:100C2000DD2B2B013C0129813A814B815C816D8157
:100C30007E818F8198850E94DD2B9B01AC01C301D1
:100C4000B2010E941F2D2B013C012BA53CA54DA5F7
:100C50005EA56D8D7E8D8F8D98A10E94DD2BA501E7
:100C600094010E94DD2B9B01AC01C301B2010E94E3
:100C70001F2D4B015C0129853A854B855C856D8D67
:100C80007E8D8F8D98A10E94DD2BA70196010E9479
:100C9000DD2B9B01AC01C501B4010E941F2D5DCE6F
:100CA0000F89188DA3CE8DA19EA102970817190751
:100CB00009F04DC0E989FA89E20DF31D608170E009
:100CC00090E080E00E947C2B6B017C010DA11EA1B5
:100CD00003501109F101E00FF11F608170E090E015
:100CE00080E00E947C2B9B01AC01C701B6010E94F1
:100CF0001E2D4B015C018FA598A9800F911FFC014F
:100D0000608170E090E080E00E947C2B9B01AC0150
:100D10006B897C898D899E890E941E2D9B01AC0167
:100D2000C501B4010E948B2D4B015C01A30192010E
:100D3000C701B6010E941E2D6B017C01298D3A8DE1
:100D40004B8D5C8D6B897C898D899E8958CFA801DC
:100D50006BA17CA189A19AA10E94EE034B015C01C9
:100D60004F89588D6BA17CA189A19AA10E94EE03A5
:100D70004ECFCF92DF92EF92FF920F931F93CF93BC
:100D8000DF9300D000D0CDB7DEB71091E60211237B
:100D900009F440C0BC0190E080E00E947C2B2CE76D
:100DA0003CE740E052E40E948B2D6B017C0120E087
:100DB00030E04FE753E40E94772B87FD06C0C12C3B
:100DC000D12C8FE7E82E83E4F82E8091E4029091F5
:100DD000E5029A8389838091E2029091E3029C83E9
:100DE0008B83412F50E097018601BE016F5F7F4FDB
:100DF000CE0103960E946A040F900F900F900F90FF
:100E0000DF91CF911F910F91FF90EF90DF90CF90E6
:100E10000C94D4030F900F900F900F90DF91CF910F
:100E20001F910F91FF90EF90DF90CF9008954F9218
:100E30005F926F927F928F929F92AF92BF92CF926A
:100E4000DF92EF92FF920F931F93CF93DF936A018C
:100E500028013901C82F880FDD0BFE01EE0FFF1F9F
:100E6000E058FD4F8FEF9FEF92A781A72FEFC2169B
:100E7000D20609F05DC08CE08C9FF0018D9FF00DD3
:100E80001124E058FD4F82859385892B09F43FC0DA
:100E900081E090E093878287168217821086118600
:100EA000E091AD02F091AE02CE010696880F991F37
:100EB000E80FF91F00811181013030E2130714F0AF
:100EC00000E010E217FF02C010E000E03CE0D32E8B
:100ED000DC9EC001DD9E900D1124AC0140585D4F99
:100EE0007A01B801012E000C880B990B0E947E2B11
:100EF000F70162837383848395832196DC9EF001DE
:100F0000DD9EF00D1124E058FD4F11830083DF9129
:100F1000CF911F910F91FF90EF90DF90CF90BF90F6
:100F2000AF909F908F907F906F905F904F900895BB
:100F30006F3F760761F4E091AD02F091AE02CE0111
:100F40000696880F991FE80FF91F608171818B0148
:100F50006130704214F000E010E217FF02C010E0B0
:100F600000E0B60131E0C31630E2D30614F060E0D1
:100F700070E277FF02C070E060E0601B710B072E2B
:100F8000000C880B990B0E947E2B4B015C0120E02A
:100F900030E0A9010E94772B882309F4B8CF20E024
:100FA00030E040E059E3C501B4010E94DD2BA3010C
:100FB00092010E94DD2B2B013C0120E030E0A901D1
:100FC0000E94332E181624F077FA709477F87094F4
:100FD0002091630230916402409165025091660253
:100FE000C301B2010E94DD2B9B01AC010E941F2DA9
:100FF0000E94042E8CE0782E7C9E90017D9E300D08
:101000001124A90140585D4F7A01FA017387628764
:101010006115710509F47BCF90E080E00E947C2B84
:101020009B01AC01C501B4010E948B2D4B015C01F9
:10103000F70186829782A086B186B801110F880BCE
:10104000990B0E947E2BF7016283738384839583BF
:1010500021967C9EF0017D9EF00D1124E058FD4FFD
:10106000D182C08220E030E0A901C501B4010E9414
:10107000772B81114CCF81E090E0F7019387828735
:1010800046CFEF92FF920F931F93CF93DF93C091C0
:101090009E02D0919F02E091AB02F091AC020085DC
:1010A0001185E284F384DE01A01BB10BAE19BF09E8
:1010B000468557854115510501F59D01DC010E94CA
:1010C000112D2DE096958795779567952A95D1F7FF
:1010D0009B01200F311FCE018E199F0982179307A4
:1010E00028F0C8010217130708F4C901DF91CF9156
:1010F0001F910F91FF90EF90089524853585280F5B
:10110000391F0E94EE2C9A0150E040E00E94C12C51
:10111000E0CFCF93DF93CDB7DEB728970FB6F89423
:10112000DEBF0FBECDBFE091AD02F091AE023485BF
:10113000258580914B0284FF52C0832F922F0E94FD
:10114000B906811520E2920708F04CC0009709F417
:101150004CC00E944108E091AB02F091AC022081AA
:1011600021FF08C020919E0230919F02A901481BD7
:10117000590BCA019C838B83198281E0E1E00E2E1A
:10118000000CFF0BEE0FFF1FEE0FFF1F21E030E002
:101190002C0F3D1FE20FF31F108211821282138267
:1011A000F8949091A302981739F08093A30280914C
:1011B0002E02806180932E0288E0FE013196A6E91E
:1011C000B2E001900D928A95E1F7789428960FB6D7
:1011D000F894DEBF0FBECDBFDF91CF910895832F6E
:1011E000922FAFCF81E0E0E0CACF80E0FCCFE0916A
:1011F000AD02F091AE02082E000C990BAC014A5FD3
:101200005F4F9A01220F331FE20FF31F9B01213022
:1012100060E2360714F020E030E237FF02C030E031
:1012200020E0318320832CE0289FF001299FF00DDE
:101230001124E058FD4F13861286880F991FFC0178
:10124000E058FD4F81A592A50196D9F08091AD029D
:101250009091AE02440F551F480F591FDA018D912E
:101260009C9192A781A79FB7F89480912E028062EB
:1012700080932E0225E33CE0309325022093240244
:101280009FBF0C948908EFE3F5E08491EBE2F5E071
:101290009491E7E1F5E0E491EE23B9F0882339F089
:1012A0008330F1F098F4813009F1823019F1F0E0E7
:1012B000EE0FFF1FE95FFA4FA591B4918FB7F89435
:1012C000EC9190959E239C938FBF08958730A9F051
:1012D0008830C9F0843059F7809180008F7D03C039
:1012E000809180008F7780938000E1CF84B58F77E5
:1012F00084BDDDCF84B58F7DFBCF8091B0008F772B
:101300008093B000D4CF8091B0008F7DF9CF089545
:10131000CF93DF9390E0FC01EB5DFA4F24918F5E59
:101320009A4FFC0184918823D1F090E0880F991F97
:10133000FC01E350FB4FA591B491FC01E95FFA4F2A
:10134000C591D49161110EC09FB7F8948C91E22F92
:10135000E0958E238C932881E223E8839FBFDF9161
:10136000CF9108958FB7F894EC91E22BEC938FBF57
:10137000F6CFCF92DF92EF92FF92CF93DF931F923F
:10138000CDB7DEB7C0906302D0906402E0906502F2
:10139000F090660220E030E0A901C701B6010E948A
:1013A000772B882341F1A7019601C701B6010E945E
:1013B000882E811120C0198210922E02F894E9988B
:1013C00087E899E0909303018093020180916F0078
:1013D000887D80936F00109281000E94430960E035
:1013E00086E00E948809809170008E7F8093700053
:1013F0001092B10078940F90DF91CF91FF90EF9011
:10140000DF90CF9008953FB7F89480917B01909141
:101410007C01A0917D01B0917E0126B5A89B05C0FD
:101420002F3F19F00196A11DB11D3FBFBA2FA92F63
:10143000982F8827BC01CD01620F711D811D911D60
:1014400043E0660F771F881F991F4A95D1F70895CB
:101450008F929F92AF92BF92CF92DF92EF92FF92C4
:101460004B015C010E94030A6B017C010E94030A8C
:101470006C197D098E099F09683E734081059105AD
:10148000A8F321E0821A9108A108B10888EEC80EDD
:1014900083E0D81EE11CF11C81149104A104B10465
:1014A00029F7FF90EF90DF90CF90BF90AF909F9083
:1014B0008F9008952FB7F89460917701709178011B
:1014C0008091790190917A012FBF08958F929F9218
:1014D000AF92BF92CF92DF92EF92FF920E945A0A90
:1014E0006B017C0180912E0280FD2FC08090DE0276
:1014F0009090DF02A090E002B090E1029FB7F894D4
:1015000080912E02816080932E029FBF0E945A0A12
:10151000C818D908EA08FB0829E8C21623E1D20650
:10152000E104F104DCF438E8C32E33E1D32EE12CDE
:10153000F12CC60ED71EE81EF91EC092DE02D09214
:10154000DF02E092E002F092E102FF90EF90DF9084
:10155000CF90BF90AF909F908F90089524EFC22EB0
:10156000DD24D394E12CF12CE4CFAF92BF92CF9243
:10157000DF92EF92FF920F931F93CF93DF936C0153
:101580007B018B01040F151FEB015E01AE18BF0834
:10159000C017D10759F06991D601ED91FC910190E6
:1015A000F081E02DC6010995892B79F7C501DF91FE
:1015B000CF911F910F91FF90EF90DF90CF90BF9050
:1015C000AF900895FC01538D448D252F30E0842F7A
:1015D00090E0821B930B541710F0CF96089501975B
:1015E0000895FC01918D828D981761F0A28DAE0F48
:1015F000BF2FB11D5D968C91928D9F5F9F73928FCF
:1016000090E008958FEF9FEF0895FC01918D828DFA
:10161000981731F0828DE80FF11D858D90E00895C7
:101620008FEF9FEF0895FC01918D228D892F90E01F
:10163000805C9F4F821B91098F739927089587E8DB
:1016400091E00E94130B21E0892B09F420E0822F06
:101650000895FC01A48DA80FB92FB11DA35ABF4F47
:101660002C91848D90E001968F739927848FA689A1
:10167000B7892C93A089B1898C91837080648C93F5
:10168000938D848D981306C00288F389E02D8081A4
:101690008F7D80830895EF92FF920F931F93CF93D6
:1016A000DF93EC0181E0888F9B8D8C8D98131AC09D
:1016B000E889F989808185FF15C09FB7F894EE8984
:1016C000FF896083E889F9898081837080648083E1
:1016D0009FBF81E090E0DF91CF911F910F91FF902C
:1016E000EF900895F62E0B8D10E00F5F1F4F0F73D4
:1016F0001127E02E8C8D8E110CC00FB607FCFACF8F
:10170000E889F989808185FFF5CFCE010E94290BF8
:10171000F1CFEB8DEC0FFD2FF11DE35AFF4FF0825F
:101720009FB7F8940B8FEA89FB8980818062CFCFC5
:101730000F931F93CF93DF938C01D0E0C0E0F801AB
:10174000EC0FFD1F6491662341F087E891E00E9451
:101750004B0B892B11F02196F2CFCE01DF91CF9167
:101760001F910F910895682F87E891E00C944B0B1F
:10177000CF93DF93EC01888D8823B9F0AA89BB89C8
:10178000E889F9898C9185FD03C0808186FD0DC0B3
:101790000FB607FCF7CF8C9185FFF2CF808185FFD4
:1017A000EDCFCE010E94290BE9CFDF91CF910895B3
:1017B000DC01ED91FC910190F081E02D6A3010F494
:1017C000605D0994695AFDCFDC01ED91FC910190B7
:1017D000F081E02D6AE00994DC015E968D919C9188
:1017E0005F975C962D913C915D978217930740F42B
:1017F0005A96ED91FC91E80FF91F808190E00895D1
:101800008FEF9FEF0895FC01848D958D268D378D88
:10181000821B930B0895EF92FF920F931F93CF9328
:101820008C01C62F70E084E0759567958A95E1F785
:10183000F80184A995A90E94D80B7C016C2F6F70C8
:10184000F80184A995A90E94D80B8E0D9F1DCF91F8
:101850001F910F91FF90EF900895FC012481358135
:10186000828193812817390768F480819181A901C9
:101870004F5F5F4F55834483FC01E20FF31F80816C
:1018800090E008958FEF9FEF08954A960C942D0CE9
:10189000089590E080E0089580917A0080648093BC
:1018A0007A0080917A0086FDFCCF8091780090913B
:1018B000790008951F93CF93DF930E944C0CEC01A5
:1018C000CF3F83E0D80710F0CFEFD3E018E01150FE
:1018D00059F061E070E080E090E00E94280A0E94E8
:1018E0004C0CC80FD91FF3CFCE0123E0880F991FEE
:1018F0002A95E1F7DF91CF911F910895CF92DF9262
:10190000EF92FF92CF93DF93CFE2D2E04CA52EEE81
:101910003CE742036001439FD00C11240D2C000CC6
:10192000EE08FF0880E7C81A8EEFD80A83EBE80AB2
:101930008BEFF80A8EE480937C0064E170E080E035
:1019400090E00E94280A0E945A0C9C0150E040E05E
:10195000C701B6010E94C12C3FAF2EAFC901DF9174
:10196000CF91FF90EF90DF90CF90089588EC809317
:101970007C0064E170E080E090E00E94280A0E9410
:101980005A0CEFE2F2E025A530E025573F4F46E044
:10199000969587954A95E1F7820F931F9695982F14
:1019A00088279795879566A570E00E94FD2CCB014E
:1019B000499608952F923F924F925F926F928F9225
:1019C0009F92AF92BF92CF92DF92EF92FF920F93CE
:1019D0001F93CF93DF93C0908400D0908500B09B7D
:1019E0000EC02FEFC216D20651F080917201909175
:1019F000730101969093730180937201B09AC09124
:101A00007401D09175018091720190917301EE8102
:101A1000FF819F012F5F3F4F3F832E83F7FF12C04F
:101A2000DF91CF911F910F91FF90EF90DF90CF90BA
:101A3000BF90AF909F908F906F905F904F903F902E
:101A40002F900895AF01440F551FE40FF51FEC0FC1
:101A5000FD1FA0E0A82F99278827E12C8C299D291C
:101A6000AE2982879387A48720383105C9F6E99883
:101A700087E899E09093030180930201188219820C
:101A80001A821B828E819F811C0131E0231A31084A
:101A90003F822E82813491051CF28E01065F1F4F1A
:101AA000F80150E040E020E0812C912C54014215D7
:101AB0005305FCF44F5F5F4FC190D190E19080815E
:101AC0009181A2818C199D09AE096C01EA2E34E046
:101AD000C31A3CEFD30AE10832E8C31639E4D3064F
:101AE000E10428F7B0E0880E991EAA1EBB1E2F5FE6
:101AF000DECF213408F494CF30E050E040E0C5015F
:101B0000B4010E94C12C49015A01842FB90190E00F
:101B10000E947C2B2AE037ED43EA5CE30E94DD2B38
:101B20000E94042E9B0140E024016A2C421A530AB1
:101B3000640A280D391D4A1D70E060E0F12C812CEB
:101B4000912C540162157305E4F46F5F7F4FF80127
:101B5000C190D190E1908F0180819181A2818C19F7
:101B60009D09AE0984159505A60560F32817390768
:101B70004A0740F3B0E0880E991EAA1EBB1EF394DC
:101B8000E1CFF0E4FF1508F04BCFC501B4010E948E
:101B90007C2B4B015C016F2D70E090E080E00E9497
:101BA0007C2B9B01AC01C501B4010E948B2D20E070
:101BB00030E040E05EE30E94DD2B9B01AC0160E081
:101BC00074E284EF98E40E948B2D688379838A8382
:101BD0009B8326CFFC01862F20813181A9014150B2
:101BE0005109518340831216130624F481E093E0D7
:101BF0000E942D0C089520913902420F4093390222
:101C000002970CF060ED60937F02089584EC91E000
:101C10000C94980BAF92BF92DF92EF92FF920F93CA
:101C20001F93CF93DF935C010FEA12E0D0E0C0E096
:101C3000F801D1908F017501EC0EFD1EC7010E94C5
:101C40009B2CD81621F06D2DC7010E94A32C219644
:101C5000CD32D10569F78FEA92E0DF91CF911F91E4
:101C60000F91FF90EF90DF90BF90AF900895CF92CB
:101C7000DF92EF92FF920F931F93CF93DF93EB01CD
:101C80007B012DE2E20EF11C8B016C01C61AD70A12
:101C9000C601800F911F0E949B2CF80181938F0138
:101CA000EE15FF05A9F7CE01DF91CF911F910F919E
:101CB000FF90EF90DF90CF9008956F927F928F9278
:101CC0009F92AF92BF92CF92DF92EF92FF920F93CB
:101CD0001F93CF93DF93CDB7DEB7C054D1090FB6B2
:101CE000F894DEBF0FBECDBF6C015B014A019A01C3
:101CF000AB0160E470E0CE0101963C01F60109956C
:101D00007C018F3391057CF102960E94C22E8C01DA
:101D1000009759F19401A501B701F60109957C01DD
:101D2000A701B80187E891E00E94B50A6016710624
:101D300019F0C8010E945E2FC701C05CDF4F0FB6CB
:101D4000F894DEBF0FBECDBFDF91CF911F910F91F1
:101D5000FF90EF90DF90CF90BF90AF909F908F90CB
:101D60007F906F9008958301DBCFE12CF12CE4CFBD
:101D7000F894E99887E899E0909303018093020131
:101D8000EFE6F0E08081887D808310928100809171
:101D90007401909175010E945E2F1092750110924E
:101DA000740178940895CF92DF92EF92FF92CF93CF
:101DB000DF93C0917401D0917501209709F056C04E
:101DC0000E94B90964E670E080E090E00E94280A71
:101DD0008AE891E00E94C22EEC0180E090E0A0EC45
:101DE000BFE788839983AA83BB831D821C828BEF04
:101DF0009FEF9F838E830E945A0A79876887FE012E
:101E00003A96CE0186579E4F119211921192E81781
:101E1000F907D1F7D0937501C0937401CD2B41F42C
:101E200080E0DF91CF91FF90EF90DF90CF90089509
:101E3000F8948AED9CE090930301809302018091D5
:101E400069008C6080936900E99A10928500109275
:101E500084001092800081E08093810080916F0067
:101E6000816080936F00B09A7894DACFC880D9806F
:101E7000EA80FB80A7019601C701B6010E94882E67
:101E800081111BC020E030E0A901C701B6010E940A
:101E9000772B811106C0C12CD12C80ECE82E8FE766
:101EA000F82EC0926302D0926402E0926502F09232
:101EB00066020E94B80E81E0B4CF0E945A0A2885BB
:101EC0003985621B730B603D774008F4A9CF80E031
:101ED00090E0A0ECBFE78093630290936402A0932C
:101EE0006502B0936602E5CFCF93DF93EC01888162
:101EF0009981009731F00E945E2F198218821B820F
:101F00001A821C82DF91CF910895CF92DF92EF92D7
:101F1000FF921F93CF93DF93EC01FC0132968881EF
:101F200011E09081891728F432961F5F892F1830AD
:101F3000C1F782EE92E00E94740F1130F1F010931D
:101F4000E602C12ED12C7601EE0CFF1CC7010E94C7
:101F5000C22E21E0E21AF108FC01119221E0E21AFE
:101F6000F108F7FEFACF9093E3028093E2028C0D22
:101F70009D1D9093E5028093E4028091E20290918E
:101F8000E302892BD1F090E080E02091E6028217F5
:101F900080F429813881A091E202B091E302A80F78
:101FA000B91F3C93A091E402B091E502A80FB91FBC
:101FB0002C9322960196811740F3DF91CF911F91C8
:101FC000FF90EF90DF90CF900895CF93DF93CDB740
:101FD000DEB7AE01475F5F4F6F8178858AEE9AE288
:101FE0000E945D0EDF91CF910895CF93DF93CDB71F
:101FF000DEB7AE01475F5F4F6F81788589ED90E373
:102000000E945D0EDF91CF910895CF93DF93EC0195
:1020100088819981009721F00E945E2F1982188291
:102020001F821E821B821A821D821C82DF91CF9129
:102030000895FB0101900020E9F73197AF01461B9D
:10204000570BDC01ED91FC910280F381E02D0994A6
:1020500065E371E087E891E00C941910CF93DF936A
:102060000E94980BEC010E9428108C0F9D1FDF919D
:10207000CF9108957F928F929F92AF92BF92CF920D
:10208000DF92EF92FF920F931F93CF93DF9300D0D5
:1020900000D000D0CDB7DEB78FEF9FEF9A83898352
:1020A0001B821C821D821E828DE2E82EF12C6701AC
:1020B0008DE2C80ED11C9BE0C91694E0D906D9F078
:1020C000DE0111965D0110E000E0F50171905F0105
:1020D0004701800E911EC4010E949B2C781621F0AE
:1020E000672DC4010E94A32C0F5F1F4F06301105FE
:1020F00061F77601DCCF1092DD021092DC02EFEA8C
:10210000F2E08DE2DF011D928A95E9F781E090E02F
:10211000A0E0B0E08093B1029093B202A093B3022A
:10212000B093B4020E945F030E94560390E080E0E7
:102130000E940A0E9FB7F89480912E028E7F8093A2
:102140002E0280912E028D7F80932E029FBF82EB04
:1021500095E026960FB6F894DEBF0FBECDBFDF9197
:10216000CF911F910F91FF90EF90DF90CF90BF9094
:10217000AF909F908F907F900C942E108F929F9293
:10218000AF92BF920F931F93CF93DF93CDB7DEB77C
:10219000A1970FB6F894DEBF0FBECDBF19A2423093
:1021A00008F44AE08E010F5D1F4F842E912CB12C54
:1021B000A12CA50194010E94C12CE62FB901CA01EE
:1021C000EA3004F5E05DD801EE938D01232B242B3A
:1021D000252B79F790E080E0109729F0BD0187E882
:1021E00091E00E941910A1960FB6F894DEBF0FBEC1
:1021F000CDBFDF91CF911F910F91BF90AF909F9076
:102200008F900895E95CDFCFCF92DF92EF92FF923B
:10221000CF93DF936C01990FEE08FF08F7FE17C00C
:102220008DE20E94B30BEC0166277727CB016C1976
:102230007D098E099F094AE00E94BE108C0F9D1FE8
:10224000DF91CF91FF90EF90DF90CF9008954AE01B
:10225000C701B601DF91CF91FF90EF90DF90CF9053
:102260000C94BE104F925F926F927F92AF92BF928A
:10227000CF92DF92EF92FF920F931F93CF93DF9352
:1022800000D000D0CDB7DEB7D82E1F921F9286E6C1
:1022900095E09F938F9387E891E09F938F930E949F
:1022A000E50FA090E6020F900F900F900F900F9007
:1022B0000F90AA2009F4AFC082E695E00E94980B27
:1022C000F12CE12CEA14B0F4EE2019F08CE20E941B
:1022D000B30BE091E202F091E302EE0DFF1D60818D
:1022E00070E090E080E04AE00E94BE108FEFE81AB4
:1022F000F80AE8CF8CE595E00E94980BF12CE12CD0
:10230000EA1498F4EE2019F08CE20E94B30BE091ED
:10231000E402F091E502EE0DFF1D808190E00E9445
:1023200004118FEFE81AF80AEBCF86E595E00E94DA
:10233000980B6D2D70E090E080E00E947E2B20E0F5
:1023400030E040E85FE30E941F2D9B01AC0160E09C
:1023500078EF8FEF95E40E948B2D9B01AC0160E03C
:1023600070E08FE793E40E948B2D2B013C01C12C80
:10237000D12C7601B12C8091E4029091E5029A83F0
:1023800089838091E2029091E3029C838B83970181
:102390008601A501BE016F5F7F4FCE0103960E94AB
:1023A0006A040E94D4030E940411A3019201C70190
:1023B000B6010E941F2D6B017C0126E636E64FE731
:1023C00053E40E94772B87FD18C08DE50E94B30B64
:1023D0000E9428100F900F900F900F90DF91CF91D7
:1023E0001F910F91FF90EF90DF90CF90BF90AF9033
:1023F0007F906F905F904F90089520E030E0A901AA
:10240000C701B6010E94772B882309F4B4CF8CE270
:102410000E94B30BB0CF8DE495E00E942E10DACF6E
:102420000F931F93CF93DF93EC010885198506174F
:10243000170708F48B01095F1F4F087F8E819F816A
:102440008017910721F1888199810115110549F1C2
:10245000009719F1B8010E94E72F9983888388813A
:102460009981892B11F410E000E01F830E838A818B
:102470009B810817190710F41B830A838A819B81AB
:102480002C813D818217930710F49D838C8381E01A
:10249000DF91CF911F910F910895C8010E94C22E24
:1024A000DCCF009701F30E945E2F19821882DDCFE6
:1024B0001F93CF93DF93EC018A819B819C012F5F57
:1024C0003F4F4E815F818417950750F4E881F98171
:1024D0003B832A83E80FF91F608381E090E00CC002
:1024E000162FB901CE010E941012811109C0CE0130
:1024F0000E94051090E080E0DF91CF911F91089538
:10250000E881F9818A819B819C012F5F3F4F3B834A
:102510002A83E80FF91F1083E0CFCF93DF93EC01FC
:102520008A89882381F08C8D9D8D8F3F910530F0B5
:1025300081E08E871D86DF91CF910895CE014A9666
:102540000E945812F7CF8C858617170689F781E00D
:102550008A8BF0CFFC0197859D7F913021F4CF01CC
:1025600084960C94581290E080E00895FC01158246
:1025700014821382128260857185695F7F4F687F44
:102580000C9410128F929F92AF92BF92DF92EF92B3
:10259000FF920F931F93CF93DF93EC01D62EECA005
:1025A000FDA008A519A5AEA0BFA08CA99DA9DC011E
:1025B000ED91FC910680F781E02D0995B2E5DB16DF
:1025C00031F0E4E5DE1619F0F1E4DF121DC08CA84D
:1025D0009DA8DF928AEA95E09F938F931F9288E0EF
:1025E0008F938FE791E09F938F930E94BA2A6FE7B2
:1025F00071E0C4010E9419108DB79EB707960FB6FF
:10260000F8949EBF0FBE8DBF0E0D1F1DEA0CFB1C64
:102610000E151F0539F0D8016D918D01CE010E9474
:102620000B0CF6CF8CA99DA90E94E40B8CA99DA947
:10263000DC01ED91FC910680F781E02D0995CE013A
:1026400084960E94B6121F8680E0DF91CF911F9181
:102650000F91FF90EF90DF90BF90AF909F908F9081
:102660000895CF9380910F039091100320910D0353
:1026700030910E0382179307D0F4E0910B03F09191
:102680000C03E80FF91F808190E02091F6022130C1
:1026900089F487FD19C02091F302C7E028171906B5
:1026A00051F064E587EE92E0CF910C94C2128FEF67
:1026B0009FEFEBCFC8E08BE093E00E94B612109240
:1026C000F6028C2FCF910895C6E0F5CF1F93CF93DC
:1026D000DF93162F21E0FC012787EC01A496CE01A1
:1026E0000E94B612612FCE01DF91CF911F910C9401
:1026F00058120F931F93CF93DF938C01CB01F801F6
:1027000024813581C281D381C21BD30B4C175D0755
:1027100008F4EA01F80160817181620F731F0E9461
:10272000BD30F801848195818C0F9D1F9583848332
:10273000CE01DF91CF911F910F910895EF92FF92FB
:102740000F931F93CF93DF93EC018B017A018F8559
:102750008D7F813051F0F12CE12CC701DF91CF91B9
:102760001F910F91FF90EF9008956EA17FA1640FCC
:10277000751F8AA59BA56817790788F42CA13DA130
:102780008EA19FA1A701B801820F931F0E94BD30A7
:102790008EA19FA18E0D9F1D9FA38EA3DECF6F5F85
:1027A0007F4FCE0184960E9410128111E7CFD3CFC4
:1027B000FF920F931F93CF93DF93CDB7DEB7E597CB
:1027C0000FB6F894DEBF0FBECDBFF82E8E01025DAE
:1027D0001F4F88E0F80111928A95E9F780912E0247
:1027E00081FF10C08DA981608DAB85E1EBE4F2E043
:1027F000A5EBB2E001900D928A95E1F78CEC92E0A6
:102800000E94330380913B0290913C029093CB0253
:102810008093CA020E945603BE016F5F7F4F809172
:10282000DC029091DD020E94370EF1100BC04DE2E8
:1028300050E0BE016F5F7F4F8FEA92E00E94B030A0
:10284000892BC9F08091DC029091DD029C01265A0F
:102850003F4F2115344008F0A3C08D969093DD02C0
:102860008093DC028091DC029091DD020E940A0ECE
:102870008DE28CAB01C01CAA0E945A0A6093DE0252
:102880007093DF028093E0029093E1029FB7F89487
:1028900080912E028E7F80932E0280912E028D7F5A
:1028A00080932E029FBF8091B1029091B202A091BD
:1028B000B302B091B4028EA79FA7A8ABB9AB809129
:1028C000DC029091DD029BAB8AAB68E187EE92E07F
:1028D0000E94661363EF87EE92E00E94AA1248E01E
:1028E00050E0B80187EE92E00E949E130E943113DF
:1028F000E091DC02F091DD028DA981701F928F932F
:102900008091B0028F938091AF028F938DA91F9217
:102910008F938CA91F928F932091B1023091B202B4
:102920004091B3025091B402A6E1B0E00E94E32CC2
:102930008B019C010651110921093109CF016DE27A
:1029400070E00E94FD2C060F171F211D311D3F93C3
:102950002F931F930F93FF93EF9389A98F9388A9C8
:102960008F938FA58F938EA58F9381E795E09F938B
:102970008F9387E891E09F938F930E94E50F0FB6A6
:10298000F894DEBF0FBECDBFE5960FB6F894DEBF5C
:102990000FBECDBFDF91CF911F910F91FF90089592
:1029A0001092DD021092DC028091B1029091B2028D
:1029B000A091B302B091B4020196A11DB11D809304
:1029C000B1029093B202A093B302B093B4020E94FA
:1029D000560348CF60917F026058770B615D7D4F51
:1029E0008091390287FD12C040E852E0461B570B28
:1029F000413560F484170CF4482F10923902042EEC
:102A0000000C550B87EE92E00C949E1340E0F5CF3E
:102A1000462F50E0BC0187EE92E00E949E130C947A
:102A200031130F931F93CF93DF938091B200B89B24
:102A30000DC08091B2008F3F49F08091700190915C
:102A40007101019690937101809370011092B20010
:102A5000B89A809170019091710110927101109259
:102A60007001809184009091850080916F00846056
:102A700080936F00809151029091520290938B004D
:102A800080938A00809184009091850020918A0033
:102A900030918B00820F931F90938B0080938A005C
:102AA000B29A1092A6021092A50288E0E6E9F2E03E
:102AB000AEE8B2E001900D928A95E1F77894C0916A
:102AC0008A02D0918B02209709F444C0209186029B
:102AD0003091870240918802509189026091820270
:102AE0007091830280918402909185020E941F2D33
:102AF0006093820270938302809384029093850294
:102B00002197D0938B02C0938A020091AD0210915D
:102B1000AE02CD2B29F580918C0290918D02F801A7
:102B200095878487E091AD02F091AE02848595850A
:102B30009093AA028093A9029FB7F89480912E02E5
:102B4000806280932E0225E33CE03093250220939F
:102B500024029FBFDF91CF911F910F910C948908A0
:102B60000E94FD2DF80175876487F4CFBF92CF9244
:102B7000DF92EF92FF920F931F93CF93DF93EC01BD
:102B8000162F8E856A3009F0A3C0823030F08D8513
:102B9000833008F46DC081E08E878E85823008F422
:102BA00053C08A89882309F44FC08C8D9D8D00976E
:102BB00011F421E02E872E85223009F47EC02330C7
:102BC00009F042C0CE014A960E94B6128F85882332
:102BD00009F462C01C858CA99DA9DC01ED91FC91D2
:102BE0000680F781E02D0995ECA8FDA881E48F937C
:102BF0008AEA95E09F938F931F9288E08F938FE7E7
:102C000091E09F938F930E94BA2A6FE771E0C7010A
:102C10000E941910612FCE010E940B0C8CA99DA956
:102C20000E94E40B8CA99DA9DC01ED91FC9106802A
:102C3000F781E02D09952DB73EB7295F3F4F0FB6BD
:102C4000F8943EBF0FBE2DBF1E861D868A8988233D
:102C500029F0CE014A960E94B6121A8ADF91CF91CE
:102C60001F910F91FF90EF90DF90CF90BF9008954C
:102C7000813009F490CF823009F08FCF1D8A40E176
:102C800050E070E060E0CE0143960E94A82870E01A
:102C9000CE010E948D1281CF6C85CE010E946613F9
:102CA000E8A9F9A9309721F0188A099581E0888B65
:102CB00061E4CE010E94C212C7CF188A2E8D3F8DCB
:102CC000EEA5FFA5821B930B099581E0888BBCCFF5
:102CD000813021F26D3011F2811179C0ED85E11161
:102CE0006DC06B3209F06DC081E08E0F8D87EC0FE7
:102CF000FD2FF11D138BFE01E80FF11D138A8B8947
:102D00008B3209F0ABCF6E0133E1C30ED11C82E5EB
:102D10008F938AEAE82E85E0F82EFF92EF921F92B9
:102D200098E0B92EBF920FE711E01F930F930E9416
:102D3000BA2AB801C6010E94C630ADB7BEB7179611
:102D40000FB6F894BEBF0FBEADBF892BF1F181E481
:102D50008F93FF92EF921F92BF921F930F930E9447
:102D6000BA2AB801C6010E94C6302DB73EB7295F06
:102D70003F4F0FB6F8943EBF0FBE2DBF892B09F40D
:102D80006DCF84E58F93FF92EF921F92BF921F93B6
:102D90000F930E94BA2AB801C6010E94C630ADB78F
:102DA000BEB717960FB6F894BEBF0FBEADBF892B46
:102DB00009F054CF82E08E871D8650CFE63008F4AC
:102DC00093CF1D8681E08E8749CF83E0F4CFE62E36
:102DD000F12CC7010E94A430892B19F1ED8581E007
:102DE0008E0F8D87EC0FFD2FF11D138B833050F765
:102DF000823009F033CF1D8A40E150E070E060E09E
:102E0000CE0143960E94A82870E0CE01DF91CF91B9
:102E10001F910F91FF90EF90DF90CF90BF900C9497
:102E20008D121C3209F41ACFC7010E946B2A892B1C
:102E300049F214CFCF93DF93C0911B03D0911C03B1
:102E4000E881F9810084F185E02DCE010995892B77
:102E500069F0E881F9810284F385E02DCE010995BE
:102E6000682F87EE92E00E94B615EACFDF91CF91EE
:102E700008950E941F0B81110C941A170895CF9288
:102E8000DF92EF92FF9286E480937C0064E170E031
:102E900080E090E00E94280A0E945A0CBC0190E059
:102EA00080E00E947C2B9B01AC0160E070EC8FE71E
:102EB00097E40E948B2D20E030E040E85FE30E9421
:102EC0001E2D23EC35EF48EA5EE30E94DD2B0E94C5
:102ED000402E20E030EE46E755E40E948B2D2FE097
:102EE0003FEC4BE55BE30E941F2D9B01AC0160E0D2
:102EF00070E080E89FE30E948B2D23E333E948E8EC
:102F000053E40E941E2D6B017C0160915E026F3FB5
:102F1000B1F0062E000C770B880B990B0E947E2BCC
:102F200020E030E040E85EE30E94DD2BA70196013F
:102F30000E941F2DFF90EF90DF90CF90089560E0EA
:102F400070E080EC9FE7F2CF0F931F93CF93DF9356
:102F50000E94060E86E694E00E942E1087E891E01B
:102F60000E94B80B0E94060E81E230E020E0F901D9
:102F700080935700649142E050E0FA01809357003B
:102F80007491E4E0F0E080935700849199E0F901B6
:102F9000909357002491E3E0F0E090935700349130
:102FA000FA019093570094911F929F931F923F9321
:102FB0001F922F931F928F931F927F931F926F9355
:102FC00088E394E09F938F93C7E8D1E0DF93CF939A
:102FD0000E94E50F82E394E00E94980B8DEE92E050
:102FE0000E94980B82E294E00E942E10CE010E9473
:102FF000B80B0E94060E2091B1023091B2024091AE
:10300000B3025091B402A6E1B0E00E94E32C8B0120
:103010009C0106511109210931098091DC0290912E
:10302000DD026DE270E00E94FD2C060F171F211DCE
:10303000311D3F932F931F930F938EE094E09F9346
:103040008F93DF93CF930E94E50F1F9286E08F93BB
:1030500085E094E09F938F93DF93CF930E94E50FD9
:103060008BEF93E00E94980B86EF93E00E94980B01
:1030700085EE93E00E94980B89ED93E00E94980BF7
:1030800080914B02EDB7FEB77E960FB6F894FEBF67
:103090000FBEEDBF81FD34C184E51F928F931F9257
:1030A00087E18F9386EC93E09F938F93C7E8D1E0FD
:1030B000DF93CF930E94E50F8FE38F9380E88F9388
:1030C0001F921F921F9288E08F9387EA93E09F934D
:1030D0008F93DF93CF930E94E50F4AE066E070E0A4
:1030E00080E090E00E94BE108CE20E94B30B8091C1
:1030F0004B02829581701F928F938DE993E09F938D
:103100008F93DF93CF930E94E50F20915902309166
:103110005A02EDB7FEB778960FB6F894FEBF0FBE11
:10312000EDBF2115310509F4EDC080915702909152
:103130005802281B390B50E040E060E070E080E06E
:1031400094E00E94C12C3F932F93809158028F935B
:10315000809157028F9380E993E09F938F93C7E804
:10316000D1E0DF93CF930E94E50FCE010E94B80B10
:103170000E94060E80915B02082E000C990B982F7E
:1031800088279295907F092E000CAA0BBB0B8353C6
:103190009343A347B04CBF93AF939F938F9380917A
:1031A00066028F93809165028F93809164028F9362
:1031B000809163028F9380914B0281701F928F9355
:1031C00088E693E09F938F93DF93CF930E94E50F60
:1031D00060915E028DB79EB746960FB6F8949EBF7B
:1031E0000FBE8DBF6F3F09F490C0062E000C770B09
:1031F000880B990B0E947E2B20E030E040E85EE3D4
:103200000E94DD2BEB01182F092F0E943F170F930F
:103210001F93DF93CF939F938F937F936F9388E553
:1032200093E09F938F93C7E8D1E0DF93CF930E9401
:10323000E50F00915D0210915C020E94B60C1F9296
:103240000F931F921F939F938F938CE393E09F9311
:103250008F93DF93CF930E94E50F80915F021F92BF
:103260008F9380914C021F928F9385E293E09F93FE
:103270008F93DF93CF930E94E50F8FE193E00E943D
:10328000980B0E947E0C9C0121503109EDB7FEB7CE
:103290007E960FB6F894FEBF0FBEEDBF2E3F3F4F98
:1032A000C8F18FE20E94B30B809152028F938091FC
:1032B00051028F93809156028F93809155028F9384
:1032C000809154028F93809153028F9388EF92E004
:1032D0009F938F9387E891E09F938F930E94E50FD0
:1032E0008DB79EB70A960FB6F8949EBF0FBE8DBFDE
:1032F00087E891E0DF91CF911F910F910C94B80B6B
:103300008CE4CBCE20E030E21ECFC0E0D0E010EC69
:103310000FE77BCFBC0190E080E00E947C2B20E097
:1033200030E04AE754E40E948B2D9F938F937F9364
:103330006F938AE193E09F938F93DF93CF930E94E3
:10334000E50F4DB75EB7485F5F4F0FB6F8945EBFAD
:103350000FBE4DBFA9CF2F923F924F925F926F92B7
:103360007F928F929F92AF92BF92CF92DF92EF9215
:10337000FF920F931F93CF93DF93CDB7DEB7A19743
:103380000FB6F894DEBF0FBECDBF9A8F898F80ED48
:1033900080937F0210923A0210923902E7E82E2EB3
:1033A000E1E03E2E898D9A8D9C01215031093A8FA2
:1033B000298F181619060CF08BC410917F0281E03A
:1033C00093E00E942D0CE0917F02E058E13508F077
:1033D000E0E5F0E0E15DFD4F808380917F0291E0C8
:1033E000980F90937F02103D11F580937F02298DF5
:1033F0003A8D232BB9F6893BA9F6809139028230A8
:1034000089F683E498E09093700280936F0285E0E0
:10341000EAE0F1E0A1E7B2E001900D928A95E1F7D0
:1034200087E08093390280EC80937F02BBCF1A380B
:1034300011F480EDF9CF193809F0B4CF909138022A
:10344000933809F44CC208F068C0933209F4C0C143
:1034500090F5923109F486C1F0F4903109F4A6C1D7
:10346000913109F09FCF00913402109135022091E3
:10347000360230913702409132025091330260910E
:103480002F0270913002809131028F3F09F480E069
:103490000E94170787CF298D3A8D913209F492C186
:1034A00008F093C144E068EB903209F07BCFC9018A
:1034B0000E94FB0D77CF933509F49EC1D0F491356E
:1034C00009F4C8C108F089C1903509F06BCF60E0FC
:1034D000CE0149960E94EA0D823941F49FB7F894D3
:1034E00080912E02826080932E029FBF0E94660A06
:1034F00059CF963509F483C1923809F4CEC1943579
:1035000009F050CF109227021092260210922B023F
:1035100010922C0210922D0245CF953909F420C249
:1035200008F0ABC0963809F41EC238F5943809F497
:10353000ECC1953809F036CF61E0CE0149960E9482
:10354000EA0D20919E0230919F02820F932F911DD0
:1035500090939F0280939E029F938F938DE792E0BA
:103560009F938F933F922F920E94E50F0F900F90A1
:103570000F900F900F900F9015CF933909F478C1E9
:1035800008F0DFC1913909F00DCF1F928CE98F93BC
:103590001F9287E18F9388E08F9383E48F9384ED6C
:1035A00092E09F938F933F922F920E94E50F0FB668
:1035B000F894DEBF0FBECDBF0BE412E06FECE62E39
:1035C00062E0F62ED8018D918D011F928F93FF92AC
:1035D000EF923F922F920E94E50F0F900F900F9065
:1035E0000F900F900F90B2E000361B0759F70E9422
:1035F00028101F921F921F9283EA8F931F9287E1D8
:103600008F931F921F9283ED91E09F938F933F9230
:103610002F920E94E50F87E891E00E94B80B0FB649
:10362000F894DEBF0FBECDBFF12C0AEC11E0809103
:10363000E602F81608F0FFC08F2D90E0A091E4029A
:10364000B091E502A80FB91F2C911F922F93E09122
:10365000E202F091E302E80FF91F80811F928F933D
:103660001F930F933F922F920E94E50FF3940FB692
:10367000F894DEBF0FBECDBFDACF933A09F4E6C2AD
:10368000A8F4913A09F40FC208F015C3903A09F072
:1036900089CE6FEFCE0149960E94EA0D6FE7CE0109
:1036A00049960E94EA0D0E9432117CCE9D3E09F49B
:1036B0006EC19E3E09F4ACC1943A09F073CEE0911C
:1036C000AD02F091AE02A484B58470E060E080E0C9
:1036D0000E94F708C12CD12C760110E000E00E9476
:1036E000030A2B01C8010E94B906982E892E0E9458
:1036F000030A641975092B01712C612CC414D504BB
:10370000E604F704A8F47F936F938F929F921F9320
:103710000F93E0E1F2E0FF93EF933F922F920E942C
:10372000E50F0FB6F894DEBF0FBECDBF7301620187
:103730000F5F1F4F011590E2190789F6FF92EF9274
:10374000DF92CF921F921F9283EF91E09F938F930E
:103750003F922F920E94E50FB501772780E00E94EB
:10376000F708B7C0898D9A8D9C01215031093A8F95
:10377000298F18161906BCF481E093E00E942D0CE5
:10378000282F2F7074E0959587957A95E1F78F70C3
:10379000880F90913902890F809339022A5B220F9A
:1037A00020937F02FFCD20E088E0F2CF60913202CB
:1037B00070913302809131028F3F09F480E00E94C2
:1037C000F708F0CD42E06CEB72CE42E06EEB6FCECC
:1037D00044E064EB898D9A8D6BCE80E090E0A0E8A8
:1037E000BFE380936F0290937002A0937102B09335
:1037F000720244E060ECEECF0E94A417D3CD898D15
:103800009A8D9C01215031093A8F298F181619067B
:103810000CF0C8CD81E093E00E942D0CE091AB024A
:10382000F091AC0221E0019709F020E0808120FBBB
:1038300081F98083B7CD3FE13F1528F080E30E94F6
:10384000B30BF394F8CF0E94281087E891E00E9410
:10385000B80BA8CD0E945F039FB7F89480912E0209
:10386000826080932E029FBF81E00E94D8139ACD80
:103870001FB7F89460E0CE0149960E94EA0D8239A4
:1038800029F480912E02826080932E0280912E0274
:103890008E7F80932E021FBFE7CF61E0CE01499655
:1038A0000E94EA0D2091510230915202820F932F13
:1038B000911D90935202809351029F938F939F93F7
:1038C0008F938CEB92E09F938F933F922F920E9465
:1038D000E50F0FB6F894DEBF0FBECDBF63CD61E03C
:1038E000CE0149960E94EA0D209151023091520278
:1038F000281B310930935202209351023F932F939A
:103900003F932F9389EA92E0DECF898D9A8D9C01B7
:10391000215031093A8F298F029744F042E050E05C
:1039200061E572E081E093E00E9479138091510299
:10393000909152029F938F939F938F9386E992E089
:10394000C2CF8CE892E00E942E100E94B90964EF69
:1039500071E080E090E00E94280A0E94D30E22CD00
:103960000E943A101FCD61E0CE0149960E94EA0DF7
:1039700020919E0230919F02281B310930939F02B3
:1039800020939E023F932F938EE692E0E9CD88E646
:1039900092E00E94980B8091900290919102892B65
:1039A00091F110E024E01202F0011124E058FD4FE3
:1039B000208931892115310509F46BC04685E091D4
:1039C000AD02F091AE02842F042E000C990B0696E6
:1039D000880F991FE80FF91F81818F9380818F9342
:1039E0003F932F931F924F938DE592E09F938F9378
:1039F0003F922F920E94E50F1F5F0FB6F894DEBF33
:103A00000FBECDBFCFCF8AE492E00E942E10CACC69
:103A100084E492E00E94980B9FE2E92E92E0F92E56
:103A200000E810E028E3C22E22E0D22EB02EF02FC4
:103A3000F370AF2E81F41F930F932DE332E03F9389
:103A40002F933F922F920E94E50F0F900F900F90AF
:103A50000F900F900F90D7018D917D011F928F9342
:103A6000DF92CF923F922F920E94E50F8B2D8F70A5
:103A70000F900F900F900F900F900F908F3061F478
:103A800081E392E00E94980B0F5F1F4F013D1105EB
:103A900069F60E94281086CCB3E0AB12F5CF80E225
:103AA0000E94B30BF1CF898D9A8D05970CF47ACCD7
:103AB00044E050E0BE016F5E7F4F81E093E00E94E2
:103AC0007913E98CFA8CE81AF90AFA8EE98EE0FC8F
:103AD00069CCE6948FEF8E0D883008F063CCFE0140
:103AE0003196FC8FEB8F80E111928A95E9F7F12CEA
:103AF000A701BE016F5F7F4F81E093E00E947913C1
:103B0000298D3A8D281B390B3A8F298FA701BE01C9
:103B1000675F7F4F81E093E00E947913298D3A8D92
:103B2000281B390B3A8F298FC988DA888C89482E4F
:103B3000512CFFEF4F1A5F0A2B89249DC001259D50
:103B4000900D11249C012C0D3D1D3E8F2D8F5F92F9
:103B50004F923F932F93DF92CF9288E391E09F9310
:103B60008F933F922F920E94F50F8FE6882E82E06E
:103B7000982E0FB6F894DEBF0FBECDBFB12CAD8D21
:103B8000BE8DCA16DB060CF05FC0B0E1BB1609F4AF
:103B90005BC0B60190E080E00E947C2B2CE73CE704
:103BA00040E052E40E948B2D69A3672E8C0120E037
:103BB00030E04FE753E40E94772B87FD04C019A241
:103BC000612C0FE713E4E9E0F0E0EC0FFD1FF88F44
:103BD000EF8B21E030E02C0F3D1F3E8B2D8BA9A0F9
:103BE0006F8E08A3712E0A2D162D28A1372DA7013F
:103BF000BE01695E7F4FCE0145960E946A040E9415
:103C0000D403D4018C9311969C93B2E08B0E911C3B
:103C1000B394B3949F938F937F92E8A1EF93FF8D1A
:103C2000FF93AF92DF92CF9226E531E03F932F933F
:103C30003F922F920E94F50FC40CD51C0FB6F8943A
:103C4000DEBF0FBECDBF9BCF4B2DD4CD6FEFCE01CE
:103C500049960E94EA0D8111A5CBFFB6F894EFE6D4
:103C6000F2E080E1DF011D928A95E9F7098D1A8D56
:103C70001016110674F4013108F000E110E0A801FB
:103C80006FE672E081E093E00E947913081719074C
:103C900021F48FE692E00E94850F80914B028F7E87
:103CA00080934B029091E602992319F080618093F2
:103CB0004B02FFBE77CB6FEFCE0149960E94EA0D13
:103CC000811170CB8FE692E00E94330340E192CDE8
:103CD000A1960FB6F894DEBF0FBECDBFDF91CF9196
:103CE0001F910F91FF90EF90DF90CF90BF90AF901A
:103CF0009F908F907F906F905F904F903F902F900C
:103D000008951F920F920FB60F9211242F933F9395
:103D10008F939F93AF93BF93809177019091780198
:103D2000A0917901B0917A013091760126E0230FBC
:103D30002D3758F50296A11DB11D20937601809371
:103D4000770190937801A0937901B0937A018091E3
:103D50007B0190917C01A0917D01B0917E01019643
:103D6000A11DB11D80937B0190937C01A0937D01E7
:103D7000B0937E01BF91AF919F918F913F912F9111
:103D80000F900FBE0F901F90189529E8230F0396F0
:103D9000A11DB11DD2CF1F920F920FB60F92112409
:103DA0002F933F934F935F936F937F938F939F9343
:103DB000AF93BF93EF93FF93E0910201F091030162
:103DC0000995FF91EF91BF91AF919F918F917F9155
:103DD0006F915F914F913F912F910F900FBE0F9078
:103DE0001F9018951F920F920FB60F9211242F93C8
:103DF0003F934F935F936F937F938F939F93AF9373
:103E0000BF93EF93FF93E0910001F09101010995B9
:103E1000FF91EF91BF91AF919F918F917F916F91A2
:103E20005F914F913F912F910F900FBE0F901F9078
:103E300018951F920F920FB60F9211242F933F9354
:103E40004F935F936F937F938F939F93AF93BF93A2
:103E5000EF93FF9387E891E00E94290BFF91EF9188
:103E6000BF91AF919F918F917F916F915F914F9192
:103E70003F912F910F900FBE0F901F9018951F929A
:103E80000F920FB60F9211242F938F939F93EF935E
:103E9000FF93E0919701F09198018081E0919D015D
:103EA000F0919E0182FD1BC090818091A0018F5FE7
:103EB0008F732091A101821741F0E091A001F0E001
:103EC000E957FE4F958F8093A001FF91EF919F914D
:103ED0008F912F910F900FBE0F901F90189580819A
:103EE000F4CF1F920F920FB60F9211248F939F93CE
:103EF0008091720190917301019690937301809368
:103F000072019F918F910F900FBE0F901F90189587
:103F10001F920F920FB60F9211248F939F9380914F
:103F200070019091710101969093710180937001DD
:103F30008091240290912502181619062CF40197FD
:103F4000909325028093240280912602909127026B
:103F5000009729F0019790932702809326029F9162
:103F60008F910F900FBE0F901F9018951F920F9278
:103F70000FB60F9211242F933F934F935F936F933C
:103F80007F938F939F93AF93BF93EF93FF93109281
:103F90008500109284001092890010928800809110
:103FA0009E0290919F0290938B0080938A0086B32B
:103FB000866086BBE091AB02F091AC028081869571
:103FC000817091E089278093A4022091A50230910D
:103FD000A6022F5F3F4F3093A6022093A502203DFB
:103FE0003740E8F080916F00897F80936F000E94D6
:103FF000B90980912E02806480932E02FF91EF9187
:10400000BF91AF919F918F917F916F915F914F91F0
:104010003F912F910F900FBE0F901F9018952091F8
:104020009002309191022115310551F190916F006C
:10403000997F926090936F0030938900209388005D
:1040400090E024E09202F0011124E057FD4F20811E
:104050003181232B39F0882319F05E9A9F5FF1CFCD
:104060005E98FCCFE091AD02F091AE0224853585DB
:10407000232B09F45E9891E089278093A402BECF98
:1040800080916F00897F846080936F00E091AD0222
:10409000F091AE02848595858115904211F45E9A67
:1040A000ADCF5E98ABCF1F920F920FB60F92112437
:1040B0008F938091A402882369F05E9A80916F00AB
:1040C000897F846080936F008F910F900FBE0F9057
:1040D0001F9018955E98F2CF82EE92E00E94740FC6
:1040E00085E291E09093E8028093E7028BE093E011
:1040F0000E94051081E093E00C940510CF93DF93AC
:10410000A7E8B1E013961C921E92129748EE53E076
:1041100060E070E014964D935D936D937C931797D8
:1041200083E191E011969C938E9385EC90E01D962F
:104130009C938E931C9784EC90E01F969C938E9397
:104140001E9780EC90E051969C938E93509781EC53
:1041500090E053969C938E93529782EC90E0559604
:104160009C938E93549786EC90E057969C938E93F5
:10417000569759961C9259975A961C925A975B9645
:104180001C925B975C961C925C97E7EEF2E01382C0
:104190001282448355836683778385E291E091831D
:1041A00080838EEF848715861686178681E0808B44
:1041B000118A128A2AEF32E087E0E90119928A9582
:1041C000E9F7138E128E158E148E178E168E11A28D
:1041D00010A213A212A215A214A217A216A211A62F
:1041E00010A613A612A615A614A617A616A611AAFF
:1041F00010AA8AE197E193AB82ABB5ABA4ABE4E242
:10420000F2E08FEF9FEF9183808382E19AE79383BF
:104210008283148215821682178210861186128676
:10422000E0E8F2E08BE2DF011D928A95E9F78BE48A
:1042300092E094A783A78FE292E096A785A7E2EE8B
:10424000F2E011821082138212821482EFEAF2E00D
:104250008DE2EF0119928A95E9F716A615A688E76F
:104260009CEEAFEFBFEF87A790ABA1ABB2ABDF91F6
:10427000CF910895CF93DF93CDB7DEB7AD970FB64B
:10428000F894DEBF0FBECDBF789484B5826084BD44
:1042900084B5816084BD85B5826085BD85B581604A
:1042A00085BD80916E00816080936E0010928100C8
:1042B0008091810082608093810080918100816083
:1042C0008093810080918000816080938000809144
:1042D000B10084608093B1008091B00081608093D0
:1042E000B00080917A00846080937A0080917A0097
:1042F000826080937A0080917A008E7F80937A002A
:1043000080917A00806880937A001092C100E091D9
:104310009701F091980182E08083E0919301F09100
:1043200094011082E0919501F091960180E18083E3
:1043300010929F01E0919B01F0919C0186E08083A7
:10434000E0919901F0919A01808180618083E091F0
:104350009901F0919A01808188608083E0919901B0
:10436000F0919A01808180688083E0919901F091B9
:104370009A0180818F7D80830E94060E8FEC94E0ED
:104380000E942E1087E891E00E94B80BE1E3F2E072
:104390008FE4DF011D928A95E9F78FEF9FEF9093ED
:1043A000300280932F028091F3028E3FC1F08EEF96
:1043B0008093F3021092F4021092F5021092F6022A
:1043C00081E08093F7021092F8021092F90281E0E6
:1043D00093E00E9405108BE093E00E94051087E1B6
:1043E0008093F3028BEA99E190931603809315036F
:1043F0008AEE94E190931803809317038FEF9FEF59
:104400009093DD028093DC0210E000E0412C512CFF
:1044100032010E3DB3E01B0751F1BE016F5F7F4FCC
:10442000C8010E94370ECE0103960E940E03298117
:104430003A8128173907C1F44B815C816D817E81F7
:10444000441555056605770578F01093DD02009355
:10445000DC028DE2FE013196AFEAB2E001900D92EE
:104460008A95E1F72A013B01035D1F4FD2CF80916E
:10447000DC029091DD02019609F0E8C00E943A103A
:1044800060E084E10E94880960E083E00E9488097E
:104490001092600210926102109262020E94D30E8A
:1044A000CE0101966C018091740190917501892B68
:1044B00009F424C10E94D30E882309F4BFC04090A0
:1044C0006302509064026090650270906602A301DE
:1044D0009201C301B2010E94882E811163C020E0C5
:1044E00030E0A901C301B2010E94772B882309F4AF
:1044F00059C0A301920160E074E284EF98E40E9445
:104500008B2D0E94042E70939F0260939E02A30144
:10451000920160E074E284E79AE40E948B2D0E948D
:10452000042E6093A0027093A1028093A2021982CC
:1045300010922E021092A6021092A5027093A80269
:104540006093A7021092A402AFEFBFEFB093AA024C
:10455000A093A9020E94430961E086E00E948809B5
:10456000F8941092B00081E08093B10080917000C7
:1045700081608093700081E195E1909303018093C5
:104580000201809169008C6080936900E99A109221
:10459000800082E08093810080916F00887D80930D
:1045A0006F00789480914B0280FF20C06090CA0217
:1045B0007090CB0261147104C9F080904D0290900C
:1045C0004E02A0904F02B090500220E030E0A901CE
:1045D000C501B4010E94772B882341F09501840125
:1045E000A3016FEF7FEF80E00E9417070E94B60CD7
:1045F00090936C0280936B020E943F176093670256
:10460000709368028093690290936A020E947E0C04
:1046100068E187EE92E00E94661367EF87EE92E012
:104620000E94AA126CE083E692E00E940815F894BA
:1046300080912E02846080932E0278940E941F0B3A
:10464000882309F430CF0E941A172DCF8091B6022B
:10465000873308F487E38E3708F08DE78093B6023E
:1046600085E1E5EBF2E0ABE4B2E001900D928A95D2
:10467000E1F782EE92E00E94740F8CEC92E00E94CF
:10468000850F0E94060EE091DC02F091DD02809120
:10469000B0028F938091AF028F93CF016DE270E0F3
:1046A0000E94FD2C4B01B12CA12C86E1881A9108A7
:1046B000A108B108A6E1B0E0A30192010E94E32C99
:1046C000860E971EA81EB91EBF92AF929F928F9220
:1046D000FF93EF937F926F925F924F928CEA94E0F8
:1046E0009F938F9387E891E09F938F930E94E50FAC
:1046F0000FB6F894DEBF0FBECDBFC2CEF894309097
:104700002E02789432FE09C0F89480912E028B7F9D
:1047100080932E0278940E94A4170E945A0A4B019B
:104720005C0133FE1BC0F89480912E02877F80933A
:104730002E02789468E187EE92E00E94661364EF9F
:1047400087EE92E00E94AA126FEF87EE92E00E943D
:10475000AA1263E080E692E00E94081534FE18C0B9
:10476000F8948091A302898380912E028F7E80939A
:104770002E02789468E187EE92E00E94661365EF5E
:1047800087EE92E00E94AA1261E0C6010E9408151D
:1047900035FE3BC0F8948091240290912502892B2C
:1047A00009F076C080912E028F7D80932E02AFEFAC
:1047B000BFEFB0932502A09324028091A9029091AB
:1047C000AA0286018F3F980761F019829B838A8332
:1047D0008FEF9FEF9093AA028093A9028E010C5F46
:1047E0001F4F7894C016D10681F068E187EE92E001
:1047F0000E94661362EF87EE92E00E94AA12B8014F
:104800006C197D09C6010E94081530FE12C00E9475
:104810005A0A0091DE021091DF022091E0023091ED
:10482000E102601771078207930718F080E00E9489
:10483000D81336FE2FC068E187EE92E00E9466131F
:1048400066EF87EE92E00E94AA1264E085EA92E0A9
:104850000E9408158091A8028F938091A7028F93E0
:104860008091A6028F938091A5028F93A4EDB4E06E
:10487000BF93AF9387E891E09F938F930E94E50FDA
:104880000E94D30E0FB6F894DEBF0FBECDBFD6CEBA
:104890007894BBCF8091260290912702892B09F052
:1048A000CDCEF894A2E1BAE7B0932702A0932602F6
:1048B00078940E943F172B013C014092670250926E
:1048C00068026092690270926A02AC019B010E94C8
:1048D000882E811105C0C301B2010E94FD2D7B010C
:1048E0000E94B60C8C0190936C0280936B02BC0109
:1048F000990F880B990B0E947E2B9B01AC010E94A3
:10490000882E811104C0E016F1060CF47801892C80
:104910009A2CAB2CBB2414014A2C80914C02882386
:10492000C1F18E151F04ACF58091280290912902E7
:10493000A0912A02281639064A0658F1AA2DC40168
:104940008B589F4FAF4F8093280290932902A093DA
:104950002A0280914B0282FD05C0846080934B0245
:104960000E94660A70E060E080E00E94F708E98239
:1049700080914C028A8368E187EE92E00E94661380
:1049800061EF87EE92E00E94AA1262E0C6010E94E7
:10499000081580915F02882309F450CE20912B02E4
:1049A00030912C0240912D0222163306440608F461
:1049B00045CEB4E08B9F20011124052C000C660825
:1049C000480C591C6A1C40922B0250922C02609297
:1049D0002D020E94B60C90936C0280936B020E9491
:1049E0003F17609367027093680280936902909307
:1049F0006A020E947E0C68E187EE92E00E946613D4
:104A000060EF87EE92E00E94AA126E2D87EE92E090
:104A10000E94AA126CE083E692E00E9408150ECE76
:104A2000AFE0B0E0E6E1F5E20C9471286C011B0107
:104A30005A01FC0117821682838181FF48C39E01BF
:104A40002F5F3F4F4901F6019381F10193FD85915D
:104A500093FF81911F01882309F4E7C2853239F45D
:104A600093FD859193FF81911F01853239F4B60141
:104A700090E00E948A2A35015301E5CFF12C512C98
:104A800000E0003238F48B3209F190F48032F9F012
:104A9000833209F107FD34C020ED280F2A3020F5BC
:104AA00006FF1BC0FAE0FF9E200D1124F22E05C068
:104AB0008D3279F0803371F70160F10193FD8591BA
:104AC00093FF81911F018111DCCF1AC00260046045
:104AD000F4CF0860F2CF0061F0CF3AE0539E200D92
:104AE0001124522E0062E9CF8E3221F406FD9DC2C0
:104AF0000064E3CF8C3611F40068DFCF8836E9F22A
:104B00009BEB980F933008F05FC00061805E06FD5C
:104B100002C046E0F42E102F1F73853609F05BC0EB
:104B2000106417FF61C08F2D9BE39F1508F48BE382
:104B300044244394480E27E03501F4E06F0E711CC5
:104B4000F5016081718182819381042DA4010E940D
:104B500093295C01F981FC87F0FF03C00DE2F3FFAC
:104B600007C00BE211FD04C0012F047012FD00E22A
:104B70002C852C70E22E09F457C00111ABC2F3E072
:104B8000E12CF515A0F483E0E52CE81A13FD08C02C
:104B9000B60180E290E00E948A2AEA94E110F8CF00
:104BA000002329F0B601802F90E00E948A2A3C85DC
:104BB00022ECA22E20E0B22E33FD04C096ECA92EEA
:104BC00090E0B92E107122C09BE9980F933008F045
:104BD00033C10F7E9CCF863611F41068A2CFFF2020
:104BE00009F49FCFFA949DCFE7E02F2DEF1518F42D
:104BF00027E037E0F32E412C9FCF11118052B601F0
:104C000090E00E948A2A8FEFA81AB80AF5018491D1
:104C10008111F3CFEE2009F42FCFB60180E290E0AE
:104C20000E948A2AEA94F6CF17FF6FC04A0CFC85CF
:104C3000F4FF04C08A81813309F44A9414140CF0FF
:104C400086C028E0241510F488E0482E85E090E026
:104C500017FF06C0C501B7FE02C090E080E00196D4
:104C600001110196FF2031F02F2D30E02F5F3F4FD3
:104C7000820F931F5816190619F014F0E52CE81A44
:104C8000812F897011F4E11067C0002329F0B6016B
:104C9000802F90E00E948A2A13FD02C0E11063C0B9
:104CA00017FF7CC08501B7FE02C010E000E0C5011F
:104CB000841991092C016F2D70E0EE27FF27E61B68
:104CC000F70BFF87EE870F3F100729F4B6018EE23E
:104CD00090E00E948A2AA016B1060CF44BC0401640
:104CE00051060CF047C0F501E01BF10BE80DF91D72
:104CF0008181015011092E853F8502171307E4F1C8
:104D0000B60190E00E948A2ADECF16FD9FCFEF2DDC
:104D1000F0E0EA15FB0534F03CEFA3163FEFB306D5
:104D20000CF010683296E80DF91D01C0FA94FF20CE
:104D300019F082918033D1F317FF88CF4424439434
:104D40004F0CFA141B0431F02CF0FA187FCF4424D6
:104D500043947CCFF12C7ACFB60180E290E00E94A0
:104D60008A2AEA9490CFB60180E390E00E948A2AD2
:104D7000EA9494CF80E3BDCFA016B10641F49A81A6
:104D8000963350F4953319F43C8534FF05C0B601D1
:104D900090E00E948A2A3ECF81E3F9CF8A81813355
:104DA00019F09C859F7E9C87B60190E00E948A2A1C
:104DB000FF20A9F0B6018EE290E00E948A2AF394C7
:104DC000F394E2E001E00E0FE80DF92DF11D808172
:104DD000B60190E00E948A2AE02F0F11F3CF85E6FA
:104DE00090E014FF02C085E490E0B6010E948A2A98
:104DF000B7FC06C0A114B104C1F4EC85E4FF15C0F2
:104E0000B194A194B1088DE2B60190E00E948A2A83
:104E100080E32AE0A216B10454F4B60190E00E94A7
:104E20008A2AB601C501C096B4CF8BE2EDCF8F5F61
:104E3000FAE0AF1AB108EDCF8336C9F0833771F1CC
:104E4000833509F05BC03501F2E06F0E711CF5018E
:104E5000A080B1806F2D70E006FD02C06FEF7FEF84
:104E6000C5010E94742A9D878C8700680DC035019A
:104E700032E0630E711CF5018081898321E030E00E
:104E80003D872C8754010F7703FD06C02C853D8597
:104E90005216130609F0A8F4E52C2BC0350132E0B8
:104EA000630E711CF501A080B1806F2D70E006FDCE
:104EB00002C06FEF7FEFC5010E947F2A9D878C871C
:104EC000E2CFB60180E290E00E948A2A5A94DECFB7
:104ED000F50107FD859107FF81915F01B60190E023
:104EE0000E948A2AE110EA948C859D8501979D870E
:104EF0008C87EC85FD85EF2B59F78CCE843619F025
:104F0000893609F074C0350107FF66C0F4E06F0E02
:104F1000711CF5016081718182819381102F1F7650
:104F200097FF08C090958095709561957F4F8F4F42
:104F30009F4F10682AE030E0A4010E94162BA82E93
:104F4000A818BA2C012F16FF0AC00E7FAF1438F430
:104F500014FF04C012FD02C0012F0E7EBF2C04FFFF
:104F60008EC0FE01EA0DF11D8081803309F080C002
:104F7000097EF02FF870EF2E03FD90C000FF8AC06D
:104F8000FA2CB51410F4F50CFB1804FF8DC0B60113
:104F900080E390E00E948A2A02FF09C088E790E03F
:104FA00001FF02C088E590E0B6010E948A2AAF1492
:104FB00008F486C0AA940A2D10E00F5F1F4F080D59
:104FC000191DF80182918F01B60190E00E948A2A92
:104FD00080169106B1F71ECEF2E06F0E711CF5013E
:104FE00060817181072E000C880B990B97CF102FD1
:104FF0008537A9F41F7E2AE030E0350117FF2FC066
:10500000F4E06F0E711CF5016081718182819381E2
:10501000A4010E94162BA82EA8181F7792CF197FE3
:105020008F36D1F048F4883591F0F601868197816A
:105030002F96E2E10C948D28803739F08837A9F754
:1050400014FD146020E130E0D8CF1061F9CF04FDE9
:10505000166020E132E0D1CF28E030E0CECFF2E0A0
:105060006F0E711CF5016081718190E080E0D0CFFE
:1050700002FD02C0B3947DCFB394B3947ACF802F56
:10508000867809F476CFF6CFB60180E290E00E94F0
:105090008A2AB394B514C0F3E12C77CFE52CEB1832
:1050A000B51408F472CFF8CF802F867809F47FCF3B
:1050B0008BE201FF80E207FD8DE2B60190E075CF43
:1050C000B60180E390E00E948A2AFA9470CF8FEFB5
:1050D0009FEFAECF24E0E12C251508F063CD84E0EE
:1050E00053CD2F923F924F925F926F927F928F9209
:1050F0009F92AF92BF92CF92DF92EF92FF920F9367
:105100001F93CF93DF93CDB7DEB7CA1BDB0B0FB670
:10511000F894DEBF0FBECDBF09942A88398848882D
:105120005F846E847D848C849B84AA84B984C884C3
:10513000DF80EE80FD800C811B81AA81B981CE0FBA
:10514000D11D0FB6F894DEBF0FBECDBFED0108959F
:10515000B0E0A0E0EEEAF8E20C9472285C016B018A
:105160007A016115710519F0FB0191838083E114C7
:10517000F10449F0C7010297839728F060E070E0DE
:10518000CB019CC05E01E5012196F5011081812FC4
:1051900090E00E946B2A892BA9F71D3209F056C0B6
:1051A0002196F501118101E0E114F10409F4AEC08A
:1051B000F0E1EF16F10409F08EC0103341F488815C
:1051C0008F7D883509F083C0198122960260E0E165
:1051D000EE2EF12C88248A94982CA82CFFE0BF2E68
:1051E00020E060E070E0CB0127010F2C000C660886
:1051F0007708FE0150ED352E310E39E0331538F4C5
:105200003FEB310F3A31A0F549EC342E310E3E140C
:105210001F04BCF52F3FB9F086169706A806B906FD
:1052200070F1A30192010E94B12C232D30E050E0D7
:1052300040E0620F731F841F951F62177307840776
:105240009507E8F021E021961081D3CF1B3221F49D
:10525000E5012296F501118100E0A6CF78E0E72E66
:10526000F12C88248A94982CA82C6FE1B62EB8CF04
:105270003FE9310F3A3128F439EA332EC7CF2FEF07
:10528000E2CFC114D10431F02223E9F02197F601D5
:10529000D183C08300FF07C090958095709561957C
:1052A0007F4F8F4F9F4F2F3F49F482E290E09093C2
:1052B0001E0380931D036FEF7FEFCB01CDB7DEB7E9
:1052C000E1E10C948E2801FFE5CF2297E0CF10E3B7
:1052D000E114F10419F23AE0E316F104E9F080E197
:1052E000E816F10409F473CFE8E0EE16F10409F4CE
:1052F000B8CF6FEF7FEFCB0197010F2C000C440B61
:10530000550B0E94C12C49015A016ACF103309F490
:1053100056CF9AE0E92EF12C89E9882E982CA82CFA
:1053200089E1B82E5DCF283008F027E03327DA0175
:10533000990F311D87FD916000966105710539F463
:1053400032602E5F3D9330E32A95E1F708959F3F49
:1053500030F080387105610509F03C5F3C5F3D939A
:10536000913008F08068911DDF93CF931F930F93C6
:10537000FF92EF92192F987F9695E92F9695969523
:10538000E90FFF27EC5DFE4F99273327EE24FF241A
:10539000A701E70105900894079428F4360FE71E4B
:1053A000F81E491F511D660F771F881F991F06940D
:1053B000A1F70590079428F4E70EF81E491F561F21
:1053C000C11D770F881F991F661F0694A1F70590CE
:1053D000079428F4F80E491F561FC71FD11D880FC8
:1053E000991F661F771F0694A1F70590079420F474
:1053F000490F561FC71FD81F990F661F771F881F99
:105400000694A9F784911095177041F0D695C79529
:1054100057954795F794E7941A95C1F7EAECF0E0B1
:1054200068941590159135916591959105907FE25D
:105430007395E118F10A430B560BC90BD009C0F75D
:10544000E10CF11E431F561FC91FD01D7EF470339F
:1054500011F48A95E6CFE894015030F0080F0AF471
:105460000027021708F4202F2395022F7A3328F003
:1054700079E37D932A95E9F710C07D932A9589F603
:10548000069497956795379517951794E118F10A43
:10549000430B560BC90BD00998F023957E91739559
:1054A0007A3308F070E37C932013B8F77E91706133
:1054B0007D9330F0839571E37D9370E32A95E1F756
:1054C0001124EF90FF900F911F91CF91DF919927B9
:1054D00087FD9095089591110C94742B803219F0EA
:1054E00089508550C8F70895FC01059061507040BF
:1054F0000110D8F7809590958E0F9F1F0895FC019D
:105500006150704001900110D8F7809590958E0FF2
:105510009F1F08950F931F93CF93DF93182F092F89
:10552000EB018B8181FD09C01FEF0FEF812F902FC1
:10553000DF91CF911F910F91089582FF14C02E81AA
:105540003F818C819D81281739073CF4E881F981DE
:10555000CF0101969983888310838E819F81019664
:105560009F838E83E3CFE885F985812F0995892B69
:10557000A1F3DACFAEE0B0E0E0ECFAE20C947F28E1
:105580000D891E898F89988D2EE02C831A830983BB
:1055900097FF02C080E090E801979E838D83AE0163
:1055A000455E5F4F698D7A8DCE0101960E94102570
:1055B0004D815E8157FD0AC02F8138854217530700
:1055C0000CF49A01020F131FF80110822E96E4E0EA
:1055D0000C949B28AEE0B0E0E0EFFAE20C947F2858
:1055E0008C01FA018EE08C831A83098377FF02C055
:1055F00060E070E8615071097E836D83A901BF018D
:10560000CE0101960E9410254D815E8157FD0AC092
:105610002F813885421753070CF49A01020F131F8C
:10562000F80110822E96E4E00C949B28FA01AA2738
:10563000283051F1203181F1E8946F936E7F6E5FD5
:105640007F4F8F4F9F4FAF4FB1E03ED0B4E03CD083
:10565000670F781F891F9A1FA11D680F791F8A1F66
:10566000911DA11D6A0F711D811D911DA11D20D0CD
:1056700009F468943F912AE0269F11243019305D87
:105680003193DEF6CF010895462F4770405D419378
:10569000B3E00FD0C9F7F6CF462F4F70405D4A33C5
:1056A00018F0495D31FD4052419302D0A9F7EACF8D
:1056B000B4E0A6959795879577956795BA95C9F7BC
:1056C00000976105710508959B01AC010A2E0694AF
:1056D0005795479537952795BA95C9F7620F731F68
:1056E000841F951FA01D08959927882708950E945B
:1056F000B92B08F481E00895E89409C097FB3EF4C3
:1057000090958095709561957F4F8F4F9F4F99230E
:10571000A9F0F92F96E9BB279395F695879577958C
:105720006795B795F111F8CFFAF4BB0F11F460FF4C
:105730001BC06F5F7F4F8F4F9F4F16C0882311F0A4
:1057400096E911C0772321F09EE8872F762F05C0B8
:10575000662371F096E8862F70E060E02AF09A9553
:10576000660F771F881FDAF7880F9695879597F948
:105770000895990F0008550FAA0BE0E8FEEF1616E2
:105780001706E807F907C0F012161306E407F50735
:1057900098F0621B730B840B950B39F40A2661F0A9
:1057A000232B242B252B21F408950A2609F4A1404C
:1057B000A6958FEF811D811D08950E94F02B0C94FA
:1057C000612C0E94532C38F00E945A2C20F0952313
:1057D00011F00C944A2C0C94502C11240C94952C00
:1057E0000E94722C70F3959FC1F3950F50E0551FE6
:1057F000629FF001729FBB27F00DB11D639FAA2726
:10580000F00DB11DAA1F649F6627B00DA11D661F74
:10581000829F2227B00DA11D621F739FB00DA11D95
:10582000621F839FA00D611D221F749F3327A00D4F
:10583000611D231F849F600D211D822F762F6A2FEB
:1058400011249F5750409AF0F1F088234AF0EE0F50
:10585000FF1FBB1F661F771F881F91505040A9F77D
:105860009E3F510580F00C944A2C0C94952C5F3F80
:10587000E4F3983ED4F3869577956795B795F795B9
:10588000E7959F5FC1F7FE2B880F911D9695879531
:1058900097F9089597F99F6780E870E060E00895B0
:1058A0009FEF80EC089500240A9416161706180638
:1058B0000906089500240A94121613061406050614
:1058C0000895092E0394000C11F4882352F0BB0FA5
:1058D00040F4BF2B11F460FF04C06F5F7F4F8F4F08
:1058E0009F4F089557FD9058440F551F59F05F3F43
:1058F00071F04795880F97FB991F61F09F3F79F0F2
:1059000087950895121613061406551FF2CF469573
:10591000F1DF08C0161617061806991FF1CF8695F5
:105920007105610508940895E894BB2766277727D9
:10593000CB0197F90895F999FECF92BD81BDF89AF0
:10594000992780B50895262FF999FECF1FBA92BDE9
:1059500081BD20BD0FB6F894FA9AF99A0FBE019650
:105960000895DB018F939F930E94E32CBF91AF9129
:10597000A29F800D911DA39F900DB29F900D1124A9
:105980000895A1E21A2EAA1BBB1BFD010DC0AA1F80
:10599000BB1FEE1FFF1FA217B307E407F50720F098
:1059A000A21BB30BE40BF50B661F771F881F991F13
:1059B0001A9469F760957095809590959B01AC015C
:1059C000BD01CF0108950E94EE2CA59F900DB49FBC
:1059D000900DA49F800D911D11240895A29FB001E8
:1059E000B39FC001A39F700D811D1124911DB29F13
:1059F000700D811D1124911D0895AA1BBB1B51E13F
:105A000007C0AA1FBB1FA617B70710F0A61BB70B2E
:105A1000881F991F5A95A9F780959095BC01CD01D3
:105A200008950E94EE2CB7FF0895821B930B0895F2
:105A3000EE0FFF1F0590F491E02D09945058BB27FD
:105A4000AA270E94362D0C94612C0E94532C38F00A
:105A50000E945A2C20F039F49F3F19F426F40C943C
:105A6000502C0EF4E095E7FB0C944A2CE92F0E9491
:105A7000722C58F3BA17620773078407950720F052
:105A800079F4A6F50C94942C0EF4E0950B2EBA2F15
:105A9000A02D0B01B90190010C01CA01A001112434
:105AA000FF27591B99F0593F50F4503E68F11A16E0
:105AB000F040A22F232F342F4427585FF3CF469571
:105AC00037952795A795F0405395C9F77EF41F1693
:105AD000BA0B620B730B840BBAF09150A1F0FF0F5D
