:100000000C94DA020C94EF1E0C94C81E0C9402039C
:100010000C9402030C9402030C9402030C9402034C
:100020000C9402030C94851F0C9402030C9445203D
:100030000C94B31F0C946E1F0C9402030C940203D7
:100040000C947E1E0C9402030C943C1F0C94161FFF
:100050000C9402030C9402030C9402030C9402030C
:100060000C9402030C94020308000000BE92244981
:10007000123EABAAAA2ABECDCCCC4C3E00000080DA
:10008000BEABAAAAAA3E00000000BF000000803F4D
:100090000000000000084178D3BB4387D1133D190D
:1000A0000E3CC3BD4282AD2B3E68EC8276BED98F3A
:1000B000E1A93E4C80EFFFBE01C4FF7F3F0000007E
:1000C00000006E616E00696E660000407A10F35A9F
:1000D00000A0724E18090010A5D4E80000E8764888
:1000E000170000E40B54020000CA9A3B000000E134
:1000F000F505000080969800000040420F000000C7
:10010000A08601000000102700000000E8030000A6
:1001100000006400000000000A0000000000010070
:10012000000000002C76D888DC674F0823DFC1DF91
:10013000AE59E1B1B796E5E3E453C63AE651997694
:1001400096E8E6C28426EB898C9B62ED407C6FFCCE
:10015000EFBC9C9F40F2BAA56FA5F490055A2AF710
:100160005C936B6CF9676DC11BFCE0E40D47FEF519
:1001700020E6B500D0ED902E030094357705008081
:10018000841E080000204E0A000000C80C333333E0
:10019000330F986E12831141EF8D2114893BE65580
:1001A00016CFFEE6DB18D1844B381BF77C1D901D63
:1001B000A4BBE424203284725E228100C9F124ECC5
:1001C000A1E53D272B52454D3D00253032782530A5
:1001D0003278002B52454D3D63756269635F696EED
:1001E000742C25752C693263743D253032782530A6
:1001F0003278002B52454D3D6368616E6E656C3DF3
:1002000025752C6D617874696D653D256C750A00E6
:100210002B52454D3D6C6576656C3D25642C7265B1
:1002200073756C743D25642C74696D653D25750A84
:10023000000A2B52454D3D0025303278005B2530B9
:1002400032785D002B52454D3D002B52454D3D63AC
:10025000683D25752C6C3D25752F25750A004E6F60
:10026000206368616E6E656C732061637469766586
:100270000025753D25752825752920002B52454DF3
:100280003D002B52454D3D7469636B733D25640AF7
:10029000002B52454D3D7469636B733D25640A0024
:1002A0002B52454D3D66726571002B52454D3D7A8E
:1002B000633D25752C3078253034780A002B524563
:1002C0004D3D7A633D25752C3078253034780A0011
:1002D0002B52454D3D7A633D25752C3078253034C1
:1002E000780A0025303278002B52454D3D76253076
:1002F00034782C693263743D253032782530327879
:100300000041546D65676133323850002C6D696E61
:100310002E6F6E2D74696D653D25752C6D696E2E81
:100320006F66663D25752C5A433D25750A00252EBE
:100330003366002C5643433D006D61782E74656D25
:10034000703D25752C6D6574726963733D2575006C
:10035000696E742E74656D703D25642F6F66733DF4
:1003600025752F6761696E3D25752C004E54433D00
:10037000252E32662F252B2E32662C0076616C7569
:1003800065733D726573746F72653D25752C663DAE
:10039000252E3366487A2C7672656631313D252EDE
:1003A00033662C0072616E67653D25642D25640AF5
:1003B0000063756269633D25752C0074696D657213
:1003C000313D25752F252E32662C6C766C733D38A9
:1003D0003139322C70696E733D00616464723D2561
:1003E0003032782C6D6F64653D25632C0070726F20
:1003F000746F3D554152542C00666164696E675FAD
:100400006576656E74733D312C005643432C00694C
:100410006E742E74656D702C004E54433D412575ED
:100420002C006F7074696F6E733D454550524F4D8F
:100430003D256C752C0040384D687A2C6763633D10
:10044000372E332E30002C4D43553D007369673DE8
:10045000253032782D253032782D253032782C66B3
:10046000757365733D6C3A253032782C683A2530C7
:1004700032782C653A25303278004D4F534645543A
:100480002044696D6D657220322E322E3320446512
:100490006320203620323032322031343A30383A3C
:1004A000313420417574686F7220736173636861C1
:1004B0005F6C616D6D65727340676D782E64650069
:1004C000454550524F4D522C633D256C752C703D67
:1004D00025752C6E3D256C752C6372633D2530347B
:1004E000780A00424F4F540000000000240027000B
:1004F0002A0000000000250028002B00040404044A
:1005000004040404020202020202030303030303BD
:10051000010204081020408001020408102001029A
:100520000408102000000008000201000003040776
:10053000000000000000000064697361626C656483
:10054000005D2C6C3D5B005D2C793D5B00783D5B74
:10055000002B52454D3D636825643D002B52454DAF
:100560003D454550524F4D572C633D256C752C70C1
:100570003D25752C6E3D256C752C773D25752C66BB
:100580003D25752C6372633D253034782C63666796
:100590003D25750A002B49324325633D002B52450A
:1005A0004D3D454550524F4D522C696E69740000C7
:1005B0008220702011241FBECFEFD8E0DEBFCDBF58
:1005C00023E0A0E7B1E001C01D92A831B207E1F736
:1005D00011E0A0E0B1E0EEE9F1E602C005900D9275
:1005E000A037B107D9F712E0C9EDD2E004C02197D6
:1005F000FE010E94D52CC83DD107C9F70E943E21BB
:100600000C94C2300C940000BC01655D7F4F2FEF4D
:100610003FEF86179707D9F0FC014191CF012427BE
:10062000422F42954227042E469546954025042E9A
:10063000469540254770022E232F469507944795EF
:10064000302D24270694479530252427E2CFC90171
:10065000089520E1DC011D922A95E9F7FC016091E3
:10066000D7027091D8024091D9025091DA0280E00D
:100670009091DB02891778F4282F30E0DB01A20F7C
:10068000B31F9C919083240F351FD9019C919183B6
:1006900032968F5FEDCF089586EA92E00E940403C0
:1006A0009093A5028093A4020895E1E3F2E08FE421
:1006B000DF011D928A95E9F78FEF9FEF909330024B
:1006C00080932F028BE480934C0280914B028160D7
:1006D00080934B0280E090E0A0E9B0E480934D026B
:1006E00090934E02A0934F02B09350028EE690E09A
:1006F00090935202809351028CE291E090935402C5
:1007000080935302909356028093550207B600FCE3
:10071000FDCF87B7816287BFE5E0F0E0849107B63F
:1007200000FCFDCF97B7916297BFE7E0F0E0E4915E
:10073000E0935C0280935D0285E080935F0280E03D
:1007400090E0A0ECBFE78093670290936802A093CB
:100750006902B0936A0220E030E830936C02209383
:100760006B028093630290936402A0936502B0933E
:10077000660285E1EBE4F2E0AAEAB2E001900D92B4
:100780008A95E1F7E1ECF2E080E1DF011D928A95C4
:10079000E9F708952CE73CE740E052E40E949A2BE9
:1007A00020E030E040E05FE30E94DC2C0E94BA2DA4
:1007B000CB0177FF02C090E080E0811520E2920734
:1007C00014F08FEF9FE108952F923F924F925F9226
:1007D0006F927F928F929F92AF92BF92CF92DF9251
:1007E000EF92FF920F931F93CF93DF93EB011A01C8
:1007F000FC01A080B1808A010F5F1F4FF501E00F5F
:10080000F11F608170E090E080E00E94392B6B0165
:100810007C01F1E02F1A3108F501E20DF31D608132
:1008200070E090E080E00E94392B4B015C01AC014C
:100830009B01C701B6010E94342B8823E9F109907E
:10084000D881C02DFE01E00FF11F608170E090E0C3
:1008500080E00E94392B2B013C01C20DD31D688121
:1008600070E090E080E00E94392B9B01AC01C30155
:10087000B2010E94DB2C2B013C01A5019401C701B0
:10088000B6010E94DB2C9B01AC01C301B2010E94A6
:10089000482DDF91CF911F910F91FF90EF90DF9046
:1008A000CF90BF90AF909F908F907F906F905F9010
:1008B0004F903F902F90089560E070E0CB01E9CF1A
:1008C0002F923F924F925F926F927F928F929F9260
:1008D000AF92BF92CF92DF92EF92FF920F931F934E
:1008E000CF93DF93CDB7DEB7E0970FB6F894DEBFB6
:1008F0000FBECDBF9AA389A37CA36BA35EA34DA318
:1009000068017901FC010190F081E02DF8ABEFA7BF
:10091000608170E090E080E00E94392B6D877E87D7
:100920008F87988BEBA1FCA120803180A7019801D3
:100930000E94F02D87FD28C0F101608170E090E0F9
:1009400080E00E94392B69837A838B839C83698141
:100950007A818B819C81E0960FB6F894DEBF0FBE42
:10096000CDBFDF91CF911F910F91FF90EF90DF905E
:10097000CF90BF90AF909F908F907F906F905F903F
:100980004F903F902F9008958DA19EA101979A8B33
:10099000898BFC018FA598A9E80FF91F608170E091
:1009A00090E080E00E94392B6B8B7C8B8D8B9E8B33
:1009B0009B01AC01C701B8010E94F02D87FD05C065
:1009C000E989FA892E0E3F1EB7CF6FA478A8FFEFF2
:1009D0006F1A7F0A10E000E0C8010196988F8F8B94
:1009E000F30161913F0170E090E080E00E94392BBB
:1009F0004B015C01AC019B01C701B6010E94F02DC7
:100A000087FF44C1EF89F88DE20DF31D608170E02E
:100A100090E080E00E94392B69837A838B839C83EA
:100A2000A5019401C701B6010E94342B882309F463
:100A30008ECFEFA5F8A9E00FF11F608170E090E084
:100A400080E00E94392B698F7A8F8B8F9C8F9B015E
:100A5000AC01C501B4010E94DB2C6D8F7E8F8F8F9E
:100A600098A3298D3A8D4B8D5C8DC701B6010E94EC
:100A7000DB2C2D8D3E8D4F8D58A10E94482D4B01B2
:100A80005C01AC019B010E949A2B2B013C01AC0143
:100A90009B01C501B4010E949A2B6B017C01AC0142
:100AA0009B010E94DC2C6D837E838F83988720E0DE
:100AB00030E040E450E4C301B2010E949A2B698700
:100AC0007A878B879C879B01AC016D817E818F81AA
:100AD00098850E94DB2C20E030E040E85FE30E9434
:100AE000DC2C6FA378A789A79AA7A3019201C30161
:100AF000B2010E94DC2C9B01AC01C701B6010E942F
:100B0000DB2CA50194010E94DC2C6BA77CA78DA790
:100B10009EA72D813E814F81588569857A858B8579
:100B20009C850E94DB2C6D837E838F839887A30135
:100B30009201C701B6010E94DB2C69877A878B87F7
:100B40009C87F101E00FF11F608170E090E080E090
:100B50000E94392B2B013C010115110509F099C0A8
:100B6000F101608170E090E080E00E94392B6B0120
:100B70007C01F101618170E090E080E00E94392BFE
:100B8000A70196010E94DB2C4B015C01EFA5F8A99F
:100B9000618170E090E080E00E94392B2D853E85D8
:100BA0004F8558890E94DB2C9B01AC01C501B40123
:100BB0000E94482D4B015C01F101628170E090E0E0
:100BC00080E00E94392BA70196010E94DB2C6B016B
:100BD0007C01EFA5F8A9628170E090E080E00E94BE
:100BE000392B2D853E854F8558890E94DB2C9B0132
:100BF000AC01C701B6010E94482D6B017C01A30125
:100C000092016FA178A589A59AA50E949A2B2B0124
:100C10003C0129813A814B815C816D817E818F818C
:100C200098850E949A2B9B01AC01C301B2010E94DE
:100C3000DC2C2B013C012BA53CA54DA55EA56D8DA3
:100C40007E8D8F8D98A10E949A2BA50194010E9400
:100C50009A2B9B01AC01C301B2010E94DC2C4B0119
:100C60005C0129853A854B855C856D8D7E8D8F8DE8
:100C700098A10E949A2BA70196010E949A2B9B0192
:100C8000AC01C501B4010E94DC2C5DCE0F89188D2A
:100C9000A3CE8DA19EA102970817190709F04DC098
:100CA000E989FA89E20DF31D608170E090E080E04F
:100CB0000E94392B6B017C010DA11EA1035011096B
:100CC000F101E00FF11F608170E090E080E00E9490
:100CD000392B9B01AC01C701B6010E94DB2C4B01F3
:100CE0005C018FA598A9800F911FFC01608170E0C5
:100CF00090E080E00E94392B9B01AC016B897C89DC
:100D00008D899E890E94DB2C9B01AC01C501B40139
:100D10000E94482D4B015C01A3019201C701B6015D
:100D20000E94DB2C6B017C01298D3A8D4B8D5C8DF3
:100D30006B897C898D899E8958CFA8016BA17CA184
:100D400089A19AA10E94E4034B015C014F89588D4F
:100D50006BA17CA189A19AA10E94E4034ECFCF92FE
:100D6000DF92EF92FF920F931F93CF93DF9300D008
:100D700000D0CDB7DEB71091DB02112309F440C0DB
:100D8000BC0190E080E00E94392B2CE73CE740E07A
:100D900052E40E94482D6B017C0120E030E04FE7D7
:100DA00053E40E94342B87FD06C0C12CD12C8FE761
:100DB000E82E83E4F82E8091D9029091DA029A838A
:100DC00089838091D7029091D8029C838B83412F95
:100DD00050E097018601BE016F5F7F4FCE01039601
:100DE0000E9460040F900F900F900F90DF91CF91B1
:100DF0001F910F91FF90EF90DF90CF900C94CA035A
:100E00000F900F900F900F90DF91CF911F910F9146
:100E1000FF90EF90DF90CF900895EF92FF920F93A5
:100E20001F93CF93DF93C0919A02D0919B02E091E0
:100E3000A002F091A10200851185E284F384DE0115
:100E4000A01BB10BAE19BF09468557854115510549
:100E500001F59D01DC010E94CE2C2DE09695879531
:100E6000779567952A95D1F79B01200F311FCE0109
:100E70008E199F098217930728F0C80102171307DC
:100E800008F4C901DF91CF911F910F91FF90EF906E
:100E9000089524853585280F391F0E94AB2C9A01AF
:100EA00050E040E00E947E2CE0CFEAE2F5E0849141
:100EB000E6E1F5E09491E2E0F5E0E491EE23B9F0AB
:100EC000882339F08330F1F098F4813009F18230D1
:100ED00019F1F0E0EE0FFF1FEE50FB4FA591B4911A
:100EE0008FB7F894EC9190959E239C938FBF0895B3
:100EF0008730A9F08830C9F0843059F7809180009C
:100F00008F7D03C0809180008F7780938000E1CF38
:100F100084B58F7784BDDDCF84B58F7DFBCF809185
:100F2000B0008F778093B000D4CF8091B0008F7DD8
:100F3000F9CF0895CF93DF9390E0FC01E05FFA4F83
:100F4000249184509B4FFC0184918823D1F090E040
:100F5000880F991FFC01E851FB4FA591B491FC014A
:100F6000EE50FB4FC591D49161110EC09FB7F8941C
:100F70008C91E22FE0958E238C932881E223E883E5
:100F80009FBFDF91CF9108958FB7F894EC91E22B3A
:100F9000EC938FBFF6CFCF92DF92EF92FF92CF9379
:100FA000DF931F92CDB7DEB7C0906302D09064028A
:100FB000E0906502F090660220E030E0A901C701F0
:100FC000B6010E94342B882341F1A7019601C70185
:100FD000B6010E94452E811120C0198210922E0266
:100FE000F894E99889E997E09093030180930201CE
:100FF00080916F00887D80936F00109281000E9425
:10100000550760E086E00E949A07809170008E7F0D
:10101000809370001092B10078940F90DF91CF917F
:10102000FF90EF90DF90CF9008953FB7F8948091B4
:101030007B0190917C01A0917D01B0917E0126B54C
:10104000A89B05C02F3F19F00196A11DB11D3FBF00
:10105000BA2FA92F982F8827BC01CD01620F711DCF
:10106000811D911D43E0660F771F881F991F4A95C8
:10107000D1F708958F929F92AF92BF92CF92DF9255
:10108000EF92FF924B015C010E9415086B017C01FD
:101090000E9415086C197D098E099F09683E7340EE
:1010A00081059105A8F321E0821A9108A108B108F1
:1010B00088EEC80E83E0D81EE11CF11C8114910457
:1010C000A104B10429F7FF90EF90DF90CF90BF907B
:1010D000AF909F908F9008952FB7F894609177010B
:1010E000709178018091790190917A012FBF0895D4
:1010F0008F929F92AF92BF92CF92DF92EF92FF9228
:101100000E946C086B017C0180912E0280FD2FC033
:101110008090D3029090D402A090D502B090D602D5
:101120009FB7F89480912E02816080932E029FBF1A
:101130000E946C08C818D908EA08FB0829E8C216FA
:1011400023E1D206E104F104DCF438E8C32E33E1F4
:10115000D32EE12CF12CC60ED71EE81EF91EC0922C
:10116000D302D092D402E092D502F092D602FF9040
:10117000EF90DF90CF90BF90AF909F908F900895A9
:1011800024EFC22EDD24D394E12CF12CE4CFAF92D6
:10119000BF92CF92DF92EF92FF920F931F93CF9364
:1011A000DF936C017B018B01040F151FEB015E01C6
:1011B000AE18BF08C017D10759F06991D601ED915B
:1011C000FC910190F081E02DC6010995892B79F7FA
:1011D000C501DF91CF911F910F91FF90EF90DF90AC
:1011E000CF90BF90AF900895FC01538D448D252F73
:1011F00030E0842F90E0821B930B541710F0CF96B1
:10120000089501970895FC01918D828D981761F0E2
:10121000A28DAE0FBF2FB11D5D968C91928D9F5FF9
:101220009F73928F90E008958FEF9FEF0895FC01D8
:10123000918D828D981731F0828DE80FF11D858D8B
:1012400090E008958FEF9FEF0895FC01918D228D1E
:10125000892F90E0805C9F4F821B91098F739927A3
:10126000089587E891E00E94250921E0892B09F47F
:1012700020E0822F0895FC01A48DA80FB92FB11D85
:10128000A35ABF4F2C91848D90E001968F739927BC
:10129000848FA689B7892C93A089B1898C9183709A
:1012A00080648C93938D848D981306C00288F38993
:1012B000E02D80818F7D80830895EF92FF920F93C0
:1012C0001F93CF93DF93EC0181E0888F9B8D8C8DF2
:1012D00098131AC0E889F989808185FF15C09FB7E6
:1012E000F894EE89FF896083E889F98980818370A9
:1012F000806480839FBF81E090E0DF91CF911F9158
:101300000F91FF90EF900895F62E0B8D10E00F5F78
:101310001F4F0F731127E02E8C8D8E110CC00FB64E
:1013200007FCFACFE889F989808185FFF5CFCE01E6
:101330000E943B09F1CFEB8DEC0FFD2FF11DE35A1D
:10134000FF4FF0829FB7F8940B8FEA89FB89808169
:101350008062CFCF0F931F93CF93DF938C01D0E0A8
:10136000C0E0F801EC0FFD1F6491662341F087E8AF
:1013700091E00E945D09892B11F02196F2CFCE01F8
:10138000DF91CF911F910F910895682F87E891E029
:101390000C945D09CF93DF93EC01888D8823B9F01D
:1013A000AA89BB89E889F9898C9185FD03C0808170
:1013B00086FD0DC00FB607FCF7CF8C9185FFF2CFED
:1013C000808185FFEDCFCE010E943B09E9CFDF91FF
:1013D000CF910895DC01ED91FC910190F081E02D19
:1013E0006A3010F4605D0994695AFDCFDC01ED911B
:1013F000FC910190F081E02D6AE00994DC015E9699
:101400008D919C915F975C962D913C915D97821791
:10141000930740F45A96ED91FC91E80FF91F8081F3
:1014200090E008958FEF9FEF0895FC01848D958DD6
:10143000268D378D821B930B0895EF92FF920F93A9
:101440001F93CF938C01C62F70E084E0759567954C
:101450008A95E1F7F80184A995A90E94EA097C011F
:101460006C2F6F70F80184A995A90E94EA098E0D6E
:101470009F1DCF911F910F91FF90EF900895FC0158
:1014800024813581828193812817390768F480810E
:101490009181A9014F5F5F4F55834483FC01E20FA7
:1014A000F31F808190E008958FEF9FEF08954A9693
:1014B0000C943F0A089590E080E0089580917A00AE
:1014C000806480937A0080917A0086FDFCCF8091C1
:1014D00078009091790008951F93CF93DF930E9435
:1014E0005E0AEC01CF3F83E0D80710F0CFEFD3E0E6
:1014F00018E0115059F061E070E080E090E00E9447
:101500003A080E945E0AC80FD91FF3CFCE0123E02C
:10151000880F991F2A95E1F7DF91CF911F910895C8
:10152000CF92DF92EF92FF92CF93DF93CFE2D2E0A0
:101530004CA52EEE3CE742036001439FD00C1124E2
:101540000D2C000CEE08FF0880E7C81A8EEFD80AB1
:1015500083EBE80A8BEFF80A8EE480937C0064E169
:1015600070E080E090E00E943A080E946C0A9C01C2
:1015700050E040E0C701B6010E947E2C3FAF2EAF85
:10158000C901DF91CF91FF90EF90DF90CF90089548
:1015900088EC80937C0064E170E080E090E00E9441
:1015A0003A080E946C0AEFE2F2E025A530E02557E8
:1015B0003F4F46E0969587954A95E1F7820F931F36
:1015C0009695982F88279795879566A570E00E9435
:1015D000BA2CCB01499608952F923F924F925F9279
:1015E0006F928F929F92AF92BF92CF92DF92EF92C3
:1015F000FF920F931F93CF93DF93C0908400D090FE
:101600008500B09B0EC02FEFC216D20651F080911C
:10161000720190917301019690937301809372010E
:10162000B09AC0917401D09175018091720190912E
:101630007301EE81FF819F012F5F3F4F3F832E8318
:10164000F7FF12C0DF91CF911F910F91FF90EF90A4
:10165000DF90CF90BF90AF909F908F906F905F90F2
:101660004F903F902F900895AF01440F551FE40F06
:10167000F51FEC0FFD1FA0E0A82F99278827E12C6C
:101680008C299D29AE2982879387A487203831052C
:10169000C9F6E99889E997E09093030180930201E4
:1016A000188219821A821B828E819F811C0131E06F
:1016B000231A31083F822E82813491051CF28E015B
:1016C000065F1F4FF80150E040E020E0812C912C94
:1016D000540142155305FCF44F5F5F4FC190D19008
:1016E000E19080819181A2818C199D09AE096C01E4
:1016F000EA2E34E0C31A3CEFD30AE10832E8C316FD
:1017000039E4D306E10428F7B0E0880E991EAA1E3A
:10171000BB1E2F5FDECF213408F494CF30E050E0C1
:1017200040E0C501B4010E947E2C49015A01842F7A
:10173000B90190E00E94392B2AE037ED43EA5CE3DF
:101740000E949A2B0E94C12D9B0140E024016A2C2B
:10175000421A530A640A280D391D4A1D70E060E0E0
:10176000F12C812C912C540162157305E4F46F5F08
:101770007F4FF801C190D190E1908F0180819181DC
:10178000A2818C199D09AE0984159505A60560F303
:10179000281739074A0740F3B0E0880E991EAA1EA1
:1017A000BB1EF394E1CFF0E4FF1508F04BCFC50169
:1017B000B4010E94392B4B015C016F2D70E090E069
:1017C00080E00E94392B9B01AC01C501B4010E944D
:1017D000482D20E030E040E05EE30E949A2B9B0120
:1017E000AC0160E074E284EF98E40E94482D6883C5
:1017F00079838A839B8326CFFC01862F20813181C8
:10180000A90141505109518340831216130624F453
:1018100086EF92E00E943F0A089520913902420F1C
:101820004093390202970CF060ED60937F020895B7
:1018300097FF02C090E080E0813020E2920714F030
:1018400080E090E20895882311F05E9A08955E98F2
:10185000089584EC91E00C94AA09AF92BF92DF92B4
:10186000EF92FF920F931F93CF93DF935C0104EAF3
:1018700012E0D0E0C0E0F801D1908F017501EC0ECC
:10188000FD1EC7010E94582CD81621F06D2DC701EE
:101890000E94602C2196CD32D10569F784EA92E04E
:1018A000DF91CF911F910F91FF90EF90DF90BF904C
:1018B000AF900895CF92DF92EF92FF920F931F9314
:1018C000CF93DF93EB017B012DE2E20EF11C8B0144
:1018D0006C01C61AD70AC601800F911F0E94582CAE
:1018E000F80181938F01EE15FF05A9F7CE01DF9175
:1018F000CF911F910F91FF90EF90DF90CF900895BF
:101900006F927F928F929F92AF92BF92CF92DF920F
:10191000EF92FF920F931F93CF93DF93CDB7DEB774
:10192000C054D1090FB6F894DEBF0FBECDBF6C0115
:101930005B014A019A01AB0160E470E0CE010196BF
:101940003C01F60109957C018F3391057CF10296EB
:101950000E947F2E8C01009759F19401A501B701D7
:10196000F60109957C01A701B80187E891E00E9482
:10197000C7086016710619F0C8010E941B2FC70125
:10198000C05CDF4F0FB6F894DEBF0FBECDBFDF9156
:10199000CF911F910F91FF90EF90DF90CF90BF906C
:1019A000AF909F908F907F906F9008958301DBCFD1
:1019B000E12CF12CE4CFF894E99889E997E0909331
:1019C000030180930201EFE6F0E08081887D80834F
:1019D0001092810080917401909175010E941B2FDB
:1019E000109275011092740178940895CF92DF924D
:1019F000EF92FF92CF93DF93C0917401D091750164
:101A0000209709F056C00E94CB0764E670E080E0A2
:101A100090E00E943A088AE891E00E947F2EEC0153
:101A200080E090E0A0ECBFE788839983AA83BB8322
:101A30001D821C828BEF9FEF9F838E830E946C0818
:101A400079876887FE013A96CE0186579E4F11929C
:101A500011921192E817F907D1F7D0937501C0934D
:101A60007401CD2B41F480E0DF91CF91FF90EF9096
:101A7000DF90CF900895F8948CEE9AE09093030154
:101A800080930201809169008C6080936900E99ADB
:101A900010928500109284001092800081E0809363
:101AA000810080916F00816080936F00B09A78947C
:101AB000DACFC880D980EA80FB80A7019601C701F0
:101AC000B6010E94452E81111BC020E030E0A90123
:101AD000C701B6010E94342B811106C0C12CD12C44
:101AE00080ECE82E8FE7F82EC0926302D092640259
:101AF000E0926502F09266020E94DB0C81E0B4CFB6
:101B00000E946C0828853985621B730B603D774005
:101B100008F4A9CF80E090E0A0ECBFE780936302D7
:101B200090936402A0936502B0936602E5CFCF93D1
:101B3000DF93EC0188819981009731F00E941B2F7F
:101B4000198218821B821A821C82DF91CF9108951C
:101B5000CF92DF92EF92FF921F93CF93DF93EC012E
:101B6000FC013296888111E09081891728F4329621
:101B70001F5F892F1830C1F787ED92E00E94970D03
:101B80001130F1F01093DB02C12ED12C7601EE0C56
:101B9000FF1CC7010E947F2E21E0E21AF108FC0120
:101BA000119221E0E21AF108F7FEFACF9093D802E1
:101BB0008093D7028C0D9D1D9093DA028093D902F9
:101BC0008091D7029091D802892BD1F090E080E0EB
:101BD0002091DB02821780F429813881A091D702FD
:101BE000B091D802A80FB91F3C93A091D902B0912F
:101BF000DA02A80FB91F2C9322960196811740F3A1
:101C0000DF91CF911F91FF90EF90DF90CF900895DB
:101C1000CF93DF93CDB7DEB7AE01475F5F4F6F81E4
:101C2000788587EA9AE20E94800CDF91CF9108952F
:101C3000CF93DF93CDB7DEB7AE01475F5F4F6F81C4
:101C4000788586E990E30E94800CDF91CF9108951A
:101C5000CF93DF93EC0188819981009721F00E9456
:101C60001B2F198218821F821E821B821A821D82DC
:101C70001C82DF91CF910895CF93DF9300D000D0E5
:101C800000D0CDB7DEB7F894E091A202F091A302A4
:101C900084859585909381028093800278948091C9
:101CA0004B02309180022091810284FF53C0832F28
:101CB000922F0E94AF06811520E292070CF04DC0D2
:101CC000181619060CF04CC00E940D07E091A002F6
:101CD000F091A102208121FF08C020919A02309149
:101CE0009B02A901481B590BCA019B838A83198255
:101CF00021E081E0082E000C990BFC01EE0FFF1F84
:101D0000E80FF91F81E090E08C0F9D1FE80FF91F8D
:101D1000108211821282F89480919C02821739F00D
:101D200020939C0280912E02806180932E0286E097
:101D3000FE013196A4E9B2E001900D928A95E1F797
:101D4000789426960FB6F894DEBF0FBECDBFDF9114
:101D5000CF910895832F922FAECF21E080E0CACF9C
:101D600020E0FCCFCF93C82FCB010E94180CE0914C
:101D7000A202F091A3022C2FCC0F330BA9014A5FD2
:101D80005F4F440F551FE40FF51F918380838CE054
:101D9000829FF001839FF00D1124E058FD4F1386C0
:101DA0001286220F331FF901E256FD4F8081918187
:101DB0000196C9F08091A2029091A302480F591F89
:101DC000DA018D919C91918380839FB7F8948091E3
:101DD0002E02806280932E0225E33CE030932502A0
:101DE000209324029FBFCF910C943C0E2F923F92E0
:101DF0004F925F926F927F928F929F92AF92BF921B
:101E0000CF92DF92EF92FF920F931F93CF93DF93C6
:101E1000782E7A0118012901C82F880FDD0BFE01E9
:101E2000EE0FFF1FE256FD4F8FEF9FEF91838083F0
:101E30002FB7F894FE01EE0FFF1FE058FD4F808191
:101E400091812FBF2FEFE216F20609F045C02CE07A
:101E5000D22EDC9E8001DD9E100D112400581D4FF6
:101E6000F80122853385232B09F4C0C021E030E03E
:101E70003387228716821782108611860E94180CDB
:101E80007C01BC01990F880B990B0E943B2BF80138
:101E900062837383848395832196DC9EF001DD9EAB
:101EA000F00D1124E058FD4FF182E082B701872D3B
:101EB000DF91CF911F910F91FF90EF90DF90CF9026
:101EC000BF90AF909F908F907F906F905F904F905A
:101ED0003F902F900C94B20E6F3F760709F0CB0124
:101EE0000E94180C6C01C7010E94180C8C199D09E6
:101EF000BC01990F880B990B0E943B2B4B015C0195
:101F000020E030E0A9010E94342B882379F220E000
:101F100030E040E059E3C501B4010E949A2BA201D0
:101F200091010E949A2B1B012C0120E030E0A901B5
:101F30000E94F02D181624F057FA509457F8509438
:101F400020916302309164024091650250916602D3
:101F5000C201B1010E949A2B9B01AC010E94DC2CB2
:101F60000E94C12D8CE0682E6C9E80016D9E100D2C
:101F7000112400581D4FF8017387628761157105A0
:101F800009F494CF90E080E00E94392B9B01AC01D2
:101F9000C501B4010E94482D4B015C01F801868205
:101FA0009782A086B186B601DD0C880B990B0E9442
:101FB0003B2BF801628373838483958321966C9E07
:101FC000F0016D9EF00D1124E058FD4FF182E0828A
:101FD00020E030E0A901C501B4010E94342B811139
:101FE00005C081E090E0F80193878287DF91CF916F
:101FF0001F910F91FF90EF90DF90CF90BF90AF9027
:102000009F908F907F906F905F904F903F902F9018
:1020100008950F931F93CF93DF938091B200B89BE5
:102020000DC08091B2008F3F49F080917001909176
:102030007101019690937101809370011092B2002A
:10204000B89A809170019091710110927101109273
:10205000700180916F00846080936F0080915102C5
:102060009091520290938B0080938A00809184001B
:102070009091850020918A0030918B00820F931FF0
:1020800090938B0080938A00B29A7894C0918A02D0
:10209000D0918B02209709F444C0209186023091A0
:1020A000870240918802509189026091820270916A
:1020B000830280918402909185020E94DC2C6093BF
:1020C0008202709383028093840290938502219709
:1020D000D0938B02C0938A020091A2021091A302B6
:1020E000CD2B29F580918C0290918D02F801958776
:1020F0008487E091A202F091A30284859585909354
:102100009F0280939E029FB7F89480912E02806276
:1021100080932E0225E33CE0309325022093240295
:102120009FBFDF91CF911F910F910C943C0E0E94A5
:10213000BA2DF80175876487F4CF0F931F93CF935F
:10214000DF938C01CB01F80124813581C281D381D9
:10215000C21BD30B4C175D0708F4EA01F80160813C
:102160007181620F731F0E947A30F801848195811A
:102170008C0F9D1F95838483CE01DF91CF911F919A
:102180000F910895FB0101900020E9F73197AF010D
:10219000461B570BDC01ED91FC910280F381E02D91
:1021A000099465E371E087E891E00C94C210CF9345
:1021B000DF930E94AA09EC010E94D1108C0F9D1F91
:1021C000DF91CF9108957F928F929F92AF92BF92AD
:1021D000CF92DF92EF92FF920F931F93CF93DF93F3
:1021E00000D000D000D0CDB7DEB78FEF9FEF9A833D
:1021F00089831B821C821D821E828DE2E82EF12CB7
:1022000067018DE2C80ED11C9BE0C91694E0D90687
:10221000D9F0DE0111965D0110E000E0F50171904A
:102220005F014701800E911EC4010E94582C781650
:1022300021F0672DC4010E94602C0F5F1F4F0630F4
:10224000110561F77601DCCF1092D2021092D10213
:10225000E4EAF2E08DE2DF011D928A95E9F781E080
:1022600090E0A0E0B0E08093A6029093A702A09334
:10227000A802B093A9020E9455030E944C0390E06B
:1022800080E00E942D0C9FB7F89480912E028E7FE3
:1022900080932E0280912E028D7F80932E029FBF0D
:1022A0008DE995E026960FB6F894DEBF0FBECDBF40
:1022B000DF91CF911F910F91FF90EF90DF90CF9022
:1022C000BF90AF909F908F907F900C94D7108F927B
:1022D0009F92AF92BF920F931F93CF93DF93CDB78F
:1022E000DEB7A1970FB6F894DEBF0FBECDBF19A21F
:1022F000423008F44AE08E010F5D1F4F842E912C6E
:10230000B12CA12CA50194010E947E2CE62FB901CD
:10231000CA01EA3004F5E05DD801EE938D01232B6C
:10232000242B252B79F790E080E0109729F0BD0150
:1023300087E891E00E94C210A1960FB6F894DEBF24
:102340000FBECDBFDF91CF911F910F91BF90AF9086
:102350009F908F900895E95CDFCFCF92DF92EF924C
:10236000FF92CF93DF936C01990FEE08FF08F7FE01
:1023700017C08DE20E94C509EC0166277727CB01C3
:102380006C197D098E099F094AE00E9467118C0F24
:102390009D1FDF91CF91FF90EF90DF90CF90089538
:1023A0004AE0C701B601DF91CF91FF90EF90DF9037
:1023B000CF900C9467114F925F926F927F92AF9281
:1023C000BF92CF92DF92EF92FF920F931F93CF9322
:1023D000DF9300D000D0CDB7DEB7D82E1F921F926A
:1023E00081E595E09F938F9387E891E09F938F938A
:1023F0000E94080EA090DB020F900F900F900F909C
:102400000F900F90AA2009F4AFC08DE495E00E94D0
:10241000AA09F12CE12CEA14B0F4EE2019F08CE2B8
:102420000E94C509E091D702F091D802EE0DFF1D80
:10243000608170E090E080E04AE00E9467118FEFD9
:10244000E81AF80AE8CF87E495E00E94AA09F12C7F
:10245000E12CEA1498F4EE2019F08CE20E94C509F0
:10246000E091D902F091DA02EE0DFF1D808190E03B
:102470000E94AD118FEFE81AF80AEBCF81E495E0E6
:102480000E94AA096D2D70E090E080E00E943B2B35
:1024900020E030E040E85FE30E94DC2C9B01AC01CF
:1024A00060E078EF8FEF95E40E94482D9B01AC012E
:1024B00060E070E08FE793E40E94482D2B013C011F
:1024C000C12CD12C7601B12C8091D9029091DA02E5
:1024D0009A8389838091D7029091D8029C838B83C1
:1024E00097018601A501BE016F5F7F4FCE01039664
:1024F0000E9460040E94CA030E94AD11A3019201D0
:10250000C701B6010E94DC2C6B017C0126E636E691
:102510004FE753E40E94342B87FD18C08DE50E94DD
:10252000C5090E94D1100F900F900F900F90DF916E
:10253000CF911F910F91FF90EF90DF90CF90BF90C0
:10254000AF907F906F905F904F90089520E030E0C3
:10255000A901C701B6010E94342B882309F4B4CF26
:102560008CE20E94C509B0CF88E395E00E94D710A5
:10257000DACF0F931F93CF93DF93EC010885198572
:102580000617170708F48B01095F1F4F087F8E811C
:102590009F818017910721F188819981011511058B
:1025A00049F1009719F1B8010E94A42F99838883FB
:1025B00088819981892B11F410E000E01F830E833C
:1025C0008A819B810817190710F41B830A838A816B
:1025D0009B812C813D818217930710F49D838C830E
:1025E00081E0DF91CF911F910F910895C8010E9462
:1025F0007F2EDCCF009701F30E941B2F19821882D7
:10260000DDCF1F93CF93DF93EC018A819B819C01E7
:102610002F5F3F4F4E815F818417950750F4E8810B
:10262000F9813B832A83E80FF91F608381E090E002
:102630000CC0162FB901CE010E94B912811109C038
:10264000CE010E94280E90E080E0DF91CF911F9193
:102650000895E881F9818A819B819C012F5F3F4F1A
:102660003B832A83E80FF91F1083E0CFCF93DF93DA
:10267000EC018A89882381F08C8D9D8D8F3F910597
:1026800030F081E08E871D86DF91CF910895CE01D5
:102690004A960E940113F7CF8C858617170689F793
:1026A00081E08A8BF0CFFC0197859D7F913021F4EA
:1026B000CF0184960C94011390E080E00895FC0112
:1026C000158214821382128260857185695F7F4F43
:1026D000687F0C94B9128F929F92AF92BF92DF9253
:1026E000EF92FF920F931F93CF93DF93EC01D62EBF
:1026F000ECA0FDA008A519A5AEA0BFA08CA99DA91E
:10270000DC01ED91FC910680F781E02D0995B2E5A1
:10271000DB1631F0E4E5DE1619F0F1E4DF121DC03E
:102720008CA89DA8DF9285E995E09F938F931F92D7
:1027300088E08F938FE791E09F938F930E94772A91
:102740006FE771E0C4010E94C2108DB79EB7079673
:102750000FB6F8949EBF0FBE8DBF0E0D1F1DEA0C65
:10276000FB1C0E151F0539F0D8016D918D01CE01AE
:102770000E941D0AF6CF8CA99DA90E94F6098CA97A
:102780009DA9DC01ED91FC910680F781E02D099572
:10279000CE0184960E945F131F8680E0DF91CF9167
:1027A0001F910F91FF90EF90DF90BF90AF909F909F
:1027B0008F900895CF938091040390910503209109
:1027C00002033091030382179307D0F4E0910003D2
:1027D000F0910103E80FF91F808190E02091EB0256
:1027E000213089F487FD19C02091E802C7E028173D
:1027F000190651F064E58CED92E0CF910C946B13C7
:102800008FEF9FEFEBCFC8E080E093E00E945F1373
:102810001092EB028C2FCF910895C6E0F5CF1F9355
:10282000CF93DF93162F21E0FC012787EC01A496BC
:10283000CE010E945F13612FCE01DF91CF911F91D6
:102840000C940113EF92FF920F931F93CF93DF939A
:10285000EC018B017A018F858D7F813051F0F12C55
:10286000E12CC701DF91CF911F910F91FF90EF9065
:1028700008956EA17FA1640F751F8AA59BA5681797
:10288000790788F42CA13DA18EA19FA1A701B801D1
:10289000820F931F0E947A308EA19FA18E0D9F1DE3
:1028A0009FA38EA3DECF6F5F7F4FCE0184960E94E1
:1028B000B9128111E7CFD3CFFF920F931F93CF931C
:1028C000DF93CDB7DEB7E5970FB6F894DEBF0FBE46
:1028D000CDBFF82E8E01025D1F4F88E0F8011192E6
:1028E0008A95E9F780912E0281FF10C08DA9816041
:1028F0008DAB85E1EBE4F2E0AAEAB2E001900D9243
:102900008A95E1F781EC92E00E94290380913B02D5
:1029100090913C029093C0028093BF020E944C03AE
:10292000BE016F5F7F4F8091D1029091D2020E94D1
:102930005A0CF1100BC04DE250E0BE016F5F7F4FAB
:1029400084EA92E00E946D30892BC9F08091D10217
:102950009091D2029C01265A3F4F2115344008F035
:10296000A3C08D969093D2028093D1028091D10220
:102970009091D2020E942D0C8DE28CAB01C01CAA5A
:102980000E946C086093D3027093D4028093D502A6
:102990009093D6029FB7F89480912E028E7F8093F9
:1029A0002E0280912E028D7F80932E029FBF8091F8
:1029B000A6029091A702A091A802B091A9028EA7A9
:1029C0009FA7A8ABB9AB8091D1029091D2029BABEB
:1029D0008AAB68E18CED92E00E940F1463EF8CEDFE
:1029E00092E00E94531348E050E0B8018CED92E071
:1029F0000E9422140E94DA13E091D102F091D202D7
:102A00008DA981701F928F938091A5028F938091E1
:102A1000A4028F938DA91F928F938CA91F928F93DD
:102A20002091A6023091A7024091A8025091A902DC
:102A3000A6E1B0E00E94A02C8B019C010651110977
:102A400021093109CF016DE270E00E94BA2C060F16
:102A5000171F211D311D3F932F931F930F93FF933A
:102A6000EF9389A98F9388A98F938FA58F938EA5B4
:102A70008F938CE595E09F938F9387E891E09F93E8
:102A80008F930E94080E0FB6F894DEBF0FBECDBF25
:102A9000E5960FB6F894DEBF0FBECDBFDF91CF91A4
:102AA0001F910F91FF9008951092D2021092D102BF
:102AB0008091A6029091A702A091A802B091A902CC
:102AC0000196A11DB11D8093A6029093A702A09329
:102AD000A802B093A9020E944C0348CF60917F02E4
:102AE0006058770B615D7D4F8091390287FD12C080
:102AF00040E852E0461B570B413560F484170CF454
:102B0000482F10923902042E000C550B8CED92E0E8
:102B10000C94221440E0F5CF462F50E0BC018CED20
:102B200092E00E9422140C94DA13BF92CF92DF92AB
:102B3000EF92FF920F931F93CF93DF93EC01162F29
:102B40008E856A3009F0A3C0823030F08D858330E5
:102B500008F46DC081E08E878E85823008F453C002
:102B60008A89882309F44FC08C8D9D8D009711F4BC
:102B700021E02E872E85223009F47EC0233009F013
:102B800042C0CE014A960E945F138F85882309F4C4
:102B900062C01C858CA99DA9DC01ED91FC91068089
:102BA000F781E02D0995ECA8FDA881E48F9385E9D4
:102BB00095E09F938F931F9288E08F938FE791E02A
:102BC0009F938F930E94772A6FE771E0C7010E945D
:102BD000C210612FCE010E941D0A8CA99DA90E94DE
:102BE000F6098CA99DA9DC01ED91FC910680F78185
:102BF000E02D09952DB73EB7295F3F4F0FB6F894EA
:102C00003EBF0FBE2DBF1E861D868A89882329F0F0
:102C1000CE014A960E945F131A8ADF91CF911F91CD
:102C20000F91FF90EF90DF90CF90BF90089581308B
:102C300009F490CF823009F08FCF1D8A40E150E037
:102C400070E060E0CE0143960E94652870E0CE01FE
:102C50000E94361381CF6C85CE010E940F14E8A923
:102C6000F9A9309721F0188A099581E0888B61E4F1
:102C7000CE010E946B13C7CF188A2E8D3F8DEEA513
:102C8000FFA5821B930B099581E0888BBCCF813017
:102C900021F26D3011F2811179C0ED85E1116DC025
:102CA0006B3209F06DC081E08E0F8D87EC0FFD2F28
:102CB000F11D138BFE01E80FF11D138A8B898B32F6
:102CC00009F0ABCF6E0133E1C30ED11C82E58F93C7
:102CD00085E9E82E85E0F82EFF92EF921F9298E0AA
:102CE000B92EBF920FE711E01F930F930E94772A2E
:102CF000B801C6010E948330ADB7BEB717960FB6B4
:102D0000F894BEBF0FBEADBF892BF1F181E48F9364
:102D1000FF92EF921F92BF921F930F930E94772A08
:102D2000B801C6010E9483302DB73EB7295F3F4FDF
:102D30000FB6F8943EBF0FBE2DBF892B09F46DCF9F
:102D400084E58F93FF92EF921F92BF921F930F9390
:102D50000E94772AB801C6010E948330ADB7BEB782
:102D600017960FB6F894BEBF0FBEADBF892B09F002
:102D700054CF82E08E871D8650CFE63008F493CF83
:102D80001D8681E08E8749CF83E0F4CFE62EF12CBB
:102D9000C7010E946130892B19F1ED8581E08E0F0A
:102DA0008D87EC0FFD2FF11D138B833050F7823090
:102DB00009F033CF1D8A40E150E070E060E0CE01C1
:102DC00043960E94652870E0CE01DF91CF911F915C
:102DD0000F91FF90EF90DF90CF90BF900C9436133F
:102DE0001C3209F41ACFC7010E94282A892B49F204
:102DF00014CFCF93DF93C0911003D0911103E881DA
:102E0000F9810084F185E02DCE010995892B69F0C7
:102E1000E881F9810284F385E02DCE010995682FC0
:102E20008CED92E00E949515EACFDF91CF91089545
:102E30000E94310981110C94F9160895CF92DF9206
:102E4000EF92FF9286E480937C0064E170E080E082
:102E500090E00E943A080E946C0ABC0190E080E079
:102E60000E94392B9B01AC0160E070EC8FE797E486
:102E70000E94482D20E030E040E85FE30E94DB2C18
:102E800023EC35EF48EA5EE30E949A2B0E94FD2D69
:102E900020E030EE46E755E40E94482D2FE03FEC5D
:102EA0004BE55BE30E94DC2C9B01AC0160E070E031
:102EB00080E89FE30E94482D23E333E948E853E488
:102EC0000E94DB2C6B017C0160915E026F3FB1F0D0
:102ED000062E000C770B880B990B0E943B2B20E0F1
:102EE00030E040E85EE30E949A2BA70196010E9421
:102EF000DC2CFF90EF90DF90CF90089560E070E0C1
:102F000080EC9FE7F2CF0F931F93CF93DF930E9444
:102F1000290C8AE794E00E94D71087E891E00E948C
:102F2000CA090E94290C81E230E020E0F901809377
:102F30005700649142E050E0FA0180935700749189
:102F4000E4E0F0E080935700849199E0F9019093D8
:102F500057002491E3E0F0E0909357003491FA0198
:102F60009093570094911F929F931F923F931F92AB
:102F70002F931F928F931F927F931F926F938CE4D6
:102F800094E09F938F93C7E8D1E0DF93CF930E94A3
:102F9000080E86E494E00E94AA0981E093E00E9472
:102FA000AA0986E394E00E94D710CE010E94CA09C4
:102FB0000E94290C2091A6023091A7024091A802FC
:102FC0005091A902A6E1B0E00E94A02C8B019C01C7
:102FD00006511109210931098091D1029091D20243
:102FE0006DE270E00E94BA2C060F171F211D311DE3
:102FF0003F932F931F930F9382E294E09F938F93BD
:10300000DF93CF930E94080E1F9286E08F9389E191
:1030100094E09F938F93DF93CF930E94080E8FE0ED
:1030200094E00E94AA098AE094E00E94AA0989EF2C
:1030300093E00E94AA098DEE93E00E94AA09809174
:103040004B02EDB7FEB77E960FB6F894FEBF0FBEEB
:10305000EDBF81FD34C184E51F928F931F9287E1FC
:103060008F938AED93E09F938F93C7E8D1E0DF932E
:10307000CF930E94080E8FE38F9380E88F931F9267
:103080001F921F9288E08F938BEB93E09F938F9317
:10309000DF93CF930E94080E4AE066E070E080E084
:1030A00090E00E9467118CE20E94C50980914B025A
:1030B000829581701F928F9381EB93E09F938F9302
:1030C000DF93CF930E94080E2091590230915A024B
:1030D000EDB7FEB778960FB6F894FEBF0FBEEDBF02
:1030E0002115310509F4EDC08091570290915802E5
:1030F000281B390B50E040E060E070E080E094E095
:103100000E947E2C3F932F93809158028F93809141
:1031100057028F9384EA93E09F938F93C7E8D1E09F
:10312000DF93CF930E94080ECE010E94CA090E942D
:10313000290C80915B02082E000C990B982F882790
:103140009295907F092E000CAA0BBB0B83539343DF
:10315000A347B04CBF93AF939F938F938091660228
:103160008F93809165028F93809164028F938091F9
:1031700063028F9380914B0281701F928F938CE733
:1031800093E09F938F93DF93CF930E94080E6091FB
:103190005E028DB79EB746960FB6F8949EBF0FBEDF
:1031A0008DBF6F3F09F490C0062E000C770B880B83
:1031B000990B0E943B2B20E030E040E85EE30E9448
:1031C0009A2BEB01182F092F0E941E170F931F93A4
:1031D000DF93CF939F938F937F936F938CE693E0CE
:1031E0009F938F93C7E8D1E0DF93CF930E94080E9F
:1031F00000915D0210915C020E94C80A1F920F9319
:103200001F921F939F938F9380E593E09F938F93DB
:10321000DF93CF930E94080E80915F021F928F93DD
:1032200080914C021F928F9389E393E09F938F9339
:10323000DF93CF930E94080E83E393E00E94AA09D4
:103240000E94900A9C0121503109EDB7FEB77E968D
:103250000FB6F894FEBF0FBEEDBF2E3F3F4FC8F133
:103260008FE20E94C509809152028F938091510292
:103270008F93809156028F93809155028F93809106
:1032800054028F93809153028F938CE093E09F932D
:103290008F9387E891E09F938F930E94080E8DB7DC
:1032A0009EB70A960FB6F8949EBF0FBE8DBF87E8F3
:1032B00091E0DF91CF911F910F910C94CA098CE49A
:1032C000CBCE20E030E21ECFC0E0D0E010EC0FE724
:1032D0007BCFBC0190E080E00E94392B20E030E001
:1032E0004AE754E40E94482D9F938F937F936F93F6
:1032F0008EE293E09F938F93DF93CF930E94080E0B
:103300004DB75EB7485F5F4F0FB6F8945EBF0FBE14
:103310004DBFA9CF2F923F924F925F926F927F92B3
:103320008F929F92AF92BF92CF92DF92EF92FF92D5
:103330000F931F93CF93DF93CDB7DEB7A1970FB64F
:10334000F894DEBF0FBECDBF9A8F898F80ED80933A
:103350007F0210923A021092390267E8262E61E04D
:10336000362E898D9A8D9C01215031093A8F298FF3
:10337000181619060CF0A9C410917F0286EF92E08E
:103380000E943F0AE0917F02E058E13508F0E0E555
:10339000F0E0E15DFD4F808380917F0291E0980F26
:1033A00090937F02103D11F580937F02298D3A8D15
:1033B000232BB9F6893BA9F680913902823089F630
:1033C00083E498E09093700280936F0285E0EAE0D6
:1033D000F1E0A1E7B2E001900D928A95E1F787E074
:1033E0008093390280EC80937F02BBCF1A3811F4AE
:1033F00080EDF9CF193809F0B4CF909138029338A5
:1034000009F44CC208F068C0933209F4C0C190F5C9
:10341000923109F486C1F0F4903109F4A6C19131DA
:1034200009F09FCF009134021091350220913602AD
:1034300030913702409132025091330260912F0255
:1034400070913002809131028F3F09F480E00E9438
:10345000F60E87CF298D3A8D913209F492C108F08A
:1034600093C144E068EB903209F07BCFC9010E9420
:103470000D0C77CF933509F49EC1D0F4913509F442
:10348000C8C108F089C1903509F06BCF60E0CE016A
:1034900049960E94FC0B823941F49FB7F8948091C1
:1034A0002E02826080932E029FBF0E94780859CF1F
:1034B000963509F483C1923809F4CEC1943509F0E8
:1034C00050CF109227021092260210922B021092D7
:1034D0002C0210922D0245CF953909F420C208F034
:1034E000ABC0963809F41EC238F5943809F4ECC123
:1034F000953809F036CF61E0CE0149960E94FC0B69
:1035000020919A0230919B02820F932F911D9093EC
:103510009B0280939A029F938F9381E992E09F93FD
:103520008F933F922F920E94080E0F900F900F9052
:103530000F900F900F9015CF933909F478C108F0D0
:10354000DFC1913909F00DCF1F928CE98F931F9243
:1035500087E18F9388E08F9383E48F9388EE92E0E6
:103560009F938F933F922F920E94080E0FB6F8946C
:10357000DEBF0FBECDBF0BE412E043EEE42E42E00F
:10358000F42ED8018D918D011F928F93FF92EF92AF
:103590003F922F920E94080E0F900F900F900F9065
:1035A0000F900F90B2E000361B0759F70E94D11020
:1035B0001F921F921F9283EA8F931F9287E18F932E
:1035C0001F921F9283ED91E09F938F933F922F92D2
:1035D0000E94080E87E891E00E94CA090FB6F8948D
:1035E000DEBF0FBECDBFF12C0AEC11E08091DB02F3
:1035F000F81608F0FFC08F2D90E0A091D902B0918D
:10360000DA02A80FB91F2C911F922F93E091D702D5
:10361000F091D802E80FF91F80811F928F931F93BA
:103620000F933F922F920E94080EF3940FB6F894D6
:10363000DEBF0FBECDBFDACF933A09F404C3A8F4BE
:10364000913A09F42DC208F033C3903A09F089CEBB
:103650006FEFCE0149960E94FC0B6FE7CE014996B1
:103660000E94FC0B0E94DB117CCE9D3E09F46EC1D2
:103670009E3E09F4CAC1943A09F073CEE091A202C9
:10368000F091A302A484B58470E060E080E00E9421
:10369000B20EC12CD12C760110E000E00E9415087A
:1036A0002B01C8010E94AF06982E892E0E94150892
:1036B000641975092B01712C612CC414D504E6041E
:1036C000F704A8F47F936F938F929F921F930F93A9
:1036D00020E132E03F932F933F922F920E94080EF9
:1036E0000FB6F894DEBF0FBECDBF730162010F5F4E
:1036F0001F4F0115B0E21B0789F6FF92EF92DF9290
:10370000CF921F921F9283EF91E09F938F933F92EE
:103710002F920E94080EB501772780E00E94B20E1A
:10372000B7C0898D9A8D9C01215031093A8F298F1C
:1037300018161906BCF486EF92E00E943F0A282F63
:103740002F7054E0959587955A95E1F78F70880F03
:1037500090913902890F809339022A5B220F2093BE
:103760007F02FFCD20E088E0F2CF609132027091BD
:103770003302809131028F3F09F480E00E94B20E43
:10378000F0CD42E06CEB72CE42E06EEB6FCE44E0E7
:1037900064EB898D9A8D6BCE80E090E0A0E8BFE36A
:1037A00080936F0290937002A0937102B0937202A3
:1037B00044E060ECEECF0E948317D3CD898D9A8DC3
:1037C0009C01215031093A8F298F181619060CF0E7
:1037D000C8CD86EF92E00E943F0AE091A002F091EE
:1037E000A10221E0019709F020E0808120FB81F90E
:1037F0008083B7CD3FE13F1528F080E30E94C509E3
:10380000F394F8CF0E94D11087E891E00E94CA0992
:10381000A8CD0E9455039FB7F89480912E02826034
:1038200080932E029FBF81E00E945C149ACD1FB747
:10383000F89460E0CE0149960E94FC0B823929F48D
:1038400080912E02826080932E0280912E028E7FC4
:1038500080932E021FBFE7CF61E0CE0149960E9400
:10386000FC0B2091510230915202820F932F911D37
:1038700090935202809351029F938F939F938F93C3
:1038800080ED92E09F938F933F922F920E94080EBB
:103890000FB6F894DEBF0FBECDBF63CD61E0CE01A1
:1038A00049960E94FC0B2091510230915202281B34
:1038B000310930935202209351023F932F933F934B
:1038C0002F938DEB92E0DECF898D9A8D9C01215054
:1038D00031093A8F298F029744F042E050E061E5C8
:1038E00072E086EF92E00E949D10809151029091CB
:1038F00052029F938F939F938F938AEA92E0C2CF55
:1039000080EA92E00E94D7100E94CB0764EF71E03A
:1039100080E090E00E943A080E94F60C22CD0E94BE
:10392000E3101FCD61E0CE0149960E94FC0B20916F
:103930009A0230919B02281B310930939B022093FD
:103940009A023F932F9382E892E0E9CD9FB7F894D3
:1039500086E0EEE8F2E0DE01119601900D928A9584
:10396000E1F700918002F09081029FBF8CE792E026
:103970000E94AA098A819B81892B09F441C010E029
:10398000812F012E000C990BFC01EE0FFF1FE80F99
:10399000F91F21E030E02C0F3D1FE20FF31F818162
:1039A00092810097B1F0FF920F939F938F93808144
:1039B0001F928F9381E792E09F938F933F922F9274
:1039C0000E94080E1F5F0FB6F894DEBF0FBECDBF7A
:1039D000D7CF0E94D110E091A202F091A302858579
:1039E0008F9384858F93FF920F931F921F928AE487
:1039F00092E09F938F933F922F920E94080E48CFA0
:103A00008EE592E00E94D710E6CF84E492E00E9417
:103A1000AA099FE2E92E92E0F92E00E810E028E3DF
:103A2000C22E22E0D22EB02E302F3370A32E81F47E
:103A30001F930F938DE392E09F938F933F922F926A
:103A40000E94080E0F900F900F900F900F900F9004
:103A5000F70181917F011F928F93DF92CF923F9266
:103A60002F920E94080E8B2D8F700F900F900F9049
:103A70000F900F900F908F3061F481E392E00E94DD
:103A8000AA090F5F1F4F013D110569F60E94D11071
:103A900068CCF3E0AF12F5CF80E20E94C509F1CF08
:103AA000898D9A8D05970CF45CCC44E050E0BE0102
:103AB0006F5E7F4F86EF92E00E949D10E98CFA8C3A
:103AC000E81AF90AFA8EE98EE0FC4BCCE6948FEF07
:103AD0008E0D883008F045CC9E012F5F3F4F3C8F04
:103AE0002B8F80E1D9011D928A95E9F7F12CA7016E
:103AF000B90186EF92E00E949D10298D3A8D281B16
:103B0000390B3A8F298FA701BE01675F7F4F86EF80
:103B100092E00E949D10298D3A8D281B390B3A8F17
:103B2000298FC988DA888C89482E512CBFEF4B1A0F
:103B30005B0A2B89249DC001259D900D1124FC0159
:103B4000EC0DFD1DFE8FED8F5F924F92FF93EF9373
:103B5000DF92CF9288E391E09F938F933F922F92D1
:103B60000E94180E8FE6882E82E0982E0FB6F894E9
:103B7000DEBF0FBECDBFB12C8D8D9E8DC816D90670
:103B80000CF05FC090E1B91609F45BC0B60190E09B
:103B900080E00E94392B2CE73CE740E052E40E9491
:103BA000482D69A3672E8C0120E030E04FE753E4F5
:103BB0000E94342B87FD04C019A2612C0FE713E487
:103BC000A9E0B0E0AC0FBD1FB88FAF8BE1E0F0E033
:103BD000EC0FFD1FFE8BED8BA9A06F8E08A3712E3D
:103BE0000A2D162D28A1372DA701BE01695E7F4F32
:103BF000CE0145960E9460040E94CA03D4018C93B2
:103C000011969C93B2E08B0E911CB394B3949F9346
:103C10008F937F92E8A1EF93FF8DFF93AF92DF9296
:103C2000CF9226E531E03F932F933F922F920E944F
:103C3000180EC40CD51C0FB6F894DEBF0FBECDBF56
:103C40009BCF4B2DB6CD6FEFCE0149960E94FC0B5A
:103C5000811187CBFFB6F894EFE6F2E080E1DF0157
:103C60001D928A95E9F7098D1A8D1016110674F4C4
:103C7000013108F000E110E0A8016FE672E086EF84
:103C800092E00E949D100817190721F48FE692E038
:103C90000E94A80D80914B028F7E80934B029091E1
:103CA000DB02992319F0806180934B02FFBE59CB50
:103CB0006FEFCE0149960E94FC0B811152CB8FE62B
:103CC00092E00E94290340E174CDA1960FB6F894CA
:103CD000DEBF0FBECDBFDF91CF911F910F91FF903F
:103CE000EF90DF90CF90BF90AF909F908F907F909C
:103CF0006F905F904F903F902F9008951F920F927A
:103D00000FB60F9211242F933F938F939F93AF93EE
:103D1000BF938091770190917801A0917901B09142
:103D20007A013091760126E0230F2D3758F502965F
:103D3000A11DB11D209376018093770190937801A6
:103D4000A0937901B0937A0180917B0190917C01DD
:103D5000A0917D01B0917E010196A11DB11D8093BE
:103D60007B0190937C01A0937D01B0937E01BF9174
:103D7000AF919F918F913F912F910F900FBE0F9018
:103D80001F90189529E8230F0396A11DB11DD2CFCE
:103D90001F920F920FB60F9211242F933F934F93C0
:103DA0005F936F937F938F939F93AF93BF93EF93A3
:103DB000FF93E0910201F09103010995FF91EF91CA
:103DC000BF91AF919F918F917F916F915F914F9133
:103DD0003F912F910F900FBE0F901F9018951F923B
:103DE0000F920FB60F9211242F933F934F935F932F
:103DF0006F937F938F939F93AF93BF93EF93FF93B3
:103E0000E0910001F09101010995FF91EF91BF91BF
:103E1000AF919F918F917F916F915F914F913F9162
:103E20002F910F900FBE0F901F9018951F920F9219
:103E30000FB60F9211242F933F934F935F936F937D
:103E40007F938F939F93AF93BF93EF93FF9387E8F5
:103E500091E00E943B09FF91EF91BF91AF919F913B
:103E60008F917F916F915F914F913F912F910F9023
:103E70000FBE0F901F9018951F920F920FB60F92C2
:103E800011242F938F939F93EF93FF93E0919701CA
:103E9000F09198018081E0919D01F0919E0182FD59
:103EA0001BC090818091A0018F5F8F732091A10131
:103EB000821741F0E091A001F0E0E957FE4F958FA5
:103EC0008093A001FF91EF919F918F912F910F907F
:103ED0000FBE0F901F9018958081F4CF1F920F9204
:103EE0000FB60F9211248F939F938091720190913E
:103EF0007301019690937301809372019F918F914A
:103F00000F900FBE0F901F9018951F920F920FB633
:103F10000F9211248F939F93809170019091710162
:103F20000196909371018093700180912402909189
:103F30002502181619062CF40197909325028093F8
:103F400024028091260290912702009729F0019780
:103F500090932702809326029F918F910F900FBE1E
:103F60000F901F9018951F920F920FB60F92112469
:103F70002F933F934F935F936F937F938F939F9371
:103F8000AF93BF93CF93EF93FF9386E0E4E9F2E022
:103F9000AEE8B2E001900D928A95E1F710928500AB
:103FA00010928400109289001092880080919A02E9
:103FB00090919B0290938B0080938A0086B38660D9
:103FC00086BBE091A002F091A1028081869581706C
:103FD00091E0892780939D0280918F0290919002B9
:103FE0009093890080938800C0E080919D022C2FDF
:103FF0000C2E000C330BF901EE0FFF1FE20FF31F25
:10400000E058FD4F27853089232B21F00E94230C97
:10401000CF5FEBCF209180023091810221153105D5
:1040200029F491E089270E94230C03C02115304216
:10403000D4F780919D0291E0892780939D02809121
:104040006F008B7F80936F0080918F029091900220
:10405000892BB9F080916F00826080936F00FF918F
:10406000EF91CF91BF91AF919F918F917F916F9180
:104070005F914F913F912F910F900FBE0F901F9026
:10408000189580916F008D7FE8CF1F920F920FB629
:104090000F9211242F933F934F935F936F937F93CE
:1040A0008F939F93AF93BF93EF93FF9380919D0264
:1040B0000E94230CEFE6F0E080818D7F8083FF91EA
:1040C000EF91BF91AF919F918F917F916F915F9190
:1040D0004F913F912F910F900FBE0F901F90189509
:1040E00087ED92E00E94970D85E291E09093DD02CA
:1040F0008093DC0280E093E00E94280E86EF92E03D
:104100000C94280ECF93DF93A7E8B1E013961C928E
:104110001E92129748EE53E060E070E014964D93C3
:104120005D936D937C93179783E191E011969C9337
:104130008E9385EC90E01D969C938E931C9784EC57
:1041400090E01F969C938E931E9780EC90E0519682
:104150009C938E93509781EC90E053969C938E9312
:10416000529782EC90E055969C938E93549786ECF0
:1041700090E057969C938E93569759961C92599718
:104180005A961C925A975B961C925B975C961C926F
:104190005C97ECEDF2E013821282448355836683D0
:1041A000778385E291E0918380838EEF8487158603
:1041B0001686178681E0808B118A128A2FEE32E0F4
:1041C00087E0E90119928A95E9F7138E128E158E10
:1041D000148E178E168E11A210A213A212A215A26F
:1041E00014A217A216A211A610A613A612A615A60F
:1041F00014A617A616A611AA10AA89EF96E193ABEA
:1042000082ABB5ABA4ABE4E2F2E08FEF9FEF91831A
:10421000808382E19AE793838283148215821682D7
:104220001782108611861286E0E8F2E080E2DF0154
:104230001D928A95E9F78BE492E091A380A38FE227
:1042400092E093A382A3E7EDF2E011821082138241
:1042500012821482E4EAF2E08DE2EF0119928A956B
:10426000E9F716A615A688E79CEEAFEFBFEF87A784
:1042700090ABA1ABB2ABDF91CF910895CF93DF9319
:10428000CDB7DEB7AD970FB6F894DEBF0FBECDBF8A
:10429000789484B5826084BD84B5816084BD85B521
:1042A000826085BD85B5816085BD80916E0081602D
:1042B00080936E00109281008091810082608093D3
:1042C00081008091810081608093810080918000D5
:1042D0008160809380008091B10084608093B10000
:1042E0008091B00081608093B00080917A008460FA
:1042F00080937A0080917A00826080937A00809126
:104300007A008E7F80937A0080917A008068809313
:104310007A001092C100E0919701F091980182E03B
:104320008083E0919301F09194011082E0919501D6
:10433000F091960180E1808310929F01E0919B01B2
:10434000F0919C0186E08083E0919901F0919A01BF
:10435000808180618083E0919901F0919A01808150
:1043600088608083E0919901F0919A018081806852
:104370008083E0919901F0919A0180818F7D808303
:104380000E94290C83EE94E00E94D71087E891E008
:104390000E94CA09E1E3F2E08FE4DF011D928A95F1
:1043A000E9F78FEF9FEF9093300280932F02809177
:1043B000E8028E3FC1F08EEF8093E8021092E9028E
:1043C0001092EA021092EB0281E08093EC021092CC
:1043D000ED021092EE0286EF92E00E94280E80E03D
:1043E00093E00E94280E87E18093E8028AE899E131
:1043F00090930B0380930A038EE695E190930D034F
:1044000080930C038FEF9FEF9093D2028093D102A1
:1044100010E000E0412C512C32010E3DB3E01B07AF
:1044200051F1BE016F5F7F4FC8010E945A0CCE014F
:1044300003960E94040329813A8128173907C1F4A1
:104440004B815C816D817E8144155505660577053C
:1044500078F01093D2020093D1028DE2FE013196E2
:10446000A4EAB2E001900D928A95E1F72A013B019E
:10447000035D1F4FD2CF8091D1029091D20201965D
:1044800009F0D0C00E94E31060E084E10E949A0726
:1044900060E083E00E949A0710926002109261022D
:1044A000109262020E94F60CCE0101966C0180917E
:1044B000740190917501892B09F40CC10E94F60CCE
:1044C000882309F4A7C04090630250906402609072
:1044D000650270906602A3019201C301B2010E94BD
:1044E000452E81114BC020E030E0A901C301B2018B
:1044F0000E94342B882309F441C0A301920160E09B
:1045000074E284EF98E40E94482D0E94C12D7093BC
:104510009B0260939A02198210922E0210929D02C1
:10452000AFEFBFEFB0939F02A0939E020E9455078A
:1045300061E086E00E949A07F8941092B00081E052
:104540008093B1008091700081608093700089E059
:1045500090E19093030180930201809169008C6047
:1045600080936900E99A1092800082E08093810034
:1045700080916F00887D80936F00789480914B02CA
:1045800080FF20C06090BF027090C002611471046F
:10459000C9F080904D0290904E02A0904F02B090D2
:1045A000500220E030E0A901C501B4010E94342B83
:1045B000882341F095018401A3016FEF7FEF80E034
:1045C0000E94F60E0E94C80A90936C0280936B02C0
:1045D0000E941E17609367027093680280936902BD
:1045E00090936A020E94900A68E18CED92E00E942A
:1045F0000F1467EF8CED92E00E9453136CE083E69A
:1046000092E00E948C15F89480912E028460809331
:104610002E0278940E943109882309F448CF0E9421
:10462000F91645CF8091AB02873308F487E38E37C4
:1046300008F08DE78093AB0285E1EAEAF2E0ABE4B3
:10464000B2E001900D928A95E1F787ED92E00E9429
:10465000970D81EC92E00E94A80D0E94290CE09138
:10466000D102F091D2028091A5028F938091A40291
:104670008F93CF016DE270E00E94BA2C4B01B12CF8
:10468000A12C86E1881A9108A108B108A6E1B0E042
:10469000A30192010E94A02C860E971EA81EB91E8F
:1046A000BF92AF929F928F92FF93EF937F926F9200
:1046B0005F924F9280EC94E09F938F9387E891E014
:1046C0009F938F930E94080E0FB6F894DEBF0FBE23
:1046D000CDBFDACEF89430902E02789432FE09C025
:1046E000F89480912E028B7F80932E0278940E9402
:1046F00083170E946C084B015C0133FE1BC0F894C9
:1047000080912E02877F80932E02789468E18CED51
:1047100092E00E940F1464EF8CED92E00E9453131C
:104720006FEF8CED92E00E94531363E080E692E01D
:104730000E948C1534FE18C0F89480919C028983E5
:1047400080912E028F7E80932E02789468E18CED0A
:1047500092E00E940F1465EF8CED92E00E945313DB
:1047600061E0C6010E948C1535FE3BC0F894809133
:10477000240290912502892B09F00DC180912E020F
:104780008F7D80932E02AFEFBFEFB0932502A093F1
:10479000240280919E0290919F0286018F3F98078C
:1047A00061F019829B838A838FEF9FEF90939F0222
:1047B00080939E028E010C5F1F4F7894C016D10625
:1047C00081F068E18CED92E00E940F1462EF8CEDB5
:1047D00092E00E945313B8016C197D09C6010E9432
:1047E0008C1530FE12C00E946C080091D30210910B
:1047F000D4022091D5023091D6026017710782074A
:10480000930718F080E00E945C148091260290913A
:104810002702892B09F0FECEF894A2E1BAE7B09303
:104820002702A093260278940E941E172B013C01B8
:1048300040926702509268026092690270926A0226
:10484000AC019B010E94452E811105C0C301B2013C
:104850000E94BA2D7B010E94C80A8C0190936C02C1
:1048600080936B02BC01990F880B990B0E943B2B24
:104870009B01AC010E94452E811104C0E016F10697
:104880000CF47801892C9A2CAB2CBB2414014A2CF3
:1048900080914C028823C1F18E151F04ACF58091E4
:1048A000280290912902A0912A02281639064A0668
:1048B00058F1AA2DC4018B589F4FAF4F8093280207
:1048C00090932902A0932A0280914B0282FD05C099
:1048D000846080934B020E94780870E060E080E082
:1048E0000E94B20EE98280914C028A8368E18CEDCD
:1048F00092E00E940F1461EF8CED92E00E9453133E
:1049000062E0C6010E948C1580915F02882309F441
:1049100081CE20912B0230912C0240912D02221643
:104920003306440608F476CEB4E08B9F20011124B0
:10493000052C000C6608480C591C6A1C40922B027E
:1049400050922C0260922D020E94C80A90936C0231
:1049500080936B020E941E17609367027093680237
:104960008093690290936A020E94900A68E18CED3C
:1049700092E00E940F1460EF8CED92E00E945313BE
:104980006E2D8CED92E00E9453136CE083E692E072
:104990000E948C153FCE789424CFAFE0B0E0E3EDD9
:1049A000F4E20C942E286C011B015A01FC011782C1
:1049B0001682838181FF48C39E012F5F3F4F4901CB
:1049C000F6019381F10193FD859193FF81911F0180
:1049D000882309F4E7C2853239F493FD859193FF6A
:1049E00081911F01853239F4B60190E00E94472A77
:1049F00035015301E5CFF12C512C00E0003238F4A1
:104A00008B3209F190F48032F9F0833209F107FD1D
:104A100034C020ED280F2A3020F506FF1BC0FAE035
:104A2000FF9E200D1124F22E05C08D3279F08033C7
:104A300071F70160F10193FD859193FF81911F0151
:104A40008111DCCF1AC002600460F4CF0860F2CF9D
:104A50000061F0CF3AE0539E200D1124522E0062E7
:104A6000E9CF8E3221F406FD9DC20064E3CF8C367F
:104A700011F40068DFCF8836E9F29BEB980F933092
:104A800008F05FC00061805E06FD02C046E0F42EC3
:104A9000102F1F73853609F05BC0106417FF61C0CB
:104AA0008F2D9BE39F1508F48BE344244394480E19
:104AB00027E03501F4E06F0E711CF5016081718112
:104AC00082819381042DA4010E9450295C01F98107
:104AD000FC87F0FF03C00DE2F3FF07C00BE211FDFE
:104AE00004C0012F047012FD00E22C852C70E22E10
:104AF00009F457C00111ABC2F3E0E12CF515A0F4A5
:104B000083E0E52CE81A13FD08C0B60180E290E0CE
:104B10000E94472AEA94E110F8CF002329F0B60159
:104B2000802F90E00E94472A3C8522ECA22E20E0B4
:104B3000B22E33FD04C096ECA92E90E0B92E107170
:104B400022C09BE9980F933008F033C10F7E9CCFB1
:104B5000863611F41068A2CFFF2009F49FCFFA9493
:104B60009DCFE7E02F2DEF1518F427E037E0F32E67
:104B7000412C9FCF11118052B60190E00E94472A2C
:104B80008FEFA81AB80AF50184918111F3CFEE20B6
:104B900009F42FCFB60180E290E00E94472AEA9400
:104BA000F6CF17FF6FC04A0CFC85F4FF04C08A8162
:104BB000813309F44A9414140CF086C028E02415BB
:104BC00010F488E0482E85E090E017FF06C0C5018C
:104BD000B7FE02C090E080E0019601110196FF202F
:104BE00031F02F2D30E02F5F3F4F820F931F58166B
:104BF000190619F014F0E52CE81A812F897011F4C8
:104C0000E11067C0002329F0B601802F90E00E94D8
:104C1000472A13FD02C0E11063C017FF7CC0850165
:104C2000B7FE02C010E000E0C501841991092C0113
:104C30006F2D70E0EE27FF27E61BF70BFF87EE874F
:104C40000F3F100729F4B6018EE290E00E94472A38
:104C5000A016B1060CF44BC0401651060CF047C02C
:104C6000F501E01BF10BE80DF91D818101501109DF
:104C70002E853F8502171307E4F1B60190E00E94EC
:104C8000472ADECF16FD9FCFEF2DF0E0EA15FB059A
:104C900034F03CEFA3163FEFB3060CF010683296E9
:104CA000E80DF91D01C0FA94FF2019F082918033BC
:104CB000D1F317FF88CF442443944F0CFA141B04FC
:104CC00031F02CF0FA187FCF442443947CCFF12CA0
:104CD0007ACFB60180E290E00E94472AEA9490CF12
:104CE000B60180E390E00E94472AEA9494CF80E3E3
:104CF000BDCFA016B10641F49A81963350F4953396
:104D000019F43C8534FF05C0B60190E00E94472AA3
:104D10003ECF81E3F9CF8A81813319F09C859F7E54
:104D20009C87B60190E00E94472AFF20A9F0B601B7
:104D30008EE290E00E94472AF394F394E2E001E0CF
:104D40000E0FE80DF92DF11D8081B60190E00E9453
:104D5000472AE02F0F11F3CF85E690E014FF02C041
:104D600085E490E0B6010E94472AB7FC06C0A11472
:104D7000B104C1F4EC85E4FF15C0B194A194B1086D
:104D80008DE2B60190E00E94472A80E32AE0A21655
:104D9000B10454F4B60190E00E94472AB601C5015F
:104DA000C096B4CF8BE2EDCF8F5FFAE0AF1AB108B7
:104DB000EDCF8336C9F0833771F1833509F05BC0DD
:104DC0003501F2E06F0E711CF501A080B1806F2DEE
:104DD00070E006FD02C06FEF7FEFC5010E94312A2F
:104DE0009D878C8700680DC0350132E0630E711C11
:104DF000F5018081898321E030E03D872C875401D3
:104E00000F7703FD06C02C853D855216130609F069
:104E1000A8F4E52C2BC0350132E0630E711CF501BE
:104E2000A080B1806F2D70E006FD02C06FEF7FEFB4
:104E3000C5010E943C2A9D878C87E2CFB60180E2A3
:104E400090E00E94472A5A94DECFF50107FD859134
:104E500007FF81915F01B60190E00E94472AE110AF
:104E6000EA948C859D8501979D878C87EC85FD85CF
:104E7000EF2B59F78CCE843619F0893609F074C0BF
:104E8000350107FF66C0F4E06F0E711CF50160810B
:104E9000718182819381102F1F7697FF08C09095B2
:104EA0008095709561957F4F8F4F9F4F10682AE0D6
:104EB00030E0A4010E94D32AA82EA818BA2C012FF2
:104EC00016FF0AC00E7FAF1438F414FF04C012FDA1
:104ED00002C0012F0E7EBF2C04FF8EC0FE01EA0D22
:104EE000F11D8081803309F080C0097EF02FF870B9
:104EF000EF2E03FD90C000FF8AC0FA2CB51410F409
:104F0000F50CFB1804FF8DC0B60180E390E00E9411
:104F1000472A02FF09C088E790E001FF02C088E548
:104F200090E0B6010E94472AAF1408F486C0AA9404
:104F30000A2D10E00F5F1F4F080D191DF801829117
:104F40008F01B60190E00E94472A80169106B1F7C2
:104F50001ECEF2E06F0E711CF50160817181072E8B
:104F6000000C880B990B97CF102F8537A9F41F7E63
:104F70002AE030E0350117FF2FC0F4E06F0E711CFE
:104F8000F5016081718182819381A4010E94D32AFD
:104F9000A82EA8181F7792CF197F8F36D1F048F42A
:104FA000883591F0F601868197812F96E2E10C9485
:104FB0004A28803739F08837A9F714FD146020E1BA
:104FC00030E0D8CF1061F9CF04FD166020E132E067
:104FD000D1CF28E030E0CECFF2E06F0E711CF501AA
:104FE0006081718190E080E0D0CF02FD02C0B39477
:104FF0007DCFB394B3947ACF802F867809F476CF9F
:10500000F6CFB60180E290E00E94472AB394B5142F
:10501000C0F3E12C77CFE52CEB18B51408F472CF70
:10502000F8CF802F867809F47FCF8BE201FF80E2F2
:1050300007FD8DE2B60190E075CFB60180E390E008
:105040000E94472AFA9470CF8FEF9FEFAECF24E0F3
:10505000E12C251508F063CD84E053CD2F923F92CB
:105060004F925F926F927F928F929F92AF92BF9278
:10507000CF92DF92EF92FF920F931F93CF93DF9324
:10508000CDB7DEB7CA1BDB0B0FB6F894DEBF0FBE81
:10509000CDBF09942A88398848885F846E847D84CE
:1050A0008C849B84AA84B984C884DF80EE80FD80D0
:1050B0000C811B81AA81B981CE0FD11D0FB6F89446
:1050C000DEBF0FBECDBFED010895B0E0A0E0EBE67E
:1050D000F8E20C942F285C016B017A0161157105CF
:1050E00019F0FB0191838083E114F10449F0C701B9
:1050F0000297839728F060E070E0CB019CC05E01CE
:10510000E5012196F5011081812F90E00E94282A67
:10511000892BA9F71D3209F056C02196F50111819E
:1051200001E0E114F10409F4AEC0F0E1EF16F1047E
:1051300009F08EC0103341F488818F7D883509F0E5
:1051400083C0198122960260E0E1EE2EF12C8824C2
:105150008A94982CA82CFFE0BF2E20E060E070E03D
:10516000CB0127010F2C000C66087708FE0150EDDB
:10517000352E310E39E0331538F43FEB310F3A312B
:10518000A0F549EC342E310E3E141F04BCF52F3F20
:10519000B9F086169706A806B90670F1A301920128
:1051A0000E946E2C232D30E050E040E0620F731F10
:1051B000841F951F6217730784079507E8F021E0A5
:1051C00021961081D3CF1B3221F4E5012296F501FF
:1051D000118100E0A6CF78E0E72EF12C88248A9494
:1051E000982CA82C6FE1B62EB8CF3FE9310F3A3199
:1051F00028F439EA332EC7CF2FEFE2CFC114D10400
:1052000031F02223E9F02197F601D183C08300FF1A
:1052100007C090958095709561957F4F8F4F9F4FF8
:105220002F3F49F482E290E090931303809312039E
:105230006FEF7FEFCB01CDB7DEB7E1E10C944B28E8
:1052400001FFE5CF2297E0CF10E3E114F10419F25A
:105250003AE0E316F104E9F080E1E816F10409F41C
:1052600073CFE8E0EE16F10409F4B8CF6FEF7FEFEB
:10527000CB0197010F2C000C440B550B0E947E2C88
:1052800049015A016ACF103309F456CF9AE0E92E4A
:10529000F12C89E9882E982CA82C89E1B82E5DCFB5
:1052A000283008F027E03327DA01990F311D87FDF8
:1052B000916000966105710539F432602E5F3D936F
:1052C00030E32A95E1F708959F3F30F0803871056B
:1052D000610509F03C5F3C5F3D93913008F08068C8
:1052E000911DDF93CF931F930F93FF92EF92192F8E
:1052F000987F9695E92F96959695E90FFF27EC5D97
:10530000FE4F99273327EE24FF24A701E7010590DC
:105310000894079428F4360FE71EF81E491F511D04
:10532000660F771F881F991F0694A1F705900794B1
:1053300028F4E70EF81E491F561FC11D770F881F5E
:10534000991F661F0694A1F70590079428F4F80E9C
:10535000491F561FC71FD11D880F991F661F771F32
:105360000694A1F70590079420F4490F561FC71F14
:10537000D81F990F661F771F881F0694A9F784917D
:105380001095177041F0D695C79557954795F794A6
:10539000E7941A95C1F7EAECF0E06894159015913E
:1053A00035916591959105907FE27395E118F10A29
:1053B000430B560BC90BD009C0F7E10CF11E431F7C
:1053C000561FC91FD01D7EF4703311F48A95E6CFA5
:1053D000E894015030F0080F0AF40027021708F48F
:1053E000202F2395022F7A3328F079E37D932A9595
:1053F000E9F710C07D932A9589F6069497956795ED
:10540000379517951794E118F10A430B560BC90B02
:10541000D00998F023957E9173957A3308F070E364
:105420007C932013B8F77E9170617D9330F0839563
:1054300071E37D9370E32A95E1F71124EF90FF90DB
:105440000F911F91CF91DF91992787FD9095089536
:1054500091110C94312B803219F089508550C8F786
:105460000895FC010590615070400110D8F78095B7
:1054700090958E0F9F1F0895FC0161507040019020
:105480000110D8F7809590958E0F9F1F08950F9368
:105490001F93CF93DF93182F092FEB018B8181FD91
:1054A00009C01FEF0FEF812F902FDF91CF911F9138
:1054B0000F91089582FF14C02E813F818C819D81C0
:1054C000281739073CF4E881F981CF0101969983C7
:1054D000888310838E819F8101969F838E83E3CF83
:1054E000E885F985812F0995892BA1F3DACFAEE004
:1054F000B0E0EDE7FAE20C943C280D891E898F8913
:10550000988D2EE02C831A83098397FF02C080E0D8
:1055100090E801979E838D83AE01455E5F4F698D54
:105520007A8DCE0101960E94CD244D815E8157FD7A
:105530000AC02F813885421753070CF49A01020FD5
:10554000131FF80110822E96E4E00C945828AEE068
:10555000B0E0EDEAFAE20C943C288C01FA018EE00E
:105560008C831A83098377FF02C060E070E8615082
:1055700071097E836D83A901BF01CE0101960E944E
:10558000CD244D815E8157FD0AC02F813885421799
:1055900053070CF49A01020F131FF80110822E9684
:1055A000E4E00C945828FA01AA27283051F1203160
:1055B00081F1E8946F936E7F6E5F7F4F8F4F9F4FA7
:1055C000AF4FB1E03ED0B4E03CD0670F781F891FE9
:1055D0009A1FA11D680F791F8A1F911DA11D6A0FB7
:1055E000711D811D911DA11D20D009F468943F916A
:1055F0002AE0269F11243019305D3193DEF6CF0169
:105600000895462F4770405D4193B3E00FD0C9F72E
:10561000F6CF462F4F70405D4A3318F0495D31FD9B
:105620004052419302D0A9F7EACFB4E0A6959795EE
:10563000879577956795BA95C9F7009761057105C4
:1056400008959B01AC010A2E06945795479537950E
:105650002795BA95C9F7620F731F841F951FA01D68
:1056600008959927882708950E94762B08F481E0F1
:105670000895E89409C097FB3EF490958095709545
:1056800061957F4F8F4F9F4F9923A9F0F92F96E98E
:10569000BB279395F695879577956795B795F11103
:1056A000F8CFFAF4BB0F11F460FF1BC06F5F7F4FA0
:1056B0008F4F9F4F16C0882311F096E911C07723B2
:1056C00021F09EE8872F762F05C0662371F096E8BB
:1056D000862F70E060E02AF09A95660F771F881F8A
:1056E000DAF7880F9695879597F90895990F00082E
:1056F000550FAA0BE0E8FEEF16161706E807F907A4
:10570000C0F012161306E407F50798F0621B730B3E
:10571000840B950B39F40A2661F0232B242B252BBF
:1057200021F408950A2609F4A140A6958FEF811D62
:10573000811D08950E94AD2B0C941E2C0E94102CEC
:1057400038F00E94172C20F0952311F00C94072CB0
:105750000C940D2C11240C94522C0E942F2C70F3BD
:10576000959FC1F3950F50E0551F629FF001729F06
:10577000BB27F00DB11D639FAA27F00DB11DAA1F15
:10578000649F6627B00DA11D661F829F2227B00D62
:10579000A11D621F739FB00DA11D621F839FA00DED
:1057A000611D221F749F3327A00D611D231F849F3D
:1057B000600D211D822F762F6A2F11249F57504094
:1057C0009AF0F1F088234AF0EE0FFF1FBB1F661F0F
:1057D000771F881F91505040A9F79E3F510580F0D8
:1057E0000C94072C0C94522C5F3FE4F3983ED4F3B6
:1057F000869577956795B795F795E7959F5FC1F77C
:10580000FE2B880F911D9695879597F9089597F926
:105810009F6780E870E060E008959FEF80EC089556
:1058200000240A941616170618060906089500247F
:105830000A9412161306140605060895092E0394F9
:10584000000C11F4882352F0BB0F40F4BF2B11F46D
:1058500060FF04C06F5F7F4F8F4F9F4F089557FDCC
:105860009058440F551F59F05F3F71F04795880FCE
:1058700097FB991F61F09F3F79F087950895121665
:1058800013061406551FF2CF4695F1DF08C0161611
:1058900017061806991FF1CF8695710561050894C2
:1058A0000895E894BB2766277727CB0197F90895D9
:1058B000F999FECF92BD81BDF89A992780B50895D8
:1058C000262FF999FECF1FBA92BD81BD20BD0FB61C
:1058D000F894FA9AF99A0FBE01960895DB018F9316
:1058E0009F930E94A02CBF91AF91A29F800D911D0C
:1058F000A39F900DB29F900D11240895A1E21A2E3E
:10590000AA1BBB1BFD010DC0AA1FBB1FEE1FFF1F63
:10591000A217B307E407F50720F0A21BB30BE40BB3
:10592000F50B661F771F881F991F1A9469F76095FA
:105930007095809590959B01AC01BD01CF010895B4
:105940000E94AB2CA59F900DB49F900DA49F800D3D
:10595000911D11240895A29FB001B39FC001A39F80
:10596000700D811D1124911DB29F700D811D112498
:10597000911D0895AA1BBB1B51E107C0AA1FBB1FA5
:10598000A617B70710F0A61BB70B881F991F5A95CB
:10599000A9F780959095BC01CD0108950E94AB2C8C
:1059A000B7FF0895821B930B0895EE0FFF1F05901C
:1059B000F491E02D09945058BB27AA270E94F32C9C
:1059C0000C941E2C0E94102C38F00E94172C20F0F2
:1059D00039F49F3F19F426F40C940D2C0EF4E09545
:1059E000E7FB0C94072CE92F0E942F2C58F3BA17D1
:1059F000620773078407950720F079F4A6F50C94E5
:105A0000512C0EF4E0950B2EBA2FA02D0B01B901ED
:105A100090010C01CA01A0011124FF27591B99F024
:105A2000593F50F4503E68F11A16F040A22F232F30
:105A3000342F4427585FF3CF469537952795A79580
:105A4000F0405395C9F77EF41F16BA0B620B730B27
:105A5000840BBAF09150A1F0FF0FBB1F661F771F98
:105A6000881FC2F70EC0BA0F621F731F841F48F44D
:105A7000879577956795B795F7959E3F08F0B0CFD6
:105A80009395880F08F09927EE0F979587950895BD
:105A90000E945C2D0C941E2C0E94172C58F00E9422
:105AA000102C40F029F45F3F29F00C94072C511181
:105AB0000C94522C0C940D2C0E942F2C68F39923DB
:105AC000B1F3552391F3951B550BBB27AA276217FA
:105AD0007307840738F09F5F5F4F220F331F441F07
