:100000000C94DC020C94BC1E0C94951E0C940403FE
:100010000C9404030C9404030C9404030C94040344
:100020000C9404030C94521F0C9404030C9412209F
:100030000C94801F0C943B1F0C9404030C94040339
:100040000C944B1E0C9404030C94091F0C94E31E97
:100050000C9404030C9404030C9404030C94040304
:100060000C9404030C94040308000000BE9224497D
:10007000123EABAAAA2ABECDCCCC4C3E00000080DA
:10008000BEABAAAAAA3E00000000BF000000803F4D
:100090000000000000084178D3BB4387D1133D190D
:1000A0000E3CC3BD4282AD2B3E68EC8276BED98F3A
:1000B000E1A93E4C80EFFFBE01C4FF7F3F0000007E
:1000C00000006E616E00696E660000407A10F35A9F
:1000D00000A0724E18090010A5D4E80000E8764888
:1000E000170000E40B54020000CA9A3B000000E134
:1000F000F505000080969800000040420F000000C7
:10010000A08601000000102700000000E8030000A6
:1001100000006400000000000A0000000000010070
:10012000000000002C76D888DC674F0823DFC1DF91
:10013000AE59E1B1B796E5E3E453C63AE651997694
:1001400096E8E6C28426EB898C9B62ED407C6FFCCE
:10015000EFBC9C9F40F2BAA56FA5F490055A2AF710
:100160005C936B6CF9676DC11BFCE0E40D47FEF519
:1001700020E6B500D0ED902E030094357705008081
:10018000841E080000204E0A000000C80C333333E0
:10019000330F986E12831141EF8D2114893BE65580
:1001A00016CFFEE6DB18D1844B381BF77C1D901D63
:1001B000A4BBE424203284725E228100C9F124ECC5
:1001C000A1E53D272B52454D3D00253032782530A5
:1001D0003278002B52454D3D63756269635F696EED
:1001E000742C25752C693263743D253032782530A6
:1001F000327825303278002B52454D3D6368616E70
:100200006E656C3D25752C6D617874696D653D2555
:100210006C750A002B52454D3D6C6576656C3D252D
:10022000642C726573756C743D25642C74696D65FE
:100230003D25750A000A2B52454D3D002530327888
:10024000005B253032785D002B52454D3D002B522E
:10025000454D3D63683D25752C6C3D25752F2575F5
:100260000A004E6F206368616E6E656C7320616377
:10027000746976650025753D25752825752920004A
:100280002B52454D3D002B52454D3D7469636B73B8
:100290003D25640A002B52454D3D7469636B733DE7
:1002A00025640A002B52454D3D66726571002B5244
:1002B000454D3D7A633D25752C3078253034780ADC
:1002C000002B52454D3D7A633D25752C3078253005
:1002D00034780A002B52454D3D7A633D25752C300C
:1002E00078253034780A0025303278002B52454D7D
:1002F0003D76253034782C693263743D2530327870
:10030000253032780041546D656761333238504290
:10031000002C6D696E2E6F6E2D74696D653D2575AF
:100320002C6D696E2E6F66663D25752C5A433D25F2
:10033000750A00252E3366002C5643433D006D613F
:10034000782E74656D703D25752C6D6574726963CA
:10035000733D257500696E742E74656D703D25645E
:100360002F6F66733D25752F6761696E3D25752C6E
:10037000004E54433D252E32662F252B2E32662CFF
:100380000076616C7565733D726573746F72653D5F
:1003900025752C663D252E3366487A2C7672656667
:1003A00031313D252E33662C0072616E67653D2527
:1003B000642D25640A0063756269633D25752C0010
:1003C00074696D6572313D25752F252E32662C6C52
:1003D000766C733D383139322C70696E733D006133
:1003E0006464723D253032782C6D6F64653D256301
:1003F0002C0070726F746F3D554152542C00666131
:1004000064696E675F6576656E74733D312C005666
:1004100043432C00696E742E74656D702C004E542D
:10042000433D4125752C006F7074696F6E733D45B7
:100430004550524F4D3D256C752C0040384D687A23
:100440002C6763633D372E332E30002C4D43553DD2
:10045000007369673D253032782D253032782D259F
:100460003032782C66757365733D6C3A253032787E
:100470002C683A253032782C653A25303278004D98
:100480004F534645542044696D6D657220322E32BB
:100490002E33204465632020382032303232203120
:1004A000393A33353A313320417574686F722073AD
:1004B00061736368615F6C616D6D65727340676DD8
:1004C000782E646500454550524F4D522C633D25B2
:1004D0006C752C703D25752C6E3D256C752C6372EA
:1004E000633D253034780A00424F4F54000000002D
:1004F00000240027002A0000000000250028002B0F
:1005000000040404040404040402020202020203BC
:1005100003030303030102040810204080010204C6
:100520000810200102040810200000000800020149
:10053000000003040700000000000000006469736D
:1005400061626C6564005D2C6C3D5B005D2C793DE7
:100550005B00783D5B002B52454D3D636825643D53
:10056000002B52454D3D454550524F4D572C633D54
:10057000256C752C703D25752C6E3D256C752C7782
:100580003D25752C663D25752C6372633D25303401
:10059000782C6366673D25750A002B493243256335
:1005A0003D002B52454D3D454550524F4D522C6913
:1005B0006E6974004F203D2011241FBECFEFD8E09C
:1005C000DEBFCDBF23E0A0E7B1E001C01D92A332A2
:1005D000B207E1F711E0A0E0B1E0ECEAF1E602C019
:1005E00005900D92A037B107D9F712E0CBEDD2E01C
:1005F00004C02197FE010E94DC2CCA3DD107C9F737
:100600000E9419210C94C9300C940000BC01655D56
:100610007F4F2FEF3FEF86179707D9F0FC014191ED
:10062000CF012427422F42954227042E4695469516
:100630004025042E469540254770022E232F4695CF
:1006400007944795302D2427069447953025242775
:10065000E2CFC901089581EB92E00E9406039093D6
:10066000B0028093AF020895EBE3F2E08FE4DF0184
:100670001D928A95E9F7E9E3F2E08FEF9FEF91830E
:1006800080838BE4858FA5E5B2E08C9181608C93AB
:1006900080E090E0A0E9B0E4868F978FA0A3B1A39B
:1006A0008EE690E093A382A38CE291E095A384A3CD
:1006B00097A386A380E785A78CE986A785E080AB12
:1006C00080E090E0A0ECBFE780AF91AFA2AFB3AF06
:1006D00020E030E835AF24AF84AB95ABA6ABB7AB29
:1006E00085E1E5E5F2E0A5EBB2E001900D928A9597
:1006F000E1F7ECECF2E080E1DF011D928A95E9F789
:1007000008952CE73CE740E052E40E94A12B20E052
:1007100030E040E05FE30E94E32C0E94C12DCB015A
:1007200077FF02C090E080E0811520E2920714F08C
:100730008FEF9FE108952F923F924F925F926F92B9
:100740007F928F929F92AF92BF92CF92DF92EF9261
:10075000FF920F931F93CF93DF93EB011A01FC01DC
:10076000A080B1808A010F5F1F4FF501E00FF11FDC
:10077000608170E090E080E00E94402B6B017C0182
:10078000F1E02F1A3108F501E20DF31D608170E0F0
:1007900090E080E00E94402B4B015C01AC019B018A
:1007A000C701B6010E943B2B8823E9F10990D8814B
:1007B000C02DFE01E00FF11F608170E090E080E04D
:1007C0000E94402B2B013C01C20DD31D688170E0BB
:1007D00090E080E00E94402B9B01AC01C301B2017C
:1007E0000E94E22C2B013C01A5019401C701B60136
:1007F0000E94E22C9B01AC01C301B2010E944F2D6B
:10080000DF91CF911F910F91FF90EF90DF90CF90EC
:10081000BF90AF909F908F907F906F905F904F9020
:100820003F902F90089560E070E0CB01E9CF2F92C8
:100830003F924F925F926F927F928F929F92AF9270
:10084000BF92CF92DF92EF92FF920F931F93CF93BD
:10085000DF93CDB7DEB7E0970FB6F894DEBF0FBEDB
:10086000CDBF9AA389A37CA36BA35EA34DA368010C
:100870007901FC010190F081E02DF8ABEFA76081D8
:1008800070E090E080E00E94402B6D877E878F872C
:10089000988BEBA1FCA120803180A70198010E94D8
:1008A000F72D87FD28C0F101608170E090E080E0C5
:1008B0000E94402B69837A838B839C8369817A8130
:1008C0008B819C81E0960FB6F894DEBF0FBECDBF42
:1008D000DF91CF911F910F91FF90EF90DF90CF901C
:1008E000BF90AF909F908F907F906F905F904F9050
:1008F0003F902F9008958DA19EA101979A8B898B8F
:10090000FC018FA598A9E80FF91F608170E090E0C5
:1009100080E00E94402B6B8B7C8B8D8B9E8B9B0190
:10092000AC01C701B8010E94F72D87FD05C0E98918
:10093000FA892E0E3F1EB7CF6FA478A8FFEF6F1A6B
:100940007F0A10E000E0C8010196988F8F8BF301B9
:1009500061913F0170E090E080E00E94402B4B01EC
:100960005C01AC019B01C701B6010E94F72D87FF16
:1009700044C1EF89F88DE20DF31D608170E090E0D5
:1009800080E00E94402B69837A838B839C83A5013E
:100990009401C701B6010E943B2B882309F48ECF36
:1009A000EFA5F8A9E00FF11F608170E090E080E012
:1009B0000E94402B698F7A8F8B8F9C8F9B01AC019B
:1009C000C501B4010E94E22C6D8F7E8F8F8F98A39A
:1009D000298D3A8D4B8D5C8DC701B6010E94E22CAA
:1009E0002D8D3E8D4F8D58A10E944F2D4B015C01E6
:1009F000AC019B010E94A12B2B013C01AC019B018E
:100A0000C501B4010E94A12B6B017C01AC019B01CB
:100A10000E94E32C6D837E838F83988720E030E0F3
:100A200040E450E4C301B2010E94A12B69877A8798
:100A30008B879C879B01AC016D817E818F8198851E
:100A40000E94E22C20E030E040E85FE30E94E32CCB
:100A50006FA378A789A79AA7A3019201C301B20146
:100A60000E94E32C9B01AC01C701B6010E94E22C5D
:100A7000A50194010E94E32C6BA77CA78DA79EA7DC
:100A80002D813E814F81588569857A858B859C852E
:100A90000E94E22C6D837E838F839887A30192014D
:100AA000C701B6010E94E22C69877A878B879C87F1
:100AB000F101E00FF11F608170E090E080E00E94A2
:100AC000402B2B013C010115110509F099C0F101E2
:100AD000608170E090E080E00E94402B6B017C011F
:100AE000F101618170E090E080E00E94402BA7015D
:100AF00096010E94E22C4B015C01EFA5F8A96181EF
:100B000070E090E080E00E94402B2D853E854F856F
:100B100058890E94E22C9B01AC01C501B4010E94DE
:100B20004F2D4B015C01F101628170E090E080E0AB
:100B30000E94402BA70196010E94E22C6B017C01D0
:100B4000EFA5F8A9628170E090E080E00E94402B60
:100B50002D853E854F8558890E94E22C9B01AC0172
:100B6000C701B6010E944F2D6B017C01A3019201C8
:100B70006FA178A589A59AA50E94A12B2B013C0104
:100B800029813A814B815C816D817E818F8198853D
:100B90000E94A12B9B01AC01C301B2010E94E32C76
:100BA0002B013C012BA53CA54DA55EA56D8D7E8D31
:100BB0008F8D98A10E94A12BA50194010E94A12BC9
:100BC0009B01AC01C301B2010E94E32C4B015C010B
:100BD00029853A854B855C856D8D7E8D8F8D98A19D
:100BE0000E94A12BA70196010E94A12B9B01AC01A1
:100BF000C501B4010E94E32C5DCE0F89188DA3CEF0
:100C00008DA19EA102970817190709F04DC0E98927
:100C1000FA89E20DF31D608170E090E080E00E94AF
:100C2000402B6B017C010DA11EA103501109F101A4
:100C3000E00FF11F608170E090E080E00E94402BA7
:100C40009B01AC01C701B6010E94E22C4B015C0183
:100C50008FA598A9800F911FFC01608170E090E042
:100C600080E00E94402B9B01AC016B897C898D89BF
:100C70009E890E94E22C9B01AC01C501B4010E9437
:100C80004F2D4B015C01A3019201C701B6010E94E7
:100C9000E22C6B017C01298D3A8D4B8D5C8D6B892B
:100CA0007C898D899E8958CFA8016BA17CA189A1DF
:100CB0009AA10E949B034B015C014F89588D6BA147
:100CC0007CA189A19AA10E949B034ECFCF92DF9273
:100CD000EF92FF920F931F93CF93DF9300D000D03A
:100CE000CDB7DEB71091E602112309F440C0BC0174
:100CF00090E080E00E94402B2CE73CE740E052E48B
:100D00000E944F2D6B017C0120E030E04FE753E45F
:100D10000E943B2B87FD06C0C12CD12C8FE7E82E0B
:100D200083E4F82E8091E4029091E5029A8389830E
:100D30008091E2029091E3029C838B83412F50E0EB
:100D400097018601BE016F5F7F4FCE0103960E941F
:100D500017040F900F900F900F90DF91CF911F917C
:100D60000F91FF90EF90DF90CF900C9481030F9044
:100D70000F900F900F90DF91CF911F910F91FF90E7
:100D8000EF90DF90CF900895EF92FF920F931F9313
:100D9000CF93DF93C091A402D091A502E091AB0262
:100DA000F091AC0200851185E284F384DE01A01B82
:100DB000B10BAE19BF09468557854115510501F59F
:100DC0009D01DC010E94D52C2DE0969587957795A5
:100DD00067952A95D1F79B01200F311FCE018E19FF
:100DE0009F098217930728F0C8010217130708F418
:100DF000C901DF91CF911F910F91FF90EF9008955E
:100E000024853585280F391F0E94B22C9A0150E0A5
:100E100040E00E94852CE0CFEFE2F5E08491EBE129
:100E2000F5E09491E7E0F5E0E491EE23B9F0882352
:100E300039F08330F1F098F4813009F1823019F102
:100E4000F0E0EE0FFF1FE950FB4FA591B4918FB773
:100E5000F894EC9190959E239C938FBF08958730D2
:100E6000A9F08830C9F0843059F7809180008F7DD7
:100E700003C0809180008F7780938000E1CF84B59C
:100E80008F7784BDDDCF84B58F7DFBCF8091B0009F
:100E90008F778093B000D4CF8091B0008F7DF9CF51
:100EA0000895CF93DF9390E0FC01EB5EFA4F24911D
:100EB0008F5F9A4FFC0184918823D1F090E0880FD6
:100EC000991FFC01E351FB4FA591B491FC01E9503E
:100ED000FB4FC591D49161110EC09FB7F8948C91CE
:100EE000E22FE0958E238C932881E223E8839FBF35
:100EF000DF91CF9108958FB7F894EC91E22BEC93AA
:100F00008FBFF6CFCF92DF92EF92FF92CF93DF9316
:100F10001F92CDB7DEB7C0906D02D0906E02E09008
:100F20006F02F090700220E030E0A901C701B60125
:100F30000E943B2B882341F1A7019601C701B6010E
:100F40000E944C2E811120C0198210922E02F8941A
:100F5000E99880E597E090930301809302018091E6
:100F60006F00887D80936F00109281000E940C07B3
:100F700060E086E00E945107809170008E7F809330
:100F800070001092B10078940F90DF91CF91FF9094
:100F9000EF90DF90CF9008953FB7F89480917B0158
:100FA00090917C01A0917D01B0917E0126B5A89B16
:100FB00005C02F3F19F00196A11DB11D3FBFBA2FEB
:100FC000A92F982F8827BC01CD01620F711D811DAB
:100FD000911D43E0660F771F881F991F4A95D1F72F
:100FE00008958F929F92AF92BF92CF92DF92EF922D
:100FF000FF924B015C010E94CC076B017C010E94B7
:10100000CC076C197D098E099F09683E73408105E4
:101010009105A8F321E0821A9108A108B10888EE91
:10102000C80E83E0D81EE11CF11C81149104A104B8
:10103000B10429F7FF90EF90DF90CF90BF90AF9071
:101040009F908F9008952FB7F894609177017091D9
:1010500078018091790190917A012FBF08958F9244
:101060009F92AF92BF92CF92DF92EF92FF920E9437
:1010700023086B017C0180912E0280FD2FC080909F
:10108000DE029090DF02A090E002B090E1029FB7F4
:10109000F89480912E02816080932E029FBF0E945F
:1010A0002308C818D908EA08FB0829E8C21623E172
:1010B000D206E104F104DCF438E8C32E33E1D32E88
:1010C000E12CF12CC60ED71EE81EF91EC092DE02DE
:1010D000D092DF02E092E002F092E102FF90EF9006
:1010E000DF90CF90BF90AF909F908F90089524EFA6
:1010F000C22EDD24D394E12CF12CE4CFAF92BF9229
:10110000CF92DF92EF92FF920F931F93CF93DF93D3
:101110006C017B018B01040F151FEB015E01AE1802
:10112000BF08C017D10759F06991D601ED91FC9124
:101130000190F081E02DC6010995892B79F7C50151
:10114000DF91CF911F910F91FF90EF90DF90CF90A3
:10115000BF90AF900895FC01538D448D252F30E052
:10116000842F90E0821B930B541710F0CF960895B4
:1011700001970895FC01918D828D981761F0A28DE1
:10118000AE0FBF2FB11D5D968C91928D9F5F9F73A7
:10119000928F90E008958FEF9FEF0895FC01918D5D
:1011A000828D981731F0828DE80FF11D858D90E0CA
:1011B00008958FEF9FEF0895FC01918D228D892F67
:1011C00090E0805C9F4F821B91098F73992708954F
:1011D00087E891E00E94DC0821E0892B09F420E0F7
:1011E000822F0895FC01A48DA80FB92FB11DA35A19
:1011F000BF4F2C91848D90E001968F739927848F37
:10120000A689B7892C93A089B1898C918370806459
:101210008C93938D848D981306C00288F389E02DFA
:1012200080818F7D80830895EF92FF920F931F93AB
:10123000CF93DF93EC0181E0888F9B8D8C8D981389
:101240001AC0E889F989808185FF15C09FB7F89495
:10125000EE89FF896083E889F989808183708064E1
:1012600080839FBF81E090E0DF91CF911F910F912C
:10127000FF90EF900895F62E0B8D10E00F5F1F4F3B
:101280000F731127E02E8C8D8E110CC00FB607FC4A
:10129000FACFE889F989808185FFF5CFCE010E94D8
:1012A000F208F1CFEB8DEC0FFD2FF11DE35AFF4F4C
:1012B000F0829FB7F8940B8FEA89FB898081806266
:1012C000CFCF0F931F93CF93DF938C01D0E0C0E07B
:1012D000F801EC0FFD1F6491662341F087E891E06F
:1012E0000E941409892B11F02196F2CFCE01DF91D3
:1012F000CF911F910F910895682F87E891E00C948A
:101300001409CF93DF93EC01888D8823B9F0AA8963
:10131000BB89E889F9898C9185FD03C0808186FDB0
:101320000DC00FB607FCF7CF8C9185FFF2CF8081FF
:1013300085FFEDCFCE010E94F208E9CFDF91CF917A
:101340000895DC01ED91FC910190F081E02D6A306F
:1013500010F4605D0994695AFDCFDC01ED91FC91B8
:101360000190F081E02D6AE00994DC015E968D9198
:101370009C915F975C962D913C915D9782179307A6
:1013800040F45A96ED91FC91E80FF91F808190E0AE
:1013900008958FEF9FEF0895FC01848D958D268D24
:1013A000378D821B930B0895EF92FF920F931F933B
:1013B000CF938C01C62F70E084E0759567958A9570
:1013C000E1F7F80184A995A90E94A1097C016C2F7D
:1013D0006F70F80184A995A90E94A1098E0D9F1D27
:1013E000CF911F910F91FF90EF900895FC01248100
:1013F0003581828193812817390768F48081918132
:10140000A9014F5F5F4F55834483FC01E20FF31F37
:10141000808190E008958FEF9FEF08954A960C9495
:10142000F609089590E080E0089580917A00806444
:1014300080937A0080917A0086FDFCCF80917800BD
:101440009091790008951F93CF93DF930E94150A1E
:10145000EC01CF3F83E0D80710F0CFEFD3E018E0E6
:10146000115059F061E070E080E090E00E94F107D7
:101470000E94150AC80FD91FF3CFCE0123E0880FB1
:10148000991F2A95E1F7DF91CF911F910895CF928F
:10149000DF92EF92FF92CF93DF93C9E3D2E04CA5A6
:1014A0002EEE3CE742036001439FD00C11240D2C2B
:1014B000000CEE08FF0880E7C81A8EEFD80A83EB0D
:1014C000E80A8BEFF80A8EE480937C0064E170E018
:1014D00080E090E00E94F1070E94230A9C0150E006
:1014E00040E0C701B6010E94852C3FAF2EAFC90175
:1014F000DF91CF91FF90EF90DF90CF90089588EC2F
:1015000080937C0064E170E080E090E00E94F1074D
:101510000E94230AE9E3F2E025A530E025573F4F7A
:1015200046E0969587954A95E1F7820F931F969529
:10153000982F88279795879566A570E00E94C12C03
:10154000CB01499608952F923F924F925F926F92EE
:101550008F929F92AF92BF92CF92DF92EF92FF92C3
:101560000F931F93CF93DF93C0908400D09085009A
:10157000B09B0EC02FEFC216D20651F080917201BF
:101580009091730101969093730180937201B09AC8
:10159000C0917401D0917501809172019091730195
:1015A000EE81FF819F012F5F3F4F3F832E83F7FF27
:1015B00012C0DF91CF911F910F91FF90EF90DF90BC
:1015C000CF90BF90AF909F908F906F905F904F9013
:1015D0003F902F900895AF01440F551FE40FF51F62
:1015E000EC0FFD1FA0E0A82F99278827E12C8C295C
:1015F0009D29AE2982879387A48720383105C9F6B3
:10160000E99880E597E090930301809302011882A6
:1016100019821A821B828E819F811C0131E0231A5C
:1016200031083F822E82813491051CF28E01065FC3
:101630001F4FF80150E040E020E0812C912C540134
:1016400042155305FCF44F5F5F4FC190D190E1907C
:1016500080819181A2818C199D09AE096C01EA2ECD
:1016600034E0C31A3CEFD30AE10832E8C31639E488
:10167000D306E10428F7B0E0880E991EAA1EBB1E0F
:101680002F5FDECF213408F494CF30E050E040E00B
:10169000C501B4010E94852C49015A01842FB9016A
:1016A00090E00E94402B2AE037ED43EA5CE30E9481
:1016B000A12B0E94C82D9B0140E024016A2C421AF4
:1016C000530A640A280D391D4A1D70E060E0F12CB0
:1016D000812C912C540162157305E4F46F5F7F4FE8
:1016E000F801C190D190E1908F0180819181A28118
:1016F0008C199D09AE0984159505A60560F3281778
:1017000039074A0740F3B0E0880E991EAA1EBB1E97
:10171000F394E1CFF0E4FF1508F04BCFC501B4011D
:101720000E94402B4B015C016F2D70E090E080E047
:101730000E94402B9B01AC01C501B4010E944F2DBA
:1017400020E030E040E05EE30E94A12B9B01AC0171
:1017500060E074E284EF98E40E944F2D68837983FF
:101760008A839B8326CFFC01862F20813181A901AA
:1017700041505109518340831216130624F481E02D
:1017800093E00E94F609089520914302420F40938E
:10179000430202970CF060ED60938902089597FF71
:1017A00002C090E080E0813020E2920714F080E0F7
:1017B00090E20895882311F05E9A08955E98089546
:1017C000CF93DF93EC0180E1FB0111928A95E9F759
:1017D000FB0190E08C81981788F4292F30E0A881D4
:1017E000B981A20FB31F8C918083AA81BB81A20F04
:1017F000B31F8C91818332969F5FECCFDF91CF91A5
:10180000089584EC91E00C946109AF92BF92DF924D
:10181000EF92FF920F931F93CF93DF935C010FEA38
:1018200012E0D0E0C0E0F801D1908F017501EC0E1C
:10183000FD1EC7010E945F2CD81621F06D2DC70137
:101840000E94672C2196CD32D10569F78FEA92E08C
:10185000DF91CF911F910F91FF90EF90DF90BF909C
:10186000AF900895CF92DF92EF92FF920F931F9364
:10187000CF93DF93EB017B012DE2E20EF11C8B0194
:101880006C01C61AD70AC601800F911F0E945F2CF7
:10189000F80181938F01EE15FF05A9F7CE01DF91C5
:1018A000CF911F910F91FF90EF90DF90CF9008950F
:1018B0006F927F928F929F92AF92BF92CF92DF9260
:1018C000EF92FF920F931F93CF93DF93CDB7DEB7C5
:1018D000C054D1090FB6F894DEBF0FBECDBF6C0166
:1018E0005B014A019A01AB0160E470E0CE01019610
:1018F0003C01F60109957C018F3391057CF102963C
:101900000E94862E8C01009759F19401A501B70120
:10191000F60109957C01A701B80187E891E00E94D2
:101920007E086016710619F0C8010E94222FC701B7
:10193000C05CDF4F0FB6F894DEBF0FBECDBFDF91A6
:10194000CF911F910F91FF90EF90DF90CF90BF90BC
:10195000AF909F908F907F906F9008958301DBCF21
:10196000E12CF12CE4CFF894E99880E597E090938E
:10197000030180930201EFE6F0E08081887D80839F
:101980001092810080917401909175010E94222F24
:10199000109275011092740178940895CF92DF929D
:1019A000EF92FF92CF93DF93C0917401D0917501B4
:1019B000209709F056C00E94820764E670E080E03C
:1019C00090E00E94F1078AE891E00E94862EEC01E7
:1019D00080E090E0A0ECBFE788839983AA83BB8373
:1019E0001D821C828BEF9FEF9F838E830E942308B2
:1019F00079876887FE013A96CE0186579E4F1192ED
:101A000011921192E817F907D1F7D0937501C0939D
:101A10007401CD2B41F480E0DF91CF91FF90EF90E6
:101A2000DF90CF900895F89483EA9AE090930301B1
:101A300080930201809169008C6080936900E99A2B
:101A400010928500109284001092800081E08093B3
:101A5000810080916F00816080936F00B09A7894CC
:101A6000DACFC880D980EA80FB80A7019601C70140
:101A7000B6010E944C2E81111BC020E030E0A9016C
:101A8000C701B6010E943B2B811106C0C12CD12C8D
:101A900080ECE82E8FE7F82EC0926D02D0926E0295
:101AA000E0926F02F09270020E94B30C81E0B4CF1A
:101AB0000E94230828853985621B730B603D77409F
:101AC00008F4A9CF80E090E0A0ECBFE780936D021E
:101AD00090936E02A0936F02B0937002E5CFCF9304
:101AE000DF93EC0188819981009731F00E94222FC9
:101AF000198218821B821A821C82DF91CF9108956D
:101B0000CF92DF92EF92FF921F93CF93DF93EC017E
:101B1000FC013296888111E09081891728F4329671
:101B20001F5F892F1830C1F782EE92E00E946F0D7F
:101B30001130F1F01093E602C12ED12C7601EE0C9B
:101B4000FF1CC7010E94862E21E0E21AF108FC0169
:101B5000119221E0E21AF108F7FEFACF9093E30226
:101B60008093E2028C0D9D1D9093E5028093E40228
:101B70008091E2029091E302892BD1F090E080E025
:101B80002091E602821780F429813881A091E20237
:101B9000B091E302A80FB91F3C93A091E402B09169
:101BA000E502A80FB91F2C9322960196811740F3E6
:101BB000DF91CF911F91FF90EF90DF90CF9008952C
:101BC000CF93DF93CDB7DEB7AE01475F5F4F6F8135
:101BD00078858EEA9AE20E94580CDF91CF910895A1
:101BE000CF93DF93CDB7DEB7AE01475F5F4F6F8115
:101BF00078858DE990E30E94580CDF91CF9108958C
:101C0000CF93DF93EC0188819981009721F00E94A6
:101C1000222F198218821F821E821B821A821D8225
:101C20001C82DF91CF910895CF93DF9300D000D035
:101C300000D0CDB7DEB78FB7F894E091AD02F09148
:101C4000AE022485358530938B0220938A028FBFA4
:101C50008091550230918A0220918B0284FF54C0FA
:101C6000832F922F0E946606811520E292070CF0C6
:101C70004EC0181619060CF04DC00E94C406E09123
:101C8000AB02F091AC02208121FF08C02091A40298
:101C90003091A502A901481B590BCA019B838A8375
:101CA000198221E081E0082E000C990BFC01EE0F57
:101CB000FF1FE80FF91F81E090E08C0F9D1FE80FD8
:101CC000F91F1082118212829FB7F8948091A602A8
:101CD000821739F02093A60280912E0280618093B2
:101CE0002E0286E0FE013196AEE9B2E001900D923F
:101CF0008A95E1F79FBF26960FB6F894DEBF0FBE18
:101D0000CDBFDF91CF910895832F922FADCF21E0EA
:101D100080E0C9CF20E0FCCFCF93DF93C82FCB0169
:101D2000D42F0E94CF0BE091AD02F091AE022C2F88
:101D3000CC0F330BA9014A5F5F4F440F551FE40FCF
:101D4000F51F918380838CE0829FF001839FF00DCB
:101D50001124E657FD4F13861286220F331FF90117
:101D6000E657FD4F878D90A10196C9F08091AD0295
:101D70009091AE02480F591FDA018D919C9190A36A
:101D8000878F9FB7F89480912E02806280932E02F5
:101D900025E33CE030932502209324029FBFDD23FE
:101DA00021F0DF91CF910C94140EDF91CF91089523
:101DB0008F929F92AF92BF92CF92DF92EF92FF925B
:101DC0000F931F93CF93DF93EB0149015A012FEF3C
:101DD0003FEF3093AA022093A9024FB7F8943091B5
:101DE0008A0220918B024FBF6F3F7F4FD1F46091E9
:101DF0008C0270918D0280918E0290918F020E94D0
:101E0000C12D40E080E0DF91CF911F910F91FF90B5
:101E1000EF90DF90CF90BF90AF909F908F900C94F9
:101E20008C0E8F3F980711F0382F292F832F922F78
:101E30000E94CF0B8C01CE010E94CF0B801B910B17
:101E4000BC01990F880B990B0E94422B6B017C01FE
:101E500020E030E0A9010E943B2B811103C040E04B
:101E6000BE01D0CF20E030E040E059E3C701B60129
:101E70000E94A12BA50194010E94A12B4B015C01A2
:101E800020E030E0A9010E94F72D181624F0B7FADF
:101E9000B094B7F8B09420916D0230916E024091E9
:101EA0006F0250917002C501B4010E94A12B9B01E9
:101EB000AC010E94E32C0E94C82D709395026093A0
:101EC00094026115710559F290E080E00E94402B68
:101ED0009B01AC01C701B6010E944F2D6B017C0133
:101EE000C0929002D0929102E0929202F0929302FC
:101EF000B801110F880B990B0E94422B60938C0242
:101F000070938D0280938E0290938F02D0939702EC
:101F1000C093960220E030E0A901C701B6010E94FB
:101F20003B2B811106C081E090E090939502809355
:101F30009402DF91CF911F910F91FF90EF90DF906E
:101F4000CF90BF90AF909F908F9008950F931F9365
:101F5000CF93DF938091B200B89B0DC08091B20007
:101F60008F3F49F08091700190917101019690939B
:101F70007101809370011092B200B89A8091700143
:101F800090917101109271011092700180916F0017
:101F9000846080936F0080915B0290915C029093CB
:101FA0008B0080938A00809184009091850020911D
:101FB0008A0030918B00820F931F90938B00809347
:101FC0008A00B29A78948FB7F8949091A8029111F0
:101FD00010C091E09093A8028FBFC0919402D0915D
:101FE0009502209761F40E94140E8FB7F894109216
:101FF000A8028FBFDF91CF911F910F91089520917B
:10200000900230919102409192025091930260911E
:102010008C0270918D0280918E0290918F020E94AD
:10202000E32C60938C0270938D0280938E029093C8
:102030008F022197D0939502C09394020091AD0234
:102040001091AE02CD2BF1F48091960290919702FF
:10205000F8019587848780919602909197029093DA
:10206000AA028093A9029FB7F89480912E02806201
:1020700080932E0225E33CE0309325022093240236
:102080009FBFB1CF0E94C12DF80175876487ABCF88
:102090000F931F93CF93DF938C01CB01F801248121
:1020A0003581C281D381C21BD30B4C175D0708F465
:1020B000EA01F80160817181620F731F0E94813013
:1020C000F801848195818C0F9D1F95838483CE01B7
:1020D000DF91CF911F910F910895FB010190002096
:1020E000E9F73197AF01461B570BDC01ED91FC91ED
:1020F0000280F381E02D099465E371E087E891E0C7
:102100000C946D10CF93DF930E946109EC010E9443
:102110007C108C0F9D1FDF91CF9108957F928F923D
:102120009F92AF92BF92CF92DF92EF92FF920F9366
:102130001F93CF93DF9300D000D000D0CDB7DEB790
:102140008FEF9FEF9A8389831B821C821D821E82E0
:102150008DE2E82EF12C67018DE2C80ED11C9BE0C8
:10216000C91694E0D906D9F0DE0111965D0110E0A0
:1021700000E0F50171905F014701800E911EC401DE
:102180000E945F2C781621F0672DC4010E94672CF5
:102190000F5F1F4F0630110561F77601DCCF1092FB
:1021A000DD021092DC02EFEAF2E08DE2DF011D9227
:1021B0008A95E9F781E090E0A0E0B0E08093B10279
:1021C0009093B202A093B302B093B4020E9434037E
:1021D0000E942B0390E080E00E94050C9FB7F894CA
:1021E00080912E028E7F80932E0280912E028D7F11
:1021F00080932E029FBF82EA95E026960FB6F89450
:10220000DEBF0FBECDBFDF91CF911F910F91FF9029
:10221000EF90DF90CF90BF90AF909F908F907F9086
:102220000C9482108F929F92AF92BF920F931F9344
:10223000CF93DF93CDB7DEB7A1970FB6F894DEBF8B
:102240000FBECDBF19A2423008F44AE08E010F5DE7
:102250001F4F842E912CB12CA12CA50194010E941A
:10226000852CE62FB901CA01EA3004F5E05DD801FA
:10227000EE938D01232B242B252B79F790E080E022
:10228000109729F0BD0187E891E00E946D10A1969A
:102290000FB6F894DEBF0FBECDBFDF91CF911F9177
:1022A0000F91BF90AF909F908F900895E95CDFCF22
:1022B000CF92DF92EF92FF92CF93DF936C01990F51
:1022C000EE08FF08F7FE17C08DE20E947C09EC01C2
:1022D00066277727CB016C197D098E099F094AE093
:1022E0000E9412118C0F9D1FDF91CF91FF90EF90F4
:1022F000DF90CF9008954AE0C701B601DF91CF91FA
:10230000FF90EF90DF90CF900C9412114F925F925C
:102310006F927F92AF92BF92CF92DF92EF92FF9235
:102320000F931F93CF93DF9300D000D0CDB7DEB7CC
:10233000D82E1F921F9286E595E09F938F9387E892
:1023400091E09F938F930E94E00DA090E6020F9082
:102350000F900F900F900F900F90AA2009F4AFC02C
:1023600082E595E00E946109F12CE12CEA14B0F4B9
:10237000EE2019F08CE20E947C09E091E202F091DB
:10238000E302EE0DFF1D608170E090E080E04AE026
:102390000E9412118FEFE81AF80AE8CF8CE495E05A
:1023A0000E946109F12CE12CEA1498F4EE2019F056
:1023B0008CE20E947C09E091E402F091E502EE0DCE
:1023C000FF1D808190E00E9458118FEFE81AF80AF3
:1023D000EBCF86E495E00E9461096D2D70E090E0FE
:1023E00080E00E94422B20E030E040E85FE30E9462
:1023F000E32C9B01AC0160E078EF8FEF95E40E9445
:102400004F2D9B01AC0160E070E08FE793E40E94E8
:102410004F2D2B013C01C12CD12C7601B12C809188
:10242000E4029091E5029A8389838091E20290917F
:10243000E3029C838B8397018601A501BE016F5F38
:102440007F4FCE0103960E9417040E9481030E94D1
:102450005811A3019201C701B6010E94E32C6B0140
:102460007C0126E636E64FE753E40E943B2B87FDCE
:1024700018C08DE50E947C090E947C100F900F907F
:102480000F900F90DF91CF911F910F91FF90EF90E0
:10249000DF90CF90BF90AF907F906F905F904F9004
:1024A000089520E030E0A901C701B6010E943B2B4E
:1024B000882309F4B4CF8CE20E947C09B0CF8DE36D
:1024C00095E00E948210DACF0F931F93CF93DF9392
:1024D000EC01088519850617170708F48B01095FB9
:1024E0001F4F087F8E819F818017910721F188817E
:1024F00099810115110549F1009719F1B8010E9460
:10250000AB2F9983888388819981892B11F410E0FE
:1025100000E01F830E838A819B810817190710F43E
:102520001B830A838A819B812C813D8182179307BB
:1025300010F49D838C8381E0DF91CF911F910F91E7
:102540000895C8010E94862EDCCF009701F30E94F7
:10255000222F19821882DDCF1F93CF93DF93EC01D6
:102560008A819B819C012F5F3F4F4E815F81841741
:10257000950750F4E881F9813B832A83E80FF91F1E
:10258000608381E090E00CC0162FB901CE010E945B
:102590006412811109C0CE010E94000E90E080E01B
:1025A000DF91CF911F910895E881F9818A819B8104
:1025B0009C012F5F3F4F3B832A83E80FF91F108355
:1025C000E0CFCF93DF93EC018A89882381F08C8D53
:1025D0009D8D8F3F910530F081E08E871D86DF91C4
:1025E000CF910895CE014A960E94AC12F7CF8C8508
:1025F0008617170689F781E08A8BF0CFFC01978553
:102600009D7F913021F4CF0184960C94AC1290E020
:1026100080E00895FC011582148213821282608585
:102620007185695F7F4F687F0C9464128F929F92CF
:10263000AF92BF92DF92EF92FF920F931F93CF93CF
:10264000DF93EC01D62EECA0FDA008A519A5AEA045
:10265000BFA08CA99DA9DC01ED91FC910680F781BA
:10266000E02D0995B2E5DB1631F0E4E5DE1619F050
:10267000F1E4DF121DC08CA89DA8DF928AE995E0E5
:102680009F938F931F9288E08F938FE791E09F93A2
:102690008F930E947E2A6FE771E0C4010E946D1043
:1026A0008DB79EB707960FB6F8949EBF0FBE8DBF2D
:1026B0000E0D1F1DEA0CFB1C0E151F0539F0D8016D
:1026C0006D918D01CE010E94D409F6CF8CA99DA9F0
:1026D0000E94AD098CA99DA9DC01ED91FC910680B9
:1026E000F781E02D0995CE0184960E940A131F867A
:1026F00080E0DF91CF911F910F91FF90EF90DF90DD
:10270000BF90AF909F908F900895CF9380910F03CB
:102710009091100320910D0330910E0382179307BF
:10272000D0F4E0910B03F0910C03E80FF91F8081C6
:1027300090E02091F602213089F487FD19C02091A4
:10274000F302C7E02817190651F064E587EE92E01E
:10275000CF910C9416138FEF9FEFEBCFC8E08BE077
:1027600093E00E940A131092F6028C2FCF910895E5
:10277000C6E0F5CF1F93CF93DF93162F21E0FC0126
:102780002787EC01A496CE010E940A13612FCE0187
:10279000DF91CF911F910C94AC12EF92FF920F93A7
:1027A0001F93CF93DF93EC018B017A018F858D7F8F
:1027B000813051F0F12CE12CC701DF91CF911F91B5
:1027C0000F91FF90EF9008956EA17FA1640F751F88
:1027D0008AA59BA56817790788F42CA13DA18EA135
:1027E0009FA1A701B801820F931F0E9481308EA183
:1027F0009FA18E0D9F1D9FA38EA3DECF6F5F7F4F86
:10280000CE0184960E9464128111E7CFD3CFFF924C
:102810000F931F93CF93DF93CDB7DEB7E5970FB636
:10282000F894DEBF0FBECDBFF82E8E01025D1F4FA4
:1028300088E0F80111928A95E9F780912E0281FFD4
:1028400012C08DA981608DAB85E1E5E5F2E0A5EBD5
:10285000B2E001900D928A95E1F76CEC72E082EEA5
:1028600092E00E94E00B8091450290914602909385
:10287000CB028093CA020E942B03BE016F5F7F4F81
:102880008091DC029091DD020E94320CF1100BC0AD
:102890004DE250E0BE016F5F7F4F8FEA92E00E94F1
:1028A0007430892BC9F08091DC029091DD029C018B
:1028B000265A3F4F2115344008F0A3C08D969093BF
:1028C000DD028093DC028091DC029091DD020E94A7
:1028D000050C8DE28CAB01C01CAA0E9423086093FA
:1028E000DE027093DF028093E0029093E1029FB7D3
:1028F000F89480912E028E7F80932E0280912E027A
:102900008D7F80932E029FBF8091B1029091B20281
:10291000A091B302B091B4028EA79FA7A8ABB9ABA8
:102920008091DC029091DD029BAB8AAB68E187EE7F
:1029300092E00E94BA1363EF87EE92E00E94FE12CB
:1029400048E050E0B80187EE92E00E94CD130E946B
:102950008513E091DC02F091DD028DA981701F9258
:102960008F938091B0028F938091AF028F938DA946
:102970001F928F938CA91F928F932091B102309157
:10298000B2024091B3025091B402A6E1B0E00E94BD
:10299000A72C8B019C010651110921093109CF0196
:1029A0006DE270E00E94C12C060F171F211D311D22
:1029B0003F932F931F930F93FF93EF9389A98F93C7
:1029C00088A98F938FA58F938EA58F9381E695E02D
:1029D0009F938F9387E891E09F938F930E94E00DE0
:1029E0000FB6F894DEBF0FBECDBFE5960FB6F894D4
:1029F000DEBF0FBECDBFDF91CF911F910F91FF9032
:102A000008951092DD021092DC028091B102909143
:102A1000B202A091B302B091B4020196A11DB11D02
:102A20008093B1029093B202A093B302B093B40228
:102A30000E942B0348CF609189026058770B675C36
:102A40007D4F8091430287FD12C04AE852E0461B49
:102A5000570B413560F484170CF4482F1092430251
:102A6000042E000C550B87EE92E00C94CD1340E041
:102A7000F5CF462F50E0BC0187EE92E00E94CD13C7
:102A80000C948513BF92CF92DF92EF92FF920F9337
:102A90001F93CF93DF93EC01162F8E856A3009F0D8
:102AA000A3C0823030F08D85833008F46DC081E0A2
:102AB0008E878E85823008F453C08A89882309F472
:102AC0004FC08C8D9D8D009711F421E02E872E85AF
:102AD000223009F47EC0233009F042C0CE014A966C
:102AE0000E940A138F85882309F462C01C858CA973
:102AF0009DA9DC01ED91FC910680F781E02D0995FF
:102B0000ECA8FDA881E48F938AE995E09F938F93C9
:102B10001F9288E08F938FE791E09F938F930E949D
:102B20007E2A6FE771E0C7010E946D10612FCE0110
:102B30000E94D4098CA99DA90E94AD098CA99DA9C8
:102B4000DC01ED91FC910680F781E02D09952DB710
:102B50003EB7295F3F4F0FB6F8943EBF0FBE2DBF63
:102B60001E861D868A89882329F0CE014A960E94F6
:102B70000A131A8ADF91CF911F910F91FF90EF9066
:102B8000DF90CF90BF900895813009F490CF8230CC
:102B900009F08FCF1D8A40E150E070E060E0CE0187
:102BA00043960E946C2870E0CE010E94E11281CF12
:102BB0006C85CE010E94BA13E8A9F9A9309721F0DB
:102BC000188A099581E0888B61E4CE010E94161372
:102BD000C7CF188A2E8D3F8DEEA5FFA5821B930BC4
:102BE000099581E0888BBCCF813021F26D3011F2E4
:102BF000811179C0ED85E1116DC06B3209F06DC0B6
:102C000081E08E0F8D87EC0FFD2FF11D138BFE01E0
:102C1000E80FF11D138A8B898B3209F0ABCF6E015F
:102C200033E1C30ED11C82E58F938AE9E82E85E05B
:102C3000F82EFF92EF921F9298E0B92EBF920FE705
:102C400011E01F930F930E947E2AB801C6010E94D3
:102C50008A30ADB7BEB717960FB6F894BEBF0FBE99
:102C6000ADBF892BF1F181E48F93FF92EF921F9218
:102C7000BF921F930F930E947E2AB801C6010E9443
:102C80008A302DB73EB7295F3F4F0FB6F8943EBF4D
:102C90000FBE2DBF892B09F46DCF84E58F93FF9272
:102CA000EF921F92BF921F930F930E947E2AB8014A
:102CB000C6010E948A30ADB7BEB717960FB6F8941A
:102CC000BEBF0FBEADBF892B09F054CF82E08E8707
:102CD0001D8650CFE63008F493CF1D8681E08E87A5
:102CE00049CF83E0F4CFE62EF12CC7010E94683073
:102CF000892B19F1ED8581E08E0F8D87EC0FFD2F6B
:102D0000F11D138B833050F7823009F033CF1D8AC9
:102D100040E150E070E060E0CE0143960E946C28F4
:102D200070E0CE01DF91CF911F910F91FF90EF9056
:102D3000DF90CF90BF900C94E1121C3209F41ACFAF
:102D4000C7010E942F2A892B49F214CFCF93DF931A
:102D5000C0911B03D0911C03E881F9810084F185A7
:102D6000E02DCE010995892B69F0E881F981028473
:102D7000F385E02DCE010995682F87EE92E00E9441
:102D80004215EACFDF91CF9108950E94E8088111A2
:102D90000C94A6160895CF92DF92EF92FF9286E4EC
:102DA00080937C0064E170E080E090E00E94F10795
:102DB0000E94230ABC0190E080E00E94402B9B010E
:102DC000AC0160E070EC8FE797E40E944F2D20E0AB
:102DD00030E040E85FE30E94E22C23EC35EF48EA64
:102DE0005EE30E94A12B0E94042E20E030EE46E715
:102DF00055E40E944F2D2FE03FEC4BE55BE30E9432
:102E0000E32C9B01AC0160E070E080E89FE30E944E
:102E10004F2D23E333E948E853E40E94E22C6B0191
:102E20007C01609168026F3FB1F0062E000C770BB9
:102E3000880B990B0E94422B20E030E040E85EE3D3
:102E40000E94A12BA70196010E94E32CFF90EF9016
:102E5000DF90CF90089560E070E080EC9FE7F2CFC4
:102E60000F931F93CF93DF930E94010C8FE794E0A1
:102E70000E94821087E891E00E9481090E94010C63
:102E800081E230E020E0F90180935700649142E054
:102E900050E0FA01809357007491E4E0F0E08093F1
:102EA0005700849199E0F901909357002491E3E051
:102EB000F0E0909357003491FA0190935700949169
:102EC0001F929F931F923F931F922F931F928F9356
:102ED0001F927F931F926F9381E594E09F938F934E
:102EE000C7E8D1E0DF93CF930E94E00D8BE494E03C
:102EF0000E94610985E093E00E9461098BE394E000
:102F00000E948210CE010E9481090E94010C209132
:102F1000B1023091B2024091B3025091B402A6E1E5
:102F2000B0E00E94A72C8B019C01065111092109D8
:102F300031098091DC029091DD026DE270E00E9427
:102F4000C12C060F171F211D311D3F932F931F9377
:102F50000F9387E294E09F938F93DF93CF930E9428
:102F6000E00D1F9286E08F938EE194E09F938F9304
:102F7000DF93CF930E94E00D84E194E00E94610909
:102F80008FE094E00E9461098EEF93E00E94610956
:102F900082EF93E00E94610980915502EDB7FEB780
:102FA0007E960FB6F894FEBF0FBEEDBF81FD34C113
:102FB00084E51F928F931F9287E18F938FED93E0AB
:102FC0009F938F93C7E8D1E0DF93CF930E94E00DEA
:102FD0008FE38F9380E88F931F921F921F9288E058
:102FE0008F9380EC93E09F938F93DF93CF930E9416
:102FF000E00D4AE066E070E080E090E00E9412118F
:103000008CE20E947C0980915502829581701F920A
:103010008F9386EB93E09F938F93DF93CF930E94E0
:10302000E00D2091630230916402EDB7FEB778960F
:103030000FB6F894FEBF0FBEEDBF2115310509F4A0
:10304000EDC08091610290916202281B390B50E023
:1030500040E060E070E080E094E00E94852C3F93C7
:103060002F93809162028F93809161028F9389EAFE
:1030700093E09F938F93C7E8D1E0DF93CF930E94B3
:10308000E00DCE010E9481090E94010C8091650231
:10309000082E000C990B982F88279295907F092E67
:1030A000000CAA0BBB0B83539343A347B04CBF93B5
:1030B000AF939F938F93809170028F9380916F0253
:1030C0008F9380916E028F9380916D028F93809188
:1030D000550281701F928F9381E893E09F938F93A5
:1030E000DF93CF930E94E00D609168028DB79EB789
:1030F00046960FB6F8949EBF0FBE8DBF6F3F09F482
:1031000090C0062E000C770B880B990B0E94422B67
:1031100020E030E040E85EE30E94A12BEB01182F95
:10312000092F0E94CB160F931F93DF93CF939F938A
:103130008F937F936F9381E793E09F938F93C7E87B
:10314000D1E0DF93CF930E94E00D009167021091D0
:1031500066020E947F0A1F920F931F921F939F93F4
:103160008F9385E593E09F938F93DF93CF930E9496
:10317000E00D809169021F928F93809156021F92F9
:103180008F938EE393E09F938F93DF93CF930E946F
:10319000E00D88E393E00E9461090E94470A9C01C8
:1031A00021503109EDB7FEB77E960FB6F894FEBFF9
:1031B0000FBEEDBF2E3F3F4FC8F18FE20E947C094A
:1031C00080915C028F9380915B028F93809160026B
:1031D0008F9380915F028F9380915E028F93809195
:1031E0005D028F9381E193E09F938F9387E891E055
:1031F0009F938F930E94E00D8DB79EB70A960FB6EE
:10320000F8949EBF0FBE8DBF87E891E0DF91CF910C
:103210001F910F910C9481098CE4CBCE20E030E219
:103220001ECFC0E0D0E010EC0FE77BCFBC0190E0F8
:1032300080E00E94402B20E030E04AE754E40E9406
:103240004F2D9F938F937F936F9383E393E09F938F
:103250008F93DF93CF930E94E00D4DB75EB7485F29
:103260005F4F0FB6F8945EBF0FBE4DBFA9CF2F9230
:103270003F924F925F926F927F928F929F92AF9206
:10328000BF92CF92DF92EF92FF920F931F93CF9353
:10329000DF93CDB7DEB7A1970FB6F894DEBF0FBEB0
:1032A000CDBF9A8F898F80ED80938902109244025E
:1032B0001092430267E8262E61E0362E898D9A8DA2
:1032C0009C01215031093A8F298F181619060CF0EC
:1032D000C9C41091890281E093E00E94F609E0914F
:1032E0008902E058E13508F0E0E5F0E0E75CFD4FE9
:1032F00080838091890291E0980F90938902103D1C
:1033000011F580938902298D3A8D232BB9F6893BDB
:10331000A9F680914302823089F683E498E0909385
:103320007A028093790285E0EAE0F1E0ABE7B2E06F
:1033300001900D928A95E1F787E08093430280EC3B
:1033400080938902BBCF1A3811F480EDF9CF193878
:1033500009F0B4CF90914202933809F46AC208F0A0
:1033600076C0933209F4DEC108F03FC0298D3A8D52
:10337000923109F493C158F5903109F4B0C19131FB
:1033800009F09CCFC0903E02D0903F02E0904002F6
:10339000F090410280913C0290913D0220913902CF
:1033A00030913A02E0913B024AE0E402F00111243C
:1033B000E15DFD4F42E050E051834083338322833F
:1033C00095838483C682D782E086F18677CF913257
:1033D00009F4A2C108F0A3C144E068EB903209F0FF
:1033E0006DCFC9010E94C40B69CF933509F4AEC1FA
:1033F000D0F4913509F4D8C108F099C1903509F09D
:103400005DCF60E0CE0149960E94B30B823941F452
:103410009FB7F89480912E02826080932E029FBF06
:103420000E942F084BCF963509F493C1923809F4C6
:10343000DEC1943509F042CF109227021092260285
:1034400010922B0210922C0210922D0237CF953938
:1034500009F430C208F0ABC0963809F42EC238F532
:10346000943809F4FCC1953809F028CF61E0CE0109
:1034700049960E94B30B2091A4023091A502820FBD
:10348000932F911D9093A5028093A4029F938F93F5
:1034900085E992E09F938F933F922F920E94E00DD7
:1034A0000F900F900F900F900F900F9007CF9339C0
:1034B00009F488C108F0EFC1913909F0FFCE1F92DD
:1034C0008CE98F931F9287E18F9388E08F9383E439
:1034D0008F938CEE92E09F938F933F922F920E9456
:1034E000E00D0FB6F894DEBF0FBECDBF05E512E0CC
:1034F00047EEE42E42E0F42ED8018D918D011F920B
:103500008F93FF92EF923F922F920E94E00D0F90C7
:103510000F900F900F900F900F90B2E00A361B079C
:1035200059F70E947C101F921F921F9283EA8F937B
:103530001F9287E18F931F921F9283ED91E09F93DB
:103540008F933F922F920E94E00D87E891E00E94B6
:1035500081090FB6F894DEBF0FBECDBFF12C0AEC87
:1035600011E08091E602F81608F00FC18F2D90E06F
:10357000A091E402B091E502A80FB91F2C911F920F
:103580002F93E091E202F091E302E80FF91F8081AE
:103590001F928F931F930F933F922F920E94E00DE3
:1035A000F3940FB6F894DEBF0FBECDBFDACF933AD7
:1035B00009F414C3A8F4913A09F43DC208F043C3D6
:1035C000903A09F07BCE6FEFCE0149960E94B30B83
:1035D0006FE7CE0149960E94B30B0E9486116ECE12
:1035E0009D3E09F47EC19E3E09F4DAC1943A09F089
:1035F00065CEE091AD02F091AE02A484B58441E0C5
:1036000070E060E080E00E948C0EC12CD12C76012D
:1036100010E000E00E94CC072B01C8010E94660662
:10362000982E892E0E94CC07641975092B01712CE4
:10363000612CC414D504E604F704A8F47F936F93B7
:103640008F929F921F930F9324E132E03F932F9329
:103650003F922F920E94E00D0FB6F894DEBF0FBE8E
:10366000CDBF730162010F5F1F4F011590E2190773
:1036700089F6FF92EF92DF92CF921F921F9287EF0F
:1036800091E09F938F933F922F920E94E00DB5019E
:10369000772741E080E00E948C0EC5C0C9010197E8
:1036A0009A8F898F12161306BCF481E093E00E9472
:1036B000F609282F2F7054E0959587955A95E1F7D4
:1036C0008F70880F90914302890F809343022A5B89
:1036D000220F20938902F2CD20E088E0F2CF809182
:1036E0003C0290913D02E0913B022AE0E202F001AF
:1036F0001124E15DFD4F21E030E03183208313820E
:1037000012829583848380E090E0A0ECBFE78683FB
:103710009783A087B187D2CD42E06CEB62CE42E0C6
:103720006EEB5FCE44E064EB898D9A8D5BCE80E0DA
:1037300090E0A0E8BFE38093790290937A02A0938F
:103740007B02B0937C0244E060ECEECF0E94301725
:10375000B5CD898D9A8D9C01215031093A8F298FE1
:10376000181619060CF0AACD81E093E00E94F60924
:10377000E091AB02F091AC0221E0019709F020E06A
:10378000808120FB81F9808399CD3FE13F1528F0AE
:1037900080E30E947C09F394F8CF0E947C1087E8B4
:1037A00091E00E9481098ACD0E9434039FB7F8946A
:1037B00080912E02826080932E029FBF81E00E9442
:1037C00007147CCD1FB7F89460E0CE0149960E94A3
:1037D000B30B823929F480912E02826080932E02ED
:1037E00080912E028E7F80932E021FBFE7CF61E073
:1037F000CE0149960E94B30B20915B0230915C028E
:10380000820F932F911D90935C0280935B029F9394
:103810008F939F938F9384ED92E09F938F933F922A
:103820002F920E94E00D0FB6F894DEBF0FBECDBF01
:1038300045CD61E0CE0149960E94B30B20915B0219
:1038400030915C02281B310930935C0220935B02AB
:103850003F932F933F932F9381EC92E0DECF898D9E
:103860009A8D9C01215031093A8F298F029744F09B
:1038700042E050E06BE572E081E093E00E94481086
:1038800080915B0290915C029F938F939F938F93A3
:103890008EEA92E0C2CF84EA92E00E9482100E94F7
:1038A000820764EF71E080E090E00E94F1070E94DF
:1038B000CE0C04CD0E948E1001CD61E0CE01499660
:1038C0000E94B30B2091A4023091A502281B31095C
:1038D0003093A5022093A4023F932F9386E892E0B1
:1038E000D9CD9FB7F89486E0E8E9F2E0DE011196C1
:1038F00001900D928A95E1F700918A02F0908B0277
:103900009FBF80E892E00E9461098A819B81892B98
:1039100009F441C010E0812F012E000C990BFC012D
:10392000EE0FFF1FE80FF91F21E030E02C0F3D1FC5
:10393000E20FF31F818192810097B1F0FF920F9304
:103940009F938F9380811F928F9385E792E09F933F
:103950008F933F922F920E94E00D1F5F0FB6F89455
:10396000DEBF0FBECDBFD7CF0E947C10E091AD026D
:10397000F091AE0285858F9384858F93FF920F938C
:103980001F921F928EE492E09F938F933F922F920B
:103990000E94E00D48CF82E692E00E948210E6CFBE
:1039A00088E492E00E94610999E3E92E92E0F92E01
:1039B00000E810E02CE3C22E22E0D22EA02E302F01
:1039C0003370B32E81F41F930F9381E492E09F93A1
:1039D0008F933F922F920E94E00D0F900F900F90C7
:1039E0000F900F900F90F70181917F011F928F939D
:1039F000DF92CF923F922F920E94E00D8A2D8F701E
:103A00000F900F900F900F900F900F908F3061F4E8
:103A100085E392E00E9461090F5F1F4F013D110590
:103A200069F60E947C104ACCF3E0BF12F5CF80E229
:103A30000E947C09F1CF898D9A8D05970CF43ECCBC
:103A400044E050E0BE016F5E7F4F81E093E00E9452
:103A50004810E98CFA8CE81AF90AFA8EE98EE0FC33
:103A60002DCCE6948FEF8E0D883008F027CCFE0128
:103A70003196FC8FEB8F80E111928A95E9F7F12C5A
:103A8000A701BE016F5F7F4F81E093E00E94481065
:103A9000298D3A8D281B390B3A8F298FA701BE013A
:103AA000675F7F4F81E093E00E944810298D3A8D37
:103AB000281B390B3A8F298FC988DA888C89482EC0
:103AC000512CFFEF4F1A5F0A2B89249DC001259DC1
:103AD000900D11249C012C0D3D1D3E8F2D8F5F926A
:103AE0004F923F932F93DF92CF9288E391E09F9381
:103AF0008F933F922F920E94F00D89E7882E82E0EB
:103B0000982E0FB6F894DEBF0FBECDBFB12CAD8D91
:103B1000BE8DCA16DB060CF05FC0B0E1BB1609F41F
:103B20005BC0B60190E080E00E94402B2CE73CE7B0
:103B300040E052E40E944F2D69A3672E8C0120E0E3
:103B400030E04FE753E40E943B2B87FD04C019A2ED
:103B5000612C0FE713E4E9E0F0E0EC0FFD1FF88FB4
:103B6000EF8B21E030E02C0F3D1F3E8B2D8BA9A069
:103B70006F8E08A3712E0A2D162D28A1372DA701AF
:103B8000BE01695E7F4FCE0145960E9417040E94D8
:103B90008103D4018C9311969C93B2E08B0E911CFF
:103BA000B394B3949F938F937F92E8A1EF93FF8D8B
:103BB000FF93AF92DF92CF9226E531E03F932F93B0
:103BC0003F922F920E94F00DC40CD51C0FB6F894B2
:103BD000DEBF0FBECDBF9BCF4B2DB6CD6FEFCE015D
:103BE00049960E94B30B811169CBFFB6F894E9E7BF
:103BF000F2E080E1DF011D928A95E9F7098D1A8DC7
:103C00001016110674F4013108F000E110E0A8016B
:103C100069E772E081E093E00E94481008171907F5
:103C200021F489E792E00E94800D809155028F7EF9
:103C3000809355029091E602992319F08061809358
:103C40005502FFBE3BCB6FEFCE0149960E94B30BEE
:103C5000811134CB69E772E082EE92E00E94E00BC2
:103C600040E172CDA1960FB6F894DEBF0FBECDBF76
:103C7000DF91CF911F910F91FF90EF90DF90CF9048
:103C8000BF90AF909F908F907F906F905F904F907C
:103C90003F902F9008951F920F920FB60F9211240C
:103CA0002F933F938F939F93AF93BF93809177010F
:103CB00090917801A0917901B0917A0130917601CB
:103CC00026E0230F2D3758F50296A11DB11D209334
:103CD00076018093770190937801A0937901B09356
:103CE0007A0180917B0190917C01A0917D01B0913E
:103CF0007E010196A11DB11D80937B0190937C01F3
:103D0000A0937D01B0937E01BF91AF919F918F9160
:103D10003F912F910F900FBE0F901F90189529E89B
:103D2000230F0396A11DB11DD2CF1F920F920FB684
:103D30000F9211242F933F934F935F936F937F9331
:103D40008F939F93AF93BF93EF93FF93E091020103
:103D5000F09103010995FF91EF91BF91AF919F9170
:103D60008F917F916F915F914F913F912F910F9024
:103D70000FBE0F901F9018951F920F920FB60F92C3
:103D800011242F933F934F935F936F937F938F9360
:103D90009F93AF93BF93EF93FF93E0910001F09156
:103DA00001010995FF91EF91BF91AF919F918F9183
:103DB0007F916F915F914F913F912F910F900FBE27
:103DC0000F901F9018951F920F920FB60F9211240B
:103DD0002F933F934F935F936F937F938F939F9313
:103DE000AF93BF93EF93FF9387E891E00E94F208AF
:103DF000FF91EF91BF91AF919F918F917F916F91C3
:103E00005F914F913F912F910F900FBE0F901F9098
:103E100018951F920F920FB60F9211242F938F9324
:103E20009F93EF93FF93E0919701F0919801808128
:103E3000E0919D01F0919E0182FD1BC090818091D7
:103E4000A0018F5F8F732091A101821741F0E09153
:103E5000A001F0E0E957FE4F958F8093A001FF91FC
:103E6000EF919F918F912F910F900FBE0F901F9008
:103E700018958081F4CF1F920F920FB60F921124E4
:103E80008F939F938091720190917301019690930B
:103E90007301809372019F918F910F900FBE0F90CD
:103EA0001F9018951F920F920FB60F9211248F93A7
:103EB0009F9380917001909171010196909371018F
:103EC00080937001809124029091250218161906A2
:103ED0002CF401979093250280932402809126026E
:103EE00090912702009729F00197909327028093E1
:103EF00026029F918F910F900FBE0F901F901895E3
:103F00001F920F920FB60F9211242F933F934F934E
:103F10005F936F937F938F939F93AF93BF93CF9351
:103F2000EF93FF9386E0EEE9F2E0A8E9B2E00190BA
:103F30000D928A95E1F710928500109284001092FC
:103F40008900109288008091A4029091A50290931C
:103F50008B0080938A0086B3866086BBE091AB02BB
:103F6000F091AC0280818695817091E089278093E1
:103F7000A7028091990290919A0290938900809370
:103F80008800C0E08091A7022C2F0C2E000C330B70
:103F9000F901EE0FFF1FE20FF31FE657FD4F2785D4
:103FA0003089232B21F00E94DA0BCF5FEBCF2091D9
:103FB0008A0230918B022115310529F491E089277D
:103FC0000E94DA0B03C021153042D4F78091A7027A
:103FD00091E089278093A70280916F008B7F809367
:103FE0006F008091990290919A02892BB9F080918B
:103FF0006F00826080936F00FF91EF91CF91BF912E
:10400000AF919F918F917F916F915F914F913F9170
:104010002F910F900FBE0F901F90189580916F00F9
:104020008D7FE8CF1F920F920FB60F9211242F931E
:104030003F934F935F936F937F938F939F93AF9330
:10404000BF93EF93FF938091A7020E94DA0BEFE6F4
:10405000F0E080818D7F8083FF91EF91BF91AF91E0
:104060009F918F917F916F915F914F913F912F9190
:104070000F900FBE0F901F90189582EE92E00E9455
:104080006F0D85E291E09093E8028093E7028BE068
:1040900093E00E94000E81E093E00C94000ECF9319
:1040A000DF93A7E8B1E013961C921E92129748EE98
:1040B00053E060E070E014964D935D936D937C93B4
:1040C000179783E191E011969C938E9385EC90E095
:1040D0001D969C938E931C9784EC90E01F969C9366
:1040E0008E931E9780EC90E051969C938E93509700
:1040F00081EC90E053969C938E93529782EC90E0E3
:1041000055969C938E93549786EC90E057969C938B
:104110008E93569759961C9259975A961C925A9775
:104120005B961C925B975C961C925C97E7EEF2E0C4
:1041300013821282448355836683778385E291E0FC
:10414000918380838EEF848715861686178681E09B
:10415000808B118A128A2AEF32E087E0E9011992F6
:104160008A95E9F7138E128E158E148E178E168E81
:1041700011A210A213A212A215A214A217A216A293
:1041800011A610A613A612A615A614A617A616A663
:1041900011AA10AA86EA96E193AB82ABB5ABA4ABA9
:1041A000E4E2F2E08FEF9FEF9183808382E19AE770
:1041B0009383828314821582168217821086118659
:1041C00012861486138616861586108A178680E056
:1041D00090E0A0ECBFE7818B928BA38BB48BEAE8D5
:1041E000F2E081E2DF011D928A95E9F785E592E030
:1041F00092A381A389E392E094A383A3E2EEF2E089
:1042000011821082138212821482EFEAF2E08DE2B0
:10421000EF0119928A95E9F716A615A688E79CEE94
:10422000AFEFBFEF87A790ABA1ABB2ABDF91CF9160
:104230000895CF93DF93CDB7DEB7AD970FB6F8945F
:10424000DEBF0FBECDBF789484B5826084BD84B5D7
:10425000816084BD85B5826085BD85B5816085BD81
:1042600080916E00816080936E0010928100809139
:1042700081008260809381008091810081608093C1
:104280008100809180008160809380008091B100E6
:1042900084608093B1008091B00081608093B00011
:1042A00080917A00846080937A0080917A008260A5
:1042B00080937A0080917A008E7F80937A0080913B
:1042C0007A00806880937A001092C100E091970193
:1042D000F091980182E08083E0919301F091940144
:1042E0001082E0919501F091960180E18083109217
:1042F0009F01E0919B01F0919C0186E08083E09119
:104300009901F0919A01808180618083E091990107
:10431000F0919A01808188608083E0919901F09109
:104320009A01808180688083E0919901F0919A01DF
:1043300080818F7D80830E94010C88EE94E00E9432
:10434000821087E891E00E948109EBE3F2E08FE4BC
:10435000DF011D928A95E9F78FEF9FEF90933A0264
:10436000809339028091F3028E3FC1F08EEF8093EB
:10437000F3021092F4021092F5021092F60281E01C
:104380008093F7021092F8021092F90281E093E014
:104390000E94000E8BE093E00E94000E87E1809364
:1043A000F30287E399E190931603809315038BE161
:1043B00095E190931803809317038FEF9FEF9093ED
:1043C000DD028093DC02F12CE12C812C912C540134
:1043D0002EEDE21623E0F20659F1BE016F5F7F4F2A
:1043E000C7010E94320CCE0103960E940603298168
:1043F0003A8128173907C1F44B815C816D817E8138
:10440000481559056A057B0578F0F092DD02E092C7
:10441000DC028DE2FE013196AFEAB2E001900D922E
:104420008A95E1F74A015B01BDE2EB0EF11CD0CFAA
:104430008091DC029091DD02019609F0A9C10E94F1
:104440008E1060E084E10E94510760E083E00E94EA
:10445000510710926A0210926B0210926C020E9435
:10446000CE0CCE0101967C0196EA892E9FE0992E12
:104470008091740190917501892B09F0EBC1F8943A
:10448000E0912F02F091300280913102909132023E
:1044900060913302709134022091350230913602DE
:1044A00040913702509138021092300210922F0240
:1044B0007894E130F10509F4C3C1329709F4C5C11C
:1044C000F89430902E02789432FE09C0F8948091CE
:1044D0002E028B7F80932E0278940E9430170E94C8
:1044E00023082B013C0133FE1BC0F89480912E025F
:1044F000877F80932E02789468E187EE92E00E9495
:10450000BA1364EF87EE92E00E94FE126FEF87EE1F
:1045100092E00E94FE1263E08AE692E00E94391562
:1045200034FE18C0F8948091A602898380912E02EF
:104530008F7E80932E02789468E187EE92E00E944D
:10454000BA1365EF87EE92E00E94FE1261E0C701A8
:104550000E94391535FE39C0F8948091240290915B
:104560002502892B09F074C180912E028F7D8093E2
:104570002E028FEF9FEF90932502809324022091CB
:10458000A9023091AA0267012F3F320751F0198228
:104590003B832A839093AA028093A902CE010496BA
:1045A0006C017894EC14FD0481F068E187EE92E0F0
:1045B0000E94BA1362EF87EE92E00E94FE12B601EB
:1045C0006E197F09C7010E94391530FE12C00E9482
:1045D00023082091DE023091DF024091E0025091E9
:1045E000E102621773078407950718F080E00E94C4
:1045F00007148091260290912702892B09F0C0C0F0
:10460000F894A2E1BAE7B0932702A0932602789427
:104610000E94CB165B016C01A0927102B0927202F3
:10462000C0927302D0927402AC019B010E944C2E86
:10463000811105C0C601B5010E94C12D8B010E94E8
:104640007F0A6C019093760280937502BC01990FEA
:10465000880B990B0E94422B9B01AC010E944C2EAF
:10466000811104C00C151D050CF48601DD24C72C36
:10467000B62CA52C15014C2C809156028823D9F11B
:1046800080171106C4F58091280290912902A0910B
:104690002A02281639064A0670F1AC2DC5018B583E
:1046A0009F4FAF4F8093280290932902A0932A0234
:1046B0008091550282FD05C08460809355020E945E
:1046C0002F0840E070E060E080E00E948C0E0E94C5
:1046D000140E0983809156028A8368E187EE92E086
:1046E0000E94BA1361EF87EE92E00E94FE1262E030
:1046F000C7010E94391580916902882309F440C0DE
:1047000020912B0230912C0240912D02221633066B
:104710004406B0F1B4E08B9F20011124052C000C5D
:1047200066084A0C5B1C6C1C40922B0250922C02B7
:1047300060922D020E947F0A909376028093750208
:104740000E94CB1660937102709372028093730281
:10475000909374020E94470A68E187EE92E00E94FB
:10476000BA1360EF87EE92E00E94FE12602F87EE90
:1047700092E00E94FE126CE08DE692E00E943915F4
:104780000E94E808882309F473CE0E94A61670CE12
:104790008091B602873308F487E38E3708F08DE7FF
:1047A0008093B60285E1E5EBF2E0A5E5B2E0019089
:1047B0000D928A95E1F782EE92E00E946F0D8CECEB
:1047C00092E00E94800D0E94010CE091DC02F091C9
:1047D000DD028091B0028F938091AF028F93CF0161
:1047E0006DE270E00E94C12C6B01F12CE12C86E19E
:1047F000C81AD108E108F108A6E1B0E0A5019401CA
:104800000E94A72CC60ED71EE81EF91EFF92EF923B
:10481000DF92CF92FF93EF93BF92AF929F928F92CE
:1048200085EC94E09F938F9387E891E09F938F931B
:104830000E94E00D0FB6F894DEBF0FBECDBF01CED3
:1048400040E080E00E948C0E3BCE0E94D80E38CE15
:104850007894BBCE0E94CE0C882309F491CF40906F
:104860006D0250906E0260906F0270907002A30112
:104870009201C301B2010E944C2E811149C020E077
:1048800030E0A901C301B2010E943B2B882309F447
:104890003FC0A301920160E074E284EF98E40E94BB
:1048A0004F2D0E94C82D7093A5026093A402198217
:1048B00010922E021092A7028FEF9FEF9093AA0200
:1048C0008093A9020E940C0761E086E00E945107D4
:1048D000F8941092B00081E08093B1008091700054
:1048E0008160809370009092030180920201809118
:1048F00069008C6080936900E99A1092800022E040
:104900002093810080916F00887D80936F00789460
:104910008091550280FF1FC0C090CA02D090CB0288
:10492000C114D104C1F040905702509058026090D9
:10493000590270905A0220E030E0A901C301B2018F
:104940000E943B2B882339F0A3019201B6018FEF1F
:104950009FEF0E94D80E0E947F0A90937602809368
:1049600075020E94CB16609371027093720280935D
:104970007302909374020E94470A68E187EE92E006
:104980000E94BA1367EF87EE92E00E94FE126CE07D
:104990008DE692E00E943915F89480912E02846091
:1049A00080932E027894ECCEAFE0B0E0EAEDF4E232
:1049B0000C9435286C011B015A01FC0117821682E8
:1049C000838181FF48C39E012F5F3F4F4901F6015C
:1049D0009381F10193FD859193FF81911F018823BC
:1049E00009F4E7C2853239F493FD859193FF8191F3
:1049F0001F01853239F4B60190E00E944E2A35013C
:104A00005301E5CFF12C512C00E0003238F48B3209
:104A100009F190F48032F9F0833209F107FD34C0D6
:104A200020ED280F2A3020F506FF1BC0FAE0FF9E7C
:104A3000200D1124F22E05C08D3279F0803371F7EC
:104A40000160F10193FD859193FF81911F01811117
:104A5000DCCF1AC002600460F4CF0860F2CF0061BE
:104A6000F0CF3AE0539E200D1124522E0062E9CF80
:104A70008E3221F406FD9DC20064E3CF8C3611F422
:104A80000068DFCF8836E9F29BEB980F933008F08F
:104A90005FC00061805E06FD02C046E0F42E102F6C
:104AA0001F73853609F05BC0106417FF61C08F2D3E
:104AB0009BE39F1508F48BE344244394480E27E0BE
:104AC0003501F4E06F0E711CF50160817181828106
:104AD0009381042DA4010E9457295C01F981FC8770
:104AE000F0FF03C00DE2F3FF07C00BE211FD04C0AD
:104AF000012F047012FD00E22C852C70E22E09F4C7
:104B000057C00111ABC2F3E0E12CF515A0F483E02E
:104B1000E52CE81A13FD08C0B60180E290E00E947F
:104B20004E2AEA94E110F8CF002329F0B601802F35
:104B300090E00E944E2A3C8522ECA22E20E0B22E6C
:104B400033FD04C096ECA92E90E0B92E107122C05E
:104B50009BE9980F933008F033C10F7E9CCF8636C7
:104B600011F41068A2CFFF2009F49FCFFA949DCFD3
:104B7000E7E02F2DEF1518F427E037E0F32E412C56
:104B80009FCF11118052B60190E00E944E2A8FEF04
:104B9000A81AB80AF50184918111F3CFEE2009F427
:104BA0002FCFB60180E290E00E944E2AEA94F6CF21
:104BB00017FF6FC04A0CFC85F4FF04C08A81813363
:104BC00009F44A9414140CF086C028E0241510F45B
:104BD00088E0482E85E090E017FF06C0C501B7FECB
:104BE00002C090E080E0019601110196FF2031F0B3
:104BF0002F2D30E02F5F3F4F820F931F581619065D
:104C000019F014F0E52CE81A812F897011F4E110E5
:104C100067C0002329F0B601802F90E00E944E2A41
:104C200013FD02C0E11063C017FF7CC08501B7FE11
:104C300002C010E000E0C501841991092C016F2D1C
:104C400070E0EE27FF27E61BF70BFF87EE870F3F8D
:104C5000100729F4B6018EE290E00E944E2AA016B9
:104C6000B1060CF44BC0401651060CF047C0F501DC
:104C7000E01BF10BE80DF91D8181015011092E8512
:104C80003F8502171307E4F1B60190E00E944E2A17
:104C9000DECF16FD9FCFEF2DF0E0EA15FB0534F0D7
:104CA0003CEFA3163FEFB3060CF010683296E80D08
:104CB000F91D01C0FA94FF2019F082918033D1F3DD
:104CC00017FF88CF442443944F0CFA141B0431F08F
:104CD0002CF0FA187FCF442443947CCFF12C7ACF68
:104CE000B60180E290E00E944E2AEA9490CFB6018D
:104CF00080E390E00E944E2AEA9494CF80E3BDCFF7
:104D0000A016B10641F49A81963350F4953319F404
:104D10003C8534FF05C0B60190E00E944E2A3ECF8C
:104D200081E3F9CF8A81813319F09C859F7E9C872E
:104D3000B60190E00E944E2AFF20A9F0B6018EE253
:104D400090E00E944E2AF394F394E2E001E00E0F0B
:104D5000E80DF92DF11D8081B60190E00E944E2AE8
:104D6000E02F0F11F3CF85E690E014FF02C085E439
:104D700090E0B6010E944E2AB7FC06C0A114B1040F
:104D8000C1F4EC85E4FF15C0B194A194B1088DE2A3
:104D9000B60190E00E944E2A80E32AE0A216B104F8
:104DA00054F4B60190E00E944E2AB601C501C096A7
:104DB000B4CF8BE2EDCF8F5FFAE0AF1AB108EDCF41
:104DC0008336C9F0833771F1833509F05BC0350153
:104DD000F2E06F0E711CF501A080B1806F2D70E0C4
:104DE00006FD02C06FEF7FEFC5010E94382A9D8744
:104DF0008C8700680DC0350132E0630E711CF5012F
:104E00008081898321E030E03D872C8754010F7732
:104E100003FD06C02C853D855216130609F0A8F443
:104E2000E52C2BC0350132E0630E711CF501A0802A
:104E3000B1806F2D70E006FD02C06FEF7FEFC501FE
:104E40000E94432A9D878C87E2CFB60180E290E0E2
:104E50000E944E2A5A94DECFF50107FD859107FF87
:104E600081915F01B60190E00E944E2AE110EA9420
:104E70008C859D8501979D878C87EC85FD85EF2B23
:104E800059F78CCE843619F0893609F074C0350193
:104E900007FF66C0F4E06F0E711CF501608171813F
:104EA00082819381102F1F7697FF08C0909580957F
:104EB000709561957F4F8F4F9F4F10682AE030E0CB
:104EC000A4010E94DA2AA82EA818BA2C012F16FFD6
:104ED0000AC00E7FAF1438F414FF04C012FD02C0E4
:104EE000012F0E7EBF2C04FF8EC0FE01EA0DF11DC6
:104EF0008081803309F080C0097EF02FF870EF2E9A
:104F000003FD90C000FF8AC0FA2CB51410F4F50C14
:104F1000FB1804FF8DC0B60180E390E00E944E2A8A
:104F200002FF09C088E790E001FF02C088E590E039
:104F3000B6010E944E2AAF1408F486C0AA940A2D26
:104F400010E00F5F1F4F080D191DF80182918F01AE
:104F5000B60190E00E944E2A80169106B1F71ECE4F
:104F6000F2E06F0E711CF50160817181072E000C5B
:104F7000880B990B97CF102F8537A9F41F7E2AE055
:104F800030E0350117FF2FC0F4E06F0E711CF50102
:104F90006081718182819381A4010E94DA2AA82E06
:104FA000A8181F7792CF197F8F36D1F048F4883533
:104FB00091F0F601868197812F96E2E10C945128B9
:104FC000803739F08837A9F714FD146020E130E00C
:104FD000D8CF1061F9CF04FD166020E132E0D1CFC7
:104FE00028E030E0CECFF2E06F0E711CF501608159
:104FF000718190E080E0D0CF02FD02C0B3947DCFFC
:10500000B394B3947ACF802F867809F476CFF6CF15
:10501000B60180E290E00E944E2AB394B514C0F32A
:10502000E12C77CFE52CEB18B51408F472CFF8CF4C
:10503000802F867809F47FCF8BE201FF80E207FDA5
:105040008DE2B60190E075CFB60180E390E00E945A
:105050004E2AFA9470CF8FEF9FEFAECF24E0E12C71
:10506000251508F063CD84E053CD2F923F924F92E7
:105070005F926F927F928F929F92AF92BF92CF92E8
:10508000DF92EF92FF920F931F93CF93DF93CDB7F1
:10509000DEB7CA1BDB0B0FB6F894DEBF0FBECDBF69
:1050A00009942A88398848885F846E847D848C843A
:1050B0009B84AA84B984C884DF80EE80FD800C8143
:1050C0001B81AA81B981CE0FD11D0FB6F894DEBF26
:1050D0000FBECDBFED010895B0E0A0E0E2E7F8E239
:1050E0000C9436285C016B017A016115710519F089
:1050F000FB0191838083E114F10449F0C701029719
:10510000839728F060E070E0CB019CC05E01E50170
:105110002196F5011081812F90E00E942F2A892B82
:10512000A9F71D3209F056C02196F501118101E061
:10513000E114F10409F4AEC0F0E1EF16F10409F056
:105140008EC0103341F488818F7D883509F083C08B
:10515000198122960260E0E1EE2EF12C88248A94D7
:10516000982CA82CFFE0BF2E20E060E070E0CB017F
:1051700027010F2C000C66087708FE0150ED352E34
:10518000310E39E0331538F43FEB310F3A31A0F5E9
:1051900049EC342E310E3E141F04BCF52F3FB9F0FC
:1051A00086169706A806B90670F1A30192010E941F
:1051B000752C232D30E050E040E0620F731F841FF8
:1051C000951F6217730784079507E8F021E0219681
:1051D0001081D3CF1B3221F4E5012296F501118114
:1051E00000E0A6CF78E0E72EF12C88248A94982C52
:1051F000A82C6FE1B62EB8CF3FE9310F3A3128F431
:1052000039EA332EC7CF2FEFE2CFC114D10431F0EA
:105210002223E9F02197F601D183C08300FF07C064
:1052200090958095709561957F4F8F4F9F4F2F3F41
:1052300049F482E290E090931E0380931D036FEF88
:105240007FEFCB01CDB7DEB7E1E10C94522801FF2F
:10525000E5CF2297E0CF10E3E114F10419F23AE030
:10526000E316F104E9F080E1E816F10409F473CFE4
:10527000E8E0EE16F10409F4B8CF6FEF7FEFCB0151
:1052800097010F2C000C440B550B0E94852C4901F3
:105290005A016ACF103309F456CF9AE0E92EF12C67
:1052A00089E9882E982CA82C89E1B82E5DCF28306A
:1052B00008F027E03327DA01990F311D87FD91604F
:1052C00000966105710539F432602E5F3D9330E33D
:1052D0002A95E1F708959F3F30F080387105610508
:1052E00009F03C5F3C5F3D93913008F08068911D70
:1052F000DF93CF931F930F93FF92EF92192F987F15
:105300009695E92F96959695E90FFF27EC5DFE4F50
:1053100099273327EE24FF24A701E701059008947D
:10532000079428F4360FE71EF81E491F511D660F1B
:10533000771F881F991F0694A1F70590079428F4FA
:10534000E70EF81E491F561FC11D770F881F991FB2
:10535000661F0694A1F70590079428F4F80E491FDC
:10536000561FC71FD11D880F991F661F771F0694F0
:10537000A1F70590079420F4490F561FC71FD81FA7
:10538000990F661F771F881F0694A9F784911095BF
:10539000177041F0D695C79557954795F794E794C0
:1053A0001A95C1F7EAECF0E06894159015913591E3
:1053B0006591959105907FE27395E118F10A430B91
:1053C000560BC90BD009C0F7E10CF11E431F561F45
:1053D000C91FD01D7EF4703311F48A95E6CFE8948E
:1053E000015030F0080F0AF40027021708F4202FAC
:1053F0002395022F7A3328F079E37D932A95E9F7F4
:1054000010C07D932A9589F60694979567953795F0
:1054100017951794E118F10A430B560BC90BD009E5
:1054200098F023957E9173957A3308F070E37C931E
:105430002013B8F77E9170617D9330F0839571E30E
:105440007D9370E32A95E1F71124EF90FF900F917F
:105450001F91CF91DF91992787FD90950895911124
:105460000C94382B803219F089508550C8F7089574
:10547000FC010590615070400110D8F7809590951F
:105480008E0F9F1F0895FC01615070400190011024
:10549000D8F7809590958E0F9F1F08950F931F93B7
:1054A000CF93DF93182F092FEB018B8181FD09C06A
:1054B0001FEF0FEF812F902FDF91CF911F910F9151
:1054C000089582FF14C02E813F818C819D81281711
:1054D00039073CF4E881F981CF01019699838883EB
:1054E00010838E819F8101969F838E83E3CFE88511
:1054F000F985812F0995892BA1F3DACFAEE0B0E0D1
:10550000E4E8FAE20C9443280D891E898F89988D6E
:105510002EE02C831A83098397FF02C080E090E875
:1055200001979E838D83AE01455E5F4F698D7A8DB5
:10553000CE0101960E94D4244D815E8157FD0AC0A0
:105540002F813885421753070CF49A01020F131F5D
:10555000F80110822E96E4E00C945F28AEE0B0E0F3
:10556000E4EBFAE20C9443288C01FA018EE08C8380
:105570001A83098377FF02C060E070E86150710907
:105580007E836D83A901BF01CE0101960E94D424C0
:105590004D815E8157FD0AC02F8138854217530720
:1055A0000CF49A01020F131FF80110822E96E4E00A
:1055B0000C945F28FA01AA27283051F1203181F19B
:1055C000E8946F936E7F6E5F7F4F8F4F9F4FAF4F0B
:1055D000B1E03ED0B4E03CD0670F781F891F9A1F1E
:1055E000A11D680F791F8A1F911DA11D6A0F711DD2
:1055F000811D911DA11D20D009F468943F912AE0DE
:10560000269F11243019305D3193DEF6CF010895C5
:10561000462F4770405D4193B3E00FD0C9F7F6CFF6
:10562000462F4F70405D4A3318F0495D31FD4052BE
:10563000419302D0A9F7EACFB4E0A6959795879554
:1056400077956795BA95C9F7009761057105089533
:105650009B01AC010A2E06945795479537952795DF
:10566000BA95C9F7620F731F841F951FA01D089577
:105670009927882708950E947D2B08F481E00895DA
:10568000E89409C097FB3EF49095809570956195DC
:105690007F4F8F4F9F4F9923A9F0F92F96E9BB2792
:1056A0009395F695879577956795B795F111F8CF0E
:1056B000FAF4BB0F11F460FF1BC06F5F7F4F8F4F79
:1056C0009F4F16C0882311F096E911C0772321F06F
:1056D0009EE8872F762F05C0662371F096E8862F07
:1056E00070E060E02AF09A95660F771F881FDAF75E
:1056F000880F9695879597F90895990F0008550F8B
:10570000AA0BE0E8FEEF16161706E807F907C0F047
:1057100012161306E407F50798F0621B730B840B4F
:10572000950B39F40A2661F0232B242B252B21F429
:1057300008950A2609F4A140A6958FEF811D811DC9
:1057400008950E94B42B0C94252C0E94172C38F03D
:105750000E941E2C20F0952311F00C940E2C0C941A
:10576000142C11240C94592C0E94362C70F3959F04
:10577000C1F3950F50E0551F629FF001729FBB2748
:10578000F00DB11D639FAA27F00DB11DAA1F649FE4
:105790006627B00DA11D661F829F2227B00DA11D97
:1057A000621F739FB00DA11D621F839FA00D611D1D
:1057B000221F749F3327A00D611D231F849F600D3E
:1057C000211D822F762F6A2F11249F5750409AF067
:1057D000F1F088234AF0EE0FFF1FBB1F661F771FF3
:1057E000881F91505040A9F79E3F510580F00C94BE
:1057F0000E2C0C94592C5F3FE4F3983ED4F386951D
:1058000077956795B795F795E7959F5FC1F7FE2B5D
:10581000880F911D9695879597F9089597F99F6739
:1058200080E870E060E008959FEF80EC0895002428
:105830000A941616170618060906089500240A94F5
:1058400012161306140605060895092E0394000C7B
:1058500011F4882352F0BB0F40F4BF2B11F460FF0A
:1058600004C06F5F7F4F8F4F9F4F089557FD905833
:10587000440F551F59F05F3F71F04795880F97FB14
:10588000991F61F09F3F79F08795089512161306CE
:105890001406551FF2CF4695F1DF08C016161706FD
:1058A0001806991FF1CF8695710561050894089532
:1058B000E894BB2766277727CB0197F90895F999D4
:1058C000FECF92BD81BDF89A992780B50895262F05
:1058D000F999FECF1FBA92BD81BD20BD0FB6F894D5
:1058E000FA9AF99A0FBE01960895DB018F939F9360
:1058F0000E94A72CBF91AF91A29F800D911DA39FE5
:10590000900DB29F900D11240895A1E21A2EAA1BAA
:10591000BB1BFD010DC0AA1FBB1FEE1FFF1FA2175F
:10592000B307E407F50720F0A21BB30BE40BF50B5C
:10593000661F771F881F991F1A9469F760957095E5
:10594000809590959B01AC01BD01CF0108950E9407
:10595000B22CA59F900DB49F900DA49F800D911D1A
:1059600011240895A29FB001B39FC001A39F700DA1
:10597000811D1124911DB29F700D811D1124911D57
:105980000895AA1BBB1B51E107C0AA1FBB1FA61786
:10599000B70710F0A61BB70B881F991F5A95A9F7D8
:1059A00080959095BC01CD0108950E94B22CB7FF5F
:1059B0000895821B930B0895EE0FFF1F0590F4913D
:1059C000E02D09945058BB27AA270E94FA2C0C946A
:1059D000252C0E94172C38F00E941E2C20F039F440
:1059E0009F3F19F426F40C94142C0EF4E095E7FB79
:1059F0000C940E2CE92F0E94362C58F3BA1762072C
:105A000073078407950720F079F4A6F50C94582CB9
:105A10000EF4E0950B2EBA2FA02D0B01B9019001C9
:105A20000C01CA01A0011124FF27591B99F0593F0D
:105A300050F4503E68F11A16F040A22F232F342F55
:105A40004427585FF3CF469537952795A795F040A3
:105A50005395C9F77EF41F16BA0B620B730B840BB8
:105A6000BAF09150A1F0FF0FBB1F661F771F881F70
:105A7000C2F70EC0BA0F621F731F841F48F48795C8
:105A800077956795B795F7959E3F08F0B0CF9395BA
:105A9000880F08F09927EE0F9795879508950E9433
:105AA000632D0C94252C0E941E2C58F00E94172C5C
:105AB00040F029F45F3F29F00C940E2C51110C9406
:105AC000592C0C94142C0E94362C68F39923B1F3B2
:105AD000552391F3951B550BBB27AA276217730714
