:100000000C94AB020C94F31B0C94CC1B0C94D302F9
:100010000C94D3020C94D3020C94D3020C94D3020C
:100020000C94D3020C94891C0C94D3020C94491D9B
:100030000C94BE1C0C94721C0C94D3020C94D3022E
:100040000C94821B0C94D3020C94401C0C941A1C2C
:100050000C94D3020C94D3020C94D3020C94D302CC
:100060000C94D3020C94D30208000000BE922449E1
:10007000123EABAAAA2ABECDCCCC4C3E00000080DA
:10008000BEABAAAAAA3E00000000BF000000803F4D
:100090000000000000084178D3BB4387D1133D190D
:1000A0000E3CC3BD4282AD2B3E68EC8276BED98F3A
:1000B000E1A93E4C80EFFFBE01C4FF7F3F0000007E
:1000C00000006E616E00696E660000407A10F35A9F
:1000D00000A0724E18090010A5D4E80000E8764888
:1000E000170000E40B54020000CA9A3B000000E134
:1000F000F505000080969800000040420F000000C7
:10010000A08601000000102700000000E8030000A6
:1001100000006400000000000A0000000000010070
:10012000000000002C76D888DC674F0823DFC1DF91
:10013000AE59E1B1B796E5E3E453C63AE651997694
:1001400096E8E6C28426EB898C9B62ED407C6FFCCE
:10015000EFBC9C9F40F2BAA56FA5F490055A2AF710
:100160005C936B6CF9676DC11BFCE0E40D47FEF519
:1001700020E6B500D0ED902E030094357705008081
:10018000841E080000204E0A000000C80C333333E0
:10019000330F986E12831141EF8D2114893BE65580
:1001A00016CFFEE6DB18D1844B381BF77C1D901D63
:1001B000A4BBE424203284725E228100C9F124ECC5
:1001C000A1E53D272B52454D3D00253032782530A5
:1001D0003278002B52454D3D63756269635F696EED
:1001E000742C25752C693263743D253032782530A6
:1001F000327825303278000A2B52454D3D002530AB
:100200003278005B253032785D002B52454D3D0041
:100210002B52454D3D63683D25752C6C3D25752F52
:1002200025750A004E6F206368616E6E656C7320E1
:100230006163746976650025753D257528257529E6
:1002400020002B52454D3D002B52454D3D746963B6
:100250006B733D25640A002B52454D3D7469636BF9
:10026000733D25640A002B52454D3D667265710051
:100270002B52454D3D7A633D25752C307825303421
:10028000780A002B52454D3D7A633D25752C307818
:10029000253034780A002B52454D3D7A633D257553
:1002A0002C3078253034780A0025303278002B52F3
:1002B000454D3D76253034782C693263743D2530C8
:1002C0003278253032780041546D656761333238B9
:1002D00050002C6D696E2E6F6E2D74696D653D2515
:1002E000752C6D696E2E6F66663D25752C5A433DE3
:1002F00025750A00252E3366002C5643433D006DBC
:1003000061782E74656D703D25752C6D657472690C
:1003100063733D257500696E742E74656D703D259F
:10032000642F6F66733D25752F6761696E3D257576
:100330002C004E54433D252E32662F252B2E32663F
:100340002C0076616C7565733D726573746F7265B0
:100350003D25752C663D252E3366487A2C767265D0
:100360006631313D252E33662C0072616E67653D26
:1003700025642D25640A0063756269633D25752C2B
:100380000074696D6572313D25752F252E32662CFE
:100390006C766C733D383139322C70696E733D0068
:1003A000616464723D253032782C6D6F64653D2543
:1003B000632C0070726F746F3D554152542C00666F
:1003C0006164696E675F6576656E74733D312C009C
:1003D0005643432C00696E742E74656D702C004E6C
:1003E00054433D4125752C006F7074696F6E733DE9
:1003F000454550524F4D3D256C752C0040384D6899
:100400007A2C6763633D372E332E30002C4D4355D5
:100410003D007369673D253032782D253032782DC7
:10042000253032782C66757365733D6C3A25303211
:10043000782C683A253032782C653A2530327800AD
:100440004D4F534645542044696D6D657220322EE0
:10045000322E33204665622031352032303233204F
:1004600030393A32323A313120417574686F722036
:100470007361736368615F6C616D6D657273406712
:100480006D782E646500454550524F4D522C633DAA
:10049000256C752C703D25752C6E3D256C752C6377
:1004A00072633D253034780A00424F4F54000000FB
:1004B0000000240027002A0000000000250028007A
:1004C0002B000404040404040404020202020202D5
:1004D0000303030303030102040810204080010208
:1004E0000408102001020408102000000008000287
:1004F00001000003040700000000000000002B5270
:10050000454D3D454550524F4D572C633D256C752B
:100510002C703D25752C6E3D256C752C773D257511
:100520002C663D25752C6372633D253034782C6331
:1005300066673D25750A002B49324325633D002B34
:1005400052454D3D454550524F4D522C696E697490
:100550000000861D741D11241FBECFEFD8E0DEBF42
:10056000CDBF22E0A8E3B1E001C01D92A33EB207D7
:10057000E1F711E0A0E0B1E0E0E7FBE502C00590A3
:100580000D92A833B107D9F712E0CAEAD2E004C04D
:100590002197FE010E94EA29C93AD107C9F70E94B2
:1005A000421E0C94AB2D0C940000BC01655D7F4F86
:1005B0002FEF3FEF86179707D9F0FC014191CF014C
:1005C0002427422F42954227042E469546954025E2
:1005D000042E469540254770022E232F46950794FA
:1005E0004795302D24270694479530252427E2CFC0
:1005F000C901089581E792E00E94D50290937002AC
:1006000080936F020895EBEFF1E08FE4DF011D921C
:100610008A95E9F78FEF9FEF9093FA018093F901A4
:100620008BE48093160280911502816080931502FD
:1006300080E090E0A0E9B0E4809317029093180264
:10064000A0931902B0931A028EE690E090931C02D8
:1006500080931B0280E891E090931E0280931D021C
:1006600080E391E09093200280931F0207B600FC84
:10067000FDCF87B7816287BFE5E0F0E0849107B6E0
:1006800000FCFDCF97B7916297BFE7E0F0E0E491FF
:10069000E09326028093270285E08093290280E080
:1006A00090E0A0ECBFE78093310290933202A093D8
:1006B0003302B093340220E030E8309336022093C6
:1006C000350280932D0290932E02A0932F02B093B7
:1006D000300285E1E5E1F2E0A5E7B2E001900D929C
:1006E0008A95E1F7ECE8F2E080E1DF011D928A955E
:1006F000E9F708952F923F924F925F926F927F9207
:100700008F929F92AF92BF92CF92DF92EF92FF9221
:100710000F931F93CF93DF93EB011A01FC01A0808D
:10072000B1808A010F5F1F4FF501E00FF11F60815B
:1007300070E090E080E00E944E286B017C01F1E0C7
:100740002F1A3108F501E20DF31D608170E090E091
:1007500080E00E944E284B015C01AC019B01C70167
:10076000B6010E9449288823E9F10990D881C02D5B
:10077000FE01E00FF11F608170E090E080E00E94D8
:100780004E282B013C01C20DD31D688170E090E022
:1007900080E00E944E289B01AC01C301B2010E947F
:1007A000F0292B013C01A5019401C701B6010E946B
:1007B000F0299B01AC01C301B2010E945D2ADF91C7
:1007C000CF911F910F91FF90EF90DF90CF90BF904E
:1007D000AF909F908F907F906F905F904F903F90E1
:1007E0002F90089560E070E0CB01E9CFEF92FF9287
:1007F0000F931F93CF93DF93C0916402D091650252
:10080000E0916B02F0916C0200851185E284F38423
:10081000DE01A01BB10BAE19BF09468557854115F6
:10082000510501F59D01DC010E94E3292DE096951B
:100830008795779567952A95D1F79B01200F311FF2
:10084000CE018E199F098217930728F0C80102175D
:10085000130708F4C901DF91CF911F910F91FF9009
:10086000EF90089524853585280F391F0E94C029EF
:100870009A0150E040E00E949329E0CFE0EFF4E0DD
:100880008491ECEDF4E09491E8ECF4E0E491EE2353
:10089000B9F0882339F08330F1F098F4813009F110
:1008A000823019F1F0E0EE0FFF1FE854FB4FA591E5
:1008B000B4918FB7F894EC9190959E239C938FBF41
:1008C00008958730A9F08830C9F0843059F78091B5
:1008D00080008F7D03C0809180008F77809380009F
:1008E000E1CF84B58F7784BDDDCF84B58F7DFBCF1D
:1008F0008091B0008F778093B000D4CF8091B0000A
:100900008F7DF9CF0895CF93DF9390E0FC01EA52F9
:10091000FB4F24918E539B4FFC0184918823D1F08F
:1009200090E0880F991FFC01E255FB4FA591B4910F
:10093000FC01E854FB4FC591D49161110EC09FB7E3
:10094000F8948C91E22FE0958E238C932881E223FA
:10095000E8839FBFDF91CF9108958FB7F894EC9112
:10096000E22BEC938FBFF6CFCF93DF931F92CDB7DF
:10097000DEB7F89419821092F801E99882E894E0C1
:100980009093030180930201EFE6F0E08081887D7F
:100990008083109281000E943E0460E086E00E9405
:1009A0008304E0E7F0E080818E7F80831092B100C5
:1009B00078940F90DF91CF9108953FB7F89480918C
:1009C000450190914601A0914701B091480126B59B
:1009D000A89B05C02F3F19F00196A11DB11D3FBF77
:1009E000BA2FA92F982F8827BC01CD01620F711D46
:1009F000811D911D43E0660F771F881F991F4A953F
:100A0000D1F708958F929F92AF92BF92CF92DF92CB
:100A1000EF92FF924B015C010E94DD046B017C01AF
:100A20000E94DD046C197D098E099F09683E7340A0
:100A300081059105A8F321E0821A9108A108B10867
:100A400088EEC80E83E0D81EE11CF11C81149104CD
:100A5000A104B10429F7FF90EF90DF90CF90BF90F1
:100A6000AF909F908F9008952FB7F89460914101B7
:100A70007091420180914301909144012FBF0895EC
:100A80008F929F92AF92BF92CF92DF92EF92FF929E
:100A90000E9434056B017C018091F80180FD2FC01C
:100AA00080909E0290909F02A090A002B090A10220
:100AB0009FB7F8948091F80181608093F8019FBFFF
:100AC0000E943405C818D908EA08FB0829E8C216AC
:100AD00023E1D206E104F104DCF438E8C32E33E16B
:100AE000D32EE12CF12CC60ED71EE81EF91EC092A3
:100AF0009E02D0929F02E092A002F092A102FF908B
:100B0000EF90DF90CF90BF90AF909F908F9008951F
:100B100024EFC22EDD24D394E12CF12CE4CFAF924C
:100B2000BF92CF92DF92EF92FF920F931F93CF93DA
:100B3000DF936C017B018B01040F151FEB015E013C
:100B4000AE18BF08C017D10759F06991D601ED91D1
:100B5000FC910190F081E02DC6010995892B79F770
:100B6000C501DF91CF911F910F91FF90EF90DF9022
:100B7000CF90BF90AF900895FC01538D448D252FE9
:100B800030E0842F90E0821B930B541710F0CF9627
:100B9000089501970895FC01918D828D981761F059
:100BA000A28DAE0FBF2FB11D5D968C91928D9F5F70
:100BB0009F73928F90E008958FEF9FEF0895FC014F
:100BC000918D828D981731F0828DE80FF11D858D02
:100BD00090E008958FEF9FEF0895FC01918D228D95
:100BE000892F90E0805C9F4F821B91098F7399271A
:100BF000089581E591E00E94ED0521E0892B09F43B
:100C000020E0822F0895FC01A48DA80FB92FB11DFB
:100C1000A35ABF4F2C91848D90E001968F73992732
:100C2000848FA689B7892C93A089B1898C91837010
:100C300080648C93938D848D981306C00288F38909
:100C4000E02D80818F7D80830895EF92FF920F9336
:100C50001F93CF93DF93EC0181E0888F9B8D8C8D68
:100C600098131AC0E889F989808185FF15C09FB75C
:100C7000F894EE89FF896083E889F989808183701F
:100C8000806480839FBF81E090E0DF91CF911F91CE
:100C90000F91FF90EF900895F62E0B8D10E00F5FEF
:100CA0001F4F0F731127E02E8C8D8E110CC00FB6C5
:100CB00007FCFACFE889F989808185FFF5CFCE015D
:100CC0000E940306F1CFEB8DEC0FFD2FF11DE35ACF
:100CD000FF4FF0829FB7F8940B8FEA89FB898081E0
:100CE0008062CFCF0F931F93CF93DF938C01D0E01F
:100CF000C0E0F801EC0FFD1F6491662341F081E52F
:100D000091E00E942506892B11F02196F2CFCE01A9
:100D1000DF91CF911F910F910895682F81E591E0A8
:100D20000C942506CF93DF93EC01888D8823B9F0CE
:100D3000AA89BB89E889F9898C9185FD03C08081E6
:100D400086FD0DC00FB607FCF7CF8C9185FFF2CF63
:100D5000808185FFEDCFCE010E940306E9CFDF91B0
:100D6000CF910895DC01ED91FC910190F081E02D8F
:100D70006A3010F4605D0994695AFDCFDC01ED9191
:100D8000FC910190F081E02D6AE00994DC015E960F
:100D90008D919C915F975C962D913C915D97821708
:100DA000930740F45A96ED91FC91E80FF91F80816A
:100DB00090E008958FEF9FEF0895FC01848D958D4D
:100DC000268D378D821B930B0895EF92FF920F9320
:100DD0001F93CF938C01C62F70E084E075956795C3
:100DE0008A95E1F7F80184A995A90E94B2067C01D1
:100DF0006C2F6F70F80184A995A90E94B2068E0D20
:100E00009F1DCF911F910F91FF90EF900895FC01CE
:100E100024813581828193812817390768F4808184
:100E20009181A9014F5F5F4F55834483FC01E20F1D
:100E3000F31F808190E008958FEF9FEF08954A9609
:100E40000C940707089590E080E0089580917A005F
:100E5000806480937A0080917A0086FDFCCF809137
:100E600078009091790008952F923F924F925F926F
:100E70006F928F929F92AF92BF92CF92DF92EF923A
:100E8000FF920F931F93CF93DF93C0908400D09075
:100E90008500B09B0EC02FEFC216D20651F0809194
:100EA000380190913901019690933901809338016E
:100EB000B09AC0913E01D0913F018091380190914C
:100EC0003901EE81FF819F012F5F3F4F3F832E83CA
:100ED000F7FF12C0DF91CF911F910F91FF90EF901C
:100EE000DF90CF90BF90AF909F908F906F905F906A
:100EF0004F903F902F900895AF01440F551FE40F7E
:100F0000F51FEC0FFD1FA0E0A82F99278827E12CE3
:100F10008C299D29AE2982879387A48720383105A3
:100F2000C9F6E99882E894E0909303018093020166
:100F3000188219821A821B828E819F811C0131E0E6
:100F4000231A31083F822E828A3491051CF28E01C9
:100F5000065F1F4FF80150E040E020E0812C912C0B
:100F6000540142155305FCF44F5F5F4FC190D1907F
:100F7000E19080819181A2818C199D09AE096C015B
:100F8000EA2E34E0C31A3CEFD30AE10832E8C31674
:100F900039E4D306E10428F7B0E0880E991EAA1EB2
:100FA000BB1E2F5FDECF2A3408F494CF30E050E030
:100FB00040E0C501B4010E94932949015A01842FE0
:100FC000B90190E00E944E282AE037ED43EA5BE346
:100FD0000E94AF280E94D62A9B0140E024016A2C7F
:100FE000421A530A640A280D391D4A1D70E060E058
:100FF000F12C812C912C540162157305E4F46F5F80
:101000007F4FF801C190D190E1908F018081918153
:10101000A2818C199D09AE0984159505A60560F37A
:10102000281739074A0740F3B0E0880E991EAA1E18
:10103000BB1EF394E1CFF9E4FF1508F04BCFC501D7
:10104000B4010E944E284B015C016F2D70E090E0CE
:1010500080E00E944E289B01AC01C501B4010E94B2
:101060005D2A20E030E040E05EE30E94AF289B0173
:10107000AC0160E074E284EF98E40E945D2A68832A
:1010800079838A839B8326CFFC01862F208131813F
:10109000A90141505109518340831216130624F4CB
:1010A00081EC92E00E940707089520910302420F0D
:1010B0004093030202970CF060ED6093490208959B
:1010C00097FF02C090E080E0813020E2920714F0A8
:1010D00080E090E20895CF93C82FCB010E94600872
:1010E000E0916D02F0916E022C2FCC0F330BA90111
:1010F0004A5F5F4F440F551FE40FF51F91838083B4
:101100008CE0829FF001839FF00D1124E65BFD4F80
:1011100013861286220F331FF901E65BFD4F878D80
:1011200090A10196C9F080916D0290916E02480FD6
:10113000591FDA018D919C9190A3878F9FB7F894E6
:101140008091F80180628093F80125E33CE03093C0
:10115000EF012093EE019FBFCF9108952F923F9210
:101160004F925F926F927F928F929F92AF92BF92B7
:10117000CF92DF92EF92FF920F931F93CF93DF9363
:10118000682ECB016A0118012901C62D062C000C1E
:10119000DD0BFE01EE0FFF1FE65BFD4F2FEF3FEF74
:1011A00030A3278F2FB7F894008111812FBF4F3FB5
:1011B0005F4F09F041C09CE0D92EDC9EC001DD9E4E
:1011C000900D1124AC01465B5D4F7A01FA018285D6
:1011D0009385892BF1F081E090E0938782871682D6
:1011E000178210861186B801012E000C880B990B0E
:1011F0000E945028F701628373838483958321962C
:10120000DC9EF001DD9EF00D1124E65BFD4F1183A5
:101210000083DF91CF911F910F91FF90EF90DF90AE
:10122000CF90BF90AF909F908F907F906F905F9086
:101230004F903F902F9008956F3F7F4F19F00E947D
:1012400060088C01C6010E946008801B910BBC01E4
:10125000990F880B990B0E9450284B015C0120E0EC
:1012600030E0A9010E944928811116C0B601862DDF
:10127000DF91CF911F910F91FF90EF90DF90CF9072
:10128000BF90AF909F908F907F906F905F904F90A6
:101290003F902F900C946B0820E030E040E059E341
:1012A000C501B4010E94AF28A20191010E94AF289C
:1012B0001B012C0120E030E0A9010E94052B18162B
:1012C00024F057FA509457F8509420912D02309101
:1012D0002E0240912F0250913002C201B1010E94B2
:1012E000AF289B01AC010E94F1290E94D62A8CE014
:1012F000782E7C9E90017D9E300D1124A901465BC5
:101300005D4F7A01FA01738762876115710509F4EF
:10131000ADCF90E080E00E944E289B01AC01C5015A
:10132000B4010E945D2A4B015C01F701868297821D
:10133000A086B186B801110F880B990B0E94502826
:10134000F701628373838483958321967C9EF001E9
:101350007D9EF00D1124E65BFD4FD182C08220E01E
:1013600030E0A901C501B4010E944928811151CF83
:1013700081E090E0F701938782874BCF882311F0BB
:101380005E9A08955E980895CF93DF93EC0180E113
:10139000FB0111928A95E9F7FB0190E08C81981787
:1013A00088F4292F30E0A881B981A20FB31F8C9156
:1013B0008083AA81BB81A20FB31F8C918183329657
:1013C0009F5FECCFDF91CF91089584EC91E00C9476
:1013D0007206AF92BF92DF92EF92FF920F931F932C
:1013E000CF93DF935C010FE612E0D0E0C0E0F8019C
:1013F000D1908F017501EC0EFD1EC7010E946D2971
:10140000D81621F06D2DC7010E9475292196CD3285
:10141000D10569F78FE692E0DF91CF911F910F918F
:10142000FF90EF90DF90BF90AF900895CF92DF9242
:10143000EF92FF920F931F93CF93DF93EB017B010A
:101440002DE2E20EF11C8B016C01C61AD70AC6010F
:10145000800F911F0E946D29F80181938F01EE1575
:10146000FF05A9F7CE01DF91CF911F910F91FF905A
:10147000EF90DF90CF900895CF92DF92EF92FF929E
:101480000F931F93CF93DF93CDB7DEB7C054D1092D
:101490000FB6F894DEBF0FBECDBF9E01215B3F4F5C
:1014A0002F964EAD5FAD2F9760E470E0CE010196B0
:1014B0006C010E94BC277C019FE3E916F1047CF1DA
:1014C000C70102960E94942B8C01009751F19E0156
:1014D000215B3F4F2F964EAD5FAD2F97B7010E9416
:1014E000BC277C01A701B80181E591E00E948F052E
:1014F000C016D10619F0C8010E94302CC701C05C8B
:10150000DF4F0FB6F894DEBF0FBECDBFDF91CF9196
:101510001F910F91FF90EF90DF90CF90089586017B
:10152000E1CFE12CF12CEACFF894E99882E894E03D
:101530009093030180930201EFE6F0E08081887DC3
:1015400080831092810080913E0190913F010E9422
:10155000302C10923F0110923E0178940895CF9262
:10156000DF92EF92FF92CF93DF93C0913E01D09133
:101570003F01209709F056C00E94B40464E670E071
:1015800080E090E00E9402058AE891E00E94942B9E
:10159000EC0180E090E0A0ECBFE788839983AA8308
:1015A000BB831D821C828BEF9FEF9F838E830E94E3
:1015B000340579876887FE013A96CE0186579E4F9B
:1015C000119211921192E817F907D1F7D0933F01C8
:1015D000C0933E01CD2B41F480E0DF91CF91FF908D
:1015E000EF90DF90CF900895F89484E397E0909384
:1015F000030180930201809169008C6080936900EF
:10160000E99A10928500109284001092800081E087
:101610008093810080916F00816080936F00B09A09
:101620007894DACFC880D980EA80FB80A701960140
:10163000C701B6010E945A2B81111BC020E030E087
:10164000A901C701B6010E944928811106C0C12C19
:10165000D12C80ECE82E8FE7F82EC0922D02D0928C
:101660002E02E0922F02F09230020E94940A81E052
:10167000B4CF0E94340528853985621B730B603D09
:10168000774008F4A9CF80E090E0A0ECBFE780931A
:101690002D0290932E02A0932F02B0933002E5CF3B
:1016A000CF93DF93EC0188819981009731F00E94FC
:1016B000302C198218821B821A821C82DF91CF91F2
:1016C0000895CF92DF92EF92FF921F93CF93DF9313
:1016D000EC01FC013296888111E09081891728F491
:1016E00032961F5F892F1830C1F782EA92E00E947C
:1016F000500B1130F1F01093A602C12ED12C7601BF
:10170000EE0CFF1CC7010E94942B21E0E21AF108A5
:10171000FC01119221E0E21AF108F7FEFACF909352
:10172000A3028093A2028C0D9D1D9093A50280932D
:10173000A4028091A2029091A302892BD1F090E0A3
:1017400080E02091A602821780F429813881A0913F
:10175000A202B091A302A80FB91F3C93A091A402CA
:10176000B091A502A80FB91F2C932296019681175C
:1017700040F3DF91CF911F91FF90EF90DF90CF90DA
:101780000895FB0101900020E9F73197AF01461B56
:10179000570BDC01ED91FC910280F381E02D09945F
:1017A00065E371E081E591E00C94C10BCF93DF9389
:1017B0000E947206EC010E94D00B8C0F9D1FDF91DE
:1017C000CF9108957F928F929F92AF92BF92CF92C6
:1017D000DF92EF92FF920F931F93CF93DF9300D08E
:1017E00000D000D0CDB7DEB78FEF9FEF9A8389830B
:1017F0001B821C821D821E828DE2E82EF12C670165
:101800008DE2C80ED11C9BE0C91694E0D906D9F030
:10181000DE0111965D0110E000E0F50171905F01BD
:101820004701800E911EC4010E946D29781621F097
:10183000672DC4010E9475290F5F1F4F06301105E7
:1018400061F77601DCCF10929D0210929C02EFE6C8
:10185000F2E08DE2DF011D928A95E9F781E090E0E8
:10186000A0E0B0E08093710290937202A0937302A3
:10187000B09374020E9403030E94FA0290E080E099
:101880000E94E9099FB7F8948091F8018E7F8093B8
:10189000F8018091F8018D7F8093F8019FBF8FE35D
:1018A00095E026960FB6F894DEBF0FBECDBFDF9150
:1018B000CF911F910F91FF90EF90DF90CF90BF904D
:1018C000AF909F908F907F900C94D60B0F931F93A7
:1018D000CF93DF93EC01088519850617170708F4E5
:1018E0008B01095F1F4F087F8E819F8180179107B1
:1018F00021F1888199810115110549F1009719F1AC
:10190000B8010E94B92C9983888388819981892B99
:1019100011F410E000E01F830E838A819B81081779
:10192000190710F41B830A838A819B812C813D81D6
:101930008217930710F49D838C8381E0DF91CF9110
:101940001F910F910895C8010E94942BDCCF00973E
:1019500001F30E94302C19821882DDCFFC01158220
:1019600014821382128260857185695F7F4F687F60
:101970000C94660C8F929F92AF92BF92DF92EF927F
:10198000FF920F931F93CF93DF93EC01D62EECA021
:10199000FDA008A519A5AEA0BFA08CA99DA9DC013A
:1019A000ED91FC910680F781E02D0995B2E5DB16FB
:1019B00031F0E4E5DE1619F0F1E4DF121DC08CA869
:1019C0009DA8DF9287E395E09F938F931F9288E015
:1019D0008F9389E491E09F938F930E948C2769E411
:1019E00071E0C4010E94C10B8DB79EB707960FB678
:1019F000F8949EBF0FBE8DBF0E0D1F1DEA0CFB1C81
:101A00000E151F0539F0D8016D918D01CE010E9490
:101A1000E506F6CF8CA99DA90E94BE068CA99DA9BA
:101A2000DC01ED91FC910680F781E02D0995CE0156
:101A300084960E94AE0C1F8680E0DF91CF911F91AB
:101A40000F91FF90EF90DF90BF90AF909F908F909D
:101A50000895CF938091CF029091D0022091CD0232
:101A60003091CE0282179307D0F4E091CB02F0912F
:101A7000CC02E80FF91F808190E02091B60221305E
:101A800089F487FD19C02091B302C7E02817190611
:101A900051F064E587EA92E0CF910C94BA0C8FEF95
:101AA0009FEFEBCFC8E08BEC92E00E94AE0C10925F
:101AB000B6028C2FCF910895C6E0F5CFCF93DF9378
:101AC000EC0188819981009721F00E94302C1982C5
:101AD00018821F821E821B821A821D821C82DF9145
:101AE000CF9108951F93CF93DF93EC018A819B815F
:101AF0009C012F5F3F4F4E815F818417950750F403
:101B0000E881F9813B832A83E80FF91F608381E034
:101B100090E00CC0162FB901CE010E94660C811115
:101B200009C0CE010E945E0D90E080E0DF91CF9170
:101B30001F910895E881F9818A819B819C012F5F23
:101B40003F4F3B832A83E80FF91F1083E0CFCF93E9
:101B5000DF93EC018A89882381F08C8D9D8D8F3FE6
:101B6000910530F081E08E871D86DF91CF91089539
:101B7000CE014A960E94720DF7CF8C858617170604
:101B800089F781E08A8BF0CF1F93CF93DF93162FD5
:101B900021E0FC012787EC01A496CE010E94AE0C47
:101BA000612FCE01DF91CF911F910C94720DFC013A
:101BB00097859D7F913021F4CF0184960C94720D0E
:101BC00090E080E00895BF92CF92DF92EF92FF9273
:101BD0000F931F93CF93DF93EC01162F8E856A30FE
:101BE00009F0A3C0823030F08D85833008F46DC0D9
:101BF00081E08E878E85823008F453C08A898823DD
:101C000009F44FC08C8D9D8D009711F421E02E8733
:101C10002E85223009F47EC0233009F042C0CE0167
:101C20004A960E94AE0C8F85882309F462C01C85F9
:101C30008CA99DA9DC01ED91FC910680F781E02D36
:101C40000995ECA8FDA881E48F9387E395E09F9325
:101C50008F931F9288E08F9389E491E09F938F93F5
:101C60000E948C2769E471E0C7010E94C10B612FBB
:101C7000CE010E94E5068CA99DA90E94BE068CA9F2
:101C80009DA9DC01ED91FC910680F781E02D09957D
:101C90002DB73EB7295F3F4F0FB6F8943EBF0FBE3A
:101CA0002DBF1E861D868A89882329F0CE014A967B
:101CB0000E94AE0C1A8ADF91CF911F910F91FF9075
:101CC000EF90DF90CF90BF900895813009F490CFCE
:101CD000823009F08FCF1D8A40E150E070E060E073
:101CE000CE0143960E947A2570E0CE010E94A70D96
:101CF00081CF6C85CE010E94C40DE8A9F9A9309767
:101D000021F0188A099581E0888B61E4CE010E9458
:101D1000BA0CC7CF188A2E8D3F8DEEA5FFA5821B6A
:101D2000930B099581E0888BBCCF813021F26D3017
:101D300011F2811179C0ED85E1116DC06B3209F0AE
:101D40006DC081E08E0F8D87EC0FFD2FF11D138B81
:101D5000FE01E80FF11D138A8B898B3209F0ABCF9E
:101D60006E0133E1C30ED11C82E58F9387E3E82E29
:101D700085E0F82EFF92EF921F9298E0B92EBF9265
:101D800009E411E01F930F930E948C27B801C6014C
:101D90000E94982DADB7BEB717960FB6F894BEBF88
:101DA0000FBEADBF892BF1F181E48F93FF92EF92CB
:101DB0001F92BF921F930F930E948C27B801C601F8
:101DC0000E94982D2DB73EB7295F3F4F0FB6F8946C
:101DD0003EBF0FBE2DBF892B09F46DCF84E58F93D5
:101DE000FF92EF921F92BF921F930F930E948C2736
:101DF000B801C6010E94982DADB7BEB717960FB6B1
:101E0000F894BEBF0FBEADBF892B09F054CF82E05E
:101E10008E871D8650CFE63008F493CF1D8681E073
:101E20008E8749CF83E0F4CFE62EF12CC7010E94C4
:101E3000762D892B19F1ED8581E08E0F8D87EC0FC2
:101E4000FD2FF11D138B833050F7823009F033CF13
:101E50001D8A40E150E070E060E0CE0143960E94B0
:101E60007A2570E0CE01DF91CF911F910F91FF9005
:101E7000EF90DF90CF90BF900C94A70D1C3209F427
:101E80001ACFC7010E943D27892B49F214CFCF9367
:101E9000DF93C091DB02D091DC02E881F9810084FC
:101EA000F185E02DCE010995892B69F0E881F98152
:101EB0000284F385E02DCE010995682F87EA92E030
:101EC0000E94E30DEACFDF91CF9108950E94F905BA
:101ED00081110C94470F08958F929F92AF92BF92F9
:101EE000CF92DF92EF92FF926B017C0180913D01D6
:101EF00081110BC0C701FF90EF90DF90CF90BF9092
:101F0000AF909F908F900C9402050E94DD044B01CE
:101F10005C010E94DD04681979098A099B09683E01
:101F200073408105910580F081E0C81AD108E1086D
:101F3000F10828EE820E23E0921EA11CB11CC114F0
:101F4000D104E104F10429F70E94470FC114D10420
:101F5000E104F104F1F6FF90EF90DF90CF90BF9095
:101F6000AF909F908F9008951F93CF93DF930E941F
:101F70002607EC01CF3F83E0D80710F0CFEFD3E086
:101F800018E0115059F061E070E080E090E00E94AC
:101F90006C0F0E942607C80FD91FF3CFCE0123E094
:101FA000880F991F2A95E1F7DF91CF911F9108952E
:101FB000CF92DF92EF92FF92CF93DF93C9EFD1E000
:101FC000ACA50A2E000CBB0B2EEE3CE70E94E329C9
:101FD0006B017C0120E7C21A2EEFD20A23EBE20A42
:101FE0002BEFF20A8EE480937C0064E170E080E0E5
:101FF00090E00E946C0F0E94B40F9C0150E040E002
:10200000C701B6010E9493293FAF2EAFC901DF91EE
:10201000CF91FF90EF90DF90CF90089588EC809360
:102020007C0064E170E080E090E00E946C0F0E9410
:10203000B40FE9EFF1E025A530E025573F4F46E02A
:10204000969587954A95E1F7820F931F9695982F5D
:1020500088279795879566A570E00E94CF29CB01C8
:1020600049960895EF92FF920F931F93CF93DF93BA
:10207000EC018B017A018F858D7F813051F0F12C3D
:10208000E12CC701DF91CF911F910F91FF90EF904D
:1020900008956EA17FA1640F751F8AA59BA568177F
:1020A000790788F42CA13DA18EA19FA1A701B801B9
:1020B000820F931F0E948F2D8EA19FA18E0D9F1DB9
:1020C0009FA38EA3DECF6F5F7F4FCE0184960E94C9
:1020D000660C8111E7CFD3CFFF920F931F93CF935D
:1020E000DF93CDB7DEB7E5970FB6F894DEBF0FBE2E
:1020F000CDBFF82E8E01025D1F4F88E0F8011192CE
:102100008A95E9F78091F80181FF12C08DA981605D
:102110008DAB85E1E5E1F2E0A5E7B2E001900D923B
:102120008A95E1F76CE872E082EA92E00E94C409C5
:10213000809105029091060290938B0280938A020F
:102140000E94FA02BE016F5F7F4F80919C029091C6
:102150009D020E94160AF1100BC04DE250E0BE0134
:102160006F5F7F4F8FE692E00E94822D892BC9F02E
:1021700080919C0290919D029C01265A3F4F21150F
:10218000344008F0A3C08D9690939D0280939C02EA
:1021900080919C0290919D020E94E9098DE28CAB96
:1021A00001C01CAA0E94340560939E0270939F0296
:1021B0008093A0029093A1029FB7F8948091F801B8
:1021C0008E7F8093F8018091F8018D7F8093F801D4
:1021D0009FBF8091710290917202A0917302B091A1
:1021E00074028EA79FA7A8ABB9AB80919C02909177
:1021F0009D029BAB8AAB68E187EA92E00E94C40D26
:1022000063EF87EA92E00E94D70D48E050E0B80102
:1022100087EA92E00E9432100E94290DE0919C0210
:10222000F0919D028DA981701F928F938091700211
:102230008F9380916F028F938DA91F928F938CA99A
:102240001F928F932091710230917202409173021C
:1022500050917402A6E1B0E00E94B5298B019C0167
:102260000651110921093109CF016DE270E00E9488
:10227000CF29060F171F211D311D3F932F931F9349
:102280000F93FF93EF9389A98F9388A98F938FA5BD
:102290008F938EA58F938EEF94E09F938F9381E51C
:1022A00091E09F938F930E943C0A0FB6F894DEBF93
:1022B0000FBECDBFE5960FB6F894DEBF0FBECDBF03
:1022C000DF91CF911F910F91FF90089510929D0281
:1022D00010929C028091710290917202A0917302FF
:1022E000B09174020196A11DB11D8093710290936B
:1022F0007202A0937302B09374020E94FA0248CF54
:10230000609149026058770B67507E4F80910302BD
:1023100087FD12C04AE452E0461B570B413560F47A
:1023200084170CF4482F10920302042E000C550B56
:1023300087EA92E00C94321040E0F5CF462F50E04F
:10234000BC0187EA92E00E9432100C94290D2F9272
:102350003F924F925F926F927F928F929F92AF9235
:10236000BF92CF92DF92EF92FF920F931F93CF9382
:10237000DF93CDB7DEB7E8970FB6F894DEBF0FBE98
:10238000CDBF80916F00846080936F0080911B02AD
:1023900090911C0290938B0080938A0080918A0018
:1023A00090918B00019690938B0080938A0080918E
:1023B00084009091850020918A0030918B00820FDB
:1023C000931F90938B0080938A00B29A7894009127
:1023D0005402109155020115110509F444C02091D1
:1023E000500230915102409152025091530260913B
:1023F0004C0270914D0280914E0290914F020E94CA
:10240000F12960934C0270934D0280934E02909399
:102410004F02015011091093550200935402E090AD
:102420006D02F0906E02012B09F002C180915602FC
:1024300090915702F7019587848780915602909179
:10244000570290936A02809369029FB7F894809133
:10245000F80180628093F80125E33CE03093EF01BE
:102460002093EE019FBF8FB7F8949091680291116D
:10247000E5C091E0909368028FBF8FB7F894E09128
:102480006D02F0916E022485358530934B022093C6
:102490004A028FBF2091150280914A0290914B020F
:1024A000BC0124FFBCC26090A602662009F4B7C23A
:1024B00090E080E00E944E282CE73CE740E052E4A8
:1024C0000E945D2A6B017C0120E030E04FE753E47D
:1024D0000E94492887FD06C0C12CD12C4FE7E42E6D
:1024E00043E4F42E2090A4023090A50238862F8277
:1024F0004091A2025091A3025A8749875A83498387
:10250000FA01608170E090E080E00E944E28698FBF
:102510007A8F8B8F9C8FA70196010E94052BF1016A
:1025200087FF21C0462D50E0588F4F8B41505109F5
:102530005E8F4D8FE985FA85E40FF51F608170E0AD
:1025400090E080E00E944E286F8F78A389A39AA321
:10255000A70196010E94492818160CF489C0ED8D38
:10256000FE8DE20DF31D608170E090E080E00E943E
:102570004E286B877C878D879E872CE73CE740E061
:1025800052E46B857C858D859E850E94AF2820E076
:1025900030E040E05FE30E94F1290E94CF2A6115FC
:1025A000F0E27F070CF437C26FEF7FE1CB010E94AE
:1025B000F603E0916B02F0916C02208121FF08C0CC
:1025C0002091640230916502A901481B590BCA0190
:1025D0009B838A83198221E081E0082E000C990BED
:1025E000FC01EE0FFF1FE80FF91F81E090E08C0F58
:1025F0009D1FE80FF91F1082128211829FB7F89475
:1026000080916602821739F0209366028091F8016A
:1026100080618093F80186E0FE013196AEE5B2E07C
:1026200001900D928A95E1F7109268029FBF07C052
:102630000E94CF2AF7017587648715CF8FBFE89670
:102640000FB6F894DEBF0FBECDBFDF91CF911F91C3
:102650000F91FF90EF90DF90CF90BF90AF909F9041
:102660008F907F906F905F904F903F902F90089544
:10267000A984BA845FEFA51AB50A10E000E0C8018A
:1026800001969CA38BA3F50161915F0170E090E03E
:1026900080E00E944E282B013C01AC019B01C70148
:1026A000B6010E94052B87FF48C1EBA1FCA1E20DFA
:1026B000F31D608170E090E080E00E944E286B87FF
:1026C0007C878D879E87A3019201C701B6010E9476
:1026D0004928882309F451CFE985FA85E00FF11FD5
:1026E000608170E090E080E00E944E286DA37EA3A0
:1026F0008FA398A79B01AC01C301B2010E94F029EE
:1027000069A77AA78BA79CA72DA13EA14FA158A589
:10271000C701B6010E94F02929A53AA54BA55CA5E1
:102720000E945D2A4B015C01AC019B010E94AF2815
:102730002B013C01AC019B01C501B4010E94AF28F3
:102740006B017C01AC019B010E94F1296F87788BA2
:10275000898B9A8B20E030E040E450E4C301B20161
:102760000E94AF286B8B7C8B8D8B9E8B9B01AC0169
:102770006F85788989899A890E94F02920E030E064
:1027800040E85FE30E94F1296DA77EA78FA798AB71
:10279000A3019201C301B2010E94F1299B01AC0186
:1027A000C701B6010E94F029A50194010E94F129F8
:1027B00069AB7AAB8BAB9CAB2F85388949895A8939
:1027C0006B897C898D899E890E94F0296B8B7C8B1B
:1027D0008D8B9E8BA3019201C701B6010E94F02947
:1027E0006DAB7EAB8FAB98AFF101E00FF11F608155
:1027F00070E090E080E00E944E286F87788B898B94
:102800009A8B0115110509F09BC0F101608170E000
:1028100090E080E00E944E286B017C01F101618113
:1028200070E090E080E00E944E28A70196010E948F
:10283000F0294B015C01E985FA85618170E090E047
:1028400080E00E944E28298D3A8D4B8D5C8D0E9430
:10285000F0299B01AC01C501B4010E945D2A4B0126
:102860005C01F101628170E090E080E00E944E28FE
:10287000A70196010E94F0296B017C01E985FA8588
:10288000628170E090E080E00E944E28298D3A8DB0
:102890004B8D5C8D0E94F0299B01AC01C701B601F4
:1028A0000E945D2A6B017C012F85388949895A89EC
:1028B0006DA57EA58FA598A90E94AF282B013C018C
:1028C0002B893C894D895E896B857C858D859E85AC
:1028D0000E94AF289B01AC01C301B2010E94F12903
:1028E0002B013C0129A93AA94BA95CA969A57AA5A4
:1028F0008BA59CA50E94AF28A50194010E94AF283A
:102900009B01AC01C301B2010E94F1294B015C01A2
:102910002DA93EA94FA958AD69A57AA58BA59CA55F
:102920000E94AF28A70196010E94AF289B01AC012D
:10293000C501B4010E94F1291CCE0BA11CA19FCEA0
:102940008F89988D02970817190709F050C0ED8DEF
:10295000FE8DE20DF31D608170E090E080E00E944A
:102960004E286B017C016F88788CF3E06F1A710838
:10297000F101E60DF71D608170E090E080E00E94BB
:102980004E289B01AC01C701B6010E94F0294B0102
:102990005C0149855A85640E751EF301608170E003
:1029A00090E080E00E944E289B01AC016F8D78A1E1
:1029B00089A19AA10E94F0299B01AC01C501B40133
:1029C0000E945D2A4B015C012F85388949895A890B
:1029D000C701B6010E94F0296B017C012DA13EA127
:1029E0004FA158A56F8D78A189A19AA153CFA801B5
:1029F000BE01695F7F4FCE0101960E947A034B01B1
:102A00005C014BA15CA1BE01695F7F4FCE010196C5
:102A10000E947A0347CF77FF05C020E009C08115E7
:102A200090422CF4161617060CF4C0CDF6CF21E018
:102A300080E0D3CDCF92DF92EF92FF9286E4809335
:102A40007C0064E170E080E090E00E946C0F0E94E6
:102A5000B40FBC0190E080E00E944E289B01AC01C5
:102A600060E070EC8FE797E40E945D2A20E030E0A0
:102A700040E85FE30E94F02923EC35EF48EA5EE38B
:102A80000E94AF280E94122B20E030EE46E755E46A
:102A90000E945D2A2FE03FEC4BE55BE30E94F129A9
:102AA0009B01AC0160E070E080E89FE30E945D2A3A
:102AB00023E333E948E853E40E94F0296B017C01E9
:102AC000609128026F3FB1F0062E000C770B880B47
:102AD000990B0E94502820E030E040E85EE30E941D
:102AE000AF28A70196010E94F129FF90EF90DF9097
:102AF000CF90089560E070E080EC9FE7F2CFCF9236
:102B0000DF92EF92FF920F931F93CF93DF93CDB796
:102B1000DEB7A1970FB6F894DEBF0FBECDBF0E94FF
:102B2000E50980E494E00E94D60B81E591E00E94E3
:102B300092060E94E50981E230E020E0F9018093ED
:102B40005700649142E050E0FA018093570074917D
:102B5000E4E0F0E080935700849199E0F9019093CC
:102B600057002491E3E0F0E0909357003491FA018C
:102B70009093570094911F929F931F923F931F929F
:102B80002F931F928F931F927F931F926F9382E1D7
:102B900094E09F938F9301E511E01F930F930E94A0
:102BA0003C0A8CE094E00E94720687EC92E00E945E
:102BB00072068CEF93E00E94D60BC8010E94920629
:102BC0000E94E509209171023091720240917302D6
:102BD00050917402A6E1B0E00E94B5296B017C011E
:102BE000F6E1CF1AD108E108F10880919C0290919A
:102BF0009D026DE270E00E94CF29C60ED71EE11C37
:102C0000F11CFF92EF92DF92CF9288EE93E09F93B8
:102C10008F931F930F930E943C0A1F9286E08F931D
:102C20008FED93E09F938F931F930F930E943C0A25
:102C300085ED93E00E94720680ED93E00E9472069B
:102C40008FEB93E00E94720683EB93E00E94720682
:102C5000809115020FB6F894DEBF0FBECDBF81FD87
:102C600037C184E51F928F931F9287E18F9380EA8B
:102C700093E09F938F9301E511E01F930F930E94C0
:102C80003C0A8FE38F9380E88F931F921F921F92CD
:102C900088E08F9381E893E09F938F931F930F9326
:102CA0000E943C0A19A286E388A3BE01605E7F4FA2
:102CB000C8010E94C10B8CE20E948D068091150212
:102CC000829581701F928F9387E793E09F938F93F4
:102CD0001F930F930E943C0A2091230230912402FB
:102CE0000FB6F894DEBF0FBECDBF2115310509F434
:102CF000F1C08091210290912202281B390B50E0F3
:102D000040E060E070E080E094E00E9493293F930F
:102D10002F93809122028F93809121028F938AE6D4
:102D200093E09F938F9301E511E01F930F930E940F
:102D30003C0AC8010E9492060E94E5098091250282
:102D4000082E000C990B982F88279295907F092EBA
:102D5000000CAA0BBB0B83539343A347B04CBF9308
:102D6000AF939F938F93809130028F9380912F0226
:102D70008F9380912E028F9380912D028F9380915B
:102D8000150281701F928F9382E493E09F938F933B
:102D90001F930F930E943C0A609128020FB6F8948B
:102DA000DEBF0FBECDBF6F3F09F497C0062E000CEB
:102DB000770B880B990B0E94502820E030E040E808
:102DC0005EE30E94AF28162F072FF82EE92E0E94EF
:102DD0001A15EF92FF920F931F939F938F937F93F8
:102DE0006F9382E393E09F938F9301E511E01F932C
:102DF0000F930E943C0AE0902702F09026020E9466
:102E00000E101F92EF921F92FF929F938F9386E175
:102E100093E09F938F931F930F930E943C0A80919E
:102E200029021F928F93809116021F928F938FEF2A
:102E300092E09F938F931F930F930E943C0A89EF18
:102E400092E00E9472060E94D80F9C012150310925
:102E50000FB6F894DEBF0FBECDBF2E3F3F4F08F434
:102E600043C08FE20E948D0680911C028F93809157
:102E70001B028F93809120028F9380911F028F936A
:102E800080911E028F9380911D028F9382ED92E0BC
:102E90009F938F9381E591E09F938F930E943C0ACB
:102EA00081E591E00E9492060FB6F894DEBF0FBE56
:102EB000CDBFA1960FB6F894DEBF0FBECDBFDF9198
:102EC000CF911F910F91FF90EF90DF90CF900895D9
:102ED0008CE4C8CE20E030E21ACF10E000E080ECB5
:102EE000F82E9FE7E92E73CFBC0190E080E00E94AE
:102EF0004E2820E030E04AE754E40E945D2A9F9388
:102F00008F937F936F9384EF92E09F938F931F93A0
:102F10000F930E943C0A0FB6F894DEBF0FBECDBFE0
:102F2000A3CF2F923F924F925F926F927F928F9298
:102F30009F92AF92BF92CF92DF92EF92FF920F9348
:102F40001F93CF93DF93CDB7DEB72A970FB6F894D0
:102F5000DEBF0FBECDBF98878F8380ED809349027F
:102F6000109204021092030251E5E52E51E0F52E75
:102F70006EEF262E61E0362E7AEC872E71E0972ECA
:102F8000412C512CE0E86E2EEFE37E2E8F81988548
:102F90009C012150310938872F83181619060CF02F
:102FA00098C31091490281EC92E00E940707E091DA
:102FB0004902E058E13508F0E0E5F0E0E750FE4F67
:102FC00080838091490291E0980F90934902103DCF
:102FD00011F5809349022F813885232BB9F6893B5F
:102FE000A9F680910302823089F683E498E09093F9
:102FF0003A028093390285E0EAE0F1E0ABE3B2E027
:1030000001900D928A95E1F787E08093030280ECAE
:1030100080934902BBCF1A3811F480EDF9CF1938EB
:1030200009F0B4CF90910202963509F4B5C108F0C9
:1030300060C0923209F49AC168F5923109F463C113
:10304000D8F4903109F486C1913109F09FCF0091F5
:10305000FE011091FF012091000230910102409188
:10306000FC015091FD016091F9017091FA0180918C
:10307000FB010E94AE088ACF2F813885903209F477
:1030800072C142E06CEB913209F080CFC9010E941D
:1030900055087CCF913509F4A9C1C0F4933209F4E5
:1030A0006AC1903509F072CF60E0CE0107960E94A8
:1030B0004408823941F49FB7F8948091F801826006
:1030C0008093F8019FBF0E94400560CF933509F4BB
:1030D00060C108F453C1943509F058CF1092F10142
:1030E0001092F0011092F5011092F6011092F70182
:1030F0004DCF933909F488C108F09FC0943809F482
:10310000BAC1E0F4923809F494C1933809F03ECF83
:1031100061E0CE0107960E94440820911B02309185
:103120001C02281B310930931C0220931B023F9381
:103130002F933F932F9383E892E091C1963809F43F
:10314000FFC108F4DCC1913909F020CF1F928CE94E
:103150008F931F9287E18F9388E08F9383E48F93FF
:103160008EEA92E09F938F93FF92EF920E943C0A27
:103170000FB6F894DEBF0FBECDBF35E1C32E32E0EF
:10318000D32E09EA12E0F60181916F011F928F930D
:103190001F930F93FF92EF920E943C0A0F900F90A3
:1031A0000F900F900F900F90FAE2CF16F2E0DF062B
:1031B00051F70E94D00B1F921F921F9283EA8F93A8
:1031C0001F9287E18F931F921F9283ED91E09F934F
:1031D0008F93FF92EF920E943C0A81E591E00E945A
:1031E00092060FB6F894DEBF0FBECDBF10E08091FF
:1031F000A602181708F0ECC0812F90E0A091A4025D
:10320000B091A502A80FB91F2C911F922F93E091A6
:10321000A202F091A302E80FF91F80811F928F9301
:103220009F928F92FF92EF920E943C0A1F5F0FB60F
:10323000F894DEBF0FBECDBFDACF923A09F43AC29E
:1032400048F4943909F44CC1953909F09FCE0E9495
:10325000E20B9CCE9D3E09F487C19E3E09F4E3C17A
:10326000933A09F093CE6FEFCE0107960E9444087F
:1032700081118CCEEFB7E987F894E9E3F2E080E1C1
:10328000DF011D928A95E9F70F8118851016110646
:103290003CF5013108F000E110E0A090C502B090CB
:1032A000C602C090C302D090C402CA18DB08609165
:1032B000C1027091C2026A0D7B1DA80189E392E0F0
:1032C0000E948F2DC801C016D10608F4C601A80EB1
:1032D000B91EB092C602A092C502C016D10620F057
:1032E00089E392E00E94610B809115028F7E8093AA
:1032F00015029091A602992319F08061809315021E
:10330000B985BFBF43CE8F8198859C01215031097B
:1033100038872F8318161906DCF481EC92E00E949E
:1033200007079C01982F9F7044E0359527954A9593
:10333000E1F7822F8F708A87209103028A85880F98
:10334000820F809303029A5B990F909349021ECEDD
:1033500090E0F2CF6091FC017091FD018091FB0142
:103360000E946B0813CE44E068EB90CE42E06EEB17
:103370008F8198858CCE44E064EBFACF409239027D
:1033800050923A0260923B0270923C0244E060EC40
:10339000EFCF0E947F15FACD8F8198859C01215037
:1033A000310938872F83181619060CF0EFCD81EC00
:1033B00092E00E940707E0916B02F0916C0221E01D
:1033C000019709F020E0808120FB81F98083DECD28
:1033D000103228F480E30E948D061F5FF9CF0E940F
:1033E000D00B81E591E00E949206D0CD0E940303AC
:1033F0009FB7F8948091F80182608093F8019FBF95
:1034000081E00E946C10C2CD1FB7F89460E0CE013D
:1034100007960E944408823929F48091F80182605D
:103420008093F8018091F8018E7F8093F8011FBF8F
:10343000E7CF61E0CE0107960E94440820911B026D
:1034400030911C02820F932F911D90931C02809348
:103450001B029F938F939F938F9386E992E09F9394
:103460008F93FF92EF920E943C0A0FB6F894DEBF52
:103470000FBECDBF8BCD8F8198859C012150310926
:1034800038872F8302970CF18091C5029091C60274
:103490002091C3023091C402281B390B2230310520
:1034A00010F022E030E0E091C102F091C202E80F9A
:1034B000F91F4081518150931C0240931B02820FDF
:1034C000931F9093C6028093C50280911B02909136
:1034D0001C029F938F939F938F9380E792E0BFCFBF
:1034E00086E692E00E94D60B0E94B40464EF71E07D
:1034F00080E090E00E9402050E94AF0A47CD61E0A3
:10350000CE0107960E944408209164023091650222
:10351000820F932F911D90936502809364029F9375
:103520008F9387E592E09F938F93FF92EF920E9493
:103530003C0A0F900F900F900F900F900F9026CD98
:1035400061E0CE0107960E94440820916402309108
:103550006502281B310930936502209364023F9372
:103560002F9388E492E0DFCF9FB7F89486E0E8E5F8
:10357000F2E0DE01119601900D928A95E1F700913B
:103580004A02D0904B029FBF82E492E00E947206F2
:103590008A819B81892B09F441C010E0812F012E83
:1035A000000C990BFC01EE0FFF1FE80FF91F81E0E3
:1035B00090E08C0F9D1FE80FF91F81819281009789
:1035C000B1F0DF920F939F938F9380811F928F931F
:1035D000A7E3B2E0BF93AF93FF92EF920E943C0A41
:1035E0001F5F0FB6F894DEBF0FBECDBFD7CF0E94CE
:1035F000D00BE0916D02F0916E0285858F938485EA
:103600008F93DF920F931F921F92A0E1B2E0BF93BE
:10361000AF93FF92EF920E943C0A27CF84E292E0A0
:103620000E94D60BE6CF8AE092E00E94720689EFF4
:10363000C82E81E0D82E00E810E0B02E902F9370B5
:10364000A92E81F41F930F93A3E0B2E0BF93AF9331
:10365000FF92EF920E943C0A0F900F900F900F90F4
:103660000F900F90D6018D916D011F928F933F9215
:103670002F92FF92EF920E943C0A8B2D8F700F9039
:103680000F900F900F900F900F908F3061F487EF95
:1036900091E00E9472060F5F1F4F013D110569F610
:1036A0000E94D00B73CCB3E0AB12F5CF80E20E9446
:1036B0008D06F1CF6FEFCE0107960E94440881116D
:1036C00065CC69E372E082EA92E00E94C40940E1BD
:1036D0005ECE2A960FB6F894DEBF0FBECDBFDF9147
:1036E000CF911F910F91FF90EF90DF90CF90BF90FF
:1036F000AF909F908F907F906F905F904F903F9092
:103700002F9008951F920F920FB60F9211242F93AE
:103710003F938F939F93AF93BF938091410190917B
:103720004201A0914301B09144013091400126E053
:10373000230F2D3758F50296A11DB11D209340018E
:103740008093410190934201A0934301B0934401BF
:103750008091450190914601A0914701B0914801A7
:103760000196A11DB11D8093450190934601A09340
:103770004701B0934801BF91AF919F918F913F91C5
:103780002F910F900FBE0F901F90189529E8230FCF
:103790000396A11DB11DD2CF1F920F920FB60F92AB
:1037A00011242F933F934F935F936F937F938F9346
:1037B0009F93AF93BF93EF93FF93E0910201F0913A
:1037C00003010995FF91EF91BF91AF919F918F9167
:1037D0007F916F915F914F913F912F910F900FBE0D
:1037E0000F901F9018951F920F920FB60F921124F1
:1037F0002F933F934F935F936F937F938F939F93F9
:10380000AF93BF93EF93FF93E0910001F09101011B
:103810000995FF91EF91BF91AF919F918F917F910A
:103820006F915F914F913F912F910F900FBE0F902D
:103830001F9018951F920F920FB60F9211242F937D
:103840003F934F935F936F937F938F939F93AF9328
:10385000BF93EF93FF9381E591E00E940306FF91F0
:10386000EF91BF91AF919F918F917F916F915F91F8
:103870004F913F912F910F900FBE0F901F90189571
:103880001F920F920FB60F9211242F938F939F9335
:10389000EF93FF93E0916101F09162018081E091EB
:1038A0006701F091680182FD1BC0908180916A01DF
:1038B0008F5F8F7320916B01821741F0E0916A0155
:1038C000F0E0EF5AFE4F958F80936A01FF91EF91E0
:1038D0009F918F912F910F900FBE0F901F90189571
:1038E0008081F4CF1F920F920FB60F9211248F9305
:1038F0009F938091380190913901019690933901FD
:10390000809338019F918F910F900FBE0F901F9061
:1039100018951F920F920FB60F9211248F939F93B9
:10392000AF9380913A0190913B01A0913C010196A7
:10393000A11D80933A0190933B01A0933C0180919B
:10394000EE019091EF01181619062CF4019790934F
:10395000EF018093EE018091F0019091F1010097C9
:1039600029F001979093F1018093F001AF919F911D
:103970008F910F900FBE0F901F9018951F920F926E
:103980000FB60F9211242F933F934F935F936F9332
:103990007F938F939F93AF93BF93CF93EF93FF93B7
:1039A00086E0EEE5F2E0A8E5B2E001900D928A959E
:1039B000E1F7109285001092840010928900109215
:1039C0008800B19AE0916B02F0916C02808186953B
:1039D000817091E0892780936702809159029091CC
:1039E0005A029093890080938800C0E08C2F0C2E9F
:1039F000000C990BFC01EE0FFF1FE80FF91FE65BAF
:103A0000FD4F87859089892B31F0809167020E9454
:103A1000BE09CF5FEBCF80914A0290914B02009795
:103A200071F59091670281E089270E94BE0980911B
:103A3000670291E089278093670280916F008B7FF6
:103A400080936F008091590290915A02892BE9F07E
:103A500080916F00826080936F00FF91EF91CF9112
:103A6000BF91AF919F918F917F916F915F914F9196
:103A70003F912F910F900FBE0F901F9018958115B9
:103A80009042ACF280916702D0CF80916F008D7F21
:103A9000E2CF1F920F920FB60F9211242F933F93F4
:103AA0004F935F936F937F938F939F93AF93BF9346
:103AB000EF93FF93809167020E94BE09EFE6F0E06A
:103AC00080818D7F8083FF91EF91BF91AF919F9116
:103AD0008F917F916F915F914F913F912F910F90B7
:103AE0000FBE0F901F90189582EA92E00E94500B33
:103AF00085E291E09093A8028093A7028BEC92E07C
:103B00000E945E0D81EC92E00C945E0DCF93DF93EA
:103B1000A1E5B1E013961C921E92129748EE53E075
:103B200060E070E014964D935D936D937C931797CE
:103B300083E191E011969C938E9385EC90E01D9625
:103B40009C938E931C9784EC90E01F969C938E938D
:103B50001E9780EC90E051969C938E93509781EC49
:103B600090E053969C938E93529782EC90E05596FA
:103B70009C938E93549786EC90E057969C938E93EB
:103B8000569759961C9259975A961C925A975B963B
:103B90001C925B975C961C925C97E7EAF2E01382BA
:103BA0001282448355836683778385E291E0918313
:103BB00080838EEF848715861686178681E0808B3A
:103BC000118A128A2AEB32E087E0E90119928A957C
:103BD000E9F7138E128E158E148E178E168E11A283
:103BE00010A213A212A215A214A217A216A211A625
:103BF00010A613A612A615A614A617A616A611AAF5
:103C000010AA87E49FE093AB82ABB5ABA4ABEEEE1A
:103C1000F1E08FEF9FEF9183808382E19AE79383B6
:103C2000828314821582168217821086118612866C
:103C3000EAE4F2E081E2DF011D928A95E9F785E18D
:103C400092E092A381A389EF91E094A383A3E2EA97
:103C5000F2E011821082138212821482EFE6F2E007
:103C60008DE2EF0119928A95E9F716A615A688E765
:103C70009CEEAFEFBFEF87A790ABA1ABB2ABDF91EC
:103C8000CF910895CF93DF93CDB7DEB7AD970FB641
:103C9000F894DEBF0FBECDBF789484B5826084BD3A
:103CA00084B5816084BD85B5826085BD85B5816040
:103CB00085BD80916E00816080936E0010928100BE
:103CC0008091810082608093810080918100816079
:103CD000809381008091800081608093800080913A
:103CE000B10084608093B1008091B00081608093C6
:103CF000B00080917A00846080937A0080917A008D
:103D0000826080937A0080917A008E7F80937A001F
:103D100080917A00806880937A001092C100E091CF
:103D20006101F091620182E08083E0915D01F09198
:103D30005E011082E0915F01F091600180E180837B
:103D400010926901E0916501F091660186E080833F
:103D5000E0916301F0916401808180618083E09152
:103D60006301F0916401808188608083E091630148
:103D7000F0916401808180688083E0916301F0911B
:103D8000640180818F7D80830E94E50989EA94E047
:103D90000E94D60B81E591E00E949206EBEFF1E0E4
:103DA0008FE4DF011D928A95E9F78FEF9FEF9093E3
:103DB000FA018093F9018091B3028E3FC1F08EEF3A
:103DC0008093B3021092B4021092B5021092B60220
:103DD00081E08093B7021092B8021092B90281EC90
:103DE00092E00E945E0D8BEC92E00E945E0D87E1F6
:103DF0008093B30281E997E19093D6028093D50234
:103E000080E891E19093D8028093D7028FEF9FEFE3
:103E100090939D0280939C0210E000E0412C512C75
:103E200032010E3DB3E01B0751F1BE016F5F7F4FC2
:103E3000C8010E94160ACE0103960E94D50229816C
:103E40003A8128173907C1F44B815C816D817E81ED
:103E5000441555056605770578F010939D0200938B
:103E60009C028DE2FE013196AFE6B2E001900D9228
:103E70008A95E1F72A013B01035D1F4FD2CF809164
:103E80009C0290919D02019609F0D9C00E94E20B1C
:103E900060E084E10E94830460E083E00E94830488
:103EA00010922A0210922B0210922C020E94AF0A4A
:103EB000CE0101966C0180913E0190913F01892BCA
:103EC00009F415C10E94AF0A882309F4B0C04090DC
:103ED0002D0250902E0260902F0270903002A301AC
:103EE0009201C301B2010E945A2B811154C020E0FB
:103EF00030E0A901C301B2010E944928882309F4D6
:103F00004AC0A301920160E074E284EF98E40E9449
:103F10005D2A0E94D62A709365026093640219821A
:103F20001092F80110926702AFEFBFEFB0936A02F0
:103F3000A09369020E943E0461E086E00E9483042F
:103F4000F8941092B2001092B000B1E0B093B100BA
:103F500080917000816080937000B89A10923A014D
:103F600010923B0110923C0187EA91E1909303018A
:103F700080930201809169008C6080936900E99AC6
:103F80001092800082E08093810080916F00887D94
:103F900080936F0078940E940E1090933602809365
:103FA00035020E941A156093310270933202809399
:103FB0003302909334020E94D80F68E187EA92E0BE
:103FC0000E94C40D67EF87EA92E00E94D70D6CE073
:103FD0008DE292E00E949E118091150280FF20C028
:103FE00060908A0270908B0261147104C9F0809015
:103FF000170290901802A0901902B0901A0220E0C7
:1040000030E0A901C501B4010E944928882341F08C
:1040100095018401A3016FEF7FEF80E00E94AE085D
:10402000F8948091F80184608093F80178940E945C
:10403000F905882309F43FCF0E94470F3CCF8091B8
:104040007602873308F487E38E3708F08DE7809394
:10405000760285E1E5E7F2E0A5E1B2E001900D929C
:104060008A95E1F782EA92E00E94500B8CE892E098
:104070000E94610B0E94E509E0919C02F0919D0273
:10408000809170028F9380916F028F93CF016DE2C8
:1040900070E00E94CF294B01B12CA12C86E1881A37
:1040A0009108A108B108A6E1B0E0A30192010E9425
:1040B000B529860E971EA81EB91EBF92AF929F9279
:1040C0008F92FF93EF937F926F925F924F9286E869
:1040D00094E09F938F9381E591E09F938F930E944B
:1040E0003C0A0FB6F894DEBF0FBECDBFD1CEF89418
:1040F0003090F801789432FE09C0F8948091F8016C
:104100008B7F8093F80178940E947F150E9434057C
:104110004B015C0133FE1BC0F8948091F801877F4E
:104120008093F801789468E187EA92E00E94C40DD8
:1041300064EF87EA92E00E94D70D6FEF87EA92E082
:104140000E94D70D63E08AE292E00E949E1134FE45
:1041500018C0F8948091660289838091F8018F7E5F
:104160008093F801789468E187EA92E00E94C40D98
:1041700065EF87EA92E00E94D70D61E0C6010E94D8
:104180009E1135FE3BC0F8948091EE019091EF01B5
:10419000892B99F58091F8018F7D8093F801AFEF1D
:1041A000BFEFB093EF01A093EE018091690290916F
:1041B0006A0286018F3F980761F019829B838A8388
:1041C0008FEF9FEF90936A02809369028E010C5FDC
:1041D0001F4F7894C016D10681F068E187EA92E01B
:1041E0000E94C40D62EF87EA92E00E94D70DB801E9
:1041F0006C197D09C6010E949E11789430FE12C090
:104200000E94340500919E0210919F022091A0020D
:104210003091A102601771078207930718F080E0C0
:104220000E946C108091F0019091F101892B09F0AE
:10423000FECEF894A2E1BAE7B093F101A093F001A9
:104240007894B1E0B0933D010E941A152B013C0116
:1042500040923102509232026092330270923402E4
:10426000AC019B010E945A2B811105C0C301B20110
:104270000E94CF2A7B010E940E108C01909336027F
:1042800080933502BC01990F880B990B0E9450282E
:104290009B01AC010E945A2B811104C0E016F1066B
:1042A0000CF47801892C9A2CAB2CBB2414014A2CD9
:1042B00010923D01809116028823C1F18E151F04D2
:1042C000ACF58091F2019091F301A091F4012816D0
:1042D00039064A0658F1AA2DC4018B589F4FAF4F9B
:1042E0008093F2019093F301A093F4018091150261
:1042F00082FD05C08460809315020E94400570E035
:1043000060E08FEF0E946B08E982809116028A8339
:1043100068E187EA92E00E94C40D61EF87EA92E0CB
:104320000E94D70D62E0C6010E949E118091290271
:10433000882309F47CCE2091F5013091F60140915B
:10434000F70122163306440608F471CE24E0829F5A
:1043500020011124052C000C6608480C591C6A1C0D
:104360004092F5015092F6016092F70181E080934E
:104370003D010E940E1090933602809335020E94F8
:104380001A15609331027093320280933302909336
:1043900034020E94D80F10923D0168E187EA92E052
:1043A0000E94C40D60EF87EA92E00E94D70D6E2D47
:1043B00087EA92E00E94D70D6CE08DE292E00E94C5
:1043C0009E1135CEAFE0B0E0E8EEF1E20C9443256B
:1043D0006C011B015A01FC0117821682838181FF47
:1043E00048C39E012F5F3F4F4901F6019381F101C0
:1043F00093FD859193FF81911F01882309F4E7C202
:10440000853239F493FD859193FF81911F018532A7
:1044100039F4B60190E00E945C2735015301E5CFE5
:10442000F12C512C00E0003238F48B3209F190F479
:104430008032F9F0833209F107FD34C020ED280FF6
:104440002A3020F506FF1BC0FAE0FF9E200D112444
:10445000F22E05C08D3279F0803371F70160F101E1
:1044600093FD859193FF81911F018111DCCF1AC0CB
:1044700002600460F4CF0860F2CF0061F0CF3AE050
:10448000539E200D1124522E0062E9CF8E3221F46A
:1044900006FD9DC20064E3CF8C3611F40068DFCFC7
:1044A0008836E9F29BEB980F933008F05FC000610B
:1044B000805E06FD02C046E0F42E102F1F73853685
:1044C00009F05BC0106417FF61C08F2D9BE39F153F
:1044D00008F48BE344244394480E27E03501F4E0CC
:1044E0006F0E711CF5016081718182819381042DB1
:1044F000A4010E9465265C01F981FC87F0FF03C0DE
:104500000DE2F3FF07C00BE211FD04C0012F0470A0
:1045100012FD00E22C852C70E22E09F457C0011127
:10452000ABC2F3E0E12CF515A0F483E0E52CE81A2A
:1045300013FD08C0B60180E290E00E945C27EA9477
:10454000E110F8CF002329F0B601802F90E00E94FF
:104550005C273C8522ECA22E20E0B22E33FD04C065
:1045600096ECA92E90E0B92E107122C09BE9980F0D
:10457000933008F033C10F7E9CCF863611F410685B
:10458000A2CFFF2009F49FCFFA949DCFE7E02F2D13
:10459000EF1518F427E037E0F32E412C9FCF1111CF
:1045A0008052B60190E00E945C278FEFA81AB80AEB
:1045B000F50184918111F3CFEE2009F42FCFB601DC
:1045C00080E290E00E945C27EA94F6CF17FF6FC06C
:1045D0004A0CFC85F4FF04C08A81813309F44A94B3
:1045E00014140CF086C028E0241510F488E0482E3E
:1045F00085E090E017FF06C0C501B7FE02C090E05D
:1046000080E0019601110196FF2031F02F2D30E05E
:104610002F5F3F4F820F931F5816190619F014F0A1
:10462000E52CE81A812F897011F4E11067C000238E
:1046300029F0B601802F90E00E945C2713FD02C094
:10464000E11063C017FF7CC08501B7FE02C010E017
:1046500000E0C501841991092C016F2D70E0EE274F
:10466000FF27E61BF70BFF87EE870F3F100729F4A4
:10467000B6018EE290E00E945C27A016B1060CF411
:104680004BC0401651060CF047C0F501E01BF10B82
:10469000E80DF91D8181015011092E853F85021712
:1046A0001307E4F1B60190E00E945C27DECF16FD0F
:1046B0009FCFEF2DF0E0EA15FB0534F03CEFA31699
:1046C0003FEFB3060CF010683296E80DF91D01C0FB
:1046D000FA94FF2019F082918033D1F317FF88CF2D
:1046E000442443944F0CFA141B0431F02CF0FA18B4
:1046F0007FCF442443947CCFF12C7ACFB60180E263
:1047000090E00E945C27EA9490CFB60180E390E0AD
:104710000E945C27EA9494CF80E3BDCFA016B10637
:1047200041F49A81963350F4953319F43C8534FF63
:1047300005C0B60190E00E945C273ECF81E3F9CF2F
:104740008A81813319F09C859F7E9C87B60190E019
:104750000E945C27FF20A9F0B6018EE290E00E9443
:104760005C27F394F394E2E001E00E0FE80DF92DDD
:10477000F11D8081B60190E00E945C27E02F0F11AF
:10478000F3CF85E690E014FF02C085E490E0B60127
:104790000E945C27B7FC06C0A114B104C1F4EC85EB
:1047A000E4FF15C0B194A194B1088DE2B60190E088
:1047B0000E945C2780E32AE0A216B10454F4B601FB
:1047C00090E00E945C27B601C501C096B4CF8BE291
:1047D000EDCF8F5FFAE0AF1AB108EDCF8336C9F0A5
:1047E000833771F1833509F05BC03501F2E06F0E5C
:1047F000711CF501A080B1806F2D70E006FD02C034
:104800006FEF7FEFC5010E9446279D878C87006868
:104810000DC0350132E0630E711CF5018081898382
:1048200021E030E03D872C8754010F7703FD06C05F
:104830002C853D855216130609F0A8F4E52C2BC0F3
:10484000350132E0630E711CF501A080B1806F2D3F
:1048500070E006FD02C06FEF7FEFC5010E94512797
:104860009D878C87E2CFB60180E290E00E945C27B2
:104870005A94DECFF50107FD859107FF81915F0115
:10488000B60190E00E945C27E110EA948C859D853A
:1048900001979D878C87EC85FD85EF2B59F78CCE92
:1048A000843619F0893609F074C0350107FF66C0F7
:1048B000F4E06F0E711CF50160817181828193813A
:1048C000102F1F7697FF08C0909580957095619581
:1048D0007F4F8F4F9F4F10682AE030E0A4010E9465
:1048E000E827A82EA818BA2C012F16FF0AC00E7FA1
:1048F000AF1438F414FF04C012FD02C0012F0E7E65
:10490000BF2C04FF8EC0FE01EA0DF11D80818033B3
:1049100009F080C0097EF02FF870EF2E03FD90C0E3
:1049200000FF8AC0FA2CB51410F4F50CFB1804FF34
:104930008DC0B60180E390E00E945C2702FF09C0B1
:1049400088E790E001FF02C088E590E0B6010E9490
:104950005C27AF1408F486C0AA940A2D10E00F5FFC
:104960001F4F080D191DF80182918F01B60190E0CB
:104970000E945C2780169106B1F71ECEF2E06F0E02
:10498000711CF50160817181072E000C880B990B59
:1049900097CF102F8537A9F41F7E2AE030E035012C
:1049A00017FF2FC0F4E06F0E711CF501608171815B
:1049B00082819381A4010E94E827A82EA8181F775E
:1049C00092CF197F8F36D1F048F4883591F0F601F7
:1049D000868197812F96E2E10C945F25803739F02C
:1049E0008837A9F714FD146020E130E0D8CF1061BA
:1049F000F9CF04FD166020E132E0D1CF28E030E0AD
:104A0000CECFF2E06F0E711CF5016081718190E0F4
:104A100080E0D0CF02FD02C0B3947DCFB394B394B5
:104A20007ACF802F867809F476CFF6CFB60180E270
:104A300090E00E945C27B394B514C0F3E12C77CFCB
:104A4000E52CEB18B51408F472CFF8CF802F8678D8
:104A500009F47FCF8BE201FF80E207FD8DE2B60112
:104A600090E075CFB60180E390E00E945C27FA9455
:104A700070CF8FEF9FEFAECF24E0E12C251508F02B
:104A800063CD84E053CD2F923F924F925F926F920D
:104A90007F928F929F92AF92BF92CF92DF92EF92CE
:104AA000FF920F931F93CF93DF93CDB7DEB7CA1B4F
:104AB000DB0B0FB6F894DEBF0FBECDBF09942A887A
:104AC000398848885F846E847D848C849B84AA8422
:104AD000B984C884DF80EE80FD800C811B81AA81AF
:104AE000B981CE0FD11D0FB6F894DEBF0FBECDBF7A
:104AF000ED010895B0E0A0E0E0E8F5E20C94442573
:104B00005C016B017A016115710519F0FB0191835C
:104B10008083E114F10449F0C7010297839728F0DC
:104B200060E070E0CB019CC05E01E5012196F501DB
:104B30001081812F90E00E943D27892BA9F71D321B
:104B400009F056C02196F501118101E0E114F1044C
:104B500009F4AEC0F0E1EF16F10409F08EC0103395
:104B600041F488818F7D883509F083C019812296B0
:104B70000260E0E1EE2EF12C88248A94982CA82C77
:104B8000FFE0BF2E20E060E070E0CB0127010F2C9A
:104B9000000C66087708FE0150ED352E310E39E025
:104BA000331538F43FEB310F3A31A0F549EC342E90
:104BB000310E3E141F04BCF52F3FB9F08616970640
:104BC000A806B90670F1A30192010E948329232D42
:104BD00030E050E040E0620F731F841F951F6217A2
:104BE000730784079507E8F021E021961081D3CF61
:104BF0001B3221F4E5012296F501118100E0A6CFD8
:104C000078E0E72EF12C88248A94982CA82C6FE168
:104C1000B62EB8CF3FE9310F3A3128F439EA332EB6
:104C2000C7CF2FEFE2CFC114D10431F02223E9F036
:104C30002197F601D183C08300FF07C0909580952E
:104C4000709561957F4F8F4F9F4F2F3F49F482E2C0
:104C500090E09093DE028093DD026FEF7FEFCB0157
:104C6000CDB7DEB7E1E10C94602501FFE5CF2297D7
:104C7000E0CF10E3E114F10419F23AE0E316F10495
:104C8000E9F080E1E816F10409F473CFE8E0EE16EC
:104C9000F10409F4B8CF6FEF7FEFCB0197010F2C30
:104CA000000C440B550B0E94932949015A016ACF0D
:104CB000103309F456CF9AE0E92EF12C89E9882EB9
:104CC000982CA82C89E1B82E5DCF283008F027E079
:104CD0003327DA01990F311D87FD91600096610538
:104CE000710539F432602E5F3D9330E32A95E1F788
:104CF00008959F3F30F080387105610509F03C5FF1
:104D00003C5F3D93913008F08068911DDF93CF9315
:104D10001F930F93FF92EF92192F987F9695E92F8B
:104D200096959695E90FFF27EC5DFE4F992733275F
:104D3000EE24FF24A701E70105900894079428F4C6
:104D4000360FE71EF81E491F511D660F771F881F7B
:104D5000991F0694A1F70590079428F4E70EF81E12
:104D6000491F561FC11D770F881F991F661F069484
:104D7000A1F70590079428F4F80E491F561FC71F86
:104D8000D11D880F991F661F771F0694A1F7059004
:104D9000079420F4490F561FC71FD81F990F661F8D
:104DA000771F881F0694A9F784911095177041F01A
:104DB000D695C79557954795F794E7941A95C1F7F7
:104DC000EAECF0E068941590159135916591959114
:104DD00005907FE27395E118F10A430B560BC90B5E
:104DE000D009C0F7E10CF11E431F561FC91FD01D8B
:104DF0007EF4703311F48A95E6CFE894015030F0D8
:104E0000080F0AF40027021708F4202F2395022F19
:104E10007A3328F079E37D932A95E9F710C07D93E2
:104E20002A9589F60694979567953795179517945F
:104E3000E118F10A430B560BC90BD00998F02395E2
:104E40007E9173957A3308F070E37C932013B8F762
:104E50007E9170617D9330F0839571E37D9370E373
:104E60002A95E1F71124EF90FF900F911F91CF91B8
:104E7000DF91992787FD9095089591110C9446280C
:104E8000803219F089508550C8F70895FC010590CB
:104E9000615070400110D8F7809590958E0F9F1F3C
:104EA0000895FC016150704001900110D8F7809581
:104EB00090958E0F9F1F08950F931F93CF93DF93AD
:104EC000182F092FEB018B8181FD09C01FEF0FEF18
:104ED000812F902FDF91CF911F910F91089582FF25
:104EE00014C02E813F818C819D81281739073CF4A5
:104EF000E881F981CF0101969983888310838E819F
:104F00009F8101969F838E83E3CFE885F985812F6A
:104F10000995892BA1F3DACFAEE0B0E0E2E9F7E240
:104F20000C9451250D891E898F89988D2EE02C8334
:104F30001A83098397FF02C080E090E801979E835F
:104F40008D83AE01455E5F4F698D7A8DCE010196EE
:104F50000E94E2214D815E8157FD0AC02F81388574
:104F6000421753070CF49A01020F131FF801108225
:104F70002E96E4E00C946D25AEE0B0E0E2ECF7E2B2
:104F80000C9451258C01FA018EE08C831A830983DD
:104F900077FF02C060E070E8615071097E836D8325
:104FA000A901BF01CE0101960E94E2214D815E81DF
:104FB00057FD0AC02F813885421753070CF49A0118
:104FC000020F131FF80110822E96E4E00C946D2559
:104FD000FA01AA27283051F1203181F1E8946F932A
:104FE0006E7F6E5F7F4F8F4F9F4FAF4FB1E03ED0D0
:104FF000B4E03CD0670F781F891F9A1FA11D680F6E
:10500000791F8A1F911DA11D6A0F711D811D911DA0
:10501000A11D20D009F468943F912AE0269F112415
:105020003019305D3193DEF6CF010895462F477079
:10503000405D4193B3E00FD0C9F7F6CF462F4F70D4
:10504000405D4A3318F0495D31FD4052419302D032
:10505000A9F7EACFB4E0A6959795879577956795D8
:10506000BA95C9F700976105710508959B01AC01D8
:105070000A2E06945795479537952795BA95C9F7FF
:10508000620F731F841F951FA01D089599278827FD
:1050900008950E948B2808F481E00895E89409C0DF
:1050A00097FB3EF490958095709561957F4F8F4F5B
:1050B0009F4F9923A9F0F92F96E9BB279395F69571
:1050C000879577956795B795F111F8CFFAF4BB0FEF
:1050D00011F460FF1BC06F5F7F4F8F4F9F4F16C053
:1050E000882311F096E911C0772321F09EE8872FDD
:1050F000762F05C0662371F096E8862F70E060E099
:105100002AF09A95660F771F881FDAF7880F969511
:10511000879597F90895990F0008550FAA0BE0E8B5
:10512000FEEF16161706E807F907C0F01216130669
:10513000E407F50798F0621B730B840B950B39F4A9
:105140000A2661F0232B242B252B21F408950A260F
:1051500009F4A140A6958FEF811D811D08950E943D
:10516000C2280C9433290E94252938F00E942C294A
:1051700020F0952311F00C941C290C942229112461
:105180000C9467290E94442970F3959FC1F3950FF1
:1051900050E0551F629FF001729FBB27F00DB11DBB
:1051A000639FAA27F00DB11DAA1F649F6627B00D4B
:1051B000A11D661F829F2227B00DA11D621F739F34
:1051C000B00DA11D621F839FA00D611D221F749F42
:1051D0003327A00D611D231F849F600D211D822F89
:1051E000762F6A2F11249F5750409AF0F1F08823B0
:1051F0004AF0EE0FFF1FBB1F661F771F881F9150DD
:105200005040A9F79E3F510580F00C941C290C9446
:1052100067295F3FE4F3983ED4F3869577956795C9
:10522000B795F795E7959F5FC1F7FE2B880F911D06
:105230009695879597F9089597F99F6780E870E0AC
:1052400060E008959FEF80EC089500240A941616FC
:10525000170618060906089500240A941216130664
:10526000140605060895092E0394000C11F48823F2
:1052700052F0BB0F40F4BF2B11F460FF04C06F5F0E
:105280007F4F8F4F9F4F089557FD9058440F551FE4
:1052900059F05F3F71F04795880F97FB991F61F0B8
:1052A0009F3F79F087950895121613061406551F2F
:1052B000F2CF4695F1DF08C0161617061806991F9B
:1052C000F1CF86957105610508940895E894BB2790
:1052D00066277727CB0197F90895F999FECF92BDFC
:1052E00081BDF89A992780B50895262FF999FECFA8
:1052F0001FBA92BD81BD20BD0FB6F894FA9AF99AF3
:105300000FBE01960895DB018F939F930E94B529EC
:10531000BF91AF91A29F800D911DA39F900DB29F51
:10532000900D11240895A1E21A2EAA1BBB1BFD01AA
:105330000DC0AA1FBB1FEE1FFF1FA217B307E40774
:10534000F50720F0A21BB30BE40BF50B661F771FCC
:10535000881F991F1A9469F76095709580959095AC
:105360009B01AC01BD01CF0108950E94C029A59FFA
:10537000900DB49F900DA49F800D911D1124089550
:10538000A29FB001B39FC001A39F700D811D112486
:10539000911DB29F700D811D1124911D0895AA1BAE
:1053A000BB1B51E107C0AA1FBB1FA617B70710F010
:1053B000A61BB70B881F991F5A95A9F78095909542
:1053C000BC01CD0108950E94C029B7FF0895821B3A
:1053D000930B0895EE0FFF1F0590F491E02D0994B3
:1053E0005058BB27AA270E94082A0C9433290E94F0
:1053F000252938F00E942C2920F039F49F3F19F418
:1054000026F40C9422290EF4E095E7FB0C941C2959
:10541000E92F0E94442958F3BA17620773078407DB
:10542000950720F079F4A6F50C9466290EF4E09522
:105430000B2EBA2FA02D0B01B90190010C01CA014E
:10544000A0011124FF27591B99F0593F50F4503EF9
:1054500068F11A16F040A22F232F342F4427585FEB
:10546000F3CF469537952795A795F0405395C9F703
:105470007EF41F16BA0B620B730B840BBAF09150BB
:10548000A1F0FF0FBB1F661F771F881FC2F70EC05A
:10549000BA0F621F731F841F48F48795779567952D
:1054A000B795F7959E3F08F0B0CF9395880F08F019
:1054B0009927EE0F9795879508950E94712A0C946D
:1054C00033290E942C2958F00E94252940F029F404
:1054D0005F3F29F00C941C2951110C9467290C94FE
:1054E00022290E94442968F39923B1F3552391F3AB
:1054F000951B550BBB27AA2762177307840738F043
:105500009F5F5F4F220F331F441FAA1FA9F335D09F
:105510000E2E3AF0E0E832D091505040E695001C53
:10552000CAF72BD0FE2F29D0660F771F881FBB1F0D
:10553000261737074807AB07B0E809F0BB0B802DEB
:10554000BF01FF2793585F4F3AF09E3F510578F017
:105550000C941C290C9467295F3FE4F3983ED4F324
:10556000869577956795B795F7959F5FC9F7880FEB
:10557000911D9695879597F90895E1E0660F771F3D
:10558000881FBB1F621773078407BA0720F0621BCE
:10559000730B840BBA0BEE1F88F7E09508950E94F9
:1055A000D62A6894B1110C94672908950E944C2959
:1055B00088F09F5798F0B92F9927B751B0F0E1F0D4
:1055C000660F771F881F991F1AF0BA95C9F714C084
:1055D000B13091F00E946629B1E008950C946629DB
:1055E000672F782F8827B85F39F0B93FCCF38695BD
:1055F00077956795B395D9F73EF49095809570951A
:1056000061957F4F8F4F9F4F08950E948B2808F41C
:105610008FEF089516F00C945F2B0C942229689458
:105620000C941C290E944C29A8F39923C1F3AEF3D2
:10563000DF93CF931F930F93FF92C92FDD2788230A
:105640002AF02197660F771F881FDAF720E030E0F5
:1056500040E85FEB9FE3883920F0803E38F02196E8
:105660008F770E94F129E8E6F0E004C00E94F1295A
:10567000E5E9F0E00E946D2B8B01BE01EC01FB2EF1
:105680006F5771097595771F880B990B0E945028E9
:1056900028E132E741E35FE30E94C228AF2D980181
:1056A000AE01FF900F911F91CF91DF910E94082AC8
:1056B0000C9433290E948B28880B990B08959F3FE7
:1056C00031F0915020F4879577956795B795880FBD
:1056D000911D9695879597F90895DF93CF931F9322
:1056E0000F93FF92EF92DF927B018C01689406C0CA
:1056F000DA2EEF010E94C228FE01E894A5912591BF
:10570000359145915591A6F3EF010E94082AFE01BB
:105710009701A801DA9469F7DF90EF90FF900F915D
:105720001F91CF91DF9108950F931F93CF93DF9334
:105730008230910510F482E090E0E091E102F09176
:10574000E20230E020E0B0E0A0E0309799F42115CB
:10575000310509F44AC0281B390B24303105D8F52E
:105760008A819B816115710589F1FB019383828395
:10577000FE0111C0408151810281138148175907F0
:10578000E0F04817590799F4109761F012960C93BE
:10579000129713961C933296CF01DF91CF911F91F0
:1057A0000F9108950093E1021093E202F4CF2115C6
:1057B000310551F04217530738F0A901DB019A0176
:1057C000BD01DF01F801C1CFEF01F9CF9093E202F3
:1057D0008093E102CDCFFE01E20FF31F81939193FD
:1057E0002250310939832883D7CF2091DF023091AD
:1057F000E002232B41F42091060130910701309300
:10580000E0022093DF02209104013091050121156F
:10581000310541F42DB73EB740910801509109017F
:10582000241B350BE091DF02F091E002E217F30751
:10583000A0F42E1B3F0B2817390778F0AC014E5F00
:105840005F4F2417350748F04E0F5F1F5093E0025B
:105850004093DF02819391939FCFF0E0E0E09CCFF3
:10586000CF93DF930097E9F0FC0132971382128205
:10587000A091E102B091E202ED0130E020E010974A
:10588000A1F420813181820F931F2091DF0230919A
:10589000E0022817390709F061C0F093E002E093B5
:1058A000DF02DF91CF910895EA01CE17DF07E8F517
:1058B0004A815B819E0141155105B1F7E901FB83E6
:1058C000EA8349915991C40FD51FEC17FD0761F484
:1058D000808191810296840F951FE90199838883C5
:1058E000828193819B838A83F0E0E0E012968D9120
:1058F0009C9113970097B9F52D913C911197CD018B
:105900000296820F931F2091DF023091E002281748
:10591000390739F6309751F51092E2021092E10200
:10592000B093E002A093DF02BCCFD383C283408157
:105930005181840F951FC817D90761F44E5F5F4FDF
:1059400088819981480F591F518340838A819B81A7
:10595000938382832115310509F0B0CFF093E202E1
:10596000E093E1029ECFFD01DC01C0CF13821282E1
:10597000D7CFB0E0A0E0EFEBFCE20C9445258C0122
:10598000009751F4CB010E94942B8C01C801CDB734
:10599000DEB7E0E10C946125FC01E60FF71F9C01E6
:1059A00022503109E217F30708F49DC0D901CD91C7
:1059B000DC911197C617D70798F0C530D10530F3A1
:1059C000CE0104978617970708F3C61BD70B2297BB
:1059D000C193D1936D937C93CF010E94302CD6CF8D
:1059E0005B01AC1ABD0A4C018C0E9D1EA091E10218
:1059F000B091E202512C412CF12CE12C109731F5A1
:105A00008091DF029091E0028815990509F05CC051
:105A10004616570608F058C0809104019091050180
:105A2000009741F48DB79EB740910801509109014C
:105A3000841B950BE817F90708F055C0F093E002B6
:105A4000E093DF02F90171836083A0CF8D919C9177
:105A5000119712966C90129713967C901397A81535
:105A6000B90559F56C0142E0C40ED11CCA14DB041F
:105A700020F1AC014A195B09DA011296159780F002
:105A80006282738251834083D9016D937C93E114C8
:105A9000F10471F0D7011396FC93EE93129776CF31
:105AA00022968C0F9D1FF90191838083F301EFCF24
:105AB000F093E202E093E10269CF4816590608F438
:105AC0002C017D01D3019ACFCB010E94942B7C0144
:105AD000009749F0AE01B8010E948F2DC8010E94C5
