:100000000C948E020C9473190C944C190C94B60237
:100010000C94B6020C94B6020C94B6020C94B60280
:100020000C94B6020C94091A0C94B6020C945B1A48
:100030000C94371A0C94F2190C94B6020C94B60274
:100040000C9402190C94B6020C94C0190C949A19D1
:100050000C94B6020C94BD1A0C94B6020C94B60221
:100060000C94B6020C94B60208000000BE9224491B
:10007000123EABAAAA2ABECDCCCC4C3E00000080DA
:10008000BEABAAAAAA3E00000000BF000000803F4D
:100090000000000000084178D3BB4387D1133D190D
:1000A0000E3CC3BD4282AD2B3E68EC8276BED98F3A
:1000B000E1A93E4C80EFFFBE01C4FF7F3F0000007E
:1000C00000006E616E00696E660000407A10F35A9F
:1000D00000A0724E18090010A5D4E80000E8764888
:1000E000170000E40B54020000CA9A3B000000E134
:1000F000F505000080969800000040420F000000C7
:10010000A08601000000102700000000E8030000A6
:1001100000006400000000000A0000000000010070
:10012000000000002C76D888DC674F0823DFC1DF91
:10013000AE59E1B1B796E5E3E453C63AE651997694
:1001400096E8E6C28426EB898C9B62ED407C6FFCCE
:10015000EFBC9C9F40F2BAA56FA5F490055A2AF710
:100160005C936B6CF9676DC11BFCE0E40D47FEF519
:1001700020E6B500D0ED902E030094357705008081
:10018000841E080000204E0A000000C80C333333E0
:10019000330F986E12831141EF8D2114893BE65580
:1001A00016CFFEE6DB18D1844B381BF77C1D901D63
:1001B000A4BBE424203284725E228100C9F124ECC5
:1001C000A1E53D270A2B52454D3D002530327800F0
:1001D0005B253032785D002B52454D3D004E6F203F
:1001E0006368616E6E656C73206163746976650027
:1001F00025753D25752825752920002B52454D3D37
:10020000002B52454D3D7469636B733D25640A00B4
:100210002B52454D3D7A6364656C61793D25752CA3
:100220003078253034780A002B52454D3D66726592
:10023000710025303278002B52454D3D7625303403
:10024000782C693263743D2530327825303278005D
:100250002B52454D3D0041546D6567613332385036
:10026000420073772E6F6E2D74696D653D25752F75
:1002700025750A006D696E2E6F6E2D74696D653D72
:1002800025752C6D696E2E6F66663D25752C5A435B
:100290002D64656C61793D25752C005643433D25E1
:1002A0002E33662C006D61782E74656D703D25755A
:1002B0002C6D6574726963733D25752C00696E74CD
:1002C0002E74656D703D25642F6F66733D25752F07
:1002D0006761696E3D25752C004E54433D252E32D5
:1002E000662F252B2E32662C0076616C7565733D6A
:1002F000726573746F72653D25752C663D252E33CE
:1003000066487A2C7672656631313D252E33662C2F
:100310000072616E67653D25642D25640A0074696D
:100320006D6572313D25752F252E32662C6C766CED
:10033000733D383139322C70696E733D00616464ED
:10034000723D253032782C6D6F64653D25632C003D
:1003500070726F746F3D554152542C006661646930
:100360006E675F6576656E74733D312C005643434E
:100370002C00696E742E74656D702C004E54433DD4
:100380004125752C006F7074696F6E733D45455043
:10039000524F4D3D256C752C0040384D687A2C67C6
:1003A00063633D372E332E30002C4D43553D007393
:1003B00069673D253032782D253032782D25303251
:1003C000782C66757365733D6C3A253032782C68ED
:1003D0003A253032782C653A25303278004D4F532B
:1003E0004645542044696D6D657220322E322E319F
:1003F0002041756720313120323032312031313A9D
:1004000030333A333420417574686F7220736173EE
:100410006368615F6C616D6D65727340676D782EA6
:100420006465002B52454D3D454550524F4D522C71
:10043000633D256C752C703D25752C6E3D256C75C6
:100440002C6372633D253034780A00424F4F5400CC
:100450002B52454D3D6C6F73743D25752C73796E31
:10046000633D25752C636E743D25752C633D256CAD
:10047000642C743D252E316675730A00000000005F
:10048000240027002A0000000000250028002B007F
:10049000040404040404040402020202020203032A
:1004A0000303030301020408102040800102040832
:1004B00010200102040810200000000800020100C2
:1004C0000003040700000000000000002B52454D0F
:1004D0003D454550524F4D572C633D256C752C7052
:1004E0003D25752C6E3D256C752C773D25752C664C
:1004F0003D25752C6372633D253034780A002B4905
:10050000324325633D002B52454D3D454550524FEA
:100510004D522C696E697400101B001B11241FBE04
:10052000CFEFD8E0DEBFCDBF23E0ACE3B1E001C048
:100530001D92A835B207E1F711E0A0E0B1E0E6E1D5
:10054000FAE502C005900D92AC33B107D9F712E07D
:10055000CDE8D2E004C02197FE010E943D29CC38AD
:10056000D107C9F70E94D11B0C94FE2C0C940000FB
:1005700080911A03833008F046C020911203309115
:10058000130312161306B4F4E82FF0E0EE0FFF1F6A
:10059000E45FFC4F909119032091160330911703EB
:1005A0004091180303C04695379527959A95DAF739
:1005B00031832083823019F08F5F80931A03109269
:1005C0001B0380911A038130F9F018F08230F1F0AA
:1005D000089580E480937C0080E490E0909315037C
:1005E000809314031092190388EF9FEF90931303E5
:1005F000809312031092160310921703109218039F
:100600008FEE80937A0008958EE4E4CF88EC809397
:100610007C0080E490E09093150380931403109283
:10062000190380EE9FEFE2CFBC016B5D7F4F2FEF90
:100630003FEF86179707D9F0FC014191CF0124279E
:10064000422F42954227042E469546954025042E7A
:10065000469540254770022E232F469507944795CF
:10066000302D24270694479530252427E2CFC90151
:10067000089581EE92E00E9414039093E00280932B
:10068000DF020895E2E0F2E083E5DF011D928A9542
:10069000E9F7E0E0F2E08FEF9FEF918380838BE456
:1006A000858FACE1B2E08C9181608C9380E090E02A
:1006B000A0E9B0E4868F978FA0A3B1A380E594E072
:1006C00093A382A38CE291E095A384A397A386A32E
:1006D00087E685A780E886A785E080AB80E090E08C
:1006E000A0ECBFE784AF95AFA6AFB7AF20E030E88E
:1006F000309341022093400280AF91AFA2AFB3AFDD
:1007000089E1ECE1F2E0A5EEB2E001900D928A956C
:10071000E1F708954F925F926F927F928F929F922E
:10072000AF92BF92CF92DF92EF92FF920F931F93FF
:10073000CF93DF936A0128013901082F880F110B2D
:10074000F801EE0FFF1FE553FD4F8FEF9FEF9183F1
:100750008083C801880F991FE091DD02F091DE02CD
:10076000E80FF91F84859585892B21F4D801AA54B7
:10077000BD4F1C924FEFC416D40609F057C08CE051
:10078000809FD001819FB00D1124AB5ABD4F509670
:100790002D913C915197232BC1F121E030E05196EE
:1007A0003C932E93509798012F5F3F4F829FD0012B
:1007B000839FB00D1124AB5ABD4F1D921D921D9207
:1007C0001C921397C485D585C13050E2D50714F02B
:1007D000C0E0D0E2D7FF02C0D0E0C0E02CE0209F14
:1007E000C001219F900D11248C010B5A1D4FBE0199
:1007F0000D2E000C880B990B0E94A327F80160872F
:10080000718782879387D38BC28BDF91CF911F91A2
:100810000F91FF90EF90DF90CF90BF90AF909F909F
:100820008F907F906F905F904F9008956F3F760705
:1008300011F464857585EB016130704214F0C0E0FD
:10084000D0E2D7FF02C0D0E0C0E0B60181E0C81618
:1008500080E2D80614F060E070E277FF02C070E03A
:1008600060E06C1B7D0B072E000C880B990B0E941F
:10087000A3274B015C0120E030E0A9010E949C27E6
:10088000882319F220E030E040E059E3C501B401CB
:100890000E940228A30192010E9402282B013C0120
:1008A00020E030E0A9010E94582A181624F077FAB7
:1008B000709477F870942091380230913902409109
:1008C0003A0250913B02C301B2010E9402289B01EF
:1008D000AC010E9444290E94292A8CE0782E709E47
:1008E0009001719E300D1124F901EB5AFD4F7F01EB
:1008F000718B608B6115710509F487CF90E080E002
:100900000E94A1279B01AC01C501B4010E94B0293E
:100910004B015C010F5F1F4F709EF001719EF00D47
:100920001124EB5AFD4F80829182A282B382BE01D4
:10093000DD0F880B990B0E94A327F7016087718751
:1009400082879387D38AC28A20E030E0A901C5015B
:10095000B4010E949C27811158CF81E090E0F701FB
:10096000918B808B52CFBF92CF92DF92EF92FF920A
:100970000F931F93CF93DF93B82EC091BA02D091FB
:10098000BB020091DB021091DC02F801E084F184EB
:10099000C284D384DE01AE19BF09AC19BD094685F6
:1009A000578541155105D1F59D01DB010E9436297E
:1009B0002DE096958795779567952A95D1F79B01B8
:1009C0002E0D3F1DCE018C199D0982179307E0F073
:1009D000F801808D882399F0468957894115510582
:1009E00071F0EB2DBB0CFF0BEA54FD4F60816E3FA5
:1009F00030F48150990B681719060CF47A01C9017B
:100A00002E153F0508F4C701DF91CF911F910F917B
:100A1000FF90EF90DF90CF90BF90089524853585AB
:100A2000260F371F0E9413299A0150E040E00E94D0
:100A3000E628C6CF4F925F926F927F928F929F92DD
:100A4000AF92BF92CF92DF92EF92FF920F931F93DC
:100A5000CF93DF93CDB7DEB764970FB6F894DEBFC0
:100A60000FBECDBFA090DB02B090DC028090BA0236
:100A70009090BB02C090DD02D090DE020CE0C00E70
:100A8000D11C10E000E0E12CF12C66246394712C61
:100A9000F601619171916F016115F0E27F0708F431
:100AA0005EC0C301002E01C0880F0A94EAF7F82A3D
:100AB0000F5F1F4F0430110559F73E2D84E03802B7
:100AC000F001112401E010E00C0F1D1FE00FF11FD9
:100AD000108211821282138211E01E150CF06AC07E
:100AE000EA9490E080E04E2D50E020E0BA01681BCF
:100AF000790BE22F022E000CFF0BE617F7070CF024
:100B000055C0EE0FFF1FEE0FFF1FA1E0B0E0AC0FCE
:100B1000BD1FAE0FBF1F349601E010E00C0F1D1F6C
:100B2000E00FF11F1296CD90DC9013970281138194
:100B30000C151D0590F48D909D90AD90BC90139771
:100B400040805180628073804D925D926D927C9264
:100B5000139780829182A282B3822F5FCACF6115E0
:100B6000710509F4A5CF9301002E02C0220F331F97
:100B70000A94E2F7F22A802F0E94B304F501208143
:100B800021FF04C09401281B390BC9013E2D24E02C
:100B90003202F001112421E030E02C0F3D1FE20F62
:100BA000F31F938382830083E39482CF01968E1593
:100BB0000CF49BCFF8948091C1028F1539F0F0921C
:100BC000C1028091FF0180618093FF0184E1FE01F9
:100BD0003196A2EAB2E001900D928A95E1F77894FD
:100BE00064960FB6F894DEBF0FBECDBFDF91CF91F4
:100BF0001F910F91FF90EF90DF90CF90BF90AF903B
:100C00009F908F907F906F905F904F900895082EE7
:100C1000000C990B9C01220F331FE091DD02F09133
:100C2000DE02E20FF31F24853585232B21F4DC013E
:100C3000AA54BD4F1C929B016130704214F020E019
:100C400030E237FF02C030E020E0358724872CE017
:100C5000289FF001299FF00D1124EB5AFD4F118AB6
:100C6000108AFC01EE0FFF1FE553FD4F20813181FB
:100C70002F3F3F4FE1F02091DD023091DE020696DA
:100C8000880F991F820F931FDC018D919C91918396
:100C900080839FB7F8948091FF0180628093FF0169
:100CA00025E33CE03093F6012093F5019FBF0C94BF
:100CB0001A0590E0FC01E854FB4F2491FC01EC552F
:100CC000FB4F3491FC01E057FB4FE491EE23B9F068
:100CD000222339F02330F1F098F4213009F1223049
:100CE00019F1F0E0EE0FFF1FEA57FB4FA591B49109
:100CF0008FB7F894EC9130953E233C938FBF0895C5
:100D00002730A9F02830C9F0243059F780918000AD
:100D10008F7D03C0809180008F7780938000E1CF2A
:100D200084B58F7784BDDDCF84B58F7DFBCF809177
:100D3000B0008F778093B000D4CF8091B0008F7DCA
:100D4000F9CFCF93DF9390E0FC01EC55FB4F24915A
:100D500080579B4FFC0184918823D1F090E0880F4D
:100D6000991FFC01E458FB4FA591B491FC01EA578F
:100D7000FB4FC591D49161110EC09FB7F8948C912F
:100D8000E22FE0958E238C932881E223E8839FBF96
:100D9000DF91CF9108958FB7F894EC91E22BEC930B
:100DA0008FBFF6CF3FB7F89480914C0190914D01E1
:100DB000A0914E01B0914F0126B5A89B05C02F3FD1
:100DC00019F00196A11DB11D3FBFBA2FA92F982F71
:100DD0008827BC01CD01620F711D811D911D43E06B
:100DE000660F771F881F991F4A95D1F708958F9234
:100DF0009F92AF92BF92CF92DF92EF92FF924B0100
:100E00005C010E94D2066B017C010E94D2066C1923
:100E10007D098E099F09683E734081059105A8F3FD
:100E200021E0821A9108A108B10888EEC80E83E07B
:100E3000D81EE11CF11C81149104A104B10429F70E
:100E4000FF90EF90DF90CF90BF90AF909F908F90EA
:100E500008952FB7F89460914801709149018091ED
:100E60004A0190914B012FBF08958F929F92AF92AC
:100E7000BF92CF92DF92EF92FF920E9429076B01FF
:100E80007C018091FF0180FD2FC08090080390902D
:100E90000903A0900A03B0900B039FB7F8948091C8
:100EA000FF0181608093FF019FBF0E942907C8183E
:100EB000D908EA08FB0829E8C21623E1D206E104B2
:100EC000F104DCF438E8C32E33E1D32EE12CF12C0D
:100ED000C60ED71EE81EF91EC0920803D092090361
:100EE000E0920A03F0920B03FF90EF90DF90CF9017
:100EF000BF90AF909F908F90089524EFC22EDD2475
:100F0000D394E12CF12CE4CF0895AF92BF92CF920D
:100F1000DF92EF92FF920F931F93CF93DF936C01B9
:100F20007B018B01040F151FEB015E01AE18BF089A
:100F3000C017D10759F06991D601ED91FC9101904C
:100F4000F081E02DC6010995892B79F7C501DF9164
:100F5000CF911F910F91FF90EF90DF90CF90BF90B6
:100F6000AF900895FC01538D448D252F30E0842FE0
:100F700090E0821B930B541710F0CF9608950197C1
:100F80000895FC01918D828D981761F0A28DAE0FAE
:100F9000BF2FB11D5D968C91928D9F5F9F73928F35
:100FA00090E008958FEF9FEF0895FC01918D828D61
:100FB000981731F0828DE80FF11D858D90E008952E
:100FC0008FEF9FEF0895FC01918D228D892F90E086
:100FD000805C9F4F821B91098F739927089588E544
:100FE00091E00E94E30721E0892B09F420E0822FA1
:100FF0000895FC01A48DA80FB92FB11DA35ABF4FAE
:101000002C91848D90E001968F739927848FA68907
:10101000B7892C93A089B1898C91837080648C935B
:10102000938D848D981306C00288F389E02D80810A
:101030008F7D80830895EF92FF920F931F93CF933C
:10104000DF93EC0181E0888F9B8D8C8D98131AC003
:10105000E889F989808185FF15C09FB7F894EE89EA
:10106000FF896083E889F989808183708064808347
:101070009FBF81E090E0DF91CF911F910F91FF9092
:10108000EF900895F62E0B8D10E00F5F1F4F0F733A
:101090001127E02E8C8D8E110CC00FB607FCFACFF5
:1010A000E889F989808185FFF5CFCE010E94F90793
:1010B000F1CFEB8DEC0FFD2FF11DE35AFF4FF082C6
:1010C0009FB7F8940B8FEA89FB8980818062CFCF2C
:1010D0000F931F93CF93DF938C01D0E0C0E0F80112
:1010E000EC0FFD1F6491662341F088E591E00E94BA
:1010F0001B08892B11F02196F2CFCE01DF91CF9101
:101100001F910F910895CF93DF93EC01888D882371
:10111000B9F0AA89BB89E889F9898C9185FD03C05A
:10112000808186FD0DC00FB607FCF7CF8C9185FF3F
:10113000F2CF808185FFEDCFCE010E94F907E9CF84
:10114000DF91CF910895DC01ED91FC910190F08148
:10115000E02D6A3010F4605D0994695AFDCFDC011E
:10116000ED91FC910190F081E02D6AE00994DC01A1
:101170005E968D919C915F975C962D913C915D97C9
:101180008217930740F45A96ED91FC91E80FF91FEE
:10119000808190E008958FEF9FEF0895FC01848D8A
:1011A000958D268D378D821B930B0895EF92FF92BC
:1011B0000F931F93CF938C01C62F70E084E0759539
:1011C00067958A95E1F7F80184A995A90E94A3087B
:1011D0007C016C2F6F70F80184A995A90E94A30867
:1011E0008E0D9F1DCF911F910F91FF90EF9008954D
:1011F000FC0124813581828193812817390768F4A5
:1012000080819181A9014F5F5F4F55834483FC0129
:10121000E20FF31F808190E008958FEF9FEF089514
:101220004A960C94F808089590E080E00895409163
:101230002C022EEE3CE74203B001439F700D1124B7
:10124000072E000C880B990B60577E4F834B9B4FEA
:1012500020910E0330910F0350E040E00E94E628F9
:101260003093430220934202C90108952091100354
:101270003091110386E0369527958A95E1F7E0E0F5
:10128000F2E085A5820F932F911D85579F4F96956C
:10129000982F88279795879566A570E00E94222948
:1012A000CB01499608952F923F924F925F926F9291
:1012B0007F928F929F92AF92BF92CF92DF92EF92E6
:1012C000FF920F931F93CF93DF9300D000D000D0F5
:1012D000CDB7DEB780918400909185009A83898391
:1012E00080913E0190913F019C838B8386B37894DB
:1012F00000914001109141018B819C81C980DA806D
:10130000D8011696ED91FC9117979F012F5F3F4FE3
:10131000F7FF1DC017963C932E93169726960FB68F
:10132000F894DEBF0FBECDBFDF91CF911F910F911B
:10133000FF90EF90DF90CF90BF90AF909F908F90F5
:101340007F906F905F904F903F902F9008951796E9
:101350003C932E931697BF01660F771FE60FF71F7A
:10136000E00FF11FA0E0A82F99278827E12C8C29F6
:101370009D29AE2980879187A2872436310571F691
:10138000F894E99884E897E0909303018093020130
:10139000789480E090E0A0ECBFE7F801808391832F
:1013A000A283B383868197819E838D830B970CF4F0
:1013B000B1C0780198E0E90EF11CF70150E040E07F
:1013C00020E0812C912C54016D807E80A1E06A1A6E
:1013D000710846155705FCF44F5F5F4F219031901F
:1013E000419080819181A28182199309A4091C01F5
:1013F0004A2EB4E02B1ABCEF3B0A410832E8231610
:1014000039E43306410428F7B0E0880E991EAA1E7D
:10141000BB1E2F5FDECF2B3008F47CC030E050E0E5
:1014200040E0C501B4010E94E62849015A01842F19
:10143000B90190E00E94A1272FE832EC45EF5BE371
:101440000E9402280E94292ACB01A0E04A2D940183
:10145000281B390B4A0B34018A2C680E791E8A1E10
:1014600061E070E0912C212C312C2101D701AD904D
:10147000BD90CD907D018D919D91AC918A199B0974
:10148000AC0982179307A40750F0681679068A06FC
:1014900030F0B0E0280E391E4A1E5B1E93946F5F39
:1014A0007F4F8D819E818617970701F7BAE0B915A6
:1014B00088F5C201B1010E94A1276B017C01692D51
:1014C00070E090E080E00E94A1279B01AC01C70181
:1014D000B6010E94B02920E030E040E652E40E94CC
:1014E000432920E030E040E05EE30E9402289B01B7
:1014F000AC0160E074E284E799E40E94B02920E046
:1015000030E040E05FE30E940228F80160837183CD
:10151000828393838FEF9FEFDC018093420190934E
:101520004301A0934401B0934501F8CE80E592E0D9
:101530000C946808FC01862F20813181A90141505B
:101540005109518340831216130624F486E393E075
:101550000E94F808089520910A02420F40930A025F
:1015600002970CF064ED609354020895FF920F937C
:101570001F93CF93DF931F92CDB7DEB719821092DE
:10158000FF01F894E99884E897E090930301809331
:10159000020180916F00887D80936F00109281001E
:1015A0000FE011E0F801F1908F018F2D0E94590694
:1015B00060E08F2D0E94A106F1E003311F0791F733
:1015C000809170008E7F809370001092B1007894AB
:1015D0000F90DF91CF911F910F91FF900895662397
:1015E00071F0823041F0833041F0813011F05E9A29
:1015F0000895289A0895299A08952A9A089582307C
:1016000041F0833041F0813011F05E9808952898C0
:101610000895299808952A980895AF92BF92DF926D
:10162000EF92FF920F931F93CF93DF935C010FED27
:1016300012E0D0E0C0E0F801D1908F017501EC0E0E
:10164000FD1EC7010E94C028D81621F06D2DC701CC
:101650000E94C8282196C732D10569F78FED92E024
:10166000DF91CF911F910F91FF90EF90DF90BF908E
:10167000AF900895CF92DF92EF92FF920F931F9356
:10168000CF93DF93EB017B0127E2E20EF11C8B018C
:101690006C01C61AD70AC601800F911F0E94C0288C
:1016A000F80181938F01EE15FF05A9F7CE01DF91B7
:1016B000CF911F910F91FF90EF90DF90CF90089501
:1016C000CF92DF92EF92FF920F931F93CF93DF930E
:1016D000CDB7DEB7C054D1090FB6F894DEBF0FBE48
:1016E000CDBF9E01215B3F4F2F964EAD5FAD2F9733
:1016F00060E470E0CE0101966C010E940F277C012E
:101700009FE3E916F1047CF1C70102960E94E72AE3
:101710008C01009751F19E01215B3F4F2F964EADFA
:101720005FAD2F97B7010E940F277C01A701B80179
:1017300088E591E00E948507C016D10619F0C8011E
:101740000E94832BC701C05CDF4F0FB6F894DEBF49
:101750000FBECDBFDF91CF911F910F91FF90EF9002
:10176000DF90CF9008958601E1CFE12CF12CEACFF4
:10177000F894E99884E897E090930301809302013C
:10178000EFE6F0E08081887D80831092810078947C
:101790001092460180914001909141010C94832B5D
:1017A000CF93DF932B9A10928500109284001092B1
:1017B0008900109288008091BA029091BB029093A8
:1017C0008B0080938A0086B3866086BBE091DB0243
:1017D000F091DC0280818695817091E08927809369
:1017E000C20210928D028091C3029091C4020196B0
:1017F0009093C4028093C302843C29E0920710F1C5
:1018000020916F00297F20936F005BB15F7B45B112
:10181000487F35B1387F25B1287F5BB945B935B9E7
:1018200025B92091C50221602093C5029093CA0278
:101830008093C9028091FF0180648093FF01DF9152
:10184000CF910895209190023091910280916F0084
:10185000897F2115310509F44DC0826080936F00A6
:101860003093890020938800C0E084E0C802F00132
:101870001124EB5AFD4F83AD94AD892B39F0609163
:10188000C20281AD0E94EF0ACF5FEFCFD0E0C0E08F
:10189000E091DD02F091DE02CE010696880F991FDD
:1018A000E80FF91F80819181892B21F460E08C2F52
:1018B0000E94EF0A2196C430D10551F78091C202EF
:1018C00091E089278093C20290E024E09202F00127
:1018D0001124EB5AFD4F23AD34AD232B41F1E1AD83
:1018E000F0E0EA54FD4F80818E3F10F48F5F8083DB
:1018F0009F5FEBCF846080936F00D0E0C0E0E09109
:10190000DD02F091DE02CE010696880F991FE80FE6
:10191000F91F61E0808191818115904209F060E0BA
:101920008C2F0E94EF0A2196C430D10541F7809197
:10193000C502837041F48091C3029091C4029093D8
:10194000CA028093C9022B987ACFCF93DF93EC0120
:1019500088819981009721F00E94832B1982188237
:101960001F821E821B821A821D821C82DF91CF91F0
:101970000895FB0101900020E9F73197AF01461B64
:10198000570BDC01ED91FC910280F381E02D09946D
:10199000CF93DF930E946808EC0169E371E088E56A
:1019A00091E00E94B90C8C0F9D1FDF91CF9108959B
:1019B0007F928F929F92AF92BF92CF92DF92EF92DF
:1019C000FF920F931F93CF93DF9300D000D000D0EE
:1019D000CDB7DEB78FEF9FEF9A8389831B821C827E
:1019E0001D821E8287E2E82EF12C670187E2C80E75
:1019F000D11C9DE1C91694E0D906D9F0DE011196FB
:101A00005D0110E000E0F50171905F014701800E7B
:101A1000911EC4010E94C028781621F0672DC401D0
:101A20000E94C8280F5F1F4F0630110561F776012D
:101A3000DCCF1092070310920603EFEDF2E087E28D
:101A4000DF011D928A95E9F781E090E0A0E0B0E027
:101A50008093E1029093E202A093E302B093E40248
:101A60000E9442030E94390390E080E00E940D0B27
:101A70009FB7F8948091FF018E7F8093FF01809142
:101A8000FF018D7F8093FF019FBF86E095E0269642
:101A90000FB6F894DEBF0FBECDBFDF91CF911F917F
:101AA0000F91FF90EF90DF90CF90BF90AF909F90FD
:101AB0008F907F900C94C80C0F931F93CF93DF935C
:101AC000EC01088519850617170708F48B01095FD3
:101AD0001F4F087F8E819F818017910721F1888198
:101AE00099810115110549F1009719F1B8010E947A
:101AF0000C2C9983888388819981892B11F410E0BB
:101B000000E01F830E838A819B810817190710F458
:101B10001B830A838A819B812C813D8182179307D5
:101B200010F49D838C8381E0DF91CF911F910F9101
:101B30000895C8010E94E72ADCCF009701F30E94B4
:101B4000832B19821882DDCF1F93CF93DF93EC0193
:101B50008A819B819C012F5F3F4F4E815F8184175B
:101B6000950750F4E881F9813B832A83E80FF91F38
:101B7000608381E090E00CC0162FB901CE010E9475
:101B80005C0D811109C0CE010E94A50C90E080E09F
:101B9000DF91CF911F910895E881F9818A819B811E
:101BA0009C012F5F3F4F3B832A83E80FF91F10836F
:101BB000E0CFCF93DF93EC018A89882381F08C8D6D
:101BC0009D8D8F3F910530F081E08E871D86DF91DE
:101BD000CF910895CE014A960E94A40DF7CF8C852F
:101BE0008617170689F781E08A8BF0CFFC0197856D
:101BF0009D7F913021F4CF0184960C94A40D90E048
:101C000080E00895FC01158214821382128260859F
:101C10007185695F7F4F687F0C945C0D8F929F92F6
:101C2000AF92BF92DF92EF92FF920F931F93CF93E9
:101C3000DF93EC01D62EECA0FDA008A519A5AEA05F
:101C4000BFA08CA99DA9DC01ED91FC910680F781D4
:101C5000E02D0995B2E5DB1631F0E4E5DE1619F06A
:101C6000F1E4DF121DC08CA89DA8DF928EEF94E0F6
:101C70009F938F931F9288E08F9380E591E09F93CD
:101C80008F930E94DF2660E571E0C4010E94B90CC9
:101C90008DB79EB707960FB6F8949EBF0FBE8DBF47
:101CA0000E0D1F1DEA0CFB1C0E151F0539F0D80187
:101CB0006D918D01CE010E94D608F6CF8CA99DA909
:101CC0000E94AF088CA99DA9DC01ED91FC910680D2
:101CD000F781E02D0995CE0184960E94020E1F86A1
:101CE00080E0DF91CF911F910F91FF90EF90DF90F7
:101CF000BF90AF909F908F900895CF9380914403B1
:101D0000909145032091420330914303821793073A
:101D1000D0F4E0914003F0914103E80FF91F808176
:101D200090E020912B03213089F487FD19C0209188
:101D30002803C7E02817190651F064E58CE193E009
:101D4000CF910C940E0E8FEF9FEFEBCFC8E080E4A5
:101D500093E00E94020E10922B038C2FCF910895D6
:101D6000C6E0F5CF1F93CF93DF93162F21E0FC0140
:101D70002787EC01A496CE010E94020E612FCE01AE
:101D8000DF91CF911F910C94A40DBF92CF92DF925F
:101D9000EF92FF920F931F93CF93DF93EC01162FD7
:101DA0008E856A3009F0A3C0823030F08D85833093
:101DB00008F46DC081E08E878E85823008F453C0B0
:101DC0008A89882309F44FC08C8D9D8D009711F46A
:101DD00021E02E872E85223009F47EC0233009F0C1
:101DE00042C0CE014A960E94020E8F85882309F4D4
:101DF00062C01C858CA99DA9DC01ED91FC91068037
:101E0000F781E02D0995ECA8FDA881E48F938EEF72
:101E100094E09F938F931F9288E08F9380E591E0E9
:101E20009F938F930E94DF2660E571E0C7010E94B7
:101E3000B90C612FCE010E94D6088CA99DA90E94E1
:101E4000AF088CA99DA9DC01ED91FC910680F7817A
:101E5000E02D09952DB73EB7295F3F4F0FB6F89497
:101E60003EBF0FBE2DBF1E861D868A89882329F09E
:101E7000CE014A960E94020E1A8ADF91CF911F91DD
:101E80000F91FF90EF90DF90CF90BF900895813039
:101E900009F490CF823009F08FCF1D8A40E150E0E5
:101EA00070E060E0CE0143960E94CD2470E0CE0148
:101EB0000E94D90D81CF6C85CE010E94B20EE8A997
:101EC000F9A9309721F0188A099581E0888B61E49F
:101ED000CE010E940E0EC7CF188A2E8D3F8DEEA523
:101EE000FFA5821B930B099581E0888BBCCF8130C5
:101EF00021F26D3011F2811179C0ED85E1116DC0D3
:101F00006B3209F06DC081E08E0F8D87EC0FFD2FD5
:101F1000F11D138BFE01E80FF11D138A8B898B32A3
:101F200009F0ABCF6E0133E1C30ED11C82E58F9374
:101F30008EEFE82E84E0F82EFF92EF921F9298E049
:101F4000B92EBF9200E511E01F930F930E94DF2688
:101F5000B801C6010E94EB2CADB7BEB717960FB6FD
:101F6000F894BEBF0FBEADBF892BF1F181E48F9312
:101F7000FF92EF921F92BF921F930F930E94DF2652
:101F8000B801C6010E94EB2C2DB73EB7295F3F4F29
:101F90000FB6F8943EBF0FBE2DBF892B09F46DCF4D
:101FA00084E58F93FF92EF921F92BF921F930F933E
:101FB0000E94DF26B801C6010E94EB2CADB7BEB768
:101FC00017960FB6F894BEBF0FBEADBF892B09F0B0
:101FD00054CF82E08E871D8650CFE63008F493CF31
:101FE0001D8681E08E8749CF83E0F4CFE62EF12C69
:101FF000C7010E94C92C892B19F1ED8581E08E0F54
:102000008D87EC0FFD2FF11D138B833050F782303D
:1020100009F033CF1D8A40E150E070E060E0CE016E
:1020200043960E94CD2470E0CE01DF91CF911F91A5
:102030000F91FF90EF90DF90CF90BF900C94D90D4F
:102040001C3209F41ACFC7010E949026892B49F24D
:1020500014CFCF93DF93C0915003D0915103E88107
:10206000F9810084F185E02DCE010995892B69F075
:10207000E881F9810284F385E02DCE010995682F6E
:102080008CE193E00E94C50EEACFDF91CF910895D5
:102090000E94EF0781110C9429100895EF92FF928E
:1020A0000F931F93CF93DF93EC018B017A018F8500
:1020B0008D7F813051F0F12CE12CC701DF91CF9160
:1020C0001F910F91FF90EF9008956EA17FA1640F73
:1020D000751F8AA59BA56817790788F42CA13DA1D7
:1020E0008EA19FA1A701B801820F931F0E94E22C2D
:1020F0008EA19FA18E0D9F1D9FA38EA3DECF6F5F2C
:102100007F4FCE0184960E945C0D8111E7CFD3CF23
:10211000FF920F931F93CF93DF93CDB7DEB7AF97A7
:102120000FB6F894DEBF0FBECDBFF82E8E01085D4E
:102130001F4F88E0F80111928A95E9F78091FF011D
:1021400081FF0CC08FA581608FA789E1ECE1F2E0EF
:10215000A5EEB2E001900D928A95E1F788E0ECE0FF
:10216000F2E0AEEFB2E001900D928A95E1F70E94A5
:102170003903BE016F5F7F4F809106039091070383
:102180000E943A0BF1100BC047E250E0BE016F5FB6
:102190007F4F8FED92E00E94D52C892BC9F0809162
:1021A0000603909107039C01225B3F4F21153440A9
:1021B00008F09FC087969093070380930603809151
:1021C0000603909107030E940D0B87E28EA701C0C2
:1021D0001EA60E9429076093080370930903809349
:1021E0000A0390930B039FB7F8948091FF018E7FB1
:1021F0008093FF018091FF018D7F8093FF019FBF3E
:102200008091E1029091E202A091E302B091E40298
:1022100088A799A7AAA7BBA7809106039091070357
:102220009DA78CA768E18CE193E00E94B20E63EF5A
:102230008CE193E00E94F60D48E050E0B8018CE19B
:1022400093E00E944E100E947D0EE0910603F091F3
:1022500007038091E0028F938091DF028F938FA517
:102260001F928F938EA51F928F932091E102309140
:10227000E2024091E3025091E402AAE1B0E00E9440
:1022800008298B019C010A51110921093109CF014B
:1022900067E270E00E942229060F171F211D311DE1
:1022A0003F932F931F930F93FF93EF938BA58F93E0
:1022B0008AA58F9389A58F9388A58F938CEC94E042
:1022C0009F938F9388E591E09F938F930E94600B7B
:1022D0000FB6F894DEBF0FBECDBFAF960FB6F89421
:1022E000DEBF0FBECDBFDF91CF911F910F91FF9049
:1022F000089510920703109206038091E1029091D5
:10230000E202A091E302B091E4020196A11DB11D89
:102310008093E1029093E202A093E302B093E4027F
:102320000E9439034CCF609154026058770B605083
:102330007E4F80910A0287FD12C045E552E0461BA0
:10234000570B453560F484170CF4482F10920A029D
:10235000042E000C550B8CE193E00C944E1040E0E1
:10236000F5CF462F50E0BC018CE193E00E944E1067
:102370000C947D0E8F929F92AF92BF92CF92DF927C
:10238000EF92FF920F931F93CF93DF938091B20050
:102390001092B20087B3B89A80FF09C080913C01C7
:1023A00090913D01019690933D0180933C01809175
:1023B0003C0190913D0110923D0110923C01209111
:1023C0002202309123022115310509F404C19091B4
:1023D0006F00946090936F00C0908A00D0908B0043
:1023E0008091840090918500C81AD90AE12C8091CF
:1023F000840090918500820F931F90938B008093AF
:102400008A00B29A8091220290912302C81AD90AB6
:10241000E1088091C50281FD39C080FD06C0809130
:10242000C9029091CA02029788F12091C5022260E8
:102430006E2DA601062E000C770BDB01CA01342F8E
:102440003295307F2F70232B2093C502392F329580
:10245000307F242F22952F70232B2093C602362FF6
:102460003295307F292F22952F70232B2093C7027E
:102470002B2F2295207F862F82958F70822B809321
:10248000C8028091FF0180648093FF011092C40212
:102490001092C30284E1E2EAF2E0AEE8B2E0019019
:1024A0000D928A95E1F77894C091C002CE3F08F072
:1024B000A7C0C330F0F04E2D9601042E000C550B32
:1024C000CA01B9010E94A3272091BC023091BD022C
:1024D0004091BE025091BF020E944429CD3F09F4B1
:1024E00088C06093BC027093BD028093BE0290933B
:1024F000BF02CF5FC093C00205E512E0D12CC12C12
:10250000B5E3EB2EBCE0FB2ED8015096CD91DC91CB
:102510005197209709F447C01C962D913D914D91FC
:102520005C911F9718966D917D918D919C911B9751
:102530000E944429F80160877187828793872197D9
:10254000D18BC08B2091DD023091DE02F6013696F0
:10255000CD2B09F083C0D80152964D915C91CF01EB
:10256000880F991FE901C80FD91F5983488320910B
:10257000DD023091DE02820F931FFC018081918188
:10258000F601EE0FFF1FE553FD4F918380839FB748
:10259000F8948091FF0180628093FF01F092F60130
:1025A000E092F5019FBFFFEFCF1ADF0A045F1F4FD4
:1025B00024E0C216D10409F0A7CFDF91CF911F917B
:1025C0000F91FF90EF90DF90CF90BF90AF909F90D2
:1025D0008F900C941A05C0908A00D0908B00809147
:1025E000840090918500C81AD90AE12C0E94D00B72
:1025F00009CF20E030E04AE753E40E94B02971CFD0
:1026000020E030E048EC52E46091BC027091BD02E1
:102610008091BE029091BF020E9402284B015C0192
:102620004E2D9601042E000C550BCA01B9010E94D3
:10263000A3279B01AC01C501B4010E94442920E0FD
:1026400030E04AEC52E40E94B0296093BC027093DF
:10265000BD028093BE029093BF024ECFAF01440FE4
:10266000551FE901C40FD51F0E94222A7983688370
:102670009ACFCF92DF92EF92FF9260910C0370910C
:102680000D0390E080E00E94A1279B01AC0160E077
:1026900070EC8FE797E40E94B02920E030E040E83A
:1026A0005FE30E9443290E94652A20E030EE46E75E
:1026B00055E40E94B0292FE03FEC4BE55BE30E941C
:1026C00044299B01AC0160E070E080E89FE30E9438
:1026D000B02923E333E948E853E40E9443296B011E
:1026E0007C0160912F026F3FB1F0062E000C770B3A
:1026F000880B990B0E94A32720E030E040E85EE3BE
:102700000E940228A70196010E944429FF90EF90A1
:10271000DF90CF90089560E070E080EC9FE7F2CF0B
:102720008F929F92AF92BF92CF92DF92EF92FF92E1
:102730000F931F93CF93DF93CDB7DEB7A1970FB65B
:10274000F894DEBF0FBECDBF0E94960A8DED93E0D8
:102750000E94C80C88E591E00E9483080E94960AB6
:1027600081E230E020E0F90180935700649142E07B
:1027700050E0FA01809357007491E4E0F0E0809318
:102780005700849199E0F901909357002491E3E078
:10279000F0E0909357003491FA0190935700949190
:1027A0001F929F931F923F931F922F931F928F937D
:1027B0001F927F931F926F938FEA93E09F938F9363
:1027C00008E511E01F930F930E94600B89EA93E0E4
:1027D0000E94680886E592E00E94680889E993E013
:1027E0000E94C80CC8010E9483080E94960A20918A
:1027F000E1023091E2024091E3025091E402AAE149
:10280000B0E00E9408296B017C01FAE1CF1AD108DF
:10281000E108F108809106039091070367E270E0F8
:102820000E942229C60ED71EE11CF11CFF92EF92D6
:10283000DF92CF9285E893E09F938F931F930F933E
:102840000E94600B1F921F928CE793E09F938F93DF
:102850001F930F930E94600B82E793E00E94680829
:102860008DE693E00E9468088CE593E00E9468087A
:1028700080E593E00E94680880911C020FB6F894EE
:10288000DEBF0FBECDBF81FF69C18CE41F928F9365
:102890001F9287E18F938DE393E09F938F9308E5D9
:1028A00011E01F930F930E94600B8FE38F9380E8DA
:1028B0008F931F921F921F9288E08F938EE193E077
:1028C0009F938F931F930F930E94600B0FE011E073
:1028D00033E1E32E31E0F32E0FB6F894DEBF0FBEE6
:1028E000CDBF4AE0842E912CA12CB12CF80121916E
:1028F0008F0130E050E040E019A26E01F1E2CF0E0E
:10290000D11CCA01B901A50194010E94E628605DAD
:10291000F60162936F01211531054105510589F7D3
:10292000309729F0BF0188E591E00E94B90C6CE274
:1029300088E591E00E941B08E016F106B9F62091A7
:102940002A0230912B0200912802109129022115B0
:10295000310509F405C1201B310B50E040E060E077
:1029600070E080E094E00E94E6283F932F931F934D
:102970000F9381E193E09F938F9308E511E01F93FC
:102980000F930E94600BC8010E9483080E94960A60
:1029900080912C02082E000C990B982F8827929575
:1029A000907F092E000CAA0BBB0B83539343A347C4
:1029B000B04CBF93AF939F938F9380913B028F93C3
:1029C00080913A028F93809139028F9380913802DF
:1029D0008F9380911C0281701F928F9389EE92E0F9
:1029E0009F938F931F930F930E94600B60912F0210
:1029F0000FB6F894DEBF0FBECDBF6F3F09F4B3C072
:102A0000062E000C770B880B990B0E94A32720E061
:102A100030E040E85EE30E940228162F072FF82ED0
:102A2000E92E0E943913EF92FF920F931F939F9309
:102A30008F937F936F9389ED92E09F938F9308E537
:102A400011E01F930F930E94600B0E9436092091A2
:102A50002E021F922F9320912D021F922F939F934E
:102A60008F938DEB92E09F938F931F930F930E9410
:102A7000600B809130021F928F9380911D021F92F4
:102A80008F9385EA92E09F938F931F930F930E94F9
:102A9000600B0E941709BC0190E080E00E94A12712
:102AA00020E030E04AE754E40E94B0299F938F93DE
:102AB0007F936F938BE992E09F938F931F930F9374
:102AC0000E94600B0FB6F894DEBF0FBECDBF8091A1
:102AD00023028F93809122028F93809127028F93FC
:102AE000809126028F93809125028F9380912402FA
:102AF0008F9384E792E09F938F931F930F930E948D
:102B0000600B809134021F928F93809133028F93D8
:102B1000809132028F9382E692E09F938F931F936E
:102B20000F930E94600BC8010E9483080FB6F894AF
:102B3000DEBF0FBECDBFA1960FB6F894DEBF0FBEAD
:102B4000CDBFDF91CF911F910F91FF90EF90DF905C
:102B5000CF90BF90AF909F908F90089584E596CED0
:102B600020E030E202CF10E000E080ECF82E9FE79A
:102B7000E92E57CF2F923F924F925F926F927F92A2
:102B80008F929F92AF92BF92CF92DF92EF92FF927D
:102B90000F931F93CF93DF9300D0CDB7DEB79A8307
:102BA000898384ED8093540210920B0210920A02E2
:102BB00048E5E42E41E0F42E50E1252E52E0352E7A
:102BC00089819A819C01215031093A832983181601
:102BD00019060CF002C31091540286E393E00E94A0
:102BE000F808E0915402E058E53508F0E4E5F0E03B
:102BF000E050FE4F80838091540291E0980F9093B3
:102C00005402143D11F58093540229813A81232BFB
:102C1000B9F6893BA9F680910A02823089F681E4EF
:102C200098E0909345028093440285E0EAE0F1E069
:102C3000A6E4B2E001900D928A95E1F787E08093D7
:102C40000A0284EC80935402BBCF1A3811F484ED4D
:102C5000F9CF193809F0B4CF90910902943509F4ED
:102C6000AAC108F063C0923209F42DC1D0F59231A7
:102C700009F4E5C040F5903109F405C1913109F03E
:102C80009FCF40900502509006026090070270901E
:102C900008028090030290900402A0900002B0907D
:102CA0000102809102028F3F09F003C1D12C9301F0
:102CB0008201A401B5018D2D0E948A03D39484E082
:102CC000D812F5CF7DCF29813A81903209F4F8C02E
:102CD00042E060EC913209F073CFC9010E94AB0A67
:102CE0006FCF913509F459C1C0F4933209F4F0C0A3
:102CF000903509F065CF60E0CE0101960E949A0AF6
:102D0000823941F49FB7F8948091FF0182608093EB
:102D1000FF019FBF0E94350753CF923509F4DBC0F6
:102D2000933509F04DCF0E9490134ACF963809F49D
:102D3000BAC108F059C0933809F479C150F59635F5
:102D400009F4D8C0923809F03BCF61E0CE0101967A
:102D50000E949A0A2091220230912302820F932F1F
:102D6000911D9093230280932202809122029091E0
:102D700023029F938F939F938F933F922F92FF9263
:102D8000EF920E94600B0FB6F894DEBF0FBECDBF6E
:102D900017CF943809F45BC1953809F011CF61E081
:102DA000CE0101960E949A0A2091BA023091BB028C
:102DB000820F932F911D9093BB028093BA02809152
:102DC000BB028F938091BA028F93E1E0F2E0FF9310
:102DD000EF93FF92EF920E94600B0F900F900F9075
:102DE0000F900F900F90ECCE943909F4EFC0D8F407
:102DF000913909F49BC0933909F0E2CE1FB7F894DA
:102E000060E0CE0101960E949A0A823929F48091ED
:102E1000FF0182608093FF018091FF018E7F80938C
:102E2000FF011FBFC4C09D3E09F44DC19E3E09F481
:102E30008BC1953909F0C4CE0E94D80CC1CE8981CE
:102E40009A819C01215031093A8329831816190669
:102E5000BCF486E393E00E94F808282F2F7034E03A
:102E6000959587953A95E1F78F70880F90910A02B2
:102E7000890F80930A022A5B220F20935402A0CE6E
:102E800020E088E0F2CF00910302109104028091CB
:102E900002028F3F51F4D12CB8018D2D0E940706FC
:102EA000D39424E0D212F8CF8BCEB8010E9407064B
:102EB00087CE93018201A401B5010E948A0380CECE
:102EC00044E06CEB0ACF42E062EC89819A8106CF44
:102ED00044E068EBFACF80E090E0A0E8BFE38093A5
:102EE000440290934502A0934602B093470244E007
:102EF00064ECEBCF89819A819C01215031093A839E
:102F00002983181619060CF05BCE86E393E00E9425
:102F1000F808E091DB02F091DC0221E0019709F072
:102F200020E0808120FB81F980834ACE1F928CE9CA
:102F30008F931F9287E18F9388E08F9381E48F9323
:102F4000A7E3B2E0BF93AF93FF92EF920E94600BB2
:102F50000FB6F894DEBF0FBECDBF0CE112E0D80172
:102F60008D918D011F928F93E2E3F2E0FF93EF9337
:102F7000FF92EF920E94600B0F900F900F900F90B6
:102F80000F900F9082E00533180749F769E371E06D
:102F900088E591E00E94B90C13CE0E9442039FB7CE
:102FA000F8948091FF0182608093FF019FBF81E0D0
:102FB0000E94881005CE1092F8011092F70110922D
:102FC000FC011092FD011092FE01FACD88E292E020
:102FD0000E94C80C8090380290903902A0903A026A
:102FE000B0903B0220E030E0A901C501B4010E948D
:102FF0009C27882351F0A5019401C501B4010E94CA
:10300000AD2A811102C00E94B60A64EF71E080E02F
:1030100090E00E94F70681E0809346011092420101
:10302000109243011092440110924501C9CD61E014
:10303000CE0101960E949A0A209122023091230229
:10304000281B310930932302209322028ECE8981DE
:103050009A819C01215031093A83298302970CF40B
:1030600084CE80913A0390913B03209138033091B4
:103070003903281B390B2230310510F022E030E0F3
:10308000E0913603F0913703E80FF91F4081518139
:103090005093230240932202820F931F90933B038D
:1030A00080933A0362CE61E0CE0101960E949A0AB3
:1030B0002091BA023091BB02281B31093093BB0228
:1030C0002093BA027CCE8BEF91E00E946808809139
:1030D000900290919102892B91F110E084E0180206
:1030E000F0011124EB5AFD4F43AD54AD411551058C
:1030F00009F44CCF61ADE091DD02F091DE02862F44
:10310000062E000C990B0696880F991FE80FF91FE1
:1031100081818F9380818F935F934F931F926F93E1
:10312000A0EFB1E0BF93AF93FF92EF920E94600BCC
:103130001F5F0FB6F894DEBF0FBECDBFCFCF8DEDB2
:1031400091E00E94C80C3CCD87ED91E00E94680898
:1031500080E0C82E82E0D82E00E810E0B02E902F3C
:103160009370A92E81F41F930F93A0EDB1E0BF934C
:10317000AF93FF92EF920E94600B0F900F900F9011
:103180000F900F900F90D6018D916D011F928F932C
:10319000EBECF1E0FF93EF93FF92EF920E94600B54
:1031A0008B2D8F700F900F900F900F900F900F90AE
:1031B0008F3051F484EC91E00E9468080F5F1F4F3C
:1031C000053D110559F6E2CE83E0A812F7CF60E283
:1031D00088E591E00E941B08F1CF0F900F90DF91DE
:1031E000CF911F910F91FF90EF90DF90CF90BF9004
:1031F000AF909F908F907F906F905F904F903F9097
:103200002F9008951F920F920FB60F9211242F93B3
:103210003F938F939F93AF93BF9380914801909179
:103220004901A0914A01B0914B013091470126E03C
:10323000230F2D3758F50296A11DB11D209347018C
:103240008093480190934901A0934A01B0934B01A8
:1032500080914C0190914D01A0914E01B0914F0190
:103260000196A11DB11D80934C0190934D01A09337
:103270004E01B0934F01BF91AF919F918F913F91BC
:103280002F910F900FBE0F901F90189529E8230FD4
:103290000396A11DB11DD2CF1F920F920FB60F92B0
:1032A00011242F933F934F935F936F937F938F934B
:1032B0009F93AF93BF93EF93FF93E0910201F0913F
:1032C00003010995FF91EF91BF91AF919F918F916C
:1032D0007F916F915F914F913F912F910F900FBE12
:1032E0000F901F9018951F920F920FB60F921124F6
:1032F0002F933F934F935F936F937F938F939F93FE
:10330000AF93BF93EF93FF93E0910001F091010120
:103310000995FF91EF91BF91AF919F918F917F910F
:103320006F915F914F913F912F910F900FBE0F9032
:103330001F9018951F920F920FB60F9211242F9382
:103340003F934F935F936F937F938F939F93AF932D
:10335000BF93EF93FF9388E591E00E94F907FF91F7
:10336000EF91BF91AF919F918F917F916F915F91FD
:103370004F913F912F910F900FBE0F901F90189576
:103380001F920F920FB60F9211242F938F939F933A
:10339000EF93FF93E0916801F09169018081E091E2
:1033A0006E01F0916F0182FD1BC0908180917101CF
:1033B0008F5F8F7320917201821741F0E09171014C
:1033C000F0E0E85AFE4F958F80937101FF91EF91E5
:1033D0009F918F912F910F900FBE0F901F90189576
:1033E0008081F4CF1F920F920FB60F9211248F930A
:1033F0009F9380913E0190913F01019690933F01F0
:1034000080933E019F918F910F900FBE0F901F9060
:1034100018951F920F920FB60F9211248F939F93BE
:1034200080913C0190913D01019690933D018093E4
:103430003C018091F5019091F601181619062CF4C3
:1034400001979093F6018093F5018091F701909197
:10345000F801009729F001979093F8018093F70104
:103460009F918F910F900FBE0F901F9018951F92F4
:103470000F920FB60F9211242F933F934F935F93A8
:103480006F937F938F939F93AF93BF93EF93FF932C
:103490000E94D00BFF91EF91BF91AF919F918F91BF
:1034A0007F916F915F914F913F912F910F900FBE40
:1034B0000F901F9018951F920F920FB60F92112424
:1034C0002F933F934F935F936F937F938F939F932C
:1034D000AF93BF93CF93DF93EF93FF93C0918D0290
:1034E00081E08C0F80938D0284E0C802E0011124FA
:1034F000C257DD4F6091C20288810E94EF0A8E811F
:103500009F810097C9F480916F00897F84608093C8
:103510006F00FF91EF91DF91CF91BF91AF919F919C
:103520008F917F916F915F914F913F912F910F906C
:103530000FBE0F901F9018952496FE0132972081A0
:1035400031812817390798F4209184003091850043
:103550002A5F3F4F8217930728F48091840090914F
:10356000850006969093890080938800D2CF809141
:103570008D028F5F80938D02BDCF1F920F920FB689
:103580000F9211242F933F934F936F937F938F93B9
:103590009F936091780070917900809112039091CF
:1035A00013030196909313038093120318161906C0
:1035B000DCF4209116033091170340911803260F75
:1035C000371F411D209316033093170340931803B0
:1035D00020911403309115038217930728F010925D
:1035E0007A0081E080931B039F918F917F916F916F
:1035F0004F913F912F910F900FBE0F901F901895F4
:1036000010927A0089E291E090931D0380931C034D
:1036100080E493E00E94A50C86E393E00C94A50C53
:10362000CF93DF93A8E5B1E013961C921E921297F8
:1036300048EE53E060E070E014964D935D936D9317
:103640007C93179787E191E011969C938E9385EC7C
:1036500090E01D969C938E931C9784EC90E01F96AF
:103660009C938E931E9780EC90E051969C938E9342
:10367000509781EC90E053969C938E93529782ECF6
:1036800090E055969C938E93549786EC90E05796D5
:103690009C938E93569759961C9259975A961C92C2
:1036A0005A975B961C925B975C961C925C97ECE138
:1036B000F3E013821282448355836683778389E221
:1036C00091E0918380838EEF848715861686178616
:1036D00081E0808B118A128A2FE233E087E0E901D2
:1036E00019928A95E9F7138E128E158E148E178E05
:1036F000168E11A210A213A212A215A214A217A232
:1037000016A211A610A613A612A615A614A617A6F1
:1037100016A611AA10AA89E290E193AB82ABB5ABD1
:10372000A4ABE5EFF1E08FEF9FEF9183808382E11F
:103730009AE79383828314821582168217821086F9
:103740001186128686E8E5E5F2E0DF011D928A9592
:10375000E9F78CE192E09093DC028093DB0280E059
:1037600092E09093DE028093DD02EFEDF2E087E2DB
:10377000EF0119928A95E9F710A617A288E79CEE47
:10378000AFEFBFEF81A792A7A3A7B4A7ECE0F3E048
:1037900086E0DF011D928A95E9F71786DF91CF91C8
:1037A0000895CF93DF93CDB7DEB7A7970FB6F89400
:1037B000DEBF0FBECDBF789484B5826084BD84B572
:1037C000816084BD85B5826085BD85B5816085BD1C
:1037D00080916E00816080936E00109281008091D4
:1037E000810082608093810080918100816080935C
:1037F0008100809180008160809380008091B10081
:1038000084608093B1008091B00081608093B000AB
:1038100080917A00846080937A0080917A0082603F
:1038200080937A0080917A008E7F80937A008091D5
:103830007A00806880937A001092C100E09168015C
:10384000F091690182E08083E0916401F09165016B
:103850001082E0916601F091670180E1808310920F
:103860007001E0916C01F0916D0186E08083E09140
:103870006A01F0916B01808180618083E0916A012F
:10388000F0916B01808188608083E0916A01F09102
:103890006B01808180688083E0916A01F0916B0107
:1038A00080818F7D80830E94960A8BE494E00E9441
:1038B000C80C88E591E00E948308E2E0F2E083E52D
:1038C000DF011D928A95E9F78FEF9FEF9093010238
:1038D00080930002809128038E3FC1F08EEF809389
:1038E00028031092290310922A0310922B0381E0DF
:1038F00080932C0310922D0310922E0386E393E005
:103900000E94A50C80E493E00E94A50C87E18093BF
:1039100028038AEB95E190934B0380934A0383E954
:1039200091E190934D0380934C038FEF9FEF909321
:1039300007038093060310E000E0C12CD12C760130
:10394000063FB3E01B0751F1BE016F5F7F4FC80117
:103950000E943A0BCE0103960E94140329813A81FA
:1039600028173907C1F44B815C816D817E814C152C
:103970005D056E057F0578F010930703009306033D
:1039800087E2FE013196AFEDB2E001900D928A958B
:10399000E1F76A017B01095D1F4FD2CF0091060359
:1039A000109107030F3F100709F0ACC00E94D80C1C
:1039B00060E08EE00E94A10660E083E00E94A10624
:1039C00010923502109236021092370281E08093F5
:1039D000460110924201109243011092440110924C
:1039E0004501DE0111965D0180914601882309F4AD
:1039F00029C2C0904201D0904301E0904401F09070
:103A00004501C114D104E104F10409F0C8C0C0901B
:103A10003802D0903902E0903A02F0903B0220E068
:103A200030E0A901C701B6010E949C27882351F00C
:103A3000A7019601C701B6010E94AD2A811102C0FB
:103A40000E94B60A10927A0010921B0364E670E09E
:103A500080E090E00E94F7060E942907605E784AA5
:103A60008E4F9F4F609342017093430180934401B6
:103A70009093450184E391E00E94E72AFC0180E0F5
:103A800090E0A0ECBFE780839183A283B38315828B
:103A90001482ABEFBFEFB783A683DF011896CF0187
:103AA0008C5C9E4F1D921D921D928A179B07D1F729
:103AB000F0934101E0934001F894E3E5F9E0F093DD
:103AC0000301E093020180916900837F8860809305
:103AD0006900E99A1092800081E0809381008091D2
:103AE0006F00816080936F001092850010928400B7
:103AF000B09A78940E94EF07882309F475CF0E944A
:103B0000291072CF8091E602873308F043C087E323
:103B10008093E60289E1E5EEF2E0ACE1B2E00190EB
:103B20000D928A95E1F78091E0028F938091DF02F8
:103B30008F93C80167E270E00E9422292B01712C4B
:103B4000612CFAE14F1A510861087108AAE1B0E04E
:103B5000A70196010E940829460E571E681E791E6D
:103B60007F926F925F924F921F930F93FF92EF920B
:103B7000DF92CF9283E294E09F938F9388E591E068
:103B80009F938F930E94600B0FB6F894DEBF0FBE19
:103B9000CDBF0ECF8E3708F4BDCF8DE7B9CFFFEF85
:103BA000CF16DF06EF06FF0609F03FC1E0914001A6
:103BB000F091410180819181A281B381809338028B
:103BC00090933902A0933A02B0933B020E94B80B43
:103BD000F89410927A0010927B0010921A031092BF
:103BE0001B0390E490937C00A0E4B0E0B093150335
:103BF000A093140310921903E8EFFFEFF09313035F
:103C0000E0931203109216031092170310921803F8
:103C10008FEE80937A0078940E9429076B017C01D3
:103C2000FAEFCF0ED11CE11CF11C0E9429076C1584
:103C30007D058E059F0550F480911B038823A9F311
:103C40000E94B80280911A03823079F7C09038023E
:103C5000D0903902E0903A02F0903B02A701960121
:103C6000C701B6010E94AD2A811185C020E030E075
:103C7000A901C701B6010E949C27882309F47BC0D3
:103C8000E091DB02F091DC026589062E000C770BD7
:103C9000E3E076956795EA95E1F790E080E00E9491
:103CA000A1272B013C01A701960160E074E284EF9B
:103CB00098E40E94B0299B01AC01C301B2010E94AB
:103CC00044290E94292A7093BB026093BA02109281
:103CD000BC021092BD021092BE021092BF0210925E
:103CE000C00219821092FF0186E0A5ECB2E01D929D
:103CF0008A95E9F71092C202FBECEF2EF2E0FF2E5C
:103D00000FE011E0CC24CA94DC2CF701C192D192CF
:103D10007F01D8017D908D01872D0E94590661E0B9
:103D2000872D0E94A106E3E1F1E0E017F10769F7B2
:103D3000F8941092B00081E08093B10080917000FF
:103D40008160809370008AEB91E1909303018093EE
:103D5000020180916900837F886080936900E99AFD
:103D60001092800082E08093810080916F00887DB6
:103D700080936F00789480911C0280FF29C05EEFD1
:103D8000C52E52E0D52EF12CD6016D907D906D019F
:103D900061147104C9F020901E0230901F024090FF
:103DA00020025090210220E030E0A901C201B101BF
:103DB0000E949C27882341F092018101A3016FEFAB
:103DC0007FEF8F2D0E948A03F394B4E0FB12DCCFC7
:103DD0000E94360990934102809340020E94391359
:103DE00060933C0270933D0280933E0290933F02A9
:103DF0000E941709909343028093420268E18CE18C
:103E000093E00E94B20E67EF8CE193E00E94F60D02
:103E10006CE088E392E00E94B111F8948091FF0178
:103E200084608093FF01789465CE0E9429076C1509
:103E30007D058E059F0508F45DCE80E090E0A0EC46
:103E4000BFE7BCCE80911B0381110E94B802F89499
:103E5000F090FF017894F2FE09C0F8948091FF0180
:103E60008B7F8093FF0178940E9490130E94290712
:103E70002B013C01F3FE1BC0F8948091FF01877F6A
:103E80008093FF01789468E18CE193E00E94B20E88
:103E900064EF8CE193E00E94F60D6FEF8CE193E00C
:103EA0000E94F60D63E085E392E00E94B111F4FEFA
:103EB00018C0F8948091C10289838091FF018F7EA0
:103EC0008093FF01789468E18CE193E00E94B20E48
:103ED00065EF8CE193E00E94F60D61E0C5010E9460
:103EE000B111F5FE41C0F8948091F5019091F60171
:103EF000892B09F0B2C18091FF018F7D8093FF0172
:103F00008FEF9FEF9093F6018093F501EBECF2E0D9
:103F1000850180E04FEF5FEF219131912F3F320714
:103F200061F0D8018C9312963C932E931197DF0188
:103F300012974D935C930D5F1F4F8F5F843061F735
:103F40007894A016B10681F068E18CE193E00E94BC
:103F5000B20E62EF8CE193E00E94F60DB8016A198F
:103F60007B09C5010E94B111F0FE12C00E94290711
:103F7000009108031091090320910A0330910B036B
:103F8000601771078207930718F080E00E9488107D
:103F9000F6FE81C0F89486E0E5ECF2E0D5010190F0
:103FA0000D928A95E1F7898181FF59C186E0E5ECA0
:103FB000F2E011928A95E9F78091FF018F7B80935F
:103FC000FF01789468E18CE193E00E94B20E66EF05
:103FD0008CE193E00E94F60D66E0C5010E94B111EC
:103FE000998192959F708A81282F2295207FC22ED9
:103FF000C92A982F92959F708B81282F2295207F18
:10400000D22ED92A82958F709C81292F2295207FCC
:10401000E22EE82AF92EF2949FE0F92224E0CC0C5B
:10402000DD1CEE1CFF1C2A95D1F734E0F594E794D3
:10403000D794C7943A95D1F7C701B6010E94A32738
:104040009F938F937F936F9343E0CC0CDD1CEE1C0A
:10405000FF1C4A95D1F7FF92EF92DF92CF928E81AB
:104060008F938D818F938981869581701F928F9315
:10407000898181701F928F9380E594E09F938F9345
:10408000E8E5F1E0FF93EF930E94600B0FB6F89420
:10409000DEBF0FBECDBF8091F7019091F801892B53
:1040A00009F028CD10927A00F894A2E1BAE7B09313
:1040B000F801A093F70178940E9417090E94391320
:1040C0006B017C01C0923C02D0923D02E0923E0224
:1040D000F0923F02AC019B010E94AD2A811105C004
:1040E000C701B6010E94222A4B010E9436098C01A9
:1040F0009093410280934002BC01990F880B990B69
:104100000E94A3279B01AC010E94AD2A811104C02B
:10411000801691060CF44801FF24E72CD62CC52C00
:1041200026016E2C80911D02882309F444C0881555
:1041300019040CF040C08091F9019091FA01A0910E
:10414000FB01481659066A06B0F1AE2DC6018B5820
:104150009F4FAF4F8093F9019093FA01A093FB0119
:1041600080911C0282FD05C0846080931C020E9425
:104170003507712C00E010E020E231E450E040E02F
:104180006FEF7FEF872D0E948A037394B4E07B1258
:10419000F1CF898280911D028A8368E18CE193E0EE
:1041A0000E94B20E61EF8CE193E00E94F60D62E096
:1041B000C5010E94B11180913002882371F12091D4
:1041C000FC013091FD014091FE0142165306640648
:1041D00020F1E4E08E9FC0011124092E000CAA0BEF
:1041E000C80ED91EEA1EC092FC01D092FD01E092D9
:1041F000FE0168E18CE193E00E94B20E60EF8CE179
:1042000093E00E94F60D682D8CE193E00E94F60D7C
:104210006CE088E392E00E94B111F89410921A03C6
:1042200010921B03F0E4F0937C0080E490E0909304
:1042300015038093140310921903A8EFBFEFB093F6
:104240001303A093120310921603109217031092F7
:1042500018038FEE80937A00E6CD789485CE809116
:10426000C5028E7F8093C502A7CEAFE0B0E0EBE33E
:10427000F1E20C9496246C011B015A01FC01178297
:104280001682838181FF48C39E012F5F3F4F490102
:10429000F6019381F10193FD859193FF81911F01B7
:1042A000882309F4E7C2853239F493FD859193FFA1
:1042B00081911F01853239F4B60190E00E94AF264A
:1042C00035015301E5CFF12C512C00E0003238F4D8
:1042D0008B3209F190F48032F9F0833209F107FD55
:1042E00034C020ED280F2A3020F506FF1BC0FAE06D
:1042F000FF9E200D1124F22E05C08D3279F08033FF
:1043000071F70160F10193FD859193FF81911F0188
:104310008111DCCF1AC002600460F4CF0860F2CFD4
:104320000061F0CF3AE0539E200D1124522E00621E
:10433000E9CF8E3221F406FD9DC20064E3CF8C36B6
:1043400011F40068DFCF8836E9F29BEB980F9330C9
:1043500008F05FC00061805E06FD02C046E0F42EFA
:10436000102F1F73853609F05BC0106417FF61C002
:104370008F2D9BE39F1508F48BE344244394480E50
:1043800027E03501F4E06F0E711CF5016081718149
:1043900082819381042DA4010E94B8255C01F981DA
:1043A000FC87F0FF03C00DE2F3FF07C00BE211FD35
:1043B00004C0012F047012FD00E22C852C70E22E47
:1043C00009F457C00111ABC2F3E0E12CF515A0F4DC
:1043D00083E0E52CE81A13FD08C0B60180E290E006
:1043E0000E94AF26EA94E110F8CF002329F0B6012D
:1043F000802F90E00E94AF263C8522ECA22E20E088
:10440000B22E33FD04C096ECA92E90E0B92E1071A7
:1044100022C09BE9980F933008F033C10F7E9CCFE8
:10442000863611F41068A2CFFF2009F49FCFFA94CA
:104430009DCFE7E02F2DEF1518F427E037E0F32E9E
:10444000412C9FCF11118052B60190E00E94AF26FF
:104450008FEFA81AB80AF50184918111F3CFEE20ED
:1044600009F42FCFB60180E290E00E94AF26EA94D3
:10447000F6CF17FF6FC04A0CFC85F4FF04C08A8199
:10448000813309F44A9414140CF086C028E02415F2
:1044900010F488E0482E85E090E017FF06C0C501C3
:1044A000B7FE02C090E080E0019601110196FF2066
:1044B00031F02F2D30E02F5F3F4F820F931F5816A2
:1044C000190619F014F0E52CE81A812F897011F4FF
:1044D000E11067C0002329F0B601802F90E00E9410
:1044E000AF2613FD02C0E11063C017FF7CC0850139
:1044F000B7FE02C010E000E0C501841991092C014B
:104500006F2D70E0EE27FF27E61BF70BFF87EE8786
:104510000F3F100729F4B6018EE290E00E94AF260B
:10452000A016B1060CF44BC0401651060CF047C063
:10453000F501E01BF10BE80DF91D81810150110916
:104540002E853F8502171307E4F1B60190E00E9423
:10455000AF26DECF16FD9FCFEF2DF0E0EA15FB056D
:1045600034F03CEFA3163FEFB3060CF01068329620
:10457000E80DF91D01C0FA94FF2019F082918033F3
:10458000D1F317FF88CF442443944F0CFA141B0433
:1045900031F02CF0FA187FCF442443947CCFF12CD7
:1045A0007ACFB60180E290E00E94AF26EA9490CFE5
:1045B000B60180E390E00E94AF26EA9494CF80E3B6
:1045C000BDCFA016B10641F49A81963350F49533CD
:1045D00019F43C8534FF05C0B60190E00E94AF2677
:1045E0003ECF81E3F9CF8A81813319F09C859F7E8C
:1045F0009C87B60190E00E94AF26FF20A9F0B6018B
:104600008EE290E00E94AF26F394F394E2E001E0A2
:104610000E0FE80DF92DF11D8081B60190E00E948A
:10462000AF26E02F0F11F3CF85E690E014FF02C014
:1046300085E490E0B6010E94AF26B7FC06C0A11445
:10464000B104C1F4EC85E4FF15C0B194A194B108A4
:104650008DE2B60190E00E94AF2680E32AE0A21628
:10466000B10454F4B60190E00E94AF26B601C50132
:10467000C096B4CF8BE2EDCF8F5FFAE0AF1AB108EE
:10468000EDCF8336C9F0833771F1833509F05BC014
:104690003501F2E06F0E711CF501A080B1806F2D25
:1046A00070E006FD02C06FEF7FEFC5010E94992602
:1046B0009D878C8700680DC0350132E0630E711C48
:1046C000F5018081898321E030E03D872C8754010A
:1046D0000F7703FD06C02C853D855216130609F0A1
:1046E000A8F4E52C2BC0350132E0630E711CF501F6
:1046F000A080B1806F2D70E006FD02C06FEF7FEFEC
:10470000C5010E94A4269D878C87E2CFB60180E276
:1047100090E00E94AF265A94DECFF50107FD859107
:1047200007FF81915F01B60190E00E94AF26E11082
:10473000EA948C859D8501979D878C87EC85FD8506
:10474000EF2B59F78CCE843619F0893609F074C0F6
:10475000350107FF66C0F4E06F0E711CF501608142
:10476000718182819381102F1F7697FF08C09095E9
:104770008095709561957F4F8F4F9F4F10682AE00D
:1047800030E0A4010E943B27A82EA818BA2C012FC4
:1047900016FF0AC00E7FAF1438F414FF04C012FDD8
:1047A00002C0012F0E7EBF2C04FF8EC0FE01EA0D59
:1047B000F11D8081803309F080C0097EF02FF870F0
:1047C000EF2E03FD90C000FF8AC0FA2CB51410F440
:1047D000F50CFB1804FF8DC0B60180E390E00E9449
:1047E000AF2602FF09C088E790E001FF02C088E51C
:1047F00090E0B6010E94AF26AF1408F486C0AA94D8
:104800000A2D10E00F5F1F4F080D191DF80182914E
:104810008F01B60190E00E94AF2680169106B1F795
:104820001ECEF2E06F0E711CF50160817181072EC2
:10483000000C880B990B97CF102F8537A9F41F7E9A
:104840002AE030E0350117FF2FC0F4E06F0E711C35
:10485000F5016081718182819381A4010E943B27CF
:10486000A82EA8181F7792CF197F8F36D1F048F461
:10487000883591F0F601868197812F96E2E10C94BC
:10488000B224803739F08837A9F714FD146020E18D
:1048900030E0D8CF1061F9CF04FD166020E132E09E
:1048A000D1CF28E030E0CECFF2E06F0E711CF501E1
:1048B0006081718190E080E0D0CF02FD02C0B394AE
:1048C0007DCFB394B3947ACF802F867809F476CFD6
:1048D000F6CFB60180E290E00E94AF26B394B51403
:1048E000C0F3E12C77CFE52CEB18B51408F472CFA8
:1048F000F8CF802F867809F47FCF8BE201FF80E22A
:1049000007FD8DE2B60190E075CFB60180E390E03F
:104910000E94AF26FA9470CF8FEF9FEFAECF24E0C6
:10492000E12C251508F063CD84E053CD2F923F9202
:104930004F925F926F927F928F929F92AF92BF92AF
:10494000CF92DF92EF92FF920F931F93CF93DF935B
:10495000CDB7DEB7CA1BDB0B0FB6F894DEBF0FBEB8
:10496000CDBF09942A88398848885F846E847D8405
:104970008C849B84AA84B984C884DF80EE80FD8007
:104980000C811B81AA81B981CE0FD11D0FB6F8947D
:10499000DEBF0FBECDBFED010895B0E0A0E0E3EDB6
:1049A000F4E20C9497245C016B017A0161157105A6
:1049B00019F0FB0191838083E114F10449F0C701F0
:1049C0000297839728F060E070E0CB019CC05E0105
:1049D000E5012196F5011081812F90E00E9490263B
:1049E000892BA9F71D3209F056C02196F5011181D6
:1049F00001E0E114F10409F4AEC0F0E1EF16F104B6
:104A000009F08EC0103341F488818F7D883509F01C
:104A100083C0198122960260E0E1EE2EF12C8824F9
:104A20008A94982CA82CFFE0BF2E20E060E070E074
:104A3000CB0127010F2C000C66087708FE0150ED12
:104A4000352E310E39E0331538F43FEB310F3A3162
:104A5000A0F549EC342E310E3E141F04BCF52F3F57
:104A6000B9F086169706A806B90670F1A30192015F
:104A70000E94D628232D30E050E040E0620F731FE3
:104A8000841F951F6217730784079507E8F021E0DC
:104A900021961081D3CF1B3221F4E5012296F50136
:104AA000118100E0A6CF78E0E72EF12C88248A94CB
:104AB000982CA82C6FE1B62EB8CF3FE9310F3A31D0
:104AC00028F439EA332EC7CF2FEFE2CFC114D10437
:104AD00031F02223E9F02197F601D183C08300FF52
:104AE00007C090958095709561957F4F8F4F9F4F30
:104AF0002F3F49F482E290E0909353038093520356
:104B00006FEF7FEFCB01CDB7DEB7E1E10C94B324BB
:104B100001FFE5CF2297E0CF10E3E114F10419F291
:104B20003AE0E316F104E9F080E1E816F10409F453
:104B300073CFE8E0EE16F10409F4B8CF6FEF7FEF22
:104B4000CB0197010F2C000C440B550B0E94E6285B
:104B500049015A016ACF103309F456CF9AE0E92E81
:104B6000F12C89E9882E982CA82C89E1B82E5DCFEC
:104B7000283008F027E03327DA01990F311D87FD2F
:104B8000916000966105710539F432602E5F3D93A6
:104B900030E32A95E1F708959F3F30F080387105A2
:104BA000610509F03C5F3C5F3D93913008F08068FF
:104BB000911DDF93CF931F930F93FF92EF92192FC5
:104BC000987F9695E92F96959695E90FFF27EC5DCE
:104BD000FE4F99273327EE24FF24A701E701059014
:104BE0000894079428F4360FE71EF81E491F511D3C
:104BF000660F771F881F991F0694A1F705900794E9
:104C000028F4E70EF81E491F561FC11D770F881F95
:104C1000991F661F0694A1F70590079428F4F80ED3
:104C2000491F561FC71FD11D880F991F661F771F69
:104C30000694A1F70590079420F4490F561FC71F4B
:104C4000D81F990F661F771F881F0694A9F78491B4
:104C50001095177041F0D695C79557954795F794DD
:104C6000E7941A95C1F7EAECF0E068941590159175
:104C700035916591959105907FE27395E118F10A60
:104C8000430B560BC90BD009C0F7E10CF11E431FB3
:104C9000561FC91FD01D7EF4703311F48A95E6CFDC
:104CA000E894015030F0080F0AF40027021708F4C6
:104CB000202F2395022F7A3328F079E37D932A95CC
:104CC000E9F710C07D932A9589F606949795679524
:104CD000379517951794E118F10A430B560BC90B3A
:104CE000D00998F023957E9173957A3308F070E39C
:104CF0007C932013B8F77E9170617D9330F083959B
:104D000071E37D9370E32A95E1F71124EF90FF9012
:104D10000F911F91CF91DF91992787FD909508956D
:104D200091110C949927803219F089508550C8F759
:104D30000895FC010590615070400110D8F78095EE
:104D400090958E0F9F1F0895FC0161507040019057
:104D50000110D8F7809590958E0F9F1F08950F939F
:104D60001F93CF93DF93182F092FEB018B8181FDC8
:104D700009C01FEF0FEF812F902FDF91CF911F916F
:104D80000F91089582FF14C02E813F818C819D81F7
:104D9000281739073CF4E881F981CF0101969983FE
:104DA000888310838E819F8101969F838E83E3CFBA
:104DB000E885F985812F0995892BA1F3DACFAEE03B
:104DC000B0E0E5EEF6E20C94A4240D891E898F89EB
:104DD000988D2EE02C831A83098397FF02C080E010
:104DE00090E801979E838D83AE01455E5F4F698D8C
:104DF0007A8DCE0101960E9435214D815E8157FD4D
:104E00000AC02F813885421753070CF49A01020F0C
:104E1000131FF80110822E96E4E00C94C024AEE03B
:104E2000B0E0E5E1F7E20C94A4248C01FA018EE0F5
:104E30008C831A83098377FF02C060E070E86150B9
:104E400071097E836D83A901BF01CE0101960E9485
:104E500035214D815E8157FD0AC02F81388542176B
:104E600053070CF49A01020F131FF80110822E96BB
:104E7000E4E00C94C024FA01AA27283051F1203133
:104E800081F1E8946F936E7F6E5F7F4F8F4F9F4FDE
:104E9000AF4FB1E03ED0B4E03CD0670F781F891F20
:104EA0009A1FA11D680F791F8A1F911DA11D6A0FEE
:104EB000711D811D911DA11D20D009F468943F91A1
:104EC0002AE0269F11243019305D3193DEF6CF01A0
:104ED0000895462F4770405D4193B3E00FD0C9F766
:104EE000F6CF462F4F70405D4A3318F0495D31FDD3
:104EF0004052419302D0A9F7EACFB4E0A695979526
:104F0000879577956795BA95C9F7009761057105FB
:104F100008959B01AC010A2E069457954795379545
:104F20002795BA95C9F7620F731F841F951FA01D9F
:104F300008959927882708950E94DE2708F481E0C4
:104F40000895E89409C097FB3EF49095809570957C
:104F500061957F4F8F4F9F4F9923A9F0F92F96E9C5
:104F6000BB279395F695879577956795B795F1113A
:104F7000F8CFFAF4BB0F11F460FF1BC06F5F7F4FD7
:104F80008F4F9F4F16C0882311F096E911C07723E9
:104F900021F09EE8872F762F05C0662371F096E8F2
:104FA000862F70E060E02AF09A95660F771F881FC1
:104FB000DAF7880F9695879597F90895990F000865
:104FC000550FAA0BE0E8FEEF16161706E807F907DB
:104FD000C0F012161306E407F50798F0621B730B76
:104FE000840B950B39F40A2661F0232B242B252BF7
:104FF00021F408950A2609F4A140A6958FEF811D9A
:10500000811D08950E9415280C9486280E947828F6
:1050100038F00E947F2820F0952311F00C946F281F
:105020000C94752811240C94BA280E94972870F3C8
:10503000959FC1F3950F50E0551F629FF001729F3D
:10504000BB27F00DB11D639FAA27F00DB11DAA1F4C
:10505000649F6627B00DA11D661F829F2227B00D99
:10506000A11D621F739FB00DA11D621F839FA00D24
:10507000611D221F749F3327A00D611D231F849F74
:10508000600D211D822F762F6A2F11249F575040CB
:105090009AF0F1F088234AF0EE0FFF1FBB1F661F46
:1050A000771F881F91505040A9F79E3F510580F00F
:1050B0000C946F280C94BA285F3FE4F3983ED4F325
:1050C000869577956795B795F795E7959F5FC1F7B3
:1050D000FE2B880F911D9695879597F9089597F95E
:1050E0009F6780E870E060E008959FEF80EC08958E
:1050F00000240A94161617061806090608950024B7
:105100000A9412161306140605060895092E039430
:10511000000C11F4882352F0BB0F40F4BF2B11F4A4
:1051200060FF04C06F5F7F4F8F4F9F4F089557FD03
:105130009058440F551F59F05F3F71F04795880F05
:1051400097FB991F61F09F3F79F08795089512169C
:1051500013061406551FF2CF4695F1DF08C0161648
:1051600017061806991FF1CF8695710561050894F9
:105170000895E894BB2766277727CB0197F9089510
:10518000F999FECF92BD81BDF89A992780B508950F
:10519000262FF999FECF1FBA92BD81BD20BD0FB653
:1051A000F894FA9AF99A0FBE01960895DB018F934D
:1051B0009F930E940829BF91AF91A29F800D911DDE
:1051C000A39F900DB29F900D11240895A1E21A2E75
:1051D000AA1BBB1BFD010DC0AA1FBB1FEE1FFF1F9B
:1051E000A217B307E407F50720F0A21BB30BE40BEB
:1051F000F50B661F771F881F991F1A9469F7609532
:105200007095809590959B01AC01BD01CF010895EB
:105210000E941329A59F900DB49F900DA49F800D0F
:10522000911D11240895A29FB001B39FC001A39FB7
:10523000700D811D1124911DB29F700D811D1124CF
:10524000911D0895AA1BBB1B51E107C0AA1FBB1FDC
:10525000A617B70710F0A61BB70B881F991F5A9502
:10526000A9F780959095BC01CD0108950E9413295E
:10527000B7FF0895821B930B0895EE0FFF1F059053
:10528000F491E02D09945058BB27AA270E945B296E
:105290000C9486280E94782838F00E947F2820F0FD
:1052A00039F49F3F19F426F40C9475280EF4E09518
:1052B000E7FB0C946F28E92F0E94972858F3BA1740
:1052C000620773078407950720F079F4A6F50C941C
:1052D000B9280EF4E0950B2EBA2FA02D0B01B901C1
:1052E00090010C01CA01A0011124FF27591B99F05C
:1052F000593F50F4503E68F11A16F040A22F232F68
:10530000342F4427585FF3CF469537952795A795B7
:10531000F0405395C9F77EF41F16BA0B620B730B5E
:10532000840BBAF09150A1F0FF0FBB1F661F771FCF
:10533000881FC2F70EC0BA0F621F731F841F48F484
:10534000879577956795B795F7959E3F08F0B0CF0D
:105350009395880F08F09927EE0F979587950895F4
:105360000E94C4290C9486280E947F2858F00E942D
:10537000782840F029F45F3F29F00C946F285111F0
:105380000C94BA280C9475280E94972868F39923E6
:10539000B1F3552391F3951B550BBB27AA27621731
:1053A0007307840738F09F5F5F4F220F331F441F3E
:1053B000AA1FA9F335D00E2E3AF0E0E832D0915072
:1053C0005040E695001CCAF72BD0FE2F29D0660F5F
:1053D000771F881FBB1F261737074807AB07B0E8A2
:1053E00009F0BB0B802DBF01FF2793585F4F3AF0A8
:1053F0009E3F510578F00C946F280C94BA285F3FBB
:10540000E4F3983ED4F3869577956795B795F7952D
:105410009F5FC9F7880F911D9695879597F9089515
:10542000E1E0660F771F881FBB1F621773078407B1
:10543000BA0720F0621B730B840BBA0BEE1F88F7C0
:10544000E09508950E94292A6894B1110C94BA2815
:1054500008950E949F2888F09F5798F0B92F9927A8
:10546000B751B0F0E1F0660F771F881F991F1AF04F
:10547000BA95C9F714C0B13091F00E94B928B1E0D3
:1054800008950C94B928672F782F8827B85F39F0D2
:10549000B93FCCF3869577956795B395D9F73EF4E8
:1054A00090958095709561957F4F8F4F9F4F089590
:1054B0000E94DE2708F48FEF089516F00C94B22AAC
:1054C0000C94752868940C946F280E949F28A8F368
:1054D0009923C1F3AEF3DF93CF931F930F93FF9202
:1054E000C92FDD2788232AF02197660F771F881F91
:1054F000DAF720E030E040E85FEB9FE3883920F006
:10550000803E38F021968F770E944429E8E6F0E04B
:1055100004C00E944429E5E9F0E00E94C02A8B0102
:10552000BE01EC01FB2E6F5771097595771F880B33
:10553000990B0E94A32728E132E741E35FE30E9431
:105540001528AF2D9801AE01FF900F911F91CF91BB
:10555000DF910E945B290C9486280E94DE27880B2D
:10556000990B08959F3F31F0915020F487957795DE
:105570006795B795880F911D9695879597F908952A
:10558000DF93CF931F930F93FF92EF92DF927B01F4
:105590008C01689406C0DA2EEF010E941528FE01E6
:1055A000E894A5912591359145915591A6F3EF0188
:1055B0000E945B29FE019701A801DA9469F7DF9048
:1055C000EF90FF900F911F91CF91DF9108950F936E
:1055D0001F93CF93DF938230910510F482E090E027
:1055E000E0915603F091570330E020E0B0E0A0E0F6
:1055F000309799F42115310509F44AC0281B390B5D
:1056000024303105D8F58A819B816115710589F1B6
:10561000FB0193838283FE0111C04081518102818D
:10562000138148175907E0F04817590799F4109764
:1056300061F012960C93129713961C933296CF0139
:10564000DF91CF911F910F9108950093560310930E
:105650005703F4CF2115310551F04217530738F0A5
:10566000A901DB019A01BD01DF01F801C1CFEF0102
:10567000F9CF9093570380935603CDCFFE01E20FED
:10568000F31F819391932250310939832883D7CF17
:105690002091540330915503232B41F420910601AE
:1056A0003091070130935503209354032091040156
:1056B000309105012115310541F42DB73EB74091D8
:1056C000080150910901241B350BE0915403F0911E
:1056D0005503E217F307A0F42E1B3F0B28173907D9
:1056E00078F0AC014E5F5F4F2417350748F04E0F3E
:1056F0005F1F5093550340935403819391939FCF21
:10570000F0E0E0E09CCFCF93DF930097E9F0FC015D
:10571000329713821282A0915603B0915703ED0184
:1057200030E020E01097A1F420813181820F931F97
:1057300020915403309155032817390709F061C0AF
:10574000F0935503E0935403DF91CF910895EA015C
:10575000CE17DF07E8F54A815B819E0141155105AF
:10576000B1F7E901FB83EA8349915991C40FD51F31
:10577000EC17FD0761F4808191810296840F951FDB
:10578000E90199838883828193819B838A83F0E0F6
:10579000E0E012968D919C9113970097B9F52D91A9
:1057A0003C911197CD010296820F931F20915403D3
:1057B000309155032817390739F6309751F5109273
:1057C000570310925603B0935503A0935403BCCFD4
:1057D000D383C28340815181840F951FC817D90795
:1057E00061F44E5F5F4F88819981480F591F518343
:1057F00040838A819B81938382832115310509F03F
:10580000B0CFF0935703E09356039ECFFD01DC0128
:10581000C0CF13821282D7CFB0E0A0E0E2E1FCE279
:105820000C9498248C01009751F4CB010E94E72A34
:105830008C01C801CDB7DEB7E0E10C94B424FC01C3
:10584000E60FF71F9C0122503109E217F30708F415
:105850009DC0D901CD91DC911197C617D70798F05B
:10586000C530D10530F3CE0104978617970708F3AA
:10587000C61BD70B2297C193D1936D937C93CF0115
:105880000E94832BD6CF5B01AC1ABD0A4C018C0E53
:105890009D1EA0915603B0915703512C412CF12C21
:1058A000E12C109731F580915403909155038815A0
:1058B000990509F05CC04616570608F058C080915B
:1058C000040190910501009741F48DB79EB7409176
:1058D000080150910901841B950BE817F90708F09E
:1058E00055C0F0935503E0935403F901718360832D
:1058F000A0CF8D919C91119712966C901297139650
:105900007C901397A815B90559F56C0142E0C40EB7
:10591000D11CCA14DB0420F1AC014A195B09DA017D
:105920001296159780F06282738251834083D90169
:105930006D937C93E114F10471F0D7011396FC93FD
:10594000EE93129776CF22968C0F9D1FF9019183CB
:105950008083F301EFCFF0935703E093560369CFB1
:105960004816590608F42C017D01D3019ACFCB01CA
:105970000E94E72A7C01009749F0AE01B8010E941D
:10598000E22CC8010E94832B870153CF10E000E076
:1059900050CF91110C94992780538A5028F0865C3F
:1059A000806281568650B0F70895FB01DC0104C087
:1059B0008D910190801921F441505040C8F7881B07
:1059C000990B0895FB01DC0102C001900D9241503A
:1059D0005040D8F70895FB01DC018D9181341CF013
:1059E0008B350CF4805E619161341CF06B350CF4E6
:1059F000605E861B611189F3990B089512E0CDE872
:105A0000D2E004C0FE010E943D292196CE38D10784
:065A1000C9F7F894FFCF76
:105A1600840784070000580380000020049C1906B0
:105A260008090A000000001B088507B2078308E37F
:105A360007C107D50700000000F60D4E1014091324
:0C5A460009CE081009B708C50E0D0A00B3
:00000001FF
