:100000000C94FC020C94FA210C94D3210C9424033C
:100010000C9424030C9424030C9424030C942403C4
:100020000C9424030C9490220C9424030C94E2224C
:100030000C94BE220C9479220C9424030C94240377
:100040000C9489210C9424030C9447220C942122B3
:100050000C9424030C9440230C9424030C94240348
:100060000C9424030C94240308000000BE9224493D
:10007000123EABAAAA2ABECDCCCC4C3E00000080DA
:10008000BEABAAAAAA3E00000000BF000000803F4D
:100090000000000000084178D3BB4387D1133D190D
:1000A0000E3CC3BD4282AD2B3E68EC8276BED98F3A
:1000B000E1A93E4C80EFFFBE01C4FF7F3F0000007E
:1000C00000006E616E00696E660000407A10F35A9F
:1000D00000A0724E18090010A5D4E80000E8764888
:1000E000170000E40B54020000CA9A3B000000E134
:1000F000F505000080969800000040420F000000C7
:10010000A08601000000102700000000E8030000A6
:1001100000006400000000000A0000000000010070
:10012000000000002C76D888DC674F0823DFC1DF91
:10013000AE59E1B1B796E5E3E453C63AE651997694
:1001400096E8E6C28426EB898C9B62ED407C6FFCCE
:10015000EFBC9C9F40F2BAA56FA5F490055A2AF710
:100160005C936B6CF9676DC11BFCE0E40D47FEF519
:1001700020E6B500D0ED902E030094357705008081
:10018000841E080000204E0A000000C80C333333E0
:10019000330F986E12831141EF8D2114893BE65580
:1001A00016CFFEE6DB18D1844B381BF77C1D901D63
:1001B000A4BBE424203284725E228100C9F124ECC5
:1001C000A1E53D272530327825303278002B524585
:1001D0004D3D63756269635F696E742C25752C698A
:1001E0003263743D2530327825303278002B524509
:1001F0004D3D6368616E6E656C3D25752C6D617853
:1002000074696D653D256C750A002B52454D3D6C3A
:100210006576656C3D25642C726573756C743D253F
:10022000642C74696D653D25750A000A2B52454D95
:100230003D0025303278005B253032785D002B524E
:10024000454D3D004E6F206368616E6E656C732096
:100250006163746976650025753D257528257529C6
:1002600020002B52454D3D002B52454D3D74696396
:100270006B733D25640A002B52454D3D7469636BD9
:10028000733D25640A002B52454D3D7A6364656CCD
:1002900061793D25752C3078253034780A002B5251
:1002A000454D3D7A6364656C61793D25752C3078E8
:1002B000253034780A002B52454D3D7A6364656CD5
:1002C00061793D25752C3078253034780A002B5221
:1002D000454D3D667265710025303278002B5245E0
:1002E0004D3D76253034782C693263743D253032AB
:1002F0007825303278002B52454D3D0041546D65D4
:10030000676133323850420073772E6F6E2D7469F7
:100310006D653D25752F25750A002C6D696E2E6F54
:100320006E2D74696D653D25752C6D696E2E6F6639
:10033000663D25752C5A432D64656C61793D2575A4
:100340002C00252E3366002C5643433D006D61780A
:100350002E74656D703D25752C6D657472696373BF
:100360003D257500696E742E74656D703D25642F92
:100370006F66733D25752F6761696E3D25752C008D
:100380004E54433D252E32662F252B2E32662C00EF
:1003900076616C7565733D726573746F72653D252A
:1003A000752C663D252E3366487A2C76726566314B
:1003B000313D252E33662C0072616E67653D2564E4
:1003C0002D25640A0063756269633D25752C0074F0
:1003D000696D6572313D25752F252E32662C6C7640
:1003E0006C733D383139322C70696E733D00616435
:1003F00064723D253032782C6D6F64653D25632C29
:100400000070726F746F3D554152542C00666164E8
:10041000696E675F6576656E74733D312C00564377
:10042000432C00696E742E74656D702C004E54431D
:100430003D4125752C006F7074696F6E733D4545A5
:1004400050524F4D3D256C752C0040384D687A2C2C
:100450006763633D372E332E30002C4D43553D00EE
:100460007369673D253032782D253032782D25305F
:1004700032782C66757365733D6C3A253032782C72
:10048000683A253032782C653A25303278004D4F65
:10049000534645542044696D6D657220322E322ECC
:1004A00032204175672031382032303231203130EE
:1004B0003A33373A313420417574686F7220736172
:1004C000736368615F6C616D6D65727340676D78B1
:1004D0002E6465002B52454D3D454550524F4D52BF
:1004E0002C633D256C752C703D25752C6E3D256C5F
:1004F000752C6372633D253034780A00424F4F54A7
:10050000002B52454D3D6C6F73743D25752C7379EE
:100510006E633D25752C636E743D25752C633D25FA
:100520006C642C743D252E316675730A0000000042
:1005300000240027002A0000000000250028002BCE
:10054000000404040404040404020202020202037C
:100550000303030303010204081020408001020486
:100560000810200102040810200000000800020109
:10057000000003040700000000000000006469732D
:1005800061626C6564005D2C6C3D5B005D2C793DA7
:100590005B00783D5B002B52454D3D636825643D13
:1005A000002B52454D3D454550524F4D572C633D14
:1005B000256C752C703D25752C6E3D256C752C7742
:1005C0003D25752C663D25752C6372633D253034C1
:1005D000782C6366673D25750A002B4932432563F5
:1005E0003D002B52454D3D454550524F4D522C69D3
:1005F0006E697400A323832311241FBECFEFD8E0BC
:10060000DEBFCDBF23E0A4E7B1E001C01D92A43E50
:10061000B207E1F711E0A0E0B1E0EEE1FCE602C0D4
:1006200005900D92A437B107D9F712E0CBEFD2E0D5
:1006300004C02197FE010E941532CA3FD107C9F7B5
:100640000E9480240C9402360C9400008091920346
:10065000833008F046C020918A0330918B03121634
:100660001306B4F4E82FF0E0EE0FFF1FEC57FC4F39
:100670009091910320918E0330918F0340919003CC
:1006800003C04695379527959A95DAF731832083ED
:10069000823019F08F5F80939203109293038091C0
:1006A00092038130F9F018F08230F1F0089580E47F
:1006B00080937C0080E490E090938D0380938C0382
:1006C0001092910388EF9FEF90938B0380938A039E
:1006D00010928E0310928F03109290038FEE8093EE
:1006E0007A0008958EE4E4CF88EC80937C0080E467
:1006F00090E090938D0380938C031092910380EE91
:100700009FEFE2CFBC016B597F4F2FEF3FEF861772
:100710009707D9F0FC014191CF012427422F429540
:100720004227042E469546954025042E46954025A1
:100730004770022E232F469507944795302D242786
:100740000694479530252427E2CFC9010895CF9319
:10075000DF93EC0180E1FB0111928A95E9F7FB013F
:1007600090E08C81981788F4292F30E0A881B98116
:10077000A20FB31F8C918083AA81BB81A20FB31FEC
:100780008C91818332969F5FECCFDF91CF9108955A
:1007900089E193E00E9482039093180380931703EA
:1007A0000895EAE3F2E083E5DF011D928A95E9F717
:1007B000E8E3F2E08FEF9FEF918380838BE4858FF6
:1007C000A4E5B2E08C9181608C9380E090E0A0E998
:1007D000B0E4868F978FA0A3B1A380E594E093A3A4
:1007E00082A38CE291E095A384A397A386A380E7DC
:1007F00085A78CE986A785E080AB80E090E0A0EC3F
:10080000BFE784AF95AFA6AFB7AF20E030E8309335
:1008100079022093780280AF91AFA2AFB3AF89E1A4
:10082000E4E5F2E0ADE1B3E001900D928A95E1F7E5
:10083000EEE3F3E080E4DF011D928A95E9F7089585
:100840002CE73CE740E052E40E94DA3020E030E060
:1008500040E05FE30E941C320E94FA32CB0177FF36
:1008600002C090E080E0811520E2920714F08FEF43
:100870009FE108952F923F924F925F926F927F92E5
:100880008F929F92AF92BF92CF92DF92EF92FF92A0
:100890000F931F93CF93DF93EB011A01FC01A0800C
:1008A000B1808A010F5F1F4FF501E00FF11F6081DA
:1008B00070E090E080E00E9479306B017C01F1E013
:1008C0002F1A3108F501E20DF31D608170E090E010
:1008D00080E00E9479304B015C01AC019B01C701B3
:1008E000B6010E9474308823E9F10990D881C02DA7
:1008F000FE01E00FF11F608170E090E080E00E9457
:1009000079302B013C01C20DD31D688170E090E06D
:1009100080E00E9479309B01AC01C301B2010E94CA
:100920001B322B013C01A5019401C701B6010E94B5
:100930001B329B01AC01C301B2010E948832DF91DE
:10094000CF911F910F91FF90EF90DF90CF90BF90CC
:10095000AF909F908F907F906F905F904F903F905F
:100960002F90089560E070E0CB01E9CF2F923F9285
:100970004F925F926F927F928F929F92AF92BF92AF
:10098000CF92DF92EF92FF920F931F93CF93DF935B
:10099000CDB7DEB7E0970FB6F894DEBF0FBECDBF80
:1009A0009AA389A37CA36BA35EA34DA368017901DD
:1009B000FC010190F081E02DF8ABEFA7608170E0C1
:1009C00090E080E00E9479306D877E878F87988BDA
:1009D000EBA1FCA120803180A70198010E94303357
:1009E00087FD28C0F101608170E090E080E00E9406
:1009F000793069837A838B839C8369817A818B8147
:100A00009C81E0960FB6F894DEBF0FBECDBFDF919C
:100A1000CF911F910F91FF90EF90DF90CF90BF90FB
:100A2000AF909F908F907F906F905F904F903F908E
:100A30002F9008958DA19EA101979A8B898BFC011F
:100A40008FA598A9E80FF91F608170E090E080E021
:100A50000E9479306B8B7C8B8D8B9E8B9B01AC01C4
:100A6000C701B8010E94303387FD05C0E989FA89C2
:100A70002E0E3F1EB7CF6FA478A8FFEF6F1A7F0A24
:100A800010E000E0C8010196988F8F8BF30161910F
:100A90003F0170E090E080E00E9479304B015C0102
:100AA000AC019B01C701B6010E94303387FF44C1EE
:100AB000EF89F88DE20DF31D608170E090E080E039
:100AC0000E94793069837A838B839C83A50194018A
:100AD000C701B6010E947430882309F48ECFEFA5B8
:100AE000F8A9E00FF11F608170E090E080E00E94C3
:100AF0007930698F7A8F8B8F9C8F9B01AC01C501F8
:100B0000B4010E941B326D8F7E8F8F8F98A3298D29
:100B10003A8D4B8D5C8DC701B6010E941B322D8D25
:100B20003E8D4F8D58A10E9488324B015C01AC0173
:100B30009B010E94DA302B013C01AC019B01C501F5
:100B4000B4010E94DA306B017C01AC019B010E9470
:100B50001C326D837E838F83988720E030E040E4F1
:100B600050E4C301B2010E94DA3069877A878B872B
:100B70009C879B01AC016D817E818F8198850E944D
:100B80001B3220E030E040E85FE30E941C326FA39C
:100B900078A789A79AA7A3019201C301B2010E9475
:100BA0001C329B01AC01C701B6010E941B32A5019A
:100BB00094010E941C326BA77CA78DA79EA72D8154
:100BC0003E814F81588569857A858B859C850E94F9
:100BD0001B326D837E838F839887A3019201C701A7
:100BE000B6010E941B3269877A878B879C87F10147
:100BF000E00FF11F608170E090E080E00E947930AA
:100C00002B013C010115110509F099C0F10160812A
:100C100070E090E080E00E9479306B017C01F1018E
:100C2000618170E090E080E00E947930A701960138
:100C30000E941B324B015C01EFA5F8A9618170E0B5
:100C400090E080E00E9479302D853E854F8558895F
:100C50000E941B329B01AC01C501B4010E94883285
:100C60004B015C01F101628170E090E080E00E9444
:100C70007930A70196010E941B326B017C01EFA520
:100C8000F8A9628170E090E080E00E9479302D85C3
:100C90003E854F8558890E941B329B01AC01C701DC
:100CA000B6010E9488326B017C01A30192016FA101
:100CB00078A589A59AA50E94DA302B013C012981EB
:100CC0003A814B815C816D817E818F8198850E9404
:100CD000DA309B01AC01C301B2010E941C322B012E
:100CE0003C012BA53CA54DA55EA56D8D7E8D8F8D00
:100CF00098A10E94DA30A50194010E94DA309B018C
:100D0000AC01C301B2010E941C324B015C01298578
:100D10003A854B855C856D8D7E8D8F8D98A10E9467
:100D2000DA30A70196010E94DA309B01AC01C501BF
:100D3000B4010E941C325DCE0F89188DA3CE8DA107
:100D40009EA102970817190709F04DC0E989FA8991
:100D5000E20DF31D608170E090E080E00E94793048
:100D60006B017C010DA11EA103501109F101E00FDF
:100D7000F11F608170E090E080E00E9479309B017B
:100D8000AC01C701B6010E941B324B015C018FA56B
:100D900098A9800F911FFC01608170E090E080E0D5
:100DA0000E9479309B01AC016B897C898D899E8979
:100DB0000E941B329B01AC01C501B4010E94883224
:100DC0004B015C01A3019201C701B6010E941B32D5
:100DD0006B017C01298D3A8D4B8D5C8D6B897C89F3
:100DE0008D899E8958CFA8016BA17CA189A19AA168
:100DF0000E943A044B015C014F89588D6BA17CA184
:100E000089A19AA10E943A044ECF8F929F92AF92ED
:100E1000BF92FF920F931F93CF93DF9300D000D028
:100E2000CDB7DEB725E06202800111240C561C4FBD
:100E3000F801F480FF20F1F1BC0190E080E00E9415
:100E400079302CE73CE740E052E40E9488324B01C5
:100E50005C0120E030E04FE753E40E94743087FDEE
:100E600006C0812C912C8FE7A82E83E4B82EF801C0
:100E7000828193819A838983808191819C838B83F2
:100E80004F2D50E095018401BE016F5F7F4FCE0171
:100E900003960E94B6040F900F900F900F90DF9171
:100EA000CF911F910F91FF90BF90AF909F908F9027
:100EB0000C9420040F900F900F900F90DF91CF9122
:100EC0001F910F91FF90BF90AF909F908F900895CA
:100ED0004F925F926F927F928F929F92AF92BF924A
:100EE000CF92DF92EF92FF920F931F93CF93DF93F6
:100EF0006A0128013901082F880F110BF801EE0F44
:100F0000FF1FED5FFC4F8FEF9FEF91838083C80140
:100F1000880F991FE0911503F0911603E80FF91F50
:100F200084859585892B21F4D801A251BD4F1C924F
:100F30004FEFC416D40609F057C08CE0809FD00153
:100F4000819FB00D1124A357BD4F50962D913C9118
:100F50005197232BC1F121E030E051963C932E9321
:100F6000509798012F5F3F4F829FD001839FB00D14
:100F70001124A357BD4F1D921D921D921C921397D1
:100F8000C485D585C13050E2D50714F0C0E0D0E269
:100F9000D7FF02C0D0E0C0E02CE0209FC001219F1D
:100FA000900D11248C0103571D4FBE010D2E000C16
:100FB000880B990B0E947B30F801608771878287CC
:100FC0009387D38BC28BDF91CF911F910F91FF90AD
:100FD000EF90DF90CF90BF90AF909F908F907F90D9
:100FE0006F905F904F9008956F3F760711F464857E
:100FF0007585EB016130704214F0C0E0D0E2D7FF9C
:1010000002C0D0E0C0E0B60181E0C81680E2D80698
:1010100014F060E070E277FF02C070E060E06C1BEB
:101020007D0B072E000C880B990B0E947B304B0127
:101030005C0120E030E0A9010E947430882319F29D
:1010400020E030E040E059E3C501B4010E94DA300D
:10105000A30192010E94DA302B013C0120E030E034
:10106000A9010E943033181624F077FA709477F8AB
:1010700070942091700230917102409172025091EF
:101080007302C301B2010E94DA309B01AC010E94DD
:101090001C320E9401338CE0782E709E9001719E6C
:1010A000300D1124F901E357FD4F7F01718B608BE7
:1010B0006115710509F487CF90E080E00E947930D6
:1010C0009B01AC01C501B4010E9488324B015C0157
:1010D0000F5F1F4F709EF001719EF00D1124E357BA
:1010E000FD4F80829182A282B382BE01DD0F880B08
:1010F000990B0E947B30F701608771878287938705
:10110000D38AC28A20E030E0A901C501B4010E945F
:101110007430811158CF81E090E0F701918B808B82
:1011200052CFBF92CF92DF92EF92FF920F931F9315
:10113000CF93DF93B82EC091F202D091F3020091C9
:10114000130310911403F801E084F184C284D38462
:10115000DE01AE19BF09AC19BD0946855785411599
:101160005105D1F59D01DB010E940E322DE09695CF
:101170008795779567952A95D1F79B012E0D3F1D91
:10118000CE018C199D0982179307E0F0F801808D3C
:10119000882399F0468957894115510571F0EB2D47
:1011A000BB0CFF0BE251FD4F60816E3F30F481506C
:1011B000990B681719060CF47A01C9012E153F0521
:1011C00008F4C701DF91CF911F910F91FF90EF902D
:1011D000DF90CF90BF90089524853585260F371F67
:1011E0000E94EB319A0150E040E00E94BE31C6CF30
:1011F0003F924F925F926F927F928F929F92AF92A7
:10120000BF92CF92DF92EF92FF920F931F93CF93F3
:10121000DF93CDB7DEB764970FB6F894DEBF0FBE8D
:10122000CDBF809154028071582EA0901303B090CE
:1012300014038090F2029090F302E0901503F09076
:1012400016032CE0E20EF11C712C612C00E010E082
:10125000CC24C394D12C362C462CF701819191914A
:101260007F01552019F0662D0E9405078115F0E2D7
:101270009F0708F45FC0C60101C0880F4A94EAF7CF
:10128000182B3FEF631A730A84E06816710419F78C
:1012900094E00902F0011124EE24E394F12CEC0E09
:1012A000FD1EEE0DFF1D108211821282138202308C
:1012B0000CF468C0015090E080E0402F50E020E046
:1012C000BA01681B790BE22F022E000CFF0BE61708
:1012D000F7070CF053C0EE0FFF1FEE0FFF1FA1E04A
:1012E000B0E0AC0FBD1FAE0FBF1F3496EE24E394E9
:1012F000F12CEC0EFD1EEE0DFF1D1296CD90DC9034
:101300001397E280F380EC14FD0490F4CD90DD900F
:10131000ED90FC90139780809180A280B3808D9295
:101320009D92AD92BC921397C082D182E282F382E9
:101330002F5FC9CF009709F4A4CF960101C0220FF7
:101340004A94EAF7122BBC01832D0E949108F50103
:10135000208121FF04C09401281B390BC90134E00E
:101360000302F001112421E030E02C0F3D1FE20FB9
:10137000F31F9383828360820F5F83CF0196801770
:101380000CF49DCFF8948091F902811739F01093F5
:10139000F9028091370280618093370284E1FE0177
:1013A0003196AAEDB2E001900D928A95E1F778941A
:1013B00064960FB6F894DEBF0FBECDBFDF91CF911C
:1013C0001F910F91FF90EF90DF90CF90BF90AF9063
:1013D0009F908F907F906F905F904F903F90089577
:1013E000082E000C990B9C01220F331FE09115036E
:1013F000F0911603E20FF31F24853585232B21F48A
:10140000DC01A251BD4F1C929B016130704214F06F
:1014100020E030E237FF02C030E020E0358724874B
:101420002CE0289FF001299FF00D1124E357FD4F78
:10143000118A108AFC01EE0FFF1FED5FFC4F208127
:1014400031812F3F3F4FE1F020911503309116037A
:101450000696880F991F820F931FDC018D919C9136
:10146000918380839FB7F894809137028062809344
:10147000370225E33CE030932E0220932D029FBFDC
:101480000C94F8081F93CF93DF938F3F69F4EB011F
:1014900010E0BE01812F0E94F0091F5F1430C9F7D0
:1014A000DF91CF911F910895DF91CF911F910C94FF
:1014B000F00990E0FC01E759FA4F2491FC01EB5A46
:1014C000FA4F3491FC01EF5BFA4FE491EE23B9F04F
:1014D000222339F02330F1F098F4213009F1223041
:1014E00019F1F0E0EE0FFF1FE95CFA4FA591B491FE
:1014F0008FB7F894EC9130953E233C938FBF0895BD
:101500002730A9F02830C9F0243059F780918000A5
:101510008F7D03C0809180008F7780938000E1CF22
:1015200084B58F7784BDDDCF84B58F7DFBCF80916F
:10153000B0008F778093B000D4CF8091B0008F7DC2
:10154000F9CFCF93DF9390E0FC01EB5AFA4F24914F
:101550008F5B9A4FFC0184918823D1F090E0880F33
:10156000991FFC01E35DFA4FA591B491FC01E95C80
:10157000FA4FC591D49161110EC09FB7F8948C9128
:10158000E22FE0958E238C932881E223E8839FBF8E
:10159000DF91CF9108958FB7F894EC91E22BEC9303
:1015A0008FBFF6CF3FB7F894809184019091850169
:1015B000A0918601B091870126B5A89B05C02F3F59
:1015C00019F00196A11DB11D3FBFBA2FA92F982F69
:1015D0008827BC01CD01620F711D811D911D43E063
:1015E000660F771F881F991F4A95D1F708958F922C
:1015F0009F92AF92BF92CF92DF92EF92FF924B01F8
:101600005C010E94D20A6B017C010E94D20A6C1913
:101610007D098E099F09683E734081059105A8F3F5
:1016200021E0821A9108A108B10888EEC80E83E073
:10163000D81EE11CF11C81149104A104B10429F706
:10164000FF90EF90DF90CF90BF90AF909F908F90E2
:1016500008952FB7F8946091800170918101809175
:101660008201909183012FBF08958F929F92AF9234
:10167000BF92CF92DF92EF92FF920E94290B6B01F3
:101680007C018091370280FD2FC080908003909074
:101690008103A0908203B09083039FB7F894809158
:1016A00037028160809337029FBF0E94290BC818C0
:1016B000D908EA08FB0829E8C21623E1D206E104AA
:1016C000F104DCF438E8C32E33E1D32EE12CF12C05
:1016D000C60ED71EE81EF91EC0928003D092810369
:1016E000E0928203F0928303FF90EF90DF90CF901F
:1016F000BF90AF909F908F90089524EFC22EDD246D
:10170000D394E12CF12CE4CF0895AF92BF92CF9205
:10171000DF92EF92FF920F931F93CF93DF936C01B1
:101720007B018B01040F151FEB015E01AE18BF0892
:10173000C017D10759F06991D601ED91FC91019044
:10174000F081E02DC6010995892B79F7C501DF915C
:10175000CF911F910F91FF90EF90DF90CF90BF90AE
:10176000AF900895FC01538D448D252F30E0842FD8
:1017700090E0821B930B541710F0CF9608950197B9
:101780000895FC01918D828D981761F0A28DAE0FA6
:10179000BF2FB11D5D968C91928D9F5F9F73928F2D
:1017A00090E008958FEF9FEF0895FC01918D828D59
:1017B000981731F0828DE80FF11D858D90E0089526
:1017C0008FEF9FEF0895FC01918D228D892F90E07E
:1017D000805C9F4F821B91098F739927089580E940
:1017E00091E00E94E30B21E0892B09F420E0822F95
:1017F0000895FC01A48DA80FB92FB11DA35ABF4FA6
:101800002C91848D90E001968F739927848FA689FF
:10181000B7892C93A089B1898C91837080648C9353
:10182000938D848D981306C00288F389E02D808102
:101830008F7D80830895EF92FF920F931F93CF9334
:10184000DF93EC0181E0888F9B8D8C8D98131AC0FB
:10185000E889F989808185FF15C09FB7F894EE89E2
:10186000FF896083E889F98980818370806480833F
:101870009FBF81E090E0DF91CF911F910F91FF908A
:10188000EF900895F62E0B8D10E00F5F1F4F0F7332
:101890001127E02E8C8D8E110CC00FB607FCFACFED
:1018A000E889F989808185FFF5CFCE010E94F90B87
:1018B000F1CFEB8DEC0FFD2FF11DE35AFF4FF082BE
:1018C0009FB7F8940B8FEA89FB8980818062CFCF24
:1018D0000F931F93CF93DF938C01D0E0C0E0F8010A
:1018E000EC0FFD1F6491662341F080E991E00E94B6
:1018F0001B0C892B11F02196F2CFCE01DF91CF91F5
:101900001F910F910895682F80E991E00C941B0CB2
:10191000CF93DF93EC01888D8823B9F0AA89BB8926
:10192000E889F9898C9185FD03C0808186FD0DC011
:101930000FB607FCF7CF8C9185FFF2CF808185FF32
:10194000EDCFCE010E94F90BE9CFDF91CF91089541
:10195000DC01ED91FC910190F081E02D6A3010F4F2
:10196000605D0994695AFDCFDC01ED91FC91019015
:10197000F081E02D6AE00994DC015E968D919C91E6
:101980005F975C962D913C915D978217930740F489
:101990005A96ED91FC91E80FF91F808190E008952F
:1019A0008FEF9FEF0895FC01848D958D268D378DE7
:1019B000821B930B0895EF92FF920F931F93CF9387
:1019C0008C01C62F70E084E0759567958A95E1F7E4
:1019D000F80184A995A90E94A80C7C016C2F6F7056
:1019E000F80184A995A90E94A80C8E0D9F1DCF9186
:1019F0001F910F91FF90EF900895FC012481358194
:101A0000828193812817390768F480819181A90127
:101A10004F5F5F4F55834483FC01E20FF31F8081CA
:101A200090E008958FEF9FEF08954A960C94FD0C77
:101A3000089590E080E00895409164022EEE3CE726
:101A40004203B001439F700D1124072E000C880B38
:101A5000990B60577E4F834B9B4F209186033091AB
:101A6000870350E040E00E94BE3130937B02209318
:101A70007A02C9010895209188033091890386E094
:101A8000369527958A95E1F7E8E3F2E085A5820F80
:101A9000932F911D85579F4F9695982F882797953F
:101AA000879566A570E00E94FA31CB0149960895AA
:101AB0002F923F924F925F926F927F928F929F925E
:101AC000AF92BF92CF92DF92EF92FF920F931F934C
:101AD000CF93DF9300D000D000D0CDB7DEB7809198
:101AE0008400909185009A838983809176019091FA
:101AF00077019C838B837894009178011091790110
:101B00008B819C81C980DA80D8011696ED91FC9179
:101B100017979F012F5F3F4FF7FF1DC017963C930C
:101B20002E93169726960FB6F894DEBF0FBECDBF44
:101B3000DF91CF911F910F91FF90EF90DF90CF90A9
:101B4000BF90AF909F908F907F906F905F904F90DD
:101B50003F902F90089517963C932E931697BF01B0
:101B6000660F771FE60FF71FE00FF11FA0E0A82F09
:101B700099278827E12C8C299D29AE298087918778
:101B8000A2872436310571F6F894E99884E89BE041
:101B90009093030180930201789480E090E0A0ECA0
:101BA000BFE7F80180839183A283B3838681978105
:101BB0009E838D830B970CF4B1C0780198E0E90EF9
:101BC000F11CF70150E040E020E0812C912C540101
:101BD0006D807E80A1E06A1A710846155705FCF4F5
:101BE0004F5F5F4F21903190419080819181A28120
:101BF00082199309A4091C014A2EB4E02B1ABCEFE8
:101C00003B0A410832E8231639E43306410428F739
:101C1000B0E0880E991EAA1EBB1E2F5FDECF2B30B0
:101C200008F47CC030E050E040E0C501B4010E94FF
:101C3000BE3149015A01842FB90190E00E947930E8
:101C40002FE832EC45EF5BE30E94DA300E9401336B
:101C5000CB01A0E04A2D9401281B390B4A0B34011B
:101C60008A2C680E791E8A1E61E070E0912C212C6E
:101C7000312C2101D701AD90BD90CD907D018D918A
:101C80009D91AC918A199B09AC0982179307A4070F
:101C900050F0681679068A0630F0B0E0280E391E3A
:101CA0004A1E5B1E93946F5F7F4F8D819E818617C6
:101CB000970701F7BAE0B91588F5C201B1010E9492
:101CC00079306B017C01692D70E090E080E00E942A
:101CD00079309B01AC01C701B6010E94883220E037
:101CE00030E040E652E40E941B3220E030E040E069
:101CF0005EE30E94DA309B01AC0160E074E284E7AD
:101D000099E40E94883220E030E040E05FE30E94E6
:101D1000DA30F80160837183828393838FEF9FEFC2
:101D2000DC0180937A0190937B01A0937C01B093B6
:101D30007D01F8CE86EF92E00C94680CFC01862FB2
:101D400020813181A90141505109518340831216EC
:101D5000130624F482EC93E00E94FD0C0895209178
:101D60004202420F4093420202970CF064ED6093EE
:101D70008C020895FF920F931F93CF93DF931F92CE
:101D8000CDB7DEB7198210923702F894E99884E84B
:101D90009BE0909303018093020180916F00887D06
:101DA00080936F00109281000FE011E0F801F19034
:101DB0008F018F2D0E94590A60E08F2D0E94A10A89
:101DC000F1E003311F0791F7809170008E7F8093BF
:101DD00070001092B10078940F90DF91CF911F9115
:101DE0000F91FF900895662371F0823041F08330A7
:101DF00041F0813011F05E9A0895289A0895299A49
:101E000008952A9A0895823041F0833041F081305C
:101E100011F05E98089528980895299808952A98B1
:101E20000895AF92BF92DF92EF92FF920F931F93AC
:101E3000CF93DF935C0107E113E0D0E0C0E0F8014D
:101E4000D1908F017501EC0EFD1EC7010E949831E3
:101E5000D81621F06D2DC7010E94A0312196C736FA
:101E6000D10569F787E193E0DF91CF911F910F9141
:101E7000FF90EF90DF90BF90AF900895CF92DF92E8
:101E8000EF92FF920F931F93CF93DF93EB017B01B0
:101E900027E6E20EF11C8B016C01C61AD70AC601B7
:101EA000800F911F0E949831F80181938F01EE15E8
:101EB000FF05A9F7CE01DF91CF911F910F91FF9000
:101EC000EF90DF90CF9008956F927F928F929F92C4
:101ED000AF92BF92CF92DF92EF92FF920F931F9338
:101EE000CF93DF93CDB7DEB7C054D1090FB6F894C6
:101EF000DEBF0FBECDBF6C015B014A019A01AB0191
:101F000060E470E0CE0101963C01F60109957C0188
:101F10008F3391057CF102960E94BF338C010097AC
:101F200059F19401A501B701F60109957C01A701BA
:101F3000B80180E991E00E94850B6016710619F0E6
:101F4000C8010E945B34C701C05CDF4F0FB6F89434
:101F5000DEBF0FBECDBFDF91CF911F910F91FF90DC
:101F6000EF90DF90CF90BF90AF909F908F907F9039
:101F70006F9008958301DBCFE12CF12CE4CFF8942E
:101F8000E99884E89BE09093030180930201EFE6D7
:101F9000F0E08081887D8083109281007894109297
:101FA0007E0180917801909179010C945B34CF93FC
:101FB000DF93EC0188819981009731F00E945B34B6
:101FC000198218821B821A821C82DF91CF91089598
:101FD000AF92BF92CF92DF92FF920F931F93CF9356
:101FE000DF938C01EB01FB0132968881FF24F3948F
:101FF0009081891730F43296F394892F28E0F212F9
:10200000F7CFC8010E94D70F81E0F816D9F0F80188
:10201000F482AF2CB12C6501CC0CDD1CC6010E94F2
:10202000BF33F1E0CF1AD108FC01119221E0C21AAE
:10203000D108D7FEFACFF801918380838A0D9B1DCA
:1020400093838283F80180819181892BB1F090E0A4
:1020500080E0F8012481821760F429813881A08111
:10206000B181A80FB91F3C93A281B381A80FB91FFA
:102070002C93229601968F1560F3DF91CF911F91DB
:102080000F91FF90DF90CF90BF90AF900895CF93C6
:10209000DF93CDB7DEB7AE01475F5F4F6F817885C5
:1020A00087EE9FE20E94640FDF91CF910895CF9356
:1020B000DF93CDB7DEB7AE01475F5F4F6F817885A5
:1020C00086ED95E30E94640FDF91CF910895CF9341
:1020D000DF932B9A10928500109284001092890051
:1020E000109288008091F2029091F30290938B00FD
:1020F00080938A0086B3866086BBE0911303F091DB
:10210000140380818695817091E089278093FA027B
:102110001092C5028091FB029091FC02019690936F
:10212000FC028093FB02843C29E0920710F120918D
:102130006F00297F20936F005BB15F7B45B1487FC3
:1021400035B1387F25B1287F5BB945B935B925B997
:102150002091FD0221602093FD0290930203809361
:10216000010380913702806480933702DF91CF9121
:1021700008952091C8023091C90280916F00897F33
:102180002115310509F44DC0826080936F003093B2
:10219000890020938800C0E084E0C802F001112487
:1021A000E357FD4F83AD94AD892B39F06091FA026E
:1021B00081AD0E94F30ECF5FEFCFD0E0C0E0E091A1
:1021C0001503F0911603CE010696880F991FE80FAC
:1021D000F91F80819181892B21F460E08C2F0E946E
:1021E000F30E2196C430D10551F78091FA0291E0A7
:1021F00089278093FA0290E024E09202F0011124F2
:10220000E357FD4F23AD34AD232B41F1E1ADF0E0B9
:10221000E251FD4F80818E3F10F48F5F80839F5F7E
:10222000EBCF846080936F00D0E0C0E0E0911503B5
:10223000F0911603CE010696880F991FE80FF91F3B
:1022400061E0808191818115904209F060E08C2FDE
:102250000E94F30E2196C430D10541F78091FD0212
:10226000837041F48091FB029091FC0290930203F1
:10227000809301032B987ACFCF93DF93EC01888171
:102280009981009721F00E945B34198218821F8285
:102290001E821B821A821D821C82DF91CF910895BB
:1022A000FB0101900020E9F73197AF01461B570B66
:1022B000DC01ED91FC910280F381E02D099469E34A
:1022C00071E080E991E00C945011CF93DF930E946C
:1022D000680CEC010E945F118C0F9D1FDF91CF9164
:1022E00008957F928F929F92AF92BF92CF92DF928A
:1022F000EF92FF920F931F93CF93DF9300D000D004
:1023000000D0CDB7DEB78FEF9FEF9A8389831B8212
:102310001C821D821E8287E6E82EF12C670187E66B
:10232000C80ED11C96E0C91694E0D906D9F0DE019A
:1023300011965D0110E000E0F50171905F01470129
:10234000800E911EC4010E949831781621F0672DED
:10235000C4010E94A0310F5F1F4F0630110561F7C5
:102360007601DCCF10927F0310927E03E7E1F3E069
:1023700087E6DF011D928A95E9F781E090E0A0E011
:10238000B0E08093190390931A03A0931B03B093BA
:102390001C030E94D1030E94C80390E080E00E94C9
:1023A000110F9FB7F894809137028E7F8093370288
:1023B000809137028D7F809337029FBF82EE95E038
:1023C00026960FB6F894DEBF0FBECDBFDF91CF913A
:1023D0001F910F91FF90EF90DF90CF90BF90AF9043
:1023E0009F908F907F900C9465118F929F92AF92E7
:1023F000BF920F931F93CF93DF93CDB7DEB7A19713
:102400000FB6F894DEBF0FBECDBF19A2423008F45C
:102410004AE08E010F5D1F4F842E912CB12CA12C10
:10242000A50194010E94BE31E62FB901CA01EA302C
:1024300004F5E05DD801EE938D01232B242B252B91
:1024400079F790E080E0109729F0BD0180E991E0F4
:102450000E945011A1960FB6F894DEBF0FBECDBFFB
:10246000DF91CF911F910F91BF90AF909F908F9070
:102470000895E95CDFCFCF92DF92EF92FF92CF9386
:10248000DF936C01990FEE08FF08F7FE17C08DE28D
:102490000E94830CEC0166277727CB016C197D091C
:1024A0008E099F094AE00E94F5118C0F9D1FDF9154
:1024B000CF91FF90EF90DF90CF9008954AE0C70151
:1024C000B601DF91CF91FF90EF90DF90CF900C9409
:1024D000F5114F925F926F927F928F929F92AF927F
:1024E000BF92CF92DF92EF92FF920F931F93CF9301
:1024F000DF9300D000D0CDB7DEB7182F962E812FF6
:10250000012E000C990B9F931F9386E995E09F93F2
:102510008F9380E991E09F938F930E94471025E06D
:102520001202C0011124DC01AC56BC4F7D0114968F
:10253000CC900F900F900F900F900F900F90CC2099
:1025400009F4ADC082E995E00E94680CB12CA12C81
:10255000AC14A8F4AA2019F08CE20E94830CD701D5
:10256000ED91FC91EA0DFB1D608170E090E080E050
:102570004AE00E94F511BFEFAB1ABB0AE9CF8CE825
:1025800095E00E94680CB12CA12CAC1498F4AA2000
:1025900019F08CE20E94830CD7011296ED91FC9108
:1025A000EA0DFB1D808190E00E943B12BFEFAB1A49
:1025B000BB0AEBCF86E895E00E94680C692D70E0BD
:1025C00090E080E00E947B3020E030E040E85FE374
:1025D0000E941C329B01AC0160E078EF8FEF95E424
:1025E0000E9488329B01AC0160E070E08FE793E4C9
:1025F0000E9488322B013C01812C912C5401D12C5A
:10260000F701828193819A838983808191819C8360
:102610008B8395018401A601BE016F5F7F4FCE01C0
:1026200003960E94B6040E9420040E943B12A3015C
:102630009201C501B4010E941C324B015C0126E6E7
:1026400036E64FE753E40E94743087FD1AC08DE5EB
:102650000E94830C0E945F110F900F900F900F90BB
:10266000DF91CF911F910F91FF90EF90DF90CF906E
:10267000BF90AF909F908F907F906F905F904F90A2
:10268000089520E030E0A901C501B4010E94743032
:10269000882309F4B5CF8CE20E94830CB1CF8DE77B
:1026A00095E00E946511D8CF0F931F93CF93DF93CE
:1026B000EC01088519850617170708F48B01095FD7
:1026C0001F4F087F8E819F818017910721F188819C
:1026D00099810115110549F1009719F1B8010E947E
:1026E000E4349983888388819981892B11F410E0DF
:1026F00000E01F830E838A819B810817190710F45D
:102700001B830A838A819B812C813D8182179307D9
:1027100010F49D838C8381E0DF91CF911F910F9105
:102720000895C8010E94BF33DCCF009701F30E94D7
:102730005B3419821882DDCF1F93CF93DF93EC01B6
:102740008A819B819C012F5F3F4F4E815F8184175F
:10275000950750F4E881F9813B832A83E80FF91F3C
:10276000608381E090E00CC0162FB901CE010E9479
:102770005413811109C0CE010E943C1190E080E009
:10278000DF91CF911F910895E881F9818A819B8122
:102790009C012F5F3F4F3B832A83E80FF91F108373
:1027A000E0CFCF93DF93EC018A89882381F08C8D71
:1027B0009D8D8F3F910530F081E08E871D86DF91E2
:1027C000CF910895CE014A960E949C13F7CF8C8535
:1027D0008617170689F781E08A8BF0CFFC01978571
:1027E0009D7F913021F4CF0184960C949C1390E04E
:1027F00080E00895FC0115821482138212826085A4
:102800007185695F7F4F687F0C9454138F929F92FC
:10281000AF92BF92DF92EF92FF920F931F93CF93ED
:10282000DF93EC01D62EECA0FDA008A519A5AEA063
:10283000BFA08CA99DA9DC01ED91FC910680F781D8
:10284000E02D0995B2E5DB1631F0E4E5DE1619F06E
:10285000F1E4DF121DC08CA89DA8DF928AED95E0FF
:102860009F938F931F9288E08F9388E891E09F93C6
:102870008F930E94B72F68E871E0C4010E94501145
:102880008DB79EB707960FB6F8949EBF0FBE8DBF4B
:102890000E0D1F1DEA0CFB1C0E151F0539F0D8018B
:1028A0006D918D01CE010E94DB0CF6CF8CA99DA904
:1028B0000E94B40C8CA99DA9DC01ED91FC910680CD
:1028C000F781E02D0995CE0184960E94FA131F86A8
:1028D00080E0DF91CF911F910F91FF90EF90DF90FB
:1028E000BF90AF909F908F900895CF938091D00329
:1028F0009091D1032091CE033091CF03821793079B
:10290000D0F4E091CC03F091CD03E80FF91F808162
:1029100090E02091B703213089F487FD19C0209100
:10292000B403C7E02817190651F064E588EA93E07C
:10293000CF910C9406148FEF9FEFEBCFC8E08CEC97
:1029400093E00E94FA131092B7038C2FCF91089551
:10295000C6E0F5CF1F93CF93DF93162F21E0FC0144
:102960002787EC01A496CE010E94FA13612FCE01B5
:10297000DF91CF911F910C949C130F931F93CF93D2
:10298000DF938C01CB01F80124813581C281D38191
:10299000C21BD30B4C175D0708F4EA01F8016081F4
:1029A0007181620F731F0E94BA35F801848195818D
:1029B0008C0F9D1F95838483CE01DF91CF911F9152
:1029C0000F910895EF92FF920F931F93CF93DF9390
:1029D000EC018B017A018F858D7F813051F0F12CD4
:1029E000E12CC701DF91CF911F910F91FF90EF90E4
:1029F00008956EA17FA1640F751F8AA59BA5681716
:102A0000790788F42CA13DA18EA19FA1A701B8014F
:102A1000820F931F0E94BA358EA19FA18E0D9F1D1C
:102A20009FA38EA3DECF6F5F7F4FCE0184960E945F
:102A300054138111E7CFD3CFCF92DF92EF92FF9261
:102A40000F931F93CF93DF93CDB7DEB7CF56D10946
:102A50000FB6F894DEBF0FBECDBFF82E8E01085919
:102A60001F4F88E0D8011D928A95E9F780913702BF
:102A700081FF25C0F80187818160878389E1E4E5D2
:102A8000F2E0ADE1B3E001900D928A95E1F76EE3DB
:102A900073E084E993E00E94A7036EE473E089E9A0
:102AA00093E00E94A7036EE573E08EE993E00E9435
:102AB000A7036EE673E083EA93E00E94A70388E031
:102AC000E4E4F2E0A6E3B3E001900D928A95E1F729
:102AD0000E94C803BE016F5F7F4F80917E0390917B
:102AE0007F030E943E0FF1100BC047E650E0BE018D
:102AF0006F5F7F4F87E193E00E94AD35892BD9F05E
:102B000080917E0390917F039C0122533F4F2115BA
:102B1000344008F0B4C089599F4F90937F0380934D
:102B20007E0380917E0390917F030E94110F87E6C0
:102B3000F801868303C0D80116961C920E94290BC7
:102B40006093800370938103809382039093830347
:102B50009FB7F894809137028E7F809337028091DF
:102B600037028D7F809337029FBF80911903909128
:102B70001A03A0911B03B0911C03F8018083918379
:102B8000A283B38380917E0390917F039583848396
:102B900068E188EA93E00E94AA1463EF88EA93E070
:102BA0000E94EE1348E050E0B80188EA93E00E94EA
:102BB000E2140E947514E0917E03F0917F03D80126
:102BC00017968C91179781701F928F93809118039D
:102BD0008F93809117038F9317968C9117971F925D
:102BE0008F9316968C911F928F9320911903309199
:102BF0001A0340911B0350911C03A9E0B0E00E940E
:102C0000E0316B017C01B9E0CB1AD108E108F10891
:102C1000CF0167E670E00E94FA31C60ED71EE11CB4
:102C2000F11CFF92EF92DF92CF92FF93EF93F801A6
:102C300083818F9382818F9381818F9380818F9302
:102C400081EA95E09F938F9380E991E09F938F9322
:102C50000E9447100FB6F894DEBF0FBECDBFC1591A
:102C6000DF4F0FB6F894DEBF0FBECDBFDF91CF911F
:102C70001F910F91FF90EF90DF90CF9008951092E9
:102C80007F0310927E038091190390911A03A09103
:102C90001B03B0911C030196A11DB11D8093190364
:102CA00090931A03A0931B03B0931C030E94C803C4
:102CB00038CF60918C026058770B685C7D4F8091B3
:102CC000420287FD12C04DE852E0461B570B4535C6
:102CD00060F484170CF4482F10924202042E000C6A
:102CE000550B88EA93E00C94E21440E0F5CF462FB0
:102CF00050E0BC0188EA93E00E94E2140C94751441
:102D00008F929F92AF92BF92CF92DF92EF92FF92FB
:102D10000F931F93CF93DF938091B2001092B20074
:102D200087B3B89A80FF09C08091740190917501B2
:102D30000196909375018093740180917401909134
:102D40007501109275011092740120915A02309110
:102D50005B022115310509F404C190916F00946064
:102D600090936F00C0908A00D0908B008091840077
:102D700090918500C81AD90AE12C80918400909125
:102D80008500820F931F90938B0080938A00B29AE4
:102D900080915A0290915B02C81AD90AE108809189
:102DA000FD0281FD39C080FD06C080910103909134
:102DB0000203029788F12091FD0222606E2DA60188
:102DC000062E000C770BDB01CA01342F3295307FC1
:102DD0002F70232B2093FD02392F3295307F242F23
:102DE00022952F70232B2093FE02362F3295307FB1
:102DF000292F22952F70232B2093FF022B2F229512
:102E0000207F862F82958F70822B80930003809184
:102E100037028064809337021092FC021092FB020A
:102E200084E1EAEDF2E0A6ECB2E001900D928A9521
:102E3000E1F77894C091F802CE3F08F0A7C0C33004
:102E4000F0F04E2D9601042E000C550BCA01B9016D
:102E50000E947B302091F4023091F5024091F602FD
:102E60005091F7020E941C32CD3F09F488C0609354
:102E7000F4027093F5028093F6029093F702CF5F0D
:102E8000C093F8020DE812E0D12CC12CB5E3EB2E73
:102E9000BCE0FB2ED8015096CD91DC915197209744
:102EA00009F447C01C962D913D914D915C911F975F
:102EB00018966D917D918D919C911B970E941C326B
:102EC000F80160877187828793872197D18BC08BA8
:102ED0002091150330911603F6013696CD2B09F09B
:102EE00083C0D80152964D915C91CF01880F991FF4
:102EF000E901C80FD91F59834883209115033091E8
:102F00001603820F931FFC0180819181F601EE0F61
:102F1000FF1FED5FFC4F918380839FB7F8948091F2
:102F20003702806280933702F0922E02E0922D02E7
:102F30009FBFFFEFCF1ADF0A045F1F4F24E0C216C6
:102F4000D10409F0A7CFDF91CF911F910F91FF908E
:102F5000EF90DF90CF90BF90AF909F908F900C94A8
:102F6000F808C0908A00D0908B00809184009091E6
:102F70008500C81AD90AE12C0E94671009CF20E009
:102F800030E04AE753E40E94883271CF20E030E01D
:102F900048EC52E46091F4027091F5028091F602DF
:102FA0009091F7020E94DA304B015C014E2D9601A0
:102FB000042E000C550BCA01B9010E947B309B0105
:102FC000AC01C501B4010E941C3220E030E04AECA3
:102FD00052E40E9488326093F4027093F502809369
:102FE000F6029093F7024ECFAF01440F551FE9014F
:102FF000C40FD51F0E94FA32798368839ACFBF929B
:10300000CF92DF92EF92FF920F931F93CF93DF93B4
:10301000EC01162F8E856A3009F0A3C0823030F0A3
:103020008D85833008F46DC081E08E878E85823077
:1030300008F453C08A89882309F44FC08C8D9D8D74
:10304000009711F421E02E872E85223009F47EC0EE
:10305000233009F042C0CE014A960E94FA138F85B0
:10306000882309F462C01C858CA99DA9DC01ED911F
:10307000FC910680F781E02D0995ECA8FDA881E47C
:103080008F938AED95E09F938F931F9288E08F93A3
:1030900088E891E09F938F930E94B72F68E871E0D2
:1030A000C7010E945011612FCE010E94DB0C8CA938
:1030B0009DA90E94B40C8CA99DA9DC01ED91FC9105
:1030C0000680F781E02D09952DB73EB7295F3F4F68
:1030D0000FB6F8943EBF0FBE2DBF1E861D868A898F
:1030E000882329F0CE014A960E94FA131A8ADF91AA
:1030F000CF911F910F91FF90EF90DF90CF90BF90F5
:103100000895813009F490CF823009F08FCF1D8A65
:1031100040E150E070E060E0CE0143960E94A52DB2
:1031200070E0CE010E94D11381CF6C85CE010E9448
:10313000AA14E8A9F9A9309721F0188A099581E025
:10314000888B61E4CE010E940614C7CF188A2E8DA9
:103150003F8DEEA5FFA5821B930B099581E0888B1F
:10316000BCCF813021F26D3011F2811179C0ED8533
:10317000E1116DC06B3209F06DC081E08E0F8D875B
:10318000EC0FFD2FF11D138BFE01E80FF11D138ACB
:103190008B898B3209F0ABCF6E0133E1C30ED11CAA
:1031A00082E58F938AEDE82E85E0F82EFF92EF926C
:1031B0001F9298E0B92EBF9208E811E01F930F9379
:1031C0000E94B72FB801C6010E94C335ADB7BEB784
:1031D00017960FB6F894BEBF0FBEADBF892BF1F1A5
:1031E00081E48F93FF92EF921F92BF921F930F93F0
:1031F0000E94B72FB801C6010E94C3352DB73EB754
:10320000295F3F4F0FB6F8943EBF0FBE2DBF892BED
:1032100009F46DCF84E58F93FF92EF921F92BF92D6
:103220001F930F930E94B72FB801C6010E94C335A8
:10323000ADB7BEB717960FB6F894BEBF0FBEADBF01
:10324000892B09F054CF82E08E871D8650CFE6305F
:1032500008F493CF1D8681E08E8749CF83E0F4CFB9
:10326000E62EF12CC7010E94A135892B19F1ED85BD
:1032700081E08E0F8D87EC0FFD2FF11D138B8330B6
:1032800050F7823009F033CF1D8A40E150E070E002
:1032900060E0CE0143960E94A52D70E0CE01DF9143
:1032A000CF911F910F91FF90EF90DF90CF90BF9043
:1032B0000C94D1131C3209F41ACFC7010E94682F55
:1032C000892B49F214CFCF93DF93C091DC03D091C7
:1032D000DD03E881F9810084F185E02DCE010995B7
:1032E000892B69F0E881F9810284F385E02DCE0114
:1032F0000995682F88EA93E00E94FF17EACFDF91D3
:10330000CF9108950E94EF0B81110C9463190895D9
:10331000CF92DF92EF92FF926091840370918503C8
:1033200090E080E00E9479309B01AC0160E070EC9D
:103330008FE797E40E94883220E030E040E85FE3C6
:103340000E941B320E943D3320E030EE46E755E4F8
:103350000E9488322FE03FEC4BE55BE30E941C3279
:103360009B01AC0160E070E080E89FE30E9488323E
:1033700023E333E948E853E40E941B326B017C01EC
:10338000609167026F3FB1F0062E000C770B880B3F
:10339000990B0E947B3020E030E040E85EE30E9421
:1033A000DA30A70196010E941C32FF90EF90DF9067
:1033B000CF90089560E070E080EC9FE7F2CF0F932C
:1033C0001F93CF93DF930E949A0E8EE894E00E94A1
:1033D000651180E991E00E94880C0E949A0E81E2BA
:1033E00030E020E0F90180935700649142E050E022
:1033F000FA01809357007491E4E0F0E08093570065
:10340000849199E0F901909357002491E3E0F0E072
:10341000909357003491FA019093570094911F9222
:103420009F931F923F931F922F931F928F931F92F0
:103430007F931F926F9380E694E09F938F93C0E9F0
:10344000D1E0DF93CF930E9447108AE594E00E9479
:10345000680C8CEF92E00E94680C8AE494E00E9471
:103460006511CE010E94880C0E949A0E20911903CA
:1034700030911A0340911B0350911C03A9E0B0E066
:103480000E94E0318B019C01095011092109310989
:1034900080917E0390917F0367E670E00E94FA318D
:1034A000060F171F211D311D3F932F931F930F935D
:1034B00086E394E09F938F93DF93CF930E9447100E
:1034C0001F921F928DE294E09F938F93DF93CF938F
:1034D0000E94471083E294E00E94680C8EE194E021
:1034E0000E94680C8DE094E00E94680C81E094E0FA
:1034F0000E94680C80915402EDB7FEB77E960FB61D
:10350000F894FEBF0FBEEDBF81FD56C184E51F924A
:103510008F931F9287E18F938EEE93E09F938F930B
:10352000C0E9D1E0DF93CF930E9447108FE38F93E0
:1035300080E88F931F921F921F9288E08F938FECE9
:1035400093E09F938F93DF93CF930E9447108DB7A3
:103550009EB742960FB6F8949EBF0FBE8DBFCFE0C8
:10356000D1E0699170E090E080E04AE00E94F511BE
:103570008CE20E94830C91E0C331D90791F78091CE
:103580005402829581701F928F9385EC93E09F93F4
:103590008F9380E991E09F938F930E944710209131
:1035A0006202309163020F900F900F900F900F9076
:1035B0000F902115310509F401C1809160029091AD
:1035C0006102281B390B50E040E060E070E080E0D1
:1035D00094E00E94BE313F932F93809161028F93BC
:1035E000809160028F9388EB93E09F938F93C0E963
:1035F000D1E0DF93CF930E944710CE010E94880C48
:103600000E949A0E80916402082E000C990B982F4C
:1036100088279295907F092E000CAA0BBB0B835331
:103620009343A347B04CBF93AF939F938F938091E5
:1036300073028F93809172028F93809171028F93A6
:10364000809170028F938091540281701F928F93AA
:1036500080E993E09F938F93DF93CF930E9447106D
:10366000609167024DB75EB74A5E5F4F0FB6F89440
:103670005EBF0FBE4DBF6F3F09F4A3C0062E000C06
:10368000770B880B990B0E947B3020E030E040E8FC
:103690005EE30E94DA30EB01182F092F0E9488198F
:1036A0000F931F93DF93CF939F938F937F936F938A
:1036B00080E893E09F938F93C0E9D1E0DF93CF93AD
:1036C0000E9447100E943B0D209166021F922F938B
:1036D000209165021F922F939F938F9384E693E02E
:1036E0009F938F93DF93CF930E944710809168023E
:1036F0001F928F93809155021F928F938DE493E0D8
:103700009F938F93DF93CF930E94471087E493E0BA
:103710000E94680C0E941C0D9C01215031094DB77C
:103720005EB7425E5F4F0FB6F8945EBF0FBE4DBFEF
:103730002E3F3F4F08F44AC08DE20E94830C8091D7
:103740005B028F9380915A028F9380915F028F93D7
:1037500080915E028F9380915D028F9380915C02D5
:103760008F938AE193E09F938F93C0E9D1E0DF9339
:10377000CF930E94471080916C021F928F9380918B
:103780006B028F9380916A028F9388E093E09F93FE
:103790008F93DF93CF930E9447108DB79EB74296C9
:1037A0000FB6F8949EBF0FBE8DBFCE01DF91CF91B3
:1037B0001F910F910C94880C8CE4A9CE20E030E28C
:1037C0000ACFC0E0D0E010EC0FE768CFBC0190E07A
:1037D00080E00E94793020E030E04AE754E40E9423
:1037E00088329F938F937F936F9382E493E09F93AC
:1037F0008F93DF93CF930E944710EDB7FEB73896B3
:103800000FB6F894FEBF0FBEEDBF99CF2F923F9237
:103810004F925F926F927F928F929F92AF92BF92E0
:10382000CF92DF92EF92FF920F931F93CF93DF938C
:10383000CDB7DEB7A1970FB6F894DEBF0FBECDBFF0
:103840009A8F898F84ED80938C021092430210929C
:10385000420200E9802E01E0902E898D9A8D9C0114
:10386000215031093A8F298F181619060CF038C5E6
:1038700010918C0282EC93E00E94FD0CE0918C028E
:10388000E058E53508F0E4E5F0E0E85CFD4F8083C2
:1038900080918C0291E0980F90938C02143D11F569
:1038A00080938C02298D3A8D232BB9F6893BA9F69A
:1038B00080914202823089F682E498E090937D0202
:1038C00080937C0285E0EAE0F1E0AEE7B2E00190AF
:1038D0000D928A95E1F787E08093420284EC809311
:1038E0008C02BBCF1A3811F484EDF9CF193809F0E6
:1038F000B4CF90914102933809F4DCC208F072C051
:10390000933209F413C2E0F5923109F4D5C140F5C0
:10391000903109F4F5C1913109F09FCF40903D02FB
:1039200050903E0260903F0270904002A0903B0297
:10393000B0903C02C0903802D090390280913A0297
:103940008F3F09F0E6C1F12C93018201A501B60178
:103950008F2D0E946807F39424E0F212F5CF7DCFFB
:10396000298D3A8D913209F4DBC108F0DCC144E0C5
:103970006CEB903209F071CFC9010E94AF0E6DCF90
:10398000933509F4E7C1D0F4913509F41AC208F06F
:10399000D2C1903509F061CF60E0CE0149960E9416
:1039A0009E0E823941F49FB7F8948091370282606D
:1039B000809337029FBF0E94350B4FCF963509F495
:1039C000CCC1923809F454C2943509F046CF109214
:1039D000300210922F02109234021092350210928F
:1039E00036023BCF953909F440C208F0B6C096388C
:1039F00009F492C238F5943809F472C2953809F086
:103A00002CCF61E0CE0149960E949E0E2091F202D9
:103A10003091F302820F932F911D9093F3028093C4
:103A2000F2029F938F9387E792E09F938F939F92E9
:103A30008F920E9447100F900F900F900F900F9051
:103A40000F900BCF933909F4CAC108F0DDC1913949
:103A500009F003CF1F928CE98F931F9287E18F9318
:103A600088E08F9382E48F938DED92E09F938F9304
:103A70009F928F920E9447100FB6F894DEBF0FBE40
:103A8000CDBF04E512E0B8EDEB2EB2E0FB2ED8017D
:103A90008D918D011F928F93FF92EF929F928F9243
:103AA0000E9447100F900F900F900F900F900F9063
:103AB000B2E00D361B0759F70E945F1174E9E72E3B
:103AC00073E0F72E10E000E0E3EAAE2EF7E17F2E80
:103AD000ADECCA2EA1E0DA2E1F930F931F92AF9286
:103AE0001F927F921F930F93DF92CF929F928F929C
:103AF0000E94471080E991E00E94880C0FB6F8946C
:103B0000DEBF0FBECDBFB12CD70114968C91149798
:103B1000B81608F03EC18B2D90E012960D90BC9126
:103B2000A02DA80FB91F2C911F922F93D701ED91B3
:103B3000FC91E80FF91F80811F928F93E4ECF1E074
:103B4000FF93EF939F928F920E944710B3940FB60A
:103B5000F894DEBF0FBECDBFD7CF933A09F45BC355
:103B6000E0F4913A09F484C208F0A6C3903A09F04F
:103B700074CE6FEFCE0149960E949E0E182F6FE70C
:103B8000CE0149960E949E0E082F143008F067C29D
:103B9000682F812F0E94691260CE9D3E09F4D0C12A
:103BA0009E3E09F40FC2943A09F057CEFE013196B9
:103BB0007F0110E000E0E0911503F0911603C801C9
:103BC0000696880F991FE80FF91F8081D7018D9302
:103BD0007D0170E060E0802F0E94420A0F5F1F4F5E
:103BE0000430110541F710E000E09DEE292E91E030
:103BF000392E0D8FC12CD12C7601B12CA12C0E9415
:103C0000D20A2B016D8DC5010E9405078F8F98A3E5
:103C10000E94D20A641975092B01712C612CC414FD
:103C2000D504E604F704B8F47F936F93B8A1BF936B
:103C3000EF8DEF93BF92AF922AE032E03F932F9344
:103C40009F928F920E9447100FB6F894DEBF0FBE6E
:103C5000CDBF73016201BFEFAB1ABB0AA114E0E252
:103C6000BE0669F6FF92EF92DF92CF921F930F93F9
:103C70003F922F929F928F920E9447100F5F1F4F8B
:103C80000FB6F894DEBF0FBECDBF0430110509F0AA
:103C9000B0CF698170E080E00E94420A6A8170E0E2
:103CA00081E00E94420A6B8170E082E00E94420A39
:103CB0006C8170E083E02AC0898D9A8D9C0121502F
:103CC00031093A8F298F18161906BCF482EC93E05B
:103CD0000E94FD0C282F2F7014E0959587951A955A
:103CE000E1F78F70880F90914202890F8093420212
:103CF0002A5B220F20938C02B0CD20E088E0F2CF27
:103D000060913B0270913C0280913A020E94420A0B
:103D1000A4CD93018201A501B6010E9468079DCD43
:103D200042E060EC29CE42E062EC26CE44E068EB53
:103D3000898D9A8D22CE80E090E0A0E8BFE3809349
:103D40007C0290937D02A0937E02B0937F0244E0B8
:103D500064ECEECF0E94DF1980CD898D9A8D9C0195
:103D6000215031093A8F298F181619060CF075CD9C
:103D700082EC93E00E94FD0CE0911303F091140398
:103D800021E0019709F020E0808120FB81F9808308
:103D900064CD9FE19B1528F080E30E94830CB394CF
:103DA000F8CF0E945F1180E991E00E94880C0F5FBC
:103DB0001F4FA5E0EA0EF11C0430110509F08CCE6E
:103DC0004CCD0E94D1039FB7F89480913702826056
:103DD000809337029FBF81E00E941C153ECD1FB724
:103DE000F89460E0CE0149960E949E0E823929F433
:103DF00080913702826080933702809137028E7FF4
:103E0000809337021FBFE7CF8EEC92E00E946511CE
:103E1000C0907002D0907102E0907202F090730234
:103E200020E030E0A901C701B6010E947430882368
:103E300051F0A7019601C701B6010E948533811197
:103E400002C00E94BA0E64EF71E080E090E00E9430
:103E5000F70A81E080937E0110927A0110927B0133
:103E600010927C0110927D01F8CC0E947111F5CC6A
:103E700061E0CE0149960E949E0E20915A02309137
:103E80005B02820F932F911D90935B0280935A02E5
:103E90009F938F939F938F9386EB92E09F938F9343
:103EA0009F928F920E9447100FB6F894DEBF0FBE0C
:103EB000CDBFD3CC61E0CE0149960E949E0E2091E9
:103EC0005A0230915B02281B310930935B02209328
:103ED0005A023F932F933F932F938EE992E0DECFC8
:103EE000898D9A8D9C01215031093A8F298F029733
:103EF00044F042E050E06AE572E082EC93E00E9418
:103F0000BD1480915A0290915B029F938F939F936F
:103F10008F9386E892E0C2CF61E0CE0149960E947D
:103F20009E0E2091F2023091F302281B310930934A
:103F3000F3022093F2023F932F9388E692E075CD2F
:103F400082E692E00E94680C8091C8029091C902BA
:103F5000892B99F1F12C07E512E09F2DA4E09A023C
:103F6000F0011124E357FD4F23AD34AD2115310588
:103F700009F46BC041ADE0911503F0911603842F55
:103F8000042E000C990B0696880F991FE80FF91F55
:103F900081818F9380818F933F932F931F924F93B3
:103FA0001F930F939F928F920E944710F3940FB626
:103FB000F894DEBF0FBECDBFD0CF84E492E00E9464
:103FC00065114BCC8EE392E00E94680C38E3E32E3F
:103FD00032E0F32E00E810E047E3A42E42E0B42ED6
:103FE00052E3C52E52E0D52E602EF02FF3707F2EB7
:103FF00071F41F930F93BF92AF929F928F920E9482
:1040000047100F900F900F900F900F900F90D701C7
:104010008D917D011F928F93DF92CF929F928F920D
:104020000E944710862D8F700F900F900F900F9069
:104030000F900F908F3061F48BE292E00E94680C39
:104040000F5F1F4F053D110579F60E945F1105CCEA
:10405000B3E07B12F5CF80E20E94830CF1CF10E039
:10406000602F812F0E9469121F5F1430C9F7F5CBB2
:10407000898D9A8D05970CF4F0CB44E050E0BE0199
:104080006F5E7F4F82EC93E00E94BD14E98CFA8C46
:10409000E81AF90AFA8EE98EE0FCDFCBE6948FEF9E
:1040A0008E0D883008F0D9CBCE0101969C8F8B8F76
:1040B00080E1AB8DBC8D1D928A95E9F7F12CA701AB
:1040C000BE016F5F7F4F82EC93E00E94BD14298D8B
:1040D0003A8D281B390B3A8F298FA701BE01675FE4
:1040E0007F4F82EC93E00E94BD14298D3A8D281BEE
:1040F000390B3A8F298FC988DA882C88312CBFEF89
:104100002B1A3B0A2B89229DC001239D900D11245F
:10411000FC01EC0DFD1DFE8FED8F3F922F92FF9362
:10412000EF93DF92CF928CE391E09F938F939F92D6
:104130008F920E9457108CE7682E82E0782E0FB67F
:10414000F894DEBF0FBECDBFB12C8D8D9E8DC816ED
:10415000D9060CF05EC090E1B91609F45AC0B60158
:1041600090E080E00E9479302CE73CE740E052E4A8
:104170000E948832562E79A38C0120E030E04FE770
:1041800053E40E94743087FD04C0512C19A20FE73C
:1041900013E4A9E0B0E0AC0FBD1FB88FAF8BE1E036
:1041A000F0E0EC0FFD1FFE8BED8B49A00F8F18A3E5
:1041B000052D142D2F8D38A1A701BE01695E7F4FFB
:1041C000CE0145960E94B6040E942004D3018C9330
:1041D00011969C93B2E06B0E711CB394B3949F93B1
:1041E0008F93E8A1EF93FF8DFF934F925F92DF9241
:1041F000CF922AE531E03F932F939F928F920E94B6
:104200005710C20CD31C0FB6F894DEBF0FBECDBF43
:104210009CCF4B2D9DCD6FEFCE0149960E949E0EF7
:10422000E82EB3E0B81708F418CBFFB6F894ECE723
:10423000F2E080E1DF011D928A95E9F7098D1A8D80
:1042400010161106A4F5013108F000E110E0A801F4
:104250006CE772E082EC93E00E94BD140817190726
:1042600051F4B5E0EB9EC00111246CE772E08C566E
:104270009C4F0E94E80F809154028F7E80935402DD
:104280008091980381110CC080919D03811108C019
:104290008091A203811104C08091A703882329F093
:1042A00080915402806180935402FFBED6CAE5E03B
:1042B000EE9EC0011124D9CF6FEFCE0149960E9426
:1042C0009E0E843008F0C9CAF5E08F9FC00111240A
:1042D0006CE772E08C569C4F0E94A70340E138CDFA
:1042E000A1960FB6F894DEBF0FBECDBFDF91CF9180
:1042F0001F910F91FF90EF90DF90CF90BF90AF9004
:104300009F908F907F906F905F904F903F902F90F5
:1043100008951F920F920FB60F9211242F933F937F
:104320008F939F93AF93BF93809180019091810170
:10433000A0918201B091830130917F0126E0230F8B
:104340002D3758F50296A11DB11D20937F01809352
:10435000800190938101A0938201B09383018091A9
:10436000840190918501A0918601B0918701019609
:10437000A11DB11D8093840190938501A0938601B6
:10438000B0938701BF91AF919F918F913F912F91F2
:104390000F900FBE0F901F90189529E8230F0396DA
:1043A000A11DB11DD2CF1F920F920FB60F921124F3
:1043B0002F933F934F935F936F937F938F939F932D
:1043C000AF93BF93EF93FF93E0910201F09103014C
:1043D0000995FF91EF91BF91AF919F918F917F913F
:1043E0006F915F914F913F912F910F900FBE0F9062
:1043F0001F9018951F920F920FB60F9211242F93B2
:104400003F934F935F936F937F938F939F93AF935C
:10441000BF93EF93FF93E0910001F09101010995A3
:10442000FF91EF91BF91AF919F918F917F916F918C
:104430005F914F913F912F910F900FBE0F901F9062
:1044400018951F920F920FB60F9211242F933F933E
:104450004F935F936F937F938F939F93AF93BF938C
:10446000EF93FF9380E991E00E94F90BFF91EF91A8
:10447000BF91AF919F918F917F916F915F914F917C
:104480003F912F910F900FBE0F901F9018951F9284
:104490000F920FB60F9211242F938F939F93EF9348
:1044A000FF93E091A001F091A1018081E091A6012C
:1044B000F091A70182FD1BC090818091A9018F5FBF
:1044C0008F732091AA01821741F0E091A901F0E0D9
:1044D000E057FE4F958F8093A901FF91EF919F9137
:1044E0008F912F910F900FBE0F901F901895808184
:1044F000F4CF1F920F920FB60F9211248F939F93B8
:104500008091760190917701019690937701809345
:1045100076019F918F910F900FBE0F901F9018956D
:104520001F920F920FB60F9211248F939F93809139
:1045300074019091750101969093750180937401B7
:1045400080912D0290912E02181619062CF40197D5
:1045500090932E0280932D0280912F029091300231
:10456000009729F001979093300280932F029F913A
:104570008F910F900FBE0F901F9018951F920F9262
:104580000FB60F9211242F933F934F935F936F9326
:104590007F938F939F93AF93BF93EF93FF930E946B
:1045A0006710FF91EF91BF91AF919F918F917F9194
:1045B0006F915F914F913F912F910F900FBE0F9090
:1045C0001F9018951F920F920FB60F9211242F93E0
:1045D0003F934F935F936F937F938F939F93AF938B
:1045E000BF93CF93DF93EF93FF93C091C50281E018
:1045F0008C0F8093C50284E0C802E0011124CA53E5
:10460000DD4F6091FA0288810E94F30E2E813F8176
:1046100021153105C9F480916F00897F84608093F2
:104620006F00FF91EF91DF91CF91BF91AF919F917B
:104630008F917F916F915F914F913F912F910F904B
:104640000FBE0F901F9018952496FE01329780811F
:1046500091818217930770F4809184009091850076
:1046600006968217930708F4C901909389008093F6
:104670008800D7CF8091C5028F5F8093C502C1CFDC
:104680001F920F920FB60F9211242F933F934F93C7
:104690006F937F938F939F936091780070917900CF
:1046A00080918A0390918B03019690938B03809362
:1046B0008A0318161906DCF420918E0330918F03BB
:1046C00040919003260F371F411D20938E03309396
:1046D0008F034093900320918C0330918D038217B8
:1046E000930728F010927A0081E0809393039F91C2
:1046F0008F917F916F914F913F912F910F900FBEAE
:104700000F901F90189510927A0083EA93E00E9410
:10471000D70F8EE993E00E94D70F89E993E00E94BA
:10472000D70F84E993E00E94D70F89E291E090933C
:10473000A9038093A8038CEC93E00E943C1182ECC7
:1047400093E00C943C11CF93DF93A0E9B1E0139672
:104750001C921E92129748EE53E060E070E01496AF
:104760004D935D936D937C93179787E191E011963C
:104770009C938E9385EC90E01D969C938E931C9752
:1047800084EC90E01F969C938E931E9780EC90E0B3
:1047900051969C938E93509781EC90E053969C9306
:1047A0008E93529782EC90E055969C938E935497FB
:1047B00086EC90E057969C938E93569759961C9250
:1047C00059975A961C925A975B961C925B975C96E7
:1047D0001C925C97E8EAF3E01382128244835583CB
:1047E0006683778389E291E0918380838EEF84876B
:1047F00015861686178681E0808B118A128A2BEB2C
:1048000033E087E0E90119928A95E9F7138E128E59
:10481000158E148E178E168E11A210A213A212A23C
:1048200015A214A217A216A211A610A613A612A6CC
:1048300015A614A617A616A611AA10AA83E699E132
:1048400093AB82ABB5ABA4ABEDE2F2E08FEF9FEFA1
:104850009183808382E19AE7938382831482158215
:104860001682178210861186128686E8EDE8F2E03D
:10487000DF011D928A95E9F784E592E09093140395
:104880008093130388E392E09093160380931503BB
:10489000E4E9F3E0118210821382128214821682FC
:1048A0001582108617821186138612861586148645
:1048B0001686108A1786128A118A138A87E6E7E11C
:1048C000F3E0EF0119928A95E9F710927F031092B5
:1048D0007E0388E79CEEAFEFBFEF80938003909359
:1048E0008103A0938203B0938303E4E8F3E086E0BE
:1048F000DF011D928A95E9F71786DF91CF91089520
:10490000CF93DF93CDB7DEB7C756D1090FB6F89472
:10491000DEBF0FBECDBF789484B5826084BD84B500
:10492000816084BD85B5826085BD85B5816085BDAA
:1049300080916E00816080936E0010928100809162
:1049400081008260809381008091810081608093EA
:104950008100809180008160809380008091B1000F
:1049600084608093B1008091B00081608093B0003A
:1049700080917A00846080937A0080917A008260CE
:1049800080937A0080917A008E7F80937A00809164
:104990007A00806880937A001092C100E091A001B3
:1049A000F091A10182E08083E0919C01F0919D0152
:1049B0001082E0919E01F0919F0180E1808310922E
:1049C000A801E091A401F091A50186E08083E09127
:1049D000A201F091A301808180618083E091A20116
:1049E000F091A301808188608083E091A201F09121
:1049F000A301808180688083E091A201F091A301EE
:104A000080818F7D80830E949A0E8CEF94E00E94BB
:104A1000651180E991E00E94880CEAE3F2E083E509
:104A2000DF011D928A95E9F78FEF9FEF909339028E
:104A3000809338028091B4038E3FC1F08EEF809353
:104A4000B4031092B5031092B6031092B70381E03D
:104A50008093B8031092B9031092BA0382EC93E0EA
:104A60000E943C118CEC93E00E943C1187E1809302
:104A7000B40386E09CE19093D7038093D60389E545
:104A800096E19093D9038093D8038FEF9FEF909393
:104A90007F0380937E0310E000E0412C512C320113
:104AA0000F39B3E01B0751F1BE016F5F7F4FC801A3
:104AB0000E943E0FCE0103960E94820329813A8113
:104AC00028173907C1F44B815C816D817E814415C3
:104AD00055056605770578F010937F0300937E03F4
:104AE00087E6FE013196A7E1B3E001900D928A9529
:104AF000E1F72A013B0109591F4FD2CF80917E0374
:104B000090917F03019609F0ACC00E94711160E0A2
:104B10008EE00E94A10A60E083E00E94A10A109248
:104B20006D0210926E0210926F0281E080937E01FE
:104B300010927A0110927B0110927C0110927D01FB
:104B4000DE0111965D0180917E01882309F452C235
:104B5000C0907A01D0907B01E0907C01F0907D01C3
:104B6000C114D104E104F10409F0F1C0C090700255
:104B7000D0907102E0907202F090730220E030E079
:104B8000A901C701B6010E947430882351F0A70122
:104B90009601C701B6010E948533811102C00E94AF
:104BA000BA0E10927A001092930364E670E080E0EF
:104BB00090E00E94F70A0E94290B605E784A8E4FAF
:104BC0009F4F60937A0170937B0180937C01909357
:104BD0007D0184E391E00E94BF33FC0180E090E01E
:104BE000A0ECBFE780839183A283B38315821482F4
:104BF000ABEFBFEFB783A683DF011896CF018C5CC4
:104C00009E4F1D921D921D928A179B07D1F7F0931C
:104C10007901E0937801F894E8E5FDE0F093030171
:104C2000E093020180916900837F8860809369002E
:104C3000E99A1092800081E08093810080916F005A
:104C4000816080936F001092850010928400B09A6A
:104C500078940E94EF0B882309F475CF0E946319A2
:104C600072CF80911E03873308F487E38E3708F0F4
:104C70008DE780931E0389E1EDE1F3E0A4E5B2E066
:104C800001900D928A95E1F784E993E00E94D70F95
:104C900089E993E00E94D70F8EE993E00E94D70F35
:104CA00083EA93E00E94D70F6EE373E084E993E018
:104CB0000E94E80F6EE473E089E993E00E94E80F38
:104CC0006EE573E08EE993E00E94E80F6EE673E014
:104CD00083EA93E00E94E80FE0917E03F0917F0366
:104CE000809118038F93809117038F93CF0167E60C
:104CF00070E00E94FA316B01F12CE12C29E0C21A1C
:104D0000D108E108F108A9E0B0E0A30192010E94F6
:104D1000E031C60ED71EE81EF91EFF92EF92DF9219
:104D2000CF92FF93EF937F926F925F924F9284EDB9
:104D300094E09F938F9380E991E09F938F930E94DB
:104D400047100FB6F894DEBF0FBECDBFE0CEFFEF29
:104D5000CF16DF06EF06FF0609F03FC1E0917801AC
:104D6000F091790180819181A281B3818093700259
:104D700090937102A0937202B09373020E94BF0FCE
:104D8000F89410927A0010927B0010929203109285
:104D9000930390E490937C00A0E4B0E0B0938D0383
:104DA000A0938C0310929103E8EFFFEFF0938B0335
:104DB000E0938A0310928E0310928F031092900357
:104DC0008FEE80937A0078940E94290B6B017C010E
:104DD000FAEFCF0ED11CE11CF11C0E94290B6C15BF
:104DE0007D058E059F0550F4809193038823A9F3D8
:104DF0000E94260380919203823079F7C09070025E
:104E0000D0907102E0907202F0907302A7019601B7
:104E1000C701B6010E948533811185C020E030E0D2
:104E2000A901C701B6010E947430882309F47BC030
:104E3000E0911303F09114036589062E000C770BA3
:104E4000E3E076956795EA95E1F790E080E00E94CF
:104E500079302B013C01A701960160E074E284EFF8
:104E600098E40E9488329B01AC01C301B2010E9408
:104E70001C320E9401337093F3026093F20210928D
:104E8000F4021092F5021092F6021092F7021092BC
:104E9000F80219821092370286E0ADEFB2E01D925F
:104EA0008A95E9F71092FA02F3E0EF2EF3E0FF2E75
:104EB0000FE011E0CC24CA94DC2CF701C192D1920E
:104EC0007F01D8017D908D01872D0E94590A61E0F4
:104ED000872D0E94A10AE3E1F1E0E017F10769F7ED
:104EE000F8941092B00081E08093B100809170003E
:104EF00081608093700080E896E190930301809335
:104F0000020180916900837F886080936900E99A3B
:104F10001092800082E08093810080916F00887DF4
:104F200080936F0078948091540280FF29C056E3EB
:104F3000C52E53E0D52EF12CD6016D907D906D01DC
:104F400061147104C9F020905602309057024090CD
:104F500058025090590220E030E0A901C201B1018D
:104F60000E947430882341F092018101A3016FEF08
:104F70007FEF8F2D0E946807F394B4E0FB12DCCF23
:104F80000E943B0D90937902809378020E948819C9
:104F90006093740270937502809376029093770207
:104FA0000E941C0D90937B0280937A0268E188EA4C
:104FB00093E00E94AA1467EF88EA93E00E94EE1340
:104FC0006CE080E792E00E947716F89480913702B7
:104FD00084608093370278943CCE0E94290B6C1534
:104FE0007D058E059F0508F434CE80E090E0A0ECAE
:104FF000BFE7BCCE8091930381110E942603F894F1
:10500000F09037027894F2FE09C0F894809137024C
:105010008B7F8093370278940E94DF190E94290BBE
:105020002B013C01F3FE1BC0F89480913702877F6F
:1050300080933702789468E188EA93E00E94AA148A
:1050400064EF88EA93E00E94EE136FEF88EA93E042
:105050000E94EE1363E08DE692E00E947716F4FE64
:1050600018C0F8948091F9028983809137028F7E6D
:1050700080933702789468E188EA93E00E94AA144A
:1050800065EF88EA93E00E94EE1361E0C5010E949B
:105090007716F5FE41C0F89480912D0290912E0272
:1050A000892B09F0B2C1809137028F7D809337023E
:1050B0008FEF9FEF90932E0280932D02E3E0F3E0B9
:1050C000850180E04FEF5FEF219131912F3F320753
:1050D00061F0D8018C9312963C932E931197DF01C7
:1050E00012974D935C930D5F1F4F8F5F843061F774
:1050F0007894A016B10681F068E188EA93E00E94F6
:10510000AA1462EF88EA93E00E94EE13B8016A19CC
:105110007B09C5010E947716F0FE12C00E94290B80
:1051200000918003109181032091820330918303C9
:10513000601771078207930718F080E00E941C1522
:10514000F6FE81C0F89486E0EDEFF2E0D501019023
:105150000D928A95E1F7898181FF59C186E0EDEFD3
:10516000F2E011928A95E9F7809137028F7B809364
:105170003702789468E188EA93E00E94AA1466EF07
:1051800088EA93E00E94EE1366E0C5010E9477165C
:10519000998192959F708A81282F2295207FC22E17
:1051A000C92A982F92959F708B81282F2295207F56
:1051B000D22ED92A82958F709C81292F2295207F0B
:1051C000E22EE82AF92EF2949FE0F92224E0CC0C9A
:1051D000DD1CEE1CFF1C2A95D1F734E0F594E79412
:1051E000D794C7943A95D1F7C701B6010E947B3096
:1051F0009F938F937F936F9343E0CC0CDD1CEE1C49
:10520000FF1C4A95D1F7FF92EF92DF92CF928E81E9
:105210008F938D818F938981869581701F928F9353
:10522000898181701F928F9381E095E09F938F9386
:10523000E0E9F1E0FF93EF930E9447100FB6F89476
:10524000DEBF0FBECDBF80912F0290913002892B1F
:1052500009F0FFCC10927A00F894A2E1BAE7B0937B
:105260003002A0932F0278940E941C0D0E9488198E
:105270006B017C01C0927402D0927502E0927602BA
:10528000F0927702AC019B010E948533811105C029
:10529000C701B6010E94FA324B010E943B0D8C01FE
:1052A0009093790280937802BC01990F880B990B37
:1052B0000E947B309B01AC010E948533811104C0A8
:1052C000801691060CF44801FF24E72CD62CC52C3F
:1052D00026016E2C80915502882309F444C088155C
:1052E00019040CF040C08091310290913202A091DB
:1052F0003302481659066A06B0F1AE2DC6018B5826
:105300009F4FAF4F8093310290933202A0933302AC
:105310008091540282FD05C08460809354020E94F3
:10532000350B712C00E010E020E231E450E040E069
:105330006FEF7FEF872D0E9468077394B4E07B12B4
:10534000F1CF8982809155028A8368E188EA93E0EF
:105350000E94AA1461EF88EA93E00E94EE1362E0D3
:10536000C5010E94771680916802882371F120910F
:1053700034023091350240913602421653066406DB
:1053800020F1E4E08E9FC0011124092E000CAA0B2D
:10539000C80ED91EEA1EC0923402D0923502E092A5
:1053A000360268E188EA93E00E94AA1460EF88EA76
:1053B00093E00E94EE13682D88EA93E00E94EE13BA
:1053C0006CE080E792E00E947716F89410929203C6
:1053D00010929303F0E4F0937C0080E490E09093CB
:1053E0008D0380938C0310929103A8EFBFEFB093CD
:1053F0008B03A0938A0310928E0310928F03109256
:1054000090038FEE80937A00E6CD789485CE8091DC
:10541000FD028E7F8093FD02A7CEAFE0B0E0E3E116
:10542000FAE20C946E2D6C011B015A01FC011782EB
:105430001682838181FF48C39E012F5F3F4F490140
:10544000F6019381F10193FD859193FF81911F01F5
:10545000882309F4E7C2853239F493FD859193FFDF
:1054600081911F01853239F4B60190E00E94872FA7
:1054700035015301E5CFF12C512C00E0003238F416
:105480008B3209F190F48032F9F0833209F107FD93
:1054900034C020ED280F2A3020F506FF1BC0FAE0AB
:1054A000FF9E200D1124F22E05C08D3279F080333D
:1054B00071F70160F10193FD859193FF81911F01C7
:1054C0008111DCCF1AC002600460F4CF0860F2CF13
:1054D0000061F0CF3AE0539E200D1124522E00625D
:1054E000E9CF8E3221F406FD9DC20064E3CF8C36F5
:1054F00011F40068DFCF8836E9F29BEB980F933008
:1055000008F05FC00061805E06FD02C046E0F42E38
:10551000102F1F73853609F05BC0106417FF61C040
:105520008F2D9BE39F1508F48BE344244394480E8E
:1055300027E03501F4E06F0E711CF5016081718187
:1055400082819381042DA4010E94902E5C01F98137
:10555000FC87F0FF03C00DE2F3FF07C00BE211FD73
:1055600004C0012F047012FD00E22C852C70E22E85
:1055700009F457C00111ABC2F3E0E12CF515A0F41A
:1055800083E0E52CE81A13FD08C0B60180E290E044
:105590000E94872FEA94E110F8CF002329F0B6018A
:1055A000802F90E00E94872F3C8522ECA22E20E0E5
:1055B000B22E33FD04C096ECA92E90E0B92E1071E6
:1055C00022C09BE9980F933008F033C10F7E9CCF27
:1055D000863611F41068A2CFFF2009F49FCFFA9409
:1055E0009DCFE7E02F2DEF1518F427E037E0F32EDD
:1055F000412C9FCF11118052B60190E00E94872F5D
:105600008FEFA81AB80AF50184918111F3CFEE202B
:1056100009F42FCFB60180E290E00E94872FEA9430
:10562000F6CF17FF6FC04A0CFC85F4FF04C08A81D7
:10563000813309F44A9414140CF086C028E0241530
:1056400010F488E0482E85E090E017FF06C0C50101
:10565000B7FE02C090E080E0019601110196FF20A4
:1056600031F02F2D30E02F5F3F4F820F931F5816E0
:10567000190619F014F0E52CE81A812F897011F43D
:10568000E11067C0002329F0B601802F90E00E944E
:10569000872F13FD02C0E11063C017FF7CC0850196
:1056A000B7FE02C010E000E0C501841991092C0189
:1056B0006F2D70E0EE27FF27E61BF70BFF87EE87C5
:1056C0000F3F100729F4B6018EE290E00E94872F69
:1056D000A016B1060CF44BC0401651060CF047C0A2
:1056E000F501E01BF10BE80DF91D81810150110955
:1056F0002E853F8502171307E4F1B60190E00E9462
:10570000872FDECF16FD9FCFEF2DF0E0EA15FB05CA
:1057100034F03CEFA3163FEFB3060CF0106832965E
:10572000E80DF91D01C0FA94FF2019F08291803331
:10573000D1F317FF88CF442443944F0CFA141B0471
:1057400031F02CF0FA187FCF442443947CCFF12C15
:105750007ACFB60180E290E00E94872FEA9490CF42
:10576000B60180E390E00E94872FEA9494CF80E313
:10577000BDCFA016B10641F49A81963350F495330B
:1057800019F43C8534FF05C0B60190E00E94872FD4
:105790003ECF81E3F9CF8A81813319F09C859F7ECA
:1057A0009C87B60190E00E94872FFF20A9F0B601E8
:1057B0008EE290E00E94872FF394F394E2E001E000
:1057C0000E0FE80DF92DF11D8081B60190E00E94C9
:1057D000872FE02F0F11F3CF85E690E014FF02C072
:1057E00085E490E0B6010E94872FB7FC06C0A114A3
:1057F000B104C1F4EC85E4FF15C0B194A194B108E3
:105800008DE2B60190E00E94872F80E32AE0A21685
:10581000B10454F4B60190E00E94872FB601C5018F
:10582000C096B4CF8BE2EDCF8F5FFAE0AF1AB1082C
:10583000EDCF8336C9F0833771F1833509F05BC052
:105840003501F2E06F0E711CF501A080B1806F2D63
:1058500070E006FD02C06FEF7FEFC5010E94712F5F
:105860009D878C8700680DC0350132E0630E711C86
:10587000F5018081898321E030E03D872C87540148
:105880000F7703FD06C02C853D855216130609F0DF
:10589000A8F4E52C2BC0350132E0630E711CF50134
:1058A000A080B1806F2D70E006FD02C06FEF7FEF2A
:1058B000C5010E947C2F9D878C87E2CFB60180E2D4
:1058C00090E00E94872F5A94DECFF50107FD859165
:1058D00007FF81915F01B60190E00E94872FE110E0
:1058E000EA948C859D8501979D878C87EC85FD8545
:1058F000EF2B59F78CCE843619F0893609F074C035
:10590000350107FF66C0F4E06F0E711CF501608180
:10591000718182819381102F1F7697FF08C0909527
:105920008095709561957F4F8F4F9F4F10682AE04B
:1059300030E0A4010E941330A82EA818BA2C012F21
:1059400016FF0AC00E7FAF1438F414FF04C012FD16
:1059500002C0012F0E7EBF2C04FF8EC0FE01EA0D97
:10596000F11D8081803309F080C0097EF02FF8702E
:10597000EF2E03FD90C000FF8AC0FA2CB51410F47E
:10598000F50CFB1804FF8DC0B60180E390E00E9487
:10599000872F02FF09C088E790E001FF02C088E579
:1059A00090E0B6010E94872FAF1408F486C0AA9435
:1059B0000A2D10E00F5F1F4F080D191DF80182918D
:1059C0008F01B60190E00E94872F80169106B1F7F3
:1059D0001ECEF2E06F0E711CF50160817181072E01
:1059E000000C880B990B97CF102F8537A9F41F7ED9
:1059F0002AE030E0350117FF2FC0F4E06F0E711C74
:105A0000F5016081718182819381A4010E9413302C
:105A1000A82EA8181F7792CF197F8F36D1F048F49F
:105A2000883591F0F601868197812F96E2E10C94FA
:105A30008A2D803739F08837A9F714FD146020E1EA
:105A400030E0D8CF1061F9CF04FD166020E132E0DC
:105A5000D1CF28E030E0CECFF2E06F0E711CF5011F
:105A60006081718190E080E0D0CF02FD02C0B394EC
:105A70007DCFB394B3947ACF802F867809F476CF14
:105A8000F6CFB60180E290E00E94872FB394B51460
:105A9000C0F3E12C77CFE52CEB18B51408F472CFE6
:105AA000F8CF802F867809F47FCF8BE201FF80E268
:105AB00007FD8DE2B60190E075CFB60180E390E07E
:105AC0000E94872FFA9470CF8FEF9FEFAECF24E024
:105AD000E12C251508F063CD84E053CD2F923F9241
