:100000000C94EF020C9484220C945D220C94170340
:100010000C9417030C9417030C9417030C941703F8
:100020000C9417030C941A230C9417030C946C2350
:100030000C9448230C9403230C9417030C9417037B
:100040000C9413220C9417030C94D1220C94AB2221
:100050000C9417030C94CA230C9417030C941703E5
:100060000C9417030C94170308000000BE92244957
:10007000123EABAAAA2ABECDCCCC4C3E00000080DA
:10008000BEABAAAAAA3E00000000BF000000803F4D
:100090000000000000084178D3BB4387D1133D190D
:1000A0000E3CC3BD4282AD2B3E68EC8276BED98F3A
:1000B000E1A93E4C80EFFFBE01C4FF7F3F0000007E
:1000C00000006E616E00696E660000407A10F35A9F
:1000D00000A0724E18090010A5D4E80000E8764888
:1000E000170000E40B54020000CA9A3B000000E134
:1000F000F505000080969800000040420F000000C7
:10010000A08601000000102700000000E8030000A6
:1001100000006400000000000A0000000000010070
:10012000000000002C76D888DC674F0823DFC1DF91
:10013000AE59E1B1B796E5E3E453C63AE651997694
:1001400096E8E6C28426EB898C9B62ED407C6FFCCE
:10015000EFBC9C9F40F2BAA56FA5F490055A2AF710
:100160005C936B6CF9676DC11BFCE0E40D47FEF519
:1001700020E6B500D0ED902E030094357705008081
:10018000841E080000204E0A000000C80C333333E0
:10019000330F986E12831141EF8D2114893BE65580
:1001A00016CFFEE6DB18D1844B381BF77C1D901D63
:1001B000A4BBE424203284725E228100C9F124ECC5
:1001C000A1E53D272B52454D3D00253032782530A5
:1001D0003278002B52454D3D63756269635F696EED
:1001E000742C25752C693263743D253032782530A6
:1001F0003278002B52454D3D6368616E6E656C3DF3
:1002000025752C6D617874696D653D256C750A00E6
:100210002B52454D3D6C6576656C3D25642C7265B1
:1002200073756C743D25642C74696D653D25750A84
:10023000000A2B52454D3D0025303278005B2530B9
:1002400032785D002B52454D3D004E6F2063686152
:100250006E6E656C73206163746976650025753D0B
:1002600025752825752920002B52454D3D002B5220
:10027000454D3D7469636B733D25640A002B5245FF
:100280004D3D7469636B733D25640A002B52454DE7
:100290003D66726571002B52454D3D7A633D257573
:1002A0002C3078253034780A002B52454D3D7A6346
:1002B0003D25752C3078253034780A002B52454D79
:1002C0003D7A633D25752C3078253034780A002539
:1002D000303278002B52454D3D76253034782C69EC
:1002E0003263743D25303278253032780041546DC8
:1002F00065676133323850420073772E6F6E2D740C
:10030000696D653D25752F25750A002C6D696E2E6A
:100310006F6E2D74696D653D25752C6D696E2E6F40
:1003200066663D25752C5A433D25752C00252E33D8
:1003300066002C5643433D006D61782E74656D70E8
:100340003D25752C6D6574726963733D2575006973
:100350006E742E74656D703D25642F6F66733D2538
:10036000752F6761696E3D25752C004E54433D2500
:100370002E32662F252B2E32662C0076616C756529
:10038000733D726573746F72653D25752C663D25EE
:100390002E3366487A2C7672656631313D252E33D0
:1003A000662C0072616E67653D25642D25640A0028
:1003B00063756269633D25752C0074696D657231E2
:1003C0003D25752F252E32662C6C766C733D3831A9
:1003D00039322C70696E733D00616464723D253062
:1003E00032782C6D6F64653D25632C0070726F74DC
:1003F0006F3D554152542C00666164696E675F65BC
:1004000076656E74733D312C005643432C00696E43
:10041000742E74656D702C004E54433D4125752C2F
:10042000006F7074696F6E733D454550524F4D3D7E
:10043000256C752C0040384D687A2C6763633D3716
:100440002E332E30002C4D43553D007369673D25FA
:100450003032782D253032782D253032782C667563
:100460007365733D6C3A253032782C683A2530320A
:10047000782C653A25303278004D4F53464554204C
:1004800044696D6D657220322E322E33204E6F76A8
:1004900020323220323032322031393A30373A335A
:1004A0003220417574686F72207361736368615F95
:1004B0006C616D6D65727340676D782E6465004583
:1004C0004550524F4D522C633D256C752C703D2587
:1004D000752C6E3D256C752C6372633D2530347828
:1004E0000A00424F4F54002B52454D3D6C6F7374C0
:1004F0003D25752C73796E633D25752C636E743DB7
:1005000025752C633D256C642C743D252E31667554
:10051000730A0000000000240027002A00000000E9
:1005200000250028002B0004040404040404040231
:100530000202020202030303030303010204081080
:10054000204080010204081020010204081020004D
:100550000000080002010000030407000000000082
:1005600000000064697361626C6564005D2C6C3D21
:100570005B005D2C793D5B00783D5B002B52454D67
:100580003D636825643D002B52454D3D4545505225
:100590004F4D572C633D256C752C703D25752C6E89
:1005A0003D256C752C773D25752C663D25752C6396
:1005B00072633D253034782C6366673D25750A00EB
:1005C0002B49324325633D002B52454D3D45455057
:1005D000524F4D522C696E6974002D240D24112444
:1005E0001FBECFEFD8E0DEBFCDBF23E0A4E7B1E070
:1005F00001C01D92AF3DB207E1F711E0A0E0B1E00C
:10060000E6EFFBE602C005900D92A437B107D9F7DB
:1006100012E0CEEED2E004C02197FE010E9401322A
:10062000CD3ED107C9F70E940A250C94EE350C94F3
:10063000000080918D03833008F046C0209185032F
:100640003091860312161306B4F4E82FF0E0EE0F93
:10065000FF1FE158FC4F90918C032091890330914A
:100660008A0340918B0303C04695379527959A9549
:10067000DAF731832083823019F08F5F80938D0306
:1006800010928E0380918D038130F9F018F0823042
:10069000F1F0089580E480937C0080E490E09093F2
:1006A00088038093870310928C0388EF9FEF9093C9
:1006B0008603809385031092890310928A03109217
:1006C0008B038FEE80937A0008958EE4E4CF88EC5C
:1006D00080937C0080E490E090938803809387036C
:1006E00010928C0380EE9FEFE2CFBC016B597F4FDD
:1006F0002FEF3FEF86179707D9F0FC014191CF010B
:100700002427422F42954227042E469546954025A0
:10071000042E469540254770022E232F46950794B8
:100720004795302D24270694479530252427E2CF7E
:10073000C9010895CF93DF93EC0180E1FB01119291
:100740008A95E9F7FB0190E08C81981788F4292FAE
:1007500030E0A881B981A20FB31F8C918083AA8158
:10076000BB81A20FB31F8C91818332969F5FECCF28
:10077000DF91CF91089584E193E00E9475039093F7
:100780001303809312030895E5E3F2E083E5DF01AC
:100790001D928A95E9F7E3E3F2E08FEF9FEF9183F3
:1007A00080838CE3858FAFE4B2E08C9181608C9381
:1007B00080E090E0A0E9B0E4868F978FA0A3B1A37A
:1007C00082E29FE193A382A38CE291E095A384A3AC
:1007D00097A386A38DE184A788E585A78CE986A7E2
:1007E00085E080AB80E090E0A0ECBFE784AF95AF00
:1007F000A6AFB7AF20E030E83093740220937302C5
:1008000080AF91AFA2AFB3AF89E1EFE4F2E0A8E12E
:10081000B3E001900D928A95E1F7E9E3F3E080E41B
:10082000DF011D928A95E9F708952CE73CE740E047
:1008300052E40E94C63020E030E040E05FE30E94D6
:1008400008320E94E632CB0177FF02C090E080E0E0
:10085000811520E2920714F08FEF9FE108952F9207
:100860003F924F925F926F927F928F929F92AF9240
:10087000BF92CF92DF92EF92FF920F931F93CF938D
:10088000DF93EB011A01FC01A080B1808A010F5FA8
:100890001F4FF501E00FF11F608170E090E080E0F4
:1008A0000E9465306B017C01F1E02F1A3108F501DF
:1008B000E20DF31D608170E090E080E00E94653001
:1008C0004B015C01AC019B01C701B6010E94603085
:1008D0008823E9F10990D881C02DFE01E00FF11FB6
:1008E000608170E090E080E00E9465302B013C0167
:1008F000C20DD31D688170E090E080E00E946530F9
:100900009B01AC01C301B2010E9407322B013C01E3
:10091000A5019401C701B6010E9407329B01AC01F9
:10092000C301B2010E947432DF91CF911F910F91E8
:10093000FF90EF90DF90CF90BF90AF909F908F90FF
:100940007F906F905F904F903F902F90089560E060
:1009500070E0CB01E9CF2F923F924F925F926F925E
:100960007F928F929F92AF92BF92CF92DF92EF923F
:10097000FF920F931F93CF93DF93CDB7DEB7E0972E
:100980000FB6F894DEBF0FBECDBF9AA389A37CA398
:100990006BA35EA34DA368017901FC010190F08176
:1009A000E02DF8ABEFA7608170E090E080E00E945E
:1009B00065306D877E878F87988BEBA1FCA12080A7
:1009C0003180A70198010E941C3387FD28C0F101E6
:1009D000608170E090E080E00E94653069837A83F6
:1009E0008B839C8369817A818B819C81E0960FB691
:1009F000F894DEBF0FBECDBFDF91CF911F910F9155
:100A0000FF90EF90DF90CF90BF90AF909F908F902E
:100A10007F906F905F904F903F902F9008958DA1A1
:100A20009EA101979A8B898BFC018FA598A9E80F4D
:100A3000F91F608170E090E080E00E9465306B8B70
:100A40007C8B8D8B9E8B9B01AC01C701B8010E94F2
:100A50001C3387FD05C0E989FA892E0E3F1EB7CFEA
:100A60006FA478A8FFEF6F1A7F0A10E000E0C801BA
:100A70000196988F8F8BF30161913F0170E090E0B8
:100A800080E00E9465304B015C01AC019B01C70115
:100A9000B6010E941C3387FF44C1EF89F88DE20D37
:100AA000F31D608170E090E080E00E946530698312
:100AB0007A838B839C83A5019401C701B6010E94B0
:100AC0006030882309F48ECFEFA5F8A9E00FF11F5D
:100AD000608170E090E080E00E946530698F7A8FDD
:100AE0008B8F9C8F9B01AC01C501B4010E94073222
:100AF0006D8F7E8F8F8F98A3298D3A8D4B8D5C8D56
:100B0000C701B6010E9407322D8D3E8D4F8D58A131
:100B10000E9474324B015C01AC019B010E94C63003
:100B20002B013C01AC019B01C501B4010E94C63000
:100B30006B017C01AC019B010E9408326D837E83B6
:100B40008F83988720E030E040E450E4C301B20195
:100B50000E94C63069877A878B879C879B01AC018E
:100B60006D817E818F8198850E94073220E030E080
:100B700040E85FE30E9408326FA378A789A79AA78D
:100B8000A3019201C301B2010E9408329B01AC0192
:100B9000C701B6010E940732A50194010E940832E4
:100BA0006BA77CA78DA79EA72D813E814F8158857D
:100BB00069857A858B859C850E9407326D837E834B
:100BC0008F839887A3019201C701B6010E94073263
:100BD00069877A878B879C87F101E00FF11F60811D
:100BE00070E090E080E00E9465302B013C0101152F
:100BF000110509F099C0F101608170E090E080E09A
:100C00000E9465306B017C01F101618170E090E030
:100C100080E00E946530A70196010E9407324B01D7
:100C20005C01EFA5F8A9618170E090E080E00E948E
:100C300065302D853E854F8558890E9407329B017E
:100C4000AC01C501B4010E9474324B015C01F10199
:100C5000628170E090E080E00E946530A70196011B
:100C60000E9407326B017C01EFA5F8A9628170E058
:100C700090E080E00E9465302D853E854F85588943
:100C80000E9407329B01AC01C701B6010E94743279
:100C90006B017C01A30192016FA178A589A59AA59A
:100CA0000E94C6302B013C0129813A814B815C8135
:100CB0006D817E818F8198850E94C6309B01AC0139
:100CC000C301B2010E9408322B013C012BA53CA5B7
:100CD0004DA55EA56D8D7E8D8F8D98A10E94C6302D
:100CE000A50194010E94C6309B01AC01C301B20171
:100CF0000E9408324B015C0129853A854B855C8551
:100D00006D8D7E8D8F8D98A10E94C630A7019601B2
:100D10000E94C6309B01AC01C501B4010E9408329B
:100D20005DCE0F89188DA3CE8DA19EA102970817C5
:100D3000190709F04DC0E989FA89E20DF31D6081B8
:100D400070E090E080E00E9465306B017C010DA1B5
:100D50001EA103501109F101E00FF11F608170E045
:100D600090E080E00E9465309B01AC01C701B601B4
:100D70000E9407324B015C018FA598A9800F911F3B
:100D8000FC01608170E090E080E00E9465309B0192
:100D9000AC016B897C898D899E890E9407329B01F9
:100DA000AC01C501B4010E9474324B015C01A30186
:100DB0009201C701B6010E9407326B017C01298DA7
:100DC0003A8D4B8D5C8D6B897C898D899E8958CF3E
:100DD000A8016BA17CA189A19AA10E942F044B01BB
:100DE0005C014F89588D6BA17CA189A19AA10E94B9
:100DF0002F044ECF8F929F92AF92BF92FF920F938C
:100E00001F93CF93DF9300D000D0CDB7DEB725E09E
:100E100062028001112401571C4FF801F480FF2069
:100E2000F1F1BC0190E080E00E9465302CE73CE7E6
:100E300040E052E40E9474324B015C0120E030E05B
:100E40004FE753E40E94603087FD06C0812C912C4F
:100E50008FE7A82E83E4B82EF801828193819A83CC
:100E60008983808191819C838B834F2D50E09501F4
:100E70008401BE016F5F7F4FCE0103960E94AB04D9
:100E80000F900F900F900F90DF91CF911F910F91C6
:100E9000FF90BF90AF909F908F900C9415040F908F
:100EA0000F900F900F90DF91CF911F910F91FF90B6
:100EB000BF90AF909F908F9008954F925F926F92E6
:100EC0007F928F929F92AF92BF92CF92DF92EF92DA
:100ED000FF920F931F93CF93DF936A01280139018B
:100EE000082F880F110BF801EE0FFF1FE250FD4F86
:100EF0008FEF9FEF91838083C801880F991FE09146
:100F00001003F0911103E80FF91F84859585892B53
:100F100021F4D801A751BD4F1C924FEFC416D4063F
:100F200009F057C08CE0809FD001819FB00D112443
:100F3000A857BD4F50962D913C915197232BC1F14D
:100F400021E030E051963C932E93509798012F5F0B
:100F50003F4F829FD001839FB00D1124A857BD4FF2
:100F60001D921D921D921C921397C485D585C13088
:100F700050E2D50714F0C0E0D0E2D7FF02C0D0E0C5
:100F8000C0E02CE0209FC001219F900D11248C0116
:100F900008571D4FBE010D2E000C880B990B0E94A7
:100FA0006730F8016087718782879387D38BC28B04
:100FB000DF91CF911F910F91FF90EF90DF90CF9035
:100FC000BF90AF909F908F907F906F905F904F9069
:100FD00008956F3F760711F464857585EB016130E4
:100FE000704214F0C0E0D0E2D7FF02C0D0E0C0E011
:100FF000B60181E0C81680E2D80614F060E070E225
:1010000077FF02C070E060E06C1B7D0B072E000CC8
:10101000880B990B0E9467304B015C0120E030E0A7
:10102000A9010E946030882319F220E030E040E0FE
:1010300059E3C501B4010E94C630A30192010E9488
:10104000C6302B013C0120E030E0A9010E941C3396
:10105000181624F077FA709477F8709420916B0248
:1010600030916C0240916D0250916E02C301B20149
:101070000E94C6309B01AC010E9408320E94ED32F2
:101080008CE0782E709E9001719E300D1124F90134
:10109000E857FD4F7F01718B608B6115710509F475
:1010A00087CF90E080E00E9465309B01AC01C501D4
:1010B000B4010E9474324B015C010F5F1F4F709EA0
:1010C000F001719EF00D1124E857FD4F808291824E
:1010D000A282B382BE01DD0F880B990B0E9467309C
:1010E000F7016087718782879387D38AC28A20E05D
:1010F00030E0A901C501B4010E946030811158CFD0
:1011000081E090E0F701918B808B52CFBF92CF921C
:10111000DF92EF92FF920F931F93CF93DF93B82E3E
:10112000C091ED02D091EE0200910E0310910F03D9
:10113000F801E084F184C284D384DE01AE19BF09D2
:10114000AC19BD094685578541155105D1F59D015D
:10115000DB010E94FA312DE096958795779567958A
:101160002A95D1F79B012E0D3F1DCE018C199D09AB
:1011700082179307E0F0F801808D882399F0468963
:1011800057894115510571F0EB2DBB0CFF0BE75151
:10119000FD4F60816E3F30F48150990B681719063E
:1011A0000CF47A01C9012E153F0508F4C701DF913F
:1011B000CF911F910F91FF90EF90DF90CF90BF9054
:1011C000089524853585260F371F0E94D7319A014F
:1011D00050E040E00E94AA31C6CF3F924F925F920A
:1011E0006F927F928F929F92AF92BF92CF92DF9237
:1011F000EF92FF920F931F93CF93DF93CDB7DEB79C
:1012000064970FB6F894DEBF0FBECDBF80914F023A
:101210008071582EA0900E03B0900F038090ED02C5
:101220009090EE02E0901003F09011032CE0E20E9B
:10123000F11C712C612C00E010E0CC24C394D12C63
:10124000362C462CF701819191917F01552019F0A0
:10125000662D0E94FA068115F0E29F0708F45FC030
:10126000C60101C0880F4A94EAF7182B3FEF631AB2
:10127000730A84E06816710419F794E00902F0011A
:101280001124EE24E394F12CEC0EFD1EEE0DFF1D57
:10129000108211821282138202300CF468C0015055
:1012A00090E080E0402F50E020E0BA01681B790B0D
:1012B000E22F022E000CFF0BE617F7070CF053C0CD
:1012C000EE0FFF1FEE0FFF1FA1E0B0E0AC0FBD1F40
:1012D000AE0FBF1F3496EE24E394F12CEC0EFD1EEE
:1012E000EE0DFF1D1296CD90DC901397E280F380F7
:1012F000EC14FD0490F4CD90DD90ED90FC901397EC
:1013000080809180A280B3808D929D92AD92BC929C
:101310001397C082D182E282F3822F5FC9CF0097F8
:1013200009F4A4CF960101C0220F4A94EAF7122BC8
:10133000BC01832D0E948608F501208121FF04C095
:101340009401281B390BC90134E00302F001112478
:1013500021E030E02C0F3D1FE20FF31F93838283C7
:1013600060820F5F83CF019680170CF49DCFF894B5
:101370008091F402811739F01093F40280913202C7
:1013800080618093320284E1FE013196A5EDB2E0E6
:1013900001900D928A95E1F7789464960FB6F894CF
:1013A000DEBF0FBECDBFDF91CF911F910F91FF9098
:1013B000EF90DF90CF90BF90AF909F908F907F90F5
:1013C0006F905F904F903F900895082E000C990BFE
:1013D0009C01220F331FE0911003F0911103E20FE3
:1013E000F31F24853585232B21F4DC01A751BD4F44
:1013F0001C929B016130704214F020E030E237FF14
:1014000002C030E020E0358724872CE0289FF001DF
:10141000299FF00D1124E857FD4F118A108AFC0115
:10142000EE0FFF1FE250FD4F208131812F3F3F4FD4
:10143000E1F020911003309111030696880F991F57
:10144000820F931FDC018D919C91918380839FB7C4
:10145000F8948091320280628093320225E33CE06E
:1014600030932902209328029FBF0C94ED081F930C
:10147000CF93DF938F3F69F4EB0110E0BE01812F22
:101480000E94E5091F5F1430C9F7DF91CF911F91CA
:101490000895DF91CF911F910C94E50990E0FC0134
:1014A000E15BFA4F2491FC01E55CFA4F3491FC01B9
:1014B000E95DFA4FE491EE23B9F0222339F02330AD
:1014C000F1F098F4213009F1223019F1F0E0EE0F3B
:1014D000FF1FE35EFA4FA591B4918FB7F894EC919A
:1014E00030953E233C938FBF08952730A9F02830D4
:1014F000C9F0243059F7809180008F7D03C080911E
:1015000080008F7780938000E1CF84B58F7784BD92
:10151000DDCF84B58F7DFBCF8091B0008F77809336
:10152000B000D4CF8091B0008F7DF9CF0895CF93D4
:10153000DF9390E0FC01E55CFA4F2491895D9A4FBE
:10154000FC0184918823D1F090E0880F991FFC0161
:10155000ED5EFA4FA591B491FC01E35EFA4FC5919F
:10156000D49161110EC09FB7F8948C91E22FE09551
:101570008E238C932881E223E8839FBFDF91CF9154
:1015800008958FB7F894EC91E22BEC938FBFF6CFD0
:10159000CF92DF92EF92FF920F931F93CF93DF933F
:1015A0001F92CDB7DEB7C0906B02D0906C02E09076
:1015B0006D02F0906E0220E030E0A901C701B60193
:1015C0000E946030882391F1A7019601C701B601FE
:1015D0000E94713381112AC0198210923202F8944C
:1015E000E99886E99AE09093030180930201809143
:1015F0006F00887D80936F00109281000FE011E0F2
:10160000F801F1908F018F2D0E944E0A60E08F2D1E
:101610000E94970AF1E003311F0791F78091700053
:101620008E7F809370001092B10078940F90DF91BC
:10163000CF911F910F91FF90EF90DF90CF90089581
:101640003FB7F89480917F0190918001A091810132
:10165000B091820126B5A89B05C02F3F19F00196D5
:10166000A11DB11D3FBFBA2FA92F982F8827BC01FC
:10167000CD01620F711D811D911D43E0660F771F23
:10168000881F991F4A95D1F708958F929F92AF9224
:10169000BF92CF92DF92EF92FF924B015C010E94CA
:1016A000200B6B017C010E94200B6C197D098E09B7
:1016B0009F09683E734081059105A8F321E0821AD5
:1016C0009108A108B10888EEC80E83E0D81EE11C7D
:1016D000F11C81149104A104B10429F7FF90EF904B
:1016E000DF90CF90BF90AF909F908F9008952FB7CD
:1016F000F89460917B0170917C0180917D019091C3
:101700007E012FBF08958F929F92AF92BF92CF928A
:10171000DF92EF92FF920E94770B6B017C01809128
:10172000320280FD2FC080907B0390907C03A090BC
:101730007D03B0907E039FB7F89480913202816060
:10174000809332029FBF0E94770BC818D908EA081D
:10175000FB0829E8C21623E1D206E104F104DCF417
:1017600038E8C32E33E1D32EE12CF12CC60ED71E60
:10177000E81EF91EC0927B03D0927C03E0927D03A9
:10178000F0927E03FF90EF90DF90CF90BF90AF90EC
:101790009F908F90089524EFC22EDD24D394E12CE6
:1017A000F12CE4CFAF92BF92CF92DF92EF92FF92F3
:1017B0000F931F93CF93DF936C017B018B01040F79
:1017C000151FEB015E01AE18BF08C017D10759F015
:1017D0006991D601ED91FC910190F081E02DC60157
:1017E0000995892B79F7C501DF91CF911F910F9151
:1017F000FF90EF90DF90CF90BF90AF900895FC01E5
:10180000538D448D252F30E0842F90E0821B930B65
:10181000541710F0CF96089501970895FC01918D0B
:10182000828D981761F0A28DAE0FBF2FB11D5D960E
:101830008C91928D9F5F9F73928F90E008958FEFB0
:101840009FEF0895FC01918D828D981731F0828D64
:10185000E80FF11D858D90E008958FEF9FEF0895BB
:10186000FC01918D228D892F90E0805C9F4F821B1F
:1018700091098F73992708958BE891E00E94300CAD
:1018800021E0892B09F420E0822F0895FC01A48D2A
:10189000A80FB92FB11DA35ABF4F2C91848D90E092
:1018A00001968F739927848FA689B7892C93A08975
:1018B000B1898C91837080648C93938D848D9813FF
:1018C00006C00288F389E02D80818F7D8083089592
:1018D000EF92FF920F931F93CF93DF93EC0181E080
:1018E000888F9B8D8C8D98131AC0E889F989808127
:1018F00085FF15C09FB7F894EE89FF896083E8895A
:10190000F98980818370806480839FBF81E090E04B
:10191000DF91CF911F910F91FF90EF900895F62ED8
:101920000B8D10E00F5F1F4F0F731127E02E8C8D72
:101930008E110CC00FB607FCFACFE889F9898081B7
:1019400085FFF5CFCE010E94460CF1CFEB8DEC0F59
:10195000FD2FF11DE35AFF4FF0829FB7F8940B8FD4
:10196000EA89FB8980818062CFCF0F931F93CF9349
:10197000DF938C01D0E0C0E0F801EC0FFD1F649113
:10198000662341F08BE891E00E94680C892B11F0EE
:101990002196F2CFCE01DF91CF911F910F91089543
:1019A000682F8BE891E00C94680CCF93DF93EC01E7
:1019B000888D8823B9F0AA89BB89E889F9898C9137
:1019C00085FD03C0808186FD0DC00FB607FCF7CFF3
:1019D0008C9185FFF2CF808185FFEDCFCE010E94F3
:1019E000460CE9CFDF91CF910895DC01ED91FC9198
:1019F0000190F081E02D6A3010F4605D0994695A1D
:101A0000FDCFDC01ED91FC910190F081E02D6AE0C9
:101A10000994DC015E968D919C915F975C962D9167
:101A20003C915D978217930740F45A96ED91FC9193
:101A3000E80FF91F808190E008958FEF9FEF0895E0
:101A4000FC01848D958D268D378D821B930B089517
:101A5000EF92FF920F931F93CF938C01C62F70E0EC
:101A600084E0759567958A95E1F7F80184A995A9B1
:101A70000E94F50C7C016C2F6F70F80184A995A968
:101A80000E94F50C8E0D9F1DCF911F910F91FF901D
:101A9000EF900895FC01248135818281938128177C
:101AA000390768F480819181A9014F5F5F4F5583A9
:101AB0004483FC01E20FF31F808190E008958FEFD3
:101AC0009FEF08954A960C944A0D089590E080E0A7
:101AD000089540915F022EEE3CE74203B001439F20
:101AE000700D1124072E000C880B990B60577E4F48
:101AF000834B9B4F209181033091820350E040E063
:101B00000E94AA313093760220937502C90108958C
:101B1000209183033091840386E0369527958A953A
:101B2000E1F7E3E3F2E085A5820F932F911D85573E
:101B30009F4F9695982F88279795879566A570E073
:101B40000E94E631CB01499608952F923F924F9221
:101B50005F926F927F928F929F92AF92BF92CF923D
:101B6000DF92EF92FF920F931F93CF93DF9300D0FA
:101B700000D000D0CDB7DEB7809184009091850071
:101B80009A83898380917601909177019C838B83DE
:101B900000917801109179018B819C81C980DA8054
:101BA000D8011696ED91FC9117979F012F5F3F4F3B
:101BB000F7FF1DC017963C932E93169726960FB6E7
:101BC000F894DEBF0FBECDBFDF91CF911F910F9173
:101BD000FF90EF90DF90CF90BF90AF909F908F904D
:101BE0007F906F905F904F903F902F900895179641
:101BF0003C932E931697BF01660F771FE60FF71FD2
:101C0000E00FF11FA0E0A82F99278827E12C8C294D
:101C10009D29AE2982879387A4872436310571F6E2
:101C2000E99886E99AE09093030180930201F80114
:101C30001082118212821382868197819E838D8306
:101C40000B970CF4BBCF78019AE0E90EF11CF70179
:101C500050E040E020E0812C912C54016D807E808A
:101C6000A1E06A1A710846155705FCF44F5F5F4FF3
:101C700021903190419080819181A28182199309B4
:101C8000A4091C014A2EB4E02B1ABCEF3B0A410800
:101C900032E8231639E43306410428F7B0E0880E11
:101CA000991EAA1EBB1E2F5FDECF2B3008F486CFF5
:101CB00030E050E040E0C501B4010E94AA31490182
:101CC0005A01842FB90190E00E9465302FE832EC70
:101CD00045EF5BE30E94C6300E94ED32CB01A0E0ED
:101CE0004A2D9401281B390B4A0B34018A2C680EAB
:101CF000791E8A1E61E070E0912C212C312C21018B
:101D0000D701AD90BD90CD907D018D919D91AC910D
:101D10008A199B09AC0982179307A40750F068162B
:101D200079068A0630F0B0E0280E391E4A1E5B1E86
:101D300093946F5F7F4F8D819E818617970701F780
:101D4000BAE0B91508F03ACFC201B1010E9465307E
:101D50006B017C01692D70E090E080E00E946530AD
:101D60009B01AC01C701B6010E94743220E030E053
:101D700040E652E40E94073220E030E040E05EE3BB
:101D80000E94C6309B01AC0160E074E284EF98E4ED
:101D90000E947432F80160837183828393830ECF33
:101DA000FC01862F20813181A901415051095183C5
:101DB00040831216130624F48DEB93E00E944A0D23
:101DC000089520913D02420F40933D0202970CF08E
:101DD00064ED609387020895662371F0823041F0CC
:101DE000833041F0813011F05E9A0895289A089569
:101DF000299A08952A9A0895823041F0833041F05B
:101E0000813011F05E9808952898089529980895D2
:101E10002A98089584EC91E00C94B50CAF92BF928F
:101E2000DF92EF92FF920F931F93CF93DF935C01AA
:101E300002E113E0D0E0C0E0F801D1908F0175011C
:101E4000EC0EFD1EC7010E948431D81621F06D2DC5
:101E5000C7010E948C312196C736D10569F782E10E
:101E600093E0DF91CF911F910F91FF90EF90DF9062
:101E7000BF90AF900895CF92DF92EF92FF920F93B1
:101E80001F93CF93DF93EB017B0127E6E20EF11C5A
:101E90008B016C01C61AD70AC601800F911F0E94E0
:101EA0008431F80181938F01EE15FF05A9F7CE016A
:101EB000DF91CF911F910F91FF90EF90DF90CF9026
:101EC00008956F927F928F929F92AF92BF92CF921E
:101ED000DF92EF92FF920F931F93CF93DF93CDB7D3
:101EE000DEB7C054D1090FB6F894DEBF0FBECDBF28
:101EF0006C015B014A019A01AB0160E470E0CE0124
:101F000001963C01F60109957C018F3391057CF126
:101F100002960E94AB338C01009759F19401A50100
:101F2000B701F60109957C01A701B8018BE891E0A2
:101F30000E94D20B6016710619F0C8010E94473446
:101F4000C701C05CDF4F0FB6F894DEBF0FBECDBF38
:101F5000DF91CF911F910F91FF90EF90DF90CF9085
:101F6000BF90AF909F908F907F906F900895830166
:101F7000DBCFE12CF12CE4CFF894E99886E99AE0E4
:101F80009093030180930201EFE6F0E08081887D69
:101F900080831092810080917801909179010E9454
:101FA0004734109279011092780178940895CF9275
:101FB000DF92EF92FF92CF93DF93C0917801D0919F
:101FC0007901209709F05BC00E94C80A10927A003C
:101FD00010928E0364E670E080E090E00E94450B72
:101FE00086E391E00E94AB33EC0180E090E0A0EC4E
:101FF000BFE788839983AA83BB831D821C828BEFF2
:102000009FEF9F838E830E94770B79876887FE01FD
:102010003A96CE018A5C9E4F119211921192E81766
:10202000F907D1F7D0937901C0937801CD2B41F412
:1020300080E0DF91CF91FF90EF90DF90CF900895F7
:10204000F89485EA9DE090930301809302018091CA
:102050006900837F886080936900E99A1092850007
:10206000109284001092800081E080938100809122
:102070006F00816080936F00B09A7894D9CFC88048
:10208000D980EA80FB80A7019601C701B6010E94B2
:10209000713381111BC020E030E0A901C701B601F6
:1020A0000E946030811106C0C12CD12C80ECE82E3A
:1020B0008FE7F82EC0926B02D0926C02E0926D0214
:1020C000F0926E020E94BC0F81E0B3CF0E94770BAA
:1020D00028853985621B730B6B31764008F4A8CFD5
:1020E00080E090E0A0ECBFE780936B0290936C02DD
:1020F000A0936D02B0936E02E5CFCF93DF93EC0116
:1021000088819981009731F00E94473419821882A2
:102110001B821A821C82DF91CF910895AF92BF92E9
:10212000CF92DF92FF920F931F93CF93DF938C0197
:10213000EB01FB0132968881FF24F394908189178B
:1021400030F43296F394892F28E0F212F7CFC801C9
:102150000E947D1081E0F816D9F0F801F482AF2CCE
:10216000B12C6501CC0CDD1CC6010E94AB33F1E043
:10217000CF1AD108FC01119221E0C21AD108D7FE72
:10218000FACFF801918380838A0D9B1D938382830C
:10219000F80180819181892BB1F090E080E0F80115
:1021A0002481821760F429813881A081B181A80F30
:1021B000B91F3C93A281B381A80FB91F2C9322961B
:1021C00001968F1560F3DF91CF911F910F91FF90D2
:1021D000DF90CF90BF90AF900895CF93DF93CDB7AE
:1021E000DEB7AE01475F5F4F6F81788583ED9FE279
:1021F0000E94610FDF91CF910895CF93DF93CDB708
:10220000DEB7AE01475F5F4F6F81788582EC95E363
:102210000E94610FDF91CF910895CF93DF932B9AA6
:10222000109285001092840010928900109288000C
:102230008091ED029091EE0290938B0080938A0042
:1022400086B3866086BBE0910E03F0910F03808118
:102250008695817091E089278093F5021092C002E3
:102260008091F6029091F70201969093F702809385
:10227000F602843C29E0920710F120916F00297F3B
:1022800020936F005BB15F7B45B1487F35B1387FEC
:1022900025B1287F5BB945B935B925B92091F80238
:1022A00021602093F8029093FD028093FC028091BC
:1022B0003202806480933202DF91CF9108952091A1
:1022C000C3023091C40280916F00897F21153105CE
:1022D00009F44DC0826080936F0030938900209391
:1022E0008800C0E084E0C802F0011124E857FD4FE7
:1022F00083AD94AD892B39F06091F50281AD0E94D8
:10230000EC0ECF5FEFCFD0E0C0E0E0911003F09192
:102310001103CE010696880F991FE80FF91F8081DF
:102320009181892B21F460E08C2F0E94EC0E219684
:10233000C430D10551F78091F50291E0892780934F
:10234000F50290E024E09202F0011124E857FD4FDD
:1023500023AD34AD232B41F1E1ADF0E0E751FD4F6A
:1023600080818E3F10F48F5F80839F5FEBCF84600E
:1023700080936F00D0E0C0E0E0911003F091110372
:10238000CE010696880F991FE80FF91F61E0808142
:1023900091818115904209F060E08C2F0E94EC0E33
:1023A0002196C430D10541F78091F802837041F441
:1023B0008091F6029091F7029093FD028093FC02C7
:1023C0002B987ACFCF93DF93EC0188819981009786
:1023D00021F00E944734198218821F821E821B82BC
:1023E0001A821D821C82DF91CF910895FB0101901A
:1023F0000020E9F73197AF01461B570BDC01ED9147
:10240000FC910280F381E02D099469E371E08BE88F
:1024100091E00C94F611CF93DF930E94B50CEC0180
:102420000E9405128C0F9D1FDF91CF9108957F921E
:102430008F929F92AF92BF92CF92DF92EF92FF92D4
:102440000F931F93CF93DF9300D000D000D0CDB770
:10245000DEB78FEF9FEF9A8389831B821C821D82D8
:102460001E8287E6E82EF12C670187E6C80ED11C94
:1024700096E0C91694E0D906D9F0DE0111965D0107
:1024800010E000E0F50171905F014701800E911EA0
:10249000C4010E948431781621F0672DC4010E9486
:1024A0008C310F5F1F4F0630110561F77601DCCFCD
:1024B00010927A0310927903E2E1F3E087E6DF01FC
:1024C0001D928A95E9F781E090E0A0E0B0E080936A
:1024D000140390931503A0931603B09317030E945F
:1024E000C4030E94BB0390E080E00E940E0F9FB7E0
:1024F000F894809132028E7F809332028091320272
:102500008D7F809332029FBF88EC95E026960FB6B0
:10251000F894DEBF0FBECDBFDF91CF911F910F9119
:10252000FF90EF90DF90CF90BF90AF909F908F90F3
:102530007F900C940B128F929F92AF92BF920F9349
:102540001F93CF93DF93CDB7DEB7A1970FB6F89463
:10255000DEBF0FBECDBF19A2423008F44AE08E01A3
:102560000F5D1F4F842E912CB12CA12CA50194013D
:102570000E94AA31E62FB901CA01EA3004F5E05DF4
:10258000D801EE938D01232B242B252B79F790E096
:1025900080E0109729F0BD018BE891E00E94F611D0
:1025A000A1960FB6F894DEBF0FBECDBFDF91CF91DD
:1025B0001F910F91BF90AF909F908F900895E95C0D
:1025C000DFCFCF92DF92EF92FF92CF93DF936C0138
:1025D000990FEE08FF08F7FE17C08DE20E94D00C9D
:1025E000EC0166277727CB016C197D098E099F09BD
:1025F0004AE00E949B128C0F9D1FDF91CF91FF90AC
:10260000EF90DF90CF9008954AE0C701B601DF91C7
:10261000CF91FF90EF90DF90CF900C949B124F9250
:102620005F926F927F928F929F92AF92BF92CF9262
:10263000DF92EF92FF920F931F93CF93DF9300D01F
:1026400000D0CDB7DEB7182F962E812F012E000CAB
:10265000990B9F931F938CE795E09F938F938BE843
:1026600091E09F938F930E94ED1025E01202C0012C
:102670001124DC01A157BC4F7D011496CC900F9022
:102680000F900F900F900F900F90CC2009F4ADC0D9
:1026900088E795E00E94B50CB12CA12CAC14A8F4ED
:1026A000AA2019F08CE20E94D00CD701ED91FC9188
:1026B000EA0DFB1D608170E090E080E04AE00E943E
:1026C0009B12BFEFAB1ABB0AE9CF82E795E00E94ED
:1026D000B50CB12CA12CAC1498F4AA2019F08CE202
:1026E0000E94D00CD7011296ED91FC91EA0DFB1DD2
:1026F000808190E00E94E112BFEFAB1ABB0AEBCFE2
:102700008CE695E00E94B50C692D70E090E080E0C9
:102710000E94673020E030E040E85FE30E9408322A
:102720009B01AC0160E078EF8FEF95E40E9474327A
:102730009B01AC0160E070E08FE793E40E9474328B
:102740002B013C01812C912C5401D12CF701828169
:1027500093819A838983808191819C838B83950166
:102760008401A601BE016F5F7F4FCE0103960E94D8
:10277000AB040E9415040E94E112A3019201C5015D
:10278000B4010E9408324B015C0126E636E64FE7B1
:1027900053E40E94603087FD1AC08DE50E94D00C82
:1027A0000E9405120F900F900F900F90DF91CF9124
:1027B0001F910F91FF90EF90DF90CF90BF90AF905F
:1027C0009F908F907F906F905F904F90089520E042
:1027D00030E0A901C501B4010E946030882309F4EA
:1027E000B5CF8CE20E94D00CB1CF83E695E00E9479
:1027F0000B12D8CF0F931F93CF93DF93EC01088573
:1028000019850617170708F48B01095F1F4F087F0A
:102810008E819F818017910721F18881998101150F
:10282000110549F1009719F1B8010E94D03499833C
:10283000888388819981892B11F410E000E01F833F
:102840000E838A819B810817190710F41B830A8362
:102850008A819B812C813D818217930710F49D838F
:102860008C8381E0DF91CF911F910F910895C80172
:102870000E94AB33DCCF009701F30E9447341982EA
:102880001882DDCF1F93CF93DF93EC018A819B8168
:102890009C012F5F3F4F4E815F818417950750F455
:1028A000E881F9813B832A83E80FF91F608381E087
:1028B00090E00CC0162FB901CE010E94FA138111CD
:1028C00009C0CE010E94E21190E080E0DF91CF913B
:1028D0001F910895E881F9818A819B819C012F5F76
:1028E0003F4F3B832A83E80FF91F1083E0CFCF933C
:1028F000DF93EC018A89882381F08C8D9D8D8F3F39
:10290000910530F081E08E871D86DF91CF9108958B
:10291000CE014A960E944214F7CF8C85861717067F
:1029200089F781E08A8BF0CFFC0197859D7F9130FC
:1029300021F4CF0184960C94421490E080E0089535
:10294000FC01158214821382128260857185695F91
:102950007F4F687F0C94FA138F929F92AF92BF9231
:10296000DF92EF92FF920F931F93CF93DF93EC01CF
:10297000D62EECA0FDA008A519A5AEA0BFA08CA9DD
:102980009DA9DC01ED91FC910680F781E02D099570
:10299000B2E5DB1631F0E4E5DE1619F0F1E4DF1202
:1029A0001DC08CA89DA8DF9280EC95E09F938F932B
:1029B0001F9288E08F9383E891E09F938F930E940A
:1029C000A32F63E871E0C4010E94F6118DB79EB792
:1029D00007960FB6F8949EBF0FBE8DBF0E0D1F1D3C
:1029E000EA0CFB1C0E151F0539F0D8016D918D0105
:1029F000CE010E94280DF6CF8CA99DA90E94010D41
:102A00008CA99DA9DC01ED91FC910680F781E02D58
:102A10000995CE0184960E94A0141F8680E0DF9164
:102A2000CF911F910F91FF90EF90DF90BF90AF90EB
:102A30009F908F900895CF938091CB039091CC037A
:102A40002091C9033091CA0382179307D0F4E09113
:102A5000C703F091C803E80FF91F808190E020912F
:102A6000B203213089F487FD19C02091AF03C7E07C
:102A70002817190651F064E583EA93E0CF910C948E
:102A8000AC148FEF9FEFEBCFC8E087EC93E00E9490
:102A9000A0141092B2038C2FCF910895C6E0F5CF09
:102AA0001F93CF93DF93162F21E0FC012787EC01C2
:102AB000A496CE010E94A014612FCE01DF91CF9188
:102AC0001F910C9442140F931F93CF93DF938C01AB
:102AD000CB01F80124813581C281D381C21BD30B84
:102AE0004C175D0708F4EA01F80160817181620FFB
:102AF000731F0E94A635F801848195818C0F9D1F5C
:102B000095838483CE01DF91CF911F910F9108951A
:102B1000EF92FF920F931F93CF93DF93EC018B0102
:102B20007A018F858D7F813051F0F12CE12CC70126
:102B3000DF91CF911F910F91FF90EF9008956EA1BB
:102B40007FA1640F751F8AA59BA56817790788F474
:102B50002CA13DA18EA19FA1A701B801820F931FB7
:102B60000E94A6358EA19FA18E0D9F1D9FA38EA3AF
:102B7000DECF6F5F7F4FCE0184960E94FA138111E2
:102B8000E7CFD3CFCF92DF92EF92FF920F931F93B5
:102B9000CF93DF93CDB7DEB7CF56D1090FB6F894F8
:102BA000DEBF0FBECDBFF82E8E0108591F4F88E043
:102BB000D8011D928A95E9F78091320281FF25C0E4
:102BC000F80187818160878389E1EFE4F2E0A8E181
:102BD000B3E001900D928A95E1F769E373E08FE825
:102BE00093E00E949A0369E473E084E993E00E9411
:102BF0009A0369E573E089E993E00E949A0369E624
:102C000073E08EE993E00E949A0388E0EFE3F2E03C
:102C1000A1E3B3E001900D928A95E1F70E94BB0316
:102C2000BE016F5F7F4F8091790390917A030E947C
:102C30003B0FF1100BC047E650E0BE016F5F7F4FC6
:102C400082E193E00E949935892BD9F08091790334
:102C500090917A039C0122533F4F2115344008F094
:102C6000B4C089599F4F90937A03809379038091E0
:102C7000790390917A030E940E0F87E6F80186830C
:102C800003C0D80116961C920E94770B60937B03B9
:102C900070937C0380937D0390937E039FB7F89499
:102CA000809132028E7F80933202809132028D7F3A
:102CB000809332029FBF8091140390911503A091DD
:102CC0001603B0911703F80180839183A283B38325
:102CD0008091790390917A039583848368E183EAF4
:102CE00093E00E94501563EF83EA93E00E949414EE
:102CF00048E050E0B80183EA93E00E9488150E9402
:102D00001B15E0917903F0917A03D80117968C9105
:102D1000179781701F928F93809113038F938091E7
:102D200012038F9317968C9117971F928F93169675
:102D30008C911F928F932091140330911503409131
:102D4000160350911703A9E0B0E00E94CC316B014B
:102D50007C01B9E0CB1AD108E108F108CF0167E6A0
:102D600070E00E94E631C60ED71EE11CF11CFF92F6
:102D7000EF92DF92CF92FF93EF93F80183818F93CD
:102D800082818F9381818F9380818F9387E895E0F3
:102D90009F938F938BE891E09F938F930E94ED1008
:102DA0000FB6F894DEBF0FBECDBFC159DF4F0FB6CF
:102DB000F894DEBF0FBECDBFDF91CF911F910F9171
:102DC000FF90EF90DF90CF90089510927A031092C9
:102DD00079038091140390911503A0911603B0918B
:102DE00017030196A11DB11D809314039093150341
:102DF000A0931603B09317030E94BB0338CF6091D2
:102E000087026058770B6D5C7D4F80913D0287FD96
:102E100012C048E852E0461B570B453560F4841752
:102E20000CF4482F10923D02042E000C550B83EA3F
:102E300093E00C94881540E0F5CF462F50E0BC019C
:102E400083EA93E00E9488150C941B158F929F9241
:102E5000AF92BF92CF92DF92EF92FF920F931F93A8
:102E6000CF93DF938091B2001092B20087B3B89AEB
:102E700080FF09C080917401909175010196909333
:102E80007501809374018091740190917501109285
:102E9000750110927401209155023091560221154E
:102EA000310509F404C190916F00946090936F0014
:102EB000C0908A00D0908B00809184009091850012
:102EC000C81AD90AE12C8091840090918500820F64
:102ED000931F90938B0080938A00B29A8091550241
:102EE00090915602C81AD90AE1088091F80281FD32
:102EF00039C080FD06C08091FC029091FD020297CE
:102F000088F12091F80222606E2DA601062E000C99
:102F1000770BDB01CA01342F3295307F2F70232BC2
:102F20002093F802392F3295307F242F22952F706D
:102F3000232B2093F902362F3295307F292F2295AB
:102F40002F70232B2093FA022B2F2295207F862F80
:102F500082958F70822B8093FB0280913202806475
:102F6000809332021092F7021092F60284E1E5EDAE
:102F7000F2E0A1ECB2E001900D928A95E1F778942D
:102F8000C091F302CE3F08F0A7C0C330F0F04E2D41
:102F90009601042E000C550BCA01B9010E9467303E
:102FA0002091EF023091F0024091F1025091F20233
:102FB0000E940832CD3F09F488C06093EF027093FD
:102FC000F0028093F1029093F202CF5FC093F3027C
:102FD00008E812E0D12CC12CB5E3EB2EBCE0FB2EAF
:102FE000D8015096CD91DC915197209709F447C0B4
:102FF0001C962D913D914D915C911F9718966D9166
:103000007D918D919C911B970E940832F8016087F9
:103010007187828793872197D18BC08B2091100372
:1030200030911103F6013696CD2B09F083C0D801FB
:1030300052964D915C91CF01880F991FE901C80FFD
:10304000D91F598348832091100330911103820FB7
:10305000931FFC0180819181F601EE0FFF1FE2506A
:10306000FD4F918380839FB7F894809132028062F4
:1030700080933202F0922902E09228029FBFFFEF74
:10308000CF1ADF0A045F1F4F24E0C216D10409F0F3
:10309000A7CFDF91CF911F910F91FF90EF90DF901D
:1030A000CF90BF90AF909F908F900C94ED08C09000
:1030B0008A00D0908B008091840090918500C81A7E
:1030C000D90AE12C0E940D1109CF20E030E04AE737
:1030D00053E40E94743271CF20E030E048EC52E4B7
:1030E0006091EF027091F0028091F1029091F202F2
:1030F0000E94C6304B015C014E2D9601042E000C3F
:10310000550BCA01B9010E9467309B01AC01C50192
:10311000B4010E94083220E030E04AEC52E40E9400
:1031200074326093EF027093F0028093F1029093F7
:10313000F2024ECFAF01440F551FE901C40FD51F56
:103140000E94E632798368839ACFBF92CF92DF9252
:10315000EF92FF920F931F93CF93DF93EC01162F03
:103160008E856A3009F0A3C0823030F08D858330BF
:1031700008F46DC081E08E878E85823008F453C0DC
:103180008A89882309F44FC08C8D9D8D009711F496
:1031900021E02E872E85223009F47EC0233009F0ED
:1031A00042C0CE014A960E94A0148F85882309F45C
:1031B00062C01C858CA99DA9DC01ED91FC91068063
:1031C000F781E02D0995ECA8FDA881E48F9380ECB0
:1031D00095E09F938F931F9288E08F9383E891E00F
:1031E0009F938F930E94A32F63E871E0C7010E9411
:1031F000F611612FCE010E94280D8CA99DA90E9475
:10320000010D8CA99DA9DC01ED91FC910680F7814F
:10321000E02D09952DB73EB7295F3F4F0FB6F894C3
:103220003EBF0FBE2DBF1E861D868A89882329F0CA
:10323000CE014A960E94A0141A8ADF91CF911F9165
:103240000F91FF90EF90DF90CF90BF900895813065
:1032500009F490CF823009F08FCF1D8A40E150E011
:1032600070E060E0CE0143960E94912D70E0CE01A7
:103270000E94771481CF6C85CE010E945015E8A979
:10328000F9A9309721F0188A099581E0888B61E4CB
:10329000CE010E94AC14C7CF188A2E8D3F8DEEA5AB
:1032A000FFA5821B930B099581E0888BBCCF8130F1
:1032B00021F26D3011F2811179C0ED85E1116DC0FF
:1032C0006B3209F06DC081E08E0F8D87EC0FFD2F02
:1032D000F11D138BFE01E80FF11D138A8B898B32D0
:1032E00009F0ABCF6E0133E1C30ED11C82E58F93A1
:1032F00080ECE82E85E0F82EFF92EF921F9298E086
:10330000B92EBF9203E811E01F930F930E94A32FE1
:10331000B801C6010E94AF35ADB7BEB717960FB65C
:10332000F894BEBF0FBEADBF892BF1F181E48F933E
:10333000FF92EF921F92BF921F930F930E94A32FB1
:10334000B801C6010E94AF352DB73EB7295F3F4F88
:103350000FB6F8943EBF0FBE2DBF892B09F46DCF79
:1033600084E58F93FF92EF921F92BF921F930F936A
:103370000E94A32FB801C6010E94AF35ADB7BEB7FA
:1033800017960FB6F894BEBF0FBEADBF892B09F0DC
:1033900054CF82E08E871D8650CFE63008F493CF5D
:1033A0001D8681E08E8749CF83E0F4CFE62EF12C95
:1033B000C7010E948D35892B19F1ED8581E08E0FB3
:1033C0008D87EC0FFD2FF11D138B833050F782306A
:1033D00009F033CF1D8A40E150E070E060E0CE019B
:1033E00043960E94912D70E0CE01DF91CF911F9105
:1033F0000F91FF90EF90DF90CF90BF900C947714D7
:103400001C3209F41ACFC7010E94542F892B49F2AC
:1034100014CFCF93DF93C091D703D091D803E88125
:10342000F9810084F185E02DCE010995892B69F0A1
:10343000E881F9810284F385E02DCE010995682F9A
:1034400083EA93E00E94A518EACFDF91CF91089517
:103450000E943C0C81110C94091A0895CF92DF92BE
:10346000EF92FF9260917F037091800390E080E083
:103470000E9465309B01AC0160E070EC8FE797E43F
:103480000E94743220E030E040E85FE30E9407329F
:1034900023EC35EF48EA5EE30E94C6300E942933F0
:1034A00020E030EE46E755E40E9474322FE03FEC16
:1034B0004BE55BE30E9408329B01AC0160E070E0E9
:1034C00080E89FE30E94743223E333E948E853E441
:1034D0000E9407326B017C01609162026F3FB1F084
:1034E000062E000C770B880B990B0E94673020E0AA
:1034F00030E040E85EE30E94C630A70196010E94DA
:103500000832FF90EF90DF90CF90089560E070E078
:1035100080EC9FE7F2CF0F931F93CF93DF930E942E
:103520000A0F89E794E00E940B128BE891E00E9459
:10353000D50C0E940A0F81E230E020E0F90180936F
:103540005700649142E050E0FA0180935700749173
:10355000E4E0F0E080935700849199E0F9019093C2
:1035600057002491E3E0F0E0909357003491FA0182
:103570009093570094911F929F931F923F931F9295
:103580002F931F928F931F927F931F926F938BE4C1
:1035900094E09F938F93CBE8D1E0DF93CF930E9489
:1035A000ED1085E494E00E94B50C8DEE92E00E944F
:1035B000B50C85E394E00E940B12CE010E94D50C5D
:1035C0000E940A0F209114033091150340911603B5
:1035D00050911703A9E0B0E00E94CC318B019C010F
:1035E00009501109210931098091790390917A03D9
:1035F00067E670E00E94E631060F171F211D311D9E
:103600003F932F931F930F9381E294E09F938F93A7
:10361000DF93CF930E94ED101F921F9288E194E0F8
:103620009F938F93DF93CF930E94ED108EE094E0F1
:103630000E94B50C89E094E00E94B50C88EF93E0FD
:103640000E94B50C8CEE93E00E94B50C80914F0265
:10365000EDB7FEB77E960FB6F894FEBF0FBEEDBF76
:1036600081FD56C184E51F928F931F9287E18F934E
:1036700089ED93E09F938F93CBE8D1E0DF93CF93D5
:103680000E94ED108FE38F9380E88F931F921F921B
:103690001F9288E08F938AEB93E09F938F93DF9341
:1036A000CF930E94ED108DB79EB742960FB6F89457
:1036B0009EBF0FBE8DBFCFE0D1E0699170E090E07A
:1036C00080E04AE00E949B128CE20E94D00C91E0C4
:1036D000C331D90791F780914F02829581701F9273
:1036E0008F9380EB93E09F938F938BE891E09F9370
:1036F0008F930E94ED1020915D0230915E020F9039
:103700000F900F900F900F900F902115310509F435
:1037100001C180915B0290915C02281B390B50E043
:1037200040E060E070E080E094E00E94AA313F93C6
:103730002F9380915C028F9380915B028F9383EA39
:1037400093E09F938F93CBE8D1E0DF93CF930E94D8
:10375000ED10CE010E94D50C0E940A0F80915F02ED
:10376000082E000C990B982F88279295907F092E90
:10377000000CAA0BBB0B83539343A347B04CBF93DE
:10378000AF939F938F9380916E028F9380916D0280
:103790008F9380916C028F9380916B028F938091B5
:1037A0004F0281701F928F938BE793E09F938F93CB
:1037B000DF93CF930E94ED10609162024DB75EB728
:1037C0004A5E5F4F0FB6F8945EBF0FBE4DBF6F3FAE
:1037D00009F4A3C0062E000C770B880B990B0E94EE
:1037E000673020E030E040E85EE30E94C630EB0145
:1037F000182F092F0E942E1A0F931F93DF93CF9338
:103800009F938F937F936F938BE693E09F938F9318
:10381000CBE8D1E0DF93CF930E94ED100E94880D9A
:10382000209161021F922F93209160021F922F938B
:103830009F938F938FE493E09F938F93DF93CF9326
:103840000E94ED10809163021F928F93809150022D
:103850001F928F9388E393E09F938F93DF93CF938F
:103860000E94ED1082E393E00E94B50C0E94690D66
:103870009C01215031094DB75EB7425E5F4F0FB6D4
:10388000F8945EBF0FBE4DBF2E3F3F4F08F44AC0B5
:103890008FE20E94D00C809156028F938091550246
:1038A0008F9380915A028F93809159028F938091C8
:1038B00058028F93809157028F938BE093E09F93F0
:1038C0008F93CBE8D1E0DF93CF930E94ED108091EE
:1038D00067021F928F93809166028F938091650299
:1038E0008F9389EF92E09F938F93DF93CF930E9402
:1038F000ED108DB79EB742960FB6F8949EBF0FBEDF
:103900008DBFCE01DF91CF911F910F910C94D50CFB
:103910008CE4A9CE20E030E20ACFC0E0D0E010EC89
:103920000FE768CFBC0190E080E00E94653020E0A6
:1039300030E04AE754E40E9474329F938F937F9360
:103940006F938DE293E09F938F93DF93CF930E94C9
:10395000ED10EDB7FEB738960FB6F894FEBF0FBE68
:10396000EDBF99CF2F923F924F925F926F927F92CD
:103970008F929F92AF92BF92CF92DF92EF92FF927F
:103980000F931F93CF93DF93CDB7DEB7A1970FB6F9
:10399000F894DEBF0FBECDBF9A8F898F84ED8093E0
:1039A000870210923E0210923D020BE8802E01E049
:1039B000902E898D9A8D9C01215031093A8F298F43
:1039C000181619060CF016C5109187028DEB93E0BE
:1039D0000E944A0DE0918702E058E53508F0E4E5E1
:1039E000F0E0ED5CFD4F80838091870291E0980FBD
:1039F00090938702143D11F580938702298D3A8DAB
:103A0000232BB9F6893BA9F680913D02823089F6D5
:103A100083E498E0909378028093770285E0EAE06F
:103A2000F1E0A9E7B2E001900D928A95E1F787E015
:103A300080933D0284EC80938702BBCF1A3811F447
:103A400084EDF9CF193809F0B4CF90913C02933846
:103A500009F4A8C208F072C0933209F413C2E0F569
:103A6000923109F4D5C140F5903109F4F5C1913195
:103A700009F09FCF409038025090390260903A028E
:103A800070903B02A0903602B0903702C090330293
:103A9000D0903402809135028F3F09F0E6C1F12CBD
:103AA00093018201A501B6018F2D0E945D07F39459
:103AB00024E0F212F5CF7DCF298D3A8D913209F4B1
:103AC000DBC108F0DCC144E06CEB903209F071CF4F
:103AD000C9010E94E10E6DCF933509F4E7C1D0F41E
:103AE000913509F41AC208F0D2C1903509F061CFBE
:103AF00060E0CE0149960E94D00E823941F49FB712
:103B0000F894809132028260809332029FBF0E94BB
:103B1000830B4FCF963509F4CCC1923809F420C2FB
:103B2000943509F046CF10922B0210922A0210927F
:103B30002F0210923002109231023BCF953909F4D6
:103B400072C208F0B6C0963809F470C238F59438DD
:103B500009F43EC2953809F02CCF61E0CE014996B8
:103B60000E94D00E2091ED023091EE02820F932F31
:103B7000911D9093EE028093ED029F938F938DE7BA
:103B800092E09F938F939F928F920E94ED100F90DF
:103B90000F900F900F900F900F900BCF933909F467
:103BA000CAC108F031C2913909F003CF1F928CE9E4
:103BB0008F931F9287E18F9388E08F9383E48F9395
:103BC00084ED92E09F938F939F928F920E94ED10CD
:103BD0000FB6F894DEBF0FBECDBF0FE412E0BFEC0E
:103BE000EB2EB2E0FB2ED8018D918D011F928F93A9
:103BF000FF92EF929F928F920E94ED100F900F9084
:103C00000F900F900F900F90B2E008361B0759F7F6
:103C10000E9405127FE8E72E73E0F72E10E000E027
:103C2000E3EAAE2EF7E17F2EA3EDCA2EA1E0DA2E55
:103C30001F930F931F92AF921F927F921F930F9328
:103C4000DF92CF929F928F920E94ED108BE891E0CD
:103C50000E94D50C0FB6F894DEBF0FBECDBFB12CBD
:103C6000D70114968C911497B81608F03EC18B2D8D
:103C700090E012960D90BC91A02DA80FB91F2C9129
:103C80001F922F93D701ED91FC91E80FF91F8081CE
:103C90001F928F93EAECF1E0FF93EF939F928F9244
:103CA0000E94ED10B3940FB6F894DEBF0FBECDBFE7
:103CB000D7CF933A09F439C3E0F4913A09F462C2D8
:103CC00008F084C3903A09F074CE6FEFCE014996A4
:103CD0000E94D00E182F6FE7CE0149960E94D00E99
:103CE000082F143008F045C2682F812F0E940F134F
:103CF00060CE9D3E09F4AEC19E3E09F4EDC1943AFA
:103D000009F057CEFE0131967F0110E000E0E0910E
:103D10001003F0911103C8010696880F991FE80F50
:103D2000F91F8081D7018D937D0170E060E0802FC5
:103D30000E94370A0F5F1F4F0430110541F710E052
:103D400000E093EF292E91E0392E0D8FC12CD12C5C
:103D50007601B12CA12C0E94200B2B016D8DC50189
:103D60000E94FA068F8F98A30E94200B6419750990
:103D70002B01712C612CC414D504E604F704B8F4AB
:103D80007F936F93B8A1BF93EF8DEF93BF92AF92E4
:103D900020E132E03F932F939F928F920E94ED108B
:103DA0000FB6F894DEBF0FBECDBF73016201BFEF47
:103DB000AB1ABB0AA114E0E2BE0669F6FF92EF92CD
:103DC000DF92CF921F930F933F922F929F928F92E9
:103DD0000E94ED100F5F1F4F0FB6F894DEBF0FBEAD
:103DE000CDBF0430110509F0B0CF698170E080E0EB
:103DF0000E94370A6A8170E081E00E94370A6B8175
:103E000070E082E00E94370A6C8170E083E02AC093
:103E1000898D9A8D9C01215031093A8F298F18166E
:103E20001906BCF48DEB93E00E944A0D282F2F70E9
:103E300014E0959587951A95E1F78F70880F90910A
:103E40003D02890F80933D022A5B220F2093870257
:103E5000B0CD20E088E0F2CF609136027091370259
:103E6000809135020E94370AA4CD93018201A501F9
:103E7000B6010E945D079DCD42E060EC29CE42E094
:103E800062EC26CE44E068EB898D9A8D22CE80E0EC
:103E900090E0A0E8BFE38093770290937802A0932C
:103EA0007902B0937A0244E064ECEECF0E948B1A60
:103EB00080CD898D9A8D9C01215031093A8F298FAF
:103EC000181619060CF075CD8DEB93E00E944A0D83
:103ED000E0910E03F0910F0321E0019709F020E03B
:103EE000808120FB81F9808364CD9FE19B1528F0C0
:103EF00080E30E94D00CB394F8CF0E9405128BE8A7
:103F000091E00E94D50C0F5F1F4FA5E0EA0EF11C57
:103F10000430110509F08CCE4CCD0E94C4039FB72C
:103F2000F894809132028260809332029FBF81E0D8
:103F30000E94C2153ECD1FB7F89460E0CE014996AD
:103F40000E94D00E823929F48091320282608093DF
:103F50003202809132028E7F809332021FBFE7CF00
:103F600061E0CE0149960E94D00E20915502309119
:103F70005602820F932F911D909356028093550203
:103F80009F938F939F938F938CEB92E09F938F934C
:103F90009F928F920E94ED100FB6F894DEBF0FBE75
:103FA000CDBF07CD61E0CE0149960E94D00E209191
:103FB000550230915602281B310930935602209346
:103FC00055023F932F933F932F9389EA92E0DECFE0
:103FD000898D9A8D9C01215031093A8F298F029742
:103FE00044F042E050E065E572E08DEB93E00E9422
:103FF000631580915502909156029F938F939F93E2
:104000008F9386E992E0C2CF8CE892E00E940B1277
:104010000E94C80A64EF71E080E090E00E94450BC6
:104020000E94D70FC6CC0E941712C3CC61E0CE010C
:1040300049960E94D00E2091ED023091EE02281B8D
:1040400031093093EE022093ED023F932F938EE6D9
:1040500092E097CD88E692E00E94B50C8091C30271
:104060009091C402892B99F1F12C0DE512E09F2D5E
:10407000A4E09A02F0011124E857FD4F23AD34ADBE
:104080002115310509F46BC041ADE0911003F091A9
:104090001103842F042E000C990B0696880F991F8C
:1040A000E80FF91F81818F9380818F933F932F9326
:1040B0001F924F931F930F939F928F920E94ED1028
:1040C000F3940FB6F894DEBF0FBECDBFD0CF8AE415
:1040D00092E00E940B126DCC84E492E00E94B50C39
:1040E00033E3E32E32E0F32E00E810E04DE3A42E9C
:1040F00042E0B42E58E3C52E52E0D52E602EF02FAC
:10410000F3707F2E71F41F930F93BF92AF929F9223
:104110008F920E94ED100F900F900F900F900F90C4
:104120000F90D7018D917D011F928F93DF92CF92D7
:104130009F928F920E94ED10862D8F700F900F909E
:104140000F900F900F900F908F3061F481E392E009
:104150000E94B50C0F5F1F4F053D110579F60E94B7
:10416000051227CCB3E07B12F5CF80E20E94D00C81
:10417000F1CF10E0602F812F0E940F131F5F1430CA
:10418000C9F717CC898D9A8D05970CF412CC44E0B1
:1041900050E0BE016F5E7F4F8DEB93E00E94631590
:1041A000E98CFA8CE81AF90AFA8EE98EE0FC01CC67
:1041B000E6948FEF8E0D883008F0FBCBCE01019690
:1041C0009C8F8B8F80E1AB8DBC8D1D928A95E9F71A
:1041D000F12CA701BE016F5F7F4F8DEB93E00E9432
:1041E0006315298D3A8D281B390B3A8F298FA7012A
:1041F000BE01675F7F4F8DEB93E00E946315298DB1
:104200003A8D281B390B3A8F298FC988DA882C8878
:10421000312CBFEF2B1A3B0A2B89229DC001239D15
:10422000900D1124FC01EC0DFD1DFE8FED8F3F92D2
:104230002F92FF93EF93DF92CF928CE391E09F93C5
:104240008F939F928F920E94FD1087E7682E82E0E5
:10425000782E0FB6F894DEBF0FBECDBFB12C8D8D7A
:104260009E8DC816D9060CF05EC090E1B91609F40F
:104270005AC0B60190E080E00E9465302CE73CE730
:1042800040E052E40E947432562E79A38C0120E063
:1042900030E04FE753E40E94603087FD04C0512CAA
:1042A00019A20FE713E4A9E0B0E0AC0FBD1FB88F6F
:1042B000AF8BE1E0F0E0EC0FFD1FFE8BED8B49A032
:1042C0000F8F18A3052D142D2F8D38A1A701BE0126
:1042D000695E7F4FCE0145960E94AB040E94150493
:1042E000D3018C9311969C93B2E06B0E711CB39426
:1042F000B3949F938F93E8A1EF93FF8DFF934F9219
:104300005F92DF92CF922AE531E03F932F939F9205
:104310008F920E94FD10C20CD31C0FB6F894DEBF22
:104320000FBECDBF9CCF4B2DBFCD6FEFCE014996B9
:104330000E94D00EE82EB3E0B81708F43ACBFFB6CF
:10434000F894E7E7F2E080E1DF011D928A95E9F752
:10435000098D1A8D10161106A4F5013108F000E13F
:1043600010E0A80167E772E08DEB93E00E9463150F
:104370000817190751F4B5E0EB9EC001112467E757
:1043800072E081579C4F0E948E1080914F028F7E69
:1043900080934F028091930381110CC08091980308
:1043A000811108C080919D03811104C08091A203F6
:1043B000882329F080914F02806180934F02FFBED5
:1043C000F8CAE5E0EE9EC0011124D9CF6FEFCE010F
:1043D00049960E94D00E843008F0EBCAF5E08F9F1A
:1043E000C001112467E772E081579C4F0E949A0335
:1043F00040E15ACDA1960FB6F894DEBF0FBECDBFF7
:10440000DF91CF911F910F91FF90EF90DF90CF90B0
:10441000BF90AF909F908F907F906F905F904F90E4
:104420003F902F9008951F920F920FB60F92112474
:104430002F933F938F939F93AF93BF9380917B0173
:1044400090917C01A0917D01B0917E0130917A0123
:1044500026E0230F2D3758F50296A11DB11D20939C
:104460007A0180937B0190937C01A0937D01B093AE
:104470007E0180917F0190918001A0918101B09196
:1044800082010196A11DB11D80937F01909380014F
:10449000A0938101B0938201BF91AF919F918F91C1
:1044A0003F912F910F900FBE0F901F90189529E804
:1044B000230F0396A11DB11DD2CF1F920F920FB6ED
:1044C0000F9211242F933F934F935F936F937F939A
:1044D0008F939F93AF93BF93EF93FF93E09102016C
:1044E000F09103010995FF91EF91BF91AF919F91D9
:1044F0008F917F916F915F914F913F912F910F908D
:104500000FBE0F901F9018951F920F920FB60F922B
:1045100011242F933F934F935F936F937F938F93C8
:104520009F93AF93BF93EF93FF93E0910001F091BE
:1045300001010995FF91EF91BF91AF919F918F91EB
:104540007F916F915F914F913F912F910F900FBE8F
:104550000F901F9018951F920F920FB60F92112473
:104560002F933F934F935F936F937F938F939F937B
:10457000AF93BF93EF93FF938BE891E00E94460CBB
:10458000FF91EF91BF91AF919F918F917F916F912B
:104590005F914F913F912F910F900FBE0F901F9001
:1045A00018951F920F920FB60F9211242F938F938D
:1045B0009F93EF93FF93E0919B01F0919C01808189
:1045C000E091A101F091A20182FD1BC09081809138
:1045D000A4018F5F8F732091A501821741F0E091B4
:1045E000A401F0E0E557FE4F958F8093A401FF9161
:1045F000EF919F918F912F910F900FBE0F901F9071
:1046000018958081F4CF1F920F920FB60F9211244C
:104610008F939F938091760190917701019690936B
:104620007701809376019F918F910F900FBE0F902D
:104630001F9018951F920F920FB60F9211248F930F
:104640009F938091740190917501019690937501EB
:1046500080937401809128029091290218161906FE
:104660002CF40197909329028093280280912A02CA
:1046700090912B02009729F0019790932B02809341
:104680002A029F918F910F900FBE0F901F90189547
:104690001F920F920FB60F9211242F933F934F93B7
:1046A0005F936F937F938F939F93AF93BF93EF939A
:1046B000FF930E940D11FF91EF91BF91AF919F91D8
:1046C0008F917F916F915F914F913F912F910F90BB
:1046D0000FBE0F901F9018951F920F920FB60F925A
:1046E00011242F933F934F935F936F937F938F93F7
:1046F0009F93AF93BF93CF93DF93EF93FF93C091BB
:10470000C00281E08C0F8093C00284E0C802E00107
:104710001124CF53DD4F6091F50288810E94EC0E89
:104720002E813F8121153105C9F480916F00897F69
:10473000846080936F00FF91EF91DF91CF91BF91E3
:10474000AF919F918F917F916F915F914F913F9129
:104750002F910F900FBE0F901F9018952496FE0179
:104760003297808191818217930770F48091840041
:104770009091850006968217930708F4C9019093DB
:10478000890080938800D7CF8091C0028F5F80938B
:10479000C002C1CF1F920F920FB60F9211242F9318
:1047A0003F934F936F937F938F939F936091780084
:1047B0007091790080918503909186030196909382
:1047C00086038093850318161906DCF4209189036B
:1047D00030918A0340918B03260F371F411D209390
:1047E000890330938A0340938B0320918703309190
:1047F00088038217930728F010927A0081E0809353
:104800008E039F918F917F916F914F913F912F9147
:104810000F900FBE0F901F90189510927A008EE99E
:1048200093E00E947D1089E993E00E947D1084E965
:1048300093E00E947D108FE893E00E947D1089E252
:1048400091E09093A4038093A30387EC93E00E94EC
:10485000E2118DEB93E00C94E211CF93DF93ABE880
:10486000B1E013961C921E92129748EE53E060E05E
:1048700070E014964D935D936D937C93179787E149
:1048800091E011969C938E9385EC90E01D969C93FD
:104890008E931C9784EC90E01F969C938E931E97AA
:1048A00080EC90E051969C938E93509781EC90E031
:1048B00053969C938E93529782EC90E055969C93DE
:1048C0008E93549786EC90E057969C938E935697D0
:1048D00059961C9259975A961C925A975B961C921D
:1048E0005B975C961C925C97E3EAF3E0138212827A
:1048F000448355836683778389E291E09183808343
:104900008EEF848715861686178681E0808B118A44
:10491000128A26EB33E087E0E90119928A95E9F7DC
:10492000138E128E158E148E178E168E11A210A253
:1049300013A212A215A214A217A216A211A610A6C3
:1049400013A612A615A614A617A616A611AA10AA93
:1049500089E09AE193AB82ABB5ABA4ABE8E2F2E0BD
:104960008FEF9FEF9183808382E19AE79383828325
:10497000148215821682178210861186128686E8A6
:10498000E8E8F2E0DF011D928A95E9F78FE492E012
:1049900090930F0380930E0383E392E090931103AF
:1049A00080931003EFE8F3E01182108213821282E9
:1049B000148216821582108617821186138612863B
:1049C000158614861686108A1786128A118A138A0B
:1049D00087E6E2E1F3E0EF0119928A95E9F7109298
:1049E0007A031092790388E79CEEAFEFBFEF8093D4
:1049F0007B0390937C03A0937D03B0937E03EFE74A
:104A0000F3E086E0DF011D928A95E9F71786DF91D2
:104A1000CF910895CF93DF93CDB7DEB7C856D109B4
:104A20000FB6F894DEBF0FBECDBF789484B5826018
:104A300084BD84B5816084BD85B5826085BD85B542
:104A4000816085BD80916E00816080936E001092C0
:104A5000810080918100826080938100809181003B
:104A600081608093810080918000816080938000CC
:104A70008091B10084608093B1008091B00081602A
:104A80008093B00080917A00846080937A00809156
:104A90007A00826080937A0080917A008E7F809382
:104AA0007A0080917A00806880937A001092C10029
:104AB000E0919B01F0919C0182E08083E09197015D
:104AC000F09198011082E0919901F0919A0180E1B2
:104AD00080831092A301E0919F01F091A00186E0F4
:104AE0008083E0919D01F0919E01808180618083AF
:104AF000E0919D01F0919E01808188608083E0912A
:104B00009D01F0919E01808180688083E0919D01EC
:104B1000F0919E0180818F7D80830E940A0F82EE3A
:104B200094E00E940B128BE891E00E94D50CE5E323
:104B3000F2E083E5DF011D928A95E9F78FEF9FEFA1
:104B400090933402809333028091AF038E3FC1F083
:104B50008EEF8093AF031092B0031092B1031092C6
:104B6000B20381E08093B3031092B4031092B503B3
:104B70008DEB93E00E94E21187EC93E00E94E2113A
:104B800087E18093AF0382EB9CE19093D203809303
:104B9000D1038FEF96E19093D4038093D3038FEFEB
:104BA0009FEF90937A038093790310E000E0412C0B
:104BB000512C32010F39B3E01B0751F1BE016F5F79
:104BC0007F4FC8010E943B0FCE0103960E947503E0
:104BD00029813A8128173907C1F44B815C816D81A5
:104BE0007E81441555056605770578F010937A03A4
:104BF0000093790387E6FE013196A2E1B3E00190CC
:104C00000D928A95E1F72A013B0109591F4FD2CF36
:104C10008091790390917A03019609F05EC10E9418
:104C2000171260E08EE00E94970A60E083E00E9425
:104C3000970A109268021092690210926A020E940A
:104C4000D70FDE0111967D01E0E46E2E712C80916C
:104C5000780190917901892B09F4B7C10E94D70F8F
:104C6000882309F432C1F89410927A0010927B00E4
:104C700010928D0310928E03B0E4B0937C0070927A
:104C800088036092870310928C03E8EFFFEFF093A4
:104C90008603E09385031092890310928A03109291
:104CA0008B03FFEEF0937A0078940E94770B4B0110
:104CB0005C012AEF820E911CA11CB11C0E94770B93
:104CC000681579058A059B0550F480918E03882329
:104CD000A9F30E94190380918D03823079F78090A7
:104CE0006B0290906C02A0906D02B0906E02A501D4
:104CF0009401C501B4010E947133811184C020E088
:104D000030E0A901C501B4010E946030882309F494
:104D10007AC0E0910E03F0910F036589062E000C16
:104D2000770B53E0769567955A95E1F790E080E030
:104D30000E9465301B012C01A501940160E074E222
:104D400084EF98E40E9474329B01AC01C201B1016E
:104D50000E9408320E94ED327093EE026093ED02E1
:104D60001092EF021092F0021092F1021092F202F1
:104D70001092F30219821092320286E0A8EFB2E09C
:104D80001D928A95E9F71092F5026EEFA62E62E069
:104D9000B62E0FE011E088248A94982CF5018192B8
:104DA00091925F01D8015D908D01852D0E944E0A80
:104DB00061E0852D0E94970AB1E003311B0771F76E
:104DC000F8941092B00081E08093B100809170005F
:104DD000816080937000E6E2F7E1F0930301E093D5
:104DE000020180916900837F886080936900E99A5D
:104DF0001092800082E08093810080916F00887D16
:104E000080936F00789480914F0280FF32C041E31D
:104E1000A42E43E0B42EA9961FAEA997D5018D907C
:104E20009D905D0181149104D9F020905102309041
:104E30005202409053025090540220E030E0A90109
:104E4000C201B1010E946030882351F092018101BA
:104E5000A4016FEF7FEFA9968FADA9970E945D0720
:104E6000A996BFADA997BF5FA996BFAFA997B43068
:104E7000A9F60E94880D90937402809373020E9499
:104E80002E1A60936F027093700280937102909358
:104E900072020E94690D909376028093750268E118
:104EA00083EA93E00E94501567EF83EA93E00E9443
:104EB00094146CE08BE692E00E941D17F8948091A8
:104EC000320284608093320278940E943C0C8823E2
:104ED00009F4BDCE0E94091ABACE80911903873316
:104EE00008F487E38E3708F08DE78093190389E192
:104EF000E8E1F3E0AFE4B2E001900D928A95E1F7CA
:104F00008FE893E00E947D1084E993E00E947D1079
:104F100089E993E00E947D108EE993E00E947D1064
:104F200069E373E08FE893E00E948E1069E473E018
:104F300084E993E00E948E1069E573E089E993E0CB
:104F40000E948E1069E673E08EE993E00E948E1055
:104F50000E940A0FE0917903F0917A038091130384
:104F60008F93809112038F93CF0167E670E00E94C8
:104F7000E6314B01B12CA12C29E0821A9108A1083D
:104F8000B108A9E0B0E0A30192010E94CC31860EE5
:104F9000971EA81EB91EBF92AF929F928F92FF9349
:104FA000EF937F926F925F924F928FEB94E09F937B
:104FB0008F938BE891E09F938F930E94ED100FB633
:104FC000F894DEBF0FBECDBF2CCE80918E03811131
:104FD0000E941903F89450903202789452FE09C04E
:104FE000F894809132028B7F8093320278940E94F1
:104FF0008B1A0E94770B4B015C0153FE1BC0F89487
:1050000080913202877F80933202789468E183EA4C
:1050100093E00E94501564EF83EA93E00E94941499
:105020006FEF83EA93E00E94941463E088E692E0D5
:105030000E941D1754FE18C0F8948091F4028983D1
:10504000809132028F7E80933202789468E183EA05
:1050500093E00E94501565EF83EA93E00E94941458
:1050600061E0C7010E941D1755FE41C0F894809170
:10507000280290912902892B09F0B3C18091320254
:105080008F7D809332028FEF9FEF90932902809360
:105090002802EEEFF2E0870180E04FEF5FEF219111
:1050A00031912F3F320761F0D8018C9312963C93D7
:1050B0002E931197DF0112974D935C930D5F1F4F55
:1050C0008F5F843061F77894E016F10681F068E133
:1050D00083EA93E00E94501562EF83EA93E00E9416
:1050E0009414B8016E197F09C7010E941D1750FE64
:1050F00012C00E94770B00917B0310917C032091DA
:105100007D0330917E03601771078207930718F0C3
:1051100080E00E94C21556FE84C0F89486E0E8EF55
:10512000F2E0D70101900D928A95E1F7898181FF24
:105130005AC186E0E8EFF2E011928A95E9F7809192
:1051400032028F7B80933202789468E183EA93E0A5
:105150000E94501566EF83EA93E00E94941466E083
:10516000C7010E941D17998192959F708A81282FEF
:105170002295207F422F492B982F92959F708B81EB
:10518000282F2295207F522F592B82958F709C813A
:10519000292F2295207F622F682B792F72957F709F
:1051A0001A012B0194E0220C331C441C551C9A95C7
:1051B000D1F724E055944794379427942A95D1F752
:1051C000C201B1010E9467309F938F937F936F93C9
:1051D000D201C10133E0880F991FAA1FBB1F3A9566
:1051E000D1F7BF93AF939F938F938E818F938D81D0
:1051F0008F938981869581701F928F9389818170A9
:105200001F928F9387EE94E09F938F93EBE8F1E0EA
:10521000FF93EF930E94ED100FB6F894DEBF0FBE20
:10522000CDBF80912A0290912B02892B09F04DCE9F
:1052300010927A00F894A2E1BAE7B0932B02A093FF
:105240002A0278940E94690D0E942E1A1B012C01DB
:1052500020926F023092700240927102509272025C
:10526000AC019B010E947133811105C0C201B101E3
:105270000E94E6326B010E94880D8C0190937402AB
:1052800080937302BC01990F880B990B0E946730C1
:105290009B01AC010E947133811104C0C016D1067C
:1052A0000CF46801892C9A2CAB2CBB2414014A2CD9
:1052B00080915002882309F444C08C151D040CF021
:1052C00040C080912C0290912D02A0912E022816B0
:1052D00039064A06B0F1AA2DC4018B589F4FAF4F33
:1052E00080932C0290932D02A0932E0280914F0266
:1052F00082FD05C0846080934F020E94830B512C75
:1053000000E010E020E231E450E040E06FEF7FEF9A
:10531000852D0E945D075394B4E05B12F1CFC982E2
:10532000809150028A8368E183EA93E00E945015DD
:1053300061EF83EA93E00E94941462E0C7010E9447
:105340001D1780916302882371F120912F02309103
:1053500030024091310222163306440620F1E4E087
:105360008E9FC0011124092E000CAA0B880D991DD7
:10537000AA1D80932F0290933002A093310268E11E
:1053800083EA93E00E94501560EF83EA93E00E9465
:1053900094146C2D83EA93E00E9494146CE08BE6E5
:1053A00092E00E941D17F89410928D0310928E03C4
:1053B000F0E4F0937C00709288036092870310926F
:1053C0008C0388EF9FEF9093860380938503109260
:1053D000890310928A0310928B039FEE90937A00B8
:1053E00073CD789484CE8091F8028E7F8093F802FA
:1053F000A6CEAFE0B0E0EFEFF9E20C945A2D6C01CD
:105400001B015A01FC0117821682838181FF48C368
:105410009E012F5F3F4F4901F6019381F10193FDFA
:10542000859193FF81911F01882309F4E7C285329A
:1054300039F493FD859193FF81911F01853239F4F1
:10544000B60190E00E94732F35015301E5CFF12C96
:10545000512C00E0003238F48B3209F190F48032A4
:10546000F9F0833209F107FD34C020ED280F2A300E
:1054700020F506FF1BC0FAE0FF9E200D1124F22E3E
:1054800005C08D3279F0803371F70160F10193FD31
:10549000859193FF81911F018111DCCF1AC00260B9
:1054A0000460F4CF0860F2CF0061F0CF3AE0539E81
:1054B000200D1124522E0062E9CF8E3221F406FD18
:1054C0009DC20064E3CF8C3611F40068DFCF8836CC
:1054D000E9F29BEB980F933008F05FC00061805EAB
:1054E00006FD02C046E0F42E102F1F73853609F02A
:1054F0005BC0106417FF61C08F2D9BE39F1508F4FC
:105500008BE344244394480E27E03501F4E06F0E0A
:10551000711CF5016081718182819381042DA40148
:105520000E947C2E5C01F981FC87F0FF03C00DE234
:10553000F3FF07C00BE211FD04C0012F047012FD40
:1055400000E22C852C70E22E09F457C00111ABC289
:10555000F3E0E12CF515A0F483E0E52CE81A13FD47
:1055600008C0B60180E290E00E94732FEA94E11037
:10557000F8CF002329F0B601802F90E00E94732F0E
:105580003C8522ECA22E20E0B22E33FD04C096EC26
:10559000A92E90E0B92E107122C09BE9980F93308C
:1055A00008F033C10F7E9CCF863611F41068A2CF6D
:1055B000FF2009F49FCFFA949DCFE7E02F2DEF1540
:1055C00018F427E037E0F32E412C9FCF11118052C1
:1055D000B60190E00E94732F8FEFA81AB80AF50168
:1055E00084918111F3CFEE2009F42FCFB60180E230
:1055F00090E00E94732FEA94F6CF17FF6FC04A0C19
:10560000FC85F4FF04C08A81813309F44A941414A0
:105610000CF086C028E0241510F488E0482E85E0C0
:1056200090E017FF06C0C501B7FE02C090E080E021
:10563000019601110196FF2031F02F2D30E02F5FF0
:105640003F4F820F931F5816190619F014F0E52CDE
:10565000E81A812F897011F4E11067C0002329F046
:10566000B601802F90E00E94732F13FD02C0E1105D
:1056700063C017FF7CC08501B7FE02C010E000E0E8
:10568000C501841991092C016F2D70E0EE27FF27C9
:10569000E61BF70BFF87EE870F3F100729F4B601D3
:1056A0008EE290E00E94732FA016B1060CF44BC05E
:1056B000401651060CF047C0F501E01BF10BE80D58
:1056C000F91D8181015011092E853F8502171307AD
:1056D000E4F1B60190E00E94732FDECF16FD9FCF5C
:1056E000EF2DF0E0EA15FB0534F03CEFA3163FEF99
:1056F000B3060CF010683296E80DF91D01C0FA945B
:10570000FF2019F082918033D1F317FF88CF442412
:1057100043944F0CFA141B0431F02CF0FA187FCF8D
:10572000442443947CCFF12C7ACFB60180E290E000
:105730000E94732FEA9490CFB60180E390E00E941C
:10574000732FEA9494CF80E3BDCFA016B10641F445
:105750009A81963350F4953319F43C8534FF05C093
:10576000B60190E00E94732F3ECF81E3F9CF8A818A
:10577000813319F09C859F7E9C87B60190E00E9442
:10578000732FFF20A9F0B6018EE290E00E94732FE4
:10579000F394F394E2E001E00E0FE80DF92DF11D12
:1057A0008081B60190E00E94732FE02F0F11F3CF9C
:1057B00085E690E014FF02C085E490E0B6010E9407
:1057C000732FB7FC06C0A114B104C1F4EC85E4FF4B
:1057D00015C0B194A194B1088DE2B60190E00E9489
:1057E000732F80E32AE0A216B10454F4B60190E0CE
:1057F0000E94732FB601C501C096B4CF8BE2EDCFE6
:105800008F5FFAE0AF1AB108EDCF8336C9F0833766
:1058100071F1833509F05BC03501F2E06F0E711C48
:10582000F501A080B1806F2D70E006FD02C06FEF22
:105830007FEFC5010E945D2F9D878C8700680DC09A
:10584000350132E0630E711CF5018081898321E00E
:1058500030E03D872C8754010F7703FD06C02C856F
:105860003D855216130609F0A8F4E52C2BC035012E
:1058700032E0630E711CF501A080B1806F2D70E0E5
:1058800006FD02C06FEF7FEFC5010E94682F9D8764
:105890008C87E2CFB60180E290E00E94732F5A9489
:1058A000DECFF50107FD859107FF81915F01B6010C
:1058B00090E00E94732FE110EA948C859D850197FA
:1058C0009D878C87EC85FD85EF2B59F78CCE843630
:1058D00019F0893609F074C0350107FF66C0F4E09D
:1058E0006F0E711CF5016081718182819381102F8F
:1058F0001F7697FF08C090958095709561957F4FB2
:105900008F4F9F4F10682AE030E0A4010E94FF2FC4
:10591000A82EA818BA2C012F16FF0AC00E7FAF14AC
:1059200038F414FF04C012FD02C0012F0E7EBF2CFC
:1059300004FF8EC0FE01EA0DF11D8081803309F065
:1059400080C0097EF02FF870EF2E03FD90C000FF9D
:105950008AC0FA2CB51410F4F50CFB1804FF8DC0A6
:10596000B60180E390E00E94732F02FF09C088E730
:1059700090E001FF02C088E590E0B6010E94732F1D
:10598000AF1408F486C0AA940A2D10E00F5F1F4FD1
:10599000080D191DF80182918F01B60190E00E9457
:1059A000732F80169106B1F71ECEF2E06F0E711CB8
:1059B000F50160817181072E000C880B990B97CF40
:1059C000102F8537A9F41F7E2AE030E0350117FF3C
:1059D0002FC0F4E06F0E711CF5016081718182812E
:1059E0009381A4010E94FF2FA82EA8181F7792CFA1
:1059F000197F8F36D1F048F4883591F0F601868111
:105A000097812F96E2E10C94762D803739F0883714
:105A1000A9F714FD146020E130E0D8CF1061F9CF70
:105A200004FD166020E132E0D1CF28E030E0CECF97
:105A3000F2E06F0E711CF5016081718190E080E0F1
:105A4000D0CF02FD02C0B3947DCFB394B3947ACF8C
:105A5000802F867809F476CFF6CFB60180E290E009
:105A60000E94732FB394B514C0F3E12C77CFE52CCB
:105A7000EB18B51408F472CFF8CF802F867809F4AC
:105A80007FCF8BE201FF80E207FD8DE2B60190E05F
:105A900075CFB60180E390E00E94732FFA9470CF27
:105AA0008FEF9FEFAECF24E0E12C251508F063CDFA
:105AB00084E053CD2F923F924F925F926F927F92EC
:105AC0008F929F92AF92BF92CF92DF92EF92FF920E
:105AD0000F931F93CF93DF93CDB7DEB7CA1BDB0BBA
