:100000000C94E5020C948C200C9465200C940D0348
:100010000C940D030C940D030C940D030C940D0320
:100020000C940D030C9422210C940D030C940E22BD
:100030000C9450210C940B210C940D030C940D0383
:100040000C941B200C940D030C94D9200C94B32019
:100050000C940D030C940D030C940D030C940D03E0
:100060000C940D030C940D0308000000BE9224496B
:10007000123EABAAAA2ABECDCCCC4C3E00000080DA
:10008000BEABAAAAAA3E00000000BF000000803F4D
:100090000000000000084178D3BB4387D1133D190D
:1000A0000E3CC3BD4282AD2B3E68EC8276BED98F3A
:1000B000E1A93E4C80EFFFBE01C4FF7F3F0000007E
:1000C00000006E616E00696E660000407A10F35A9F
:1000D00000A0724E18090010A5D4E80000E8764888
:1000E000170000E40B54020000CA9A3B000000E134
:1000F000F505000080969800000040420F000000C7
:10010000A08601000000102700000000E8030000A6
:1001100000006400000000000A0000000000010070
:10012000000000002C76D888DC674F0823DFC1DF91
:10013000AE59E1B1B796E5E3E453C63AE651997694
:1001400096E8E6C28426EB898C9B62ED407C6FFCCE
:10015000EFBC9C9F40F2BAA56FA5F490055A2AF710
:100160005C936B6CF9676DC11BFCE0E40D47FEF519
:1001700020E6B500D0ED902E030094357705008081
:10018000841E080000204E0A000000C80C333333E0
:10019000330F986E12831141EF8D2114893BE65580
:1001A00016CFFEE6DB18D1844B381BF77C1D901D63
:1001B000A4BBE424203284725E228100C9F124ECC5
:1001C000A1E53D272B52454D3D00253032782530A5
:1001D0003278002B52454D3D63756269635F696EED
:1001E000742C25752C693263743D253032782530A6
:1001F0003278002B52454D3D6368616E6E656C3DF3
:1002000025752C6D617874696D653D256C750A00E6
:100210002B52454D3D6C6576656C3D25642C7265B1
:1002200073756C743D25642C74696D653D25750A84
:10023000000A2B52454D3D0025303278005B2530B9
:1002400032785D002B52454D3D004E6F2063686152
:100250006E6E656C73206163746976650025753D0B
:1002600025752825752920002B52454D3D002B5220
:10027000454D3D7469636B733D25640A002B5245FF
:100280004D3D7469636B733D25640A002B52454DE7
:100290003D66726571002B52454D3D7A633D257573
:1002A0002C3078253034780A002B52454D3D7A6346
:1002B0003D25752C3078253034780A002B52454D79
:1002C0003D7A633D25752C3078253034780A002539
:1002D000303278002B52454D3D76253034782C69EC
:1002E0003263743D25303278253032780041546DC8
:1002F0006567613332385042002C6D696E2E6F6E27
:100300002D74696D653D25752C6D696E2E6F666661
:100310003D25752C5A433D25750A00252E33660070
:100320002C5643433D006D61782E74656D703D25FC
:10033000752C6D6574726963733D257500696E7403
:100340002E74656D703D25642F6F66733D25752F86
:100350006761696E3D25752C004E54433D252E3254
:10036000662F252B2E32662C0076616C7565733DE9
:10037000726573746F72653D25752C663D252E334D
:1003800066487A2C7672656631313D252E33662CAF
:100390000072616E67653D25642D25640A006375F2
:1003A0006269633D25752C0074696D6572313D2568
:1003B000752F252E32662C6C766C733D38313932B0
:1003C0002C70696E733D00616464723D2530327833
:1003D0002C6D6F64653D25632C0070726F746F3DEA
:1003E000554152542C00666164696E675F6576659D
:1003F0006E74733D312C005643432C00696E742E8D
:1004000074656D702C004E54433D4125752C006F72
:100410007074696F6E733D454550524F4D3D256C6C
:10042000752C0040384D687A2C6763633D372E3356
:100430002E30002C4D43553D007369673D25303209
:10044000782D253032782D253032782C66757365FD
:10045000733D6C3A253032782C683A253032782C4E
:10046000653A25303278004D4F5346455420446953
:100470006D6D657220322E322E33204E6F76203213
:100480003920323032322030393A33353A34302064
:10049000417574686F72207361736368615F6C612A
:1004A0006D6D65727340676D782E646500454550CB
:1004B000524F4D522C633D256C752C703D25752C8B
:1004C0006E3D256C752C6372633D253034780A00CF
:1004D000424F4F54002B52454D3D6C6F73742C6945
:1004E0006E76616C69643D25752C74696D653D257A
:1004F000752C72657374617274696E670A0000000E
:100500000000240027002A00000000002500280029
:100510002B00040404040404040402020202020284
:1005200003030303030301020408102040800102B7
:100530000408102001020408102000000008000236
:1005400001000003040700000000000000006469CF
:100550007361626C6564005D2C6C3D5B005D2C79A1
:100560003D5B00783D5B002B52454D3D6368256443
:100570003D002B52454D3D454550524F4D572C6344
:100580003D256C752C703D25752C6E3D256C752CAC
:10059000773D25752C663D25752C6372633D2530AE
:1005A00034782C6366673D25750A002B4932432554
:1005B000633D002B52454D3D454550524F4D522C09
:1005C000696E697400008A226C2211241FBECFEF6D
:1005D000D8E0DEBFCDBF23E0A4E7B1E001C01D92AB
:1005E000A53BB207E1F711E0A0E0B1E0E8E1F7E6F2
:1005F00002C005900D92A437B107D9F712E0C4EEFE
:10060000D2E004C02197FE010E94922FC33ED10781
:10061000C9F70E945F230C947F330C940000BC0147
:100620006F597F4F2FEF3FEF86179707D9F0FC01E7
:100630004191CF012427422F42954227042E46950F
:1006400046954025042E469540254770022E232FBF
:10065000469507944795302D2427069447953025D5
:100660002427E2CFC9010895CF93DF93EC0180E105
:10067000FB0111928A95E9F7FB0190E08C819817B4
:1006800088F4292F30E0A881B981A20FB31F8C9183
:100690008083AA81BB81A20FB31F8C918183329684
:1006A0009F5FECCFDF91CF9108958EEF92E00E9493
:1006B0000F039093FD028093FC020895E5E3F2E0BE
:1006C0008FE4DF011D928A95E9F7E3E3F2E08FEF13
:1006D0009FEF918380838BE4858FAFE4B2E08C91B0
:1006E00081608C9380E090E0A0E9B0E4868F978FE2
:1006F000A0A3B1A38CED9EE193A382A38CE291E031
:1007000095A384A397A386A388E585A78CE986A7EC
:1007100085E080AB80E090E0A0ECBFE780AF91AFD8
:10072000A2AFB3AF20E030E835AF24AF84AB95ABD8
:10073000A6ABB7AB85E1EFE4F2E0A2E0B3E0019055
:100740000D928A95E1F7EFE1F3E080E4DF011D927D
:100750008A95E9F708952CE73CE740E052E40E94CF
:10076000572E20E030E040E05FE30E94992F0E9486
:100770007730CB0177FF02C090E080E0811520E266
:10078000920714F08FEF9FE108952F923F924F92BE
:100790005F926F927F928F929F92AF92BF92CF9211
:1007A000DF92EF92FF920F931F93CF93DF93EB01B2
:1007B0001A01FC01A080B1808A010F5F1F4FF50173
:1007C000E00FF11F608170E090E080E00E94F62D64
:1007D0006B017C01F1E02F1A3108F501E20DF31DE8
:1007E000608170E090E080E00E94F62D4B015C019A
:1007F000AC019B01C701B6010E94F12D8823E9F1EC
:100800000990D881C02DFE01E00FF11F608170E0DA
:1008100090E080E00E94F62D2B013C01C20DD31D1B
:10082000688170E090E080E00E94F62D9B01AC01B1
:10083000C301B2010E94982F2B013C01A501940134
:10084000C701B6010E94982F9B01AC01C301B20100
:100850000E940530DF91CF911F910F91FF90EF9093
:10086000DF90CF90BF90AF909F908F907F906F90D0
:100870005F904F903F902F90089560E070E0CB0123
:10088000E9CF2F923F924F925F926F927F928F9219
:100890009F92AF92BF92CF92DF92EF92FF920F930F
:1008A0001F93CF93DF93CDB7DEB7E0970FB6F894E1
:1008B000DEBF0FBECDBF9AA389A37CA36BA35EA3AB
:1008C0004DA368017901FC010190F081E02DF8ABA6
:1008D000EFA7608170E090E080E00E94F62D6D87C8
:1008E0007E878F87988BEBA1FCA120803180A701A8
:1008F00098010E94AD3087FD28C0F101608170E051
:1009000090E080E00E94F62D69837A838B839C833C
:1009100069817A818B819C81E0960FB6F894DEBF65
:100920000FBECDBFDF91CF911F910F91FF90EF9040
:10093000DF90CF90BF90AF909F908F907F906F90FF
:100940005F904F903F902F9008958DA19EA10197A9
:100950009A8B898BFC018FA598A9E80FF91F6081FC
:1009600070E090E080E00E94F62D6B8B7C8B8D8B8D
:100970009E8B9B01AC01C701B8010E94AD3087FD81
:1009800005C0E989FA892E0E3F1EB7CF6FA478A85B
:10099000FFEF6F1A7F0A10E000E0C8010196988F00
:1009A0008F8BF30161913F0170E090E080E00E9445
:1009B000F62D4B015C01AC019B01C701B6010E9401
:1009C000AD3087FF44C1EF89F88DE20DF31D6081E2
:1009D00070E090E080E00E94F62D69837A838B833B
:1009E0009C83A5019401C701B6010E94F12D8823C3
:1009F00009F48ECFEFA5F8A9E00FF11F608170E038
:100A000090E080E00E94F62D698F7A8F8B8F9C8F0B
:100A10009B01AC01C501B4010E94982F6D8F7E8FA0
:100A20008F8F98A3298D3A8D4B8D5C8DC701B601B0
:100A30000E94982F2D8D3E8D4F8D58A10E9405301C
:100A40004B015C01AC019B010E94572E2B013C0124
:100A5000AC019B01C501B4010E94572E6B017C01C2
:100A6000AC019B010E94992F6D837E838F839887B1
:100A700020E030E040E450E4C301B2010E94572E70
:100A800069877A878B879C879B01AC016D817E810A
:100A90008F8198850E94982F20E030E040E85FE346
:100AA0000E94992F6FA378A789A79AA7A301920103
:100AB000C301B2010E94992F9B01AC01C701B6018D
:100AC0000E94982FA50194010E94992F6BA77CA7E3
:100AD0008DA79EA72D813E814F81588569857A8596
:100AE0008B859C850E94982F6D837E838F8398874A
:100AF000A3019201C701B6010E94982F69877A87E6
:100B00008B879C87F101E00FF11F608170E090E01E
:100B100080E00E94F62D2B013C010115110509F022
:100B200099C0F101608170E090E080E00E94F62DB4
:100B30006B017C01F101618170E090E080E00E9436
:100B4000F62DA70196010E94982F4B015C01EFA59D
:100B5000F8A9618170E090E080E00E94F62D2D857B
:100B60003E854F8558890E94982F9B01AC01C50195
:100B7000B4010E9405304B015C01F101628170E01B
:100B800090E080E00E94F62DA70196010E94982F28
:100B90006B017C01EFA5F8A9628170E090E080E034
:100BA0000E94F62D2D853E854F8558890E94982FED
:100BB0009B01AC01C701B6010E9405306B017C01AD
:100BC000A30192016FA178A589A59AA50E94572E2D
:100BD0002B013C0129813A814B815C816D817E81B1
:100BE0008F8198850E94572E9B01AC01C301B201F1
:100BF0000E94992F2B013C012BA53CA54DA55EA57C
:100C00006D8D7E8D8F8D98A10E94572EA501940128
:100C10000E94572E9B01AC01C301B2010E94992F83
:100C20004B015C0129853A854B855C856D8D7E8DF8
:100C30008F8D98A10E94572EA70196010E94572ED2
:100C40009B01AC01C501B4010E94992F5DCE0F89B3
:100C5000188DA3CE8DA19EA102970817190709F040
:100C60004DC0E989FA89E20DF31D608170E090E0E2
:100C700080E00E94F62D6B017C010DA11EA10350A6
:100C80001109F101E00FF11F608170E090E080E058
:100C90000E94F62D9B01AC01C701B6010E94982F5E
:100CA0004B015C018FA598A9800F911FFC01608109
:100CB00070E090E080E00E94F62D9B01AC016B8912
:100CC0007C898D899E890E94982F9B01AC01C5016A
:100CD000B4010E9405304B015C01A3019201C701E0
:100CE000B6010E94982F6B017C01298D3A8D4B8DA6
:100CF0005C8D6B897C898D899E8958CFA8016BA1F9
:100D00007CA189A19AA10E94C5034B015C014F8976
:100D1000588D6BA17CA189A19AA10E94C5034ECFD9
:100D20008F929F92AF92BF92FF920F931F93CF9398
:100D3000DF9300D000D0CDB7DEB725E0620280019E
:100D400011240B591C4FF801F480FF20F1F1BC0174
:100D500090E080E00E94F62D2CE73CE740E052E472
:100D60000E9405304B015C0120E030E04FE753E486
:100D70000E94F12D87FD06C0812C912C8FE7A82EB3
:100D800083E4B82EF801828193819A8389838081DC
:100D900091819C838B834F2D50E095018401BE018E
:100DA0006F5F7F4FCE0103960E9441040F900F901A
:100DB0000F900F90DF91CF911F910F91FF90BF90F7
:100DC000AF909F908F900C94AB030F900F900F906B
:100DD0000F90DF91CF911F910F91FF90BF90AF9037
:100DE0009F908F9008954F925F926F927F928F9213
:100DF0009F92AF92BF92CF92DF92EF92FF920F93AA
:100E00001F93CF93DF936A0128013901082F880FC0
:100E1000110BF801EE0FFF1FE051FD4F8FEF9FEF19
:100E2000918380834FEFC416D40609F05DC08CE037
:100E3000809FF001819FF00D1124EC57FD4F208918
:100E40003189232B09F43FC021E030E0318B208B26
:100E500098012F5F3F4F829FF001839FF00D112477
:100E6000EC57FD4F1082118212821382E091FA0238
:100E7000F091FB02C8010696880F991FE80FF91F31
:100E8000C081D181C13050E2D50714F0C0E0D0E27A
:100E9000D7FF02C0D0E0C0E02CE0209FC001219F1E
:100EA000900D11248C010C571D4FBE010D2E000C0E
:100EB000880B990B0E94F82DF80160877187828753
:100EC0009387D38BC28BDF91CF911F910F91FF90AE
:100ED000EF90DF90CF90BF90AF909F908F907F90DA
:100EE0006F905F904F9008956F3F760761F4E091A7
:100EF000FA02F091FB02C8010696880F991FE80FCD
:100F0000F91F60817181EB016130704214F0C0E023
:100F1000D0E2D7FF02C0D0E0C0E0B60151E0C51674
:100F200050E2D50614F060E070E277FF02C070E096
:100F300060E06C1B7D0B072E000C880B990B0E9448
:100F4000F82D4B015C0120E030E0A9010E94F12D59
:100F5000882309F4B8CF20E030E040E059E3C50130
:100F6000B4010E94572EA30192010E94572E2B011B
:100F70003C0120E030E0A9010E94AD30181624F0B9
:100F800077FA709477F87094209167023091680234
:100F90004091690250916A02C301B2010E94572E2A
:100FA0009B01AC010E94992F0E947E308CE0782E2C
:100FB000709E9001719E300D1124F901EC57FD4F88
:100FC0007F01718B608B6115710509F47CCF90E016
:100FD00080E00E94F62D9B01AC01C501B4010E9486
:100FE00005304B015C010F5F1F4F709EF001719E39
:100FF000F00D1124EC57FD4F80829182A282B382C2
:10100000BE01DD0F880B990B0E94F82DF701608758
:10101000718782879387D38AC28A20E030E0A90152
:10102000C501B4010E94F12D81114DCF81E090E006
:10103000F701918B808B47CFEF92FF920F931F9315
:10104000CF93DF93C091E502D091E602E091F802E0
:10105000F091F90200851185E284F384DE01A01B82
:10106000B10BAE19BF09468557854115510501F5EC
:101070009D01DC010E948B2F2DE096958795779539
:1010800067952A95D1F79B01200F311FCE018E194C
:101090009F098217930728F0C8010217130708F465
:1010A000C901DF91CF911F910F91FF90EF900895AB
:1010B00024853585280F391F0E94682F9A0150E03A
:1010C00040E00E943B2FE0CF4F925F926F927F9261
:1010D0008F929F92AF92BF92CF92DF92EF92FF9248
:1010E0000F931F93CF93DF93CDB7DEB764970FB6FF
:1010F000F894DEBF0FBECDBF80914F028071582E95
:10110000A090F802B090F9028090E5029090E6027B
:10111000E090FA02F090FB020CE0E00EF11C10E00F
:1011200000E0612C712CCC24C394D12C402EF7010B
:10113000819191917F01552019F0602F0E949006B6
:101140008115F0E29F0708F45DC0C60101C0880F59
:101150004A94EAF7782A0F5F1F4F0430110531F7E0
:10116000362D84E03802F001112401E010E00C0F6C
:101170001D1FE00FF11F108211821282138211E0F5
:1011800016150CF066C06A9490E080E0462D50E0A1
:1011900020E0BA01681B790BE22F022E000CFF0B36
:1011A000E617F7070CF051C0EE0FFF1FEE0FFF1F01
:1011B000A1E0B0E0AC0FBD1FAE0FBF1F349601E041
:1011C00010E00C0F1D1FE00FF11F1296ED90FC9028
:1011D0001397028113810E151F0590F4CD90DD90B9
:1011E000ED90FC90139780809180A280B3808D92C7
:1011F0009D92AD92BC921397C082D182E282F3821B
:101200002F5FCACF009709F4A6CF960101C0220F25
:101210004A94EAF7722A0E941C08F501208121FFF6
:1012200004C09401281B390BC901362D24E0320279
:10123000F001112421E030E02C0F3D1FE20FF31FDD
:10124000938382830083639486CF019686150CF482
:101250009FCFF8948091EA02871539F07092EA02E4
:101260008091320280618093320284E1FE013196E6
:10127000A1EDB2E001900D928A95E1F77894649621
:101280000FB6F894DEBF0FBECDBFDF91CF911F9197
:101290000F91FF90EF90DF90CF90BF90AF909F9015
:1012A0008F907F906F905F904F900895E091FA0239
:1012B000F091FB02082E000C990BAC014A5F5F4FC6
:1012C0009A01220F331FE20FF31F9B01213060E2CE
:1012D000360714F020E030E237FF02C030E020E0B3
:1012E000318320832CE0289FF001299FF00D1124E9
:1012F000EC57FD4F118A108A880F991FFC01E051AD
:10130000FD4F808191810196D9F08091FA029091F0
:10131000FB02440F551F480F591FDA018D919C9114
:10132000918380839FB7F89480913202806280938A
:10133000320225E33CE030932902209328029FBF2C
:101340000C9464081F93CF93DF938F3F69F4EB01F4
:1013500010E0BE01812F0E9456091F5F1430C9F7AB
:10136000DF91CF911F910895DF91CF911F910C9440
:10137000560990E0FC01E65CFA4F2491FC01EA5D1D
:10138000FA4F3491FC01EE5EFA4FE491EE23B9F08E
:10139000222339F02330F1F098F4213009F1223082
:1013A00019F1F0E0EE0FFF1FE85FFA4FA591B4913D
:1013B0008FB7F894EC9130953E233C938FBF0895FE
:1013C0002730A9F02830C9F0243059F780918000E7
:1013D0008F7D03C0809180008F7780938000E1CF64
:1013E00084B58F7784BDDDCF84B58F7DFBCF8091B1
:1013F000B0008F778093B000D4CF8091B0008F7D04
:10140000F9CF0895CF93DF9390E0FC01EA5DFA4FA6
:1014100024918E5E9A4FFC0184918823D1F090E054
:10142000880F991FFC01E250FB4FA591B491FC017C
:10143000E85FFA4FC591D49161110EC09FB7F8943F
:101440008C91E22FE0958E238C932881E223E88310
:101450009FBFDF91CF9108958FB7F894EC91E22B65
:10146000EC938FBFF6CFCF92DF92EF92FF920F9364
:101470001F93CF93DF931F92CDB7DEB7C090670263
:10148000D0906802E0906902F0906A0220E030E0BB
:10149000A901C701B6010E94F12D882391F1A7018E
:1014A0009601C701B6010E94023181112AC019823A
:1014B00010923202F894E99881E09AE09093030147
:1014C0008093020180916F00887D80936F0010925D
:1014D00081000FE011E0F801F1908F018F2D0E9443
:1014E000B90960E08F2D0E94020AF1E003311F0765
:1014F00091F7809170008E7F809370001092B10000
:1015000078940F90DF91CF911F910F91FF90EF9002
:10151000DF90CF9008953FB7F89480917F0190912C
:101520008001A0918101B091820126B5A89B05C0E0
:101530002F3F19F00196A11DB11D3FBFBA2FA92F52
:10154000982F8827BC01CD01620F711D811D911D4F
:1015500043E0660F771F881F991F4A95D1F70895BA
:101560008F929F92AF92BF92CF92DF92EF92FF92B3
:101570004B015C010E948B0A6B017C010E948B0A6B
:101580006C197D098E099F09683E7340810591059C
:10159000A8F321E0821A9108A108B10888EEC80ECC
:1015A00083E0D81EE11CF11C81149104A104B10454
:1015B00029F7FF90EF90DF90CF90BF90AF909F9072
:1015C0008F9008952FB7F89460917B0170917C0102
:1015D00080917D0190917E012FBF08958F929F92FF
:1015E000AF92BF92CF92DF92EF92FF920E94E20AF7
:1015F0006B017C018091320280FD2FC080906103DD
:1016000090906203A0906303B09064039FB7F89436
:10161000809132028160809332029FBF0E94E20A71
:10162000C818D908EA08FB0829E8C21623E1D2063F
:10163000E104F104DCF438E8C32E33E1D32EE12CCD
:10164000F12CC60ED71EE81EF91EC0926103D0927F
:101650006203E0926303F0926403FF90EF90DF90E7
:10166000CF90BF90AF909F908F90089524EFC22E9F
:10167000DD24D394E12CF12CE4CFAF92BF92CF9232
:10168000DF92EF92FF920F931F93CF93DF936C0142
:101690007B018B01040F151FEB015E01AE18BF0823
:1016A000C017D10759F06991D601ED91FC910190D5
:1016B000F081E02DC6010995892B79F7C501DF91ED
:1016C000CF911F910F91FF90EF90DF90CF90BF903F
:1016D000AF900895FC01538D448D252F30E0842F69
:1016E00090E0821B930B541710F0CF96089501974A
:1016F0000895FC01918D828D981761F0A28DAE0F37
:10170000BF2FB11D5D968C91928D9F5F9F73928FBD
:1017100090E008958FEF9FEF0895FC01918D828DE9
:10172000981731F0828DE80FF11D858D90E00895B6
:101730008FEF9FEF0895FC01918D228D892F90E00E
:10174000805C9F4F821B91098F73992708958BE8C6
:1017500091E00E949B0B21E0892B09F420E0822F6D
:101760000895FC01A48DA80FB92FB11DA35ABF4F36
:101770002C91848D90E001968F739927848FA68990
:10178000B7892C93A089B1898C91837080648C93E4
:10179000938D848D981306C00288F389E02D808193
:1017A0008F7D80830895EF92FF920F931F93CF93C5
:1017B000DF93EC0181E0888F9B8D8C8D98131AC08C
:1017C000E889F989808185FF15C09FB7F894EE8973
:1017D000FF896083E889F9898081837080648083D0
:1017E0009FBF81E090E0DF91CF911F910F91FF901B
:1017F000EF900895F62E0B8D10E00F5F1F4F0F73C3
:101800001127E02E8C8D8E110CC00FB607FCFACF7D
:10181000E889F989808185FFF5CFCE010E94B10B5F
:10182000F1CFEB8DEC0FFD2FF11DE35AFF4FF0824E
:101830009FB7F8940B8FEA89FB8980818062CFCFB4
:101840000F931F93CF93DF938C01D0E0C0E0F8019A
:10185000EC0FFD1F6491662341F08BE891E00E943C
:10186000D30B892B11F02196F2CFCE01DF91CF91CE
:101870001F910F910895682F8BE891E00C94D30B82
:10188000CF93DF93EC01888D8823B9F0AA89BB89B7
:10189000E889F9898C9185FD03C0808186FD0DC0A2
:1018A0000FB607FCF7CF8C9185FFF2CF808185FFC3
:1018B000EDCFCE010E94B10BE9CFDF91CF9108951A
:1018C000DC01ED91FC910190F081E02D6A3010F483
:1018D000605D0994695AFDCFDC01ED91FC910190A6
:1018E000F081E02D6AE00994DC015E968D919C9177
:1018F0005F975C962D913C915D978217930740F41A
:101900005A96ED91FC91E80FF91F808190E00895BF
:101910008FEF9FEF0895FC01848D958D268D378D77
:10192000821B930B0895EF92FF920F931F93CF9317
:101930008C01C62F70E084E0759567958A95E1F774
:10194000F80184A995A90E94600C7C016C2F6F702E
:10195000F80184A995A90E94600C8E0D9F1DCF915E
:101960001F910F91FF90EF900895FC012481358124
:10197000828193812817390768F480819181A901B8
:101980004F5F5F4F55834483FC01E20FF31F80815B
:1019900090E008958FEF9FEF08954A960C94B50C50
:1019A000089590E080E0089580917A0080648093AB
:1019B0007A0080917A0086FDFCCF8091780090912A
:1019C000790008951F93CF93DF930E94D40CEC010C
:1019D000CF3F83E0D80710F0CFEFD3E018E01150ED
:1019E00059F061E070E080E090E00E94B00A0E944F
:1019F000D40CC80FD91FF3CFCE0123E0880F991F55
:101A00002A95E1F7DF91CF911F910895CF92DF9250
:101A1000EF92FF92CF93DF93C3E3D2E04CA52EEE7B
:101A20003CE742036001439FD00C11240D2C000CB5
:101A3000EE08FF0880E7C81A8EEFD80A83EBE80AA1
:101A40008BEFF80A8EE480937C0064E170E080E024
:101A500090E00E94B00A0E94E20C9C0150E040E03D
:101A6000C701B6010E943B2F3FAF2EAFC901DF91E6
:101A7000CF91FF90EF90DF90CF90089588EC809306
:101A80007C0064E170E080E090E00E94B00A0E9477
:101A9000E20CE3E3F2E025A530E025573F4F46E0B6
:101AA000969587954A95E1F7820F931F9695982F03
:101AB00088279795879566A570E00E94772FCB01C0
:101AC000499608952F923F924F925F926F928F9214
:101AD0009F92AF92BF92CF92DF92EF92FF920F93BD
:101AE0001F93CF93DF93C0908400D0908500B09B6C
:101AF0000EC02FEFC216D20651F080917601909160
:101B0000770101969093770180937601B09AC09106
:101B10007801D09179018091760190917701EE81E1
:101B2000FF819F012F5F3F4F3F832E83F7FF12C03E
:101B3000DF91CF911F910F91FF90EF90DF90CF90A9
:101B4000BF90AF909F908F906F905F904F903F901D
:101B50002F900895AF01440F551FE40FF51FEC0FB0
:101B6000FD1FA0E0A82F99278827E12C8C299D290B
:101B7000AE2982879387A48720383105C9F6E99872
:101B800081E09AE090930301809302011882198208
:101B90001A821B828E819F811C0131E0231A310839
:101BA0003F822E82813491051CF28E01065F1F4F09
:101BB000F80150E040E020E0812C912C54014215C6
:101BC0005305FCF44F5F5F4FC190D190E19080814D
:101BD0009181A2818C199D09AE096C01EA2E34E035
:101BE000C31A3CEFD30AE10832E8C31639E4D3063E
:101BF000E10428F7B0E0880E991EAA1EBB1E2F5FD5
:101C0000DECF213408F494CF30E050E040E0C5014D
:101C1000B4010E943B2F49015A01842FB90190E081
:101C20000E94F62D2AE037ED43EA5CE30E94572E2E
:101C30000E947E309B0140E024016A2C421A530A24
:101C4000640A280D391D4A1D70E060E0F12C812CDA
:101C5000912C540162157305E4F46F5F7F4FF80116
:101C6000C190D190E1908F0180819181A2818C19E6
:101C70009D09AE0984159505A60560F32817390757
:101C80004A0740F3B0E0880E991EAA1EBB1EF394CB
:101C9000E1CFF0E4FF1508F04BCFC501B4010E947D
:101CA000F62D4B015C016F2D70E090E080E00E940A
:101CB000F62D9B01AC01C501B4010E94053020E066
:101CC00030E040E05EE30E94572E9B01AC0160E0F3
:101CD00074E284EF98E40E940530688379838A83F4
:101CE0009B8326CFFC01862F20813181A9014150A1
:101CF0005109518340831216130624F483E993E0BB
:101D00000E94B50C089520913D02420F40933D0280
:101D100002970CF060ED609383020895662371F0E2
:101D2000823041F0833041F0813011F05E9A0895A5
:101D3000289A0895299A08952A9A0895823041F0A0
:101D4000833041F0813011F05E980895289808950D
:101D5000299808952A98089584EC91E00C94200C19
:101D6000AF92BF92DF92EF92FF920F931F93CF93A8
:101D7000DF935C010CEF12E0D0E0C0E0F801D190FD
:101D80008F017501EC0EFD1EC7010E94152FD8169C
:101D900021F06D2DC7010E941D2F2196C336D1055C
:101DA00069F78CEF92E0DF91CF911F910F91FF9037
:101DB000EF90DF90BF90AF900895CF92DF92EF92B7
:101DC000FF920F931F93CF93DF93EB017B0123E6E9
:101DD000E20EF11C8B016C01C61AD70AC601800FF6
:101DE000911F0E94152FF80181938F01EE15FF05B9
:101DF000A9F7CE01DF91CF911F910F91FF90EF9046
:101E0000DF90CF9008956F927F928F929F92AF92C2
:101E1000BF92CF92DF92EF92FF920F931F93CF93D7
:101E2000DF93CDB7DEB7C054D1090FB6F894DEBF4B
:101E30000FBECDBF6C015B014A019A01AB0160E4AA
:101E400070E0CE0101963C01F60109957C018F33CB
:101E500091057CF102960E943C318C01009759F16A
:101E60009401A501B701F60109957C01A701B8010C
:101E70008BE891E00E943D0B6016710619F0C801D5
:101E80000E94D831C701C05CDF4F0FB6F894DEBFA7
:101E90000FBECDBFDF91CF911F910F91FF90EF90BB
:101EA000DF90CF90BF90AF909F908F907F906F907A
:101EB00008958301DBCFE12CF12CE4CFF894E9986D
:101EC00081E09AE09093030180930201EFE6F0E055
:101ED0008081887D8083109281008091780190912B
:101EE00079010E94D831109279011092780178948A
:101EF0000895CF92DF92EF92FF92CF93DF93C0913C
:101F00007801D0917901209709F057C00E94330AD7
:101F100064E670E080E090E00E94B00A8AE891E018
:101F20000E943C31EC0180E090E0A0ECBFE78883A8
:101F30009983AA83BB831D821C828BEF9FEF9F83B3
:101F40008E830E94E20A79876887FE013A96CE0165
:101F500086579E4F119211921192E817F907D1F707
:101F6000D0937901C0937801CD2B41F480E0DF91CB
:101F7000CF91FF90EF90DF90CF900895F89482E694
:101F80009DE0909303018093020180916900837F1B
:101F9000886080936900E99A10928500109284000D
:101FA0001092800081E08093810080916F008160B9
:101FB00080936F00B09A7894D9CFC880D980EA8096
:101FC000FB80A7019601C701B6010E940231811171
:101FD0001BC020E030E0A901C701B6010E94F12D2D
:101FE000811106C0C12CD12C80ECE82E8FE7F82E91
:101FF000C0926702D0926802E0926902F0926A028F
:102000000E945E0F81E0B3CF0E94E20A28853985E5
:10201000621B730B603D774008F4A8CF80E090E02E
:10202000A0ECBFE78093670290936802A0936902D7
:10203000B0936A02E5CFCF93DF93EC018881998159
:10204000009731F00E94D831198218821B821A82BF
:102050001C82DF91CF910895AF92BF92CF92DF9211
:10206000FF920F931F93CF93DF938C01EB01FB0142
:1020700032968881FF24F3949081891730F4329648
:10208000F394892F28E0F212F7CFC8010E941B10A9
:1020900081E0F816D9F0F801F482AF2CB12C65017B
:1020A000CC0CDD1CC6010E943C31F1E0CF1AD108F6
:1020B000FC01119221E0C21AD108D7FEFACFF80133
:1020C000918380838A0D9B1D93838283F801808195
:1020D0009181892BB1F090E080E0F8012481821792
:1020E00060F429813881A081B181A80FB91F3C9388
:1020F000A281B381A80FB91F2C93229601968F1548
:1021000060F3DF91CF911F910F91FF90DF90CF90FF
:10211000BF90AF900895CF93DF93CDB7DEB7AE01F8
:10212000475F5F4F6F81788584E69DE20E94030FD1
:10213000DF91CF910895CF93DF93CDB7DEB7AE0196
:10214000475F5F4F6F81788583E593E30E94030FBC
:10215000DF91CF910895CF93DF93EC01888199812E
:10216000009721F00E94D831198218821F821E82A6
:102170001B821A821D821C82DF91CF910895FB0180
:1021800001900020E9F73197AF01461B570BDC01A6
:10219000ED91FC910280F381E02D099469E371E0F7
:1021A0008BE891E00C94BF10CF93DF930E94200C3A
:1021B000EC010E94CE108C0F9D1FDF91CF910895EE
:1021C0007F928F929F92AF92BF92CF92DF92EF92C7
:1021D000FF920F931F93CF93DF9300D000D000D0D6
:1021E000CDB7DEB78FEF9FEF9A8389831B821C8266
:1021F0001D821E8283E6E82EF12C670183E6C80E5D
:10220000D11C91E4C91694E0D906D9F0DE011196EB
:102210005D0110E000E0F50171905F014701800E63
:10222000911EC4010E94152F781621F0672DC4015C
:102230000E941D2F0F5F1F4F0630110561F77601B9
:10224000DCCF1092600310925F03ECEFF2E083E6C4
:10225000DF011D928A95E9F781E090E0A0E0B0E00F
:102260008093FE029093FF02A0930003B0930103BA
:102270000E945E030E94550390E080E00E94B00E31
:102280009FB7F894809132028E7F809332028091C2
:1022900032028D7F809332029FBF83EB95E02696BA
:1022A0000FB6F894DEBF0FBECDBFDF91CF911F9167
:1022B0000F91FF90EF90DF90CF90BF90AF909F90E5
:1022C0008F907F900C94D4108F929F92AF92BF9278
:1022D0000F931F93CF93DF93CDB7DEB7A1970FB6C0
:1022E000F894DEBF0FBECDBF19A2423008F44AE019
:1022F0008E010F5D1F4F842E912CB12CA12CA501B6
:1023000094010E943B2FE62FB901CA01EA3004F57F
:10231000E05DD801EE938D01232B242B252B79F73B
:1023200090E080E0109729F0BD018BE891E00E94D9
:10233000BF10A1960FB6F894DEBF0FBECDBFDF91E0
:10234000CF911F910F91BF90AF909F908F90089564
:10235000E95CDFCFCF92DF92EF92FF92CF93DF93D2
:102360006C01990FEE08FF08F7FE17C08DE20E947E
:102370003B0CEC0166277727CB016C197D098E0990
:102380009F094AE00E9464118C0F9D1FDF91CF913D
:10239000FF90EF90DF90CF9008954AE0C701B6011B
:1023A000DF91CF91FF90EF90DF90CF900C9464116C
:1023B0004F925F926F927F928F929F92AF92BF9255
:1023C000CF92DF92EF92FF920F931F93CF93DF9301
:1023D00000D000D0CDB7DEB7182F962E812F012E5A
:1023E000000C990B9F931F9387E695E09F938F9323
:1023F0008BE891E09F938F930E948B1025E012024F
:10240000C0011124DC01AB59BC4F7D011496CC9066
:102410000F900F900F900F900F900F90CC2009F419
:10242000ADC083E695E00E94200CB12CA12CAC1429
:10243000A8F4AA2019F08CE20E943B0CD701ED9180
:10244000FC91EA0DFB1D608170E090E080E04AE0C5
:102450000E946411BFEFAB1ABB0AE9CF8DE595E08E
:102460000E94200CB12CA12CAC1498F4AA2019F0D5
:102470008CE20E943B0CD7011296ED91FC91EA0D83
:10248000FB1D808190E00E94AA11BFEFAB1ABB0A2E
:10249000EBCF87E595E00E94200C692D70E090E07D
:1024A00080E00E94F82D20E030E040E85FE30E94E9
:1024B000992F9B01AC0160E078EF8FEF95E40E94CB
:1024C00005309B01AC0160E070E08FE793E40E946F
:1024D00005302B013C01812C912C5401D12CF701AA
:1024E000828193819A838983808191819C838B836C
:1024F00095018401A601BE016F5F7F4FCE01039657
:102500000E9441040E94AB030E94AA11A301920100
:10251000C501B4010E94992F4B015C0126E636E605
:102520004FE753E40E94F12D87FD1AC08DE50E940C
:102530003B0C0E94CE100F900F900F900F90DF91E8
:10254000CF911F910F91FF90EF90DF90CF90BF90B0
:10255000AF909F908F907F906F905F904F90089575
:1025600020E030E0A901C501B4010E94F12D8823CB
:1025700009F4B5CF8CE20E943B0CB1CF8EE495E01C
:102580000E94D410D8CF0F931F93CF93DF93EC0109
:10259000088519850617170708F48B01095F1F4F77
:1025A000087F8E819F818017910721F18881998111
:1025B0000115110549F1009719F1B8010E94613226
:1025C0009983888388819981892B11F410E000E038
:1025D0001F830E838A819B810817190710F41B83C0
:1025E0000A838A819B812C813D818217930710F495
:1025F0009D838C8381E0DF91CF911F910F9108958E
:10260000C8010E943C31DCCF009701F30E94D83111
:1026100019821882DDCF1F93CF93DF93EC018A815B
:102620009B819C012F5F3F4F4E815F8184179507EF
:1026300050F4E881F9813B832A83E80FF91F608316
:1026400081E090E00CC0162FB901CE010E94C312A8
:10265000811109C0CE010E94AB1090E080E0DF91B3
:10266000CF911F910895E881F9818A819B819C0116
:102670002F5F3F4F3B832A83E80FF91F1083E0CF82
:10268000CF93DF93EC018A89882381F08C8D9D8D17
:102690008F3F910530F081E08E871D86DF91CF91CD
:1026A0000895CE014A960E940B13F7CF8C858617AA
:1026B000170689F781E08A8BF0CFFC0197859D7F13
:1026C000913021F4CF0184960C940B1390E080E0BC
:1026D0000895FC011582148213821282608571852F
:1026E000695F7F4F687F0C94C3128F929F92AF9265
:1026F000BF92DF92EF92FF920F931F93CF93DF93DE
:10270000EC01D62EECA0FDA008A519A5AEA0BFA097
:102710008CA99DA9DC01ED91FC910680F781E02D4B
:102720000995B2E5DB1631F0E4E5DE1619F0F1E4C7
:10273000DF121DC08CA89DA8DF928BEA95E09F93C5
:102740008F931F9288E08F9383E891E09F938F93FC
:102750000E94342D63E871E0C4010E94BF108DB760
:102760009EB707960FB6F8949EBF0FBE8DBF0E0D95
:102770001F1DEA0CFB1C0E151F0539F0D8016D91C9
:102780008D01CE010E94930CF6CF8CA99DA90E94C9
:102790006C0C8CA99DA9DC01ED91FC910680F78160
:1027A000E02D0995CE0184960E9469131F8680E072
:1027B000DF91CF911F910F91FF90EF90DF90BF902D
:1027C000AF909F908F900895CF938091A1039091A7
:1027D000A20320919F033091A00382179307D0F4A6
:1027E000E0919D03F0919E03E80FF91F808190E036
:1027F00020918803213089F487FD19C02091850339
:10280000C7E02817190651F064E589E793E0CF91F6
:102810000C9475138FEF9FEFEBCFC8E08DE993E039
:102820000E946913109288038C2FCF910895C6E0FF
:10283000F5CF1F93CF93DF93162F21E0FC0127875D
:10284000EC01A496CE010E946913612FCE01DF91A5
:10285000CF911F910C940B130F931F93CF93DF9382
:102860008C01CB01F80124813581C281D381C21B47
:10287000D30B4C175D0708F4EA01F8016081718100
:10288000620F731F0E943733F801848195818C0F8A
:102890009D1F95838483CE01DF91CF911F910F916E
:1028A0000895EF92FF920F931F93CF93DF93EC0164
:1028B0008B017A018F858D7F813051F0F12CE12CD5
:1028C000C701DF91CF911F910F91FF90EF90089575
:1028D0006EA17FA1640F751F8AA59BA56817790754
:1028E00088F42CA13DA18EA19FA1A701B801820F60
:1028F000931F0E9437338EA19FA18E0D9F1D9FA312
:102900008EA3DECF6F5F7F4FCE0184960E94C312ED
:102910008111E7CFD3CFCF92DF92EF92FF920F9347
:102920001F93CF93DF93CDB7DEB7CB56D1090FB648
:10293000F894DEBF0FBECDBFF82E8E010C591F4F8D
:1029400088E0D8011D928A95E9F78091320281FFD3
:1029500025C0F80187818160878385E1EFE4F2E09B
:10296000A2E0B3E001900D928A95E1F76FE173E088
:1029700085E693E00E9434036FE273E08AE693E019
:102980000E9434036FE373E08FE693E00E94340308
:102990006FE473E084E793E00E94340388E0EFE3A0
:1029A000F2E0A7E1B3E001900D928A95E1F70E9471
:1029B0005503BE016F5F7F4F80915F03909160036D
:1029C0000E94DD0EF1100BC043E650E0BE016F5FC8
:1029D0007F4F8CEF92E00E942A33892BD9F08091AF
:1029E0005F03909160039C012A533F4F21153440AF
:1029F00008F0B4C08D599F4F9093600380935F039C
:102A000080915F03909160030E94B00E83E6F8010D
:102A1000868303C0D80116961C920E94E20A609336
:102A200061037093620380936303909364039FB781
:102A3000F894809132028E7F80933202809132022C
:102A40008D7F809332029FBF8091FE029091FF02A2
:102A5000A0910003B0910103F80180839183A283C8
:102A6000B38380915F03909160039583848368E1D1
:102A700089E793E00E94191463EF89E793E00E94CD
:102A80005D1348E050E0B80189E793E00E945114DB
:102A90000E94E413E0915F03F0916003D801179660
:102AA0008C91179781701F928F938091FD028F9365
:102AB0008091FC028F9317968C9117971F928F939A
:102AC00016968C911F928F932091FE023091FF02F7
:102AD0004091000350910103AAE0B0E00E945D2FF5
:102AE0006B017C01BAE0CB1AD108E108F108CF01F3
:102AF00063E670E00E94772FC60ED71EE11CF11C22
:102B0000FF92EF92DF92CF92FF93EF93F8018381D0
:102B10008F9382818F9381818F9380818F9382E7BE
:102B200095E09F938F938BE891E09F938F930E9402
:102B30008B100FB6F894DEBF0FBECDBFC559DF4F67
:102B40000FB6F894DEBF0FBECDBFDF91CF911F91BE
:102B50000F91FF90EF90DF90CF9008951092600357
:102B600010925F038091FE029091FF02A0910003FA
:102B7000B09101030196A11DB11D8093FE029093B7
:102B8000FF02A0930003B09301030E94550338CFC6
:102B9000609183026058770B6D5C7D4F80913D02A0
:102BA00087FD12C044E852E0461B570B413560F4E4
:102BB00084170CF4482F10923D02042E000C550B84
:102BC00089E793E00C94511440E0F5CF462F50E094
:102BD000BC0189E793E00E9451140C94E413CF9256
:102BE000DF92EF92FF920F931F93CF93DF93809129
:102BF000B200B89B0DC08091B2008F3F49F0809128
:102C00007401909175010196909375018093740100
:102C10001092B200B89A809174019091750110924F
:102C200075011092740180918400909185008091CB
:102C30006F00846080936F008091550290915602DE
:102C400090938B0080938A008091840090918500FE
:102C500020918A0030918B00820F931F90938B00FC
:102C600080938A00B29A1092ED021092EC0284E1F5
:102C7000E1EDF2E0ADEBB2E001900D928A95E1F763
:102C8000789404E812E0F12CE12CB5E3CB2EBCE003
:102C9000DB2ED8015096CD91DC915197209709F405
:102CA00046C01C962D913D914D915C911F971896B1
:102CB0006D917D918D919C911B970E94992FF801A8
:102CC00060877187828793872197D18BC08B2091F2
:102CD000FA023091FB02F7013696CD2BE1F5D801CF
:102CE00052964D915C91CF01880F991FE901C80F51
:102CF000D91F598348832091FA023091FB02820F39
:102D0000931FFC0180819181F701EE0FFF1FE051BD
:102D1000FD4F918380839FB7F89480913202806247
:102D200080933202D0922902C09228029FBFFFEF07
:102D3000EF1AFF0A045F1F4F84E0E816F10409F060
:102D4000A8CFDF91CF911F910F91FF90EF90DF906F
:102D5000CF900C946408AF01440F551FE901C40FD4
:102D6000D51F0E94773079836883E1CFBF92CF92DD
:102D7000DF92EF92FF920F931F93CF93DF93EC01BB
:102D8000162F8E856A3009F0A3C0823030F08D8511
:102D9000833008F46DC081E08E878E85823008F420
:102DA00053C08A89882309F44FC08C8D9D8D00976C
:102DB00011F421E02E872E85223009F47EC02330C5
:102DC00009F042C0CE014A960E9469138F8588237C
:102DD00009F462C01C858CA99DA9DC01ED91FC91D0
:102DE0000680F781E02D0995ECA8FDA881E48F937A
:102DF0008BEA95E09F938F931F9288E08F9383E8EF
:102E000091E09F938F930E94342D63E871E0C70196
:102E10000E94BF10612FCE010E94930C8CA99DA926
:102E20000E946C0C8CA99DA9DC01ED91FC9106809F
:102E3000F781E02D09952DB73EB7295F3F4F0FB6BB
:102E4000F8943EBF0FBE2DBF1E861D868A8988233B
:102E500029F0CE014A960E9469131A8ADF91CF9118
:102E60001F910F91FF90EF90DF90CF90BF9008954A
:102E7000813009F490CF823009F08FCF1D8A40E174
:102E800050E070E060E0CE0143960E94222B70E09B
:102E9000CE010E94401381CF6C85CE010E9419148F
:102EA000E8A9F9A9309721F0188A099581E0888B63
:102EB00061E4CE010E947513C7CF188A2E8D3F8D15
:102EC000EEA5FFA5821B930B099581E0888BBCCFF3
:102ED000813021F26D3011F2811179C0ED85E1115F
:102EE0006DC06B3209F06DC081E08E0F8D87EC0FE5
:102EF000FD2FF11D138BFE01E80FF11D138A8B8945
:102F00008B3209F0ABCF6E0133E1C30ED11C82E5E9
:102F10008F938BEAE82E85E0F82EFF92EF921F92B6
:102F200098E0B92EBF9203E811E01F930F930E941F
:102F3000342DB801C6010E944033ADB7BEB7179615
:102F40000FB6F894BEBF0FBEADBF892BF1F181E47F
:102F50008F93FF92EF921F92BF921F930F930E9445
:102F6000342DB801C6010E9440332DB73EB7295F0A
:102F70003F4F0FB6F8943EBF0FBE2DBF892B09F40B
:102F80006DCF84E58F93FF92EF921F92BF921F93B4
:102F90000F930E94342DB801C6010E944033ADB793
:102FA000BEB717960FB6F894BEBF0FBEADBF892B44
:102FB00009F054CF82E08E871D8650CFE63008F4AA
:102FC00093CF1D8681E08E8749CF83E0F4CFE62E34
:102FD000F12CC7010E941E33892B19F1ED8581E088
:102FE0008E0F8D87EC0FFD2FF11D138B833050F763
:102FF000823009F033CF1D8A40E150E070E060E09C
:10300000CE0143960E94222B70E0CE01DF91CF913A
:103010001F910F91FF90EF90DF90CF90BF900C9495
:1030200040131C3209F41ACFC7010E94E52C892BEA
:1030300049F214CFCF93DF93C091AD03D091AE038B
:10304000E881F9810084F185E02DCE010995892B75
:1030500069F0E881F9810284F385E02DCE010995BC
:10306000682F89E793E00E94B616EACFDF91CF91EF
:1030700008950E94A70B81110C941A180895CF92FD
:10308000DF92EF92FF9280E480937C0064E170E035
:1030900080E090E00E94B00A0E94E20CBC0190E047
:1030A00080E00E94F62D9B01AC0160E070EC8FE7A0
:1030B00097E40E94053020E030E040E85FE30E94A2
:1030C000982F23EC35EF48EA5EE30E94572E0E94CA
:1030D000BA3020E030EE46E755E40E9405302FE09C
:1030E0003FEC4BE55BE30E94992F9B01AC0160E054
:1030F00070E080E89FE30E94053023E333E948E86D
:1031000053E40E94982F6B017C01609162026F3F33
:10311000B1F0062E000C770B880B990B0E94F82D4E
:1031200020E030E040E85EE30E94572EA7019601C0
:103130000E94992FFF90EF90DF90CF90089560E06C
:1031400070E080EC9FE7F2CF0F931F93CF93DF9354
:103150000E94AC0E87E694E00E94D4108BE891E0C8
:103160000E94400C0E94AC0E81E230E020E0F901A8
:1031700080935700649142E050E0FA018093570039
:103180007491E4E0F0E080935700849199E0F901B4
:10319000909357002491E3E0F0E09093570034912E
:1031A000FA019093570094911F929F931F923F931F
:1031B0001F922F931F928F931F927F931F926F9353
:1031C00089E394E09F938F93CBE8D1E0DF93CF9393
:1031D0000E948B1083E394E00E94200C8DEE92E01D
:1031E0000E94200C83E294E00E94D410CE010E9441
:1031F000400C0E94AC0E2091FE023091FF024091E3
:10320000000350910103AAE0B0E00E945D2F8B0102
:103210009C010A5011092109310980915F039091A5
:10322000600363E670E00E94772F060F171F211DD1
:10323000311D3F932F931F930F938FE094E09F9343
:103240008F93DF93CF930E948B101F921F9286E083
:1032500094E09F938F93DF93CF930E948B108CEF1A
:1032600093E00E94200C87EF93E00E94200C86EEF2
:1032700093E00E94200C8AED93E00E94200C809144
:103280004F02EDB7FEB77E960FB6F894FEBF0FBEA5
:10329000EDBF81FD45C184E51F928F931F9287E1A9
:1032A0008F9387EC93E09F938F93CBE8D1E0DF93EC
:1032B000CF930E948B108FE38F9380E88F931F92A0
:1032C0001F921F9288E08F9388EA93E09F938F93D9
:1032D000DF93CF930E948B108DB79EB742960FB6A7
:1032E000F8949EBF0FBE8DBFCFE0D1E0699170E032
:1032F00090E080E04AE00E9464118CE20E943B0C66
:1033000091E0C331D90791F780914F028295817086
:103310001F928F938EE993E09F938F938BE891E0B8
:103320009F938F930E948B1020915D0230915E02DB
:103330000F900F900F900F900F900F902115310567
:1033400009F4F0C080915B0290915C02281B390B5C
:1033500050E040E060E070E080E094E00E943B2FAD
:103360003F932F9380915C028F9380915B028F93A8
:1033700081E993E09F938F93CBE8D1E0DF93CF93E4
:103380000E948B10CE010E94400C0E94AC0E8091D6
:103390005F02082E000C990B982F88279295907F3A
:1033A000092E000CAA0BBB0B83539343A347B04CCD
:1033B000BF93AF939F938F9380916A028F93809175
:1033C00069028F93809168028F93809167028F9337
:1033D00080914F0281701F928F9389E693E09F93B3
:1033E0008F93DF93CF930E948B10609162024DB751
:1033F0005EB74A5E5F4F0FB6F8945EBF0FBE4DBF1B
:103400006F3F09F492C0062E000C770B880B990BC6
:103410000E94F82D20E030E040E85EE30E94572E45
:10342000EB01182F092F0E943F180F931F93DF9372
:10343000CF939F938F937F936F9389E593E09F93AF
:103440008F93CBE8D1E0DF93CF930E948B10009154
:103450006102109160020E943E0D1F920F931F9215
:103460001F939F938F938DE393E09F938F93DF93AD
:10347000CF930E948B10809163021F928F93809153
:1034800050021F928F9386E293E09F938F93DF9376
:10349000CF930E948B1080E293E00E94200C0E9448
:1034A000060D9C01215031094DB75EB7425E5F4F5A
:1034B0000FB6F8945EBF0FBE4DBF2E3F3F4FD0F109
:1034C0008FE20E943B0C809156028F9380915502AF
:1034D0008F9380915A028F93809159028F9380919C
:1034E00058028F93809157028F9389EF92E09F93B8
:1034F0008F938BE891E09F938F930E948B102DB751
:103500003EB7265F3F4F0FB6F8943EBF0FBE2DBFAC
:103510008BE891E0DF91CF911F910F910C94400CBB
:103520008CE4BACE20E030E21BCFC0E0D0E010EC5B
:103530000FE779CFBC0190E080E00E94F62D20E0FB
:1035400030E04AE754E40E9405309F938F937F93C5
:103550006F938BE193E09F938F93DF93CF930E94C0
:103560008B10EDB7FEB738960FB6F894FEBF0FBEBE
:10357000EDBFA9CF2F923F924F925F926F927F92B1
:103580008F929F92AF92BF92CF92DF92EF92FF9273
:103590000F931F93CF93DF93CDB7DEB7A1970FB6ED
:1035A000F894DEBF0FBECDBF9A8F898F80ED8093D8
:1035B000830210923E0210923D020BE8802E01E041
:1035C000902E898D9A8D9C01215031093A8F298F37
:1035D000181619060CF016C51091830283E993E0C2
:1035E0000E94B50CE0918302E058E13508F0E0E577
:1035F000F0E0ED5CFD4F80838091830291E0980FB5
:1036000090938302103D11F580938302298D3A8DAA
:10361000232BB9F6893BA9F680913D02823089F6C9
:1036200083E498E0909374028093730285E0EAE06B
:10363000F1E0A5E7B2E001900D928A95E1F787E00D
:1036400080933D0280EC80938302BBCF1A3811F443
:1036500080EDF9CF193809F0B4CF90913C0293383E
:1036600009F4A8C208F072C0933209F413C2E0F55D
:10367000923109F4D5C140F5903109F4F5C1913189
:1036800009F09FCF409038025090390260903A0282
:1036900070903B02A0903602B0903702C090330287
:1036A000D0903402809135028F3F09F0E6C1F12CB1
:1036B00093018201A501B6018F2D0E94F306F394B8
:1036C00024E0F212F5CF7DCF298D3A8D913209F4A5
:1036D000DBC108F0DCC144E068EB903209F071CF47
:1036E000C9010E94830E6DCF933509F4E7C1D0F470
:1036F000913509F41AC208F0D2C1903509F061CFB2
:1037000060E0CE0149960E94720E823941F49FB763
:10371000F894809132028260809332029FBF0E94AF
:10372000EE0A4FCF963509F4CCC1923809F420C285
:10373000943509F046CF10922B0210922A02109273
:103740002F0210923002109231023BCF953909F4CA
:1037500072C208F0B6C0963809F470C238F59438D1
:1037600009F43EC2953809F02CCF61E0CE014996AC
:103770000E94720E2091E5023091E602820F932F93
:10378000911D9093E6028093E5029F938F938DE7BE
:1037900092E09F938F939F928F920E948B100F9035
:1037A0000F900F900F900F900F900BCF933909F45B
:1037B000CAC108F031C2913909F003CF1F928CE9D8
:1037C0008F931F9287E18F9388E08F9383E48F9389
:1037D00084ED92E09F938F939F928F920E948B1023
:1037E0000FB6F894DEBF0FBECDBF0FE412E0BFEC02
:1037F000EB2EB2E0FB2ED8018D918D011F928F939D
:10380000FF92EF929F928F920E948B100F900F90D9
:103810000F900F900F900F90B2E004361B0759F7EE
:103820000E94CE1075E6E72E73E0F72E10E000E060
:10383000E3EAAE2EF7E17F2EA3EDCA2EA1E0DA2E49
:103840001F930F931F92AF921F927F921F930F931C
:10385000DF92CF929F928F920E948B108BE891E023
:103860000E94400C0FB6F894DEBF0FBECDBFB12C46
:10387000D70114968C911497B81608F03EC18B2D81
:1038800090E012960D90BC91A02DA80FB91F2C911D
:103890001F922F93D701ED91FC91E80FF91F8081C2
:1038A0001F928F93EAECF1E0FF93EF939F928F9238
:1038B0000E948B10B3940FB6F894DEBF0FBECDBF3D
:1038C000D7CF933A09F439C3E0F4913A09F462C2CC
:1038D00008F084C3903A09F074CE6FEFCE01499698
:1038E0000E94720E182F6FE7CE0149960E94720E49
:1038F000082F143008F045C2682F812F0E94D8117C
:1039000060CE9D3E09F4AEC19E3E09F4EDC1943AED
:1039100009F057CEFE0131967F0110E000E0E09102
:10392000FA02F091FB02C8010696880F991FE80F72
:10393000F91F8081D7018D937D0170E060E0802FB9
:103940000E94A2090F5F1F4F0430110541F710E0DC
:1039500000E093EF292E91E0392E0D8FC12CD12C50
:103960007601B12CA12C0E948B0A2B016D8DC50113
:103970000E9490068F8F98A30E948B0A6419750984
:103980002B01712C612CC414D504E604F704B8F49F
:103990007F936F93B8A1BF93EF8DEF93BF92AF92D8
:1039A00020E132E03F932F939F928F920E948B10E1
:1039B0000FB6F894DEBF0FBECDBF73016201BFEF3B
:1039C000AB1ABB0AA114E0E2BE0669F6FF92EF92C1
:1039D000DF92CF921F930F933F922F929F928F92DD
:1039E0000E948B100F5F1F4F0FB6F894DEBF0FBE03
:1039F000CDBF0430110509F0B0CF698170E080E0DF
:103A00000E94A2096A8170E081E00E94A2096B8194
:103A100070E082E00E94A2096C8170E083E02AC01D
:103A2000898D9A8D9C01215031093A8F298F181662
:103A30001906BCF483E993E00E94B50C282F2F707F
:103A400014E0959587951A95E1F78F70880F9091FE
:103A50003D02890F80933D022A5B220F209383024F
:103A6000B0CD20E088E0F2CF60913602709137024D
:103A7000809135020E94A209A4CD93018201A50183
:103A8000B6010E94F3069DCD42E06CEB29CE42E0E8
:103A90006EEB26CE44E064EB898D9A8D22CE80E0D9
:103AA00090E0A0E8BFE38093730290937402A09328
:103AB0007502B093760244E060ECEECF0E94A41849
:103AC00080CD898D9A8D9C01215031093A8F298FA3
:103AD000181619060CF075CD83E993E00E94B50C19
:103AE000E091F802F091F90221E0019709F020E05D
:103AF000808120FB81F9808364CD9FE19B1528F0B4
:103B000080E30E943B0CB394F8CF0E94CE108BE868
:103B100091E00E94400C0F5F1F4FA5E0EA0EF11CE0
:103B20000430110509F08CCE4CCD0E945E039FB786
:103B3000F894809132028260809332029FBF81E0CC
:103B40000E948B143ECD1FB7F89460E0CE014996D9
:103B50000E94720E823929F4809132028260809331
:103B60003202809132028E7F809332021FBFE7CFF4
:103B700061E0CE0149960E94720E2091550230916B
:103B80005602820F932F911D9093560280935502F7
:103B90009F938F939F938F938CEB92E09F938F9340
:103BA0009F928F920E948B100FB6F894DEBF0FBECB
:103BB000CDBF07CD61E0CE0149960E94720E2091E3
:103BC000550230915602281B31093093560220933A
:103BD00055023F932F933F932F9389EA92E0DECFD4
:103BE000898D9A8D9C01215031093A8F298F029736
:103BF00044F042E050E065E572E083E993E00E9422
:103C00002C1480915502909156029F938F939F930D
:103C10008F9386E992E0C2CF8CE892E00E94D410A4
:103C20000E94330A64EF71E080E090E00E94B00AE5
:103C30000E94790FC6CC0E94E010C3CC61E0CE0197
:103C400049960E94720E2091E5023091E602281BEF
:103C500031093093E6022093E5023F932F938EE6DD
:103C600092E097CD88E692E00E94200C8091BF02FE
:103C70009091C002892B99F1F12C0DE512E09F2D56
:103C8000A4E09A02F0011124EC57FD4F23AD34ADAE
:103C90002115310509F46BC041ADE091FA02F091B4
:103CA000FB02842F042E000C990B0696880F991F97
:103CB000E80FF91F81818F9380818F933F932F931A
:103CC0001F924F931F930F939F928F920E948B107E
:103CD000F3940FB6F894DEBF0FBECDBFD0CF8AE409
:103CE00092E00E94D4106DCC84E492E00E94200CFB
:103CF00033E3E32E32E0F32E00E810E04DE3A42E90
:103D000042E0B42E58E3C52E52E0D52E602EF02F9F
:103D1000F3707F2E71F41F930F93BF92AF929F9217
:103D20008F920E948B100F900F900F900F900F901A
:103D30000F90D7018D917D011F928F93DF92CF92CB
:103D40009F928F920E948B10862D8F700F900F90F4
:103D50000F900F900F900F908F3061F481E392E0FD
:103D60000E94200C0F5F1F4F013D110579F60E9444
:103D7000CE1027CCB3E07B12F5CF80E20E943B0C43
:103D8000F1CF10E0602F812F0E94D8111F5F1430F7
:103D9000C9F717CC898D9A8D05970CF412CC44E0A5
:103DA00050E0BE016F5E7F4F83E993E00E942C14C8
:103DB000E98CFA8CE81AF90AFA8EE98EE0FC01CC5B
:103DC000E6948FEF8E0D883008F0FBCBCE01019684
:103DD0009C8F8B8F80E1AB8DBC8D1D928A95E9F70E
:103DE000F12CA701BE016F5F7F4F83E993E00E9432
:103DF0002C14298D3A8D281B390B3A8F298FA70156
:103E0000BE01675F7F4F83E993E00E942C14298DE8
:103E10003A8D281B390B3A8F298FC988DA882C886C
:103E2000312CBFEF2B1A3B0A2B89229DC001239D09
:103E3000900D1124FC01EC0DFD1DFE8FED8F3F92C6
:103E40002F92FF93EF93DF92CF928CE391E09F93B9
:103E50008F939F928F920E949B1083E7682E82E03F
:103E6000782E0FB6F894DEBF0FBECDBFB12C8D8D6E
:103E70009E8DC816D9060CF05EC090E1B91609F403
:103E80005AC0B60190E080E00E94F62D2CE73CE796
:103E900040E052E40E940530562E79A38C0120E0C8
:103EA00030E04FE753E40E94F12D87FD04C0512C10
:103EB00019A20FE713E4A9E0B0E0AC0FBD1FB88F63
:103EC000AF8BE1E0F0E0EC0FFD1FFE8BED8B49A026
:103ED0000F8F18A3052D142D2F8D38A1A701BE011A
:103EE000695E7F4FCE0145960E9441040E94AB035C
:103EF000D3018C9311969C93B2E06B0E711CB3941A
:103F0000B3949F938F93E8A1EF93FF8DFF934F920C
:103F10005F92DF92CF922AE531E03F932F939F92F9
:103F20008F920E949B10C20CD31C0FB6F894DEBF78
:103F30000FBECDBF9CCF4B2DBFCD6FEFCE014996AD
:103F40000E94720EE82EB3E0B81708F43ACBFFB621
:103F5000F894E3E7F2E080E1DF011D928A95E9F74A
:103F6000098D1A8D10161106A4F5013108F000E133
:103F700010E0A80163E772E083E993E00E942C144B
:103F80000817190751F4B5E0EB9EC001112463E74F
:103F900072E08B599C4F0E942C1080914F028F7EB3
:103FA00080934F028091690381110CC080916E0350
:103FB000811108C080917303811104C0809178033E
:103FC000882329F080914F02806180934F02FFBEC9
:103FD000F8CAE5E0EE9EC0011124D9CF6FEFCE0103
:103FE00049960E94720E843008F0EBCAF5E08F9F6C
:103FF000C001112463E772E08B599C4F0E94340387
:1040000040E15ACDA1960FB6F894DEBF0FBECDBFEA
:10401000DF91CF911F910F91FF90EF90DF90CF90A4
:10402000BF90AF909F908F907F906F905F904F90D8
:104030003F902F9008951F920F920FB60F92112468
:104040002F933F938F939F93AF93BF9380917B0167
:1040500090917C01A0917D01B0917E0130917A0117
:1040600026E0230F2D3758F50296A11DB11D209390
:104070007A0180937B0190937C01A0937D01B093A2
:104080007E0180917F0190918001A0918101B0918A
:1040900082010196A11DB11D80937F019093800143
:1040A000A0938101B0938201BF91AF919F918F91B5
:1040B0003F912F910F900FBE0F901F90189529E8F8
:1040C000230F0396A11DB11DD2CF1F920F920FB6E1
:1040D0000F9211242F933F934F935F936F937F938E
:1040E0008F939F93AF93BF93EF93FF93E091020160
:1040F000F09103010995FF91EF91BF91AF919F91CD
:104100008F917F916F915F914F913F912F910F9080
:104110000FBE0F901F9018951F920F920FB60F921F
:1041200011242F933F934F935F936F937F938F93BC
:104130009F93AF93BF93EF93FF93E0910001F091B2
:1041400001010995FF91EF91BF91AF919F918F91DF
:104150007F916F915F914F913F912F910F900FBE83
:104160000F901F9018951F920F920FB60F92112467
:104170002F933F934F935F936F937F938F939F936F
:10418000AF93BF93EF93FF938BE891E00E94B10B45
:10419000FF91EF91BF91AF919F918F917F916F911F
:1041A0005F914F913F912F910F900FBE0F901F90F5
:1041B00018951F920F920FB60F9211242F938F9381
:1041C0009F93EF93FF93E0919B01F0919C0180817D
:1041D000E091A101F091A20182FD1BC0908180912C
:1041E000A4018F5F8F732091A501821741F0E091A8
:1041F000A401F0E0E557FE4F958F8093A401FF9155
:10420000EF919F918F912F910F900FBE0F901F9064
:1042100018958081F4CF1F920F920FB60F92112440
:104220008F939F938091760190917701019690935F
:104230007701809376019F918F910F900FBE0F9021
:104240001F9018951F920F920FB60F9211248F9303
:104250009F938091740190917501019690937501DF
:1042600080937401809128029091290218161906F2
:104270002CF40197909329028093280280912A02BE
:1042800090912B02009729F0019790932B02809335
:104290002A029F918F910F900FBE0F901F9018953B
:1042A0001F920F920FB60F9211242F933F934F93AB
:1042B0005F936F937F938F939F93AF93BF93CF93AE
:1042C000DF93EF93FF931092850010928400109279
:1042D0008900109288008091E5029091E602909307
:1042E0008B0080938A0086B3866086BBE091F802DB
:1042F000F091F90280818695817091E08927809301
:10430000EB021092BC028091EC029091ED020196BA
:104310009093ED028093EC02803D9740F8F08091FD
:104320006F00897F80936F000E94330A8091320270
:10433000806480933202FF91EF91DF91CF91BF9122
:10434000AF919F918F917F916F915F914F913F912D
:104350002F910F900FBE0F901F9018952091BF02C4
:104360003091C00280916F00897F21153105C1F124
:10437000826080936F003093890020938800C0E0B2
:1043800084E0C802F0011124EC57FD4F83AD94ADD9
:10439000892B39F06091EB0281AD0E948E0ECF5FC8
:1043A000EFCFD0E0C0E0E091FA02F091FB02CE0145
:1043B0000696880F991FE80FF91F80819181892B3C
:1043C00021F460E08C2F0E948E0E2196C430D1051E
:1043D00051F78091EB0291E089278093EB02ABCFFC
:1043E000846080936F00D0E0C0E0E091FA02F09129
:1043F000FB02CE010696880F991FE80FF91F61E0B6
:10440000808191818115904209F060E08C2F0E949B
:104410008E0E2196C430D10541F78DCF1F920F9299
:104420000FB60F9211242F933F934F935F936F9387
:104430007F938F939F93AF93BF93CF93DF93EF932C
:10444000FF93C091BC0281E08C0F8093BC0284E09A
:10445000C802E0011124C354DD4F6091EB02888152
:104460000E948E0E2E813F8121153105C9F4809165
:104470006F00897F846080936F00FF91EF91DF91DF
:10448000CF91BF91AF919F918F917F916F915F91EC
:104490004F913F912F910F900FBE0F901F90189545
:1044A0002496FE013297808191818217930770F4E0
:1044B000809184009091850006968217930708F4F6
:1044C000C9019093890080938800D7CF8091BC0266
:1044D0008F5F8093BC02C1CF84E793E00E941B10E2
:1044E0008FE693E00E941B108AE693E00E941B1067
:1044F00085E693E00E941B1089E291E090937A0395
:10450000809379038DE993E00E94AB1083E993E0F7
:104510000C94AB10CF93DF93ABE8B1E013961C92F1
:104520001E92129748EE53E060E070E014964D93AF
:104530005D936D937C93179787E191E011969C931F
:104540008E9385EC90E01D969C938E931C9784EC43
:1045500090E01F969C938E931E9780EC90E051966E
:104560009C938E93509781EC90E053969C938E93FE
:10457000529782EC90E055969C938E93549786ECDC
:1045800090E057969C938E93569759961C92599704
:104590005A961C925A975B961C925B975C961C925B
:1045A0005C97E9E7F3E013821282448355836683C4
:1045B000778389E291E0918380838EEF84871586EB
:1045C0001686178681E0808B118A128A2CE833E0E8
:1045D00087E0E90119928A95E9F7138E128E158EFC
:1045E000148E178E168E11A210A213A212A215A25B
:1045F00014A217A216A211A610A613A612A615A6FB
:1046000014A617A616A611AA10AA8AE198E193ABE0
:1046100082ABB5ABA4ABE8E2F2E08FEF9FEF918302
:10462000808382E19AE793838283148215821682C3
:10463000178210861186128684E7E4E8F2E0DF0133
:104640001D928A95E9F78FE492E09093F9028093A6
:10465000F80283E392E09093FB028093FA02E5E68E
:10466000F3E0118210821382128214821682158264
:104670001086178211861386128615861486168672
:10468000108A1786128A118A138A83E6ECEFF2E009
:10469000EF0119928A95E9F71092600310925F0377
:1046A00088E79CEEAFEFBFEF8093610390936203C6
:1046B000A0936303B0936403DF91CF910895CF93E8
:1046C000DF93CDB7DEB7C556D1090FB6F894DEBF7C
:1046D0000FBECDBF789484B5826084BD84B58160FF
:1046E00084BD85B5826085BD85B5816085BD8091BD
:1046F0006E00816080936E00109281008091810035
:10470000826080938100809181008160809381002C
:10471000809180008160809380008091B1008460EE
:104720008093B1008091B00081608093B00080914F
:104730007A00846080937A0080917A00826080930E
:104740007A0080917A008E7F80937A0080917A003F
:10475000806880937A001092C100E0919B01F091F3
:104760009C0182E08083E0919701F0919801108292
:10477000E0919901F0919A0180E180831092A30168
:10478000E0919F01F091A00186E08083E0919D017E
:10479000F0919E01808180618083E0919D01F09184
:1047A0009E01808188608083E0919D01F0919E014F
:1047B000808180688083E0919D01F0919E018081DD
:1047C0008F7D80830E94AC0E80ED94E00E94D41017
:1047D0008BE891E00E94400CE5E3F2E08FE4DF011A
:1047E0001D928A95E9F78FEF9FEF909334028093A3
:1047F0003302809185038E3FC1F08EEF8093850355
:1048000010928603109287031092880381E08093B0
:10481000890310928A0310928B0383E993E00E942C
:10482000AB108DE993E00E94AB1087E18093850384
:104830008AEB9AE19093A8038093A70388EC95E113
:104840009093AA038093A9038FEF9FEF9093600347
:1048500080935F0310E000E0412C512C32010E3DAB
:10486000B3E01B0751F1BE016F5F7F4FC8010E948B
:10487000DD0ECE0103960E940F0329813A8128178D
:104880003907C1F44B815C816D817E8144155505EA
:104890006605770578F01093600300935F0383E665
:1048A000FE013196ACEFB2E001900D928A95E1F7EE
:1048B0002A013B010D591F4FD2CF80915F03909188
:1048C0006003019609F007C10E94E01060E08EE0ED
:1048D0000E94020A60E083E00E94020A10926402D1
:1048E00010926502109266020E94790FDE01119605
:1048F000A696BFAFAEAFA69722242A94322C809101
:10490000780190917901892B09F45DC10E94790F9A
:10491000882309F4D8C040906702509068026090E4
:10492000690270906A02A3019201C301B2010E9460
:104930000231811173C020E030E0A901C301B2014E
:104940000E94F12D882309F469C0A301920160E05F
:1049500074E284EF98E40E9405300E947E307093E8
:10496000E6026093E502A301920160E074E284E74D
:104970009AE40E9405300E947E306093E7027093B3
:10498000E8028093E9021982109232021092ED023D
:104990001092EC027093EF026093EE021092EB0221
:1049A00020EF622E22E0722E0FE011E0F3012FEFD4
:1049B0003FEF219331933F01D8019D908D01892DC7
:1049C0000E94B90961E0892D0E94020AE3E1F1E049
:1049D000E017F10759F7F8941092B00081E0809346
:1049E000B100809170008160809370002FEE35E1FE
:1049F000309303012093020180916900837F8860D6
:104A000080936900E99A1092800082E0809381008F
:104A100080916F00887D80936F00789480914F0221
:104A200080FF29C097E1692E93E0792E912CD30164
:104A30004D905D903D0141145104C9F0A090510288
:104A4000B0905202C0905302D090540220E030E067
:104A5000A901C601B5010E94F12D882341F09601FC
:104A60008501A2016FEF7FEF892D0E94F3069394D9
:104A7000B4E09B12DCCF0E943E0D909370028093B5
:104A80006F020E943F1860936B0270936C028093D8
:104A90006D0290936E020E94060D68E189E793E033
:104AA0000E94191467EF89E793E00E945D136CE0A0
:104AB00087E692E00E94E615F894809132028460C5
:104AC0008093320278940E94A70B882309F417CFB1
:104AD0000E941A1814CF80910303873308F487E3E8
:104AE0008E3708F08DE78093030385E1E2E0F3E081
:104AF000AFE4B2E001900D928A95E1F785E693E08C
:104B00000E941B108AE693E00E941B108FE693E040
:104B10000E941B1084E793E00E941B106FE173E07A
:104B200085E693E00E942C106FE273E08AE693E042
:104B30000E942C106FE373E08FE693E00E942C102C
:104B40006FE473E084E793E00E942C100E94AC0EA7
:104B5000E0915F03F09160038091FD028F9380915B
:104B6000FC028F93CF0163E670E00E94772F4B0128
:104B7000B12CA12C2AE0821A9108A108B108AAE060
:104B8000B0E0A30192010E945D2F860E971EA81E21
:104B9000B91EBF92AF929F928F92FF93EF937F9235
:104BA0006F925F924F928DEA94E09F938F938BE880
:104BB00091E09F938F930E948B100FB6F894DEBF05
:104BC0000FBECDBF83CEF89490903202789492FEBF
:104BD00009C0F894809132028B7F809332027894DE
:104BE0000E94A4180E94E20A2B013C0193FE1BC004
:104BF000F89480913202877F80933202789468E142
:104C000089E793E00E94191464EF89E793E00E941A
:104C10005D136FEF89E793E00E945D1363E084E624
:104C200092E00E94E61594FE19C0F8948091EA0281
:104C30008983809132028F7E80933202789468E17A
:104C400089E793E00E94191465EF89E793E00E94D9
:104C50005D1361E0CE0101960E94E61595FE4AC003
:104C6000F8948091280290912902892B09F085C03F
:104C7000809132028F7D80933202309229022092FD
:104C80002802E0EFF2E08E010F5F1F4F80E02191DC
:104C900031912F3F320771F0D8018C9312963C93DB
:104CA0002E931197DF0112972FEF3FEF2D933C9337
:104CB0000D5F1F4F8F5F843051F77894A6968EADAD
:104CC0009FADA69780179107A9F068E189E793E067
:104CD0000E94191462EF89E793E00E945D13B80106
:104CE000A696AEADBFADA6976A1B7B0BCE01019613
:104CF0000E94E61590FE12C00E94E20A0091610334
:104D0000109162032091630330916403601771076F
:104D10008207930718F080E00E948B1496FE2FC044
:104D200068E189E793E00E94191466EF89E793E050
:104D30000E945D1364E08CEE92E00E94E615809183
:104D4000EF028F938091EE028F938091ED028F930B
:104D50008091EC028F93E5EDF4E0FF93EF938BE805
:104D600091E09F938F930E948B100E94790F0FB652
:104D7000F894DEBF0FBECDBFA6CE7894BBCF809196
:104D80002A0290912B02892B09F09DCEF89422E102
:104D90003AE730932B0220932A0278940E943F181E
:104DA0004B015C0180926B0290926C02A0926D02AA
:104DB000B0926E02AC019B010E940231811105C0CC
:104DC000C501B4010E9477307B010E943E0D8C0129
:104DD0009093700280936F02BC01990F880B990B1E
:104DE0000E94F82D9B01AC010E940231811104C088
:104DF000E016F1060CF47801DD24C72CB62CA52CA6
:104E000035018C2C809150028823E9F18E151F0406
:104E1000D4F580912C0290912D02A0912E0268165B
:104E200079068A0680F1AC2DC5018B589F4FAF4F94
:104E300080932C0290932D02A0932E0280914F021A
:104E400082FD05C0846080934F020E94EE0A10E04C
:104E500070E060E0812F0E9456091F5F1430C1F797
:104E6000E982809150028A8368E189E793E00E9499
:104E7000191461EF89E793E00E945D1362E0CE01AF
:104E800001960E94E61540906302442009F41BCE6F
:104E900080912F0290913002A0913102681679061C
:104EA0008A0608F410CE34E0439E20011124052C1C
:104EB000000C66084A0C5B1C6C1C40922F0250923E
:104EC0003002609231020E943E0D909370028093F6
:104ED0006F020E943F1860936B0270936C02809384
:104EE0006D0290936E020E94060D68E189E793E0DF
:104EF0000E94191460EF89E793E00E945D136E2D04
:104F000089E793E00E945D136CE087E692E00E94DF
:104F1000E615D9CDAFE0B0E0E0E9F7E20C94EB2A7A
:104F20006C011B015A01FC0117821682838181FFEB
:104F300048C39E012F5F3F4F4901F6019381F10164
:104F400093FD859193FF81911F01882309F4E7C2A6
:104F5000853239F493FD859193FF81911F0185324C
:104F600039F4B60190E00E94042D35015301E5CFDC
:104F7000F12C512C00E0003238F48B3209F190F41E
:104F80008032F9F0833209F107FD34C020ED280F9B
:104F90002A3020F506FF1BC0FAE0FF9E200D1124E9
:104FA000F22E05C08D3279F0803371F70160F10186
:104FB00093FD859193FF81911F018111DCCF1AC070
:104FC00002600460F4CF0860F2CF0061F0CF3AE0F5
:104FD000539E200D1124522E0062E9CF8E3221F40F
:104FE00006FD9DC20064E3CF8C3611F40068DFCF6C
:104FF0008836E9F29BEB980F933008F05FC00061B0
:10500000805E06FD02C046E0F42E102F1F73853629
:1050100009F05BC0106417FF61C08F2D9BE39F15E3
:1050200008F48BE344244394480E27E03501F4E070
:105030006F0E711CF5016081718182819381042D55
:10504000A4010E940D2C5C01F981FC87F0FF03C0D4
:105050000DE2F3FF07C00BE211FD04C0012F047045
:1050600012FD00E22C852C70E22E09F457C00111CC
:10507000ABC2F3E0E12CF515A0F483E0E52CE81ACF
:1050800013FD08C0B60180E290E00E94042DEA946E
:10509000E110F8CF002329F0B601802F90E00E94A4
:1050A000042D3C8522ECA22E20E0B22E33FD04C05C
:1050B00096ECA92E90E0B92E107122C09BE9980FB2
:1050C000933008F033C10F7E9CCF863611F4106800
:1050D000A2CFFF2009F49FCFFA949DCFE7E02F2DB8
:1050E000EF1518F427E037E0F32E412C9FCF111174
:1050F0008052B60190E00E94042D8FEFA81AB80AE2
:10510000F50184918111F3CFEE2009F42FCFB60180
:1051100080E290E00E94042DEA94F6CF17FF6FC062
:105120004A0CFC85F4FF04C08A81813309F44A9457
:1051300014140CF086C028E0241510F488E0482EE2
:1051400085E090E017FF06C0C501B7FE02C090E001
:1051500080E0019601110196FF2031F02F2D30E003
:105160002F5F3F4F820F931F5816190619F014F046
:10517000E52CE81A812F897011F4E11067C0002333
:1051800029F0B601802F90E00E94042D13FD02C08B
:10519000E11063C017FF7CC08501B7FE02C010E0BC
:1051A00000E0C501841991092C016F2D70E0EE27F4
:1051B000FF27E61BF70BFF87EE870F3F100729F449
:1051C000B6018EE290E00E94042DA016B1060CF408
:1051D0004BC0401651060CF047C0F501E01BF10B27
:1051E000E80DF91D8181015011092E853F850217B7
:1051F0001307E4F1B60190E00E94042DDECF16FD06
:105200009FCFEF2DF0E0EA15FB0534F03CEFA3163D
:105210003FEFB3060CF010683296E80DF91D01C09F
:10522000FA94FF2019F082918033D1F317FF88CFD1
:10523000442443944F0CFA141B0431F02CF0FA1858
:105240007FCF442443947CCFF12C7ACFB60180E207
:1052500090E00E94042DEA9490CFB60180E390E0A4
:105260000E94042DEA9494CF80E3BDCFA016B1062E
:1052700041F49A81963350F4953319F43C8534FF08
:1052800005C0B60190E00E94042D3ECF81E3F9CF26
:105290008A81813319F09C859F7E9C87B60190E0BE
:1052A0000E94042DFF20A9F0B6018EE290E00E943A
:1052B000042DF394F394E2E001E00E0FE80DF92DD4
:1052C000F11D8081B60190E00E94042DE02F0F11A6
:1052D000F3CF85E690E014FF02C085E490E0B601CC
:1052E0000E94042DB7FC06C0A114B104C1F4EC85E2
:1052F000E4FF15C0B194A194B1088DE2B60190E02D
:105300000E94042D80E32AE0A216B10454F4B601F1
:1053100090E00E94042DB601C501C096B4CF8BE287
:10532000EDCF8F5FFAE0AF1AB108EDCF8336C9F049
:10533000833771F1833509F05BC03501F2E06F0E00
:10534000711CF501A080B1806F2D70E006FD02C0D8
:105350006FEF7FEFC5010E94EE2C9D878C87006860
:105360000DC0350132E0630E711CF5018081898327
:1053700021E030E03D872C8754010F7703FD06C004
:105380002C853D855216130609F0A8F4E52C2BC098
:10539000350132E0630E711CF501A080B1806F2DE4
:1053A00070E006FD02C06FEF7FEFC5010E94F92C8F
:1053B0009D878C87E2CFB60180E290E00E94042DA9
:1053C0005A94DECFF50107FD859107FF81915F01BA
:1053D000B60190E00E94042DE110EA948C859D8531
:1053E00001979D878C87EC85FD85EF2B59F78CCE37
:1053F000843619F0893609F074C0350107FF66C09C
:10540000F4E06F0E711CF5016081718182819381DE
:10541000102F1F7697FF08C0909580957095619525
:105420007F4F8F4F9F4F10682AE030E0A4010E9409
:10543000902DA82EA818BA2C012F16FF0AC00E7F97
:10544000AF1438F414FF04C012FD02C0012F0E7E09
:10545000BF2C04FF8EC0FE01EA0DF11D8081803358
:1054600009F080C0097EF02FF870EF2E03FD90C088
:1054700000FF8AC0FA2CB51410F4F50CFB1804FFD9
:105480008DC0B60180E390E00E94042D02FF09C0A8
:1054900088E790E001FF02C088E590E0B6010E9435
:1054A000042DAF1408F486C0AA940A2D10E00F5FF3
:1054B0001F4F080D191DF80182918F01B60190E070
:1054C0000E94042D80169106B1F71ECEF2E06F0EF9
:1054D000711CF50160817181072E000C880B990BFE
:1054E00097CF102F8537A9F41F7E2AE030E03501D1
:1054F00017FF2FC0F4E06F0E711CF5016081718100
:1055000082819381A4010E94902DA82EA8181F7754
:1055100092CF197F8F36D1F048F4883591F0F6019B
:10552000868197812F96E2E10C94072B803739F022
:105530008837A9F714FD146020E130E0D8CF10615E
:10554000F9CF04FD166020E132E0D1CF28E030E051
:10555000CECFF2E06F0E711CF5016081718190E099
:1055600080E0D0CF02FD02C0B3947DCFB394B3945A
:105570007ACF802F867809F476CFF6CFB60180E215
:1055800090E00E94042DB394B514C0F3E12C77CFC2
:10559000E52CEB18B51408F472CFF8CF802F86787D
:1055A00009F47FCF8BE201FF80E207FD8DE2B601B7
:1055B00090E075CFB60180E390E00E94042DFA944C
:1055C00070CF8FEF9FEFAECF24E0E12C251508F0D0
:1055D00063CD84E053CD2F923F924F925F926F92B2
:1055E0007F928F929F92AF92BF92CF92DF92EF9273
:1055F000FF920F931F93CF93DF93CDB7DEB7CA1BF4
:10560000DB0B0FB6F894DEBF0FBECDBF09942A881E
:10561000398848885F846E847D848C849B84AA84C6
:10562000B984C884DF80EE80FD800C811B81AA8153
:10563000B981CE0FD11D0FB6F894DEBF0FBECDBF1E
:10564000ED010895B0E0A0E0E8E2FBE20C94EC2A62
:105650005C016B017A016115710519F0FB01918301
:105660008083E114F10449F0C7010297839728F081
:1056700060E070E0CB019CC05E01E5012196F50180
:105680001081812F90E00E94E52C892BA9F71D3213
:1056900009F056C02196F501118101E0E114F104F1
:1056A00009F4AEC0F0E1EF16F10409F08EC010333A
:1056B00041F488818F7D883509F083C01981229655
:1056C0000260E0E1EE2EF12C88248A94982CA82C1C
:1056D000FFE0BF2E20E060E070E0CB0127010F2C3F
:1056E000000C66087708FE0150ED352E310E39E0CA
:1056F000331538F43FEB310F3A31A0F549EC342E35
:10570000310E3E141F04BCF52F3FB9F086169706E4
:10571000A806B90670F1A30192010E942B2F232D38
:1057200030E050E040E0620F731F841F951F621746
:10573000730784079507E8F021E021961081D3CF05
:105740001B3221F4E5012296F501118100E0A6CF7C
:1057500078E0E72EF12C88248A94982CA82C6FE10D
:10576000B62EB8CF3FE9310F3A3128F439EA332E5B
:10577000C7CF2FEFE2CFC114D10431F02223E9F0DB
:105780002197F601D183C08300FF07C090958095D3
:10579000709561957F4F8F4F9F4F2F3F49F482E265
:1057A00090E09093B0038093AF036FEF7FEFCB0156
:1057B000CDB7DEB7E1E10C94082B01FFE5CF2297CE
:1057C000E0CF10E3E114F10419F23AE0E316F1043A
:1057D000E9F080E1E816F10409F473CFE8E0EE1691
:1057E000F10409F4B8CF6FEF7FEFCB0197010F2CD5
:1057F000000C440B550B0E943B2F49015A016ACF04
:10580000103309F456CF9AE0E92EF12C89E9882E5D
:10581000982CA82C89E1B82E5DCF283008F027E01D
:105820003327DA01990F311D87FD916000966105DC
:10583000710539F432602E5F3D9330E32A95E1F72C
:1058400008959F3F30F080387105610509F03C5F95
:105850003C5F3D93913008F08068911DDF93CF93BA
:105860001F930F93FF92EF92192F987F9695E92F30
:1058700096959695E90FFF27EC5DFE4F9927332704
:10588000EE24FF24A701E70105900894079428F46B
:10589000360FE71EF81E491F511D660F771F881F20
:1058A000991F0694A1F70590079428F4E70EF81EB7
:1058B000491F561FC11D770F881F991F661F069429
:1058C000A1F70590079428F4F80E491F561FC71F2B
:1058D000D11D880F991F661F771F0694A1F70590A9
:1058E000079420F4490F561FC71FD81F990F661F32
:1058F000771F881F0694A9F784911095177041F0BF
:10590000D695C79557954795F794E7941A95C1F79B
:10591000EAECF0E0689415901591359165919591B8
:1059200005907FE27395E118F10A430B560BC90B02
:10593000D009C0F7E10CF11E431F561FC91FD01D2F
:105940007EF4703311F48A95E6CFE894015030F07C
:10595000080F0AF40027021708F4202F2395022FBE
:105960007A3328F079E37D932A95E9F710C07D9387
:105970002A9589F606949795679537951795179404
:10598000E118F10A430B560BC90BD00998F0239587
:105990007E9173957A3308F070E37C932013B8F707
:1059A0007E9170617D9330F0839571E37D9370E318
:1059B0002A95E1F71124EF90FF900F911F91CF915D
:1059C000DF91992787FD9095089591110C94EE2D04
:1059D000803219F089508550C8F70895FC01059070
:1059E000615070400110D8F7809590958E0F9F1FE1
:1059F0000895FC016150704001900110D8F7809526
:105A000090958E0F9F1F08950F931F93CF93DF9351
:105A1000182F092FEB018B8181FD09C01FEF0FEFBC
:105A2000812F902FDF91CF911F910F91089582FFC9
:105A300014C02E813F818C819D81281739073CF449
:105A4000E881F981CF0101969983888310838E8143
:105A50009F8101969F838E83E3CFE885F985812F0F
:105A60000995892BA1F3DACFAEE0B0E0EAE3FDE2DD
:105A70000C94F92A0D891E898F89988D2EE02C832C
:105A80001A83098397FF02C080E090E801979E8304
:105A90008D83AE01455E5F4F698D7A8DCE01019693
:105AA0000E948A274D815E8157FD0AC02F8138856B
:105AB000421753070CF49A01020F131FF8011082CA
:105AC0002E96E4E00C94152BAEE0B0E0EAE6FDE2A1
:105AD0000C94F92A8C01FA018EE08C831A830983D5
