:100000000C94AB020C94811D0C945A1D0C94D302D9
:100010000C94D3020C94D3020C94D3020C94D3020C
:100020000C94D3020C94171E0C94D3020C94E71E6C
:100030000C944C1E0C94001E0C94D3020C94D3020E
:100040000C94101D0C94D3020C94CE1D0C94A81D7E
:100050000C94D3020C94D3020C94D3020C94D302CC
:100060000C94D3020C94D30208000000BE922449E1
:10007000123EABAAAA2ABECDCCCC4C3E00000080DA
:10008000BEABAAAAAA3E00000000BF000000803F4D
:100090000000000000084178D3BB4387D1133D190D
:1000A0000E3CC3BD4282AD2B3E68EC8276BED98F3A
:1000B000E1A93E4C80EFFFBE01C4FF7F3F0000007E
:1000C00000006E616E00696E660000407A10F35A9F
:1000D00000A0724E18090010A5D4E80000E8764888
:1000E000170000E40B54020000CA9A3B000000E134
:1000F000F505000080969800000040420F000000C7
:10010000A08601000000102700000000E8030000A6
:1001100000006400000000000A0000000000010070
:10012000000000002C76D888DC674F0823DFC1DF91
:10013000AE59E1B1B796E5E3E453C63AE651997694
:1001400096E8E6C28426EB898C9B62ED407C6FFCCE
:10015000EFBC9C9F40F2BAA56FA5F490055A2AF710
:100160005C936B6CF9676DC11BFCE0E40D47FEF519
:1001700020E6B500D0ED902E030094357705008081
:10018000841E080000204E0A000000C80C333333E0
:10019000330F986E12831141EF8D2114893BE65580
:1001A00016CFFEE6DB18D1844B381BF77C1D901D63
:1001B000A4BBE424203284725E228100C9F124ECC5
:1001C000A1E53D272B52454D3D00253032782530A5
:1001D0003278002B52454D3D63756269635F696EED
:1001E000742C25752C693263743D253032782530A6
:1001F000327825303278000A2B52454D3D002530AB
:100200003278005B253032785D002B52454D3D0041
:100210002B52454D3D63683D25752C6C3D25752F52
:1002200025750A004E6F206368616E6E656C7320E1
:100230006163746976650025753D257528257529E6
:1002400020002B52454D3D002B52454D3D746963B6
:100250006B733D25640A002B52454D3D7469636BF9
:10026000733D25640A002B52454D3D667265710051
:100270002B52454D3D7A633D25752C307825303421
:10028000780A002B52454D3D7A633D25752C307818
:10029000253034780A002B52454D3D7A633D257553
:1002A0002C3078253034780A0025303278002B52F3
:1002B000454D3D76253034782C693263743D2530C8
:1002C0003278253032780041546D656761333238B9
:1002D00050002C6D696E2E6F6E2D74696D653D2515
:1002E000752C6D696E2E6F66663D25752C5A433DE3
:1002F00025750A00252E3366002C5643433D006DBC
:1003000061782E74656D703D25752C6D657472690C
:1003100063733D257500696E742E74656D703D259F
:10032000642F6F66733D25752F6761696E3D257576
:100330002C004E54433D252E32662F252B2E32663F
:100340002C0076616C7565733D726573746F7265B0
:100350003D25752C663D252E3366487A2C767265D0
:100360006631313D252E33662C0072616E67653D26
:1003700025642D25640A0063756269633D25752C2B
:100380000074696D6572313D25752F252E32662CFE
:100390006C766C733D383139322C70696E733D0068
:1003A000616464723D253032782C6D6F64653D2543
:1003B000632C0070726F746F3D554152542C00666F
:1003C0006164696E675F6576656E74733D312C009C
:1003D0005643432C00696E742E74656D702C004E6C
:1003E00054433D4125752C006F7074696F6E733DE9
:1003F000454550524F4D3D256C752C0040384D6899
:100400007A2C6763633D372E332E30002C4D4355D5
:100410003D007369673D253032782D253032782DC7
:10042000253032782C66757365733D6C3A25303211
:10043000782C683A253032782C653A2530327800AD
:100440004D4F534645542044696D6D657220322EE0
:10045000322E33204665622031352032303233204F
:1004600030393A32323A313720417574686F722030
:100470007361736368615F6C616D6D657273406712
:100480006D782E646500454550524F4D522C633DAA
:10049000256C752C703D25752C6E3D256C752C6377
:1004A00072633D253034780A00424F4F54000000FB
:1004B0000000240027002A0000000000250028007A
:1004C0002B000404040404040404020202020202D5
:1004D0000303030303030102040810204080010208
:1004E0000408102001020408102000000008000287
:1004F00001000003040700000000000000002B5270
:10050000454D3D454550524F4D572C633D256C752B
:100510002C703D25752C6E3D256C752C773D257511
:100520002C663D25752C6372633D253034782C6331
:1005300066673D25750A002B49324325633D002B34
:1005400052454D3D454550524F4D522C696E697490
:100550000000621F441F11241FBECFEFD8E0DEBF92
:10056000CDBF23E0ACE3B1E001C01D92AF3AB207CA
:10057000E1F711E0A0E0B1E0EAEDFFE502C005908F
:100580000D92AC33B107D9F712E0CAEAD2E004C049
:100590002197FE010E941F2CC93AD107C9F70E947A
:1005A00037200C94E02F0C940000BC016F597F4F52
:1005B0002FEF3FEF86179707D9F0FC014191CF014C
:1005C0002427422F42954227042E469546954025E2
:1005D000042E469540254770022E232F46950794FA
:1005E0004795302D24270694479530252427E2CFC0
:1005F000C901089588EF92E00E94D5029093F70216
:100600008093F6020895EFE3F2E08FE4DF011D929C
:100610008A95E9F78FEF9FEF90933E0280933D021A
:100620008BE480935A028091590281608093590231
:1006300080E090E0A0E9B0E480935B0290935C02DC
:10064000A0935D02B0935E028CED90E09093600207
:1006500080935F0280E891E0909362028093610250
:1006600080E391E0909364028093630207B600FCFC
:10067000FDCF87B7816287BFE5E0F0E0849107B6E0
:1006800000FCFDCF97B7916297BFE7E0F0E0E491FF
:10069000E0936A0280936B0285E080936D0280E0B4
:1006A00090E0A0ECBFE78093750290937602A09350
:1006B0007702B093780220E030E830937A022093FA
:1006C00079028093710290937202A0937302B093A7
:1006D000740285E1E9E5F2E0ACEFB2E001900D9241
:1006E0008A95E1F7E9E1F3E080E4DF011D928A9564
:1006F000E9F708952F923F924F925F926F927F9207
:100700008F929F92AF92BF92CF92DF92EF92FF9221
:100710000F931F93CF93DF93EB011A01FC01A0808D
:10072000B1808A010F5F1F4FF501E00FF11F60815B
:1007300070E090E080E00E94832A6B017C01F1E090
:100740002F1A3108F501E20DF31D608170E090E091
:1007500080E00E94832A4B015C01AC019B01C70130
:10076000B6010E947E2A8823E9F10990D881C02D24
:10077000FE01E00FF11F608170E090E080E00E94D8
:10078000832A2B013C01C20DD31D688170E090E0EB
:1007900080E00E94832A9B01AC01C301B2010E9448
:1007A000252C2B013C01A5019401C701B6010E9433
:1007B000252C9B01AC01C301B2010E94922CDF9158
:1007C000CF911F910F91FF90EF90DF90CF90BF904E
:1007D000AF909F908F907F906F905F904F903F90E1
:1007E0002F90089560E070E0CB01E9CFEF92FF9287
:1007F0000F931F93CF93DF93C091E502D091E60250
:10080000E091F202F091F30200851185E284F38415
:10081000DE01A01BB10BAE19BF09468557854115F6
:10082000510501F59D01DC010E94182C2DE09695E3
:100830008795779567952A95D1F79B01200F311FF2
:10084000CE018E199F098217930728F0C80102175D
:10085000130708F4C901DF91CF911F910F91FF9009
:10086000EF90089524853585280F391F0E94F52BB8
:100870009A0150E040E00E94C82BE0CF90E0FC01DC
:10088000E651FB4F2491FC01EA52FB4F3491FC01ED
:10089000EE53FB4FE491EE23B9F0222339F02330DD
:1008A000F1F098F4213009F1223019F1F0E0EE0F67
:1008B000FF1FE854FB4FA591B4918FB7F894EC91CA
:1008C00030953E233C938FBF08952730A9F0283000
:1008D000C9F0243059F7809180008F7D03C080914A
:1008E00080008F7780938000E1CF84B58F7784BDBF
:1008F000DDCF84B58F7DFBCF8091B0008F77809363
:10090000B000D4CF8091B0008F7DF9CF0895CF9300
:10091000DF9390E0FC01EA52FB4F24918E539B4FF2
:10092000FC0184918823D1F090E0880F991FFC018D
:10093000E255FB4FA591B491FC01E854FB4FC591E2
:10094000D49161110EC09FB7F8948C91E22FE0957D
:100950008E238C932881E223E8839FBFDF91CF9180
:1009600008958FB7F894EC91E22BEC938FBFF6CFFC
:10097000FF920F931F93CF93DF931F92CDB7DEB7F4
:10098000F894198210923C02E99886E894E09093DA
:1009900003018093020180916F00887D80936F0036
:1009A000109281000FE011E0F801F1908F018F2D7E
:1009B0000E943E0460E08F2D0E948704F1E0033125
:1009C0001F0791F7809170008E7F809370001092C6
:1009D000B10078940F90DF91CF911F910F91FF900C
:1009E00008953FB7F8948091490190914A01A091F0
:1009F0004B01B0914C0126B5A89B05C02F3F19F0C3
:100A00000196A11DB11D3FBFBA2FA92F982F88278E
:100A1000BC01CD01620F711D811D911D43E0660F68
:100A2000771F881F991F4A95D1F708958F929F923B
:100A3000AF92BF92CF92DF92EF92FF924B015C0197
:100A40000E94F1046B017C010E94F1046C197D0984
:100A50008E099F09683E734081059105A8F321E046
:100A6000821A9108A108B10888EEC80E83E0D81E4A
:100A7000E11CF11C81149104A104B10429F7FF9039
:100A8000EF90DF90CF90BF90AF909F908F900895A0
:100A90002FB7F8946091450170914601809147010C
:100AA000909148012FBF08958F929F92AF92BF926D
:100AB000CF92DF92EF92FF920E9448056B017C017A
:100AC00080913C0280FD2FC080905B0390905C037E
:100AD000A0905D03B0905E039FB7F89480913C02B4
:100AE000816080933C029FBF0E944805C818D908C6
:100AF000EA08FB0829E8C21623E1D206E104F10462
:100B0000DCF438E8C32E33E1D32EE12CF12CC60EF1
:100B1000D71EE81EF91EC0925B03D0925C03E092E0
:100B20005D03F0925E03FF90EF90DF90CF90BF9057
:100B3000AF909F908F90089524EFC22EDD24D39420
:100B4000E12CF12CE4CFAF92BF92CF92DF92EF92E3
:100B5000FF920F931F93CF93DF936C017B018B0167
:100B6000040F151FEB015E01AE18BF08C017D107B7
:100B700059F06991D601ED91FC910190F081E02D41
:100B8000C6010995892B79F7C501DF91CF911F9196
:100B90000F91FF90EF90DF90CF90BF90AF900895AE
:100BA000FC01538D448D252F30E0842F90E0821B73
:100BB000930B541710F0CF96089501970895FC01F8
:100BC000918D828D981761F0A28DAE0FBF2FB11D50
:100BD0005D968C91928D9F5F9F77928F90E00895A4
:100BE0008FEF9FEF0895FC01918D828D981731F062
:100BF000828DE80FF11D858D90E008958FEF9FEFB6
:100C00000895FC01918D228D892F90E080589F4F8F
:100C1000821B91098F779927089585E591E00E94BD
:100C2000010621E0892B09F420E0822F0895FC01C0
:100C3000A48DA80FB92FB11DA356BF4F2C91848D41
:100C400090E001968F739927848FA689B7892C939A
:100C5000A089B1898C91837080648C93938D848DED
:100C6000981306C00288F389E02D80818F7D8083F0
:100C70000895EF92FF920F931F93CF93DF93EC01B0
:100C800081E0888F9B8D8C8D98131AC0E889F98933
:100C9000808185FF15C09FB7F894EE89FF89608336
:100CA000E889F98980818370806480839FBF81E0B7
:100CB00090E0DF91CF911F910F91FF90EF900895F9
:100CC000F62E0B8D10E00F5F1F4F0F731127E02ED4
:100CD0008C8D8E110CC00FB607FCFACFE889F9890C
:100CE000808185FFF5CFCE010E941706F1CFEB8DF5
:100CF000EC0FFD2FF11DE356FF4FF0829FB7F894E4
:100D00000B8FEA89FB8980818062CFCF0F931F937D
:100D1000CF93DF938C01D0E0C0E0F801EC0FFD1F12
:100D20006491662341F085E591E00E943906892BA4
:100D300011F02196F2CFCE01DF91CF911F910F914B
:100D40000895682F85E591E00C943906CF93DF93E1
:100D5000EC01888D8823B9F0AA89BB89E889F989D3
:100D60008C9185FD03C0808186FD0DC00FB607FC08
:100D7000F7CF8C9185FFF2CF808185FFEDCFCE013B
:100D80000E941706E9CFDF91CF910895DC01ED9124
:100D9000FC910190F081E02D6A3010F4605D0994BF
:100DA000695AFDCFDC01ED91FC910190F081E02DBD
:100DB0006AE00994DC015E968D919C915F975C9648
:100DC0002D913C915D978217930740F45A96ED91CF
:100DD000FC91E80FF91F808190E008958FEF9FEF5D
:100DE0000895FC01848D958D268D378D821B930B84
:100DF0000895EF92FF920F931F93CF938C01C62F0C
:100E000070E084E0759567958A95E1F7F80184A90B
:100E100095A90E94C6067C016C2F6F70F80184A909
:100E200095A90E94C6068E0D9F1DCF911F910F910F
:100E3000FF90EF900895FC01248135818281938198
:100E40002817390768F480819181A9014F5F5F4FAE
:100E500055834483FC01E20FF31F808190E00895E5
:100E60008FEF9FEF08954A960C941B07089590E02A
:100E700080E0089580917A00806480937A00809168
:100E80007A0086FDFCCF80917800909179000895DA
:100E90002F923F924F925F926F928F929F92AF925A
:100EA000BF92CF92DF92EF92FF920F931F93CF9357
:100EB000DF93C0908400D0908500B09B0EC02FEFD0
:100EC000C216D20651F080913C0190913D010196ED
:100ED00090933D0180933C01B09AC0914201D09122
:100EE000430180913C0190913D01EE81FF819F0182
:100EF0002F5F3F4F3F832E83F7FF12C0DF91CF91CB
:100F00001F910F91FF90EF90DF90CF90BF90AF9027
:100F10009F908F906F905F904F903F902F9008958B
:100F2000AF01440F551FE40FF51FEC0FFD1FA0E0AC
:100F3000A82F99278827E12C8C299D29AE29828703
:100F40009387A48720383105C9F6E99886E894E0AC
:100F50009093030180930201188219821A821B82E6
:100F60008E819F811C0131E0231A31083F822E823D
:100F70008A3491051CF28E01065F1F4FF80150E084
:100F800040E020E0812C912C540142155305FCF4E3
:100F90004F5F5F4FC190D190E19080819181A2819C
:100FA0008C199D09AE096C01EA2E34E0C31A3CEF9E
:100FB000D30AE10832E8C31639E4D306E10428F77E
:100FC000B0E0880E991EAA1EBB1E2F5FDECF2A340A
:100FD00008F494CF30E050E040E0C501B4010E9435
:100FE000C82B49015A01842FB90190E00E94832A3D
:100FF0002AE037ED43EA5BE30E94E42A0E940B2DCE
:101000009B0140E024016A2C421A530A640A280D0D
:10101000391D4A1D70E060E0F12C812C912C5401A7
:1010200062157305E4F46F5F7F4FF801C190D190B2
:10103000E1908F0180819181A2818C199D09AE0977
:1010400084159505A60560F3281739074A0740F36C
:10105000B0E0880E991EAA1EBB1EF394E1CFF9E4FE
:10106000FF1508F04BCFC501B4010E94832A4B0144
:101070005C016F2D70E090E080E00E94832A9B016C
:10108000AC01C501B4010E94922C20E030E040E0A8
:101090005EE30E94E42A9B01AC0160E074E284EF0D
:1010A00098E40E94922C688379838A839B8326CF5D
:1010B000FC01862F20813181A901415051095183C2
:1010C00040831216130624F48DE893E00E941B0758
:1010D000089520914702420F4093470202970CF077
:1010E00060ED60938D02089597FF02C090E080E06C
:1010F000813020E2920714F080E090E20895CF93CF
:10110000C82FCB010E947408E091F402F091F5021F
:101110002C2FCC0F330BA9014A5F5F4F440F551F93
:10112000E40FF51F918380838CE0829FF001839F01
:10113000F00D1124E257FD4F118A108A220F331F40
:10114000F901E651FD4F808191810196C9F08091AE
:10115000F4029091F502480F591FDA018D919C918C
:10116000918380839FB7F89480913C028062809342
:101170003C0225E33CE030933302209332029FBFD0
:10118000CF9108952F923F924F925F926F927F92EC
:101190008F929F92AF92BF92CF92DF92EF92FF9287
:1011A0000F931F93CF93DF93682ECB016A01180131
:1011B0002901C62D062C000CDD0BFE01EE0FFF1FD2
:1011C000E651FD4F2FEF3FEF318320832FB7F89487
:1011D000FE01EE0FFF1FE257FD4F008111812FBF6F
:1011E0004F3F5F4F09F040C08CE08C9F90018D9F76
:1011F000300D1124A90142575D4F7A01FA0120896F
:101200003189232BF1F021E030E0318B208B2196C6
:101210008C9FF0018D9FF00D1124E257FD4F10823D
:10122000118212821382B801012E000C880B990BD7
:101230000E94852AF7016087718782879387138BC5
:10124000028BDF91CF911F910F91FF90EF90DF9074
:10125000CF90BF90AF909F908F907F906F905F9056
:101260004F903F902F9008956F3F7F4F19F00E944D
:1012700074088C01C6010E947408801B910BBC018C
:10128000990F880B990B0E94852A4B015C0120E085
:1012900030E0A9010E947E2A811116C0B601862D78
:1012A000DF91CF911F910F91FF90EF90DF90CF9042
:1012B000BF90AF909F908F907F906F905F904F9076
:1012C0003F902F900C947F0820E030E040E059E3FD
:1012D000C501B4010E94E42AA20191010E94E42AFE
:1012E0001B012C0120E030E0A9010E943A2D1816C4
:1012F00024F057FA509457F850942091710230918D
:1013000072024091730250917402C201B1010E94B5
:10131000E42A9B01AC010E94262C0E940B2D8CE03C
:10132000782E7C9E90017D9E300D1124A90142579C
:101330005D4F7A01FA01718B608B6115710509F4BB
:10134000ADCF90E080E00E94832A9B01AC01C501F3
:10135000B4010E94922C4B015C0121967C9EF0010D
:101360007D9EF00D1124E257FD4F80829182A28272
:10137000B382B801110F880B990B0E94852AF701DF
:101380006087718782879387D38AC28A20E030E0A2
:10139000A901C501B4010E947E2A811152CF81E0CA
:1013A00090E0F701918B808B4CCF662371F08230F7
:1013B00041F0833041F0813011F05E9A0895289A0F
:1013C0000895299A08952A9A0895823041F0833029
:1013D00041F0813011F05E98089528980895299879
:1013E00008952A980895CF93DF93EC0180E1FB01E3
:1013F00011928A95E9F7FB0190E08C81981788F4A7
:10140000292F30E0A881B981A20FB31F8C9180836E
:10141000AA81BB81A20FB31F8C91818332969F5FFB
:10142000ECCFDF91CF91089584EC91E00C94860687
:10143000AF92BF92DF92EF92FF920F931F93CF93E1
:10144000DF935C0106EF12E0D0E0C0E0F801D1903C
:101450008F017501EC0EFD1EC7010E94A22BD8164C
:1014600021F06D2DC7010E94AA2B2196C336D1050C
:1014700069F786EF92E0DF91CF911F910F91FF9076
:10148000EF90DF90BF90AF900895CF92DF92EF92F0
:10149000FF920F931F93CF93DF93EB017B0123E622
:1014A000E20EF11C8B016C01C61AD70AC601800F2F
:1014B000911F0E94A22BF80181938F01EE15FF0569
:1014C000A9F7CE01DF91CF911F910F91FF90EF907F
:1014D000DF90CF900895CF92DF92EF92FF920F931B
:1014E0001F93CF93DF93CDB7DEB7C054D1090FB6AA
:1014F000F894DEBF0FBECDBF9E01215B3F4F2F96FC
:101500004EAD5FAD2F9760E470E0CE0101966C01A7
:101510000E94F1297C019FE3E916F1047CF1C701E7
:1015200002960E94C92D8C01009751F19E01215B0A
:101530003F4F2F964EAD5FAD2F97B7010E94F12917
:101540007C01A701B80185E591E00E94A305C016C2
:10155000D10619F0C8010E94652EC701C05CDF4F9B
:101560000FB6F894DEBF0FBECDBFDF91CF911F91B4
:101570000F91FF90EF90DF90CF9008958601E1CF1B
:10158000E12CF12CEACFF894E99886E894E0909366
:10159000030180930201EFE6F0E08081887D808383
:1015A0001092810080914201909143010E94652E2A
:1015B000109243011092420178940895CF92DF92E5
:1015C000EF92FF92CF93DF93C0914201D0914301FC
:1015D000209709F057C00E94B80464E670E080E0EC
:1015E00090E00E9416058AE891E00E94C92DEC0166
:1015F00080E090E0A0ECBFE788839983AA83BB8357
:101600001D821C828BEF9FEF9F838E830E94480573
:1016100079876887FE013A96CE0186579E4F1192D0
:1016200011921192E817F907D1F7D0934301C093B3
:101630004201CD2B41F480E0DF91CF91FF90EF90FC
:10164000DF90CF900895F89488E497E09093030199
:101650008093020180916900837F88608093690094
:10166000E99A10928500109284001092800081E027
:101670008093810080916F00816080936F00B09AA9
:101680007894D9CFC880D980EA80FB80A7019601E1
:10169000C701B6010E948F2D81111BC020E030E0F0
:1016A000A901C701B6010E947E2A811106C0C12C82
:1016B000D12C80ECE82E8FE7F82EC0927102D092E8
:1016C0007202E0927302F09274020E94C30A81E0F7
:1016D000B3CF0E94480528853985621B730B603D96
:1016E000774008F4A8CF80E090E0A0ECBFE78093BB
:1016F000710290937202A0937302B0937402E5CFCB
:10170000CF93DF93EC0188819981009731F00E949B
:10171000652E198218821B821A821C82DF91CF915A
:101720000895AF92BF92CF92DF92FF920F931F93D3
:10173000CF93DF938C01EB01FB0132968881FF246C
:10174000F3949081891730F43296F394892F28E02E
:10175000F212F7CFC8010E94800B81E0F816D9F091
:10176000F801F482AF2CB12C6501CC0CDD1CC60154
:101770000E94C92DF1E0CF1AD108FC01119221E09D
:10178000C21AD108D7FEFACFF801918380838A0D5F
:101790009B1D93838283F80180819181892BB1F015
:1017A00090E080E0F8012481821760F4298138817B
:1017B000A081B181A80FB91F3C93A281B381A80F6A
:1017C000B91F2C93229601968F1560F3DF91CF916C
:1017D0001F910F91FF90DF90CF90BF90AF90089531
:1017E000FB0101900020E9F73197AF01461B570B31
:1017F000DC01ED91FC910280F381E02D099469E315
:1018000071E085E591E00C94F00BCF93DF930E949B
:101810008606EC010E94FF0B8C0F9D1FDF91CF917C
:1018200008957F928F929F92AF92BF92CF92DF9254
:10183000EF92FF920F931F93CF93DF9300D000D0CE
:1018400000D0CDB7DEB78FEF9FEF9A8389831B82DD
:101850001C821D821E8283E6E82EF12C670183E63E
:10186000C80ED11C91E4C91694E0D906D9F0DE0166
:1018700011965D0110E000E0F50171905F014701F4
:10188000800E911EC4010E94A22B781621F0672DB4
:10189000C4010E94AA2B0F5F1F4F0630110561F78C
:1018A0007601DCCF10925A0310925903E6EFF2E072
:1018B00083E6DF011D928A95E9F781E090E0A0E0E0
:1018C000B0E08093F8029093F902A093FA02B093EB
:1018D000FB020E9403030E94FA0290E080E00E9453
:1018E000180A9FB7F89480913C028E7F80933C0247
:1018F00080913C028D7F80933C029FBF8FE395E0F7
:1019000026960FB6F894DEBF0FBECDBFDF91CF9104
:101910001F910F91FF90EF90DF90CF90BF90AF900D
:101920009F908F907F900C94050C0F931F93CF93F3
:10193000DF93EC01088519850617170708F48B015A
:10194000095F1F4F087F8E819F818017910721F1CA
:10195000888199810115110549F1009719F1B801A4
:101960000E94EE2E9983888388819981892B11F4B6
:1019700010E000E01F830E838A819B8108171907FE
:1019800010F41B830A838A819B812C813D818217FD
:10199000930710F49D838C8381E0DF91CF911F9199
:1019A0000F910895C8010E94C92DDCCF009701F363
:1019B0000E94652E19821882DDCFFC0115821482E7
:1019C0001382128260857185695F7F4F687F0C94F6
:1019D000950C8F929F92AF92BF92DF92EF92FF92FF
:1019E0000F931F93CF93DF93EC01D62EECA0FDA0B5
:1019F00008A519A5AEA0BFA08CA99DA9DC01ED91F9
:101A0000FC910680F781E02D0995B2E5DB1631F0F7
:101A1000E4E5DE1619F0F1E4DF121DC08CA89DA8E4
:101A2000DF9287E395E09F938F931F9288E08F93D7
:101A30008DE491E09F938F930E94C1296DE471E042
:101A4000C4010E94F00B8DB79EB707960FB6F894AD
:101A50009EBF0FBE8DBF0E0D1F1DEA0CFB1C0E1589
:101A60001F0539F0D8016D918D01CE010E94F90654
:101A7000F6CF8CA99DA90E94D2068CA99DA9DC0154
:101A8000ED91FC910680F781E02D0995CE018496B9
:101A90000E94DD0C1F8680E0DF91CF911F910F9196
:101AA000FF90EF90DF90BF90AF909F908F90089540
:101AB000CF9380919B0390919C0320919903309147
:101AC0009A0382179307D0F4E0919703F09198035B
:101AD000E80FF91F808190E020918203213089F482
:101AE00087FD19C020917F03C7E02817190651F020
:101AF00064E583E793E0CF910C94E90C8FEF9FEFBF
:101B0000EBCFC8E087E993E00E94DD0C10928203DE
:101B10008C2FCF910895C6E0F5CFCF93DF93EC01E2
:101B200088819981009721F00E94652E1982188280
:101B30001F821E821B821A821D821C82DF91CF911E
:101B400008951F93CF93DF93EC018A819B819C01C1
:101B50002F5F3F4F4E815F818417950750F4E881D6
:101B6000F9813B832A83E80FF91F608381E090E0CD
:101B70000CC0162FB901CE010E94950C811109C02D
:101B8000CE010E948D0D90E080E0DF91CF911F91FA
:101B90000895E881F9818A819B819C012F5F3F4FE5
:101BA0003B832A83E80FF91F1083E0CFCF93DF93A5
:101BB000EC018A89882381F08C8D9D8D8F3F910562
:101BC00030F081E08E871D86DF91CF910895CE01A0
:101BD0004A960E94A10DF7CF8C858617170689F7C4
:101BE00081E08A8BF0CF1F93CF93DF93162F21E0F4
:101BF000FC012787EC01A496CE010E94DD0C612F29
:101C0000CE01DF91CF911F910C94A10DFC0197851E
:101C10009D7F913021F4CF0184960C94A10D90E02A
:101C200080E00895BF92CF92DF92EF92FF920F93E0
:101C30001F93CF93DF93EC01162F8E856A3009F046
:101C4000A3C0823030F08D85833008F46DC081E010
:101C50008E878E85823008F453C08A89882309F4E0
:101C60004FC08C8D9D8D009711F421E02E872E851D
:101C7000223009F47EC0233009F042C0CE014A96DA
:101C80000E94DD0C8F85882309F462C01C858CA915
:101C90009DA9DC01ED91FC910680F781E02D09956D
:101CA000ECA8FDA881E48F9387E395E09F938F9341
:101CB0001F9288E08F938DE491E09F938F930E9411
:101CC000C1296DE471E0C7010E94F00B612FCE01C4
:101CD0000E94F9068CA99DA90E94D2068CA99DA9F3
:101CE000DC01ED91FC910680F781E02D09952DB77F
:101CF0003EB7295F3F4F0FB6F8943EBF0FBE2DBFD2
:101D00001E861D868A89882329F0CE014A960E9464
:101D1000DD0C1A8ADF91CF911F910F91FF90EF9008
:101D2000DF90CF90BF900895813009F490CF82303A
:101D300009F08FCF1D8A40E150E070E060E0CE01F5
:101D400043960E94AF2770E0CE010E94D60D81CF4E
:101D50006C85CE010E94F30DE8A9F9A9309721F016
:101D6000188A099581E0888B61E4CE010E94E90C14
:101D7000C7CF188A2E8D3F8DEEA5FFA5821B930B32
:101D8000099581E0888BBCCF813021F26D3011F252
:101D9000811179C0ED85E1116DC06B3209F06DC024
:101DA00081E08E0F8D87EC0FFD2FF11D138BFE014F
:101DB000E80FF11D138A8B898B3209F0ABCF6E01CE
:101DC00033E1C30ED11C82E58F9387E3E82E85E0D3
:101DD000F82EFF92EF921F9298E0B92EBF920DE479
:101DE00011E01F930F930E94C129B801C6010E9400
:101DF000CD2FADB7BEB717960FB6F894BEBF0FBEC6
:101E0000ADBF892BF1F181E48F93FF92EF921F9286
:101E1000BF921F930F930E94C129B801C6010E946F
:101E2000CD2F2DB73EB7295F3F4F0FB6F8943EBF79
:101E30000FBE2DBF892B09F46DCF84E58F93FF92E0
:101E4000EF921F92BF921F930F930E94C129B80176
:101E5000C6010E94CD2FADB7BEB717960FB6F89446
:101E6000BEBF0FBEADBF892B09F054CF82E08E8775
:101E70001D8650CFE63008F493CF1D8681E08E8713
:101E800049CF83E0F4CFE62EF12CC7010E94AB2F9F
:101E9000892B19F1ED8581E08E0F8D87EC0FFD2FD9
:101EA000F11D138B833050F7823009F033CF1D8A38
:101EB00040E150E070E060E0CE0143960E94AF2721
:101EC00070E0CE01DF91CF911F910F91FF90EF90C5
:101ED000DF90CF90BF900C94D60D1C3209F41ACF2E
:101EE000C7010E947229892B49F214CFCF93DF9347
:101EF000C091A703D091A803E881F9810084F185FE
:101F0000E02DCE010995892B69F0E881F9810284E1
:101F1000F385E02DCE010995682F83E793E00E94B9
:101F2000120EEACFDF91CF9108950E940D06811124
:101F30000C94760F08958F929F92AF92BF92CF929A
:101F4000DF92EF92FF926B017C0180914101811140
:101F50000BC0C701FF90EF90DF90CF90BF90AF9084
:101F60009F908F900C9416050E94F1044B015C0128
:101F70000E94F104681979098A099B09683E734037
:101F80008105910580F081E0C81AD108E108F108C7
:101F900028EE820E23E0921EA11CB11CC114D104B4
:101FA000E104F10429F70E94760FC114D104E10481
:101FB000F104F1F6FF90EF90DF90CF90BF90AF90DB
:101FC0009F908F9008951F93CF93DF930E943A07BD
:101FD000EC01CF3F83E0D80710F0CFEFD3E018E05B
:101FE000115059F061E070E080E090E00E949B0F9A
:101FF0000E943A07C80FD91FF3CFCE0123E0880F04
:10200000991F2A95E1F7DF91CF911F910895CF9203
:10201000DF92EF92FF92CF93DF93CDE3D2E0ACA5B6
:102020000A2E000CBB0B2EEE3CE70E94182C6B0115
:102030007C0120E7C21A2EEFD20A23EBE20A2BEF33
:10204000F20A8EE480937C0064E170E080E090E02E
:102050000E949B0F0E94E30F9C0150E040E0C701EB
:10206000B6010E94C82B3FAF2EAFC901DF91CF91BF
:10207000FF90EF90DF90CF90089588EC80937C00E4
:1020800064E170E080E090E00E949B0F0E94E30F0B
:10209000EDE3F2E025A530E025573F4F46E0969569
:1020A00087954A95E1F7820F931F9695982F882779
:1020B0009795879566A570E00E94042CCB01499600
:1020C0000895EF92FF920F931F93CF93DF93EC014C
:1020D0008B017A018F858D7F813051F0F12CE12CBD
:1020E000C701DF91CF911F910F91FF90EF9008955D
:1020F0006EA17FA1640F751F8AA59BA5681779073C
:1021000088F42CA13DA18EA19FA1A701B801820F47
:10211000931F0E94C42F8EA19FA18E0D9F1D9FA370
:102120008EA3DECF6F5F7F4FCE0184960E94950C09
:102130008111E7CFD3CFCF92DF92EF92FF920F932F
:102140001F93CF93DF93CDB7DEB7CB56D1090FB630
:10215000F894DEBF0FBECDBFF82E8E010C591F4F75
:1021600088E0D8011D928A95E9F780913C0281FFB1
:1021700025C0F80187818160878385E1E9E5F2E088
:10218000ACEFB2E001900D928A95E1F769E173E05E
:102190008FE593E00E94F30969E273E084E693E03F
:1021A0000E94F30969E373E089E693E00E94F30972
:1021B00069E473E08EE693E00E94F30988E0E9E4C5
:1021C000F2E0A1E1B3E001900D928A95E1F70E945F
:1021D000FA02BE016F5F7F4F8091590390915A03BD
:1021E0000E94450AF1100BC043E650E0BE016F5F4C
:1021F0007F4F86EF92E00E94B72F892BD9F0809114
:10220000590390915A039C012A533F4F21153440A2
:1022100008F0B4C08D599F4F90935A03809359038F
:102220008091590390915A030E94180A83E6F8019D
:10223000868303C0D80116961C920E9448056093BD
:102240005B0370935C0380935D0390935E039FB781
:10225000F89480913C028E7F80933C0280913C02F6
:102260008D7F80933C029FBF8091F8029091F9028C
:10227000A091FA02B091FB02F80180839183A283BE
:10228000B3838091590390915A039583848368E1C5
:1022900083E793E00E94F30D63EF83E793E00E94EE
:1022A000060E48E050E0B80183E793E00E94611019
:1022B0000E94580DE0915903F0915A03D8011796E6
:1022C0008C91179781701F928F938091F7028F9353
:1022D0008091F6028F9317968C9117971F928F9388
:1022E00016968C911F928F932091F8023091F902EB
:1022F0004091FA025091FB02AAE0B0E00E94EA2B62
:102300006B017C01BAE0CB1AD108E108F108CF01DA
:1023100063E670E00E94042CC60ED71EE11CF11C7F
:10232000FF92EF92DF92CF92FF93EF93F8018381B8
:102330008F9382818F9381818F9380818F938EEF92
:1023400094E09F938F9385E591E09F938F930E94F4
:102350006B0A0FB6F894DEBF0FBECDBFC559DF4F75
:102360000FB6F894DEBF0FBECDBFDF91CF911F91A6
:102370000F91FF90EF90DF90CF90089510925A0345
:10238000109259038091F8029091F902A091FA02FB
:10239000B091FB020196A11DB11D8093F8029093AC
:1023A000F902A093FA02B093FB020E94FA0238CF1E
:1023B00060918D026058770B635C7D4F809147027E
:1023C00087FD12C04EE852E0461B570B413560F4C2
:1023D00084170CF4482F10924702042E000C550B62
:1023E00083E793E00C94611040E0F5CF462F50E076
:1023F000BC0183E793E00E9461100C94580D2F926A
:102400003F924F925F926F927F928F929F92AF9284
:10241000BF92CF92DF92EF92FF920F931F93CF93D1
:10242000DF93CDB7DEB7C854D1090FB6F894DEBF3D
:102430000FBECDBF80916F00846080936F0080914C
:102440005F029091600290938B0080938A0080914C
:102450008A0090918B00019690938B0080938A0064
:10246000809184009091850020918A0030918B00AA
:10247000820F931F90938B0080938A00B29A789476
:102480002EE832E03FAF2EAF7901D12CC12CB12C18
:10249000F701008911890115110599F12485358508
:1024A0004685578560857185828593850E94262C97
:1024B000F7016087718782879387980121503109DE
:1024C000318B208B0091F4021091F502A6014A5F36
:1024D0005F4F232B09F013C122893389440F551F05
:1024E000F801E40FF51F31832083F7018289938976
:1024F000F601EE0FFF1FE651FD4F91838083BB2451
:10250000B394FFEFCF1ADF0A2CE0E20EF11C34E0A7
:10251000C316D10409F0BCCFBB2071F09FB7F8946B
:1025200080913C02806280933C0225E33CE0309342
:102530003302209332029FBF8FB7F8949091E90243
:10254000911175C391E09093E9028FBF9FB7F89402
:10255000E091F402F091F50288E03C96AEE8B2E03A
:1025600001900D928A95E1F79FBF4FE553E05F8F91
:102570004E8F19A218A21C8E1D8EE8A02196EFAED8
:102580002197EEADFFAD61917191FFAFEEAF8091FC
:10259000590284FFFDC2EE8DFF8D6480662009F430
:1025A000F7C290E080E00E94832A2CE73CE740E0FD
:1025B00052E40E94922C6B017C0120E030E04FE756
:1025C00053E40E947E2A87FD06C0C12CD12C0FE760
:1025D000E02E03E4F02EEE8DFF8D428053805B8A67
:1025E0004A8A20803180398A288AF101608170E02E
:1025F00090E080E00E94832A6CA77DA78EA79FA70A
:10260000A70196010E943A2DF20187FF1EC0712C8E
:1026100093012150310939AB28ABF901E20DF31DCB
:10262000608170E090E080E00E94832A6AAB7BAB1F
:102630008CAB9DABA70196010E947E2A18160CF464
:1026400069C0E8A9F9A9E40DF51D608170E090E08A
:1026500080E00E94832A6C8B7D8B8E8B9F8B2CE776
:102660003CE740E052E46C897D898E899F890E9415
:10267000E42A20E030E040E05FE30E94262C0E9444
:10268000042D6115F0E27F070CF41FC26FEF7FE1AC
:1026900081E090E021960FAC219702C0880F991F2E
:1026A0000A94E2F7FD8CF82AFD8EEC8C0E2DEE0CD0
:1026B000110BCB010E94F603E091F202F091F302BC
:1026C000208121FF08C02091E5023091E602A90196
:1026D000481B590BCA01F801EE0FFF1FE00FF11F55
:1026E000EE24E394F12CEC0EFD1EEE0DFF1D928303
:1026F0008183F8A0F0822C8D2F5F2C8FE8C19A0186
:10270000220F331F020F131F0E94042DF801718343
:102710006083F7CEA1014F5F5F4F5D8B4C8B10E064
:1027200000E0C80101969BA78AA7EC89FD89619109
:10273000FD8BEC8B70E090E080E00E94832A4B01DF
:102740005C01AC019B01C701B6010E943A2D87FFD5
:1027500053C1EAA5FBA5E40DF51D608170E090E092
:1027600080E00E94832A6C8B7D8B8E8B9F8BA501D2
:102770009401C701B6010E947E2A882309F46FCF15
:10278000F101E00FF11F608170E090E080E00E94B5
:10279000832A6EAB7FAB88AF99AF9B01AC01C501BB
:1027A000B4010E94252C6AAF7BAF8CAF9DAF2EA9E0
:1027B0003FA948AD59ADC701B6010E94252C2AADED
:1027C0003BAD4CAD5DAD0E94922C4B015C01AC0168
:1027D0009B010E94E42A6B017C01AC019B01C501B5
:1027E000B4010E94E42A688F798F8A8F9B8F9B01A6
:1027F000AC010E94262C6AA37BA38CA39DA320E09E
:1028000030E040E450E4C701B6010E94E42A6EA320
:102810007FA388A799A79B01AC016AA17BA18CA18A
:102820009DA10E94252C20E030E040E85FE30E945B
:10283000262C25966CAF7DAF8EAF9FAF2597A70155
:102840009601C701B6010E94262C9B01AC01688D40
:10285000798D8A8D9B8D0E94252CA50194010E9463
:10286000262C29966CAF7DAF8EAF9FAF29972AA1FA
:102870003BA14CA15DA16EA17FA188A599A50E9455
:10288000252C6AA37BA38CA39DA3A7019601688D29
:10289000798D8A8D9B8D0E94252C6EA37FA388A79E
:1028A00099A7F201E00FF11F608170E090E080E0F5
:1028B0000E94832A688F798F8A8F9B8F011511055B
:1028C00009F09DC0F201608170E090E080E00E941C
:1028D000832A6B017C01F201618170E090E080E06D
:1028E0000E94832AA70196010E94252C4B015C01BE
:1028F000F101618170E090E080E00E94832A2CA5C4
:102900003DA54EA55FA50E94252C9B01AC01C501EC
:10291000B4010E94922C4B015C01F201628170E0D3
:1029200090E080E00E94832AA70196010E94252C56
:102930006B017C01F101628170E090E080E00E9417
:10294000832A2CA53DA54EA55FA50E94252C9B01A1
:10295000AC01C701B6010E94922C6B017C01288D4D
:10296000398D4A8D5B8D25966CAD7DAD8EAD9FAD5D
:1029700025970E94E42A2B013C012C893D894E8930
:102980005F896AA17BA18CA19DA10E94E42A9B0181
:10299000AC01C301B2010E94262C2B013C012996F7
:1029A0002CAD3DAD4EAD5FAD29976AAD7BAD8CAD25
:1029B0009DAD0E94E42AA50194010E94E42A9B0196
:1029C000AC01C301B2010E94262C4B015C012EA177
:1029D0003FA148A559A56AAD7BAD8CAD9DAD0E94C8
:1029E000E42AA70196010E94E42A9B01AC01C501DB
:1029F000B4010E94262C2FCE0AA51BA592CEC3019E
:102A000002970817190709F04CC0E8A9F9A9E40DC5
:102A1000F51D608170E090E080E00E94832A6B01E8
:102A20007C01F3E06F1A7108F201E60DF71D608179
:102A300070E090E080E00E94832A9B01AC01C70116
:102A4000B6010E94252C4B015C01620C731CF30142
:102A5000608170E090E080E00E94832A9B01AC01DD
:102A60006AA97BA98CA99DA90E94252C9B01AC0178
:102A7000C501B4010E94922C4B015C01288D398D57
:102A80004A8D5B8DC701B6010E94252C6B017C012C
:102A90002EA93FA948AD59AD6AA97BA98CA99DA9CA
:102AA00054CFA801BE016E5E7F4FCE0140960E94BA
:102AB0007A034B015C014AA55BA5BE016E5E7F4FA8
:102AC000CE0140960E947A0348CF77FF73C048A199
:102AD00059A14F5F5F4F59A348A38E8D9F8D0596D7
:102AE0009F8F8E8F4430510509F047CDEC8C8E2D91
:102AF0000E2C000C990BFC01EE0FFF1FE80FF91FC5
:102B000021E030E02C0F3D1FE20FF31F10821282F4
:102B100011823E2D32300CF456C0315090E080E0EE
:102B2000432F50E063E020E08A01081B190BE22FDD
:102B3000022E000CFF0BE017F1070CF040C026023C
:102B4000F0011124A1E0B0E0AC0FBD1FAE0FBF1F1C
:102B50003396EE24E394F12CEC0EFD1EEE0DFF1DDA
:102B60001196CD90DC901297E180F280EC14FD0478
:102B700068F4CD90DD90EC90129760807180828037
:102B80006D927D928C92C082D182E2822F5FCFCFF4
:102B9000611520E2720774F081E090E021960FAC9D
:102BA000219702C0880F991F0A94E2F7ED8CE82A5A
:102BB000ED8E8DCF161617060CF46ACD88CF0196D0
:102BC00083170CF4B0CF9FB7F8948091E702FD8C87
:102BD0008F1539F0F092E70280913C02806180937A
:102BE0003C028FE0FE013196A6EDB2E001900D921D
:102BF0008A95E1F71092E9029FBFC85BDF4F0FB6DD
:102C0000F894DEBF0FBECDBFDF91CF911F910F9122
:102C1000FF90EF90DF90CF90BF90AF909F908F90FC
:102C20007F906F905F904F903F902F9008958FBF4F
:102C3000E4CFCF92DF92EF92FF9280E480937C000A
:102C400064E170E080E090E00E949B0F0E94E30F3F
:102C5000BC0190E080E00E94832A9B01AC0160E00F
:102C600070EC8FE797E40E94922C20E030E040E87F
:102C70005FE30E94252C0E94472D20E030EE46E7BE
:102C800055E40E94922C2FE03FEC4BE55BE30E9461
:102C9000262C9B01AC0160E070E080E89FE30E947D
:102CA000922C23E333E948E853E40E94252C6B017E
:102CB0007C0160916C026F3FB1F0062E000C770B27
:102CC000880B990B0E94852A20E030E040E85EE303
:102CD0000E94E42AA70196010E94262CFF90EF9003
:102CE000DF90CF90089560E070E080EC9FE7F2CF36
:102CF0008F929F92AF92BF92CF92DF92EF92FF920C
:102D00000F931F93CF93DF93CDB7DEB7A1970FB685
:102D1000F894DEBF0FBECDBF0E94140A80E494E099
:102D20000E94050C85E591E00E94A6060E94140A07
:102D300081E230E020E0F90180935700649142E0A5
:102D400050E0FA01809357007491E4E0F0E0809342
:102D50005700849199E0F901909357002491E3E0A2
:102D6000F0E0909357003491FA01909357009491BA
:102D70001F929F931F923F931F922F931F928F93A7
:102D80001F927F931F926F9382E194E09F938F93A2
:102D900005E511E01F930F930E946B0A8CE094E00D
:102DA0000E94860687EC92E00E9486068CEF93E0F4
:102DB0000E94050CC8010E94A6060E94140A2091D8
:102DC000F8023091F9024091FA025091FB02AAE018
:102DD000B0E00E94EA2B6B017C01FAE0CF1AD10827
:102DE000E108F1088091590390915A0363E670E07D
:102DF0000E94042CC60ED71EE11CF11CFF92EF921C
:102E0000DF92CF9288EE93E09F938F931F930F935F
:102E10000E946B0A1F921F928FED93E09F938F93F6
:102E20001F930F930E946B0A85ED93E00E94860624
:102E300080ED93E00E9486068FEB93E00E94860669
:102E400083EB93E00E948606809159020FB6F894B6
:102E5000DEBF0FBECDBF81FD69C184E51F928F9398
:102E60001F9287E18F9380EA93E09F938F9305E50C
:102E700011E01F930F930E946B0A8FE38F9380E8FA
:102E80008F931F921F921F9288E08F9381E893E0A7
:102E90009F938F931F930F930E946B0A0FE011E093
:102EA00033E1E32E31E0F32E0FB6F894DEBF0FBE10
:102EB000CDBF4AE0842E912CA12CB12CF801219198
:102EC0008F0130E050E040E019A26E01F1E2CF0E38
:102ED000D11CCA01B901A50194010E94C82B605DF3
:102EE000F60162936F01211531054105510589F7FE
:102EF000309729F0BF0185E591E00E94F00B8CE24C
:102F00000E94A106E016F106C9F680915902829549
:102F100081701F928F9387E793E09F938F9385E54E
:102F200091E09F938F930E946B0A209167023091EA
:102F300068020F900F900F900F900F900F90211537
:102F4000310509F4F5C08091650290916602281B55
:102F5000390B50E040E060E070E080E094E00E94D7
:102F6000C82B3F932F93809166028F9380916502C7
:102F70008F938AE693E09F938F9305E511E01F936B
:102F80000F930E946B0AC8010E94A6060E94140AB1
:102F900080916902082E000C990B982F8827929532
:102FA000907F092E000CAA0BBB0B83539343A347BE
:102FB000B04CBF93AF939F938F93809174028F9384
:102FC000809173028F93809172028F93809171022E
:102FD0008F938091590281701F928F9382E493E0C6
:102FE0009F938F931F930F930E946B0A60916C02C3
:102FF0000FB6F894DEBF0FBECDBF6F3F09F49BC084
:10300000062E000C770B880B990B0E94852A20E076
:1030100030E040E85EE30E94E42A162F072FF82EE6
:10302000E92E0E941916EF92FF920F931F939F9320
:103030008F937F936F9382E393E09F938F9305E544
:1030400011E01F930F930E946B0AE0906B02F090C7
:103050006A020E943D101F92EF921F92FF929F936F
:103060008F9386E193E09F938F931F930F930E941A
:103070006B0A80916D021F928F9380915A021F926A
:103080008F938FEF92E09F938F931F930F930E94E4
:103090006B0A89EF92E00E9486060E9407109C014D
:1030A000215031090FB6F894DEBF0FBECDBF2E3FC1
:1030B0003F4F08F447C08FE20E94A1068091600252
:1030C0008F9380915F028F93809164028F938091A0
:1030D00063028F93809162028F93809161028F933C
:1030E00082ED92E09F938F9385E591E09F938F937C
:1030F0000E946B0A85E591E00E94A6060FB6F8943F
:10310000DEBF0FBECDBFA1960FB6F894DEBF0FBED7
:10311000CDBFDF91CF911F910F91FF90EF90DF9086
:10312000CF90BF90AF909F908F9008958CE496CEF3
:1031300020E030E216CF10E000E080ECF82E9FE7B0
:10314000E92E6FCFBC0190E080E00E94832A20E04E
:1031500030E04AE754E40E94922C9F938F937F9330
:103160006F9384EF92E09F938F931F930F930E942E
:103170006B0A0FB6F894DEBF0FBECDBF9FCF2F9264
:103180003F924F925F926F927F928F929F92AF92F7
:10319000BF92CF92DF92EF92FF920F931F93CF9344
:1031A000DF93CDB7DEB76A970FB6F894DEBF0FBED8
:1031B000CDBF998F888F80ED80938D021092480249
:1031C0001092470205E5E02E01E0F02E8AEC882EF1
:1031D00081E0982E412C512C90E8692E9FE3792EA6
:1031E000888D998D9C0121503109398F288F1816AF
:1031F00019060CF0FCC310918D028DE893E00E943B
:103200001B07E0918D02E058E13508F0E0E5F0E0C1
:10321000E35CFD4F808380918D0291E0980F909345
:103220008D02103D11F580938D02288D398D232B51
:10323000B9F6893BA9F680914702823089F683E48A
:1032400098E090937E0280937D0285E0EAE0F1E0D1
:10325000AFE7B2E001900D928A95E1F787E08093A5
:10326000470280EC80938D02BBCF1A3811F480EDB9
:10327000F9CF193809F0B4CF90914602963509F488
:10328000D5C108F060C0923209F4BAC168F5923134
:1032900009F483C1D8F4903109F4A6C1913109F041
:1032A0009FCF00914202109143022091440230913D
:1032B0004502409140025091410260913D0270915F
:1032C0003E0280913F020E94C2088ACF288D398D2C
:1032D000903209F492C142E06CEB913209F080CF58
:1032E000C9010E9469087CCF913509F4D3C1C0F4AB
:1032F000933209F48AC1903509F072CF60E0CE01B3
:1033000048960E945808823941F49FB7F8948091FA
:103310003C02826080933C029FBF0E94540560CFB4
:10332000933509F480C108F473C1943509F058CF7E
:1033300010923502109234021092390210923A0221
:1033400010923B024DCF933909F4B2C108F0A9C0E5
:10335000943809F4E4C1E0F4923809F4BEC193381A
:1033600009F03ECF61E0CE0148960E9458082091B6
:103370005F0230916002281B310930936002209374
:103380005F023F932F933F932F9383E892E0BBC15B
:10339000963809F429C208F406C2913909F020CF01
:1033A0001F928CE98F931F9287E18F9388E08F9310
:1033B00083E48F938EEA92E09F938F93FF92EF9234
:1033C0000E946B0A0FB6F894DEBF0FBECDBFB9E501
:1033D000CB2EB2E0DB2E09EA12E0D6018D916D0111
:1033E0001F928F931F930F93FF92EF920E946B0A8D
:1033F0000F900F900F900F900F900F90BEE6CB168E
:10340000B2E0DB0651F70E94FF0BEFE5CE2EE3E0C2
:10341000DE2E10E000E0F7E12F2EA3EDAA2EA1E0B2
:10342000BA2E1F930F931F92E3EAEF931F922F92EE
:103430001F930F93BF92AF92FF92EF920E946B0A7D
:1034400085E591E00E94A6060FB6F894DEBF0FBE98
:10345000CDBF312CD60114968C911497381608F0F4
:1034600001C1832D90E012960D90BC91A02DA80F64
:10347000B91F2C911F922F93D601ED91FC91E80F6B
:10348000F91F80811F928F939F928F92FF92EF92EC
:103490000E946B0A33940FB6F894DEBF0FBECDBF07
:1034A000D9CF923A09F48FC248F4943909F46CC127
:1034B000953909F095CE0E94110C92CE9D3E09F4EB
:1034C000A7C19E3E09F42FC2933A09F089CE6FEF4F
:1034D000CE0148960E945808382EE3E0E81708F419
:1034E0007FCE2FB6F894EDE7F2E080E1DF011D9288
:1034F0008A95E9F7088D198D101611060CF05EC239
:10350000013108F000E110E0A0909103B090920327
:10351000C0908F03D0909003CA18DB0860918D0390
:1035200070918E036A0D7B1DA8018DE792E00E94C9
:10353000C42FC801C016D10608F4C601A80EB91ED2
:10354000B0929203A0929103C016D10650F0B5E05C
:103550003B9EC00111246DE772E0815A9C4F0E948E
:10356000910B809159028F7E809359028091630361
:1035700081110CC080916803811108C080916D0396
:10358000811104C080917203882329F0809159022F
:103590008061809359022FBE23CE888D998D9C0126
:1035A00021503109398F288F18161906DCF48DE85F
:1035B00093E00E941B079C01982F9F7014E03595A3
:1035C00027951A95E1F7422F4F704A8F20914702B5
:1035D0008A8D880F820F809347029A5B990F909390
:1035E0008D02FECD90E0F2CF6091400270914102D9
:1035F00080913F020E947F08F3CD44E068EB70CEDB
:1036000042E06EEB888D998D6CCE44E064EBFACF8E
:1036100040927D0250927E0260927F027092800200
:1036200044E060ECEFCF0E947816DACD888D998D5A
:103630009C0121503109398F288F181619060CF07A
:10364000CFCD8DE893E00E941B07E091F202F0914C
:10365000F30221E0019709F020E0808120FB81F94D
:103660008083BECDFFE1F31528F080E30E94A10620
:103670003394F8CF0E94FF0B85E591E00E94A606E7
:103680000F5F1F4F25E0C20ED11C0430110509F059
:10369000C8CEA6CD0E9403039FB7F89480913C0248
:1036A000826080933C029FBF81E00E949B1098CD76
:1036B0001FB7F89460E0CE0148960E9458088239FE
:1036C00029F480913C02826080933C0280913C020C
:1036D0008E7F80933C021FBFE7CF61E0CE0148960A
:1036E0000E94580820915F0230916002820F932F50
:1036F000911D9093600280935F029F938F939F939D
:103700008F9386E992E09F938F93FF92EF920E94AE
:103710006B0A0FB6F894DEBF0FBECDBF61CD888DAA
:10372000998D9C0121503109398F288F02970CF116
:10373000809191039091920320918F033091900397
:10374000281B390B2230310510F022E030E0E091E7
:103750008D03F0918E03E80FF91F40815181509342
:10376000600240935F02820F931F909392038093B5
:10377000910380915F02909160029F938F939F933A
:103780008F9380E792E0BFCF86E692E00E94050C1F
:103790000E94B80464EF71E080E090E00E9416059A
:1037A0000E94DE0A1DCD61E0CE0148960E945808B5
:1037B0002091E5023091E602820F932F911D9093A4
:1037C000E6028093E5029F938F9387E592E09F93B3
:1037D0008F93FF92EF920E946B0A0F900F900F90C1
:1037E0000F900F900F90FCCC61E0CE0148960E94A4
:1037F00058082091E5023091E602281B31093093E8
:10380000E6022093E5023F932F9388E492E0DFCF16
:103810009FB7F8948FE0E7ECF2E0DE01119601909B
:103820000D928A95E1F788E0EEE8F2E0DE0150962D
:1038300001900D928A95E1F79FBF82E492E00E9489
:1038400086068A819B81892B09F468C010E0812F4C
:10385000012E000C990BFC01EE0FFF1FE80FF91F62
:1038600041E050E04C0F5D1FE40FF51F8181928114
:103870000097F1F02081E22FF0E0EE0FFF1FE40F40
:10388000F51F30893F9337853F939F938F931F9206
:103890002F9387E392E09F938F93FF92EF920E9482
:1038A0006B0A1F5F0FB6F894DEBF0FBECDBFCFCF40
:1038B0000E94FF0B6E01F0E1CF0ED11C10E000E082
:1038C00050E1A52E52E0B52ED6012C9111963C91D7
:1038D000B2E0CB0ED11CE091F402F091F502C801E8
:1038E0000696880F991FE80FF91F81818F938081B9
:1038F0008F933F932F931F930F93BF92AF92FF929B
:10390000EF920E946B0A0F5F1F4F0FB6F894DEBF55
:103910000FBECDBF04301105B9F662CC84E292E04F
:103920000E94050CC7CF8AE092E00E9486068DE3D4
:10393000A82E82E0B82E00E810E09EEFC92E91E09C
:10394000D92E302EF02FF3702F2E81F41F930F936A
:1039500043E052E05F934F93FF92EF920E946B0A15
:103960000F900F900F900F900F900F90D5018D91A9
:103970005D011F928F93DF92CF92FF92EF920E9490
:103980006B0A832D8F700F900F900F900F900F90F8
:103990000F908F3061F487EF91E00E9486060F5FF1
:1039A0001F4F013D110569F60E94FF0B19CCB3E0D2
:1039B0002B12F5CF80E20E94A106F1CFE5E03E9EFA
:1039C000C0011124C8CD6FEFCE0148960E9458085F
:1039D000843008F005CCF5E08F9FC00111246DE71D
:1039E00072E0815A9C4F0E94F30940E11ACE6A9618
:1039F0000FB6F894DEBF0FBECDBFDF91CF911F9100
:103A00000F91FF90EF90DF90CF90BF90AF909F907D
:103A10008F907F906F905F904F903F902F90089580
:103A20001F920F920FB60F9211242F933F938F93F3
:103A30009F93AF93BF938091450190914601A091D0
:103A40004701B09148013091440126E0230F2D3702
:103A500058F50296A11DB11D2093440180934501A4
:103A600090934601A0934701B0934801809149018A
:103A700090914A01A0914B01B0914C010196A11D7A
:103A8000B11D8093490190934A01A0934B01B093DB
:103A90004C01BF91AF919F918F913F912F910F90CA
:103AA0000FBE0F901F90189529E8230F0396A11DB4
:103AB000B11DD2CF1F920F920FB60F9211242F93E8
:103AC0003F934F935F936F937F938F939F93AF93A6
:103AD000BF93EF93FF93E0910201F09103010995E9
:103AE000FF91EF91BF91AF919F918F917F916F91D6
:103AF0005F914F913F912F910F900FBE0F901F90AC
:103B000018951F920F920FB60F9211242F933F9387
:103B10004F935F936F937F938F939F93AF93BF93D5
:103B2000EF93FF93E0910001F09101010995FF915E
:103B3000EF91BF91AF919F918F917F916F915F9125
:103B40004F913F912F910F900FBE0F901F9018959E
:103B50001F920F920FB60F9211242F933F934F9302
:103B60005F936F937F938F939F93AF93BF93EF93E5
:103B7000FF9385E591E00E941706FF91EF91BF91B9
:103B8000AF919F918F917F916F915F914F913F91F5
:103B90002F910F900FBE0F901F9018951F920F92AC
:103BA0000FB60F9211242F938F939F93EF93FF9350
:103BB000E0916501F09166018081E0916B01F091E7
:103BC0006C0182FD1BC0908180916E018F5F8F77A9
:103BD00020916F01821741F0E0916E01F0E0EB5A05
:103BE000FE4F958F80936E01FF91EF919F918F9182
:103BF0002F910F900FBE0F901F9018958081F4CFDA
:103C00001F920F920FB60F9211248F939F93809162
:103C10003C0190913D01019690933D0180933C01C0
:103C20009F918F910F900FBE0F901F9018951F922C
:103C30000F920FB60F9211248F939F93AF938091A1
:103C40003E0190913F01A09140010196A11D8093FA
:103C50003E0190933F01A0934001809132029091E8
:103C60003302181619062CF40197909333028093AF
:103C700032028091340290913502009729F0019729
:103C80009093350280933402AF919F918F910F9062
:103C90000FBE0F901F9018951F920F920FB60F92A4
:103CA00011240F931F932F933F934F935F936F9321
:103CB0007F938F939F93AF93BF93CF93DF93EF93B4
:103CC000FF938FE0E6EDF2E0A7ECB2E001900D92F9
:103CD0008A95E1F710928500109284001092890075
:103CE00010928800B19AE091F202F091F302808183
:103CF0008695817091E089278093E8021092C60230
:103D00008091C8029091C9029093890080938800A5
:103D1000C0E08C2F0C2E000C990BFC01EE0FFF1F46
:103D2000E80FF91FE257FD4F82AD93AD892B39F0B3
:103D30006091E80281AD0E94D509CF5FEACF0EE81D
:103D400012E0C0E0D1E0F801819191918F010097DC
:103D5000A1F56091E8026D278C2F0E94D509CF5FF5
:103D6000C43089F78091E80291E089278093E802C6
:103D700080916F008B7F80936F008091C80290913B
:103D8000C902892B01F180916F00826080936F00DE
:103D9000FF91EF91DF91CF91BF91AF919F918F9163
:103DA0007F916F915F914F913F912F911F910F9153
:103DB0000F900FBE0F901F901895811590427CF2C6
:103DC0006091E802C9CF80916F008D7FDFCF1F9295
:103DD0000F920FB60F9211242F933F934F935F933F
:103DE0006F937F938F939F93AF93BF93CF93DF9303
:103DF000EF93FF93C091C60281E08C0F8093C602BF
:103E000083E0C802E0011124C953DD4F6091E8024C
:103E100088810E94D5092C813D8121153105C1F48D
:103E200080916F008D7F80936F00FF91EF91DF9104
:103E3000CF91BF91AF919F918F917F916F915F9142
:103E40004F913F912F910F900FBE0F901F9018959B
:103E50002396FE013297808191818217930770F437
:103E6000809184009091850006968217930708F44C
:103E7000C9019093890080938800D7CF8091C602B2
:103E80008F5F8093C602C2CF8EE693E00E94800BC4
:103E900089E693E00E94800B84E693E00E94800B09
:103EA0008FE593E00E94800B89E291E09093740388
:103EB0008093730387E993E00E948D0D8DE893E072
:103EC0000C948D0DCF93DF93A5E5B1E013961C9272
:103ED0001E92129748EE53E060E070E014964D9306
:103EE0005D936D937C93179787E191E011969C9376
:103EF0008E9385EC90E01D969C938E931C9784EC9A
:103F000090E01F969C938E931E9780EC90E05196C4
:103F10009C938E93509781EC90E053969C938E9354
:103F2000529782EC90E055969C938E93549786EC32
:103F300090E057969C938E93569759961C9259975A
:103F40005A961C925A975B961C925B975C961C92B1
:103F50005C97E3E7F3E01382128244835583668320
:103F6000778389E291E0918380838EEF8487158641
:103F70001686178681E0808B118A128A26E833E044
:103F800087E0E90119928A95E9F7138E128E158E52
:103F9000148E178E168E11A210A213A212A215A2B1
:103FA00014A217A216A211A610A613A612A615A651
:103FB00014A617A616A611AA10AA86E79FE093AB2F
:103FC00082ABB5ABA4ABE2E3F2E08FEF9FEF91835E
:103FD000808382E19AE7938382831482158216821A
:103FE000178210861186128684E6EEE8F2E0DF0181
:103FF0001D928A95E9F789E592E09093F302809308
:10400000F2028DE392E09093F5028093F402EFE5E3
:10401000F3E01182108213821282148216821582BA
:1040200010861782118613861286158614861686C8
:10403000108A1786128A118A138A83E6E6EFF2E065
:10404000EF0119928A95E9F710925A0310925903D9
:1040500088E79CEEAFEFBFEF80935B0390935C0328
:10406000A0935D03B0935E03DF91CF910895CF934A
:10407000DF93CDB7DEB7C356D1090FB6F894DEBFD4
:104080000FBECDBF789484B5826084BD84B5816055
:1040900084BD85B5826085BD85B5816085BD809113
:1040A0006E00816080936E0010928100809181008B
:1040B0008260809381008091810081608093810083
:1040C000809180008160809380008091B100846045
:1040D0008093B1008091B00081608093B0008091A6
:1040E0007A00846080937A0080917A008260809365
:1040F0007A0080917A008E7F80937A0080917A0096
:10410000806880937A001092C100E0916501F0917F
:10411000660182E08083E0916101F091620110828A
:10412000E0916301F091640180E1808310926D0160
:10413000E0916901F0916A0186E08083E091670176
:10414000F0916801808180618083E0916701F09146
:104150006801808188608083E0916701F091680147
:10416000808180688083E0916701F091680180819F
:104170008F7D80830E94140A89EA94E00E94050CD6
:1041800085E591E00E94A606EFE3F2E08FE4DF010F
:104190001D928A95E9F78FEF9FEF90933E028093EF
:1041A0003D0280917F038E3FC1F08EEF80937F03AD
:1041B00010928003109281031092820381E0809319
:1041C000830310928403109285038DE893E00E948C
:1041D0008D0D87E993E00E948D0D87E180937F0329
:1041E0008FEB98E19093A2038093A10388ED91E176
:1041F0009093A4038093A3038FEF9FEF90935A03B0
:104200008093590310E000E0412C512C32010E3D07
:10421000B3E01B0751F1BE016F5F7F4FC8010E94E1
:10422000450ACE0103960E94D50229813A812817BA
:104230003907C1F44B815C816D817E814415550540
:104240006605770578F010935A030093590383E6C7
:10425000FE013196A6EFB2E001900D928A95E1F74A
:104260002A013B010D591F4FD2CF809159039091E4
:104270005A03019609F0F2C00E94110C60E08EE032
:104280000E94870460E083E00E94870410926E021F
:1042900010926F02109270020E94DE0ADE011196E7
:1042A0006D018091420190914301892B09F44EC127
:1042B0000E94DE0A882309F4C9C040907102509020
:1042C00072026090730270907402A3019201C301A4
:1042D000B2010E948F2D811164C020E030E0A9015D
:1042E000C301B2010E947E2A882309F45AC0A301A7
:1042F000920160E074E284EF98E40E94922C0E94A4
:104300000B2D7093E6026093E502198210923C0235
:104310001092E8020AEE12E02FE0822E21E0922EA7
:10432000F8012FEF3FEF219331938F01D401BD901E
:104330004D018B2D0E943E0461E08B2D0E9487046D
:10434000E3E1F1E0E815F90559F7F8941092B200AD
:104350001092B000F1E0F093B100809170008160A4
:1043600080937000B89A10923E0110923F01109213
:1043700040012FEF31E1309303012093020180913E
:104380006900837F886080936900E99A10928000B9
:1043900082E08093810080916F00887D80936F0020
:1043A00078940E943D1090937A02809379020E9443
:1043B000191660937502709376028093770290933A
:1043C00078020E94071068E183E793E00E94F30DF2
:1043D00067EF83E793E00E94060E6CE081E792E0CE
:1043E0000E94F6118091590280FF29C091E1892E27
:1043F00093E0992EB12CD4016D907D904D01611404
:104400007104C9F020905B0230905C0240905D0224
:1044100050905E0220E030E0A901C201B1010E948B
:104420007E2A882341F092018101A3016FEF7FEF83
:104430008B2D0E94C208B394B4E0BB12DCCFF89479
:1044400080913C02846080933C0278940E940D0627
:10445000882309F426CF0E94760F23CF8091FD0296
:10446000873308F487E38E3708F08DE78093FD02E9
:1044700085E1ECEFF2E0A9E5B2E001900D928A95BA
:10448000E1F78FE593E00E94800B84E693E00E94C1
:10449000800B89E693E00E94800B8EE693E00E94F9
:1044A000800B69E173E08FE593E00E94910B69E274
:1044B00073E084E693E00E94910B69E373E089E680
:1044C00093E00E94910B69E473E08EE693E00E9412
:1044D000910B0E94140AE0915903F0915A038091C4
:1044E000F7028F938091F6028F93CF0163E670E01D
:1044F0000E94042C4B01B12CA12C2AE0821A9108B5
:10450000A108B108AAE0B0E0A30192010E94EA2B41
:10451000860E971EA81EB91EBF92AF929F928F92D1
:10452000FF93EF937F926F925F924F9286E894E0B1
:104530009F938F9385E591E09F938F930E946B0AE1
:104540000FB6F894DEBF0FBECDBF98CEF894B090F2
:104550003C027894B2FE09C0F89480913C028B7FB3
:1045600080933C0278940E9478160E9448052B01A3
:104570003C01B3FE1BC0F89480913C02877F80937E
:104580003C02789468E183E793E00E94F30D64EFC6
:1045900083E793E00E94060E6FEF83E793E00E94AB
:1045A000060E63E08EE692E00E94F611B4FE18C09B
:1045B000F8948091E702898380913C028F7E8093FA
:1045C0003C02789468E183E793E00E94F30D65EF85
:1045D00083E793E00E94060E61E0C6010E94F61197
:1045E000B5FE41C0F8948091320290913302892B3C
:1045F000C9F580913C028F7D80933C02EFEFFFEF85
:10460000F0933302E0933202EAEEF2E0860180E0BA
:10461000219131912F3F320771F0D8018C9312967E
:104620003C932E931197DF0112972FEF3FEF2D93BD
:104630003C930D5F1F4F8F5F843051F77894C01605
:10464000D10681F068E183E793E00E94F30D62EF09
:1046500083E793E00E94060EB8016C197D09C6013C
:104660000E94F6117894B0FE12C00E944805009195
:104670005B0310915C0320915D0330915E03601732
:1046800071078207930718F080E00E949B108091C9
:10469000340290913502892B09F0D8CEF89482E14A
:1046A0009AE79093350280933402789491E0909346
:1046B00041010E9419164B015C0180927502909293
:1046C0007602A0927702B0927802AC019B010E9420
:1046D0008F2D811105C0C501B4010E94042D7B01FD
:1046E0000E943D108C0190937A0280937902BC0164
:1046F000990F880B990B0E94852A9B01AC010E949F
:104700008F2D811104C0E016F1060CF47801252CE0
:10471000362C472C5524842C310110924101809174
:104720005A028823C1F18E151F04ACF58091360220
:1047300090913702A0913802681679068A0658F1DE
:10474000A42DC1018B589F4FAF4F80933602909399
:104750003702A09338028091590282FD05C084601F
:10476000809359020E94540570E060E08FEF0E9430
:104770007F08E98280915A028A8368E183E793E0A7
:104780000E94F30D61EF83E793E00E94060E62E062
:10479000C6010E94F61180916D02882309F456CE5D
:1047A0002091390230913A0240913B026216730621
:1047B000840608F44BCEA4E08A9FC0011124092E80
:1047C000000CAA0B820D931DA41D809339029093B7
:1047D0003A02A0933B02B1E0B09341010E943D1028
:1047E00090937A02809379020E9419166093750261
:1047F0007093760280937702909378020E9407105C
:104800001092410168E183E793E00E94F30D60EFAD
:1048100083E793E00E94060E6E2D83E793E00E94EB
:10482000060E6CE081E792E00E94F6110FCEAFE039
:10483000B0E0EDE1F4E20C9478276C011B015A0121
:10484000FC0117821682838181FF48C39E012F5F7E
:104850003F4F4901F6019381F10193FD859193FF4B
:1048600081911F01882309F4E7C2853239F493FD51
:10487000859193FF81911F01853239F4B60190E053
:104880000E94912935015301E5CFF12C512C00E014
:10489000003238F48B3209F190F48032F9F083322F
:1048A00009F107FD34C020ED280F2A3020F506FF5E
:1048B0001BC0FAE0FF9E200D1124F22E05C08D32A0
:1048C00079F0803371F70160F10193FD859193FFD9
:1048D00081911F018111DCCF1AC002600460F4CF06
:1048E0000860F2CF0061F0CF3AE0539E200D112412
:1048F000522E0062E9CF8E3221F406FD9DC2006483
:10490000E3CF8C3611F40068DFCF8836E9F29BEBF9
:10491000980F933008F05FC00061805E06FD02C012
:1049200046E0F42E102F1F73853609F05BC010642B
:1049300017FF61C08F2D9BE39F1508F48BE3442480
:104940004394480E27E03501F4E06F0E711CF50129
:104950006081718182819381042DA4010E949A2833
:104960005C01F981FC87F0FF03C00DE2F3FF07C093
:104970000BE211FD04C0012F047012FD00E22C8532
:104980002C70E22E09F457C00111ABC2F3E0E12C08
:10499000F515A0F483E0E52CE81A13FD08C0B60174
:1049A00080E290E00E949129EA94E110F8CF002380
:1049B00029F0B601802F90E00E9491293C8522ECDD
:1049C000A22E20E0B22E33FD04C096ECA92E90E07A
:1049D000B92E107122C09BE9980F933008F033C1B3
:1049E0000F7E9CCF863611F41068A2CFFF2009F409
:1049F0009FCFFA949DCFE7E02F2DEF1518F427E015
:104A000037E0F32E412C9FCF11118052B60190E078
:104A10000E9491298FEFA81AB80AF501849181119B
:104A2000F3CFEE2009F42FCFB60180E290E00E9490
:104A30009129EA94F6CF17FF6FC04A0CFC85F4FF6A
:104A400004C08A81813309F44A9414140CF086C09E
:104A500028E0241510F488E0482E85E090E017FF48
:104A600006C0C501B7FE02C090E080E001960111CA
:104A70000196FF2031F02F2D30E02F5F3F4F820F46
:104A8000931F5816190619F014F0E52CE81A812F17
:104A9000897011F4E11067C0002329F0B601802F5E
:104AA00090E00E94912913FD02C0E11063C017FF3E
:104AB0007CC08501B7FE02C010E000E0C50184198A
:104AC00091092C016F2D70E0EE27FF27E61BF70BF5
:104AD000FF87EE870F3F100729F4B6018EE290E0C2
:104AE0000E949129A016B1060CF44BC04016510645
:104AF0000CF047C0F501E01BF10BE80DF91D8181B9
:104B0000015011092E853F8502171307E4F1B60104
:104B100090E00E949129DECF16FD9FCFEF2DF0E0AF
:104B2000EA15FB0534F03CEFA3163FEFB3060CF09B
:104B300010683296E80DF91D01C0FA94FF2019F0B3
:104B400082918033D1F317FF88CF442443944F0CD4
:104B5000FA141B0431F02CF0FA187FCF442443944C
:104B60007CCFF12C7ACFB60180E290E00E949129AF
:104B7000EA9490CFB60180E390E00E949129EA94F4
:104B800094CF80E3BDCFA016B10641F49A8196334D
:104B900050F4953319F43C8534FF05C0B60190E01C
:104BA0000E9491293ECF81E3F9CF8A81813319F0A8
:104BB0009C859F7E9C87B60190E00E949129FF20F2
:104BC000A9F0B6018EE290E00E949129F394F3944B
:104BD000E2E001E00E0FE80DF92DF11D8081B60134
:104BE00090E00E949129E02F0F11F3CF85E690E02D
:104BF00014FF02C085E490E0B6010E949129B7FC41
:104C000006C0A114B104C1F4EC85E4FF15C0B19451
:104C1000A194B1088DE2B60190E00E94912980E351
:104C20002AE0A216B10454F4B60190E00E94912942
:104C3000B601C501C096B4CF8BE2EDCF8F5FFAE02D
:104C4000AF1AB108EDCF8336C9F0833771F18335E0
:104C500009F05BC03501F2E06F0E711CF501A08018
:104C6000B1806F2D70E006FD02C06FEF7FEFC501D0
:104C70000E947B299D878C8700680DC0350132E03A
:104C8000630E711CF5018081898321E030E03D874E
:104C90002C8754010F7703FD06C02C853D855216E5
:104CA000130609F0A8F4E52C2BC0350132E0630EA1
:104CB000711CF501A080B1806F2D70E006FD02C06F
:104CC0006FEF7FEFC5010E9486299D878C87E2CF19
:104CD000B60180E290E00E9491295A94DECFF5015E
:104CE00007FD859107FF81915F01B60190E00E9469
:104CF0009129E110EA948C859D8501979D878C8789
:104D0000EC85FD85EF2B59F78CCE843619F089366A
:104D100009F074C0350107FF66C0F4E06F0E711C26
:104D2000F5016081718182819381102F1F7697FF39
:104D300008C090958095709561957F4F8F4F9F4FDC
:104D400010682AE030E0A4010E941D2AA82EA818AD
:104D5000BA2C012F16FF0AC00E7FAF1438F414FFCF
:104D600004C012FD02C0012F0E7EBF2C04FF8EC0B6
:104D7000FE01EA0DF11D8081803309F080C0097EBB
:104D8000F02FF870EF2E03FD90C000FF8AC0FA2CC0
:104D9000B51410F4F50CFB1804FF8DC0B60180E3C8
:104DA00090E00E94912902FF09C088E790E001FF8E
:104DB00002C088E590E0B6010E949129AF1408F482
:104DC00086C0AA940A2D10E00F5F1F4F080D191D11
:104DD000F80182918F01B60190E00E94912980161E
:104DE0009106B1F71ECEF2E06F0E711CF5016081E5
:104DF0007181072E000C880B990B97CF102F8537E8
:104E0000A9F41F7E2AE030E0350117FF2FC0F4E03F
:104E10006F0E711CF5016081718182819381A40103
:104E20000E941D2AA82EA8181F7792CF197F8F36AF
:104E3000D1F048F4883591F0F601868197812F965C
:104E4000E2E10C949427803739F08837A9F714FDF4
:104E5000146020E130E0D8CF1061F9CF04FD166076
:104E600020E132E0D1CF28E030E0CECFF2E06F0E8B
:104E7000711CF5016081718190E080E0D0CF02FD6E
:104E800002C0B3947DCFB394B3947ACF802F867849
:104E900009F476CFF6CFB60180E290E00E94912926
:104EA000B394B514C0F3E12C77CFE52CEB18B5140F
:104EB00008F472CFF8CF802F867809F47FCF8BE289
:104EC00001FF80E207FD8DE2B60190E075CFB601EB
:104ED00080E390E00E949129FA9470CF8FEF9FEFCA
:104EE000AECF24E0E12C251508F063CD84E053CD4E
:104EF0002F923F924F925F926F927F928F929F92EA
:104F0000AF92BF92CF92DF92EF92FF920F931F93D7
:104F1000CF93DF93CDB7DEB7CA1BDB0B0FB6F89488
:104F2000DEBF0FBECDBF09942A88398848885F84C8
:104F30006E847D848C849B84AA84B984C884DF8039
:104F4000EE80FD800C811B81AA81B981CE0FD11D1D
:104F50000FB6F894DEBF0FBECDBFED010895B0E0EF
:104F6000A0E0E5EBF7E20C9479275C016B017A0194
:104F70006115710519F0FB0191838083E114F1043F
:104F800049F0C7010297839728F060E070E0CB01F9
:104F90009CC05E01E5012196F5011081812F90E012
:104FA0000E947229892BA9F71D3209F056C021965B
:104FB000F501118101E0E114F10409F4AEC0F0E162
:104FC000EF16F10409F08EC0103341F488818F7D13
:104FD000883509F083C0198122960260E0E1EE2E47
:104FE000F12C88248A94982CA82CFFE0BF2E20E076
:104FF00060E070E0CB0127010F2C000C66087708F9
:10500000FE0150ED352E310E39E0331538F43FEB0B
:10501000310F3A31A0F549EC342E310E3E141F0405
:10502000BCF52F3FB9F086169706A806B90670F1B1
:10503000A30192010E94B82B232D30E050E040E004
:10504000620F731F841F951F6217730784079507EC
:10505000E8F021E021961081D3CF1B3221F4E50145
:105060002296F501118100E0A6CF78E0E72EF12C21
:1050700088248A94982CA82C6FE1B62EB8CF3FE9EB
:10508000310F3A3128F439EA332EC7CF2FEFE2CF70
:10509000C114D10431F02223E9F02197F601D18324
:1050A000C08300FF07C090958095709561957F4FF4
:1050B0008F4F9F4F2F3F49F482E290E09093AA03D5
:1050C0008093A9036FEF7FEFCB01CDB7DEB7E1E1AE
:1050D0000C94952701FFE5CF2297E0CF10E3E11470
:1050E000F10419F23AE0E316F104E9F080E1E81680
:1050F000F10409F473CFE8E0EE16F10409F4B8CF37
:105100006FEF7FEFCB0197010F2C000C440B550B79
:105110000E94C82B49015A016ACF103309F456CFB7
:105120009AE0E92EF12C89E9882E982CA82C89E1A7
:10513000B82E5DCF283008F027E03327DA01990F29
:10514000311D87FD916000966105710539F432606B
:105150002E5F3D9330E32A95E1F708959F3F30F0AD
:1051600080387105610509F03C5F3C5F3D939130EB
:1051700008F08068911DDF93CF931F930F93FF92E8
:10518000EF92192F987F9695E92F96959695E90FAE
:10519000FF27EC5DFE4F99273327EE24FF24A7015C
:1051A000E70105900894079428F4360FE71EF81ECF
:1051B000491F511D660F771F881F991F0694A1F77D
:1051C0000590079428F4E70EF81E491F561FC11DCD
:1051D000770F881F991F661F0694A1F70590079403
:1051E00028F4F80E491F561FC71FD11D880F991F9D
:1051F000661F771F0694A1F70590079420F4490FC6
:10520000561FC71FD81F990F661F771F881F069448
:10521000A9F784911095177041F0D695C7955795C9
:105220004795F794E7941A95C1F7EAECF0E0689493
:105230001590159135916591959105907FE2739543
:10524000E118F10A430B560BC90BD009C0F7E10C6A
:10525000F11E431F561FC91FD01D7EF4703311F479
:105260008A95E6CFE894015030F0080F0AF4002741
:10527000021708F4202F2395022F7A3328F079E3C0
:105280007D932A95E9F710C07D932A9589F60694B7
:1052900097956795379517951794E118F10A430B81
:1052A000560BC90BD00998F023957E9173957A33EC
:1052B00008F070E37C932013B8F77E9170617D93C2
:1052C00030F0839571E37D9370E32A95E1F7112423
:1052D000EF90FF900F911F91CF91DF91992787FD5C
:1052E0009095089591110C947B2A803219F0895081
:1052F0008550C8F70895FC01059061507040011079
:10530000D8F7809590958E0F9F1F0895FC016150EE
:10531000704001900110D8F7809590958E0F9F1FD7
:1053200008950F931F93CF93DF93182F092FEB014D
:105330008B8181FD09C01FEF0FEF812F902FDF912F
:10534000CF911F910F91089582FF14C02E813F814C
:105350008C819D81281739073CF4E881F981CF01C0
:1053600001969983888310838E819F8101969F8304
:105370008E83E3CFE885F985812F0995892BA1F3E9
:10538000DACFAEE0B0E0E7ECF9E20C9486270D89C5
:105390001E898F89988D2EE02C831A83098397FFAD
:1053A00002C080E090E801979E838D83AE01455E48
:1053B0005F4F698D7A8DCE0101960E9417244D8131
:1053C0005E8157FD0AC02F813885421753070CF4C0
:1053D0009A01020F131FF80110822E96E4E00C943C
:1053E000A227AEE0B0E0E7EFF9E20C9486278C014B
:1053F000FA018EE08C831A83098377FF02C060E094
:1054000070E8615071097E836D83A901BF01CE01EF
:1054100001960E9417244D815E8157FD0AC02F819D
:105420003885421753070CF49A01020F131FF80135
:1054300010822E96E4E00C94A227FA01AA272830C5
:1054400051F1203181F1E8946F936E7F6E5F7F4F51
:105450008F4F9F4FAF4FB1E03ED0B4E03CD0670FCD
:10546000781F891F9A1FA11D680F791F8A1F911D20
:10547000A11D6A0F711D811D911DA11D20D009F470
:1054800068943F912AE0269F11243019305D3193B2
:10549000DEF6CF010895462F4770405D4193B3E09B
:1054A0000FD0C9F7F6CF462F4F70405D4A3318F042
:1054B000495D31FD4052419302D0A9F7EACFB4E0F3
:1054C000A6959795879577956795BA95C9F70097AB
:1054D0006105710508959B01AC010A2E069457954C
:1054E000479537952795BA95C9F7620F731F841FA3
:1054F000951FA01D08959927882708950E94C02A06
:1055000008F481E00895E89409C097FB3EF4909573
:105510008095709561957F4F8F4F9F4F9923A9F08C
:10552000F92F96E9BB279395F6958795779567951B
:10553000B795F111F8CFFAF4BB0F11F460FF1BC05F
:105540006F5F7F4F8F4F9F4F16C0882311F096E9F2
:1055500011C0772321F09EE8872F762F05C06623A0
:1055600071F096E8862F70E060E02AF09A95660F59
:10557000771F881FDAF7880F9695879597F9089512
:10558000990F0008550FAA0BE0E8FEEF1616170654
:10559000E807F907C0F012161306E407F50798F0BC
:1055A000621B730B840B950B39F40A2661F0232BD5
:1055B000242B252B21F408950A2609F4A140A69551
:1055C0008FEF811D811D08950E94F72A0C94682B8E
:1055D0000E945A2B38F00E94612B20F0952311F085
:1055E0000C94512B0C94572B11240C949C2B0E943F
:1055F000792B70F3959FC1F3950F50E0551F629F73
:10560000F001729FBB27F00DB11D639FAA27F00D1B
:10561000B11DAA1F649F6627B00DA11D661F829F42
:105620002227B00DA11D621F739FB00DA11D621F27
:10563000839FA00D611D221F749F3327A00D611D44
:10564000231F849F600D211D822F762F6A2F112426
:105650009F5750409AF0F1F088234AF0EE0FFF1F59
:10566000BB1F661F771F881F91505040A9F79E3FB0
:10567000510580F00C94512B0C949C2B5F3FE4F36C
:10568000983ED4F3869577956795B795F795E79506
:105690009F5FC1F7FE2B880F911D9695879597F90F
:1056A000089597F99F6780E870E060E008959FEFA4
:1056B00080EC089500240A941616170618060906A9
:1056C000089500240A941216130614060506089578
:1056D000092E0394000C11F4882352F0BB0F40F400
:1056E000BF2B11F460FF04C06F5F7F4F8F4F9F4F40
:1056F000089557FD9058440F551F59F05F3F71F0C2
:105700004795880F97FB991F61F09F3F79F0879528
:105710000895121613061406551FF2CF4695F1DFB1
:1057200008C0161617061806991FF1CF8695710541
:10573000610508940895E894BB2766277727CB0175
:1057400097F90895F999FECF92BD81BDF89A9927EE
:1057500080B50895262FF999FECF1FBA92BD81BD5D
:1057600020BD0FB6F894FA9AF99A0FBE01960895E3
:10577000DB018F939F930E94EA2BBF91AF91A29F71
:10578000800D911DA39F900DB29F900D112408953F
:10579000A1E21A2EAA1BBB1BFD010DC0AA1FBB1F35
:1057A000EE1FFF1FA217B307E407F50720F0A21BA7
:1057B000B30BE40BF50B661F771F881F991F1A9414
:1057C00069F760957095809590959B01AC01BD013E
:1057D000CF0108950E94F52BA59F900DB49F900DC9
:1057E000A49F800D911D11240895A29FB001B39F25
:1057F000C001A39F700D811D1124911DB29F700DDA
:10580000811D1124911D0895AA1BBB1B51E107C0E6
:10581000AA1FBB1FA617B70710F0A61BB70B881F40
:10582000991F5A95A9F780959095BC01CD010895CF
:105830000E94F52BB7FF0895821B930B0895EE0F7E
:10584000FF1F0590F491E02D09945058BB27AA271B
:105850000E943D2C0C94682B0E945A2B38F00E9419
:10586000612B20F039F49F3F19F426F40C94572B48
:105870000EF4E095E7FB0C94512BE92F0E94792B55
:1058800058F3BA17620773078407950720F079F475
:10589000A6F50C949B2B0EF4E0950B2EBA2FA02DA1
:1058A0000B01B90190010C01CA01A0011124FF27CD
:1058B000591B99F0593F50F4503E68F11A16F040C8
:1058C000A22F232F342F4427585FF3CF46953795C7
:1058D0002795A795F0405395C9F77EF41F16BA0B8C
:1058E000620B730B840BBAF09150A1F0FF0FBB1F3A
:1058F000661F771F881FC2F70EC0BA0F621F731F83
:10590000841F48F4879577956795B795F7959E3FDF
:1059100008F0B0CF9395880F08F09927EE0F979570
:10592000879508950E94A62C0C94682B0E94612BE9
:1059300058F00E945A2B40F029F45F3F29F00C9454
:10594000512B51110C949C2B0C94572B0E94792BAA
:1059500068F39923B1F3552391F3951B550BBB279E
:10596000AA2762177307840738F09F5F5F4F220FE3
:10597000331F441FAA1FA9F335D00E2E3AF0E0E8DA
:1059800032D091505040E695001CCAF72BD0FE2F24
:1059900029D0660F771F881FBB1F261737074807B8
:1059A000AB07B0E809F0BB0B802DBF01FF27935870
:1059B0005F4F3AF09E3F510578F00C94512B0C94B8
:1059C0009C2B5F3FE4F3983ED4F3869577956795DB
:1059D000B795F7959F5FC9F7880F911D96958795A5
:1059E00097F90895E1E0660F771F881FBB1F6217C4
:1059F00073078407BA0720F0621B730B840BBA0B82
:105A0000EE1F88F7E09508950E940B2D6894B11160
:105A10000C949C2B08950E94812B88F09F5798F03E
:105A2000B92F9927B751B0F0E1F0660F771F881FA3
:105A3000991F1AF0BA95C9F714C0B13091F00E94BD
:105A40009B2BB1E008950C949B2B672F782F882710
:105A5000B85F39F0B93FCCF3869577956795B395E4
:105A6000D9F73EF490958095709561957F4F8F4F53
:105A70009F4F08950E94C02A08F48FEF089516F0F2
:105A80000C94942D0C94572B68940C94512B0E94D9
:105A9000812BA8F39923C1F3AEF3DF93CF931F9328
:105AA0000F93FF92C92FDD2788232AF02197660FD5
:105AB000771F881FDAF720E030E040E85FEB9FE3D4
:105AC000883920F0803E38F021968F770E94262C6E
:105AD000E8E6F0E004C00E94262CE5E9F0E00E9430
